{
  "contractName": "StorePurchasing",
  "abi": [
    {
      "constant": true,
      "inputs": [
        {
          "name": "adminAddress",
          "type": "address"
        }
      ],
      "name": "getIsStoreAdmin",
      "outputs": [
        {
          "name": "",
          "type": "bool"
        }
      ],
      "payable": false,
      "stateMutability": "view",
      "type": "function"
    },
    {
      "constant": true,
      "inputs": [
        {
          "name": "",
          "type": "address"
        }
      ],
      "name": "OwnerToStore",
      "outputs": [
        {
          "name": "storeName",
          "type": "string"
        },
        {
          "name": "open",
          "type": "bool"
        },
        {
          "name": "prodCount",
          "type": "uint8"
        }
      ],
      "payable": false,
      "stateMutability": "view",
      "type": "function"
    },
    {
      "constant": true,
      "inputs": [
        {
          "name": "ownerAddress",
          "type": "address"
        }
      ],
      "name": "getCurrentInventory",
      "outputs": [
        {
          "name": "",
          "type": "uint64"
        }
      ],
      "payable": false,
      "stateMutability": "view",
      "type": "function"
    },
    {
      "constant": true,
      "inputs": [
        {
          "name": "_storeName",
          "type": "string"
        }
      ],
      "name": "getStoreExists",
      "outputs": [
        {
          "name": "",
          "type": "bool"
        }
      ],
      "payable": false,
      "stateMutability": "view",
      "type": "function"
    },
    {
      "constant": true,
      "inputs": [
        {
          "name": "",
          "type": "address"
        }
      ],
      "name": "purchaserToItem",
      "outputs": [
        {
          "name": "",
          "type": "uint256"
        }
      ],
      "payable": false,
      "stateMutability": "view",
      "type": "function"
    },
    {
      "constant": false,
      "inputs": [],
      "name": "_pause",
      "outputs": [],
      "payable": false,
      "stateMutability": "nonpayable",
      "type": "function"
    },
    {
      "constant": false,
      "inputs": [],
      "name": "withdraw",
      "outputs": [],
      "payable": false,
      "stateMutability": "nonpayable",
      "type": "function"
    },
    {
      "constant": false,
      "inputs": [
        {
          "name": "_revokedAdmin",
          "type": "address"
        }
      ],
      "name": "removeMaatsAdmin",
      "outputs": [],
      "payable": false,
      "stateMutability": "nonpayable",
      "type": "function"
    },
    {
      "constant": true,
      "inputs": [
        {
          "name": "",
          "type": "address"
        }
      ],
      "name": "isStoreOwner",
      "outputs": [
        {
          "name": "",
          "type": "bool"
        }
      ],
      "payable": false,
      "stateMutability": "view",
      "type": "function"
    },
    {
      "constant": false,
      "inputs": [
        {
          "name": "_newOwner",
          "type": "address"
        }
      ],
      "name": "setMaatsOwner",
      "outputs": [],
      "payable": false,
      "stateMutability": "nonpayable",
      "type": "function"
    },
    {
      "constant": false,
      "inputs": [
        {
          "name": "_newAdmin",
          "type": "address"
        }
      ],
      "name": "createMaatsAdmin",
      "outputs": [],
      "payable": false,
      "stateMutability": "nonpayable",
      "type": "function"
    },
    {
      "constant": false,
      "inputs": [],
      "name": "openStore",
      "outputs": [
        {
          "name": "",
          "type": "bool"
        }
      ],
      "payable": false,
      "stateMutability": "nonpayable",
      "type": "function"
    },
    {
      "constant": false,
      "inputs": [
        {
          "name": "_storeName",
          "type": "string"
        }
      ],
      "name": "removeStoreOwner",
      "outputs": [
        {
          "name": "",
          "type": "bool"
        }
      ],
      "payable": false,
      "stateMutability": "nonpayable",
      "type": "function"
    },
    {
      "constant": true,
      "inputs": [
        {
          "name": "_admin",
          "type": "address"
        }
      ],
      "name": "getIsAdmin",
      "outputs": [
        {
          "name": "",
          "type": "bool"
        }
      ],
      "payable": false,
      "stateMutability": "view",
      "type": "function"
    },
    {
      "constant": true,
      "inputs": [],
      "name": "pause",
      "outputs": [
        {
          "name": "",
          "type": "bool"
        }
      ],
      "payable": false,
      "stateMutability": "view",
      "type": "function"
    },
    {
      "constant": true,
      "inputs": [
        {
          "name": "storeOwnerAddress",
          "type": "address"
        }
      ],
      "name": "getCurrentPrice",
      "outputs": [
        {
          "name": "",
          "type": "uint128"
        }
      ],
      "payable": false,
      "stateMutability": "view",
      "type": "function"
    },
    {
      "constant": false,
      "inputs": [
        {
          "name": "_newPrice",
          "type": "uint128"
        },
        {
          "name": "_productId",
          "type": "uint8"
        }
      ],
      "name": "changePrice",
      "outputs": [
        {
          "name": "",
          "type": "uint128"
        }
      ],
      "payable": false,
      "stateMutability": "nonpayable",
      "type": "function"
    },
    {
      "constant": false,
      "inputs": [
        {
          "name": "_productId",
          "type": "uint8"
        },
        {
          "name": "_newInventory",
          "type": "uint64"
        }
      ],
      "name": "addInventory",
      "outputs": [
        {
          "name": "",
          "type": "uint64"
        }
      ],
      "payable": false,
      "stateMutability": "nonpayable",
      "type": "function"
    },
    {
      "constant": false,
      "inputs": [
        {
          "name": "_price",
          "type": "uint128"
        },
        {
          "name": "_inventory",
          "type": "uint64"
        }
      ],
      "name": "createSetPriceProduct",
      "outputs": [
        {
          "name": "_productId",
          "type": "uint8"
        }
      ],
      "payable": false,
      "stateMutability": "nonpayable",
      "type": "function"
    },
    {
      "constant": false,
      "inputs": [
        {
          "name": "_newOwner",
          "type": "address"
        },
        {
          "name": "_storeName",
          "type": "string"
        }
      ],
      "name": "makeStoreOwner",
      "outputs": [],
      "payable": false,
      "stateMutability": "nonpayable",
      "type": "function"
    },
    {
      "constant": true,
      "inputs": [
        {
          "name": "",
          "type": "address"
        }
      ],
      "name": "createdStore",
      "outputs": [
        {
          "name": "",
          "type": "bool"
        }
      ],
      "payable": false,
      "stateMutability": "view",
      "type": "function"
    },
    {
      "constant": false,
      "inputs": [
        {
          "name": "_NewAdminAddress",
          "type": "address"
        }
      ],
      "name": "createStoreAdmin",
      "outputs": [],
      "payable": false,
      "stateMutability": "nonpayable",
      "type": "function"
    },
    {
      "constant": true,
      "inputs": [
        {
          "name": "ownerAddress",
          "type": "address"
        }
      ],
      "name": "getProductExists",
      "outputs": [
        {
          "name": "",
          "type": "bool"
        }
      ],
      "payable": false,
      "stateMutability": "view",
      "type": "function"
    },
    {
      "constant": true,
      "inputs": [],
      "name": "getNumStores",
      "outputs": [
        {
          "name": "",
          "type": "uint256"
        }
      ],
      "payable": false,
      "stateMutability": "view",
      "type": "function"
    },
    {
      "constant": true,
      "inputs": [],
      "name": "escrow",
      "outputs": [
        {
          "name": "",
          "type": "address"
        }
      ],
      "payable": false,
      "stateMutability": "view",
      "type": "function"
    },
    {
      "constant": true,
      "inputs": [],
      "name": "maatsOwner",
      "outputs": [
        {
          "name": "",
          "type": "address"
        }
      ],
      "payable": false,
      "stateMutability": "view",
      "type": "function"
    },
    {
      "constant": true,
      "inputs": [
        {
          "name": "",
          "type": "uint256"
        }
      ],
      "name": "maatsAdmins",
      "outputs": [
        {
          "name": "",
          "type": "address"
        }
      ],
      "payable": false,
      "stateMutability": "view",
      "type": "function"
    },
    {
      "constant": false,
      "inputs": [],
      "name": "_unpause",
      "outputs": [],
      "payable": false,
      "stateMutability": "nonpayable",
      "type": "function"
    },
    {
      "constant": false,
      "inputs": [
        {
          "name": "_adminAddress",
          "type": "address"
        }
      ],
      "name": "removeStoreAdmin",
      "outputs": [],
      "payable": false,
      "stateMutability": "nonpayable",
      "type": "function"
    },
    {
      "constant": true,
      "inputs": [
        {
          "name": "i",
          "type": "uint256"
        }
      ],
      "name": "getStoreName",
      "outputs": [
        {
          "name": "",
          "type": "string"
        }
      ],
      "payable": false,
      "stateMutability": "view",
      "type": "function"
    },
    {
      "anonymous": false,
      "inputs": [
        {
          "indexed": true,
          "name": "_productId",
          "type": "uint256"
        },
        {
          "indexed": true,
          "name": "_purchaser",
          "type": "address"
        },
        {
          "indexed": false,
          "name": "_storeName",
          "type": "string"
        }
      ],
      "name": "LogItemBought",
      "type": "event"
    },
    {
      "anonymous": false,
      "inputs": [
        {
          "indexed": true,
          "name": "_storeName",
          "type": "string"
        },
        {
          "indexed": true,
          "name": "_productId",
          "type": "uint256"
        },
        {
          "indexed": false,
          "name": "remaining",
          "type": "uint64"
        }
      ],
      "name": "LogInventoryLow",
      "type": "event"
    },
    {
      "anonymous": false,
      "inputs": [
        {
          "indexed": true,
          "name": "_storeName",
          "type": "string"
        },
        {
          "indexed": true,
          "name": "_productId",
          "type": "uint256"
        }
      ],
      "name": "LogInventoryOut",
      "type": "event"
    },
    {
      "anonymous": false,
      "inputs": [
        {
          "indexed": true,
          "name": "_index",
          "type": "uint256"
        },
        {
          "indexed": true,
          "name": "_productId",
          "type": "uint256"
        },
        {
          "indexed": false,
          "name": "_storeName",
          "type": "string"
        }
      ],
      "name": "LogItemShipped",
      "type": "event"
    },
    {
      "anonymous": false,
      "inputs": [
        {
          "indexed": true,
          "name": "_ownerAddress",
          "type": "address"
        },
        {
          "indexed": true,
          "name": "_storeName",
          "type": "string"
        }
      ],
      "name": "LogStoreOpened",
      "type": "event"
    },
    {
      "anonymous": false,
      "inputs": [
        {
          "indexed": false,
          "name": "_productId",
          "type": "uint256"
        },
        {
          "indexed": true,
          "name": "_storeName",
          "type": "string"
        }
      ],
      "name": "LogNewSetPriceProduct",
      "type": "event"
    },
    {
      "anonymous": false,
      "inputs": [
        {
          "indexed": true,
          "name": "_productId",
          "type": "uint256"
        },
        {
          "indexed": false,
          "name": "inventory",
          "type": "uint64"
        }
      ],
      "name": "LogAddedInventory",
      "type": "event"
    },
    {
      "anonymous": false,
      "inputs": [
        {
          "indexed": true,
          "name": "_ownerAddress",
          "type": "address"
        },
        {
          "indexed": true,
          "name": "_storeName",
          "type": "string"
        }
      ],
      "name": "LogProductRemoved",
      "type": "event"
    },
    {
      "anonymous": false,
      "inputs": [
        {
          "indexed": true,
          "name": "_productId",
          "type": "uint256"
        },
        {
          "indexed": true,
          "name": "_storeName",
          "type": "string"
        },
        {
          "indexed": false,
          "name": "_newPrice",
          "type": "uint128"
        }
      ],
      "name": "LogPriceChange",
      "type": "event"
    },
    {
      "anonymous": false,
      "inputs": [
        {
          "indexed": true,
          "name": "_storeName",
          "type": "string"
        },
        {
          "indexed": false,
          "name": "adminAddress",
          "type": "address"
        }
      ],
      "name": "LogNewAdmin",
      "type": "event"
    },
    {
      "anonymous": false,
      "inputs": [
        {
          "indexed": true,
          "name": "_storeName",
          "type": "string"
        },
        {
          "indexed": false,
          "name": "adminAddress",
          "type": "address"
        }
      ],
      "name": "LogAdminRemoved",
      "type": "event"
    },
    {
      "anonymous": false,
      "inputs": [
        {
          "indexed": true,
          "name": "_ownerAddress",
          "type": "address"
        },
        {
          "indexed": true,
          "name": "_newStoreName",
          "type": "string"
        }
      ],
      "name": "LogNewStore",
      "type": "event"
    },
    {
      "anonymous": false,
      "inputs": [
        {
          "indexed": true,
          "name": "_storeOwnerAddress",
          "type": "address"
        }
      ],
      "name": "LogNewStoreOwner",
      "type": "event"
    },
    {
      "anonymous": false,
      "inputs": [
        {
          "indexed": true,
          "name": "_storeOwner",
          "type": "address"
        }
      ],
      "name": "LogStoreOwnerRemoved",
      "type": "event"
    },
    {
      "anonymous": false,
      "inputs": [
        {
          "indexed": true,
          "name": "_ownerAddress",
          "type": "address"
        },
        {
          "indexed": false,
          "name": "_oldStoreName",
          "type": "string"
        }
      ],
      "name": "LogStoreClosed",
      "type": "event"
    },
    {
      "anonymous": false,
      "inputs": [
        {
          "indexed": true,
          "name": "previousOwner",
          "type": "address"
        },
        {
          "indexed": true,
          "name": "newOwner",
          "type": "address"
        }
      ],
      "name": "LogNewOwner",
      "type": "event"
    },
    {
      "anonymous": false,
      "inputs": [
        {
          "indexed": true,
          "name": "newAdmin",
          "type": "address"
        }
      ],
      "name": "LogNewAdmin",
      "type": "event"
    },
    {
      "anonymous": false,
      "inputs": [
        {
          "indexed": true,
          "name": "revokedAdmin",
          "type": "address"
        }
      ],
      "name": "LogAdminRevoked",
      "type": "event"
    },
    {
      "anonymous": false,
      "inputs": [],
      "name": "Pause",
      "type": "event"
    },
    {
      "anonymous": false,
      "inputs": [],
      "name": "Unpause",
      "type": "event"
    },
    {
      "constant": false,
      "inputs": [
        {
          "name": "_escrowAddress",
          "type": "address"
        }
      ],
      "name": "setEscrowAddress",
      "outputs": [],
      "payable": false,
      "stateMutability": "nonpayable",
      "type": "function"
    },
    {
      "constant": true,
      "inputs": [
        {
          "name": "_productId",
          "type": "uint8"
        },
        {
          "name": "_storeName",
          "type": "string"
        }
      ],
      "name": "findFirstItemForSale",
      "outputs": [
        {
          "name": "",
          "type": "uint256"
        }
      ],
      "payable": false,
      "stateMutability": "view",
      "type": "function"
    },
    {
      "constant": true,
      "inputs": [
        {
          "name": "_purchaser",
          "type": "address"
        }
      ],
      "name": "getPurchase",
      "outputs": [
        {
          "name": "",
          "type": "uint256"
        }
      ],
      "payable": false,
      "stateMutability": "view",
      "type": "function"
    },
    {
      "constant": false,
      "inputs": [
        {
          "name": "_productId",
          "type": "uint8"
        },
        {
          "name": "_storeName",
          "type": "string"
        }
      ],
      "name": "buyItem",
      "outputs": [
        {
          "name": "index",
          "type": "uint256"
        }
      ],
      "payable": true,
      "stateMutability": "payable",
      "type": "function"
    },
    {
      "constant": true,
      "inputs": [
        {
          "name": "ownerAddress",
          "type": "address"
        },
        {
          "name": "index",
          "type": "uint256"
        },
        {
          "name": "productId",
          "type": "uint8"
        }
      ],
      "name": "getItemShipped",
      "outputs": [
        {
          "name": "",
          "type": "bool"
        }
      ],
      "payable": false,
      "stateMutability": "view",
      "type": "function"
    },
    {
      "constant": false,
      "inputs": [
        {
          "name": "_itemIndex",
          "type": "uint256"
        },
        {
          "name": "_productId",
          "type": "uint8"
        }
      ],
      "name": "shipItem",
      "outputs": [
        {
          "name": "shipped",
          "type": "bool"
        }
      ],
      "payable": false,
      "stateMutability": "nonpayable",
      "type": "function"
    }
  ],
  "bytecode": "0x6080604052336000806101000a81548173ffffffffffffffffffffffffffffffffffffffff021916908373ffffffffffffffffffffffffffffffffffffffff1602179055506148b3806100536000396000f3006080604052600436106101c1576000357c0100000000000000000000000000000000000000000000000000000000900463ffffffff168062265dc5146101c6578063060347e0146102215780631ab63af81461029e57806321c636fe146103725780632fa8cfac146103dd57806331df27ce1461045e578063320b2ad9146104b55780633ccfd60b146104cc57806340f42c1c146104e35780634db4bc16146105265780635d51aba2146105b05780635effd33c146106225780635f7d53a11461067d57806378678a32146106c05780637e1dcaf714610703578063803360b61461073257806381e4fc82146107b3578063822b0ceb146108055780638456cb591461086057806384cc315b1461088f578063904c977e1461090a5780639bf474b51461098e578063a14f2584146109fa578063a275999c14610a67578063a6bb52e214610abe578063bd9cf58e14610b47578063bdc39f4814610ba2578063cff4af1314610be5578063ddeb63b514610c40578063e20df13814610c83578063e2fdcc1714610cae578063e698f0bb14610d05578063f0e06e4a14610d5c578063fc8234cb14610dc9578063fde57f3b14610de0578063fed4894914610e23575b600080fd5b3480156101d257600080fd5b50610207600480360381019080803573ffffffffffffffffffffffffffffffffffffffff169060200190929190505050610ec9565b604051808215151515815260200191505060405180910390f35b610288600480360381019080803560ff169060200190929190803590602001908201803590602001908080601f0160208091040260200160405190810160405280939291908181526020018383808284378201915050505050509192919290505050610f1f565b6040518082815260200191505060405180910390f35b3480156102aa57600080fd5b506102df600480360381019080803573ffffffffffffffffffffffffffffffffffffffff1690602001909291905050506111d1565b6040518080602001841515151581526020018360ff1660ff168152602001828103825285818151815260200191508051906020019080838360005b8381101561033557808201518184015260208101905061031a565b50505050905090810190601f1680156103625780820380516001836020036101000a031916815260200191505b5094505050505060405180910390f35b34801561037e57600080fd5b506103b3600480360381019080803573ffffffffffffffffffffffffffffffffffffffff1690602001909291905050506112ad565b604051808267ffffffffffffffff1667ffffffffffffffff16815260200191505060405180910390f35b3480156103e957600080fd5b50610444600480360381019080803590602001908201803590602001908080601f0160208091040260200160405190810160405280939291908181526020018383808284378201915050505050509192919290505050611329565b604051808215151515815260200191505060405180910390f35b34801561046a57600080fd5b5061049f600480360381019080803573ffffffffffffffffffffffffffffffffffffffff1690602001909291905050506113ab565b6040518082815260200191505060405180910390f35b3480156104c157600080fd5b506104ca6113c3565b005b3480156104d857600080fd5b506104e1611489565b005b3480156104ef57600080fd5b50610524600480360381019080803573ffffffffffffffffffffffffffffffffffffffff169060200190929190505050611565565b005b34801561053257600080fd5b5061059a600480360381019080803560ff169060200190929190803590602001908201803590602001908080601f016020809104026020016040519081016040528093929190818152602001838380828437820191505050505050919291929050505061177e565b6040518082815260200191505060405180910390f35b3480156105bc57600080fd5b50610608600480360381019080803573ffffffffffffffffffffffffffffffffffffffff16906020019092919080359060200190929190803560ff169060200190929190505050611930565b604051808215151515815260200191505060405180910390f35b34801561062e57600080fd5b50610663600480360381019080803573ffffffffffffffffffffffffffffffffffffffff1690602001909291905050506119f2565b604051808215151515815260200191505060405180910390f35b34801561068957600080fd5b506106be600480360381019080803573ffffffffffffffffffffffffffffffffffffffff169060200190929190505050611a12565b005b3480156106cc57600080fd5b50610701600480360381019080803573ffffffffffffffffffffffffffffffffffffffff169060200190929190505050611b8f565b005b34801561070f57600080fd5b50610718611e58565b604051808215151515815260200191505060405180910390f35b34801561073e57600080fd5b50610799600480360381019080803590602001908201803590602001908080601f0160208091040260200160405190810160405280939291908181526020018383808284378201915050505050509192919290505050611fb4565b604051808215151515815260200191505060405180910390f35b3480156107bf57600080fd5b506107eb60048036038101908080359060200190929190803560ff1690602001909291905050506124c6565b604051808215151515815260200191505060405180910390f35b34801561081157600080fd5b50610846600480360381019080803573ffffffffffffffffffffffffffffffffffffffff169060200190929190505050612838565b604051808215151515815260200191505060405180910390f35b34801561086c57600080fd5b506108756128af565b604051808215151515815260200191505060405180910390f35b34801561089b57600080fd5b506108d0600480360381019080803573ffffffffffffffffffffffffffffffffffffffff1690602001909291905050506128c2565b60405180826fffffffffffffffffffffffffffffffff166fffffffffffffffffffffffffffffffff16815260200191505060405180910390f35b34801561091657600080fd5b5061095460048036038101908080356fffffffffffffffffffffffffffffffff169060200190929190803560ff169060200190929190505050612946565b60405180826fffffffffffffffffffffffffffffffff166fffffffffffffffffffffffffffffffff16815260200191505060405180910390f35b34801561099a57600080fd5b506109d0600480360381019080803560ff169060200190929190803567ffffffffffffffff169060200190929190505050612b3c565b604051808267ffffffffffffffff1667ffffffffffffffff16815260200191505060405180910390f35b348015610a0657600080fd5b50610a4b60048036038101908080356fffffffffffffffffffffffffffffffff169060200190929190803567ffffffffffffffff169060200190929190505050612e61565b604051808260ff1660ff16815260200191505060405180910390f35b348015610a7357600080fd5b50610aa8600480360381019080803573ffffffffffffffffffffffffffffffffffffffff169060200190929190505050613202565b6040518082815260200191505060405180910390f35b348015610aca57600080fd5b50610b45600480360381019080803573ffffffffffffffffffffffffffffffffffffffff169060200190929190803590602001908201803590602001908080601f016020809104026020016040519081016040528093929190818152602001838380828437820191505050505050919291929050505061324b565b005b348015610b5357600080fd5b50610b88600480360381019080803573ffffffffffffffffffffffffffffffffffffffff169060200190929190505050613475565b604051808215151515815260200191505060405180910390f35b348015610bae57600080fd5b50610be3600480360381019080803573ffffffffffffffffffffffffffffffffffffffff169060200190929190505050613495565b005b348015610bf157600080fd5b50610c26600480360381019080803573ffffffffffffffffffffffffffffffffffffffff169060200190929190505050613712565b604051808215151515815260200191505060405180910390f35b348015610c4c57600080fd5b50610c81600480360381019080803573ffffffffffffffffffffffffffffffffffffffff169060200190929190505050613799565b005b348015610c8f57600080fd5b50610c9861383e565b6040518082815260200191505060405180910390f35b348015610cba57600080fd5b50610cc361384b565b604051808273ffffffffffffffffffffffffffffffffffffffff1673ffffffffffffffffffffffffffffffffffffffff16815260200191505060405180910390f35b348015610d1157600080fd5b50610d1a613871565b604051808273ffffffffffffffffffffffffffffffffffffffff1673ffffffffffffffffffffffffffffffffffffffff16815260200191505060405180910390f35b348015610d6857600080fd5b50610d8760048036038101908080359060200190929190505050613896565b604051808273ffffffffffffffffffffffffffffffffffffffff1673ffffffffffffffffffffffffffffffffffffffff16815260200191505060405180910390f35b348015610dd557600080fd5b50610dde6138cb565b005b348015610dec57600080fd5b50610e21600480360381019080803573ffffffffffffffffffffffffffffffffffffffff169060200190929190505050613991565b005b348015610e2f57600080fd5b50610e4e60048036038101908080359060200190929190505050613c24565b6040518080602001828103825283818151815260200191508051906020019080838360005b83811015610e8e578082015181840152602081019050610e73565b50505050905090810190601f168015610ebb5780820380516001836020036101000a031916815260200191505b509250505060405180910390f35b6000600f60008373ffffffffffffffffffffffffffffffffffffffff1673ffffffffffffffffffffffffffffffffffffffff16815260200190815260200160002060009054906101000a900460ff169050919050565b6000806000806000801515600760009054906101000a900460ff161515141515610f4857600080fd5b600a866040518082805190602001908083835b602083101515610f805780518252602082019150602081019050602083039250610f5b565b6001836020036101000a038019825116818451168082178552505050505050905001915050908152602001604051809103902060009054906101000a900473ffffffffffffffffffffffffffffffffffffffff169350600e60008573ffffffffffffffffffffffffffffffffffffffff1673ffffffffffffffffffffffffffffffffffffffff1681526020019081526020016000209250611021878761177e565b94503491508260010160008860ff1660ff16815260200190815260200160002060000160009054906101000a90046fffffffffffffffffffffffffffffffff166fffffffffffffffffffffffffffffffff16821015151561108157600080fd5b61108b8483613d3e565b60028360010160008960ff1660ff168152602001908152602001600020600101868154811015156110b857fe5b90600052602060002090602091828204019190066101000a81548160ff021916908360038111156110e557fe5b021790555084601260003373ffffffffffffffffffffffffffffffffffffffff1673ffffffffffffffffffffffffffffffffffffffff168152602001908152602001600020819055508260010160008860ff1660ff168152602001908152602001600020600201600081819054906101000a900467ffffffffffffffff16809291906001900391906101000a81548167ffffffffffffffff021916908367ffffffffffffffff160217905550508260010160008860ff1660ff16815260200190815260200160002060020160009054906101000a900467ffffffffffffffff1690505050505092915050565b6009602052806000526040600020600091509050806000018054600181600116156101000203166002900480601f01602080910402602001604051908101604052809291908181526020018280546001816001161561010002031660029004801561127d5780601f106112525761010080835404028352916020019161127d565b820191906000526020600020905b81548152906001019060200180831161126057829003601f168201915b5050505050908060020160009054906101000a900460ff16908060090160009054906101000a900460ff16905083565b600080600e60008473ffffffffffffffffffffffffffffffffffffffff1673ffffffffffffffffffffffffffffffffffffffff16815260200190815260200160002090508060010160008060ff16815260200190815260200160002060020160009054906101000a900467ffffffffffffffff16915050919050565b6000600d826040518082805190602001908083835b602083101515611363578051825260208201915060208101905060208303925061133e565b6001836020036101000a038019825116818451168082178552505050505050905001915050908152602001604051809103902060009054906101000a900460ff169050919050565b60126020528060005260406000206000915090505481565b6000809054906101000a900473ffffffffffffffffffffffffffffffffffffffff1673ffffffffffffffffffffffffffffffffffffffff163373ffffffffffffffffffffffffffffffffffffffff1614151561141e57600080fd5b60001515600760009054906101000a900460ff16151514151561144057600080fd5b6001600760006101000a81548160ff0219169083151502179055507f6985a02210a168e66602d3235cb6db0e70f92b3ba4d376a33c0f3d9434bff62560405160405180910390a1565b6000809054906101000a900473ffffffffffffffffffffffffffffffffffffffff1673ffffffffffffffffffffffffffffffffffffffff163373ffffffffffffffffffffffffffffffffffffffff161415156114e457600080fd5b6000809054906101000a900473ffffffffffffffffffffffffffffffffffffffff1673ffffffffffffffffffffffffffffffffffffffff166108fc3073ffffffffffffffffffffffffffffffffffffffff16319081150290604051600060405180830381858888f19350505050158015611562573d6000803e3d6000fd5b50565b6000806000809054906101000a900473ffffffffffffffffffffffffffffffffffffffff1673ffffffffffffffffffffffffffffffffffffffff163373ffffffffffffffffffffffffffffffffffffffff161415156115c357600080fd5b60001515600760009054906101000a900460ff1615151415156115e557600080fd5b60009150600090505b60048111158015611603575060001515821515145b15611769578273ffffffffffffffffffffffffffffffffffffffff1660018260058110151561162e57fe5b0160009054906101000a900473ffffffffffffffffffffffffffffffffffffffff1673ffffffffffffffffffffffffffffffffffffffff16141561175c57600060018260058110151561167d57fe5b0160006101000a81548173ffffffffffffffffffffffffffffffffffffffff021916908373ffffffffffffffffffffffffffffffffffffffff1602179055506000600660008573ffffffffffffffffffffffffffffffffffffffff1673ffffffffffffffffffffffffffffffffffffffff16815260200190815260200160002060006101000a81548160ff021916908315150217905550600191508273ffffffffffffffffffffffffffffffffffffffff167fdca59b6371f7db6faad5c9931588f735722795c7b8ea859824e0afc8b2c70a4f60405160405180910390a25b80806001019150506115ee565b6001151582151514151561177957fe5b505050565b60008060008060008060009450600a876040518082805190602001908083835b6020831015156117c3578051825260208201915060208101905060208303925061179e565b6001836020036101000a038019825116818451168082178552505050505050905001915050908152602001604051809103902060009054906101000a900473ffffffffffffffffffffffffffffffffffffffff169250600e60008473ffffffffffffffffffffffffffffffffffffffff1673ffffffffffffffffffffffffffffffffffffffff16815260200190815260200160002091505b8160010160008960ff1660ff168152602001908152602001600020600101805490508110801561188f575060001515851515145b1561191257600060038111156118a157fe5b8260010160008a60ff1660ff168152602001908152602001600020600101828154811015156118cc57fe5b90600052602060002090602091828204019190069054906101000a900460ff1660038111156118f757fe5b141561190557809350600194505b808060010191505061185b565b6001151585151514151561192257fe5b839550505050505092915050565b600080600e60008673ffffffffffffffffffffffffffffffffffffffff1673ffffffffffffffffffffffffffffffffffffffff168152602001908152602001600020905060038081111561198057fe5b8160010160008560ff1660ff168152602001908152602001600020600101858154811015156119ab57fe5b90600052602060002090602091828204019190069054906101000a900460ff1660038111156119d657fe5b14156119e557600191506119ea565b600091505b509392505050565b600b6020528060005260406000206000915054906101000a900460ff1681565b60008060009054906101000a900473ffffffffffffffffffffffffffffffffffffffff1673ffffffffffffffffffffffffffffffffffffffff163373ffffffffffffffffffffffffffffffffffffffff16141515611a6f57600080fd5b60001515600760009054906101000a900460ff161515141515611a9157600080fd5b600073ffffffffffffffffffffffffffffffffffffffff168273ffffffffffffffffffffffffffffffffffffffff1614151515611acd57600080fd5b6000809054906101000a900473ffffffffffffffffffffffffffffffffffffffff169050816000806101000a81548173ffffffffffffffffffffffffffffffffffffffff021916908373ffffffffffffffffffffffffffffffffffffffff1602179055508073ffffffffffffffffffffffffffffffffffffffff168273ffffffffffffffffffffffffffffffffffffffff167f1f8d7d25344642d919d55999e4664aa452a5f424bc0936ceb9c2b300db7dcbd960405160405180910390a35050565b60008060008060009054906101000a900473ffffffffffffffffffffffffffffffffffffffff1673ffffffffffffffffffffffffffffffffffffffff163373ffffffffffffffffffffffffffffffffffffffff16141515611bef57600080fd5b60001515600760009054906101000a900460ff161515141515611c1157600080fd5b600073ffffffffffffffffffffffffffffffffffffffff168473ffffffffffffffffffffffffffffffffffffffff1614151515611c4d57600080fd5b5b600483111515611cd8578373ffffffffffffffffffffffffffffffffffffffff16600184600581101515611c7e57fe5b0160009054906101000a900473ffffffffffffffffffffffffffffffffffffffff1673ffffffffffffffffffffffffffffffffffffffff161415611ccd5760026001141515611ccc57600080fd5b5b826001019250611c4e565b600091505b60048111158015611cf2575060001515821515145b15611e42576000600182600581101515611d0857fe5b0160009054906101000a900473ffffffffffffffffffffffffffffffffffffffff1673ffffffffffffffffffffffffffffffffffffffff161415611e355783600182600581101515611d5657fe5b0160006101000a81548173ffffffffffffffffffffffffffffffffffffffff021916908373ffffffffffffffffffffffffffffffffffffffff1602179055506001600660008673ffffffffffffffffffffffffffffffffffffffff1673ffffffffffffffffffffffffffffffffffffffff16815260200190815260200160002060006101000a81548160ff021916908315150217905550600191508373ffffffffffffffffffffffffffffffffffffffff167f39e7d4b9ba48f55a740a5192809dbc498fa12724c030b37dab126a3f6774c0f360405160405180910390a25b8080600101915050611cdd565b60011515821515141515611e5257fe5b50505050565b6000806000600960003373ffffffffffffffffffffffffffffffffffffffff1673ffffffffffffffffffffffffffffffffffffffff1681526020019081526020016000209050600d816000016040518082805460018160011615610100020316600290048015611eff5780601f10611edd576101008083540402835291820191611eff565b820191906000526020600020905b815481529060010190602001808311611eeb575b5050915050908152602001604051809103902060009054906101000a900460ff161515611f2b57600080fd5b60001515600760009054906101000a900460ff161515141515611f4d57600080fd5b600960003373ffffffffffffffffffffffffffffffffffffffff1673ffffffffffffffffffffffffffffffffffffffff168152602001908152602001600020915060018260020160006101000a81548160ff02191690831515021790555060019250505090565b6000806000809054906101000a900473ffffffffffffffffffffffffffffffffffffffff1673ffffffffffffffffffffffffffffffffffffffff163373ffffffffffffffffffffffffffffffffffffffff161480612062575060011515600660003373ffffffffffffffffffffffffffffffffffffffff1673ffffffffffffffffffffffffffffffffffffffff16815260200190815260200160002060009054906101000a900460ff161515145b151561206d57600080fd5b600a836040518082805190602001908083835b6020831015156120a55780518252602082019150602081019050602083039250612080565b6001836020036101000a038019825116818451168082178552505050505050905001915050908152602001604051809103902060009054906101000a900473ffffffffffffffffffffffffffffffffffffffff16905060011515600b60008373ffffffffffffffffffffffffffffffffffffffff1673ffffffffffffffffffffffffffffffffffffffff16815260200190815260200160002060009054906101000a900460ff16151514151561215a57600080fd5b6000600d846040518082805190602001908083835b602083101515612194578051825260208201915060208101905060208303925061216f565b6001836020036101000a038019825116818451168082178552505050505050905001915050908152602001604051809103902060006101000a81548160ff0219169083151502179055506000600960008373ffffffffffffffffffffffffffffffffffffffff1673ffffffffffffffffffffffffffffffffffffffff16815260200190815260200160002060020160006101000a81548160ff0219169083151502179055506040805190810160405280600181526020017f3000000000000000000000000000000000000000000000000000000000000000815250600960008373ffffffffffffffffffffffffffffffffffffffff1673ffffffffffffffffffffffffffffffffffffffff16815260200190815260200160002060000190805190602001906122c49291906144bf565b508073ffffffffffffffffffffffffffffffffffffffff167f70e9219a99e9bfc211e7aa1236b656ca826ba23e3e9e5cbdc2f16e0c7eb8fad9600960008473ffffffffffffffffffffffffffffffffffffffff1673ffffffffffffffffffffffffffffffffffffffff16815260200190815260200160002060000160405180806020018281038252838181546001816001161561010002031660029004815260200191508054600181600116156101000203166002900480156123c85780601f1061239d576101008083540402835291602001916123c8565b820191906000526020600020905b8154815290600101906020018083116123ab57829003601f168201915b50509250505060405180910390a26000600b60008373ffffffffffffffffffffffffffffffffffffffff1673ffffffffffffffffffffffffffffffffffffffff16815260200190815260200160002060006101000a81548160ff0219169083151502179055508073ffffffffffffffffffffffffffffffffffffffff167fe6547a945aa917d8f8b8a71a98062b03570c5ab79d6f47aa64dab5ae6483e0c860405160405180910390a2600b60008273ffffffffffffffffffffffffffffffffffffffff1673ffffffffffffffffffffffffffffffffffffffff16815260200190815260200160002060009054906101000a900460ff16915050919050565b60008060001515600760009054906101000a900460ff1615151415156124eb57600080fd5b6000600e60003373ffffffffffffffffffffffffffffffffffffffff1673ffffffffffffffffffffffffffffffffffffffff1681526020019081526020016000209050600d81600001604051808280546001816001161561010002031660029004801561258f5780601f1061256d57610100808354040283529182019161258f565b820191906000526020600020905b81548152906001019060200180831161257b575b5050915050908152602001604051809103902060009054906101000a900460ff1615156125bb57600080fd5b600e60003373ffffffffffffffffffffffffffffffffffffffff1673ffffffffffffffffffffffffffffffffffffffff16815260200190815260200160002091506002600381111561260957fe5b8260010160008660ff1660ff1681526020019081526020016000206001018681548110151561263457fe5b90600052602060002090602091828204019190069054906101000a900460ff16600381111561265f57fe5b14151561266b57600080fd5b6000925060038260010160008660ff1660ff1681526020019081526020016000206001018681548110151561269c57fe5b90600052602060002090602091828204019190066101000a81548160ff021916908360038111156126c957fe5b0217905550600192508360ff16857f8c27a03ba49022d57890c2993ba9a892600fe4449c319742d4cfc8afe51b541d8460000160405180806020018281038252838181546001816001161561010002031660029004815260200191508054600181600116156101000203166002900480156127855780601f1061275a57610100808354040283529160200191612785565b820191906000526020600020905b81548152906001019060200180831161276857829003601f168201915b50509250505060405180910390a3612830600a8360000160405180828054600181600116156101000203166002900480156127f75780601f106127d55761010080835404028352918201916127f7565b820191906000526020600020905b8154815290600101906020018083116127e3575b5050915050908152602001604051809103902060009054906101000a900473ffffffffffffffffffffffffffffffffffffffff16613e3e565b505092915050565b6000801515600760009054906101000a900460ff16151514151561285b57600080fd5b600660008373ffffffffffffffffffffffffffffffffffffffff1673ffffffffffffffffffffffffffffffffffffffff16815260200190815260200160002060009054906101000a900460ff169050919050565b600760009054906101000a900460ff1681565b600080600e60008473ffffffffffffffffffffffffffffffffffffffff1673ffffffffffffffffffffffffffffffffffffffff16815260200190815260200160002090508060010160008060ff16815260200190815260200160002060000160009054906101000a90046fffffffffffffffffffffffffffffffff16915050919050565b6000806000600960003373ffffffffffffffffffffffffffffffffffffffff1673ffffffffffffffffffffffffffffffffffffffff1681526020019081526020016000209050600d8160000160405180828054600181600116156101000203166002900480156129ed5780601f106129cb5761010080835404028352918201916129ed565b820191906000526020600020905b8154815290600101906020018083116129d9575b5050915050908152602001604051809103902060009054906101000a900460ff161515612a1957600080fd5b60001515600760009054906101000a900460ff161515141515612a3b57600080fd5b600e60003373ffffffffffffffffffffffffffffffffffffffff1673ffffffffffffffffffffffffffffffffffffffff16815260200190815260200160002091506000856fffffffffffffffffffffffffffffffff1610151515612a9e57600080fd5b600015158260010160008660ff1660ff16815260200190815260200160002060020160089054906101000a900460ff161515141515612adc57600080fd5b848260010160008660ff1660ff16815260200190815260200160002060000160006101000a8154816fffffffffffffffffffffffffffffffff02191690836fffffffffffffffffffffffffffffffff160217905550849250505092915050565b6000806000806000600e60003373ffffffffffffffffffffffffffffffffffffffff1673ffffffffffffffffffffffffffffffffffffffff1681526020019081526020016000209050600d816000016040518082805460018160011615610100020316600290048015612be65780601f10612bc4576101008083540402835291820191612be6565b820191906000526020600020905b815481529060010190602001808311612bd2575b5050915050908152602001604051809103902060009054906101000a900460ff161515612c1257600080fd5b60001515600760009054906101000a900460ff161515141515612c3457600080fd5b600e60003373ffffffffffffffffffffffffffffffffffffffff1673ffffffffffffffffffffffffffffffffffffffff1681526020019081526020016000209350858460010160008960ff1660ff16815260200190815260200160002060020160008282829054906101000a900467ffffffffffffffff160192506101000a81548167ffffffffffffffff021916908367ffffffffffffffff1602179055508360010160008860ff1660ff16815260200190815260200160002060020160089054906101000a900460ff16925060001515831515141515612d1457600080fd5b5b8567ffffffffffffffff16821015612da1578360010160008860ff1660ff1681526020019081526020016000206001016000908060018154018082558091505090600182039060005260206000209060209182820401919006909192909190916101000a81548160ff02191690836003811115612d8e57fe5b0217905550508180600101925050612d15565b8660ff167fdb3cb3bd3aa8b0116684a1673c77eb69da47689f478ec18c9b1b42042bff3ebc8560010160008a60ff1660ff16815260200190815260200160002060020160009054906101000a900467ffffffffffffffff16604051808267ffffffffffffffff1667ffffffffffffffff16815260200191505060405180910390a28360010160008860ff1660ff16815260200190815260200160002060020160009054906101000a900467ffffffffffffffff1694505050505092915050565b600080612e6c61453f565b6000801515600760009054906101000a900460ff161515141515612e8f57600080fd5b6000600e60003373ffffffffffffffffffffffffffffffffffffffff1673ffffffffffffffffffffffffffffffffffffffff1681526020019081526020016000209050600d816000016040518082805460018160011615610100020316600290048015612f335780601f10612f11576101008083540402835291820191612f33565b820191906000526020600020905b815481529060010190602001808311612f1f575b5050915050908152602001604051809103902060009054906101000a900460ff161515612f5f57600080fd5b600e60003373ffffffffffffffffffffffffffffffffffffffff1673ffffffffffffffffffffffffffffffffffffffff1681526020019081526020016000209350608060405190810160405280886fffffffffffffffffffffffffffffffff1681526020016000604051908082528060200260200182016040528015612ff45781602001602082028038833980820191505090505b5081526020018767ffffffffffffffff1681526020016000151581525092508360090160009054906101000a900460ff169450828460010160008760ff1660ff16815260200190815260200160002060008201518160000160006101000a8154816fffffffffffffffffffffffffffffffff02191690836fffffffffffffffffffffffffffffffff160217905550602082015181600101908051906020019061309e929190614586565b5060408201518160020160006101000a81548167ffffffffffffffff021916908367ffffffffffffffff16021790555060608201518160020160086101000a81548160ff0219169083151502179055509050506001601060008660090160009054906101000a900460ff1660ff1660ff16815260200190815260200160002060006101000a81548160ff02191690831515021790555083600901600081819054906101000a900460ff168092919060010191906101000a81548160ff021916908360ff160217905550505b8567ffffffffffffffff168210156131f5578360010160008660ff1660ff1681526020019081526020016000206001016000908060018154018082558091505090600182039060005260206000209060209182820401919006909192909190916101000a81548160ff021916908360038111156131e257fe5b0217905550508180600101925050613169565b8494505050505092915050565b6000601260008373ffffffffffffffffffffffffffffffffffffffff1673ffffffffffffffffffffffffffffffffffffffff168152602001908152602001600020549050919050565b613253614635565b6000809054906101000a900473ffffffffffffffffffffffffffffffffffffffff1673ffffffffffffffffffffffffffffffffffffffff163373ffffffffffffffffffffffffffffffffffffffff1614806132fe575060011515600660003373ffffffffffffffffffffffffffffffffffffffff1673ffffffffffffffffffffffffffffffffffffffff16815260200190815260200160002060009054906101000a900460ff161515145b151561330957600080fd5b60001515600760009054906101000a900460ff16151514151561332b57600080fd5b60001515600b60008573ffffffffffffffffffffffffffffffffffffffff1673ffffffffffffffffffffffffffffffffffffffff16815260200190815260200160002060009054906101000a900460ff16151514151561338a57600080fd5b60408051908101604052808473ffffffffffffffffffffffffffffffffffffffff16815260200160006fffffffffffffffffffffffffffffffff1681525090506001600b60008573ffffffffffffffffffffffffffffffffffffffff1673ffffffffffffffffffffffffffffffffffffffff16815260200190815260200160002060006101000a81548160ff02191690831515021790555061342c8383613f16565b508273ffffffffffffffffffffffffffffffffffffffff167f64a6cb4c2615e9c9ee211131f9fc94aaa6238a3c255423b75ba43ef01ca42dcd60405160405180910390a2505050565b600c6020528060005260406000206000915054906101000a900460ff1681565b6000806000801515600760009054906101000a900460ff1615151415156134bb57600080fd5b6000600e60003373ffffffffffffffffffffffffffffffffffffffff1673ffffffffffffffffffffffffffffffffffffffff1681526020019081526020016000209050600d81600001604051808280546001816001161561010002031660029004801561355f5780601f1061353d57610100808354040283529182019161355f565b820191906000526020600020905b81548152906001019060200180831161354b575b5050915050908152602001604051809103902060009054906101000a900460ff16151561358b57600080fd5b600e60003373ffffffffffffffffffffffffffffffffffffffff1673ffffffffffffffffffffffffffffffffffffffff168152602001908152602001600020935060009250600191505b600582111580156135ea575060001515831515145b156136fb576000846003018360068110151561360257fe5b0160009054906101000a900473ffffffffffffffffffffffffffffffffffffffff1673ffffffffffffffffffffffffffffffffffffffff1614156136ee5784846003018360068110151561365257fe5b0160006101000a81548173ffffffffffffffffffffffffffffffffffffffff021916908373ffffffffffffffffffffffffffffffffffffffff160217905550600192506001600f60008773ffffffffffffffffffffffffffffffffffffffff1673ffffffffffffffffffffffffffffffffffffffff16815260200190815260200160002060006101000a81548160ff0219169083151502179055505b81806001019250506135d5565b6001151583151514151561370b57fe5b5050505050565b600080600e60008473ffffffffffffffffffffffffffffffffffffffff1673ffffffffffffffffffffffffffffffffffffffff16815260200190815260200160002090506010600060018360090160009054906101000a900460ff160360ff1660ff16815260200190815260200160002060009054906101000a900460ff16915050919050565b60008060009054906101000a900473ffffffffffffffffffffffffffffffffffffffff1673ffffffffffffffffffffffffffffffffffffffff163373ffffffffffffffffffffffffffffffffffffffff161415156137f657600080fd5b81905080601160006101000a81548173ffffffffffffffffffffffffffffffffffffffff021916908373ffffffffffffffffffffffffffffffffffffffff1602179055505050565b6000600880549050905090565b601160009054906101000a900473ffffffffffffffffffffffffffffffffffffffff1681565b6000809054906101000a900473ffffffffffffffffffffffffffffffffffffffff1681565b6001816005811015156138a557fe5b016000915054906101000a900473ffffffffffffffffffffffffffffffffffffffff1681565b6000809054906101000a900473ffffffffffffffffffffffffffffffffffffffff1673ffffffffffffffffffffffffffffffffffffffff163373ffffffffffffffffffffffffffffffffffffffff1614151561392657600080fd5b60011515600760009054906101000a900460ff16151514151561394857600080fd5b6000600760006101000a81548160ff0219169083151502179055507f7805862f689e2f13df9f062ff482ad3ad112aca9e0847911ed832e158c525b3360405160405180910390a1565b600080600080600960003373ffffffffffffffffffffffffffffffffffffffff1673ffffffffffffffffffffffffffffffffffffffff1681526020019081526020016000209050600d816000016040518082805460018160011615610100020316600290048015613a395780601f10613a17576101008083540402835291820191613a39565b820191906000526020600020905b815481529060010190602001808311613a25575b5050915050908152602001604051809103902060009054906101000a900460ff161515613a6557600080fd5b60001515600760009054906101000a900460ff161515141515613a8757600080fd5b600e60003373ffffffffffffffffffffffffffffffffffffffff1673ffffffffffffffffffffffffffffffffffffffff168152602001908152602001600020935060009250600191505b60058211158015613ae6575060001515831515145b15613c0d578473ffffffffffffffffffffffffffffffffffffffff168460030183600681101515613b1357fe5b0160009054906101000a900473ffffffffffffffffffffffffffffffffffffffff1673ffffffffffffffffffffffffffffffffffffffff161415613c005760008460030183600681101515613b6457fe5b0160006101000a81548173ffffffffffffffffffffffffffffffffffffffff021916908373ffffffffffffffffffffffffffffffffffffffff160217905550600192506000600f60008773ffffffffffffffffffffffffffffffffffffffff1673ffffffffffffffffffffffffffffffffffffffff16815260200190815260200160002060006101000a81548160ff0219169083151502179055505b8180600101925050613ad1565b60011515831515141515613c1d57fe5b5050505050565b60606000806000600880549050141515613cfe57600884815481101515613c4757fe5b90600052602060002090600a02019150816000019050808054600181600116156101000203166002900480601f016020809104026020016040519081016040528092919081815260200182805460018160011615610100020316600290048015613cf25780601f10613cc757610100808354040283529160200191613cf2565b820191906000526020600020905b815481529060010190602001808311613cd557829003601f168201915b50505050509250613d37565b6040805190810160405280600181526020017f300000000000000000000000000000000000000000000000000000000000000081525092505b5050919050565b803073ffffffffffffffffffffffffffffffffffffffff163110151515613d6457600080fd5b601160009054906101000a900473ffffffffffffffffffffffffffffffffffffffff1673ffffffffffffffffffffffffffffffffffffffff1663f340fa0182846040518363ffffffff167c0100000000000000000000000000000000000000000000000000000000028152600401808273ffffffffffffffffffffffffffffffffffffffff1673ffffffffffffffffffffffffffffffffffffffff1681526020019150506000604051808303818588803b158015613e2157600080fd5b505af1158015613e35573d6000803e3d6000fd5b50505050505050565b601160009054906101000a900473ffffffffffffffffffffffffffffffffffffffff1673ffffffffffffffffffffffffffffffffffffffff166351cff8d9826040518263ffffffff167c0100000000000000000000000000000000000000000000000000000000028152600401808273ffffffffffffffffffffffffffffffffffffffff1673ffffffffffffffffffffffffffffffffffffffff168152602001915050600060405180830381600087803b158015613efb57600080fd5b505af1158015613f0f573d6000803e3d6000fd5b5050505050565b6060613f20614677565b613f2861469a565b60001515600760009054906101000a900460ff161515141515613f4a57600080fd5b60011515600b60008773ffffffffffffffffffffffffffffffffffffffff1673ffffffffffffffffffffffffffffffffffffffff16815260200190815260200160002060009054906101000a900460ff161515141515613fa957600080fd5b60001515600c60008773ffffffffffffffffffffffffffffffffffffffff1673ffffffffffffffffffffffffffffffffffffffff16815260200190815260200160002060009054906101000a900460ff16151514151561400857600080fd5b60001515600d856040518082805190602001908083835b602083101515614044578051825260208201915060208101905060208303925061401f565b6001836020036101000a038019825116818451168082178552505050505050905001915050908152602001604051809103902060009054906101000a900460ff16151514151561409357600080fd5b608060405190810160405280858152602001600015158152602001838152602001600060ff16815250905080600960008773ffffffffffffffffffffffffffffffffffffffff1673ffffffffffffffffffffffffffffffffffffffff168152602001908152602001600020600082015181600001908051906020019061411a9291906146cf565b5060208201518160020160006101000a81548160ff02191690831515021790555060408201518160030190600661415292919061474f565b5060608201518160090160006101000a81548160ff021916908360ff16021790555090505084600a82600001516040518082805190602001908083835b6020831015156141b4578051825260208201915060208101905060208303925061418f565b6001836020036101000a038019825116818451168082178552505050505050905001915050908152602001604051809103902060006101000a81548173ffffffffffffffffffffffffffffffffffffffff021916908373ffffffffffffffffffffffffffffffffffffffff1602179055506001600d82600001516040518082805190602001908083835b602083101515614263578051825260208201915060208101905060208303925061423e565b6001836020036101000a038019825116818451168082178552505050505050905001915050908152602001604051809103902060006101000a81548160ff02191690831515021790555084816040015160006006811015156142c157fe5b602002019073ffffffffffffffffffffffffffffffffffffffff16908173ffffffffffffffffffffffffffffffffffffffff168152505080600e60008773ffffffffffffffffffffffffffffffffffffffff1673ffffffffffffffffffffffffffffffffffffffff16815260200190815260200160002060008201518160000190805190602001906143549291906146cf565b5060208201518160020160006101000a81548160ff02191690831515021790555060408201518160030190600661438c92919061474f565b5060608201518160090160006101000a81548160ff021916908360ff1602179055509050506001600c60008773ffffffffffffffffffffffffffffffffffffffff1673ffffffffffffffffffffffffffffffffffffffff16815260200190815260200160002060006101000a81548160ff0219169083151502179055506008819080600181540180825580915050906001820390600052602060002090600a02016000909192909190915060008201518160000190805190602001906144539291906146cf565b5060208201518160020160006101000a81548160ff02191690831515021790555060408201518160030190600661448b92919061474f565b5060608201518160090160006101000a81548160ff021916908360ff16021790555050505080600001519250505092915050565b828054600181600116156101000203166002900490600052602060002090601f016020900481019282601f1061450057805160ff191683800117855561452e565b8280016001018555821561452e579182015b8281111561452d578251825591602001919060010190614512565b5b50905061453b91906147cc565b5090565b60806040519081016040528060006fffffffffffffffffffffffffffffffff16815260200160608152602001600067ffffffffffffffff1681526020016000151581525090565b82805482825590600052602060002090601f016020900481019282156146245791602002820160005b838211156145f557835183826101000a81548160ff021916908360038111156145d457fe5b021790555092602001926001016020816000010492830192600103026145af565b80156146225782816101000a81549060ff02191690556001016020816000010492830192600103026145f5565b505b50905061463191906147f1565b5090565b6040805190810160405280600073ffffffffffffffffffffffffffffffffffffffff16815260200160006fffffffffffffffffffffffffffffffff1681525090565b60c060405190810160405280600690602082028038833980820191505090505090565b61012060405190810160405280606081526020016000151581526020016146bf614821565b8152602001600060ff1681525090565b828054600181600116156101000203166002900490600052602060002090601f016020900481019282601f1061471057805160ff191683800117855561473e565b8280016001018555821561473e579182015b8281111561473d578251825591602001919060010190614722565b5b50905061474b91906147cc565b5090565b82600681019282156147bb579160200282015b828111156147ba5782518260006101000a81548173ffffffffffffffffffffffffffffffffffffffff021916908373ffffffffffffffffffffffffffffffffffffffff16021790555091602001919060010190614762565b5b5090506147c89190614844565b5090565b6147ee91905b808211156147ea5760008160009055506001016147d2565b5090565b90565b61481e91905b8082111561481a57600081816101000a81549060ff0219169055506001016147f7565b5090565b90565b60c060405190810160405280600690602082028038833980820191505090505090565b61488491905b8082111561488057600081816101000a81549073ffffffffffffffffffffffffffffffffffffffff02191690555060010161484a565b5090565b905600a165627a7a72305820f85fb55afad1453833e988be19ccf5903d6692b4858044c352591d2f25a2593f0029",
  "source": "pragma solidity ^0.4.24;\n\nimport \"./StoreManagement.sol\";\n/*import \"./Auction/ClockAuctionBase.sol\";\nimport \"./Auction/ClockAuction.sol\";*/\nimport \"../importedContracts/payment/Escrow.sol\";\n\n\n/* @dev This contract is used to manage the purchasing process for set price\n * products. It also manages payments through an escrow contract.  When owner's\n * or admin's ship a product to the purchaser, they withdraw the deposited fund\n * from the purchase of that item. Auction items are NOT managed in this contract\n*/\ncontract StorePurchasing is StoreManagement{\n\n  /// @dev Let owner/admins know a product instance has been purchased\n  event LogItemBought(uint indexed _productId, address indexed _purchaser,string _storeName);\n  /// @dev Let owner/admins know they are running out or are out of a product\n  event LogInventoryLow(string indexed _storeName, uint indexed _productId,uint64 remaining);\n  event LogInventoryOut(string indexed _storeName, uint indexed _productId);\n  /// @dev record that a purchased item has been shipped\n  event LogItemShipped(uint indexed _index,uint indexed _productId,string _storeName);\n\n  /// @dev address of the contract used to handle escrow services;\n  Escrow public escrow;\n\n  /// @dev Used to record the purchaser address and the item they purchased\n  mapping(address => uint) public purchaserToItem;\n\n  /// @dev set the address of the contract handling escrow services;\n  /// @param _escrowAddress : The address of the contract being used\n  function setEscrowAddress(address _escrowAddress) public onlyMaatsOwner {\n    Escrow _escrow = Escrow(_escrowAddress);\n    escrow = _escrow;\n  }\n\n  /// @dev An internal function used to store the payment in the escrow for the owner\n  /// @param _payee : the address of the owner getting payed\n  /// @param value : the value of msg.value in the function calling this function.\n  function depositEscrow(address _payee, uint value) internal{\n    // require that adequate funds are in this contract.\n    require(address(this).balance >= value);\n    // make deposit for the owner\n    escrow.deposit.value(value)(_payee);\n  }\n\n  /// @dev An internal function which withdraws and sends funds to store owner\n  /// @param _payee : the address of the store owner getting payed.\n  function withdrawEscrow(address _payee) internal{\n    escrow.withdraw(_payee);\n  }\n\n  // this could get expensive, lead to security weaknesses, consider method with\n  // index count of first \"forSale\" item. Make public for testing\n  function findFirstItemForSale(uint8 _productId, string _storeName) public view returns(uint){\n    bool found = false;\n    uint index;\n    address _owner = StoreNameToOwner[_storeName];\n    Store storage _store = storeAdminToStore[_owner];\n    for(uint i; i < _store.products[_productId].items.length && found == false; i++){\n      if(_store.products[_productId].items[i] == ItemStatus.ForSale){\n        index = i;\n        found = true;\n      }\n    }\n    // want to avoid silent failure and subsequent inappropriate decrement of inventory\n    assert(found == true);\n    return index;\n  }\n\n  /// @dev for testing purchasing\n  function getPurchase(address _purchaser)public constant returns(uint){\n    return purchaserToItem[_purchaser];\n}\n\n  /// @dev This payable function allows customers to buy products from a store\n  /// It requires that the value sent in msg.value is greater than the price\n  /// of the product. It calls internal function depositEscrow. It will also\n  /// emit events to let owner/admins know if their inventory is (almost) out\n  /// @param _productId : the product type being purchased\n  /// @param _storeName : the unique identifer for the store which sells the product\n  /// @return index : The location of the item instance being purchased\n  function buyItem(uint8 _productId,string _storeName)\n    public\n    payable\n    whenNotPaused\n    returns (uint index){\n      // get address of store owner to be accessed in depositEscrow\n      address _storeOwner = StoreNameToOwner[_storeName];\n      Store storage _store = storeAdminToStore[_storeOwner];\n\n      // calls internal function to find first product instance ForSale\n      index = findFirstItemForSale(_productId, _storeName);\n\n      // require funds sent are adequate\n      uint value = msg.value;\n      require(value >= _store.products[_productId].price);\n      depositEscrow(_storeOwner, value);\n\n      _store.products[_productId].items[index] = ItemStatus.Bought;\n    //  emit LogItemBought( _productId, msg.sender, _store.storeName);\n      purchaserToItem[msg.sender] = index;\n\n      // update the inventory of the product type\n      _store.products[_productId].inventory--;\n      uint64 remaining = _store.products[_productId].inventory;\n      if(remaining <=5){\n        if(remaining ==0){\n        //  emit LogInventoryOut(_store.storeName,_productId);\n        }\n      //  emit LogInventoryLow(_store.storeName, _productId, remaining);\n      }\n  }\n\n  /// @dev for testing successful ship of item\n  function getItemShipped(address ownerAddress,uint index,uint8 productId)\n   public\n   constant\n   returns(bool){\n    Store storage current = storeAdminToStore[ownerAddress];\n    if(current.products[productId].items[index] == ItemStatus.Shipped){\n      return true;\n    }else{\n      return false;\n    }\n  }\n  /// @dev Once an item is logged as bought, the store owner/admin can ship the\n  /// item and use this function to log it has been shipped. When Item is shipped,\n  /// the owner receives their deposits from escrow.\n  /// notice: right now there is a !!SECURITY!! concern becuase if the owner\n  /// has several items \"bought\" but not sold, they could withdraw total deposited\n  /// funds by shipping only one item. Should edit escrow contract to prevent.\n  /// @param _itemIndex : the instance of the item to be shipped\n  /// @param _productId : the product type to which the instance belongs\n  /// @return shipped : simply confirms that the product has infact been shipped.\n  /// WOULD LOVE TO USE ORACLE HERE FROM SHIPPING COMPANIES!!!!\n  function shipItem(uint _itemIndex,uint8 _productId)\n    public\n    whenNotPaused\n    onlyStoreAdmin\n    returns(bool shipped){\n      Store storage current = storeAdminToStore[msg.sender];\n      require(current.products[_productId].items[_itemIndex] == ItemStatus.Bought);\n      shipped = false;\n      // would be great to use an oracle here to check that UPS has received the package\n      // for now will let store leadership change the status of the item to shipped\n      current.products[_productId].items[_itemIndex] = ItemStatus.Shipped;\n      shipped = true;\n      emit LogItemShipped(_itemIndex, _productId, current.storeName);\n\n      withdrawEscrow(StoreNameToOwner[current.storeName]);\n    }\n}\n",
  "sourcePath": "/Users/ericbrown/Documents/Blockchain/ConsenSysCourse/GitHub/Maats/contracts/StorePurchasing.sol",
  "compiler": {
    "name": "solc",
    "version": "0.4.24+commit.e67f0147.Emscripten.clang"
  },
  "schemaVersion": "2.0.1",
  "updatedAt": "2018-08-14T03:41:22.530Z"
}