{
  "contractName": "StoreBase",
  "abi": [
    {
      "constant": true,
      "inputs": [
        {
          "name": "",
          "type": "address"
        }
      ],
      "name": "OwnerToStore",
      "outputs": [
        {
          "name": "storeName",
          "type": "string"
        },
        {
          "name": "open",
          "type": "bool"
        },
        {
          "name": "prodCount",
          "type": "uint8"
        }
      ],
      "payable": false,
      "stateMutability": "view",
      "type": "function"
    },
    {
      "constant": false,
      "inputs": [],
      "name": "_pause",
      "outputs": [],
      "payable": false,
      "stateMutability": "nonpayable",
      "type": "function"
    },
    {
      "constant": false,
      "inputs": [],
      "name": "withdraw",
      "outputs": [],
      "payable": false,
      "stateMutability": "nonpayable",
      "type": "function"
    },
    {
      "constant": false,
      "inputs": [
        {
          "name": "_revokedAdmin",
          "type": "address"
        }
      ],
      "name": "removeMaatsAdmin",
      "outputs": [],
      "payable": false,
      "stateMutability": "nonpayable",
      "type": "function"
    },
    {
      "constant": true,
      "inputs": [
        {
          "name": "",
          "type": "address"
        }
      ],
      "name": "isStoreOwner",
      "outputs": [
        {
          "name": "",
          "type": "bool"
        }
      ],
      "payable": false,
      "stateMutability": "view",
      "type": "function"
    },
    {
      "constant": false,
      "inputs": [
        {
          "name": "_newOwner",
          "type": "address"
        }
      ],
      "name": "setMaatsOwner",
      "outputs": [],
      "payable": false,
      "stateMutability": "nonpayable",
      "type": "function"
    },
    {
      "constant": false,
      "inputs": [
        {
          "name": "_newAdmin",
          "type": "address"
        }
      ],
      "name": "createMaatsAdmin",
      "outputs": [],
      "payable": false,
      "stateMutability": "nonpayable",
      "type": "function"
    },
    {
      "constant": true,
      "inputs": [
        {
          "name": "_admin",
          "type": "address"
        }
      ],
      "name": "getIsAdmin",
      "outputs": [
        {
          "name": "",
          "type": "bool"
        }
      ],
      "payable": false,
      "stateMutability": "view",
      "type": "function"
    },
    {
      "constant": true,
      "inputs": [],
      "name": "pause",
      "outputs": [
        {
          "name": "",
          "type": "bool"
        }
      ],
      "payable": false,
      "stateMutability": "view",
      "type": "function"
    },
    {
      "constant": true,
      "inputs": [
        {
          "name": "",
          "type": "address"
        }
      ],
      "name": "createdStore",
      "outputs": [
        {
          "name": "",
          "type": "bool"
        }
      ],
      "payable": false,
      "stateMutability": "view",
      "type": "function"
    },
    {
      "constant": true,
      "inputs": [],
      "name": "maatsOwner",
      "outputs": [
        {
          "name": "",
          "type": "address"
        }
      ],
      "payable": false,
      "stateMutability": "view",
      "type": "function"
    },
    {
      "constant": true,
      "inputs": [
        {
          "name": "",
          "type": "uint256"
        }
      ],
      "name": "maatsAdmins",
      "outputs": [
        {
          "name": "",
          "type": "address"
        }
      ],
      "payable": false,
      "stateMutability": "view",
      "type": "function"
    },
    {
      "constant": false,
      "inputs": [],
      "name": "_unpause",
      "outputs": [],
      "payable": false,
      "stateMutability": "nonpayable",
      "type": "function"
    },
    {
      "anonymous": false,
      "inputs": [
        {
          "indexed": true,
          "name": "_ownerAddress",
          "type": "address"
        },
        {
          "indexed": true,
          "name": "_newStoreName",
          "type": "string"
        }
      ],
      "name": "LogNewStore",
      "type": "event"
    },
    {
      "anonymous": false,
      "inputs": [
        {
          "indexed": true,
          "name": "_storeOwnerAddress",
          "type": "address"
        }
      ],
      "name": "LogNewStoreOwner",
      "type": "event"
    },
    {
      "anonymous": false,
      "inputs": [
        {
          "indexed": true,
          "name": "_storeOwner",
          "type": "address"
        }
      ],
      "name": "LogStoreOwnerRemoved",
      "type": "event"
    },
    {
      "anonymous": false,
      "inputs": [
        {
          "indexed": true,
          "name": "_ownerAddress",
          "type": "address"
        },
        {
          "indexed": false,
          "name": "_oldStoreName",
          "type": "string"
        }
      ],
      "name": "LogStoreClosed",
      "type": "event"
    },
    {
      "anonymous": false,
      "inputs": [
        {
          "indexed": true,
          "name": "previousOwner",
          "type": "address"
        },
        {
          "indexed": true,
          "name": "newOwner",
          "type": "address"
        }
      ],
      "name": "LogNewOwner",
      "type": "event"
    },
    {
      "anonymous": false,
      "inputs": [
        {
          "indexed": true,
          "name": "newAdmin",
          "type": "address"
        }
      ],
      "name": "LogNewAdmin",
      "type": "event"
    },
    {
      "anonymous": false,
      "inputs": [
        {
          "indexed": true,
          "name": "revokedAdmin",
          "type": "address"
        }
      ],
      "name": "LogAdminRevoked",
      "type": "event"
    },
    {
      "anonymous": false,
      "inputs": [],
      "name": "Pause",
      "type": "event"
    },
    {
      "anonymous": false,
      "inputs": [],
      "name": "Unpause",
      "type": "event"
    },
    {
      "constant": true,
      "inputs": [
        {
          "name": "_storeName",
          "type": "string"
        }
      ],
      "name": "getStoreExists",
      "outputs": [
        {
          "name": "",
          "type": "bool"
        }
      ],
      "payable": false,
      "stateMutability": "view",
      "type": "function"
    },
    {
      "constant": false,
      "inputs": [
        {
          "name": "_newOwner",
          "type": "address"
        },
        {
          "name": "_storeName",
          "type": "string"
        }
      ],
      "name": "makeStoreOwner",
      "outputs": [],
      "payable": false,
      "stateMutability": "nonpayable",
      "type": "function"
    },
    {
      "constant": false,
      "inputs": [
        {
          "name": "_storeName",
          "type": "string"
        }
      ],
      "name": "removeStoreOwner",
      "outputs": [
        {
          "name": "",
          "type": "bool"
        }
      ],
      "payable": false,
      "stateMutability": "nonpayable",
      "type": "function"
    },
    {
      "constant": true,
      "inputs": [
        {
          "name": "i",
          "type": "uint256"
        }
      ],
      "name": "getStoreName",
      "outputs": [
        {
          "name": "",
          "type": "string"
        }
      ],
      "payable": false,
      "stateMutability": "view",
      "type": "function"
    },
    {
      "constant": true,
      "inputs": [],
      "name": "getNumStores",
      "outputs": [
        {
          "name": "",
          "type": "uint256"
        }
      ],
      "payable": false,
      "stateMutability": "view",
      "type": "function"
    }
  ],
  "bytecode": "0x6080604052336000806101000a81548173ffffffffffffffffffffffffffffffffffffffff021916908373ffffffffffffffffffffffffffffffffffffffff160217905550612366806100536000396000f3006080604052600436106100fc576000357c0100000000000000000000000000000000000000000000000000000000900463ffffffff1680631ab63af8146101015780632fa8cfac146101d5578063320b2ad9146102565780633ccfd60b1461026d57806340f42c1c146102845780635effd33c146102c75780635f7d53a11461032257806378678a3214610365578063803360b6146103a8578063822b0ceb146104295780638456cb5914610484578063a6bb52e2146104b3578063bd9cf58e1461053c578063e20df13814610597578063e698f0bb146105c2578063f0e06e4a14610619578063fc8234cb14610686578063fed489491461069d575b600080fd5b34801561010d57600080fd5b50610142600480360381019080803573ffffffffffffffffffffffffffffffffffffffff169060200190929190505050610743565b6040518080602001841515151581526020018360ff1660ff168152602001828103825285818151815260200191508051906020019080838360005b8381101561019857808201518184015260208101905061017d565b50505050905090810190601f1680156101c55780820380516001836020036101000a031916815260200191505b5094505050505060405180910390f35b3480156101e157600080fd5b5061023c600480360381019080803590602001908201803590602001908080601f016020809104026020016040519081016040528093929190818152602001838380828437820191505050505050919291929050505061081f565b604051808215151515815260200191505060405180910390f35b34801561026257600080fd5b5061026b6108a1565b005b34801561027957600080fd5b50610282610967565b005b34801561029057600080fd5b506102c5600480360381019080803573ffffffffffffffffffffffffffffffffffffffff169060200190929190505050610a43565b005b3480156102d357600080fd5b50610308600480360381019080803573ffffffffffffffffffffffffffffffffffffffff169060200190929190505050610c5c565b604051808215151515815260200191505060405180910390f35b34801561032e57600080fd5b50610363600480360381019080803573ffffffffffffffffffffffffffffffffffffffff169060200190929190505050610c7c565b005b34801561037157600080fd5b506103a6600480360381019080803573ffffffffffffffffffffffffffffffffffffffff169060200190929190505050610df9565b005b3480156103b457600080fd5b5061040f600480360381019080803590602001908201803590602001908080601f01602080910402602001604051908101604052809392919081815260200183838082843782019150505050505091929192905050506110c2565b604051808215151515815260200191505060405180910390f35b34801561043557600080fd5b5061046a600480360381019080803573ffffffffffffffffffffffffffffffffffffffff1690602001909291905050506115d4565b604051808215151515815260200191505060405180910390f35b34801561049057600080fd5b5061049961164b565b604051808215151515815260200191505060405180910390f35b3480156104bf57600080fd5b5061053a600480360381019080803573ffffffffffffffffffffffffffffffffffffffff169060200190929190803590602001908201803590602001908080601f016020809104026020016040519081016040528093929190818152602001838380828437820191505050505050919291929050505061165e565b005b34801561054857600080fd5b5061057d600480360381019080803573ffffffffffffffffffffffffffffffffffffffff169060200190929190505050611888565b604051808215151515815260200191505060405180910390f35b3480156105a357600080fd5b506105ac6118a8565b6040518082815260200191505060405180910390f35b3480156105ce57600080fd5b506105d76118b5565b604051808273ffffffffffffffffffffffffffffffffffffffff1673ffffffffffffffffffffffffffffffffffffffff16815260200191505060405180910390f35b34801561062557600080fd5b50610644600480360381019080803590602001909291905050506118da565b604051808273ffffffffffffffffffffffffffffffffffffffff1673ffffffffffffffffffffffffffffffffffffffff16815260200191505060405180910390f35b34801561069257600080fd5b5061069b61190f565b005b3480156106a957600080fd5b506106c8600480360381019080803590602001909291905050506119d5565b6040518080602001828103825283818151815260200191508051906020019080838360005b838110156107085780820151818401526020810190506106ed565b50505050905090810190601f1680156107355780820380516001836020036101000a031916815260200191505b509250505060405180910390f35b6009602052806000526040600020600091509050806000018054600181600116156101000203166002900480601f0160208091040260200160405190810160405280929190818152602001828054600181600116156101000203166002900480156107ef5780601f106107c4576101008083540402835291602001916107ef565b820191906000526020600020905b8154815290600101906020018083116107d257829003601f168201915b5050505050908060020160009054906101000a900460ff16908060090160009054906101000a900460ff16905083565b6000600d826040518082805190602001908083835b6020831015156108595780518252602082019150602081019050602083039250610834565b6001836020036101000a038019825116818451168082178552505050505050905001915050908152602001604051809103902060009054906101000a900460ff169050919050565b6000809054906101000a900473ffffffffffffffffffffffffffffffffffffffff1673ffffffffffffffffffffffffffffffffffffffff163373ffffffffffffffffffffffffffffffffffffffff161415156108fc57600080fd5b60001515600760009054906101000a900460ff16151514151561091e57600080fd5b6001600760006101000a81548160ff0219169083151502179055507f6985a02210a168e66602d3235cb6db0e70f92b3ba4d376a33c0f3d9434bff62560405160405180910390a1565b6000809054906101000a900473ffffffffffffffffffffffffffffffffffffffff1673ffffffffffffffffffffffffffffffffffffffff163373ffffffffffffffffffffffffffffffffffffffff161415156109c257600080fd5b6000809054906101000a900473ffffffffffffffffffffffffffffffffffffffff1673ffffffffffffffffffffffffffffffffffffffff166108fc3073ffffffffffffffffffffffffffffffffffffffff16319081150290604051600060405180830381858888f19350505050158015610a40573d6000803e3d6000fd5b50565b6000806000809054906101000a900473ffffffffffffffffffffffffffffffffffffffff1673ffffffffffffffffffffffffffffffffffffffff163373ffffffffffffffffffffffffffffffffffffffff16141515610aa157600080fd5b60001515600760009054906101000a900460ff161515141515610ac357600080fd5b60009150600090505b60048111158015610ae1575060001515821515145b15610c47578273ffffffffffffffffffffffffffffffffffffffff16600182600581101515610b0c57fe5b0160009054906101000a900473ffffffffffffffffffffffffffffffffffffffff1673ffffffffffffffffffffffffffffffffffffffff161415610c3a576000600182600581101515610b5b57fe5b0160006101000a81548173ffffffffffffffffffffffffffffffffffffffff021916908373ffffffffffffffffffffffffffffffffffffffff1602179055506000600660008573ffffffffffffffffffffffffffffffffffffffff1673ffffffffffffffffffffffffffffffffffffffff16815260200190815260200160002060006101000a81548160ff021916908315150217905550600191508273ffffffffffffffffffffffffffffffffffffffff167fdca59b6371f7db6faad5c9931588f735722795c7b8ea859824e0afc8b2c70a4f60405160405180910390a25b8080600101915050610acc565b60011515821515141515610c5757fe5b505050565b600b6020528060005260406000206000915054906101000a900460ff1681565b60008060009054906101000a900473ffffffffffffffffffffffffffffffffffffffff1673ffffffffffffffffffffffffffffffffffffffff163373ffffffffffffffffffffffffffffffffffffffff16141515610cd957600080fd5b60001515600760009054906101000a900460ff161515141515610cfb57600080fd5b600073ffffffffffffffffffffffffffffffffffffffff168273ffffffffffffffffffffffffffffffffffffffff1614151515610d3757600080fd5b6000809054906101000a900473ffffffffffffffffffffffffffffffffffffffff169050816000806101000a81548173ffffffffffffffffffffffffffffffffffffffff021916908373ffffffffffffffffffffffffffffffffffffffff1602179055508073ffffffffffffffffffffffffffffffffffffffff168273ffffffffffffffffffffffffffffffffffffffff167f1f8d7d25344642d919d55999e4664aa452a5f424bc0936ceb9c2b300db7dcbd960405160405180910390a35050565b60008060008060009054906101000a900473ffffffffffffffffffffffffffffffffffffffff1673ffffffffffffffffffffffffffffffffffffffff163373ffffffffffffffffffffffffffffffffffffffff16141515610e5957600080fd5b60001515600760009054906101000a900460ff161515141515610e7b57600080fd5b600073ffffffffffffffffffffffffffffffffffffffff168473ffffffffffffffffffffffffffffffffffffffff1614151515610eb757600080fd5b5b600483111515610f42578373ffffffffffffffffffffffffffffffffffffffff16600184600581101515610ee857fe5b0160009054906101000a900473ffffffffffffffffffffffffffffffffffffffff1673ffffffffffffffffffffffffffffffffffffffff161415610f375760026001141515610f3657600080fd5b5b826001019250610eb8565b600091505b60048111158015610f5c575060001515821515145b156110ac576000600182600581101515610f7257fe5b0160009054906101000a900473ffffffffffffffffffffffffffffffffffffffff1673ffffffffffffffffffffffffffffffffffffffff16141561109f5783600182600581101515610fc057fe5b0160006101000a81548173ffffffffffffffffffffffffffffffffffffffff021916908373ffffffffffffffffffffffffffffffffffffffff1602179055506001600660008673ffffffffffffffffffffffffffffffffffffffff1673ffffffffffffffffffffffffffffffffffffffff16815260200190815260200160002060006101000a81548160ff021916908315150217905550600191508373ffffffffffffffffffffffffffffffffffffffff167f39e7d4b9ba48f55a740a5192809dbc498fa12724c030b37dab126a3f6774c0f360405160405180910390a25b8080600101915050610f47565b600115158215151415156110bc57fe5b50505050565b6000806000809054906101000a900473ffffffffffffffffffffffffffffffffffffffff1673ffffffffffffffffffffffffffffffffffffffff163373ffffffffffffffffffffffffffffffffffffffff161480611170575060011515600660003373ffffffffffffffffffffffffffffffffffffffff1673ffffffffffffffffffffffffffffffffffffffff16815260200190815260200160002060009054906101000a900460ff161515145b151561117b57600080fd5b600a836040518082805190602001908083835b6020831015156111b3578051825260208201915060208101905060208303925061118e565b6001836020036101000a038019825116818451168082178552505050505050905001915050908152602001604051809103902060009054906101000a900473ffffffffffffffffffffffffffffffffffffffff16905060011515600b60008373ffffffffffffffffffffffffffffffffffffffff1673ffffffffffffffffffffffffffffffffffffffff16815260200190815260200160002060009054906101000a900460ff16151514151561126857600080fd5b6000600d846040518082805190602001908083835b6020831015156112a2578051825260208201915060208101905060208303925061127d565b6001836020036101000a038019825116818451168082178552505050505050905001915050908152602001604051809103902060006101000a81548160ff0219169083151502179055506000600960008373ffffffffffffffffffffffffffffffffffffffff1673ffffffffffffffffffffffffffffffffffffffff16815260200190815260200160002060020160006101000a81548160ff0219169083151502179055506040805190810160405280600181526020017f3000000000000000000000000000000000000000000000000000000000000000815250600960008373ffffffffffffffffffffffffffffffffffffffff1673ffffffffffffffffffffffffffffffffffffffff16815260200190815260200160002060000190805190602001906113d2929190612098565b508073ffffffffffffffffffffffffffffffffffffffff167f70e9219a99e9bfc211e7aa1236b656ca826ba23e3e9e5cbdc2f16e0c7eb8fad9600960008473ffffffffffffffffffffffffffffffffffffffff1673ffffffffffffffffffffffffffffffffffffffff16815260200190815260200160002060000160405180806020018281038252838181546001816001161561010002031660029004815260200191508054600181600116156101000203166002900480156114d65780601f106114ab576101008083540402835291602001916114d6565b820191906000526020600020905b8154815290600101906020018083116114b957829003601f168201915b50509250505060405180910390a26000600b60008373ffffffffffffffffffffffffffffffffffffffff1673ffffffffffffffffffffffffffffffffffffffff16815260200190815260200160002060006101000a81548160ff0219169083151502179055508073ffffffffffffffffffffffffffffffffffffffff167fe6547a945aa917d8f8b8a71a98062b03570c5ab79d6f47aa64dab5ae6483e0c860405160405180910390a2600b60008273ffffffffffffffffffffffffffffffffffffffff1673ffffffffffffffffffffffffffffffffffffffff16815260200190815260200160002060009054906101000a900460ff16915050919050565b6000801515600760009054906101000a900460ff1615151415156115f757600080fd5b600660008373ffffffffffffffffffffffffffffffffffffffff1673ffffffffffffffffffffffffffffffffffffffff16815260200190815260200160002060009054906101000a900460ff169050919050565b600760009054906101000a900460ff1681565b611666612118565b6000809054906101000a900473ffffffffffffffffffffffffffffffffffffffff1673ffffffffffffffffffffffffffffffffffffffff163373ffffffffffffffffffffffffffffffffffffffff161480611711575060011515600660003373ffffffffffffffffffffffffffffffffffffffff1673ffffffffffffffffffffffffffffffffffffffff16815260200190815260200160002060009054906101000a900460ff161515145b151561171c57600080fd5b60001515600760009054906101000a900460ff16151514151561173e57600080fd5b60001515600b60008573ffffffffffffffffffffffffffffffffffffffff1673ffffffffffffffffffffffffffffffffffffffff16815260200190815260200160002060009054906101000a900460ff16151514151561179d57600080fd5b60408051908101604052808473ffffffffffffffffffffffffffffffffffffffff16815260200160006fffffffffffffffffffffffffffffffff1681525090506001600b60008573ffffffffffffffffffffffffffffffffffffffff1673ffffffffffffffffffffffffffffffffffffffff16815260200190815260200160002060006101000a81548160ff02191690831515021790555061183f8383611aef565b508273ffffffffffffffffffffffffffffffffffffffff167f64a6cb4c2615e9c9ee211131f9fc94aaa6238a3c255423b75ba43ef01ca42dcd60405160405180910390a2505050565b600c6020528060005260406000206000915054906101000a900460ff1681565b6000600880549050905090565b6000809054906101000a900473ffffffffffffffffffffffffffffffffffffffff1681565b6001816005811015156118e957fe5b016000915054906101000a900473ffffffffffffffffffffffffffffffffffffffff1681565b6000809054906101000a900473ffffffffffffffffffffffffffffffffffffffff1673ffffffffffffffffffffffffffffffffffffffff163373ffffffffffffffffffffffffffffffffffffffff1614151561196a57600080fd5b60011515600760009054906101000a900460ff16151514151561198c57600080fd5b6000600760006101000a81548160ff0219169083151502179055507f7805862f689e2f13df9f062ff482ad3ad112aca9e0847911ed832e158c525b3360405160405180910390a1565b60606000806000600880549050141515611aaf576008848154811015156119f857fe5b90600052602060002090600a02019150816000019050808054600181600116156101000203166002900480601f016020809104026020016040519081016040528092919081815260200182805460018160011615610100020316600290048015611aa35780601f10611a7857610100808354040283529160200191611aa3565b820191906000526020600020905b815481529060010190602001808311611a8657829003601f168201915b50505050509250611ae8565b6040805190810160405280600181526020017f300000000000000000000000000000000000000000000000000000000000000081525092505b5050919050565b6060611af961215a565b611b0161217d565b60001515600760009054906101000a900460ff161515141515611b2357600080fd5b60011515600b60008773ffffffffffffffffffffffffffffffffffffffff1673ffffffffffffffffffffffffffffffffffffffff16815260200190815260200160002060009054906101000a900460ff161515141515611b8257600080fd5b60001515600c60008773ffffffffffffffffffffffffffffffffffffffff1673ffffffffffffffffffffffffffffffffffffffff16815260200190815260200160002060009054906101000a900460ff161515141515611be157600080fd5b60001515600d856040518082805190602001908083835b602083101515611c1d5780518252602082019150602081019050602083039250611bf8565b6001836020036101000a038019825116818451168082178552505050505050905001915050908152602001604051809103902060009054906101000a900460ff161515141515611c6c57600080fd5b608060405190810160405280858152602001600015158152602001838152602001600060ff16815250905080600960008773ffffffffffffffffffffffffffffffffffffffff1673ffffffffffffffffffffffffffffffffffffffff1681526020019081526020016000206000820151816000019080519060200190611cf39291906121b2565b5060208201518160020160006101000a81548160ff021916908315150217905550604082015181600301906006611d2b929190612232565b5060608201518160090160006101000a81548160ff021916908360ff16021790555090505084600a82600001516040518082805190602001908083835b602083101515611d8d5780518252602082019150602081019050602083039250611d68565b6001836020036101000a038019825116818451168082178552505050505050905001915050908152602001604051809103902060006101000a81548173ffffffffffffffffffffffffffffffffffffffff021916908373ffffffffffffffffffffffffffffffffffffffff1602179055506001600d82600001516040518082805190602001908083835b602083101515611e3c5780518252602082019150602081019050602083039250611e17565b6001836020036101000a038019825116818451168082178552505050505050905001915050908152602001604051809103902060006101000a81548160ff0219169083151502179055508481604001516000600681101515611e9a57fe5b602002019073ffffffffffffffffffffffffffffffffffffffff16908173ffffffffffffffffffffffffffffffffffffffff168152505080600e60008773ffffffffffffffffffffffffffffffffffffffff1673ffffffffffffffffffffffffffffffffffffffff1681526020019081526020016000206000820151816000019080519060200190611f2d9291906121b2565b5060208201518160020160006101000a81548160ff021916908315150217905550604082015181600301906006611f65929190612232565b5060608201518160090160006101000a81548160ff021916908360ff1602179055509050506001600c60008773ffffffffffffffffffffffffffffffffffffffff1673ffffffffffffffffffffffffffffffffffffffff16815260200190815260200160002060006101000a81548160ff0219169083151502179055506008819080600181540180825580915050906001820390600052602060002090600a020160009091929091909150600082015181600001908051906020019061202c9291906121b2565b5060208201518160020160006101000a81548160ff021916908315150217905550604082015181600301906006612064929190612232565b5060608201518160090160006101000a81548160ff021916908360ff16021790555050505080600001519250505092915050565b828054600181600116156101000203166002900490600052602060002090601f016020900481019282601f106120d957805160ff1916838001178555612107565b82800160010185558215612107579182015b828111156121065782518255916020019190600101906120eb565b5b50905061211491906122af565b5090565b6040805190810160405280600073ffffffffffffffffffffffffffffffffffffffff16815260200160006fffffffffffffffffffffffffffffffff1681525090565b60c060405190810160405280600690602082028038833980820191505090505090565b61012060405190810160405280606081526020016000151581526020016121a26122d4565b8152602001600060ff1681525090565b828054600181600116156101000203166002900490600052602060002090601f016020900481019282601f106121f357805160ff1916838001178555612221565b82800160010185558215612221579182015b82811115612220578251825591602001919060010190612205565b5b50905061222e91906122af565b5090565b826006810192821561229e579160200282015b8281111561229d5782518260006101000a81548173ffffffffffffffffffffffffffffffffffffffff021916908373ffffffffffffffffffffffffffffffffffffffff16021790555091602001919060010190612245565b5b5090506122ab91906122f7565b5090565b6122d191905b808211156122cd5760008160009055506001016122b5565b5090565b90565b60c060405190810160405280600690602082028038833980820191505090505090565b61233791905b8082111561233357600081816101000a81549073ffffffffffffffffffffffffffffffffffffffff0219169055506001016122fd565b5090565b905600a165627a7a723058208052282ac20091b5f0682da51b8a8902b4bb82fe64dc5f85610abc32b3a09f8f0029",
  "source": "pragma solidity ^0.4.24;\n\nimport \"./StoreAccessControl.sol\";\n\n/**\n  * @dev Defines the storage needs to create and manage stores as well as create\n  * and manage the products which are specific to stores.\n  */\ncontract StoreBase is StoreAccessControl{\n\n  /// @dev Store name is used as a unique identifier, used in many events.\n  event LogNewStore(address indexed _ownerAddress, string indexed _newStoreName);\n  event LogNewStoreOwner(address indexed _storeOwnerAddress);\n  event LogStoreOwnerRemoved(address indexed _storeOwner);\n  event LogStoreClosed(address indexed _ownerAddress, string _oldStoreName);\n\n  Store[] allStores;\n\n  /// @dev The Store struct is used to represent all stores in the Maats Network.\n  struct Store{\n    // Acts as unique identifier.\n    string storeName;\n    // Structs can't store struct array's so mapping is used instead.\n    mapping(uint8 => Product) products;\n    // Open or closed. Owner can modify this if they want to make updates.\n    bool open;\n    // Stores can only have 5 admins. The 0-index is reserved for store owner.\n    address[6] storeAdmins;\n    // Acts as the key for the products mapping. NOTE: max num prod = 256: SCALABILITY :/\n    uint8 prodCount;\n  }\n\n  /// @dev ake owner array and create ownerId to improve access to stores\n\n  struct StoreOwner{\n    address ownerAddress; //this controls functionality, make sure not accessible\n    uint128 ownerRanking;\n  }\n\n  /// @dev Products are members of Stores. Each new product an owner adds to\n  /// their store takes the following form.\n  struct Product{\n    uint128 price;\n    // Array of the enum to track instances of this product type. This allows\n    // for a product to be sold for a set price or sold at auction. It also\n    // tracks progress of an instance so the owner knows when to ship an item.\n    ItemStatus[] items;\n    // Used to manage the inventory of the product.\n    uint64 inventory;\n    // If false, the product is set-price, true its an auction.\n    bool auction;\n  }\n\n  /// @dev Keep track of progress of sale and type of sale of a product instance (item).\n  enum ItemStatus{\n    ForSale,\n    ForAuction,\n    Bought,\n    Shipped\n  }\n\n\n  /// @dev Mapping accessing the store owned by a specific owner address.\n  mapping (address => Store) public OwnerToStore;\n\n  /// @dev Need a way to access the address of the store owner for functions\n  /// where store admins are acting upon the store and not the owner.\n  mapping(string => address)  StoreNameToOwner;\n\n  /// @dev Used to ensure an address isn't registered as an owner multiple times\n  /// accessed when loading a page to allow access to owner only functionality.\n  mapping (address => bool) public isStoreOwner;\n\n  /// @dev Used to ensure that an owner has only created a single store as\n  /// owners are only allowed to manage a single store.\n  mapping (address => bool) public createdStore;\n\n  /// @dev Used to ensure that store names remain unique identifiers for Store\n  /// structs and to ensure that a only existing stores are acted upon.\n  mapping(string => bool) storeExists;\n\n  /// @dev give admins access to stores instead of requiring the owner address\n  mapping (address => Store) storeAdminToStore;\n\n\n\n  /// @dev Function for testing store creation and removal since\n  /// mappings with dynamic keys don't yet have public getter functions\n  function getStoreExists(string _storeName)public constant returns(bool){\n    return storeExists[_storeName];\n  }\n\n  /// @dev This function associates an address with a store owner. It DOES NOT\n  /// create the store for the owner. An Address must be a store owner before\n  /// they can create a Store instance.\n  /// @param _newOwner : Address of the new owner candidate\n  /// @return The ownerId for the StoreOwner array\n  function makeStoreOwner(address _newOwner,string _storeName)\n    public\n    onlyMaatsLeadership\n    whenNotPaused{\n      require(isStoreOwner[_newOwner] == false);\n      StoreOwner memory _storeOwner = StoreOwner({\n        ownerAddress: _newOwner,\n        ownerRanking: 0 // not placed on front end until threshold # reviews\n        });\n\n      // StoreOwner recorded with identifier\n      // needs to be part of a mapping to not deallocate\n\n\n      isStoreOwner[_newOwner] = true;\n\n      createStore(_newOwner, _storeName);\n\n      emit LogNewStoreOwner(_newOwner);\n\n    }\n\n    /// @dev Used to remove an owner from the isStoreOwner mapping and prevent\n    /// the specified address from accessing store owner functions on Maat's.\n    /// It also closes the store for which they are the owner.\n    /// notice This doesn't have a pausible modifier since we want to be able\n    /// to remove an owner when paused in the case they are acting maliciously\n    /// as opposed to simple inactivity or other violations.\n    /// @param _storeName : The store of the owner being removed\n    /// @return The value of the mapping which states if they are a store owner\n    function removeStoreOwner(string _storeName)\n      public\n      onlyMaatsLeadership // consider requiring this to be a multisig event\n      returns(bool){\n        // throw if this address isn't an owner\n        address owner = StoreNameToOwner[_storeName];\n        require(isStoreOwner[owner] == true);\n\n        // free the store name for future use\n        storeExists[_storeName] = false;\n\n        // remove ownership of _badOwner's store\n        // set the status of the store to closed\n        OwnerToStore[owner].open = false;\n        OwnerToStore[owner].storeName = \"0\";\n        emit LogStoreClosed(owner,OwnerToStore[owner].storeName);\n        isStoreOwner[owner] = false;\n\n        emit LogStoreOwnerRemoved(owner);\n        return(isStoreOwner[owner]);\n      }\n\n    /// @dev Requries that the msg.sender is a storeOwner. It checks to ensure\n    /// that the msg.sender hasn't created a store yet and that the storeName\n    /// they choose hasn't already been taken by another owner.\n    /// @param _storeName : The string used as the unique identifier for the Store.\n    /// @return _newStore.storeName: returns the name of the new store.\n    function createStore(address _newOwner, string _storeName)\n      internal\n      whenNotPaused\n      returns(string){\n        // Check that msg.sender is registered as a store owner.\n        require(isStoreOwner[_newOwner] == true);\n        // Require that they don't have a store yet.\n        require(createdStore[_newOwner] == false);\n        // Require that the name for their store hasn't been taken.\n        require(storeExists[_storeName] == false);\n\n        // Fixed size array's need to be in memory before definition in structs\n        // This will be the storeAdmin array in the new store.\n        address[6] memory newArray;\n\n        // Create the new store type in memory. It will be stored in the\n        // OwnerToStore mapping as to not be lost during deallocation\n        Store memory _newStore = Store({\n          storeName: _storeName,\n          open: false,\n          storeAdmins: newArray,\n          prodCount: 0\n          });\n\n        // This mapping stores the newStore in contract storage\n        OwnerToStore[_newOwner] = _newStore;\n        // Ensure we can access the owner from the store's unique identifier.\n        StoreNameToOwner[_newStore.storeName] = _newOwner;\n        // Register this name to ensure another owner can't take this name\n        storeExists[_newStore.storeName] = true;\n        // 0-index is reserved for store owner. Can only change during owner transfer\n        _newStore.storeAdmins[0] = _newOwner;\n        storeAdminToStore[_newOwner] = _newStore;\n        // Record the store creation so that the owner can't create another store\n        createdStore[_newOwner] = true;\n\n        allStores.push(_newStore);\n\n\n      //  emit LogNewStore(msg.sender, _newStore.storeName);\n\n        return(_newStore.storeName);\n    }\n\n    function getStoreName(uint i) public constant returns(string){\n      if(allStores.length != 0){\n        Store storage _store = allStores[i];\n        string storage storeName = _store.storeName;\n        return storeName;\n      }\n      return \"0\";\n    }\n\n    function getNumStores() public constant returns(uint){\n      return allStores.length;\n    }\n\n}\n",
  "sourcePath": "/Users/ericbrown/Documents/Blockchain/ConsenSysCourse/GitHub/Maats/contracts/StoreBase.sol",
  "compiler": {
    "name": "solc",
    "version": "0.4.24+commit.e67f0147.Emscripten.clang"
  },
  "schemaVersion": "2.0.1",
  "updatedAt": "2018-08-14T03:41:22.509Z"
}