{
  "contractName": "StoreBase",
  "abi": [
    {
      "constant": true,
      "inputs": [
        {
          "name": "",
          "type": "address"
        }
      ],
      "name": "OwnerToStore",
      "outputs": [
        {
          "name": "storeName",
          "type": "string"
        },
        {
          "name": "open",
          "type": "bool"
        },
        {
          "name": "prodCount",
          "type": "uint8"
        }
      ],
      "payable": false,
      "stateMutability": "view",
      "type": "function"
    },
    {
      "constant": false,
      "inputs": [],
      "name": "_pause",
      "outputs": [],
      "payable": false,
      "stateMutability": "nonpayable",
      "type": "function"
    },
    {
      "constant": false,
      "inputs": [],
      "name": "withdraw",
      "outputs": [],
      "payable": false,
      "stateMutability": "nonpayable",
      "type": "function"
    },
    {
      "constant": false,
      "inputs": [
        {
          "name": "_revokedAdmin",
          "type": "address"
        }
      ],
      "name": "removeMaatsAdmin",
      "outputs": [],
      "payable": false,
      "stateMutability": "nonpayable",
      "type": "function"
    },
    {
      "constant": true,
      "inputs": [
        {
          "name": "",
          "type": "uint256"
        }
      ],
      "name": "storeOwners",
      "outputs": [
        {
          "name": "ownerAddress",
          "type": "address"
        },
        {
          "name": "ownerRanking",
          "type": "uint128"
        }
      ],
      "payable": false,
      "stateMutability": "view",
      "type": "function"
    },
    {
      "constant": true,
      "inputs": [
        {
          "name": "",
          "type": "address"
        }
      ],
      "name": "isStoreOwner",
      "outputs": [
        {
          "name": "",
          "type": "bool"
        }
      ],
      "payable": false,
      "stateMutability": "view",
      "type": "function"
    },
    {
      "constant": false,
      "inputs": [
        {
          "name": "_newOwner",
          "type": "address"
        }
      ],
      "name": "setMaatsOwner",
      "outputs": [],
      "payable": false,
      "stateMutability": "nonpayable",
      "type": "function"
    },
    {
      "constant": false,
      "inputs": [
        {
          "name": "_newAdmin",
          "type": "address"
        }
      ],
      "name": "createMaatsAdmin",
      "outputs": [],
      "payable": false,
      "stateMutability": "nonpayable",
      "type": "function"
    },
    {
      "constant": true,
      "inputs": [
        {
          "name": "_admin",
          "type": "address"
        }
      ],
      "name": "getIsAdmin",
      "outputs": [
        {
          "name": "",
          "type": "bool"
        }
      ],
      "payable": false,
      "stateMutability": "view",
      "type": "function"
    },
    {
      "constant": true,
      "inputs": [],
      "name": "pause",
      "outputs": [
        {
          "name": "",
          "type": "bool"
        }
      ],
      "payable": false,
      "stateMutability": "view",
      "type": "function"
    },
    {
      "constant": true,
      "inputs": [
        {
          "name": "",
          "type": "address"
        }
      ],
      "name": "createdStore",
      "outputs": [
        {
          "name": "",
          "type": "bool"
        }
      ],
      "payable": false,
      "stateMutability": "view",
      "type": "function"
    },
    {
      "constant": true,
      "inputs": [],
      "name": "maatsOwner",
      "outputs": [
        {
          "name": "",
          "type": "address"
        }
      ],
      "payable": false,
      "stateMutability": "view",
      "type": "function"
    },
    {
      "constant": false,
      "inputs": [],
      "name": "_unpause",
      "outputs": [],
      "payable": false,
      "stateMutability": "nonpayable",
      "type": "function"
    },
    {
      "anonymous": false,
      "inputs": [
        {
          "indexed": true,
          "name": "_ownerAddress",
          "type": "address"
        },
        {
          "indexed": true,
          "name": "_newStoreName",
          "type": "string"
        }
      ],
      "name": "LogNewStore",
      "type": "event"
    },
    {
      "anonymous": false,
      "inputs": [
        {
          "indexed": true,
          "name": "_storeOwnerAddress",
          "type": "address"
        }
      ],
      "name": "LogNewStoreOwner",
      "type": "event"
    },
    {
      "anonymous": false,
      "inputs": [
        {
          "indexed": true,
          "name": "_storeOwner",
          "type": "address"
        }
      ],
      "name": "LogStoreOwnerRemoved",
      "type": "event"
    },
    {
      "anonymous": false,
      "inputs": [
        {
          "indexed": true,
          "name": "_ownerAddress",
          "type": "address"
        },
        {
          "indexed": false,
          "name": "_oldStoreName",
          "type": "string"
        }
      ],
      "name": "LogStoreClosed",
      "type": "event"
    },
    {
      "anonymous": false,
      "inputs": [
        {
          "indexed": true,
          "name": "previousOwner",
          "type": "address"
        },
        {
          "indexed": true,
          "name": "newOwner",
          "type": "address"
        }
      ],
      "name": "LogNewOwner",
      "type": "event"
    },
    {
      "anonymous": false,
      "inputs": [
        {
          "indexed": true,
          "name": "newAdmin",
          "type": "address"
        }
      ],
      "name": "LogNewAdmin",
      "type": "event"
    },
    {
      "anonymous": false,
      "inputs": [
        {
          "indexed": true,
          "name": "revokedAdmin",
          "type": "address"
        }
      ],
      "name": "LogAdminRevoked",
      "type": "event"
    },
    {
      "anonymous": false,
      "inputs": [],
      "name": "Pause",
      "type": "event"
    },
    {
      "anonymous": false,
      "inputs": [],
      "name": "Unpause",
      "type": "event"
    },
    {
      "constant": true,
      "inputs": [
        {
          "name": "_storeName",
          "type": "string"
        }
      ],
      "name": "getStoreExists",
      "outputs": [
        {
          "name": "",
          "type": "bool"
        }
      ],
      "payable": false,
      "stateMutability": "view",
      "type": "function"
    },
    {
      "constant": false,
      "inputs": [
        {
          "name": "_newOwner",
          "type": "address"
        }
      ],
      "name": "makeStoreOwner",
      "outputs": [
        {
          "name": "",
          "type": "uint256"
        }
      ],
      "payable": false,
      "stateMutability": "nonpayable",
      "type": "function"
    },
    {
      "constant": false,
      "inputs": [
        {
          "name": "_badOwner",
          "type": "address"
        }
      ],
      "name": "removeStoreOwner",
      "outputs": [
        {
          "name": "",
          "type": "bool"
        }
      ],
      "payable": false,
      "stateMutability": "nonpayable",
      "type": "function"
    },
    {
      "constant": false,
      "inputs": [
        {
          "name": "_storeName",
          "type": "string"
        }
      ],
      "name": "createStore",
      "outputs": [
        {
          "name": "",
          "type": "string"
        }
      ],
      "payable": false,
      "stateMutability": "nonpayable",
      "type": "function"
    }
  ],
  "bytecode": "0x6080604052336000806101000a81548173ffffffffffffffffffffffffffffffffffffffff021916908373ffffffffffffffffffffffffffffffffffffffff160217905550612043806100536000396000f3006080604052600436106100f1576000357c0100000000000000000000000000000000000000000000000000000000900463ffffffff1680631ab63af8146100f65780632fa8cfac146101ca578063320b2ad91461024b5780633ccfd60b1461026257806340f42c1c1461027957806344d50993146102bc5780635effd33c146103545780635f7d53a1146103af5780636174fdd1146103f257806378678a321461044d578063822b0ceb146104905780638456cb59146104eb578063bd9cf58e1461051a578063c4c45dd414610575578063d0e04fe3146105cc578063e698f0bb146106ae578063fc8234cb14610705575b600080fd5b34801561010257600080fd5b50610137600480360381019080803573ffffffffffffffffffffffffffffffffffffffff16906020019092919050505061071c565b6040518080602001841515151581526020018360ff1660ff168152602001828103825285818151815260200191508051906020019080838360005b8381101561018d578082015181840152602081019050610172565b50505050905090810190601f1680156101ba5780820380516001836020036101000a031916815260200191505b5094505050505060405180910390f35b3480156101d657600080fd5b50610231600480360381019080803590602001908201803590602001908080601f01602080910402602001604051908101604052809392919081815260200183838082843782019150505050505091929192905050506107f8565b604051808215151515815260200191505060405180910390f35b34801561025757600080fd5b5061026061087a565b005b34801561026e57600080fd5b50610277610940565b005b34801561028557600080fd5b506102ba600480360381019080803573ffffffffffffffffffffffffffffffffffffffff169060200190929190505050610a1c565b005b3480156102c857600080fd5b506102e760048036038101908080359060200190929190505050610c35565b604051808373ffffffffffffffffffffffffffffffffffffffff1673ffffffffffffffffffffffffffffffffffffffff168152602001826fffffffffffffffffffffffffffffffff166fffffffffffffffffffffffffffffffff1681526020019250505060405180910390f35b34801561036057600080fd5b50610395600480360381019080803573ffffffffffffffffffffffffffffffffffffffff169060200190929190505050610ca4565b604051808215151515815260200191505060405180910390f35b3480156103bb57600080fd5b506103f0600480360381019080803573ffffffffffffffffffffffffffffffffffffffff169060200190929190505050610cc4565b005b3480156103fe57600080fd5b50610433600480360381019080803573ffffffffffffffffffffffffffffffffffffffff169060200190929190505050610e41565b604051808215151515815260200191505060405180910390f35b34801561045957600080fd5b5061048e600480360381019080803573ffffffffffffffffffffffffffffffffffffffff1690602001909291905050506111b3565b005b34801561049c57600080fd5b506104d1600480360381019080803573ffffffffffffffffffffffffffffffffffffffff16906020019092919050505061147c565b604051808215151515815260200191505060405180910390f35b3480156104f757600080fd5b506105006114f3565b604051808215151515815260200191505060405180910390f35b34801561052657600080fd5b5061055b600480360381019080803573ffffffffffffffffffffffffffffffffffffffff169060200190929190505050611506565b604051808215151515815260200191505060405180910390f35b34801561058157600080fd5b506105b6600480360381019080803573ffffffffffffffffffffffffffffffffffffffff169060200190929190505050611526565b6040518082815260200191505060405180910390f35b3480156105d857600080fd5b50610633600480360381019080803590602001908201803590602001908080601f0160208091040260200160405190810160405280939291908181526020018383808284378201915050505050509192919290505050611809565b6040518080602001828103825283818151815260200191508051906020019080838360005b83811015610673578082015181840152602081019050610658565b50505050905090810190601f1680156106a05780820380516001836020036101000a031916815260200191505b509250505060405180910390f35b3480156106ba57600080fd5b506106c3611d0a565b604051808273ffffffffffffffffffffffffffffffffffffffff1673ffffffffffffffffffffffffffffffffffffffff16815260200191505060405180910390f35b34801561071157600080fd5b5061071a611d2f565b005b6009602052806000526040600020600091509050806000018054600181600116156101000203166002900480601f0160208091040260200160405190810160405280929190818152602001828054600181600116156101000203166002900480156107c85780601f1061079d576101008083540402835291602001916107c8565b820191906000526020600020905b8154815290600101906020018083116107ab57829003601f168201915b5050505050908060020160009054906101000a900460ff16908060090160009054906101000a900460ff16905083565b6000600d826040518082805190602001908083835b602083101515610832578051825260208201915060208101905060208303925061080d565b6001836020036101000a038019825116818451168082178552505050505050905001915050908152602001604051809103902060009054906101000a900460ff169050919050565b6000809054906101000a900473ffffffffffffffffffffffffffffffffffffffff1673ffffffffffffffffffffffffffffffffffffffff163373ffffffffffffffffffffffffffffffffffffffff161415156108d557600080fd5b60001515600760009054906101000a900460ff1615151415156108f757600080fd5b6001600760006101000a81548160ff0219169083151502179055507f6985a02210a168e66602d3235cb6db0e70f92b3ba4d376a33c0f3d9434bff62560405160405180910390a1565b6000809054906101000a900473ffffffffffffffffffffffffffffffffffffffff1673ffffffffffffffffffffffffffffffffffffffff163373ffffffffffffffffffffffffffffffffffffffff1614151561099b57600080fd5b6000809054906101000a900473ffffffffffffffffffffffffffffffffffffffff1673ffffffffffffffffffffffffffffffffffffffff166108fc3073ffffffffffffffffffffffffffffffffffffffff16319081150290604051600060405180830381858888f19350505050158015610a19573d6000803e3d6000fd5b50565b6000806000809054906101000a900473ffffffffffffffffffffffffffffffffffffffff1673ffffffffffffffffffffffffffffffffffffffff163373ffffffffffffffffffffffffffffffffffffffff16141515610a7a57600080fd5b60001515600760009054906101000a900460ff161515141515610a9c57600080fd5b60009150600090505b60048111158015610aba575060001515821515145b15610c20578273ffffffffffffffffffffffffffffffffffffffff16600182600581101515610ae557fe5b0160009054906101000a900473ffffffffffffffffffffffffffffffffffffffff1673ffffffffffffffffffffffffffffffffffffffff161415610c13576000600182600581101515610b3457fe5b0160006101000a81548173ffffffffffffffffffffffffffffffffffffffff021916908373ffffffffffffffffffffffffffffffffffffffff1602179055506000600660008573ffffffffffffffffffffffffffffffffffffffff1673ffffffffffffffffffffffffffffffffffffffff16815260200190815260200160002060006101000a81548160ff021916908315150217905550600191508273ffffffffffffffffffffffffffffffffffffffff167fdca59b6371f7db6faad5c9931588f735722795c7b8ea859824e0afc8b2c70a4f60405160405180910390a25b8080600101915050610aa5565b60011515821515141515610c3057fe5b505050565b600881815481101515610c4457fe5b90600052602060002090600202016000915090508060000160009054906101000a900473ffffffffffffffffffffffffffffffffffffffff16908060010160009054906101000a90046fffffffffffffffffffffffffffffffff16905082565b600b6020528060005260406000206000915054906101000a900460ff1681565b60008060009054906101000a900473ffffffffffffffffffffffffffffffffffffffff1673ffffffffffffffffffffffffffffffffffffffff163373ffffffffffffffffffffffffffffffffffffffff16141515610d2157600080fd5b60001515600760009054906101000a900460ff161515141515610d4357600080fd5b600073ffffffffffffffffffffffffffffffffffffffff168273ffffffffffffffffffffffffffffffffffffffff1614151515610d7f57600080fd5b6000809054906101000a900473ffffffffffffffffffffffffffffffffffffffff169050816000806101000a81548173ffffffffffffffffffffffffffffffffffffffff021916908373ffffffffffffffffffffffffffffffffffffffff1602179055508073ffffffffffffffffffffffffffffffffffffffff168273ffffffffffffffffffffffffffffffffffffffff167f1f8d7d25344642d919d55999e4664aa452a5f424bc0936ceb9c2b300db7dcbd960405160405180910390a35050565b60008060009054906101000a900473ffffffffffffffffffffffffffffffffffffffff1673ffffffffffffffffffffffffffffffffffffffff163373ffffffffffffffffffffffffffffffffffffffff161480610eee575060011515600660003373ffffffffffffffffffffffffffffffffffffffff1673ffffffffffffffffffffffffffffffffffffffff16815260200190815260200160002060009054906101000a900460ff161515145b1515610ef957600080fd5b60011515600b60008473ffffffffffffffffffffffffffffffffffffffff1673ffffffffffffffffffffffffffffffffffffffff16815260200190815260200160002060009054906101000a900460ff161515141515610f5857600080fd5b6000600960008473ffffffffffffffffffffffffffffffffffffffff1673ffffffffffffffffffffffffffffffffffffffff16815260200190815260200160002060020160006101000a81548160ff0219169083151502179055508173ffffffffffffffffffffffffffffffffffffffff167f70e9219a99e9bfc211e7aa1236b656ca826ba23e3e9e5cbdc2f16e0c7eb8fad9600960008573ffffffffffffffffffffffffffffffffffffffff1673ffffffffffffffffffffffffffffffffffffffff16815260200190815260200160002060000160405180806020018281038252838181546001816001161561010002031660029004815260200191508054600181600116156101000203166002900480156110b65780601f1061108b576101008083540402835291602001916110b6565b820191906000526020600020905b81548152906001019060200180831161109957829003601f168201915b50509250505060405180910390a26000600b60008473ffffffffffffffffffffffffffffffffffffffff1673ffffffffffffffffffffffffffffffffffffffff16815260200190815260200160002060006101000a81548160ff0219169083151502179055508173ffffffffffffffffffffffffffffffffffffffff167fe6547a945aa917d8f8b8a71a98062b03570c5ab79d6f47aa64dab5ae6483e0c860405160405180910390a2600b60008373ffffffffffffffffffffffffffffffffffffffff1673ffffffffffffffffffffffffffffffffffffffff16815260200190815260200160002060009054906101000a900460ff169050919050565b60008060008060009054906101000a900473ffffffffffffffffffffffffffffffffffffffff1673ffffffffffffffffffffffffffffffffffffffff163373ffffffffffffffffffffffffffffffffffffffff1614151561121357600080fd5b60001515600760009054906101000a900460ff16151514151561123557600080fd5b600073ffffffffffffffffffffffffffffffffffffffff168473ffffffffffffffffffffffffffffffffffffffff161415151561127157600080fd5b5b6004831115156112fc578373ffffffffffffffffffffffffffffffffffffffff166001846005811015156112a257fe5b0160009054906101000a900473ffffffffffffffffffffffffffffffffffffffff1673ffffffffffffffffffffffffffffffffffffffff1614156112f157600260011415156112f057600080fd5b5b826001019250611272565b600091505b60048111158015611316575060001515821515145b1561146657600060018260058110151561132c57fe5b0160009054906101000a900473ffffffffffffffffffffffffffffffffffffffff1673ffffffffffffffffffffffffffffffffffffffff161415611459578360018260058110151561137a57fe5b0160006101000a81548173ffffffffffffffffffffffffffffffffffffffff021916908373ffffffffffffffffffffffffffffffffffffffff1602179055506001600660008673ffffffffffffffffffffffffffffffffffffffff1673ffffffffffffffffffffffffffffffffffffffff16815260200190815260200160002060006101000a81548160ff021916908315150217905550600191508373ffffffffffffffffffffffffffffffffffffffff167f39e7d4b9ba48f55a740a5192809dbc498fa12724c030b37dab126a3f6774c0f360405160405180910390a25b8080600101915050611301565b6001151582151514151561147657fe5b50505050565b6000801515600760009054906101000a900460ff16151514151561149f57600080fd5b600660008373ffffffffffffffffffffffffffffffffffffffff1673ffffffffffffffffffffffffffffffffffffffff16815260200190815260200160002060009054906101000a900460ff169050919050565b600760009054906101000a900460ff1681565b600c6020528060005260406000206000915054906101000a900460ff1681565b6000611530611df5565b60008060009054906101000a900473ffffffffffffffffffffffffffffffffffffffff1673ffffffffffffffffffffffffffffffffffffffff163373ffffffffffffffffffffffffffffffffffffffff1614806115dd575060011515600660003373ffffffffffffffffffffffffffffffffffffffff1673ffffffffffffffffffffffffffffffffffffffff16815260200190815260200160002060009054906101000a900460ff161515145b15156115e857600080fd5b60001515600760009054906101000a900460ff16151514151561160a57600080fd5b60001515600b60008673ffffffffffffffffffffffffffffffffffffffff1673ffffffffffffffffffffffffffffffffffffffff16815260200190815260200160002060009054906101000a900460ff16151514151561166957600080fd5b60408051908101604052808573ffffffffffffffffffffffffffffffffffffffff16815260200160006fffffffffffffffffffffffffffffffff16815250915060016008839080600181540180825580915050906001820390600052602060002090600202016000909192909190915060008201518160000160006101000a81548173ffffffffffffffffffffffffffffffffffffffff021916908373ffffffffffffffffffffffffffffffffffffffff16021790555060208201518160010160006101000a8154816fffffffffffffffffffffffffffffffff02191690836fffffffffffffffffffffffffffffffff16021790555050500390506001600b60008673ffffffffffffffffffffffffffffffffffffffff1673ffffffffffffffffffffffffffffffffffffffff16815260200190815260200160002060006101000a81548160ff0219169083151502179055508373ffffffffffffffffffffffffffffffffffffffff167f64a6cb4c2615e9c9ee211131f9fc94aaa6238a3c255423b75ba43ef01ca42dcd60405160405180910390a28092505050919050565b6060611813611e37565b61181b611e5a565b60001515600760009054906101000a900460ff16151514151561183d57600080fd5b60011515600b60003373ffffffffffffffffffffffffffffffffffffffff1673ffffffffffffffffffffffffffffffffffffffff16815260200190815260200160002060009054906101000a900460ff16151514151561189c57600080fd5b60001515600c60003373ffffffffffffffffffffffffffffffffffffffff1673ffffffffffffffffffffffffffffffffffffffff16815260200190815260200160002060009054906101000a900460ff1615151415156118fb57600080fd5b60001515600d856040518082805190602001908083835b6020831015156119375780518252602082019150602081019050602083039250611912565b6001836020036101000a038019825116818451168082178552505050505050905001915050908152602001604051809103902060009054906101000a900460ff16151514151561198657600080fd5b608060405190810160405280858152602001600015158152602001838152602001600060ff16815250905080600960003373ffffffffffffffffffffffffffffffffffffffff1673ffffffffffffffffffffffffffffffffffffffff1681526020019081526020016000206000820151816000019080519060200190611a0d929190611e8f565b5060208201518160020160006101000a81548160ff021916908315150217905550604082015181600301906006611a45929190611f0f565b5060608201518160090160006101000a81548160ff021916908360ff16021790555090505033600a82600001516040518082805190602001908083835b602083101515611aa75780518252602082019150602081019050602083039250611a82565b6001836020036101000a038019825116818451168082178552505050505050905001915050908152602001604051809103902060006101000a81548173ffffffffffffffffffffffffffffffffffffffff021916908373ffffffffffffffffffffffffffffffffffffffff1602179055506001600d82600001516040518082805190602001908083835b602083101515611b565780518252602082019150602081019050602083039250611b31565b6001836020036101000a038019825116818451168082178552505050505050905001915050908152602001604051809103902060006101000a81548160ff0219169083151502179055503381604001516000600681101515611bb457fe5b602002019073ffffffffffffffffffffffffffffffffffffffff16908173ffffffffffffffffffffffffffffffffffffffff168152505080600e60003373ffffffffffffffffffffffffffffffffffffffff1673ffffffffffffffffffffffffffffffffffffffff1681526020019081526020016000206000820151816000019080519060200190611c47929190611e8f565b5060208201518160020160006101000a81548160ff021916908315150217905550604082015181600301906006611c7f929190611f0f565b5060608201518160090160006101000a81548160ff021916908360ff1602179055509050506001600c60003373ffffffffffffffffffffffffffffffffffffffff1673ffffffffffffffffffffffffffffffffffffffff16815260200190815260200160002060006101000a81548160ff021916908315150217905550806000015192505050919050565b6000809054906101000a900473ffffffffffffffffffffffffffffffffffffffff1681565b6000809054906101000a900473ffffffffffffffffffffffffffffffffffffffff1673ffffffffffffffffffffffffffffffffffffffff163373ffffffffffffffffffffffffffffffffffffffff16141515611d8a57600080fd5b60011515600760009054906101000a900460ff161515141515611dac57600080fd5b6000600760006101000a81548160ff0219169083151502179055507f7805862f689e2f13df9f062ff482ad3ad112aca9e0847911ed832e158c525b3360405160405180910390a1565b6040805190810160405280600073ffffffffffffffffffffffffffffffffffffffff16815260200160006fffffffffffffffffffffffffffffffff1681525090565b60c060405190810160405280600690602082028038833980820191505090505090565b6101206040519081016040528060608152602001600015158152602001611e7f611f8c565b8152602001600060ff1681525090565b828054600181600116156101000203166002900490600052602060002090601f016020900481019282601f10611ed057805160ff1916838001178555611efe565b82800160010185558215611efe579182015b82811115611efd578251825591602001919060010190611ee2565b5b509050611f0b9190611faf565b5090565b8260068101928215611f7b579160200282015b82811115611f7a5782518260006101000a81548173ffffffffffffffffffffffffffffffffffffffff021916908373ffffffffffffffffffffffffffffffffffffffff16021790555091602001919060010190611f22565b5b509050611f889190611fd4565b5090565b60c060405190810160405280600690602082028038833980820191505090505090565b611fd191905b80821115611fcd576000816000905550600101611fb5565b5090565b90565b61201491905b8082111561201057600081816101000a81549073ffffffffffffffffffffffffffffffffffffffff021916905550600101611fda565b5090565b905600a165627a7a723058209ea5e08606eaf8780ce77ea4c1ec8a7710192188dc95a18f51f36d378ebc59110029",
  "source": "pragma solidity ^0.4.24;\n\nimport \"./StoreAccessControl.sol\";\n\n/**\n  * @dev Defines the storage needs to create and manage stores as well as create\n  * and manage the products which are specific to stores.\n  */\ncontract StoreBase is StoreAccessControl{\n\n  /// @dev Store name is used as a unique identifier, used in many events.\n  event LogNewStore(address indexed _ownerAddress, string indexed _newStoreName);\n  event LogNewStoreOwner(address indexed _storeOwnerAddress);\n  event LogStoreOwnerRemoved(address indexed _storeOwner);\n  event LogStoreClosed(address indexed _ownerAddress, string _oldStoreName);\n\n  /// @dev array of StoreOwners to record the addresses and reviews of owners\n  /// couldn't you just turn this into a mapping from address to review?\n  StoreOwner[] public storeOwners;\n\n  /// @dev The Store struct is used to represent all stores in the Maats Network.\n  struct Store{\n    // Acts as unique identifier.\n    string storeName;\n    // Structs can't store struct array's so mapping is used instead.\n    mapping(uint8 => Product) products;\n    // Open or closed. Owner can modify this if they want to make updates.\n    bool open;\n    // Stores can only have 5 admins. The 0-index is reserved for store owner.\n    address[6] storeAdmins;\n    // Acts as the key for the products mapping. NOTE: max num prod = 256: SCALABILITY :/\n    uint8 prodCount;\n  }\n\n  /// @dev ake owner array and create ownerId to improve access to stores\n  /// create mapping which pairs stores to storeId's\n  struct StoreOwner{\n    address ownerAddress; //this controls functionality, make sure not accessible\n    uint128 ownerRanking;\n  }\n\n  /// @dev Products are members of Stores. Each new product an owner adds to\n  /// their store takes the following form.\n  struct Product{\n    uint128 price;\n    // Array of the enum to track instances of this product type. This allows\n    // for a product to be sold for a set price or sold at auction. It also\n    // tracks progress of an instance so the owner knows when to ship an item.\n    ItemStatus[] items;\n    // Used to manage the inventory of the product.\n    uint64 inventory;\n    // If false, the product is set-price, true its an auction.\n    bool auction;\n  }\n\n  /// @dev Keep track of progress of sale and type of sale of a product instance (item).\n  enum ItemStatus{\n    ForSale,\n    ForAuction,\n    Bought,\n    Shipped\n  }\n\n\n  /// @dev Mapping accessing the store owned by a specific owner address.\n  mapping (address => Store) public OwnerToStore;\n\n  /// @dev Need a way to access the address of the store owner for functions\n  /// where store admins are acting upon the store and not the owner.\n  mapping(string => address)  StoreNameToOwner;\n\n  /// @dev Used to ensure an address isn't registered as an owner multiple times\n  /// accessed when loading a page to allow access to owner only functionality.\n  mapping (address => bool) public isStoreOwner;\n\n  /// @dev Used to ensure that an owner has only created a single store as\n  /// owners are only allowed to manage a single store.\n  mapping (address => bool) public createdStore;\n\n  /// @dev Used to ensure that store names remain unique identifiers for Store\n  /// structs and to ensure that a only existing stores are acted upon.\n  mapping(string => bool) storeExists;\n\n  /// @dev give admins access to stores instead of requiring the owner address\n  mapping (address => Store) storeAdminToStore;\n\n  /// @dev Function for testing store creation and removal since\n  /// mappings with dynamic keys don't yet have public getter functions\n  function getStoreExists(string _storeName)public constant returns(bool){\n    return storeExists[_storeName];\n  }\n\n  /// @dev This function associates an address with a store owner. It DOES NOT\n  /// create the store for the owner. An Address must be a store owner before\n  /// they can create a Store instance.\n  /// @param _newOwner : Address of the new owner candidate\n  /// @return The ownerId for the StoreOwner array\n  function makeStoreOwner(address _newOwner)\n    public\n    onlyMaatsLeadership\n    whenNotPaused\n    returns (uint){\n      require(isStoreOwner[_newOwner] == false);\n      StoreOwner memory _storeOwner = StoreOwner({\n        ownerAddress: _newOwner,\n        ownerRanking: 0 // not placed on front end until threshold # reviews\n        });\n\n      // StoreOwner recorded with identifier\n      // needs to be part of a mapping to not deallocate\n      uint256 storeOwnerId = storeOwners.push(_storeOwner) -1;\n\n      isStoreOwner[_newOwner] = true;\n\n      emit LogNewStoreOwner(_newOwner);\n\n      return(storeOwnerId);\n    }\n\n    /// @dev Used to remove an owner from the isStoreOwner mapping and prevent\n    /// the specified address from accessing store owner functions on Maat's.\n    /// It also closes the store for which they are the owner.\n    /// notice This doesn't have a pausible modifier since we want to be able\n    /// to remove an owner when paused in the case they are acting maliciously\n    /// as opposed to simple inactivity or other violations.\n    /// @param _badOwner : The address being removed\n    /// @return The value of the mapping which states if they are a store owner\n    function removeStoreOwner(address _badOwner)\n      public\n      onlyMaatsLeadership // consider requiring this to be a multisig event\n      returns(bool){\n        // throw if this address isn't an owner\n        require(isStoreOwner[_badOwner] == true);\n\n        // remove ownership of _badOwner's store\n        // set the status of the store to closed\n        OwnerToStore[_badOwner].open = false;\n        emit LogStoreClosed(_badOwner,OwnerToStore[_badOwner].storeName);\n\n        isStoreOwner[_badOwner] = false;\n        emit LogStoreOwnerRemoved(_badOwner);\n        return(isStoreOwner[_badOwner]);\n      }\n\n    /// @dev Requries that the msg.sender is a storeOwner. It checks to ensure\n    /// that the msg.sender hasn't created a store yet and that the storeName\n    /// they choose hasn't already been taken by another owner.\n    /// @param _storeName : The string used as the unique identifier for the Store.\n    /// @return _newStore.storeName: returns the name of the new store.\n    function createStore(string _storeName)\n      public\n      whenNotPaused\n      returns(string){\n        // Check that msg.sender is registered as a store owner.\n        require(isStoreOwner[msg.sender] == true);\n        // Require that they don't have a store yet.\n        require(createdStore[msg.sender] == false);\n        // Require that the name for their store hasn't been taken.\n        require(storeExists[_storeName] == false);\n\n        // Fixed size array's need to be in memory before definition in structs\n        // This will be the storeAdmin array in the new store.\n        address[6] memory newArray;\n\n        // Create the new store type in memory. It will be stored in the\n        // OwnerToStore mapping as to not be lost during deallocation\n        Store memory _newStore = Store({\n          storeName: _storeName,\n          open: false,\n          storeAdmins: newArray,\n          prodCount: 0\n          });\n\n        // This mapping stores the newStore in contract storage\n        OwnerToStore[msg.sender] = _newStore;\n        // Ensure we can access the owner from the store's unique identifier.\n        StoreNameToOwner[_newStore.storeName] = msg.sender;\n        // Register this name to ensure another owner can't take this name\n        storeExists[_newStore.storeName] = true;\n        // 0-index is reserved for store owner. Can only change during owner transfer\n        _newStore.storeAdmins[0] = msg.sender;\n        storeAdminToStore[msg.sender] = _newStore;\n        // Record the store creation so that the owner can't create another store\n        createdStore[msg.sender] = true;\n\n      //  emit LogNewStore(msg.sender, _newStore.storeName);\n\n        return(_newStore.storeName);\n    }\n\n}\n",
  "sourcePath": "/Users/ericbrown/Documents/Blockchain/ConsenSysCourse/GitHub/Maats/contracts/StoreBase.sol",
  "compiler": {
    "name": "solc",
    "version": "0.4.24+commit.e67f0147.Emscripten.clang"
  },
  "schemaVersion": "2.0.1",
  "updatedAt": "2018-08-04T21:18:04.156Z"
}