{
  "contractName": "StorePurchasing",
  "abi": [
    {
      "constant": true,
      "inputs": [
        {
          "name": "adminAddress",
          "type": "address"
        }
      ],
      "name": "getIsStoreAdmin",
      "outputs": [
        {
          "name": "",
          "type": "bool"
        }
      ],
      "payable": false,
      "stateMutability": "view",
      "type": "function"
    },
    {
      "constant": true,
      "inputs": [
        {
          "name": "_storeName",
          "type": "string"
        }
      ],
      "name": "getNumProducts",
      "outputs": [
        {
          "name": "",
          "type": "uint256"
        }
      ],
      "payable": false,
      "stateMutability": "view",
      "type": "function"
    },
    {
      "constant": true,
      "inputs": [
        {
          "name": "",
          "type": "address"
        }
      ],
      "name": "OwnerToStore",
      "outputs": [
        {
          "name": "storeName",
          "type": "string"
        },
        {
          "name": "prodCount",
          "type": "uint256"
        }
      ],
      "payable": false,
      "stateMutability": "view",
      "type": "function"
    },
    {
      "constant": true,
      "inputs": [
        {
          "name": "ownerAddress",
          "type": "address"
        }
      ],
      "name": "getCurrentInventory",
      "outputs": [
        {
          "name": "",
          "type": "uint64"
        }
      ],
      "payable": false,
      "stateMutability": "view",
      "type": "function"
    },
    {
      "constant": true,
      "inputs": [
        {
          "name": "_storeName",
          "type": "string"
        }
      ],
      "name": "getOwnerFromName",
      "outputs": [
        {
          "name": "",
          "type": "address"
        }
      ],
      "payable": false,
      "stateMutability": "view",
      "type": "function"
    },
    {
      "constant": true,
      "inputs": [
        {
          "name": "_storeName",
          "type": "string"
        }
      ],
      "name": "getStoreExists",
      "outputs": [
        {
          "name": "",
          "type": "bool"
        }
      ],
      "payable": false,
      "stateMutability": "view",
      "type": "function"
    },
    {
      "constant": true,
      "inputs": [
        {
          "name": "",
          "type": "address"
        }
      ],
      "name": "purchaserToItem",
      "outputs": [
        {
          "name": "",
          "type": "uint256"
        }
      ],
      "payable": false,
      "stateMutability": "view",
      "type": "function"
    },
    {
      "constant": false,
      "inputs": [],
      "name": "_pause",
      "outputs": [],
      "payable": false,
      "stateMutability": "nonpayable",
      "type": "function"
    },
    {
      "constant": false,
      "inputs": [],
      "name": "withdraw",
      "outputs": [],
      "payable": false,
      "stateMutability": "nonpayable",
      "type": "function"
    },
    {
      "constant": false,
      "inputs": [
        {
          "name": "_revokedAdmin",
          "type": "address"
        }
      ],
      "name": "removeMaatsAdmin",
      "outputs": [],
      "payable": false,
      "stateMutability": "nonpayable",
      "type": "function"
    },
    {
      "constant": true,
      "inputs": [
        {
          "name": "_productId",
          "type": "uint256"
        },
        {
          "name": "_storeName",
          "type": "string"
        }
      ],
      "name": "getProductType",
      "outputs": [
        {
          "name": "",
          "type": "bool"
        }
      ],
      "payable": false,
      "stateMutability": "view",
      "type": "function"
    },
    {
      "constant": true,
      "inputs": [
        {
          "name": "",
          "type": "address"
        }
      ],
      "name": "isStoreOwner",
      "outputs": [
        {
          "name": "",
          "type": "bool"
        }
      ],
      "payable": false,
      "stateMutability": "view",
      "type": "function"
    },
    {
      "constant": false,
      "inputs": [
        {
          "name": "_newOwner",
          "type": "address"
        }
      ],
      "name": "setMaatsOwner",
      "outputs": [],
      "payable": false,
      "stateMutability": "nonpayable",
      "type": "function"
    },
    {
      "constant": true,
      "inputs": [
        {
          "name": "index",
          "type": "uint256"
        },
        {
          "name": "storeName",
          "type": "string"
        }
      ],
      "name": "getStoreAdmins",
      "outputs": [
        {
          "name": "",
          "type": "address"
        }
      ],
      "payable": false,
      "stateMutability": "view",
      "type": "function"
    },
    {
      "constant": false,
      "inputs": [
        {
          "name": "_newAdmin",
          "type": "address"
        }
      ],
      "name": "createMaatsAdmin",
      "outputs": [],
      "payable": false,
      "stateMutability": "nonpayable",
      "type": "function"
    },
    {
      "constant": false,
      "inputs": [
        {
          "name": "_storeName",
          "type": "string"
        }
      ],
      "name": "removeStoreOwner",
      "outputs": [
        {
          "name": "",
          "type": "bool"
        }
      ],
      "payable": false,
      "stateMutability": "nonpayable",
      "type": "function"
    },
    {
      "constant": true,
      "inputs": [
        {
          "name": "_admin",
          "type": "address"
        }
      ],
      "name": "getIsAdmin",
      "outputs": [
        {
          "name": "",
          "type": "bool"
        }
      ],
      "payable": false,
      "stateMutability": "view",
      "type": "function"
    },
    {
      "constant": true,
      "inputs": [],
      "name": "pause",
      "outputs": [
        {
          "name": "",
          "type": "bool"
        }
      ],
      "payable": false,
      "stateMutability": "view",
      "type": "function"
    },
    {
      "constant": true,
      "inputs": [
        {
          "name": "storeOwnerAddress",
          "type": "address"
        }
      ],
      "name": "getCurrentPrice",
      "outputs": [
        {
          "name": "",
          "type": "uint128"
        }
      ],
      "payable": false,
      "stateMutability": "view",
      "type": "function"
    },
    {
      "constant": false,
      "inputs": [
        {
          "name": "_price",
          "type": "uint128"
        },
        {
          "name": "_inventory",
          "type": "uint64"
        }
      ],
      "name": "createSetPriceProduct",
      "outputs": [
        {
          "name": "_productId",
          "type": "uint256"
        }
      ],
      "payable": false,
      "stateMutability": "nonpayable",
      "type": "function"
    },
    {
      "constant": false,
      "inputs": [
        {
          "name": "_newOwner",
          "type": "address"
        },
        {
          "name": "_storeName",
          "type": "string"
        }
      ],
      "name": "makeStoreOwner",
      "outputs": [],
      "payable": false,
      "stateMutability": "nonpayable",
      "type": "function"
    },
    {
      "constant": false,
      "inputs": [
        {
          "name": "_newPrice",
          "type": "uint128"
        },
        {
          "name": "_productId",
          "type": "uint256"
        }
      ],
      "name": "changePrice",
      "outputs": [
        {
          "name": "",
          "type": "uint128"
        }
      ],
      "payable": false,
      "stateMutability": "nonpayable",
      "type": "function"
    },
    {
      "constant": false,
      "inputs": [
        {
          "name": "_productId",
          "type": "uint256"
        },
        {
          "name": "_newInventory",
          "type": "uint64"
        }
      ],
      "name": "addInventory",
      "outputs": [
        {
          "name": "",
          "type": "uint64"
        }
      ],
      "payable": false,
      "stateMutability": "nonpayable",
      "type": "function"
    },
    {
      "constant": true,
      "inputs": [
        {
          "name": "",
          "type": "address"
        }
      ],
      "name": "createdStore",
      "outputs": [
        {
          "name": "",
          "type": "bool"
        }
      ],
      "payable": false,
      "stateMutability": "view",
      "type": "function"
    },
    {
      "constant": false,
      "inputs": [
        {
          "name": "_NewAdminAddress",
          "type": "address"
        }
      ],
      "name": "createStoreAdmin",
      "outputs": [],
      "payable": false,
      "stateMutability": "nonpayable",
      "type": "function"
    },
    {
      "constant": true,
      "inputs": [
        {
          "name": "ownerAddress",
          "type": "address"
        }
      ],
      "name": "getProductExists",
      "outputs": [
        {
          "name": "",
          "type": "bool"
        }
      ],
      "payable": false,
      "stateMutability": "view",
      "type": "function"
    },
    {
      "constant": true,
      "inputs": [],
      "name": "getNumStores",
      "outputs": [
        {
          "name": "",
          "type": "uint256"
        }
      ],
      "payable": false,
      "stateMutability": "view",
      "type": "function"
    },
    {
      "constant": true,
      "inputs": [],
      "name": "escrow",
      "outputs": [
        {
          "name": "",
          "type": "address"
        }
      ],
      "payable": false,
      "stateMutability": "view",
      "type": "function"
    },
    {
      "constant": true,
      "inputs": [],
      "name": "maatsOwner",
      "outputs": [
        {
          "name": "",
          "type": "address"
        }
      ],
      "payable": false,
      "stateMutability": "view",
      "type": "function"
    },
    {
      "constant": true,
      "inputs": [
        {
          "name": "",
          "type": "uint256"
        }
      ],
      "name": "maatsAdmins",
      "outputs": [
        {
          "name": "",
          "type": "address"
        }
      ],
      "payable": false,
      "stateMutability": "view",
      "type": "function"
    },
    {
      "constant": false,
      "inputs": [],
      "name": "_unpause",
      "outputs": [],
      "payable": false,
      "stateMutability": "nonpayable",
      "type": "function"
    },
    {
      "constant": false,
      "inputs": [
        {
          "name": "_adminAddress",
          "type": "address"
        }
      ],
      "name": "removeStoreAdmin",
      "outputs": [],
      "payable": false,
      "stateMutability": "nonpayable",
      "type": "function"
    },
    {
      "constant": true,
      "inputs": [
        {
          "name": "i",
          "type": "uint256"
        }
      ],
      "name": "getStoreName",
      "outputs": [
        {
          "name": "",
          "type": "string"
        }
      ],
      "payable": false,
      "stateMutability": "view",
      "type": "function"
    },
    {
      "anonymous": false,
      "inputs": [
        {
          "indexed": true,
          "name": "_productId",
          "type": "uint256"
        },
        {
          "indexed": true,
          "name": "_purchaser",
          "type": "address"
        },
        {
          "indexed": false,
          "name": "_storeName",
          "type": "string"
        }
      ],
      "name": "LogItemBought",
      "type": "event"
    },
    {
      "anonymous": false,
      "inputs": [
        {
          "indexed": true,
          "name": "_storeName",
          "type": "string"
        },
        {
          "indexed": true,
          "name": "_productId",
          "type": "uint256"
        },
        {
          "indexed": false,
          "name": "remaining",
          "type": "uint64"
        }
      ],
      "name": "LogInventoryLow",
      "type": "event"
    },
    {
      "anonymous": false,
      "inputs": [
        {
          "indexed": true,
          "name": "_storeName",
          "type": "string"
        },
        {
          "indexed": true,
          "name": "_productId",
          "type": "uint256"
        }
      ],
      "name": "LogInventoryOut",
      "type": "event"
    },
    {
      "anonymous": false,
      "inputs": [
        {
          "indexed": true,
          "name": "_index",
          "type": "uint256"
        },
        {
          "indexed": true,
          "name": "_productId",
          "type": "uint256"
        },
        {
          "indexed": false,
          "name": "_storeName",
          "type": "string"
        }
      ],
      "name": "LogItemShipped",
      "type": "event"
    },
    {
      "anonymous": false,
      "inputs": [
        {
          "indexed": false,
          "name": "_productId",
          "type": "uint256"
        },
        {
          "indexed": true,
          "name": "_storeName",
          "type": "string"
        }
      ],
      "name": "LogNewSetPriceProduct",
      "type": "event"
    },
    {
      "anonymous": false,
      "inputs": [
        {
          "indexed": true,
          "name": "_productId",
          "type": "uint256"
        },
        {
          "indexed": false,
          "name": "inventory",
          "type": "uint64"
        }
      ],
      "name": "LogAddedInventory",
      "type": "event"
    },
    {
      "anonymous": false,
      "inputs": [
        {
          "indexed": true,
          "name": "_ownerAddress",
          "type": "address"
        },
        {
          "indexed": true,
          "name": "_storeName",
          "type": "string"
        }
      ],
      "name": "LogProductRemoved",
      "type": "event"
    },
    {
      "anonymous": false,
      "inputs": [
        {
          "indexed": true,
          "name": "_productId",
          "type": "uint256"
        },
        {
          "indexed": true,
          "name": "_storeName",
          "type": "string"
        },
        {
          "indexed": false,
          "name": "_newPrice",
          "type": "uint128"
        }
      ],
      "name": "LogPriceChange",
      "type": "event"
    },
    {
      "anonymous": false,
      "inputs": [
        {
          "indexed": true,
          "name": "_storeName",
          "type": "string"
        },
        {
          "indexed": false,
          "name": "adminAddress",
          "type": "address"
        }
      ],
      "name": "LogNewAdmin",
      "type": "event"
    },
    {
      "anonymous": false,
      "inputs": [
        {
          "indexed": true,
          "name": "_storeName",
          "type": "string"
        },
        {
          "indexed": false,
          "name": "adminAddress",
          "type": "address"
        }
      ],
      "name": "LogAdminRemoved",
      "type": "event"
    },
    {
      "anonymous": false,
      "inputs": [
        {
          "indexed": true,
          "name": "_ownerAddress",
          "type": "address"
        },
        {
          "indexed": true,
          "name": "_newStoreName",
          "type": "string"
        }
      ],
      "name": "LogNewStore",
      "type": "event"
    },
    {
      "anonymous": false,
      "inputs": [
        {
          "indexed": true,
          "name": "_storeOwnerAddress",
          "type": "address"
        }
      ],
      "name": "LogNewStoreOwner",
      "type": "event"
    },
    {
      "anonymous": false,
      "inputs": [
        {
          "indexed": true,
          "name": "_storeOwner",
          "type": "address"
        }
      ],
      "name": "LogStoreOwnerRemoved",
      "type": "event"
    },
    {
      "anonymous": false,
      "inputs": [
        {
          "indexed": true,
          "name": "_ownerAddress",
          "type": "address"
        },
        {
          "indexed": false,
          "name": "_oldStoreName",
          "type": "string"
        }
      ],
      "name": "LogStoreClosed",
      "type": "event"
    },
    {
      "anonymous": false,
      "inputs": [
        {
          "indexed": true,
          "name": "previousOwner",
          "type": "address"
        },
        {
          "indexed": true,
          "name": "newOwner",
          "type": "address"
        }
      ],
      "name": "LogNewOwner",
      "type": "event"
    },
    {
      "anonymous": false,
      "inputs": [
        {
          "indexed": true,
          "name": "newAdmin",
          "type": "address"
        }
      ],
      "name": "LogNewAdmin",
      "type": "event"
    },
    {
      "anonymous": false,
      "inputs": [
        {
          "indexed": true,
          "name": "revokedAdmin",
          "type": "address"
        }
      ],
      "name": "LogAdminRevoked",
      "type": "event"
    },
    {
      "anonymous": false,
      "inputs": [],
      "name": "Pause",
      "type": "event"
    },
    {
      "anonymous": false,
      "inputs": [],
      "name": "Unpause",
      "type": "event"
    },
    {
      "constant": false,
      "inputs": [
        {
          "name": "_escrowAddress",
          "type": "address"
        }
      ],
      "name": "setEscrowAddress",
      "outputs": [],
      "payable": false,
      "stateMutability": "nonpayable",
      "type": "function"
    },
    {
      "constant": true,
      "inputs": [
        {
          "name": "_productId",
          "type": "uint256"
        },
        {
          "name": "_storeName",
          "type": "string"
        }
      ],
      "name": "findFirstItemForSale",
      "outputs": [
        {
          "name": "",
          "type": "uint256"
        }
      ],
      "payable": false,
      "stateMutability": "view",
      "type": "function"
    },
    {
      "constant": true,
      "inputs": [
        {
          "name": "_purchaser",
          "type": "address"
        }
      ],
      "name": "getPurchase",
      "outputs": [
        {
          "name": "",
          "type": "uint256"
        }
      ],
      "payable": false,
      "stateMutability": "view",
      "type": "function"
    },
    {
      "constant": false,
      "inputs": [
        {
          "name": "_productId",
          "type": "uint256"
        },
        {
          "name": "_storeName",
          "type": "string"
        }
      ],
      "name": "buyItem",
      "outputs": [
        {
          "name": "index",
          "type": "uint256"
        }
      ],
      "payable": true,
      "stateMutability": "payable",
      "type": "function"
    },
    {
      "constant": true,
      "inputs": [
        {
          "name": "ownerAddress",
          "type": "address"
        },
        {
          "name": "index",
          "type": "uint256"
        },
        {
          "name": "productId",
          "type": "uint256"
        }
      ],
      "name": "getItemShipped",
      "outputs": [
        {
          "name": "",
          "type": "bool"
        }
      ],
      "payable": false,
      "stateMutability": "view",
      "type": "function"
    },
    {
      "constant": false,
      "inputs": [
        {
          "name": "_itemIndex",
          "type": "uint256"
        },
        {
          "name": "_productId",
          "type": "uint256"
        }
      ],
      "name": "shipItem",
      "outputs": [
        {
          "name": "shipped",
          "type": "bool"
        }
      ],
      "payable": false,
      "stateMutability": "nonpayable",
      "type": "function"
    }
  ],
  "bytecode": "0x6080604052336000806101000a81548173ffffffffffffffffffffffffffffffffffffffff021916908373ffffffffffffffffffffffffffffffffffffffff160217905550614bc5806100536000396000f3006080604052600436106101e2576000357c0100000000000000000000000000000000000000000000000000000000900463ffffffff168062265dc5146101e7578063050cfdd1146102425780631ab63af8146102bf57806321c636fe1461038257806328ec015c146103ed5780632fa8cfac1461049657806331df27ce14610517578063320b2ad91461056e5780633ccfd60b1461058557806340f42c1c1461059c57806342c3ab25146105df5780634e71b35c1461066a5780635effd33c146106e45780635f7d53a11461073f57806373ada8061461078257806378678a3214610835578063803360b614610878578063822b0ceb146108f95780638456cb591461095457806384cc315b146109835780639a5aec9b146109fe578063a14f258414610a4d578063a275999c14610ab4578063a6bb52e214610b0b578063a880ba9514610b94578063b3eae8c514610c15578063b89069c214610c7e578063bd9cf58e14610ced578063bdc39f4814610d48578063cff4af1314610d8b578063d5755e8714610de6578063ddeb63b514610e6d578063e20df13814610eb0578063e2fdcc1714610edb578063e698f0bb14610f32578063f0e06e4a14610f89578063fc8234cb14610ff6578063fde57f3b1461100d578063fed4894914611050575b600080fd5b3480156101f357600080fd5b50610228600480360381019080803573ffffffffffffffffffffffffffffffffffffffff1690602001909291905050506110f6565b604051808215151515815260200191505060405180910390f35b34801561024e57600080fd5b506102a9600480360381019080803590602001908201803590602001908080601f016020809104026020016040519081016040528093929190818152602001838380828437820191505050505050919291929050505061114c565b6040518082815260200191505060405180910390f35b3480156102cb57600080fd5b50610300600480360381019080803573ffffffffffffffffffffffffffffffffffffffff1690602001909291905050506112b2565b6040518080602001838152602001828103825284818151815260200191508051906020019080838360005b8381101561034657808201518184015260208101905061032b565b50505050905090810190601f1680156103735780820380516001836020036101000a031916815260200191505b50935050505060405180910390f35b34801561038e57600080fd5b506103c3600480360381019080803573ffffffffffffffffffffffffffffffffffffffff16906020019092919050505061136e565b604051808267ffffffffffffffff1667ffffffffffffffff16815260200191505060405180910390f35b3480156103f957600080fd5b50610454600480360381019080803590602001908201803590602001908080601f01602080910402602001604051908101604052809392919081815260200183838082843782019150505050505091929192905050506113e7565b604051808273ffffffffffffffffffffffffffffffffffffffff1673ffffffffffffffffffffffffffffffffffffffff16815260200191505060405180910390f35b3480156104a257600080fd5b506104fd600480360381019080803590602001908201803590602001908080601f0160208091040260200160405190810160405280939291908181526020018383808284378201915050505050509192919290505050611481565b604051808215151515815260200191505060405180910390f35b34801561052357600080fd5b50610558600480360381019080803573ffffffffffffffffffffffffffffffffffffffff169060200190929190505050611503565b6040518082815260200191505060405180910390f35b34801561057a57600080fd5b5061058361151b565b005b34801561059157600080fd5b5061059a6115e1565b005b3480156105a857600080fd5b506105dd600480360381019080803573ffffffffffffffffffffffffffffffffffffffff1690602001909291905050506116bd565b005b3480156105eb57600080fd5b5061065060048036038101908080359060200190929190803590602001908201803590602001908080601f01602080910402602001604051908101604052809392919081815260200183838082843782019150505050505091929192905050506118d6565b604051808215151515815260200191505060405180910390f35b6106ce60048036038101908080359060200190929190803590602001908201803590602001908080601f0160208091040260200160405190810160405280939291908181526020018383808284378201915050505050509192919290505050611a63565b6040518082815260200191505060405180910390f35b3480156106f057600080fd5b50610725600480360381019080803573ffffffffffffffffffffffffffffffffffffffff169060200190929190505050611cfd565b604051808215151515815260200191505060405180910390f35b34801561074b57600080fd5b50610780600480360381019080803573ffffffffffffffffffffffffffffffffffffffff169060200190929190505050611d1d565b005b34801561078e57600080fd5b506107f360048036038101908080359060200190929190803590602001908201803590602001908080601f0160208091040260200160405190810160405280939291908181526020018383808284378201915050505050509192919290505050611e9a565b604051808273ffffffffffffffffffffffffffffffffffffffff1673ffffffffffffffffffffffffffffffffffffffff16815260200191505060405180910390f35b34801561084157600080fd5b50610876600480360381019080803573ffffffffffffffffffffffffffffffffffffffff169060200190929190505050611fdc565b005b34801561088457600080fd5b506108df600480360381019080803590602001908201803590602001908080601f01602080910402602001604051908101604052809392919081815260200183838082843782019150505050505091929192905050506122a5565b604051808215151515815260200191505060405180910390f35b34801561090557600080fd5b5061093a600480360381019080803573ffffffffffffffffffffffffffffffffffffffff16906020019092919050505061275c565b604051808215151515815260200191505060405180910390f35b34801561096057600080fd5b506109696127d3565b604051808215151515815260200191505060405180910390f35b34801561098f57600080fd5b506109c4600480360381019080803573ffffffffffffffffffffffffffffffffffffffff1690602001909291905050506127e6565b60405180826fffffffffffffffffffffffffffffffff166fffffffffffffffffffffffffffffffff16815260200191505060405180910390f35b348015610a0a57600080fd5b50610a336004803603810190808035906020019092919080359060200190929190505050612867565b604051808215151515815260200191505060405180910390f35b348015610a5957600080fd5b50610a9e60048036038101908080356fffffffffffffffffffffffffffffffff169060200190929190803567ffffffffffffffff169060200190929190505050612bca565b6040518082815260200191505060405180910390f35b348015610ac057600080fd5b50610af5600480360381019080803573ffffffffffffffffffffffffffffffffffffffff169060200190929190505050612f1f565b6040518082815260200191505060405180910390f35b348015610b1757600080fd5b50610b92600480360381019080803573ffffffffffffffffffffffffffffffffffffffff169060200190929190803590602001908201803590602001908080601f0160208091040260200160405190810160405280939291908181526020018383808284378201915050505050509192919290505050612f68565b005b348015610ba057600080fd5b50610bdb60048036038101908080356fffffffffffffffffffffffffffffffff16906020019092919080359060200190929190505050613149565b60405180826fffffffffffffffffffffffffffffffff166fffffffffffffffffffffffffffffffff16815260200191505060405180910390f35b348015610c2157600080fd5b50610c5460048036038101908080359060200190929190803567ffffffffffffffff169060200190929190505050613333565b604051808267ffffffffffffffff1667ffffffffffffffff16815260200191505060405180910390f35b348015610c8a57600080fd5b50610cd3600480360381019080803573ffffffffffffffffffffffffffffffffffffffff1690602001909291908035906020019092919080359060200190929190505050613637565b604051808215151515815260200191505060405180910390f35b348015610cf957600080fd5b50610d2e600480360381019080803573ffffffffffffffffffffffffffffffffffffffff1690602001909291905050506136f3565b604051808215151515815260200191505060405180910390f35b348015610d5457600080fd5b50610d89600480360381019080803573ffffffffffffffffffffffffffffffffffffffff169060200190929190505050613713565b005b348015610d9757600080fd5b50610dcc600480360381019080803573ffffffffffffffffffffffffffffffffffffffff169060200190929190505050613990565b604051808215151515815260200191505060405180910390f35b348015610df257600080fd5b50610e5760048036038101908080359060200190929190803590602001908201803590602001908080601f0160208091040260200160405190810160405280939291908181526020018383808284378201915050505050509192919290505050613a04565b6040518082815260200191505060405180910390f35b348015610e7957600080fd5b50610eae600480360381019080803573ffffffffffffffffffffffffffffffffffffffff169060200190929190505050613baa565b005b348015610ebc57600080fd5b50610ec5613c4f565b6040518082815260200191505060405180910390f35b348015610ee757600080fd5b50610ef0613c5c565b604051808273ffffffffffffffffffffffffffffffffffffffff1673ffffffffffffffffffffffffffffffffffffffff16815260200191505060405180910390f35b348015610f3e57600080fd5b50610f47613c82565b604051808273ffffffffffffffffffffffffffffffffffffffff1673ffffffffffffffffffffffffffffffffffffffff16815260200191505060405180910390f35b348015610f9557600080fd5b50610fb460048036038101908080359060200190929190505050613ca7565b604051808273ffffffffffffffffffffffffffffffffffffffff1673ffffffffffffffffffffffffffffffffffffffff16815260200191505060405180910390f35b34801561100257600080fd5b5061100b613cdc565b005b34801561101957600080fd5b5061104e600480360381019080803573ffffffffffffffffffffffffffffffffffffffff169060200190929190505050613da2565b005b34801561105c57600080fd5b5061107b60048036038101908080359060200190929190505050614035565b6040518080602001828103825283818151815260200191508051906020019080838360005b838110156110bb5780820151818401526020810190506110a0565b50505050905090810190601f1680156110e85780820380516001836020036101000a031916815260200191505b509250505060405180910390f35b6000600f60008373ffffffffffffffffffffffffffffffffffffffff1673ffffffffffffffffffffffffffffffffffffffff16815260200190815260200160002060009054906101000a900460ff169050919050565b6000806000600d846040518082805190602001908083835b6020831015156111895780518252602082019150602081019050602083039250611164565b6001836020036101000a038019825116818451168082178552505050505050905001915050908152602001604051809103902060009054906101000a900460ff1615156111d557600080fd5b600a846040518082805190602001908083835b60208310151561120d57805182526020820191506020810190506020830392506111e8565b6001836020036101000a038019825116818451168082178552505050505050905001915050908152602001604051809103902060009054906101000a900473ffffffffffffffffffffffffffffffffffffffff169150600960008373ffffffffffffffffffffffffffffffffffffffff1673ffffffffffffffffffffffffffffffffffffffff1681526020019081526020016000209050806008015492505050919050565b6009602052806000526040600020600091509050806000018054600181600116156101000203166002900480601f01602080910402602001604051908101604052809291908181526020018280546001816001161561010002031660029004801561135e5780601f106113335761010080835404028352916020019161135e565b820191906000526020600020905b81548152906001019060200180831161134157829003601f168201915b5050505050908060080154905082565b600080600e60008473ffffffffffffffffffffffffffffffffffffffff1673ffffffffffffffffffffffffffffffffffffffff168152602001908152602001600020905080600101600080815260200190815260200160002060020160009054906101000a900467ffffffffffffffff16915050919050565b600080600a836040518082805190602001908083835b60208310151561142257805182526020820191506020810190506020830392506113fd565b6001836020036101000a038019825116818451168082178552505050505050905001915050908152602001604051809103902060009054906101000a900473ffffffffffffffffffffffffffffffffffffffff16905080915050919050565b6000600d826040518082805190602001908083835b6020831015156114bb5780518252602082019150602081019050602083039250611496565b6001836020036101000a038019825116818451168082178552505050505050905001915050908152602001604051809103902060009054906101000a900460ff169050919050565b60126020528060005260406000206000915090505481565b6000809054906101000a900473ffffffffffffffffffffffffffffffffffffffff1673ffffffffffffffffffffffffffffffffffffffff163373ffffffffffffffffffffffffffffffffffffffff1614151561157657600080fd5b60001515600760009054906101000a900460ff16151514151561159857600080fd5b6001600760006101000a81548160ff0219169083151502179055507f6985a02210a168e66602d3235cb6db0e70f92b3ba4d376a33c0f3d9434bff62560405160405180910390a1565b6000809054906101000a900473ffffffffffffffffffffffffffffffffffffffff1673ffffffffffffffffffffffffffffffffffffffff163373ffffffffffffffffffffffffffffffffffffffff1614151561163c57600080fd5b6000809054906101000a900473ffffffffffffffffffffffffffffffffffffffff1673ffffffffffffffffffffffffffffffffffffffff166108fc3073ffffffffffffffffffffffffffffffffffffffff16319081150290604051600060405180830381858888f193505050501580156116ba573d6000803e3d6000fd5b50565b6000806000809054906101000a900473ffffffffffffffffffffffffffffffffffffffff1673ffffffffffffffffffffffffffffffffffffffff163373ffffffffffffffffffffffffffffffffffffffff1614151561171b57600080fd5b60001515600760009054906101000a900460ff16151514151561173d57600080fd5b60009150600090505b6004811115801561175b575060001515821515145b156118c1578273ffffffffffffffffffffffffffffffffffffffff1660018260058110151561178657fe5b0160009054906101000a900473ffffffffffffffffffffffffffffffffffffffff1673ffffffffffffffffffffffffffffffffffffffff1614156118b45760006001826005811015156117d557fe5b0160006101000a81548173ffffffffffffffffffffffffffffffffffffffff021916908373ffffffffffffffffffffffffffffffffffffffff1602179055506000600660008573ffffffffffffffffffffffffffffffffffffffff1673ffffffffffffffffffffffffffffffffffffffff16815260200190815260200160002060006101000a81548160ff021916908315150217905550600191508273ffffffffffffffffffffffffffffffffffffffff167fdca59b6371f7db6faad5c9931588f735722795c7b8ea859824e0afc8b2c70a4f60405160405180910390a25b8080600101915050611746565b600115158215151415156118d157fe5b505050565b600080600080600d856040518082805190602001908083835b60208310151561191457805182526020820191506020810190506020830392506118ef565b6001836020036101000a038019825116818451168082178552505050505050905001915050908152602001604051809103902060009054906101000a900460ff16151561196057600080fd5b600a856040518082805190602001908083835b6020831015156119985780518252602082019150602081019050602083039250611973565b6001836020036101000a038019825116818451168082178552505050505050905001915050908152602001604051809103902060009054906101000a900473ffffffffffffffffffffffffffffffffffffffff169250600960008473ffffffffffffffffffffffffffffffffffffffff1673ffffffffffffffffffffffffffffffffffffffff168152602001908152602001600020915081600101600087815260200190815260200160002090508060020160089054906101000a900460ff16935050505092915050565b6000806000806000801515600760009054906101000a900460ff161515141515611a8c57600080fd5b600a866040518082805190602001908083835b602083101515611ac45780518252602082019150602081019050602083039250611a9f565b6001836020036101000a038019825116818451168082178552505050505050905001915050908152602001604051809103902060009054906101000a900473ffffffffffffffffffffffffffffffffffffffff169350600e60008573ffffffffffffffffffffffffffffffffffffffff1673ffffffffffffffffffffffffffffffffffffffff1681526020019081526020016000209250611b658787613a04565b945034915082600101600088815260200190815260200160002060000160009054906101000a90046fffffffffffffffffffffffffffffffff166fffffffffffffffffffffffffffffffff168210151515611bbf57600080fd5b611bc9848361414f565b600283600101600089815260200190815260200160002060010186815481101515611bf057fe5b90600052602060002090602091828204019190066101000a81548160ff02191690836003811115611c1d57fe5b021790555084601260003373ffffffffffffffffffffffffffffffffffffffff1673ffffffffffffffffffffffffffffffffffffffff16815260200190815260200160002081905550826001016000888152602001908152602001600020600201600081819054906101000a900467ffffffffffffffff16809291906001900391906101000a81548167ffffffffffffffff021916908367ffffffffffffffff1602179055505082600101600088815260200190815260200160002060020160009054906101000a900467ffffffffffffffff1690505050505092915050565b600b6020528060005260406000206000915054906101000a900460ff1681565b60008060009054906101000a900473ffffffffffffffffffffffffffffffffffffffff1673ffffffffffffffffffffffffffffffffffffffff163373ffffffffffffffffffffffffffffffffffffffff16141515611d7a57600080fd5b60001515600760009054906101000a900460ff161515141515611d9c57600080fd5b600073ffffffffffffffffffffffffffffffffffffffff168273ffffffffffffffffffffffffffffffffffffffff1614151515611dd857600080fd5b6000809054906101000a900473ffffffffffffffffffffffffffffffffffffffff169050816000806101000a81548173ffffffffffffffffffffffffffffffffffffffff021916908373ffffffffffffffffffffffffffffffffffffffff1602179055508073ffffffffffffffffffffffffffffffffffffffff168273ffffffffffffffffffffffffffffffffffffffff167f1f8d7d25344642d919d55999e4664aa452a5f424bc0936ceb9c2b300db7dcbd960405160405180910390a35050565b600080600060018510158015611eb1575060058511155b1515611ebc57600080fd5b600a846040518082805190602001908083835b602083101515611ef45780518252602082019150602081019050602083039250611ecf565b6001836020036101000a038019825116818451168082178552505050505050905001915050908152602001604051809103902060009054906101000a900473ffffffffffffffffffffffffffffffffffffffff169150600960008373ffffffffffffffffffffffffffffffffffffffff1673ffffffffffffffffffffffffffffffffffffffff1681526020019081526020016000209050600060061115611fcf578060020185600681101515611fa657fe5b0160009054906101000a900473ffffffffffffffffffffffffffffffffffffffff169250611fd4565b600092505b505092915050565b60008060008060009054906101000a900473ffffffffffffffffffffffffffffffffffffffff1673ffffffffffffffffffffffffffffffffffffffff163373ffffffffffffffffffffffffffffffffffffffff1614151561203c57600080fd5b60001515600760009054906101000a900460ff16151514151561205e57600080fd5b600073ffffffffffffffffffffffffffffffffffffffff168473ffffffffffffffffffffffffffffffffffffffff161415151561209a57600080fd5b5b600483111515612125578373ffffffffffffffffffffffffffffffffffffffff166001846005811015156120cb57fe5b0160009054906101000a900473ffffffffffffffffffffffffffffffffffffffff1673ffffffffffffffffffffffffffffffffffffffff16141561211a576002600114151561211957600080fd5b5b82600101925061209b565b600091505b6004811115801561213f575060001515821515145b1561228f57600060018260058110151561215557fe5b0160009054906101000a900473ffffffffffffffffffffffffffffffffffffffff1673ffffffffffffffffffffffffffffffffffffffff16141561228257836001826005811015156121a357fe5b0160006101000a81548173ffffffffffffffffffffffffffffffffffffffff021916908373ffffffffffffffffffffffffffffffffffffffff1602179055506001600660008673ffffffffffffffffffffffffffffffffffffffff1673ffffffffffffffffffffffffffffffffffffffff16815260200190815260200160002060006101000a81548160ff021916908315150217905550600191508373ffffffffffffffffffffffffffffffffffffffff167f39e7d4b9ba48f55a740a5192809dbc498fa12724c030b37dab126a3f6774c0f360405160405180910390a25b808060010191505061212a565b6001151582151514151561229f57fe5b50505050565b6000806000809054906101000a900473ffffffffffffffffffffffffffffffffffffffff1673ffffffffffffffffffffffffffffffffffffffff163373ffffffffffffffffffffffffffffffffffffffff161480612353575060011515600660003373ffffffffffffffffffffffffffffffffffffffff1673ffffffffffffffffffffffffffffffffffffffff16815260200190815260200160002060009054906101000a900460ff161515145b151561235e57600080fd5b600a836040518082805190602001908083835b6020831015156123965780518252602082019150602081019050602083039250612371565b6001836020036101000a038019825116818451168082178552505050505050905001915050908152602001604051809103902060009054906101000a900473ffffffffffffffffffffffffffffffffffffffff16905060011515600b60008373ffffffffffffffffffffffffffffffffffffffff1673ffffffffffffffffffffffffffffffffffffffff16815260200190815260200160002060009054906101000a900460ff16151514151561244b57600080fd5b6000600d846040518082805190602001908083835b6020831015156124855780518252602082019150602081019050602083039250612460565b6001836020036101000a038019825116818451168082178552505050505050905001915050908152602001604051809103902060006101000a81548160ff0219169083151502179055506040805190810160405280600181526020017f3000000000000000000000000000000000000000000000000000000000000000815250600960008373ffffffffffffffffffffffffffffffffffffffff1673ffffffffffffffffffffffffffffffffffffffff168152602001908152602001600020600001908051906020019061255a92919061481f565b508073ffffffffffffffffffffffffffffffffffffffff167f70e9219a99e9bfc211e7aa1236b656ca826ba23e3e9e5cbdc2f16e0c7eb8fad9600960008473ffffffffffffffffffffffffffffffffffffffff1673ffffffffffffffffffffffffffffffffffffffff168152602001908152602001600020600001604051808060200182810382528381815460018160011615610100020316600290048152602001915080546001816001161561010002031660029004801561265e5780601f106126335761010080835404028352916020019161265e565b820191906000526020600020905b81548152906001019060200180831161264157829003601f168201915b50509250505060405180910390a26000600b60008373ffffffffffffffffffffffffffffffffffffffff1673ffffffffffffffffffffffffffffffffffffffff16815260200190815260200160002060006101000a81548160ff0219169083151502179055508073ffffffffffffffffffffffffffffffffffffffff167fe6547a945aa917d8f8b8a71a98062b03570c5ab79d6f47aa64dab5ae6483e0c860405160405180910390a2600b60008273ffffffffffffffffffffffffffffffffffffffff1673ffffffffffffffffffffffffffffffffffffffff16815260200190815260200160002060009054906101000a900460ff16915050919050565b6000801515600760009054906101000a900460ff16151514151561277f57600080fd5b600660008373ffffffffffffffffffffffffffffffffffffffff1673ffffffffffffffffffffffffffffffffffffffff16815260200190815260200160002060009054906101000a900460ff169050919050565b600760009054906101000a900460ff1681565b600080600e60008473ffffffffffffffffffffffffffffffffffffffff1673ffffffffffffffffffffffffffffffffffffffff168152602001908152602001600020905080600101600080815260200190815260200160002060000160009054906101000a90046fffffffffffffffffffffffffffffffff16915050919050565b60008060001515600760009054906101000a900460ff16151514151561288c57600080fd5b6000600e60003373ffffffffffffffffffffffffffffffffffffffff1673ffffffffffffffffffffffffffffffffffffffff1681526020019081526020016000209050600d8160000160405180828054600181600116156101000203166002900480156129305780601f1061290e576101008083540402835291820191612930565b820191906000526020600020905b81548152906001019060200180831161291c575b5050915050908152602001604051809103902060009054906101000a900460ff16151561295c57600080fd5b600e60003373ffffffffffffffffffffffffffffffffffffffff1673ffffffffffffffffffffffffffffffffffffffff1681526020019081526020016000209150600260038111156129aa57fe5b826001016000868152602001908152602001600020600101868154811015156129cf57fe5b90600052602060002090602091828204019190069054906101000a900460ff1660038111156129fa57fe5b141515612a0657600080fd5b60009250600382600101600086815260200190815260200160002060010186815481101515612a3157fe5b90600052602060002090602091828204019190066101000a81548160ff02191690836003811115612a5e57fe5b02179055506001925083857f8c27a03ba49022d57890c2993ba9a892600fe4449c319742d4cfc8afe51b541d846000016040518080602001828103825283818154600181600116156101000203166002900481526020019150805460018160011615610100020316600290048015612b175780601f10612aec57610100808354040283529160200191612b17565b820191906000526020600020905b815481529060010190602001808311612afa57829003601f168201915b50509250505060405180910390a3612bc2600a836000016040518082805460018160011615610100020316600290048015612b895780601f10612b67576101008083540402835291820191612b89565b820191906000526020600020905b815481529060010190602001808311612b75575b5050915050908152602001604051809103902060009054906101000a900473ffffffffffffffffffffffffffffffffffffffff1661424f565b505092915050565b600080612bd561489f565b6000801515600760009054906101000a900460ff161515141515612bf857600080fd5b6000600e60003373ffffffffffffffffffffffffffffffffffffffff1673ffffffffffffffffffffffffffffffffffffffff1681526020019081526020016000209050600d816000016040518082805460018160011615610100020316600290048015612c9c5780601f10612c7a576101008083540402835291820191612c9c565b820191906000526020600020905b815481529060010190602001808311612c88575b5050915050908152602001604051809103902060009054906101000a900460ff161515612cc857600080fd5b600e60003373ffffffffffffffffffffffffffffffffffffffff1673ffffffffffffffffffffffffffffffffffffffff1681526020019081526020016000209350608060405190810160405280886fffffffffffffffffffffffffffffffff1681526020016000604051908082528060200260200182016040528015612d5d5781602001602082028038833980820191505090505b5081526020018767ffffffffffffffff168152602001600015158152509250836008015494508284600101600087815260200190815260200160002060008201518160000160006101000a8154816fffffffffffffffffffffffffffffffff02191690836fffffffffffffffffffffffffffffffff1602179055506020820151816001019080519060200190612df49291906148e6565b5060408201518160020160006101000a81548167ffffffffffffffff021916908367ffffffffffffffff16021790555060608201518160020160086101000a81548160ff0219169083151502179055509050506001601060008660080154815260200190815260200160002060006101000a81548160ff02191690831515021790555083600801600081548092919060010191905055505b8567ffffffffffffffff16821015612f12578360010160008681526020019081526020016000206001016000908060018154018082558091505090600182039060005260206000209060209182820401919006909192909190916101000a81548160ff02191690836003811115612eff57fe5b0217905550508180600101925050612e8c565b8494505050505092915050565b6000601260008373ffffffffffffffffffffffffffffffffffffffff1673ffffffffffffffffffffffffffffffffffffffff168152602001908152602001600020549050919050565b6000809054906101000a900473ffffffffffffffffffffffffffffffffffffffff1673ffffffffffffffffffffffffffffffffffffffff163373ffffffffffffffffffffffffffffffffffffffff161480613013575060011515600660003373ffffffffffffffffffffffffffffffffffffffff1673ffffffffffffffffffffffffffffffffffffffff16815260200190815260200160002060009054906101000a900460ff161515145b151561301e57600080fd5b60001515600760009054906101000a900460ff16151514151561304057600080fd5b60001515600b60008473ffffffffffffffffffffffffffffffffffffffff1673ffffffffffffffffffffffffffffffffffffffff16815260200190815260200160002060009054906101000a900460ff16151514151561309f57600080fd5b6001600b60008473ffffffffffffffffffffffffffffffffffffffff1673ffffffffffffffffffffffffffffffffffffffff16815260200190815260200160002060006101000a81548160ff0219169083151502179055506131018282614327565b508173ffffffffffffffffffffffffffffffffffffffff167f64a6cb4c2615e9c9ee211131f9fc94aaa6238a3c255423b75ba43ef01ca42dcd60405160405180910390a25050565b6000806000600960003373ffffffffffffffffffffffffffffffffffffffff1673ffffffffffffffffffffffffffffffffffffffff1681526020019081526020016000209050600d8160000160405180828054600181600116156101000203166002900480156131f05780601f106131ce5761010080835404028352918201916131f0565b820191906000526020600020905b8154815290600101906020018083116131dc575b5050915050908152602001604051809103902060009054906101000a900460ff16151561321c57600080fd5b60001515600760009054906101000a900460ff16151514151561323e57600080fd5b600e60003373ffffffffffffffffffffffffffffffffffffffff1673ffffffffffffffffffffffffffffffffffffffff16815260200190815260200160002091506000856fffffffffffffffffffffffffffffffff16101515156132a157600080fd5b6000151582600101600086815260200190815260200160002060020160089054906101000a900460ff1615151415156132d957600080fd5b8482600101600086815260200190815260200160002060000160006101000a8154816fffffffffffffffffffffffffffffffff02191690836fffffffffffffffffffffffffffffffff160217905550849250505092915050565b6000806000806000600e60003373ffffffffffffffffffffffffffffffffffffffff1673ffffffffffffffffffffffffffffffffffffffff1681526020019081526020016000209050600d8160000160405180828054600181600116156101000203166002900480156133dd5780601f106133bb5761010080835404028352918201916133dd565b820191906000526020600020905b8154815290600101906020018083116133c9575b5050915050908152602001604051809103902060009054906101000a900460ff16151561340957600080fd5b60001515600760009054906101000a900460ff16151514151561342b57600080fd5b600e60003373ffffffffffffffffffffffffffffffffffffffff1673ffffffffffffffffffffffffffffffffffffffff16815260200190815260200160002093508584600101600089815260200190815260200160002060020160008282829054906101000a900467ffffffffffffffff160192506101000a81548167ffffffffffffffff021916908367ffffffffffffffff16021790555083600101600088815260200190815260200160002060020160089054906101000a900460ff169250600015158315151415156134ff57600080fd5b5b8567ffffffffffffffff16821015613586578360010160008881526020019081526020016000206001016000908060018154018082558091505090600182039060005260206000209060209182820401919006909192909190916101000a81548160ff0219169083600381111561357357fe5b0217905550508180600101925050613500565b867fdb3cb3bd3aa8b0116684a1673c77eb69da47689f478ec18c9b1b42042bff3ebc8560010160008a815260200190815260200160002060020160009054906101000a900467ffffffffffffffff16604051808267ffffffffffffffff1667ffffffffffffffff16815260200191505060405180910390a283600101600088815260200190815260200160002060020160009054906101000a900467ffffffffffffffff1694505050505092915050565b600080600e60008673ffffffffffffffffffffffffffffffffffffffff1673ffffffffffffffffffffffffffffffffffffffff168152602001908152602001600020905060038081111561368757fe5b816001016000858152602001908152602001600020600101858154811015156136ac57fe5b90600052602060002090602091828204019190069054906101000a900460ff1660038111156136d757fe5b14156136e657600191506136eb565b600091505b509392505050565b600c6020528060005260406000206000915054906101000a900460ff1681565b6000806000801515600760009054906101000a900460ff16151514151561373957600080fd5b6000600e60003373ffffffffffffffffffffffffffffffffffffffff1673ffffffffffffffffffffffffffffffffffffffff1681526020019081526020016000209050600d8160000160405180828054600181600116156101000203166002900480156137dd5780601f106137bb5761010080835404028352918201916137dd565b820191906000526020600020905b8154815290600101906020018083116137c9575b5050915050908152602001604051809103902060009054906101000a900460ff16151561380957600080fd5b600e60003373ffffffffffffffffffffffffffffffffffffffff1673ffffffffffffffffffffffffffffffffffffffff168152602001908152602001600020935060009250600191505b60058211158015613868575060001515831515145b15613979576000846002018360068110151561388057fe5b0160009054906101000a900473ffffffffffffffffffffffffffffffffffffffff1673ffffffffffffffffffffffffffffffffffffffff16141561396c578484600201836006811015156138d057fe5b0160006101000a81548173ffffffffffffffffffffffffffffffffffffffff021916908373ffffffffffffffffffffffffffffffffffffffff160217905550600192506001600f60008773ffffffffffffffffffffffffffffffffffffffff1673ffffffffffffffffffffffffffffffffffffffff16815260200190815260200160002060006101000a81548160ff0219169083151502179055505b8180600101925050613853565b6001151583151514151561398957fe5b5050505050565b600080600e60008473ffffffffffffffffffffffffffffffffffffffff1673ffffffffffffffffffffffffffffffffffffffff1681526020019081526020016000209050601060006001836008015403815260200190815260200160002060009054906101000a900460ff16915050919050565b60008060008060008060009450600a876040518082805190602001908083835b602083101515613a495780518252602082019150602081019050602083039250613a24565b6001836020036101000a038019825116818451168082178552505050505050905001915050908152602001604051809103902060009054906101000a900473ffffffffffffffffffffffffffffffffffffffff169250600e60008473ffffffffffffffffffffffffffffffffffffffff1673ffffffffffffffffffffffffffffffffffffffff16815260200190815260200160002091505b8160010160008981526020019081526020016000206001018054905081108015613b0f575060001515851515145b15613b8c5760006003811115613b2157fe5b8260010160008a815260200190815260200160002060010182815481101515613b4657fe5b90600052602060002090602091828204019190069054906101000a900460ff166003811115613b7157fe5b1415613b7f57809350600194505b8080600101915050613ae1565b60011515851515141515613b9c57fe5b839550505050505092915050565b60008060009054906101000a900473ffffffffffffffffffffffffffffffffffffffff1673ffffffffffffffffffffffffffffffffffffffff163373ffffffffffffffffffffffffffffffffffffffff16141515613c0757600080fd5b81905080601160006101000a81548173ffffffffffffffffffffffffffffffffffffffff021916908373ffffffffffffffffffffffffffffffffffffffff1602179055505050565b6000600880549050905090565b601160009054906101000a900473ffffffffffffffffffffffffffffffffffffffff1681565b6000809054906101000a900473ffffffffffffffffffffffffffffffffffffffff1681565b600181600581101515613cb657fe5b016000915054906101000a900473ffffffffffffffffffffffffffffffffffffffff1681565b6000809054906101000a900473ffffffffffffffffffffffffffffffffffffffff1673ffffffffffffffffffffffffffffffffffffffff163373ffffffffffffffffffffffffffffffffffffffff16141515613d3757600080fd5b60011515600760009054906101000a900460ff161515141515613d5957600080fd5b6000600760006101000a81548160ff0219169083151502179055507f7805862f689e2f13df9f062ff482ad3ad112aca9e0847911ed832e158c525b3360405160405180910390a1565b600080600080600960003373ffffffffffffffffffffffffffffffffffffffff1673ffffffffffffffffffffffffffffffffffffffff1681526020019081526020016000209050600d816000016040518082805460018160011615610100020316600290048015613e4a5780601f10613e28576101008083540402835291820191613e4a565b820191906000526020600020905b815481529060010190602001808311613e36575b5050915050908152602001604051809103902060009054906101000a900460ff161515613e7657600080fd5b60001515600760009054906101000a900460ff161515141515613e9857600080fd5b600e60003373ffffffffffffffffffffffffffffffffffffffff1673ffffffffffffffffffffffffffffffffffffffff168152602001908152602001600020935060009250600191505b60058211158015613ef7575060001515831515145b1561401e578473ffffffffffffffffffffffffffffffffffffffff168460020183600681101515613f2457fe5b0160009054906101000a900473ffffffffffffffffffffffffffffffffffffffff1673ffffffffffffffffffffffffffffffffffffffff1614156140115760008460020183600681101515613f7557fe5b0160006101000a81548173ffffffffffffffffffffffffffffffffffffffff021916908373ffffffffffffffffffffffffffffffffffffffff160217905550600192506000600f60008773ffffffffffffffffffffffffffffffffffffffff1673ffffffffffffffffffffffffffffffffffffffff16815260200190815260200160002060006101000a81548160ff0219169083151502179055505b8180600101925050613ee2565b6001151583151514151561402e57fe5b5050505050565b6060600080600060088054905014151561410f5760088481548110151561405857fe5b90600052602060002090600902019150816000019050808054600181600116156101000203166002900480601f0160208091040260200160405190810160405280929190818152602001828054600181600116156101000203166002900480156141035780601f106140d857610100808354040283529160200191614103565b820191906000526020600020905b8154815290600101906020018083116140e657829003601f168201915b50505050509250614148565b6040805190810160405280600181526020017f300000000000000000000000000000000000000000000000000000000000000081525092505b5050919050565b803073ffffffffffffffffffffffffffffffffffffffff16311015151561417557600080fd5b601160009054906101000a900473ffffffffffffffffffffffffffffffffffffffff1673ffffffffffffffffffffffffffffffffffffffff1663f340fa0182846040518363ffffffff167c0100000000000000000000000000000000000000000000000000000000028152600401808273ffffffffffffffffffffffffffffffffffffffff1673ffffffffffffffffffffffffffffffffffffffff1681526020019150506000604051808303818588803b15801561423257600080fd5b505af1158015614246573d6000803e3d6000fd5b50505050505050565b601160009054906101000a900473ffffffffffffffffffffffffffffffffffffffff1673ffffffffffffffffffffffffffffffffffffffff166351cff8d9826040518263ffffffff167c0100000000000000000000000000000000000000000000000000000000028152600401808273ffffffffffffffffffffffffffffffffffffffff1673ffffffffffffffffffffffffffffffffffffffff168152602001915050600060405180830381600087803b15801561430c57600080fd5b505af1158015614320573d6000803e3d6000fd5b5050505050565b6060614331614995565b6143396149b8565b60001515600760009054906101000a900460ff16151514151561435b57600080fd5b60011515600b60008773ffffffffffffffffffffffffffffffffffffffff1673ffffffffffffffffffffffffffffffffffffffff16815260200190815260200160002060009054906101000a900460ff1615151415156143ba57600080fd5b60001515600c60008773ffffffffffffffffffffffffffffffffffffffff1673ffffffffffffffffffffffffffffffffffffffff16815260200190815260200160002060009054906101000a900460ff16151514151561441957600080fd5b60001515600d856040518082805190602001908083835b6020831015156144555780518252602082019150602081019050602083039250614430565b6001836020036101000a038019825116818451168082178552505050505050905001915050908152602001604051809103902060009054906101000a900460ff1615151415156144a457600080fd5b6060604051908101604052808581526020018381526020016000815250905080600960008773ffffffffffffffffffffffffffffffffffffffff1673ffffffffffffffffffffffffffffffffffffffff168152602001908152602001600020600082015181600001908051906020019061451f9291906149e1565b50602082015181600201906006614537929190614a61565b506040820151816008015590505084600a82600001516040518082805190602001908083835b602083101515614582578051825260208201915060208101905060208303925061455d565b6001836020036101000a038019825116818451168082178552505050505050905001915050908152602001604051809103902060006101000a81548173ffffffffffffffffffffffffffffffffffffffff021916908373ffffffffffffffffffffffffffffffffffffffff1602179055506001600d82600001516040518082805190602001908083835b602083101515614631578051825260208201915060208101905060208303925061460c565b6001836020036101000a038019825116818451168082178552505050505050905001915050908152602001604051809103902060006101000a81548160ff021916908315150217905550848160200151600060068110151561468f57fe5b602002019073ffffffffffffffffffffffffffffffffffffffff16908173ffffffffffffffffffffffffffffffffffffffff168152505080600e60008773ffffffffffffffffffffffffffffffffffffffff1673ffffffffffffffffffffffffffffffffffffffff16815260200190815260200160002060008201518160000190805190602001906147229291906149e1565b5060208201518160020190600661473a929190614a61565b50604082015181600801559050506001600c60008773ffffffffffffffffffffffffffffffffffffffff1673ffffffffffffffffffffffffffffffffffffffff16815260200190815260200160002060006101000a81548160ff0219169083151502179055506008819080600181540180825580915050906001820390600052602060002090600902016000909192909190915060008201518160000190805190602001906147ea9291906149e1565b50602082015181600201906006614802929190614a61565b506040820151816008015550505080600001519250505092915050565b828054600181600116156101000203166002900490600052602060002090601f016020900481019282601f1061486057805160ff191683800117855561488e565b8280016001018555821561488e579182015b8281111561488d578251825591602001919060010190614872565b5b50905061489b9190614ade565b5090565b60806040519081016040528060006fffffffffffffffffffffffffffffffff16815260200160608152602001600067ffffffffffffffff1681526020016000151581525090565b82805482825590600052602060002090601f016020900481019282156149845791602002820160005b8382111561495557835183826101000a81548160ff0219169083600381111561493457fe5b0217905550926020019260010160208160000104928301926001030261490f565b80156149825782816101000a81549060ff0219169055600101602081600001049283019260010302614955565b505b5090506149919190614b03565b5090565b60c060405190810160405280600690602082028038833980820191505090505090565b61010060405190810160405280606081526020016149d4614b33565b8152602001600081525090565b828054600181600116156101000203166002900490600052602060002090601f016020900481019282601f10614a2257805160ff1916838001178555614a50565b82800160010185558215614a50579182015b82811115614a4f578251825591602001919060010190614a34565b5b509050614a5d9190614ade565b5090565b8260068101928215614acd579160200282015b82811115614acc5782518260006101000a81548173ffffffffffffffffffffffffffffffffffffffff021916908373ffffffffffffffffffffffffffffffffffffffff16021790555091602001919060010190614a74565b5b509050614ada9190614b56565b5090565b614b0091905b80821115614afc576000816000905550600101614ae4565b5090565b90565b614b3091905b80821115614b2c57600081816101000a81549060ff021916905550600101614b09565b5090565b90565b60c060405190810160405280600690602082028038833980820191505090505090565b614b9691905b80821115614b9257600081816101000a81549073ffffffffffffffffffffffffffffffffffffffff021916905550600101614b5c565b5090565b905600a165627a7a72305820e15244fed367e52b00a1a37a9aa8aa53a33bb8248db26c62701fc3f9abc2fa1d0029",
  "source": "pragma solidity ^0.4.24;\n\nimport \"./StoreManagement.sol\";\n/*import \"./Auction/ClockAuctionBase.sol\";\nimport \"./Auction/ClockAuction.sol\";*/\nimport \"../importedContracts/payment/Escrow.sol\";\n\n\n/* @dev This contract is used to manage the purchasing process for set price\n * products. It also manages payments through an escrow contract.  When owner's\n * or admin's ship a product to the purchaser, they withdraw the deposited fund\n * from the purchase of that item. Auction items are NOT managed in this contract\n*/\ncontract StorePurchasing is StoreManagement{\n\n  /// @dev Let owner/admins know a product instance has been purchased\n  event LogItemBought(uint indexed _productId, address indexed _purchaser,string _storeName);\n  /// @dev Let owner/admins know they are running out or are out of a product\n  event LogInventoryLow(string indexed _storeName, uint indexed _productId,uint64 remaining);\n  event LogInventoryOut(string indexed _storeName, uint indexed _productId);\n  /// @dev record that a purchased item has been shipped\n  event LogItemShipped(uint indexed _index,uint indexed _productId,string _storeName);\n\n  /// @dev address of the contract used to handle escrow services;\n  Escrow public escrow;\n\n  /// @dev Used to record the purchaser address and the item they purchased\n  mapping(address => uint) public purchaserToItem;\n\n  /// @dev set the address of the contract handling escrow services;\n  /// @param _escrowAddress : The address of the contract being used\n  function setEscrowAddress(address _escrowAddress) public onlyMaatsOwner {\n    Escrow _escrow = Escrow(_escrowAddress);\n    escrow = _escrow;\n  }\n\n  /// @dev An internal function used to store the payment in the escrow for the owner\n  /// @param _payee : the address of the owner getting payed\n  /// @param value : the value of msg.value in the function calling this function.\n  function depositEscrow(address _payee, uint value) internal{\n    // require that adequate funds are in this contract.\n    require(address(this).balance >= value);\n    // make deposit for the owner\n    escrow.deposit.value(value)(_payee);\n  }\n\n  /// @dev An internal function which withdraws and sends funds to store owner\n  /// @param _payee : the address of the store owner getting payed.\n  function withdrawEscrow(address _payee) internal{\n    escrow.withdraw(_payee);\n  }\n\n  // this could get expensive, lead to security weaknesses, consider method with\n  // index count of first \"forSale\" item. Make public for testing\n  function findFirstItemForSale(uint _productId, string _storeName) public view returns(uint){\n    bool found = false;\n    uint index;\n    address _owner = StoreNameToOwner[_storeName];\n    Store storage _store = storeAdminToStore[_owner];\n    for(uint i; i < _store.products[_productId].items.length && found == false; i++){\n      if(_store.products[_productId].items[i] == ItemStatus.ForSale){\n        index = i;\n        found = true;\n      }\n    }\n    // want to avoid silent failure and subsequent inappropriate decrement of inventory\n    assert(found == true);\n    return index;\n  }\n\n  /// @dev for testing purchasing\n  function getPurchase(address _purchaser)public constant returns(uint){\n    return purchaserToItem[_purchaser];\n}\n\n  /// @dev This payable function allows customers to buy products from a store\n  /// It requires that the value sent in msg.value is greater than the price\n  /// of the product. It calls internal function depositEscrow. It will also\n  /// emit events to let owner/admins know if their inventory is (almost) out\n  /// @param _productId : the product type being purchased\n  /// @param _storeName : the unique identifer for the store which sells the product\n  /// @return index : The location of the item instance being purchased\n  function buyItem(uint _productId,string _storeName)\n    public\n    payable\n    whenNotPaused\n    returns (uint index){\n      // get address of store owner to be accessed in depositEscrow\n      address _storeOwner = StoreNameToOwner[_storeName];\n      Store storage _store = storeAdminToStore[_storeOwner];\n\n      // calls internal function to find first product instance ForSale\n      index = findFirstItemForSale(_productId, _storeName);\n\n      // require funds sent are adequate\n      uint value = msg.value;\n      require(value >= _store.products[_productId].price);\n      depositEscrow(_storeOwner, value);\n\n      _store.products[_productId].items[index] = ItemStatus.Bought;\n    //  emit LogItemBought( _productId, msg.sender, _store.storeName);\n      purchaserToItem[msg.sender] = index;\n\n      // update the inventory of the product type\n      _store.products[_productId].inventory--;\n      uint64 remaining = _store.products[_productId].inventory;\n      if(remaining <=5){\n        if(remaining ==0){\n        //  emit LogInventoryOut(_store.storeName,_productId);\n        }\n      //  emit LogInventoryLow(_store.storeName, _productId, remaining);\n      }\n  }\n\n  /// @dev for testing successful ship of item\n  function getItemShipped(address ownerAddress,uint index,uint productId)\n   public\n   constant\n   returns(bool){\n    Store storage current = storeAdminToStore[ownerAddress];\n    if(current.products[productId].items[index] == ItemStatus.Shipped){\n      return true;\n    }else{\n      return false;\n    }\n  }\n  /// @dev Once an item is logged as bought, the store owner/admin can ship the\n  /// item and use this function to log it has been shipped. When Item is shipped,\n  /// the owner receives their deposits from escrow.\n  /// notice: right now there is a !!SECURITY!! concern becuase if the owner\n  /// has several items \"bought\" but not sold, they could withdraw total deposited\n  /// funds by shipping only one item. Should edit escrow contract to prevent.\n  /// @param _itemIndex : the instance of the item to be shipped\n  /// @param _productId : the product type to which the instance belongs\n  /// @return shipped : simply confirms that the product has infact been shipped.\n  /// WOULD LOVE TO USE ORACLE HERE FROM SHIPPING COMPANIES!!!!\n  function shipItem(uint _itemIndex,uint _productId)\n    public\n    whenNotPaused\n    onlyStoreAdmin\n    returns(bool shipped){\n      Store storage current = storeAdminToStore[msg.sender];\n      require(current.products[_productId].items[_itemIndex] == ItemStatus.Bought);\n      shipped = false;\n      // would be great to use an oracle here to check that UPS has received the package\n      // for now will let store leadership change the status of the item to shipped\n      current.products[_productId].items[_itemIndex] = ItemStatus.Shipped;\n      shipped = true;\n      emit LogItemShipped(_itemIndex, _productId, current.storeName);\n\n      withdrawEscrow(StoreNameToOwner[current.storeName]);\n    }\n}\n",
  "sourcePath": "/Users/ericbrown/Documents/Blockchain/ConsenSysCourse/GitHub/Maats/contracts/StorePurchasing.sol",
  "compiler": {
    "name": "solc",
    "version": "0.4.24+commit.e67f0147.Emscripten.clang"
  },
  "schemaVersion": "2.0.1",
  "updatedAt": "2018-08-15T00:56:21.873Z"
}