{
  "contractName": "StoreManagement",
  "abi": [
    {
      "constant": true,
      "inputs": [
        {
          "name": "",
          "type": "address"
        }
      ],
      "name": "OwnerToStore",
      "outputs": [
        {
          "name": "storeName",
          "type": "string"
        },
        {
          "name": "prodCount",
          "type": "uint256"
        }
      ],
      "payable": false,
      "stateMutability": "view",
      "type": "function"
    },
    {
      "constant": true,
      "inputs": [
        {
          "name": "_storeName",
          "type": "string"
        }
      ],
      "name": "getStoreExists",
      "outputs": [
        {
          "name": "",
          "type": "bool"
        }
      ],
      "payable": false,
      "stateMutability": "view",
      "type": "function"
    },
    {
      "constant": false,
      "inputs": [],
      "name": "_pause",
      "outputs": [],
      "payable": false,
      "stateMutability": "nonpayable",
      "type": "function"
    },
    {
      "constant": false,
      "inputs": [],
      "name": "withdraw",
      "outputs": [],
      "payable": false,
      "stateMutability": "nonpayable",
      "type": "function"
    },
    {
      "constant": false,
      "inputs": [
        {
          "name": "_revokedAdmin",
          "type": "address"
        }
      ],
      "name": "removeMaatsAdmin",
      "outputs": [],
      "payable": false,
      "stateMutability": "nonpayable",
      "type": "function"
    },
    {
      "constant": true,
      "inputs": [
        {
          "name": "",
          "type": "address"
        }
      ],
      "name": "isStoreOwner",
      "outputs": [
        {
          "name": "",
          "type": "bool"
        }
      ],
      "payable": false,
      "stateMutability": "view",
      "type": "function"
    },
    {
      "constant": false,
      "inputs": [
        {
          "name": "_newOwner",
          "type": "address"
        }
      ],
      "name": "setMaatsOwner",
      "outputs": [],
      "payable": false,
      "stateMutability": "nonpayable",
      "type": "function"
    },
    {
      "constant": false,
      "inputs": [
        {
          "name": "_newAdmin",
          "type": "address"
        }
      ],
      "name": "createMaatsAdmin",
      "outputs": [],
      "payable": false,
      "stateMutability": "nonpayable",
      "type": "function"
    },
    {
      "constant": false,
      "inputs": [
        {
          "name": "_storeName",
          "type": "string"
        }
      ],
      "name": "removeStoreOwner",
      "outputs": [
        {
          "name": "",
          "type": "bool"
        }
      ],
      "payable": false,
      "stateMutability": "nonpayable",
      "type": "function"
    },
    {
      "constant": true,
      "inputs": [
        {
          "name": "_admin",
          "type": "address"
        }
      ],
      "name": "getIsAdmin",
      "outputs": [
        {
          "name": "",
          "type": "bool"
        }
      ],
      "payable": false,
      "stateMutability": "view",
      "type": "function"
    },
    {
      "constant": true,
      "inputs": [],
      "name": "pause",
      "outputs": [
        {
          "name": "",
          "type": "bool"
        }
      ],
      "payable": false,
      "stateMutability": "view",
      "type": "function"
    },
    {
      "constant": false,
      "inputs": [
        {
          "name": "_newOwner",
          "type": "address"
        },
        {
          "name": "_storeName",
          "type": "string"
        }
      ],
      "name": "makeStoreOwner",
      "outputs": [],
      "payable": false,
      "stateMutability": "nonpayable",
      "type": "function"
    },
    {
      "constant": true,
      "inputs": [
        {
          "name": "",
          "type": "address"
        }
      ],
      "name": "createdStore",
      "outputs": [
        {
          "name": "",
          "type": "bool"
        }
      ],
      "payable": false,
      "stateMutability": "view",
      "type": "function"
    },
    {
      "constant": true,
      "inputs": [],
      "name": "getNumStores",
      "outputs": [
        {
          "name": "",
          "type": "uint256"
        }
      ],
      "payable": false,
      "stateMutability": "view",
      "type": "function"
    },
    {
      "constant": true,
      "inputs": [],
      "name": "maatsOwner",
      "outputs": [
        {
          "name": "",
          "type": "address"
        }
      ],
      "payable": false,
      "stateMutability": "view",
      "type": "function"
    },
    {
      "constant": true,
      "inputs": [
        {
          "name": "",
          "type": "uint256"
        }
      ],
      "name": "maatsAdmins",
      "outputs": [
        {
          "name": "",
          "type": "address"
        }
      ],
      "payable": false,
      "stateMutability": "view",
      "type": "function"
    },
    {
      "constant": false,
      "inputs": [],
      "name": "_unpause",
      "outputs": [],
      "payable": false,
      "stateMutability": "nonpayable",
      "type": "function"
    },
    {
      "constant": true,
      "inputs": [
        {
          "name": "i",
          "type": "uint256"
        }
      ],
      "name": "getStoreName",
      "outputs": [
        {
          "name": "",
          "type": "string"
        }
      ],
      "payable": false,
      "stateMutability": "view",
      "type": "function"
    },
    {
      "anonymous": false,
      "inputs": [
        {
          "indexed": false,
          "name": "_productId",
          "type": "uint256"
        },
        {
          "indexed": true,
          "name": "_storeName",
          "type": "string"
        }
      ],
      "name": "LogNewSetPriceProduct",
      "type": "event"
    },
    {
      "anonymous": false,
      "inputs": [
        {
          "indexed": true,
          "name": "_productId",
          "type": "uint256"
        },
        {
          "indexed": false,
          "name": "inventory",
          "type": "uint64"
        }
      ],
      "name": "LogAddedInventory",
      "type": "event"
    },
    {
      "anonymous": false,
      "inputs": [
        {
          "indexed": true,
          "name": "_ownerAddress",
          "type": "address"
        },
        {
          "indexed": true,
          "name": "_storeName",
          "type": "string"
        }
      ],
      "name": "LogProductRemoved",
      "type": "event"
    },
    {
      "anonymous": false,
      "inputs": [
        {
          "indexed": true,
          "name": "_productId",
          "type": "uint256"
        },
        {
          "indexed": true,
          "name": "_storeName",
          "type": "string"
        },
        {
          "indexed": false,
          "name": "_newPrice",
          "type": "uint128"
        }
      ],
      "name": "LogPriceChange",
      "type": "event"
    },
    {
      "anonymous": false,
      "inputs": [
        {
          "indexed": true,
          "name": "_storeName",
          "type": "string"
        },
        {
          "indexed": false,
          "name": "adminAddress",
          "type": "address"
        }
      ],
      "name": "LogNewAdmin",
      "type": "event"
    },
    {
      "anonymous": false,
      "inputs": [
        {
          "indexed": true,
          "name": "_storeName",
          "type": "string"
        },
        {
          "indexed": false,
          "name": "adminAddress",
          "type": "address"
        }
      ],
      "name": "LogAdminRemoved",
      "type": "event"
    },
    {
      "anonymous": false,
      "inputs": [
        {
          "indexed": true,
          "name": "_ownerAddress",
          "type": "address"
        },
        {
          "indexed": true,
          "name": "_newStoreName",
          "type": "string"
        }
      ],
      "name": "LogNewStore",
      "type": "event"
    },
    {
      "anonymous": false,
      "inputs": [
        {
          "indexed": true,
          "name": "_storeOwnerAddress",
          "type": "address"
        }
      ],
      "name": "LogNewStoreOwner",
      "type": "event"
    },
    {
      "anonymous": false,
      "inputs": [
        {
          "indexed": true,
          "name": "_storeOwner",
          "type": "address"
        }
      ],
      "name": "LogStoreOwnerRemoved",
      "type": "event"
    },
    {
      "anonymous": false,
      "inputs": [
        {
          "indexed": true,
          "name": "_ownerAddress",
          "type": "address"
        },
        {
          "indexed": false,
          "name": "_oldStoreName",
          "type": "string"
        }
      ],
      "name": "LogStoreClosed",
      "type": "event"
    },
    {
      "anonymous": false,
      "inputs": [
        {
          "indexed": true,
          "name": "previousOwner",
          "type": "address"
        },
        {
          "indexed": true,
          "name": "newOwner",
          "type": "address"
        }
      ],
      "name": "LogNewOwner",
      "type": "event"
    },
    {
      "anonymous": false,
      "inputs": [
        {
          "indexed": true,
          "name": "newAdmin",
          "type": "address"
        }
      ],
      "name": "LogNewAdmin",
      "type": "event"
    },
    {
      "anonymous": false,
      "inputs": [
        {
          "indexed": true,
          "name": "revokedAdmin",
          "type": "address"
        }
      ],
      "name": "LogAdminRevoked",
      "type": "event"
    },
    {
      "anonymous": false,
      "inputs": [],
      "name": "Pause",
      "type": "event"
    },
    {
      "anonymous": false,
      "inputs": [],
      "name": "Unpause",
      "type": "event"
    },
    {
      "constant": true,
      "inputs": [
        {
          "name": "adminAddress",
          "type": "address"
        }
      ],
      "name": "getIsStoreAdmin",
      "outputs": [
        {
          "name": "",
          "type": "bool"
        }
      ],
      "payable": false,
      "stateMutability": "view",
      "type": "function"
    },
    {
      "constant": false,
      "inputs": [
        {
          "name": "_NewAdminAddress",
          "type": "address"
        }
      ],
      "name": "createStoreAdmin",
      "outputs": [],
      "payable": false,
      "stateMutability": "nonpayable",
      "type": "function"
    },
    {
      "constant": false,
      "inputs": [
        {
          "name": "_adminAddress",
          "type": "address"
        }
      ],
      "name": "removeStoreAdmin",
      "outputs": [],
      "payable": false,
      "stateMutability": "nonpayable",
      "type": "function"
    },
    {
      "constant": true,
      "inputs": [
        {
          "name": "ownerAddress",
          "type": "address"
        }
      ],
      "name": "getProductExists",
      "outputs": [
        {
          "name": "",
          "type": "bool"
        }
      ],
      "payable": false,
      "stateMutability": "view",
      "type": "function"
    },
    {
      "constant": false,
      "inputs": [
        {
          "name": "_price",
          "type": "uint128"
        },
        {
          "name": "_inventory",
          "type": "uint64"
        }
      ],
      "name": "createSetPriceProduct",
      "outputs": [
        {
          "name": "_productId",
          "type": "uint256"
        }
      ],
      "payable": false,
      "stateMutability": "nonpayable",
      "type": "function"
    },
    {
      "constant": true,
      "inputs": [
        {
          "name": "ownerAddress",
          "type": "address"
        }
      ],
      "name": "getCurrentInventory",
      "outputs": [
        {
          "name": "",
          "type": "uint64"
        }
      ],
      "payable": false,
      "stateMutability": "view",
      "type": "function"
    },
    {
      "constant": false,
      "inputs": [
        {
          "name": "_productId",
          "type": "uint256"
        },
        {
          "name": "_newInventory",
          "type": "uint64"
        }
      ],
      "name": "addInventory",
      "outputs": [
        {
          "name": "",
          "type": "uint64"
        }
      ],
      "payable": false,
      "stateMutability": "nonpayable",
      "type": "function"
    },
    {
      "constant": true,
      "inputs": [
        {
          "name": "storeOwnerAddress",
          "type": "address"
        }
      ],
      "name": "getCurrentPrice",
      "outputs": [
        {
          "name": "",
          "type": "uint128"
        }
      ],
      "payable": false,
      "stateMutability": "view",
      "type": "function"
    },
    {
      "constant": false,
      "inputs": [
        {
          "name": "_newPrice",
          "type": "uint128"
        },
        {
          "name": "_productId",
          "type": "uint256"
        }
      ],
      "name": "changePrice",
      "outputs": [
        {
          "name": "",
          "type": "uint128"
        }
      ],
      "payable": false,
      "stateMutability": "nonpayable",
      "type": "function"
    },
    {
      "constant": true,
      "inputs": [
        {
          "name": "index",
          "type": "uint256"
        },
        {
          "name": "storeName",
          "type": "string"
        }
      ],
      "name": "getStoreAdmins",
      "outputs": [
        {
          "name": "",
          "type": "address"
        }
      ],
      "payable": false,
      "stateMutability": "view",
      "type": "function"
    },
    {
      "constant": true,
      "inputs": [
        {
          "name": "_storeName",
          "type": "string"
        }
      ],
      "name": "getNumProducts",
      "outputs": [
        {
          "name": "",
          "type": "uint256"
        }
      ],
      "payable": false,
      "stateMutability": "view",
      "type": "function"
    },
    {
      "constant": true,
      "inputs": [
        {
          "name": "_productId",
          "type": "uint256"
        },
        {
          "name": "_storeName",
          "type": "string"
        }
      ],
      "name": "getProductType",
      "outputs": [
        {
          "name": "",
          "type": "bool"
        }
      ],
      "payable": false,
      "stateMutability": "view",
      "type": "function"
    },
    {
      "constant": true,
      "inputs": [
        {
          "name": "_storeName",
          "type": "string"
        }
      ],
      "name": "getOwnerFromName",
      "outputs": [
        {
          "name": "",
          "type": "address"
        }
      ],
      "payable": false,
      "stateMutability": "view",
      "type": "function"
    }
  ],
  "bytecode": "0x6080604052336000806101000a81548173ffffffffffffffffffffffffffffffffffffffff021916908373ffffffffffffffffffffffffffffffffffffffff160217905550613d03806100536000396000f30060806040526004361061018a576000357c0100000000000000000000000000000000000000000000000000000000900463ffffffff168062265dc51461018f578063050cfdd1146101ea5780631ab63af81461026757806321c636fe1461032a57806328ec015c146103955780632fa8cfac1461043e578063320b2ad9146104bf5780633ccfd60b146104d657806340f42c1c146104ed57806342c3ab25146105305780635effd33c146105bb5780635f7d53a11461061657806373ada8061461065957806378678a321461070c578063803360b61461074f578063822b0ceb146107d05780638456cb591461082b57806384cc315b1461085a578063a14f2584146108d5578063a6bb52e21461093c578063a880ba95146109c5578063b3eae8c514610a46578063bd9cf58e14610aaf578063bdc39f4814610b0a578063cff4af1314610b4d578063e20df13814610ba8578063e698f0bb14610bd3578063f0e06e4a14610c2a578063fc8234cb14610c97578063fde57f3b14610cae578063fed4894914610cf1575b600080fd5b34801561019b57600080fd5b506101d0600480360381019080803573ffffffffffffffffffffffffffffffffffffffff169060200190929190505050610d97565b604051808215151515815260200191505060405180910390f35b3480156101f657600080fd5b50610251600480360381019080803590602001908201803590602001908080601f0160208091040260200160405190810160405280939291908181526020018383808284378201915050505050509192919290505050610ded565b6040518082815260200191505060405180910390f35b34801561027357600080fd5b506102a8600480360381019080803573ffffffffffffffffffffffffffffffffffffffff169060200190929190505050610f53565b6040518080602001838152602001828103825284818151815260200191508051906020019080838360005b838110156102ee5780820151818401526020810190506102d3565b50505050905090810190601f16801561031b5780820380516001836020036101000a031916815260200191505b50935050505060405180910390f35b34801561033657600080fd5b5061036b600480360381019080803573ffffffffffffffffffffffffffffffffffffffff16906020019092919050505061100f565b604051808267ffffffffffffffff1667ffffffffffffffff16815260200191505060405180910390f35b3480156103a157600080fd5b506103fc600480360381019080803590602001908201803590602001908080601f0160208091040260200160405190810160405280939291908181526020018383808284378201915050505050509192919290505050611088565b604051808273ffffffffffffffffffffffffffffffffffffffff1673ffffffffffffffffffffffffffffffffffffffff16815260200191505060405180910390f35b34801561044a57600080fd5b506104a5600480360381019080803590602001908201803590602001908080601f0160208091040260200160405190810160405280939291908181526020018383808284378201915050505050509192919290505050611122565b604051808215151515815260200191505060405180910390f35b3480156104cb57600080fd5b506104d46111a4565b005b3480156104e257600080fd5b506104eb61126a565b005b3480156104f957600080fd5b5061052e600480360381019080803573ffffffffffffffffffffffffffffffffffffffff169060200190929190505050611346565b005b34801561053c57600080fd5b506105a160048036038101908080359060200190929190803590602001908201803590602001908080601f016020809104026020016040519081016040528093929190818152602001838380828437820191505050505050919291929050505061155f565b604051808215151515815260200191505060405180910390f35b3480156105c757600080fd5b506105fc600480360381019080803573ffffffffffffffffffffffffffffffffffffffff1690602001909291905050506116ec565b604051808215151515815260200191505060405180910390f35b34801561062257600080fd5b50610657600480360381019080803573ffffffffffffffffffffffffffffffffffffffff16906020019092919050505061170c565b005b34801561066557600080fd5b506106ca60048036038101908080359060200190929190803590602001908201803590602001908080601f0160208091040260200160405190810160405280939291908181526020018383808284378201915050505050509192919290505050611889565b604051808273ffffffffffffffffffffffffffffffffffffffff1673ffffffffffffffffffffffffffffffffffffffff16815260200191505060405180910390f35b34801561071857600080fd5b5061074d600480360381019080803573ffffffffffffffffffffffffffffffffffffffff1690602001909291905050506119cb565b005b34801561075b57600080fd5b506107b6600480360381019080803590602001908201803590602001908080601f0160208091040260200160405190810160405280939291908181526020018383808284378201915050505050509192919290505050611c94565b604051808215151515815260200191505060405180910390f35b3480156107dc57600080fd5b50610811600480360381019080803573ffffffffffffffffffffffffffffffffffffffff16906020019092919050505061214b565b604051808215151515815260200191505060405180910390f35b34801561083757600080fd5b506108406121c2565b604051808215151515815260200191505060405180910390f35b34801561086657600080fd5b5061089b600480360381019080803573ffffffffffffffffffffffffffffffffffffffff1690602001909291905050506121d5565b60405180826fffffffffffffffffffffffffffffffff166fffffffffffffffffffffffffffffffff16815260200191505060405180910390f35b3480156108e157600080fd5b5061092660048036038101908080356fffffffffffffffffffffffffffffffff169060200190929190803567ffffffffffffffff169060200190929190505050612256565b6040518082815260200191505060405180910390f35b34801561094857600080fd5b506109c3600480360381019080803573ffffffffffffffffffffffffffffffffffffffff169060200190929190803590602001908201803590602001908080601f01602080910402602001604051908101604052809392919081815260200183838082843782019150505050505091929192905050506125ab565b005b3480156109d157600080fd5b50610a0c60048036038101908080356fffffffffffffffffffffffffffffffff1690602001909291908035906020019092919050505061278c565b60405180826fffffffffffffffffffffffffffffffff166fffffffffffffffffffffffffffffffff16815260200191505060405180910390f35b348015610a5257600080fd5b50610a8560048036038101908080359060200190929190803567ffffffffffffffff169060200190929190505050612976565b604051808267ffffffffffffffff1667ffffffffffffffff16815260200191505060405180910390f35b348015610abb57600080fd5b50610af0600480360381019080803573ffffffffffffffffffffffffffffffffffffffff169060200190929190505050612c7a565b604051808215151515815260200191505060405180910390f35b348015610b1657600080fd5b50610b4b600480360381019080803573ffffffffffffffffffffffffffffffffffffffff169060200190929190505050612c9a565b005b348015610b5957600080fd5b50610b8e600480360381019080803573ffffffffffffffffffffffffffffffffffffffff169060200190929190505050612f17565b604051808215151515815260200191505060405180910390f35b348015610bb457600080fd5b50610bbd612f8b565b6040518082815260200191505060405180910390f35b348015610bdf57600080fd5b50610be8612f98565b604051808273ffffffffffffffffffffffffffffffffffffffff1673ffffffffffffffffffffffffffffffffffffffff16815260200191505060405180910390f35b348015610c3657600080fd5b50610c5560048036038101908080359060200190929190505050612fbd565b604051808273ffffffffffffffffffffffffffffffffffffffff1673ffffffffffffffffffffffffffffffffffffffff16815260200191505060405180910390f35b348015610ca357600080fd5b50610cac612ff2565b005b348015610cba57600080fd5b50610cef600480360381019080803573ffffffffffffffffffffffffffffffffffffffff1690602001909291905050506130b8565b005b348015610cfd57600080fd5b50610d1c6004803603810190808035906020019092919050505061334b565b6040518080602001828103825283818151815260200191508051906020019080838360005b83811015610d5c578082015181840152602081019050610d41565b50505050905090810190601f168015610d895780820380516001836020036101000a031916815260200191505b509250505060405180910390f35b6000600f60008373ffffffffffffffffffffffffffffffffffffffff1673ffffffffffffffffffffffffffffffffffffffff16815260200190815260200160002060009054906101000a900460ff169050919050565b6000806000600d846040518082805190602001908083835b602083101515610e2a5780518252602082019150602081019050602083039250610e05565b6001836020036101000a038019825116818451168082178552505050505050905001915050908152602001604051809103902060009054906101000a900460ff161515610e7657600080fd5b600a846040518082805190602001908083835b602083101515610eae5780518252602082019150602081019050602083039250610e89565b6001836020036101000a038019825116818451168082178552505050505050905001915050908152602001604051809103902060009054906101000a900473ffffffffffffffffffffffffffffffffffffffff169150600960008373ffffffffffffffffffffffffffffffffffffffff1673ffffffffffffffffffffffffffffffffffffffff1681526020019081526020016000209050806008015492505050919050565b6009602052806000526040600020600091509050806000018054600181600116156101000203166002900480601f016020809104026020016040519081016040528092919081815260200182805460018160011615610100020316600290048015610fff5780601f10610fd457610100808354040283529160200191610fff565b820191906000526020600020905b815481529060010190602001808311610fe257829003601f168201915b5050505050908060080154905082565b600080600e60008473ffffffffffffffffffffffffffffffffffffffff1673ffffffffffffffffffffffffffffffffffffffff168152602001908152602001600020905080600101600080815260200190815260200160002060020160009054906101000a900467ffffffffffffffff16915050919050565b600080600a836040518082805190602001908083835b6020831015156110c3578051825260208201915060208101905060208303925061109e565b6001836020036101000a038019825116818451168082178552505050505050905001915050908152602001604051809103902060009054906101000a900473ffffffffffffffffffffffffffffffffffffffff16905080915050919050565b6000600d826040518082805190602001908083835b60208310151561115c5780518252602082019150602081019050602083039250611137565b6001836020036101000a038019825116818451168082178552505050505050905001915050908152602001604051809103902060009054906101000a900460ff169050919050565b6000809054906101000a900473ffffffffffffffffffffffffffffffffffffffff1673ffffffffffffffffffffffffffffffffffffffff163373ffffffffffffffffffffffffffffffffffffffff161415156111ff57600080fd5b60001515600760009054906101000a900460ff16151514151561122157600080fd5b6001600760006101000a81548160ff0219169083151502179055507f6985a02210a168e66602d3235cb6db0e70f92b3ba4d376a33c0f3d9434bff62560405160405180910390a1565b6000809054906101000a900473ffffffffffffffffffffffffffffffffffffffff1673ffffffffffffffffffffffffffffffffffffffff163373ffffffffffffffffffffffffffffffffffffffff161415156112c557600080fd5b6000809054906101000a900473ffffffffffffffffffffffffffffffffffffffff1673ffffffffffffffffffffffffffffffffffffffff166108fc3073ffffffffffffffffffffffffffffffffffffffff16319081150290604051600060405180830381858888f19350505050158015611343573d6000803e3d6000fd5b50565b6000806000809054906101000a900473ffffffffffffffffffffffffffffffffffffffff1673ffffffffffffffffffffffffffffffffffffffff163373ffffffffffffffffffffffffffffffffffffffff161415156113a457600080fd5b60001515600760009054906101000a900460ff1615151415156113c657600080fd5b60009150600090505b600481111580156113e4575060001515821515145b1561154a578273ffffffffffffffffffffffffffffffffffffffff1660018260058110151561140f57fe5b0160009054906101000a900473ffffffffffffffffffffffffffffffffffffffff1673ffffffffffffffffffffffffffffffffffffffff16141561153d57600060018260058110151561145e57fe5b0160006101000a81548173ffffffffffffffffffffffffffffffffffffffff021916908373ffffffffffffffffffffffffffffffffffffffff1602179055506000600660008573ffffffffffffffffffffffffffffffffffffffff1673ffffffffffffffffffffffffffffffffffffffff16815260200190815260200160002060006101000a81548160ff021916908315150217905550600191508273ffffffffffffffffffffffffffffffffffffffff167fdca59b6371f7db6faad5c9931588f735722795c7b8ea859824e0afc8b2c70a4f60405160405180910390a25b80806001019150506113cf565b6001151582151514151561155a57fe5b505050565b600080600080600d856040518082805190602001908083835b60208310151561159d5780518252602082019150602081019050602083039250611578565b6001836020036101000a038019825116818451168082178552505050505050905001915050908152602001604051809103902060009054906101000a900460ff1615156115e957600080fd5b600a856040518082805190602001908083835b60208310151561162157805182526020820191506020810190506020830392506115fc565b6001836020036101000a038019825116818451168082178552505050505050905001915050908152602001604051809103902060009054906101000a900473ffffffffffffffffffffffffffffffffffffffff169250600960008473ffffffffffffffffffffffffffffffffffffffff1673ffffffffffffffffffffffffffffffffffffffff168152602001908152602001600020915081600101600087815260200190815260200160002090508060020160089054906101000a900460ff16935050505092915050565b600b6020528060005260406000206000915054906101000a900460ff1681565b60008060009054906101000a900473ffffffffffffffffffffffffffffffffffffffff1673ffffffffffffffffffffffffffffffffffffffff163373ffffffffffffffffffffffffffffffffffffffff1614151561176957600080fd5b60001515600760009054906101000a900460ff16151514151561178b57600080fd5b600073ffffffffffffffffffffffffffffffffffffffff168273ffffffffffffffffffffffffffffffffffffffff16141515156117c757600080fd5b6000809054906101000a900473ffffffffffffffffffffffffffffffffffffffff169050816000806101000a81548173ffffffffffffffffffffffffffffffffffffffff021916908373ffffffffffffffffffffffffffffffffffffffff1602179055508073ffffffffffffffffffffffffffffffffffffffff168273ffffffffffffffffffffffffffffffffffffffff167f1f8d7d25344642d919d55999e4664aa452a5f424bc0936ceb9c2b300db7dcbd960405160405180910390a35050565b6000806000600185101580156118a0575060058511155b15156118ab57600080fd5b600a846040518082805190602001908083835b6020831015156118e357805182526020820191506020810190506020830392506118be565b6001836020036101000a038019825116818451168082178552505050505050905001915050908152602001604051809103902060009054906101000a900473ffffffffffffffffffffffffffffffffffffffff169150600960008373ffffffffffffffffffffffffffffffffffffffff1673ffffffffffffffffffffffffffffffffffffffff16815260200190815260200160002090506000600611156119be57806002018560068110151561199557fe5b0160009054906101000a900473ffffffffffffffffffffffffffffffffffffffff1692506119c3565b600092505b505092915050565b60008060008060009054906101000a900473ffffffffffffffffffffffffffffffffffffffff1673ffffffffffffffffffffffffffffffffffffffff163373ffffffffffffffffffffffffffffffffffffffff16141515611a2b57600080fd5b60001515600760009054906101000a900460ff161515141515611a4d57600080fd5b600073ffffffffffffffffffffffffffffffffffffffff168473ffffffffffffffffffffffffffffffffffffffff1614151515611a8957600080fd5b5b600483111515611b14578373ffffffffffffffffffffffffffffffffffffffff16600184600581101515611aba57fe5b0160009054906101000a900473ffffffffffffffffffffffffffffffffffffffff1673ffffffffffffffffffffffffffffffffffffffff161415611b095760026001141515611b0857600080fd5b5b826001019250611a8a565b600091505b60048111158015611b2e575060001515821515145b15611c7e576000600182600581101515611b4457fe5b0160009054906101000a900473ffffffffffffffffffffffffffffffffffffffff1673ffffffffffffffffffffffffffffffffffffffff161415611c715783600182600581101515611b9257fe5b0160006101000a81548173ffffffffffffffffffffffffffffffffffffffff021916908373ffffffffffffffffffffffffffffffffffffffff1602179055506001600660008673ffffffffffffffffffffffffffffffffffffffff1673ffffffffffffffffffffffffffffffffffffffff16815260200190815260200160002060006101000a81548160ff021916908315150217905550600191508373ffffffffffffffffffffffffffffffffffffffff167f39e7d4b9ba48f55a740a5192809dbc498fa12724c030b37dab126a3f6774c0f360405160405180910390a25b8080600101915050611b19565b60011515821515141515611c8e57fe5b50505050565b6000806000809054906101000a900473ffffffffffffffffffffffffffffffffffffffff1673ffffffffffffffffffffffffffffffffffffffff163373ffffffffffffffffffffffffffffffffffffffff161480611d42575060011515600660003373ffffffffffffffffffffffffffffffffffffffff1673ffffffffffffffffffffffffffffffffffffffff16815260200190815260200160002060009054906101000a900460ff161515145b1515611d4d57600080fd5b600a836040518082805190602001908083835b602083101515611d855780518252602082019150602081019050602083039250611d60565b6001836020036101000a038019825116818451168082178552505050505050905001915050908152602001604051809103902060009054906101000a900473ffffffffffffffffffffffffffffffffffffffff16905060011515600b60008373ffffffffffffffffffffffffffffffffffffffff1673ffffffffffffffffffffffffffffffffffffffff16815260200190815260200160002060009054906101000a900460ff161515141515611e3a57600080fd5b6000600d846040518082805190602001908083835b602083101515611e745780518252602082019150602081019050602083039250611e4f565b6001836020036101000a038019825116818451168082178552505050505050905001915050908152602001604051809103902060006101000a81548160ff0219169083151502179055506040805190810160405280600181526020017f3000000000000000000000000000000000000000000000000000000000000000815250600960008373ffffffffffffffffffffffffffffffffffffffff1673ffffffffffffffffffffffffffffffffffffffff1681526020019081526020016000206000019080519060200190611f4992919061395d565b508073ffffffffffffffffffffffffffffffffffffffff167f70e9219a99e9bfc211e7aa1236b656ca826ba23e3e9e5cbdc2f16e0c7eb8fad9600960008473ffffffffffffffffffffffffffffffffffffffff1673ffffffffffffffffffffffffffffffffffffffff168152602001908152602001600020600001604051808060200182810382528381815460018160011615610100020316600290048152602001915080546001816001161561010002031660029004801561204d5780601f106120225761010080835404028352916020019161204d565b820191906000526020600020905b81548152906001019060200180831161203057829003601f168201915b50509250505060405180910390a26000600b60008373ffffffffffffffffffffffffffffffffffffffff1673ffffffffffffffffffffffffffffffffffffffff16815260200190815260200160002060006101000a81548160ff0219169083151502179055508073ffffffffffffffffffffffffffffffffffffffff167fe6547a945aa917d8f8b8a71a98062b03570c5ab79d6f47aa64dab5ae6483e0c860405160405180910390a2600b60008273ffffffffffffffffffffffffffffffffffffffff1673ffffffffffffffffffffffffffffffffffffffff16815260200190815260200160002060009054906101000a900460ff16915050919050565b6000801515600760009054906101000a900460ff16151514151561216e57600080fd5b600660008373ffffffffffffffffffffffffffffffffffffffff1673ffffffffffffffffffffffffffffffffffffffff16815260200190815260200160002060009054906101000a900460ff169050919050565b600760009054906101000a900460ff1681565b600080600e60008473ffffffffffffffffffffffffffffffffffffffff1673ffffffffffffffffffffffffffffffffffffffff168152602001908152602001600020905080600101600080815260200190815260200160002060000160009054906101000a90046fffffffffffffffffffffffffffffffff16915050919050565b6000806122616139dd565b6000801515600760009054906101000a900460ff16151514151561228457600080fd5b6000600e60003373ffffffffffffffffffffffffffffffffffffffff1673ffffffffffffffffffffffffffffffffffffffff1681526020019081526020016000209050600d8160000160405180828054600181600116156101000203166002900480156123285780601f10612306576101008083540402835291820191612328565b820191906000526020600020905b815481529060010190602001808311612314575b5050915050908152602001604051809103902060009054906101000a900460ff16151561235457600080fd5b600e60003373ffffffffffffffffffffffffffffffffffffffff1673ffffffffffffffffffffffffffffffffffffffff1681526020019081526020016000209350608060405190810160405280886fffffffffffffffffffffffffffffffff16815260200160006040519080825280602002602001820160405280156123e95781602001602082028038833980820191505090505b5081526020018767ffffffffffffffff168152602001600015158152509250836008015494508284600101600087815260200190815260200160002060008201518160000160006101000a8154816fffffffffffffffffffffffffffffffff02191690836fffffffffffffffffffffffffffffffff1602179055506020820151816001019080519060200190612480929190613a24565b5060408201518160020160006101000a81548167ffffffffffffffff021916908367ffffffffffffffff16021790555060608201518160020160086101000a81548160ff0219169083151502179055509050506001601060008660080154815260200190815260200160002060006101000a81548160ff02191690831515021790555083600801600081548092919060010191905055505b8567ffffffffffffffff1682101561259e578360010160008681526020019081526020016000206001016000908060018154018082558091505090600182039060005260206000209060209182820401919006909192909190916101000a81548160ff0219169083600381111561258b57fe5b0217905550508180600101925050612518565b8494505050505092915050565b6000809054906101000a900473ffffffffffffffffffffffffffffffffffffffff1673ffffffffffffffffffffffffffffffffffffffff163373ffffffffffffffffffffffffffffffffffffffff161480612656575060011515600660003373ffffffffffffffffffffffffffffffffffffffff1673ffffffffffffffffffffffffffffffffffffffff16815260200190815260200160002060009054906101000a900460ff161515145b151561266157600080fd5b60001515600760009054906101000a900460ff16151514151561268357600080fd5b60001515600b60008473ffffffffffffffffffffffffffffffffffffffff1673ffffffffffffffffffffffffffffffffffffffff16815260200190815260200160002060009054906101000a900460ff1615151415156126e257600080fd5b6001600b60008473ffffffffffffffffffffffffffffffffffffffff1673ffffffffffffffffffffffffffffffffffffffff16815260200190815260200160002060006101000a81548160ff0219169083151502179055506127448282613465565b508173ffffffffffffffffffffffffffffffffffffffff167f64a6cb4c2615e9c9ee211131f9fc94aaa6238a3c255423b75ba43ef01ca42dcd60405160405180910390a25050565b6000806000600960003373ffffffffffffffffffffffffffffffffffffffff1673ffffffffffffffffffffffffffffffffffffffff1681526020019081526020016000209050600d8160000160405180828054600181600116156101000203166002900480156128335780601f10612811576101008083540402835291820191612833565b820191906000526020600020905b81548152906001019060200180831161281f575b5050915050908152602001604051809103902060009054906101000a900460ff16151561285f57600080fd5b60001515600760009054906101000a900460ff16151514151561288157600080fd5b600e60003373ffffffffffffffffffffffffffffffffffffffff1673ffffffffffffffffffffffffffffffffffffffff16815260200190815260200160002091506000856fffffffffffffffffffffffffffffffff16101515156128e457600080fd5b6000151582600101600086815260200190815260200160002060020160089054906101000a900460ff16151514151561291c57600080fd5b8482600101600086815260200190815260200160002060000160006101000a8154816fffffffffffffffffffffffffffffffff02191690836fffffffffffffffffffffffffffffffff160217905550849250505092915050565b6000806000806000600e60003373ffffffffffffffffffffffffffffffffffffffff1673ffffffffffffffffffffffffffffffffffffffff1681526020019081526020016000209050600d816000016040518082805460018160011615610100020316600290048015612a205780601f106129fe576101008083540402835291820191612a20565b820191906000526020600020905b815481529060010190602001808311612a0c575b5050915050908152602001604051809103902060009054906101000a900460ff161515612a4c57600080fd5b60001515600760009054906101000a900460ff161515141515612a6e57600080fd5b600e60003373ffffffffffffffffffffffffffffffffffffffff1673ffffffffffffffffffffffffffffffffffffffff16815260200190815260200160002093508584600101600089815260200190815260200160002060020160008282829054906101000a900467ffffffffffffffff160192506101000a81548167ffffffffffffffff021916908367ffffffffffffffff16021790555083600101600088815260200190815260200160002060020160089054906101000a900460ff16925060001515831515141515612b4257600080fd5b5b8567ffffffffffffffff16821015612bc9578360010160008881526020019081526020016000206001016000908060018154018082558091505090600182039060005260206000209060209182820401919006909192909190916101000a81548160ff02191690836003811115612bb657fe5b0217905550508180600101925050612b43565b867fdb3cb3bd3aa8b0116684a1673c77eb69da47689f478ec18c9b1b42042bff3ebc8560010160008a815260200190815260200160002060020160009054906101000a900467ffffffffffffffff16604051808267ffffffffffffffff1667ffffffffffffffff16815260200191505060405180910390a283600101600088815260200190815260200160002060020160009054906101000a900467ffffffffffffffff1694505050505092915050565b600c6020528060005260406000206000915054906101000a900460ff1681565b6000806000801515600760009054906101000a900460ff161515141515612cc057600080fd5b6000600e60003373ffffffffffffffffffffffffffffffffffffffff1673ffffffffffffffffffffffffffffffffffffffff1681526020019081526020016000209050600d816000016040518082805460018160011615610100020316600290048015612d645780601f10612d42576101008083540402835291820191612d64565b820191906000526020600020905b815481529060010190602001808311612d50575b5050915050908152602001604051809103902060009054906101000a900460ff161515612d9057600080fd5b600e60003373ffffffffffffffffffffffffffffffffffffffff1673ffffffffffffffffffffffffffffffffffffffff168152602001908152602001600020935060009250600191505b60058211158015612def575060001515831515145b15612f005760008460020183600681101515612e0757fe5b0160009054906101000a900473ffffffffffffffffffffffffffffffffffffffff1673ffffffffffffffffffffffffffffffffffffffff161415612ef357848460020183600681101515612e5757fe5b0160006101000a81548173ffffffffffffffffffffffffffffffffffffffff021916908373ffffffffffffffffffffffffffffffffffffffff160217905550600192506001600f60008773ffffffffffffffffffffffffffffffffffffffff1673ffffffffffffffffffffffffffffffffffffffff16815260200190815260200160002060006101000a81548160ff0219169083151502179055505b8180600101925050612dda565b60011515831515141515612f1057fe5b5050505050565b600080600e60008473ffffffffffffffffffffffffffffffffffffffff1673ffffffffffffffffffffffffffffffffffffffff1681526020019081526020016000209050601060006001836008015403815260200190815260200160002060009054906101000a900460ff16915050919050565b6000600880549050905090565b6000809054906101000a900473ffffffffffffffffffffffffffffffffffffffff1681565b600181600581101515612fcc57fe5b016000915054906101000a900473ffffffffffffffffffffffffffffffffffffffff1681565b6000809054906101000a900473ffffffffffffffffffffffffffffffffffffffff1673ffffffffffffffffffffffffffffffffffffffff163373ffffffffffffffffffffffffffffffffffffffff1614151561304d57600080fd5b60011515600760009054906101000a900460ff16151514151561306f57600080fd5b6000600760006101000a81548160ff0219169083151502179055507f7805862f689e2f13df9f062ff482ad3ad112aca9e0847911ed832e158c525b3360405160405180910390a1565b600080600080600960003373ffffffffffffffffffffffffffffffffffffffff1673ffffffffffffffffffffffffffffffffffffffff1681526020019081526020016000209050600d8160000160405180828054600181600116156101000203166002900480156131605780601f1061313e576101008083540402835291820191613160565b820191906000526020600020905b81548152906001019060200180831161314c575b5050915050908152602001604051809103902060009054906101000a900460ff16151561318c57600080fd5b60001515600760009054906101000a900460ff1615151415156131ae57600080fd5b600e60003373ffffffffffffffffffffffffffffffffffffffff1673ffffffffffffffffffffffffffffffffffffffff168152602001908152602001600020935060009250600191505b6005821115801561320d575060001515831515145b15613334578473ffffffffffffffffffffffffffffffffffffffff16846002018360068110151561323a57fe5b0160009054906101000a900473ffffffffffffffffffffffffffffffffffffffff1673ffffffffffffffffffffffffffffffffffffffff161415613327576000846002018360068110151561328b57fe5b0160006101000a81548173ffffffffffffffffffffffffffffffffffffffff021916908373ffffffffffffffffffffffffffffffffffffffff160217905550600192506000600f60008773ffffffffffffffffffffffffffffffffffffffff1673ffffffffffffffffffffffffffffffffffffffff16815260200190815260200160002060006101000a81548160ff0219169083151502179055505b81806001019250506131f8565b6001151583151514151561334457fe5b5050505050565b606060008060006008805490501415156134255760088481548110151561336e57fe5b90600052602060002090600902019150816000019050808054600181600116156101000203166002900480601f0160208091040260200160405190810160405280929190818152602001828054600181600116156101000203166002900480156134195780601f106133ee57610100808354040283529160200191613419565b820191906000526020600020905b8154815290600101906020018083116133fc57829003601f168201915b5050505050925061345e565b6040805190810160405280600181526020017f300000000000000000000000000000000000000000000000000000000000000081525092505b5050919050565b606061346f613ad3565b613477613af6565b60001515600760009054906101000a900460ff16151514151561349957600080fd5b60011515600b60008773ffffffffffffffffffffffffffffffffffffffff1673ffffffffffffffffffffffffffffffffffffffff16815260200190815260200160002060009054906101000a900460ff1615151415156134f857600080fd5b60001515600c60008773ffffffffffffffffffffffffffffffffffffffff1673ffffffffffffffffffffffffffffffffffffffff16815260200190815260200160002060009054906101000a900460ff16151514151561355757600080fd5b60001515600d856040518082805190602001908083835b602083101515613593578051825260208201915060208101905060208303925061356e565b6001836020036101000a038019825116818451168082178552505050505050905001915050908152602001604051809103902060009054906101000a900460ff1615151415156135e257600080fd5b6060604051908101604052808581526020018381526020016000815250905080600960008773ffffffffffffffffffffffffffffffffffffffff1673ffffffffffffffffffffffffffffffffffffffff168152602001908152602001600020600082015181600001908051906020019061365d929190613b1f565b50602082015181600201906006613675929190613b9f565b506040820151816008015590505084600a82600001516040518082805190602001908083835b6020831015156136c0578051825260208201915060208101905060208303925061369b565b6001836020036101000a038019825116818451168082178552505050505050905001915050908152602001604051809103902060006101000a81548173ffffffffffffffffffffffffffffffffffffffff021916908373ffffffffffffffffffffffffffffffffffffffff1602179055506001600d82600001516040518082805190602001908083835b60208310151561376f578051825260208201915060208101905060208303925061374a565b6001836020036101000a038019825116818451168082178552505050505050905001915050908152602001604051809103902060006101000a81548160ff02191690831515021790555084816020015160006006811015156137cd57fe5b602002019073ffffffffffffffffffffffffffffffffffffffff16908173ffffffffffffffffffffffffffffffffffffffff168152505080600e60008773ffffffffffffffffffffffffffffffffffffffff1673ffffffffffffffffffffffffffffffffffffffff1681526020019081526020016000206000820151816000019080519060200190613860929190613b1f565b50602082015181600201906006613878929190613b9f565b50604082015181600801559050506001600c60008773ffffffffffffffffffffffffffffffffffffffff1673ffffffffffffffffffffffffffffffffffffffff16815260200190815260200160002060006101000a81548160ff021916908315150217905550600881908060018154018082558091505090600182039060005260206000209060090201600090919290919091506000820151816000019080519060200190613928929190613b1f565b50602082015181600201906006613940929190613b9f565b506040820151816008015550505080600001519250505092915050565b828054600181600116156101000203166002900490600052602060002090601f016020900481019282601f1061399e57805160ff19168380011785556139cc565b828001600101855582156139cc579182015b828111156139cb5782518255916020019190600101906139b0565b5b5090506139d99190613c1c565b5090565b60806040519081016040528060006fffffffffffffffffffffffffffffffff16815260200160608152602001600067ffffffffffffffff1681526020016000151581525090565b82805482825590600052602060002090601f01602090048101928215613ac25791602002820160005b83821115613a9357835183826101000a81548160ff02191690836003811115613a7257fe5b02179055509260200192600101602081600001049283019260010302613a4d565b8015613ac05782816101000a81549060ff0219169055600101602081600001049283019260010302613a93565b505b509050613acf9190613c41565b5090565b60c060405190810160405280600690602082028038833980820191505090505090565b6101006040519081016040528060608152602001613b12613c71565b8152602001600081525090565b828054600181600116156101000203166002900490600052602060002090601f016020900481019282601f10613b6057805160ff1916838001178555613b8e565b82800160010185558215613b8e579182015b82811115613b8d578251825591602001919060010190613b72565b5b509050613b9b9190613c1c565b5090565b8260068101928215613c0b579160200282015b82811115613c0a5782518260006101000a81548173ffffffffffffffffffffffffffffffffffffffff021916908373ffffffffffffffffffffffffffffffffffffffff16021790555091602001919060010190613bb2565b5b509050613c189190613c94565b5090565b613c3e91905b80821115613c3a576000816000905550600101613c22565b5090565b90565b613c6e91905b80821115613c6a57600081816101000a81549060ff021916905550600101613c47565b5090565b90565b60c060405190810160405280600690602082028038833980820191505090505090565b613cd491905b80821115613cd057600081816101000a81549073ffffffffffffffffffffffffffffffffffffffff021916905550600101613c9a565b5090565b905600a165627a7a72305820dbb29f4ce71d2a327712a2ac598ae885c78fc0653909859474881896d53410120029",
  "source": "pragma solidity ^0.4.24;\n\nimport \"./StoreBase.sol\";\n\n/** @dev Contract for storeOwner management. This includes product management,\n  * store closure by owner and store removal by owner. This contract also\n  * manages product inventory and specific instances of a product type.\n  */\ncontract StoreManagement is StoreBase{\n\n  /// @dev Emit when a product with set price is created.\n  event LogNewSetPriceProduct(uint _productId,string indexed _storeName);\n  /// @dev Emit when inventory of a product is increased.\n  event LogAddedInventory(uint indexed _productId,uint64 inventory);\n  /// @dev Emit when a product is no longer being sold\n  event LogProductRemoved(address indexed _ownerAddress,string indexed _storeName);\n  /// @dev Let the world know of price changes\n  event LogPriceChange(uint indexed _productId,string indexed _storeName,uint128 _newPrice);\n  /// @dev Emit when an admin is added to a store\n  event LogNewAdmin(string indexed _storeName,address adminAddress);\n  /// @dev Emit when an admin is removed from a store\n  event LogAdminRemoved(string indexed _storeName,address adminAddress);\n\n\n\n\n  /// @dev Uses current store to determine if they are an admin, allowing them to\n  /// act on the store for which they are an admin. Recall that the 0-index\n  /// of the storeAdmins array holds the owner address. Therefore any function\n  /// which uses this modifier can be also accessed by the owner!\n  modifier onlyStoreAdmin(){\n    Store storage current = storeAdminToStore[msg.sender];\n\n    // if current isn't equal to a store, then the following require fails\n    require(storeExists[current.storeName]);\n    _;\n  }\n\n  /// @dev Uses store mappings to determine if the msg.sender is the owner.\n  modifier onlyStoreOwner(){\n    Store storage current = OwnerToStore[msg.sender];\n    require(storeExists[current.storeName]);\n    _;\n  }\n\n\n/*\n***** Store Admin Management *****\n*/\n\n  // used for testing purposes\n  mapping (address => bool) isStoreAdmin;\n  function getIsStoreAdmin(address adminAddress)public constant returns(bool){\n    return isStoreAdmin[adminAddress];\n  }\n\n  /// @dev Allow the store owner or its admins to add another admin to the store.\n  /// The function checks that the address isn't already an admin and ensures that\n  /// there aren't already admins. It starts at index 1 since index 0 is always\n  /// for the store owner.\n  /// @param _NewAdminAddress : address of the soon to be admin.\n  function createStoreAdmin(address _NewAdminAddress)\n  public\n  whenNotPaused\n  onlyStoreAdmin{\n    // retrieve the store based off of who is calling.\n    Store storage current = storeAdminToStore[msg.sender];\n\n    bool adminCreated = false;\n    for(uint i=1; i <= 5 && adminCreated == false; i++){\n      if (current.storeAdmins[i] == 0){\n        current.storeAdmins[i] = _NewAdminAddress;\n        adminCreated = true;\n        isStoreAdmin[_NewAdminAddress] = true;\n      }\n    }\n\n\n    // This assert is used to prevent a silent failure of this function call\n    assert(adminCreated == true);\n\n  ///emit LogNewAdmin(current.storeName, _NewAdminAddress);\n  }\n\n  /// @dev This function removes an admin from the store. It can only be called\n  /// by the owner of the store. The admin array isn't restructured because\n  /// the order of admins is insignificant outside of the 0-index == owner.\n  /// @param _adminAddress : the address of the admin being removed.\n  function removeStoreAdmin(address _adminAddress)\n  public\n  onlyStoreOwner\n  whenNotPaused{\n    Store storage current = storeAdminToStore[msg.sender];\n    bool adminRemoved = false;\n    uint i = 1;\n    // start at 1-index because the 0-index is reserved for the owner\n    for(; i<=5 && adminRemoved == false; i++){\n      if(current.storeAdmins[i] == _adminAddress){\n        current.storeAdmins[i] = 0;\n        adminRemoved = true;\n        isStoreAdmin[_adminAddress] = false;\n      }\n    }\n\n    // want to sensure there isn't a silent failure of this function call.\n     assert(adminRemoved == true);\n\n  //  emit LogAdminRemoved(current.storeName, _adminAddress);\n  }\n\n/*\n****** Product Management *****\n*/\n\n  /// @dev Only used for testing. GetProductExists really only checks if there\n  /// is  a product in the array at prodCount\n  mapping (uint => bool) productExists;\n  function getProductExists(address ownerAddress)public constant returns(bool){\n    Store storage current = storeAdminToStore[ownerAddress];\n    return productExists[current.prodCount -1];\n\n  }\n  /// @dev This function creates a new product which is sold for a set price.\n  /// It is added to the products mapping for the store and can only be accessed\n  /// when the contract isn't paused. Security concerns are present if an\n  /// owner acts maliciously and attempts to add hundreds of products to slow\n  /// down Maats Network and cause errors\n  /// notice: immediately makes product forSale\n  /// @param _price : the price of the new product\n  /// @param _inventory : the initial inventory the store has on hand of the product\n  /// @return _productId : returns the key for the products mapping.\n  function createSetPriceProduct(\n    uint128 _price,\n    uint64 _inventory\n    )\n    public\n    whenNotPaused\n    onlyStoreAdmin\n    returns(uint _productId){\n      // fetch current store based off of the msg.sender\n      Store storage current = storeAdminToStore[msg.sender];\n\n      // the product will be stored in the products mapping as to avoid\n      // dissapearing during deallocation of local memory variables.\n      Product memory _product = Product({\n        price: _price,\n        items: new ItemStatus[](0),\n        inventory: _inventory,\n        auction: false\n        });\n\n      // The identifier for a product is equal to the current count of products\n      // before this product was created. It is then added to the mapping and\n      // the count of total products in the store is incremented.\n      _productId = current.prodCount;\n      current.products[_productId] = _product;\n      productExists[current.prodCount] = true;\n      current.prodCount++;\n\n      // fill the items array with initial inventory and set to ForSale\n      for(uint i; i <_inventory; i++){\n        current.products[_productId].items.push(ItemStatus.ForSale);\n      }\n\n      // Let the world know there's a new product on the store!!\n    //  emit LogNewSetPriceProduct(_productId, current.storeName);\n      return(_productId);\n    }\n\n  // Just for testing\n  function getCurrentInventory(address ownerAddress) public constant returns(uint64){\n    Store storage current = storeAdminToStore[ownerAddress];\n    return current.products[0].inventory;\n  }\n\n  /// @dev Add inventory to a product and manage inventory variables.\n  /// notice Added inventory for set-price becomes for sale immediatley\n  /// Can't add inventory for auctions, new product created instead\n  /// @param _productId : the product type which is getting new inventory\n  /// @param _newInventory : the amount of new inventory being added\n  /// @return current.products[_productId].inventory : the now total inventory\n  function addInventory(uint _productId,uint64 _newInventory)\n    public\n    onlyStoreAdmin\n    whenNotPaused\n    returns(uint64){\n      // fetch current store based off of msg.sender\n      Store storage current = storeAdminToStore[msg.sender];\n      // add the new inventory to the current amount of inventory\n      current.products[_productId].inventory += _newInventory;\n      // Ensure that product isn't of type auction since you can't add inventory\n      // to a single item on auction.\n      bool _isAuction = current.products[_productId].auction;\n      require(_isAuction == false);\n\n      // immediately set new inventory up for sale.\n      for(uint i; i <_newInventory; i++){\n        current.products[_productId].items.push(ItemStatus.ForSale);\n      }\n\n      emit LogAddedInventory(_productId, current.products[_productId].inventory);\n      return(current.products[_productId].inventory);\n  }\n\n  function getCurrentPrice(address storeOwnerAddress)public constant returns(uint128){\n    Store storage current = storeAdminToStore[storeOwnerAddress];\n    return current.products[0].price;\n  }\n  /// @dev Change the price of an existing product. Ensure that the new price\n  /// is not larger than 0 (0 is allowed if people are feeling generous).\n  /// notice You can't change the price of an auction item since those items\n  /// follow their own logic.\n  /// @param _newPrice : the new price for the product\n  /// @param _productId : the product which is experiencing the price change.\n  function changePrice(uint128 _newPrice,uint _productId)\n    public\n    onlyStoreOwner\n    whenNotPaused\n    returns(uint128){\n      Store storage current = storeAdminToStore[msg.sender];\n      require(_newPrice >= 0);\n      // can't change the price of an auction item\n      require(current.products[_productId].auction == false);\n      // change price\n      current.products[_productId].price = _newPrice;\n      // Let the world know about the price change!!\n    //  emit LogPriceChange(_productId, current.storeName, _newPrice);\n      return(_newPrice);\n  }\n\n  function getStoreAdmins(uint index,string storeName)public constant returns(address){\n    require(index >=1 && index <=5);\n    address owner = StoreNameToOwner[storeName];\n    Store storage _store = OwnerToStore[owner];\n    if(_store.storeAdmins.length > 0){\n      return(_store.storeAdmins[index]);\n    }\n    return(address(0));\n  }\n\n  function getNumProducts(string _storeName) public constant returns(uint){\n    require(storeExists[_storeName]);\n    address _owner = StoreNameToOwner[_storeName];\n    Store storage _store = OwnerToStore[_owner];\n    return(_store.prodCount);\n  }\n\n  function getProductType(uint _productId,string _storeName) public constant returns(bool){\n    require(storeExists[_storeName]);\n    address _owner = StoreNameToOwner[_storeName];\n    Store storage _store = OwnerToStore[_owner];\n    Product storage _product = _store.products[_productId];\n    return(_product.auction);\n  }\n\n  function getOwnerFromName(string _storeName) public constant returns(address){\n    address _owner = StoreNameToOwner[_storeName];\n    return(_owner);\n  }\n\n}\n",
  "sourcePath": "/Users/ericbrown/Documents/Blockchain/ConsenSysCourse/GitHub/Maats/contracts/StoreManagement.sol",
  "compiler": {
    "name": "solc",
    "version": "0.4.24+commit.e67f0147.Emscripten.clang"
  },
  "schemaVersion": "2.0.1",
  "updatedAt": "2018-08-15T00:56:21.894Z"
}