{
  "contractName": "StoreAuction",
  "abi": [
    {
      "constant": true,
      "inputs": [
        {
          "name": "adminAddress",
          "type": "address"
        }
      ],
      "name": "getIsStoreAdmin",
      "outputs": [
        {
          "name": "",
          "type": "bool"
        }
      ],
      "payable": false,
      "stateMutability": "view",
      "type": "function"
    },
    {
      "constant": true,
      "inputs": [
        {
          "name": "_storeName",
          "type": "string"
        }
      ],
      "name": "getNumProducts",
      "outputs": [
        {
          "name": "",
          "type": "uint256"
        }
      ],
      "payable": false,
      "stateMutability": "view",
      "type": "function"
    },
    {
      "constant": true,
      "inputs": [
        {
          "name": "",
          "type": "address"
        }
      ],
      "name": "OwnerToStore",
      "outputs": [
        {
          "name": "storeName",
          "type": "string"
        },
        {
          "name": "prodCount",
          "type": "uint256"
        }
      ],
      "payable": false,
      "stateMutability": "view",
      "type": "function"
    },
    {
      "constant": true,
      "inputs": [
        {
          "name": "ownerAddress",
          "type": "address"
        }
      ],
      "name": "getCurrentInventory",
      "outputs": [
        {
          "name": "",
          "type": "uint64"
        }
      ],
      "payable": false,
      "stateMutability": "view",
      "type": "function"
    },
    {
      "constant": true,
      "inputs": [
        {
          "name": "_storeName",
          "type": "string"
        }
      ],
      "name": "getOwnerFromName",
      "outputs": [
        {
          "name": "",
          "type": "address"
        }
      ],
      "payable": false,
      "stateMutability": "view",
      "type": "function"
    },
    {
      "constant": true,
      "inputs": [
        {
          "name": "_storeName",
          "type": "string"
        }
      ],
      "name": "getStoreExists",
      "outputs": [
        {
          "name": "",
          "type": "bool"
        }
      ],
      "payable": false,
      "stateMutability": "view",
      "type": "function"
    },
    {
      "constant": true,
      "inputs": [
        {
          "name": "",
          "type": "address"
        }
      ],
      "name": "purchaserToItem",
      "outputs": [
        {
          "name": "",
          "type": "uint256"
        }
      ],
      "payable": false,
      "stateMutability": "view",
      "type": "function"
    },
    {
      "constant": false,
      "inputs": [],
      "name": "_pause",
      "outputs": [],
      "payable": false,
      "stateMutability": "nonpayable",
      "type": "function"
    },
    {
      "constant": false,
      "inputs": [],
      "name": "withdraw",
      "outputs": [],
      "payable": false,
      "stateMutability": "nonpayable",
      "type": "function"
    },
    {
      "constant": false,
      "inputs": [
        {
          "name": "_revokedAdmin",
          "type": "address"
        }
      ],
      "name": "removeMaatsAdmin",
      "outputs": [],
      "payable": false,
      "stateMutability": "nonpayable",
      "type": "function"
    },
    {
      "constant": true,
      "inputs": [
        {
          "name": "_productId",
          "type": "uint256"
        },
        {
          "name": "_storeName",
          "type": "string"
        }
      ],
      "name": "getProductType",
      "outputs": [
        {
          "name": "",
          "type": "bool"
        }
      ],
      "payable": false,
      "stateMutability": "view",
      "type": "function"
    },
    {
      "constant": false,
      "inputs": [
        {
          "name": "_productId",
          "type": "uint256"
        },
        {
          "name": "_storeName",
          "type": "string"
        }
      ],
      "name": "buyItem",
      "outputs": [
        {
          "name": "index",
          "type": "uint256"
        }
      ],
      "payable": true,
      "stateMutability": "payable",
      "type": "function"
    },
    {
      "constant": true,
      "inputs": [
        {
          "name": "",
          "type": "address"
        }
      ],
      "name": "isStoreOwner",
      "outputs": [
        {
          "name": "",
          "type": "bool"
        }
      ],
      "payable": false,
      "stateMutability": "view",
      "type": "function"
    },
    {
      "constant": false,
      "inputs": [
        {
          "name": "_newOwner",
          "type": "address"
        }
      ],
      "name": "setMaatsOwner",
      "outputs": [],
      "payable": false,
      "stateMutability": "nonpayable",
      "type": "function"
    },
    {
      "constant": true,
      "inputs": [
        {
          "name": "index",
          "type": "uint256"
        },
        {
          "name": "storeName",
          "type": "string"
        }
      ],
      "name": "getStoreAdmins",
      "outputs": [
        {
          "name": "",
          "type": "address"
        }
      ],
      "payable": false,
      "stateMutability": "view",
      "type": "function"
    },
    {
      "constant": false,
      "inputs": [
        {
          "name": "_newAdmin",
          "type": "address"
        }
      ],
      "name": "createMaatsAdmin",
      "outputs": [],
      "payable": false,
      "stateMutability": "nonpayable",
      "type": "function"
    },
    {
      "constant": false,
      "inputs": [
        {
          "name": "_storeName",
          "type": "string"
        }
      ],
      "name": "removeStoreOwner",
      "outputs": [
        {
          "name": "",
          "type": "bool"
        }
      ],
      "payable": false,
      "stateMutability": "nonpayable",
      "type": "function"
    },
    {
      "constant": true,
      "inputs": [
        {
          "name": "_admin",
          "type": "address"
        }
      ],
      "name": "getIsAdmin",
      "outputs": [
        {
          "name": "",
          "type": "bool"
        }
      ],
      "payable": false,
      "stateMutability": "view",
      "type": "function"
    },
    {
      "constant": true,
      "inputs": [],
      "name": "pause",
      "outputs": [
        {
          "name": "",
          "type": "bool"
        }
      ],
      "payable": false,
      "stateMutability": "view",
      "type": "function"
    },
    {
      "constant": false,
      "inputs": [
        {
          "name": "_itemIndex",
          "type": "uint256"
        },
        {
          "name": "_productId",
          "type": "uint256"
        }
      ],
      "name": "shipItem",
      "outputs": [
        {
          "name": "shipped",
          "type": "bool"
        }
      ],
      "payable": false,
      "stateMutability": "nonpayable",
      "type": "function"
    },
    {
      "constant": false,
      "inputs": [
        {
          "name": "_price",
          "type": "uint128"
        },
        {
          "name": "_inventory",
          "type": "uint64"
        }
      ],
      "name": "createSetPriceProduct",
      "outputs": [
        {
          "name": "_productId",
          "type": "uint256"
        }
      ],
      "payable": false,
      "stateMutability": "nonpayable",
      "type": "function"
    },
    {
      "constant": true,
      "inputs": [
        {
          "name": "_purchaser",
          "type": "address"
        }
      ],
      "name": "getPurchase",
      "outputs": [
        {
          "name": "",
          "type": "uint256"
        }
      ],
      "payable": false,
      "stateMutability": "view",
      "type": "function"
    },
    {
      "constant": false,
      "inputs": [
        {
          "name": "_newOwner",
          "type": "address"
        },
        {
          "name": "_storeName",
          "type": "string"
        }
      ],
      "name": "makeStoreOwner",
      "outputs": [],
      "payable": false,
      "stateMutability": "nonpayable",
      "type": "function"
    },
    {
      "constant": false,
      "inputs": [
        {
          "name": "_newPrice",
          "type": "uint128"
        },
        {
          "name": "_productId",
          "type": "uint256"
        }
      ],
      "name": "changePrice",
      "outputs": [
        {
          "name": "",
          "type": "uint128"
        }
      ],
      "payable": false,
      "stateMutability": "nonpayable",
      "type": "function"
    },
    {
      "constant": false,
      "inputs": [
        {
          "name": "_productId",
          "type": "uint256"
        },
        {
          "name": "_newInventory",
          "type": "uint64"
        }
      ],
      "name": "addInventory",
      "outputs": [
        {
          "name": "",
          "type": "uint64"
        }
      ],
      "payable": false,
      "stateMutability": "nonpayable",
      "type": "function"
    },
    {
      "constant": true,
      "inputs": [
        {
          "name": "ownerAddress",
          "type": "address"
        },
        {
          "name": "index",
          "type": "uint256"
        },
        {
          "name": "productId",
          "type": "uint256"
        }
      ],
      "name": "getItemShipped",
      "outputs": [
        {
          "name": "",
          "type": "bool"
        }
      ],
      "payable": false,
      "stateMutability": "view",
      "type": "function"
    },
    {
      "constant": true,
      "inputs": [
        {
          "name": "",
          "type": "address"
        }
      ],
      "name": "createdStore",
      "outputs": [
        {
          "name": "",
          "type": "bool"
        }
      ],
      "payable": false,
      "stateMutability": "view",
      "type": "function"
    },
    {
      "constant": false,
      "inputs": [
        {
          "name": "_NewAdminAddress",
          "type": "address"
        }
      ],
      "name": "createStoreAdmin",
      "outputs": [],
      "payable": false,
      "stateMutability": "nonpayable",
      "type": "function"
    },
    {
      "constant": true,
      "inputs": [
        {
          "name": "ownerAddress",
          "type": "address"
        }
      ],
      "name": "getProductExists",
      "outputs": [
        {
          "name": "",
          "type": "bool"
        }
      ],
      "payable": false,
      "stateMutability": "view",
      "type": "function"
    },
    {
      "constant": true,
      "inputs": [
        {
          "name": "_productId",
          "type": "uint256"
        },
        {
          "name": "_storeName",
          "type": "string"
        }
      ],
      "name": "findFirstItemForSale",
      "outputs": [
        {
          "name": "",
          "type": "uint256"
        }
      ],
      "payable": false,
      "stateMutability": "view",
      "type": "function"
    },
    {
      "constant": false,
      "inputs": [
        {
          "name": "_escrowAddress",
          "type": "address"
        }
      ],
      "name": "setEscrowAddress",
      "outputs": [],
      "payable": false,
      "stateMutability": "nonpayable",
      "type": "function"
    },
    {
      "constant": true,
      "inputs": [],
      "name": "getNumStores",
      "outputs": [
        {
          "name": "",
          "type": "uint256"
        }
      ],
      "payable": false,
      "stateMutability": "view",
      "type": "function"
    },
    {
      "constant": true,
      "inputs": [],
      "name": "escrow",
      "outputs": [
        {
          "name": "",
          "type": "address"
        }
      ],
      "payable": false,
      "stateMutability": "view",
      "type": "function"
    },
    {
      "constant": true,
      "inputs": [],
      "name": "maatsOwner",
      "outputs": [
        {
          "name": "",
          "type": "address"
        }
      ],
      "payable": false,
      "stateMutability": "view",
      "type": "function"
    },
    {
      "constant": true,
      "inputs": [
        {
          "name": "",
          "type": "uint256"
        }
      ],
      "name": "maatsAdmins",
      "outputs": [
        {
          "name": "",
          "type": "address"
        }
      ],
      "payable": false,
      "stateMutability": "view",
      "type": "function"
    },
    {
      "constant": false,
      "inputs": [],
      "name": "_unpause",
      "outputs": [],
      "payable": false,
      "stateMutability": "nonpayable",
      "type": "function"
    },
    {
      "constant": false,
      "inputs": [
        {
          "name": "_adminAddress",
          "type": "address"
        }
      ],
      "name": "removeStoreAdmin",
      "outputs": [],
      "payable": false,
      "stateMutability": "nonpayable",
      "type": "function"
    },
    {
      "constant": true,
      "inputs": [
        {
          "name": "i",
          "type": "uint256"
        }
      ],
      "name": "getStoreName",
      "outputs": [
        {
          "name": "",
          "type": "string"
        }
      ],
      "payable": false,
      "stateMutability": "view",
      "type": "function"
    },
    {
      "anonymous": false,
      "inputs": [
        {
          "indexed": false,
          "name": "number",
          "type": "uint256"
        }
      ],
      "name": "TestLog",
      "type": "event"
    },
    {
      "anonymous": false,
      "inputs": [
        {
          "indexed": false,
          "name": "_auctionId",
          "type": "uint256"
        },
        {
          "indexed": true,
          "name": "_storeName",
          "type": "string"
        }
      ],
      "name": "LogNewAuctionProduct",
      "type": "event"
    },
    {
      "anonymous": false,
      "inputs": [
        {
          "indexed": false,
          "name": "productId",
          "type": "uint256"
        },
        {
          "indexed": false,
          "name": "startingPrice",
          "type": "uint256"
        },
        {
          "indexed": false,
          "name": "endingPrice",
          "type": "uint256"
        },
        {
          "indexed": false,
          "name": "duration",
          "type": "uint256"
        }
      ],
      "name": "AuctionCreated",
      "type": "event"
    },
    {
      "anonymous": false,
      "inputs": [
        {
          "indexed": false,
          "name": "productId",
          "type": "uint256"
        },
        {
          "indexed": false,
          "name": "totalPrice",
          "type": "uint256"
        },
        {
          "indexed": false,
          "name": "winner",
          "type": "address"
        }
      ],
      "name": "AuctionSuccessful",
      "type": "event"
    },
    {
      "anonymous": false,
      "inputs": [
        {
          "indexed": false,
          "name": "productId",
          "type": "uint256"
        }
      ],
      "name": "AuctionCancelled",
      "type": "event"
    },
    {
      "anonymous": false,
      "inputs": [
        {
          "indexed": true,
          "name": "_productId",
          "type": "uint256"
        },
        {
          "indexed": true,
          "name": "_purchaser",
          "type": "address"
        },
        {
          "indexed": false,
          "name": "_storeName",
          "type": "string"
        }
      ],
      "name": "LogItemBought",
      "type": "event"
    },
    {
      "anonymous": false,
      "inputs": [
        {
          "indexed": true,
          "name": "_storeName",
          "type": "string"
        },
        {
          "indexed": true,
          "name": "_productId",
          "type": "uint256"
        },
        {
          "indexed": false,
          "name": "remaining",
          "type": "uint64"
        }
      ],
      "name": "LogInventoryLow",
      "type": "event"
    },
    {
      "anonymous": false,
      "inputs": [
        {
          "indexed": true,
          "name": "_storeName",
          "type": "string"
        },
        {
          "indexed": true,
          "name": "_productId",
          "type": "uint256"
        }
      ],
      "name": "LogInventoryOut",
      "type": "event"
    },
    {
      "anonymous": false,
      "inputs": [
        {
          "indexed": true,
          "name": "_index",
          "type": "uint256"
        },
        {
          "indexed": true,
          "name": "_productId",
          "type": "uint256"
        },
        {
          "indexed": false,
          "name": "_storeName",
          "type": "string"
        }
      ],
      "name": "LogItemShipped",
      "type": "event"
    },
    {
      "anonymous": false,
      "inputs": [
        {
          "indexed": false,
          "name": "_productId",
          "type": "uint256"
        },
        {
          "indexed": true,
          "name": "_storeName",
          "type": "string"
        }
      ],
      "name": "LogNewSetPriceProduct",
      "type": "event"
    },
    {
      "anonymous": false,
      "inputs": [
        {
          "indexed": true,
          "name": "_productId",
          "type": "uint256"
        },
        {
          "indexed": false,
          "name": "inventory",
          "type": "uint64"
        }
      ],
      "name": "LogAddedInventory",
      "type": "event"
    },
    {
      "anonymous": false,
      "inputs": [
        {
          "indexed": true,
          "name": "_ownerAddress",
          "type": "address"
        },
        {
          "indexed": true,
          "name": "_storeName",
          "type": "string"
        }
      ],
      "name": "LogProductRemoved",
      "type": "event"
    },
    {
      "anonymous": false,
      "inputs": [
        {
          "indexed": true,
          "name": "_productId",
          "type": "uint256"
        },
        {
          "indexed": true,
          "name": "_storeName",
          "type": "string"
        },
        {
          "indexed": false,
          "name": "_newPrice",
          "type": "uint128"
        }
      ],
      "name": "LogPriceChange",
      "type": "event"
    },
    {
      "anonymous": false,
      "inputs": [
        {
          "indexed": true,
          "name": "_storeName",
          "type": "string"
        },
        {
          "indexed": false,
          "name": "adminAddress",
          "type": "address"
        }
      ],
      "name": "LogNewAdmin",
      "type": "event"
    },
    {
      "anonymous": false,
      "inputs": [
        {
          "indexed": true,
          "name": "_storeName",
          "type": "string"
        },
        {
          "indexed": false,
          "name": "adminAddress",
          "type": "address"
        }
      ],
      "name": "LogAdminRemoved",
      "type": "event"
    },
    {
      "anonymous": false,
      "inputs": [
        {
          "indexed": true,
          "name": "_ownerAddress",
          "type": "address"
        },
        {
          "indexed": true,
          "name": "_newStoreName",
          "type": "string"
        }
      ],
      "name": "LogNewStore",
      "type": "event"
    },
    {
      "anonymous": false,
      "inputs": [
        {
          "indexed": true,
          "name": "_storeOwnerAddress",
          "type": "address"
        }
      ],
      "name": "LogNewStoreOwner",
      "type": "event"
    },
    {
      "anonymous": false,
      "inputs": [
        {
          "indexed": true,
          "name": "_storeOwner",
          "type": "address"
        }
      ],
      "name": "LogStoreOwnerRemoved",
      "type": "event"
    },
    {
      "anonymous": false,
      "inputs": [
        {
          "indexed": true,
          "name": "_ownerAddress",
          "type": "address"
        },
        {
          "indexed": false,
          "name": "_oldStoreName",
          "type": "string"
        }
      ],
      "name": "LogStoreClosed",
      "type": "event"
    },
    {
      "anonymous": false,
      "inputs": [
        {
          "indexed": true,
          "name": "previousOwner",
          "type": "address"
        },
        {
          "indexed": true,
          "name": "newOwner",
          "type": "address"
        }
      ],
      "name": "LogNewOwner",
      "type": "event"
    },
    {
      "anonymous": false,
      "inputs": [
        {
          "indexed": true,
          "name": "newAdmin",
          "type": "address"
        }
      ],
      "name": "LogNewAdmin",
      "type": "event"
    },
    {
      "anonymous": false,
      "inputs": [
        {
          "indexed": true,
          "name": "revokedAdmin",
          "type": "address"
        }
      ],
      "name": "LogAdminRevoked",
      "type": "event"
    },
    {
      "anonymous": false,
      "inputs": [],
      "name": "Pause",
      "type": "event"
    },
    {
      "anonymous": false,
      "inputs": [],
      "name": "Unpause",
      "type": "event"
    },
    {
      "constant": true,
      "inputs": [
        {
          "name": "auctionId",
          "type": "uint256"
        }
      ],
      "name": "getAuctionExists",
      "outputs": [
        {
          "name": "",
          "type": "bool"
        }
      ],
      "payable": false,
      "stateMutability": "view",
      "type": "function"
    },
    {
      "constant": true,
      "inputs": [
        {
          "name": "ownerofproduct",
          "type": "address"
        },
        {
          "name": "productId",
          "type": "uint256"
        },
        {
          "name": "itemId",
          "type": "uint256"
        }
      ],
      "name": "didBid",
      "outputs": [
        {
          "name": "",
          "type": "bool"
        }
      ],
      "payable": false,
      "stateMutability": "view",
      "type": "function"
    },
    {
      "constant": false,
      "inputs": [
        {
          "name": "_auctionId",
          "type": "uint256"
        },
        {
          "name": "_productId",
          "type": "uint256"
        }
      ],
      "name": "_bid",
      "outputs": [
        {
          "name": "",
          "type": "uint256"
        }
      ],
      "payable": true,
      "stateMutability": "payable",
      "type": "function"
    },
    {
      "constant": false,
      "inputs": [
        {
          "name": "_startingPrice",
          "type": "uint256"
        },
        {
          "name": "_endingPrice",
          "type": "uint256"
        },
        {
          "name": "_duration",
          "type": "uint64"
        }
      ],
      "name": "createAuctionProduct",
      "outputs": [
        {
          "name": "auctionId",
          "type": "uint256"
        }
      ],
      "payable": false,
      "stateMutability": "nonpayable",
      "type": "function"
    },
    {
      "constant": true,
      "inputs": [
        {
          "name": "_startingPrice",
          "type": "uint256"
        },
        {
          "name": "_endingPrice",
          "type": "uint256"
        },
        {
          "name": "_duration",
          "type": "uint256"
        },
        {
          "name": "_secondsPassed",
          "type": "uint256"
        }
      ],
      "name": "_computeCurrentPrice",
      "outputs": [
        {
          "name": "",
          "type": "uint256"
        }
      ],
      "payable": false,
      "stateMutability": "pure",
      "type": "function"
    },
    {
      "constant": true,
      "inputs": [
        {
          "name": "_productId",
          "type": "uint256"
        }
      ],
      "name": "getAuction",
      "outputs": [
        {
          "name": "seller",
          "type": "address"
        },
        {
          "name": "startingPrice",
          "type": "uint256"
        },
        {
          "name": "endingPrice",
          "type": "uint256"
        },
        {
          "name": "duration",
          "type": "uint256"
        },
        {
          "name": "startedAt",
          "type": "uint256"
        }
      ],
      "payable": false,
      "stateMutability": "view",
      "type": "function"
    },
    {
      "constant": true,
      "inputs": [
        {
          "name": "storeOwnerAddress",
          "type": "address"
        }
      ],
      "name": "getCurrentPrice",
      "outputs": [
        {
          "name": "",
          "type": "uint128"
        }
      ],
      "payable": false,
      "stateMutability": "view",
      "type": "function"
    },
    {
      "constant": true,
      "inputs": [
        {
          "name": "_productId",
          "type": "uint256"
        }
      ],
      "name": "getCurrentPrice",
      "outputs": [
        {
          "name": "",
          "type": "uint256"
        }
      ],
      "payable": false,
      "stateMutability": "view",
      "type": "function"
    }
  ],
  "bytecode": "0x60806040526000601355336000806101000a81548173ffffffffffffffffffffffffffffffffffffffff021916908373ffffffffffffffffffffffffffffffffffffffff160217905550615c96806100586000396000f30060806040526004361061022f576000357c0100000000000000000000000000000000000000000000000000000000900463ffffffff168062265dc514610234578063050cfdd11461028f5780631ab63af81461030c57806321c636fe146103cf57806328ec015c1461043a5780632fa8cfac146104e357806331df27ce14610564578063320b2ad9146105bb5780633ccfd60b146105d257806340f42c1c146105e957806342c3ab251461062c5780634e71b35c146106b75780635effd33c146107315780635f7d53a11461078c5780636f9a8176146107cf57806373ada8061461083e57806378678a32146108f157806378bd7935146109345780637c3d30fd146109bd578063803360b6146109fb578063822b0ceb14610a7c5780638456cb5914610ad757806384cc315b14610b06578063982a359614610b815780639a5aec9b14610bc6578063a14f258414610c15578063a275999c14610c7c578063a6bb52e214610cd3578063a880ba9514610d5c578063b3eae8c514610ddd578063b89069c214610e46578063bd9cf58e14610eb5578063bdc39f4814610f10578063c55d0f5614610f53578063cb92bfa114610f94578063cca0400114610ff3578063cff4af1314611052578063d5755e87146110ad578063ddeb63b514611134578063e20df13814611177578063e2fdcc17146111a2578063e698f0bb146111f9578063f0e06e4a14611250578063fc8234cb146112bd578063fde57f3b146112d4578063fed4894914611317575b600080fd5b34801561024057600080fd5b50610275600480360381019080803573ffffffffffffffffffffffffffffffffffffffff1690602001909291905050506113bd565b604051808215151515815260200191505060405180910390f35b34801561029b57600080fd5b506102f6600480360381019080803590602001908201803590602001908080601f0160208091040260200160405190810160405280939291908181526020018383808284378201915050505050509192919290505050611413565b6040518082815260200191505060405180910390f35b34801561031857600080fd5b5061034d600480360381019080803573ffffffffffffffffffffffffffffffffffffffff169060200190929190505050611579565b6040518080602001838152602001828103825284818151815260200191508051906020019080838360005b83811015610393578082015181840152602081019050610378565b50505050905090810190601f1680156103c05780820380516001836020036101000a031916815260200191505b50935050505060405180910390f35b3480156103db57600080fd5b50610410600480360381019080803573ffffffffffffffffffffffffffffffffffffffff169060200190929190505050611635565b604051808267ffffffffffffffff1667ffffffffffffffff16815260200191505060405180910390f35b34801561044657600080fd5b506104a1600480360381019080803590602001908201803590602001908080601f01602080910402602001604051908101604052809392919081815260200183838082843782019150505050505091929192905050506116ae565b604051808273ffffffffffffffffffffffffffffffffffffffff1673ffffffffffffffffffffffffffffffffffffffff16815260200191505060405180910390f35b3480156104ef57600080fd5b5061054a600480360381019080803590602001908201803590602001908080601f0160208091040260200160405190810160405280939291908181526020018383808284378201915050505050509192919290505050611748565b604051808215151515815260200191505060405180910390f35b34801561057057600080fd5b506105a5600480360381019080803573ffffffffffffffffffffffffffffffffffffffff1690602001909291905050506117ca565b6040518082815260200191505060405180910390f35b3480156105c757600080fd5b506105d06117e2565b005b3480156105de57600080fd5b506105e76118a8565b005b3480156105f557600080fd5b5061062a600480360381019080803573ffffffffffffffffffffffffffffffffffffffff169060200190929190505050611984565b005b34801561063857600080fd5b5061069d60048036038101908080359060200190929190803590602001908201803590602001908080601f0160208091040260200160405190810160405280939291908181526020018383808284378201915050505050509192919290505050611b9d565b604051808215151515815260200191505060405180910390f35b61071b60048036038101908080359060200190929190803590602001908201803590602001908080601f0160208091040260200160405190810160405280939291908181526020018383808284378201915050505050509192919290505050611d2a565b6040518082815260200191505060405180910390f35b34801561073d57600080fd5b50610772600480360381019080803573ffffffffffffffffffffffffffffffffffffffff169060200190929190505050611fc4565b604051808215151515815260200191505060405180910390f35b34801561079857600080fd5b506107cd600480360381019080803573ffffffffffffffffffffffffffffffffffffffff169060200190929190505050611fe4565b005b3480156107db57600080fd5b50610824600480360381019080803573ffffffffffffffffffffffffffffffffffffffff1690602001909291908035906020019092919080359060200190929190505050612161565b604051808215151515815260200191505060405180910390f35b34801561084a57600080fd5b506108af60048036038101908080359060200190929190803590602001908201803590602001908080601f016020809104026020016040519081016040528093929190818152602001838380828437820191505050505050919291929050505061221e565b604051808273ffffffffffffffffffffffffffffffffffffffff1673ffffffffffffffffffffffffffffffffffffffff16815260200191505060405180910390f35b3480156108fd57600080fd5b50610932600480360381019080803573ffffffffffffffffffffffffffffffffffffffff169060200190929190505050612360565b005b34801561094057600080fd5b5061095f60048036038101908080359060200190929190505050612629565b604051808673ffffffffffffffffffffffffffffffffffffffff1673ffffffffffffffffffffffffffffffffffffffff1681526020018581526020018481526020018381526020018281526020019550505050505060405180910390f35b6109e5600480360381019080803590602001909291908035906020019092919050505061274c565b6040518082815260200191505060405180910390f35b348015610a0757600080fd5b50610a62600480360381019080803590602001908201803590602001908080601f01602080910402602001604051908101604052809392919081815260200183838082843782019150505050505091929192905050506129e7565b604051808215151515815260200191505060405180910390f35b348015610a8857600080fd5b50610abd600480360381019080803573ffffffffffffffffffffffffffffffffffffffff169060200190929190505050612e9e565b604051808215151515815260200191505060405180910390f35b348015610ae357600080fd5b50610aec612f15565b604051808215151515815260200191505060405180910390f35b348015610b1257600080fd5b50610b47600480360381019080803573ffffffffffffffffffffffffffffffffffffffff169060200190929190505050612f28565b60405180826fffffffffffffffffffffffffffffffff166fffffffffffffffffffffffffffffffff16815260200191505060405180910390f35b348015610b8d57600080fd5b50610bac60048036038101908080359060200190929190505050612fa9565b604051808215151515815260200191505060405180910390f35b348015610bd257600080fd5b50610bfb6004803603810190808035906020019092919080359060200190929190505050612ffd565b604051808215151515815260200191505060405180910390f35b348015610c2157600080fd5b50610c6660048036038101908080356fffffffffffffffffffffffffffffffff169060200190929190803567ffffffffffffffff169060200190929190505050613360565b6040518082815260200191505060405180910390f35b348015610c8857600080fd5b50610cbd600480360381019080803573ffffffffffffffffffffffffffffffffffffffff1690602001909291905050506136b5565b6040518082815260200191505060405180910390f35b348015610cdf57600080fd5b50610d5a600480360381019080803573ffffffffffffffffffffffffffffffffffffffff169060200190929190803590602001908201803590602001908080601f01602080910402602001604051908101604052809392919081815260200183838082843782019150505050505091929192905050506136fe565b005b348015610d6857600080fd5b50610da360048036038101908080356fffffffffffffffffffffffffffffffff169060200190929190803590602001909291905050506138df565b60405180826fffffffffffffffffffffffffffffffff166fffffffffffffffffffffffffffffffff16815260200191505060405180910390f35b348015610de957600080fd5b50610e1c60048036038101908080359060200190929190803567ffffffffffffffff169060200190929190505050613ac9565b604051808267ffffffffffffffff1667ffffffffffffffff16815260200191505060405180910390f35b348015610e5257600080fd5b50610e9b600480360381019080803573ffffffffffffffffffffffffffffffffffffffff1690602001909291908035906020019092919080359060200190929190505050613dcd565b604051808215151515815260200191505060405180910390f35b348015610ec157600080fd5b50610ef6600480360381019080803573ffffffffffffffffffffffffffffffffffffffff169060200190929190505050613e89565b604051808215151515815260200191505060405180910390f35b348015610f1c57600080fd5b50610f51600480360381019080803573ffffffffffffffffffffffffffffffffffffffff169060200190929190505050613ea9565b005b348015610f5f57600080fd5b50610f7e60048036038101908080359060200190929190505050614126565b6040518082815260200191505060405180910390f35b348015610fa057600080fd5b50610fdd60048036038101908080359060200190929190803590602001909291908035906020019092919080359060200190929190505050614163565b6040518082815260200191505060405180910390f35b348015610fff57600080fd5b5061103c6004803603810190808035906020019092919080359060200190929190803567ffffffffffffffff1690602001909291905050506141a3565b6040518082815260200191505060405180910390f35b34801561105e57600080fd5b50611093600480360381019080803573ffffffffffffffffffffffffffffffffffffffff16906020019092919050505061456d565b604051808215151515815260200191505060405180910390f35b3480156110b957600080fd5b5061111e60048036038101908080359060200190929190803590602001908201803590602001908080601f01602080910402602001604051908101604052809392919081815260200183838082843782019150505050505091929192905050506145e1565b6040518082815260200191505060405180910390f35b34801561114057600080fd5b50611175600480360381019080803573ffffffffffffffffffffffffffffffffffffffff169060200190929190505050614787565b005b34801561118357600080fd5b5061118c61482c565b6040518082815260200191505060405180910390f35b3480156111ae57600080fd5b506111b7614839565b604051808273ffffffffffffffffffffffffffffffffffffffff1673ffffffffffffffffffffffffffffffffffffffff16815260200191505060405180910390f35b34801561120557600080fd5b5061120e61485f565b604051808273ffffffffffffffffffffffffffffffffffffffff1673ffffffffffffffffffffffffffffffffffffffff16815260200191505060405180910390f35b34801561125c57600080fd5b5061127b60048036038101908080359060200190929190505050614884565b604051808273ffffffffffffffffffffffffffffffffffffffff1673ffffffffffffffffffffffffffffffffffffffff16815260200191505060405180910390f35b3480156112c957600080fd5b506112d26148b9565b005b3480156112e057600080fd5b50611315600480360381019080803573ffffffffffffffffffffffffffffffffffffffff16906020019092919050505061497f565b005b34801561132357600080fd5b5061134260048036038101908080359060200190929190505050614c12565b6040518080602001828103825283818151815260200191508051906020019080838360005b83811015611382578082015181840152602081019050611367565b50505050905090810190601f1680156113af5780820380516001836020036101000a031916815260200191505b509250505060405180910390f35b6000600f60008373ffffffffffffffffffffffffffffffffffffffff1673ffffffffffffffffffffffffffffffffffffffff16815260200190815260200160002060009054906101000a900460ff169050919050565b6000806000600d846040518082805190602001908083835b602083101515611450578051825260208201915060208101905060208303925061142b565b6001836020036101000a038019825116818451168082178552505050505050905001915050908152602001604051809103902060009054906101000a900460ff16151561149c57600080fd5b600a846040518082805190602001908083835b6020831015156114d457805182526020820191506020810190506020830392506114af565b6001836020036101000a038019825116818451168082178552505050505050905001915050908152602001604051809103902060009054906101000a900473ffffffffffffffffffffffffffffffffffffffff169150600960008373ffffffffffffffffffffffffffffffffffffffff1673ffffffffffffffffffffffffffffffffffffffff1681526020019081526020016000209050806008015492505050919050565b6009602052806000526040600020600091509050806000018054600181600116156101000203166002900480601f0160208091040260200160405190810160405280929190818152602001828054600181600116156101000203166002900480156116255780601f106115fa57610100808354040283529160200191611625565b820191906000526020600020905b81548152906001019060200180831161160857829003601f168201915b5050505050908060080154905082565b600080600e60008473ffffffffffffffffffffffffffffffffffffffff1673ffffffffffffffffffffffffffffffffffffffff168152602001908152602001600020905080600101600080815260200190815260200160002060020160009054906101000a900467ffffffffffffffff16915050919050565b600080600a836040518082805190602001908083835b6020831015156116e957805182526020820191506020810190506020830392506116c4565b6001836020036101000a038019825116818451168082178552505050505050905001915050908152602001604051809103902060009054906101000a900473ffffffffffffffffffffffffffffffffffffffff16905080915050919050565b6000600d826040518082805190602001908083835b602083101515611782578051825260208201915060208101905060208303925061175d565b6001836020036101000a038019825116818451168082178552505050505050905001915050908152602001604051809103902060009054906101000a900460ff169050919050565b60126020528060005260406000206000915090505481565b6000809054906101000a900473ffffffffffffffffffffffffffffffffffffffff1673ffffffffffffffffffffffffffffffffffffffff163373ffffffffffffffffffffffffffffffffffffffff1614151561183d57600080fd5b60001515600760009054906101000a900460ff16151514151561185f57600080fd5b6001600760006101000a81548160ff0219169083151502179055507f6985a02210a168e66602d3235cb6db0e70f92b3ba4d376a33c0f3d9434bff62560405160405180910390a1565b6000809054906101000a900473ffffffffffffffffffffffffffffffffffffffff1673ffffffffffffffffffffffffffffffffffffffff163373ffffffffffffffffffffffffffffffffffffffff1614151561190357600080fd5b6000809054906101000a900473ffffffffffffffffffffffffffffffffffffffff1673ffffffffffffffffffffffffffffffffffffffff166108fc3073ffffffffffffffffffffffffffffffffffffffff16319081150290604051600060405180830381858888f19350505050158015611981573d6000803e3d6000fd5b50565b6000806000809054906101000a900473ffffffffffffffffffffffffffffffffffffffff1673ffffffffffffffffffffffffffffffffffffffff163373ffffffffffffffffffffffffffffffffffffffff161415156119e257600080fd5b60001515600760009054906101000a900460ff161515141515611a0457600080fd5b60009150600090505b60048111158015611a22575060001515821515145b15611b88578273ffffffffffffffffffffffffffffffffffffffff16600182600581101515611a4d57fe5b0160009054906101000a900473ffffffffffffffffffffffffffffffffffffffff1673ffffffffffffffffffffffffffffffffffffffff161415611b7b576000600182600581101515611a9c57fe5b0160006101000a81548173ffffffffffffffffffffffffffffffffffffffff021916908373ffffffffffffffffffffffffffffffffffffffff1602179055506000600660008573ffffffffffffffffffffffffffffffffffffffff1673ffffffffffffffffffffffffffffffffffffffff16815260200190815260200160002060006101000a81548160ff021916908315150217905550600191508273ffffffffffffffffffffffffffffffffffffffff167fdca59b6371f7db6faad5c9931588f735722795c7b8ea859824e0afc8b2c70a4f60405160405180910390a25b8080600101915050611a0d565b60011515821515141515611b9857fe5b505050565b600080600080600d856040518082805190602001908083835b602083101515611bdb5780518252602082019150602081019050602083039250611bb6565b6001836020036101000a038019825116818451168082178552505050505050905001915050908152602001604051809103902060009054906101000a900460ff161515611c2757600080fd5b600a856040518082805190602001908083835b602083101515611c5f5780518252602082019150602081019050602083039250611c3a565b6001836020036101000a038019825116818451168082178552505050505050905001915050908152602001604051809103902060009054906101000a900473ffffffffffffffffffffffffffffffffffffffff169250600960008473ffffffffffffffffffffffffffffffffffffffff1673ffffffffffffffffffffffffffffffffffffffff168152602001908152602001600020915081600101600087815260200190815260200160002090508060020160089054906101000a900460ff16935050505092915050565b6000806000806000801515600760009054906101000a900460ff161515141515611d5357600080fd5b600a866040518082805190602001908083835b602083101515611d8b5780518252602082019150602081019050602083039250611d66565b6001836020036101000a038019825116818451168082178552505050505050905001915050908152602001604051809103902060009054906101000a900473ffffffffffffffffffffffffffffffffffffffff169350600e60008573ffffffffffffffffffffffffffffffffffffffff1673ffffffffffffffffffffffffffffffffffffffff1681526020019081526020016000209250611e2c87876145e1565b945034915082600101600088815260200190815260200160002060000160009054906101000a90046fffffffffffffffffffffffffffffffff166fffffffffffffffffffffffffffffffff168210151515611e8657600080fd5b611e908483614d2c565b600283600101600089815260200190815260200160002060010186815481101515611eb757fe5b90600052602060002090602091828204019190066101000a81548160ff02191690836003811115611ee457fe5b021790555084601260003373ffffffffffffffffffffffffffffffffffffffff1673ffffffffffffffffffffffffffffffffffffffff16815260200190815260200160002081905550826001016000888152602001908152602001600020600201600081819054906101000a900467ffffffffffffffff16809291906001900391906101000a81548167ffffffffffffffff021916908367ffffffffffffffff1602179055505082600101600088815260200190815260200160002060020160009054906101000a900467ffffffffffffffff1690505050505092915050565b600b6020528060005260406000206000915054906101000a900460ff1681565b60008060009054906101000a900473ffffffffffffffffffffffffffffffffffffffff1673ffffffffffffffffffffffffffffffffffffffff163373ffffffffffffffffffffffffffffffffffffffff1614151561204157600080fd5b60001515600760009054906101000a900460ff16151514151561206357600080fd5b600073ffffffffffffffffffffffffffffffffffffffff168273ffffffffffffffffffffffffffffffffffffffff161415151561209f57600080fd5b6000809054906101000a900473ffffffffffffffffffffffffffffffffffffffff169050816000806101000a81548173ffffffffffffffffffffffffffffffffffffffff021916908373ffffffffffffffffffffffffffffffffffffffff1602179055508073ffffffffffffffffffffffffffffffffffffffff168273ffffffffffffffffffffffffffffffffffffffff167f1f8d7d25344642d919d55999e4664aa452a5f424bc0936ceb9c2b300db7dcbd960405160405180910390a35050565b600080600e60008673ffffffffffffffffffffffffffffffffffffffff1673ffffffffffffffffffffffffffffffffffffffff1681526020019081526020016000209050600260038111156121b257fe5b816001016000868152602001908152602001600020600101848154811015156121d757fe5b90600052602060002090602091828204019190069054906101000a900460ff16600381111561220257fe5b14156122115760019150612216565b600091505b509392505050565b600080600060018510158015612235575060058511155b151561224057600080fd5b600a846040518082805190602001908083835b6020831015156122785780518252602082019150602081019050602083039250612253565b6001836020036101000a038019825116818451168082178552505050505050905001915050908152602001604051809103902060009054906101000a900473ffffffffffffffffffffffffffffffffffffffff169150600960008373ffffffffffffffffffffffffffffffffffffffff1673ffffffffffffffffffffffffffffffffffffffff168152602001908152602001600020905060006006111561235357806002018560068110151561232a57fe5b0160009054906101000a900473ffffffffffffffffffffffffffffffffffffffff169250612358565b600092505b505092915050565b60008060008060009054906101000a900473ffffffffffffffffffffffffffffffffffffffff1673ffffffffffffffffffffffffffffffffffffffff163373ffffffffffffffffffffffffffffffffffffffff161415156123c057600080fd5b60001515600760009054906101000a900460ff1615151415156123e257600080fd5b600073ffffffffffffffffffffffffffffffffffffffff168473ffffffffffffffffffffffffffffffffffffffff161415151561241e57600080fd5b5b6004831115156124a9578373ffffffffffffffffffffffffffffffffffffffff1660018460058110151561244f57fe5b0160009054906101000a900473ffffffffffffffffffffffffffffffffffffffff1673ffffffffffffffffffffffffffffffffffffffff16141561249e576002600114151561249d57600080fd5b5b82600101925061241f565b600091505b600481111580156124c3575060001515821515145b156126135760006001826005811015156124d957fe5b0160009054906101000a900473ffffffffffffffffffffffffffffffffffffffff1673ffffffffffffffffffffffffffffffffffffffff161415612606578360018260058110151561252757fe5b0160006101000a81548173ffffffffffffffffffffffffffffffffffffffff021916908373ffffffffffffffffffffffffffffffffffffffff1602179055506001600660008673ffffffffffffffffffffffffffffffffffffffff1673ffffffffffffffffffffffffffffffffffffffff16815260200190815260200160002060006101000a81548160ff021916908315150217905550600191508373ffffffffffffffffffffffffffffffffffffffff167f39e7d4b9ba48f55a740a5192809dbc498fa12724c030b37dab126a3f6774c0f360405160405180910390a25b80806001019150506124ae565b6001151582151514151561262357fe5b50505050565b60008060008060008060146000888152602001908152602001600020905061265081614e2c565b151561265b57600080fd5b8060000160009054906101000a900473ffffffffffffffffffffffffffffffffffffffff168160010160009054906101000a90046fffffffffffffffffffffffffffffffff168260010160109054906101000a90046fffffffffffffffffffffffffffffffff168360020160009054906101000a900467ffffffffffffffff168460020160089054906101000a900467ffffffffffffffff16836fffffffffffffffffffffffffffffffff169350826fffffffffffffffffffffffffffffffff1692508167ffffffffffffffff1691508067ffffffffffffffff169050955095509550955095505091939590929450565b60008060008060008060001515600760009054906101000a900460ff16151514151561277757600080fd5b60146000898152602001908152602001600020945061279585614e2c565b15156127a057600080fd5b3493506127ac85614e5a565b92508284101515156127bd57600080fd5b8460000160009054906101000a900473ffffffffffffffffffffffffffffffffffffffff1691506127ed88614f4d565b6127f78285614d2c565b600e60008373ffffffffffffffffffffffffffffffffffffffff1673ffffffffffffffffffffffffffffffffffffffff16815260200190815260200160002090506002816001016000898152602001908152602001600020600101600081548110151561286057fe5b90600052602060002090602091828204019190066101000a81548160ff0219169083600381111561288d57fe5b02179055503373ffffffffffffffffffffffffffffffffffffffff16877f21b69e57dafb192d2fc9ec6fabee5106b55506c43564934190281e68e3fd43a88360000160405180806020018281038252838181546001816001161561010002031660029004815260200191508054600181600116156101000203166002900480156129585780601f1061292d57610100808354040283529160200191612958565b820191906000526020600020905b81548152906001019060200180831161293b57829003601f168201915b50509250505060405180910390a37f4fcc30d90a842164dd58501ab874a101a3749c3d4747139cefe7c876f4ccebd2878433604051808481526020018381526020018273ffffffffffffffffffffffffffffffffffffffff1673ffffffffffffffffffffffffffffffffffffffff168152602001935050505060405180910390a1829550505050505092915050565b6000806000809054906101000a900473ffffffffffffffffffffffffffffffffffffffff1673ffffffffffffffffffffffffffffffffffffffff163373ffffffffffffffffffffffffffffffffffffffff161480612a95575060011515600660003373ffffffffffffffffffffffffffffffffffffffff1673ffffffffffffffffffffffffffffffffffffffff16815260200190815260200160002060009054906101000a900460ff161515145b1515612aa057600080fd5b600a836040518082805190602001908083835b602083101515612ad85780518252602082019150602081019050602083039250612ab3565b6001836020036101000a038019825116818451168082178552505050505050905001915050908152602001604051809103902060009054906101000a900473ffffffffffffffffffffffffffffffffffffffff16905060011515600b60008373ffffffffffffffffffffffffffffffffffffffff1673ffffffffffffffffffffffffffffffffffffffff16815260200190815260200160002060009054906101000a900460ff161515141515612b8d57600080fd5b6000600d846040518082805190602001908083835b602083101515612bc75780518252602082019150602081019050602083039250612ba2565b6001836020036101000a038019825116818451168082178552505050505050905001915050908152602001604051809103902060006101000a81548160ff0219169083151502179055506040805190810160405280600181526020017f3000000000000000000000000000000000000000000000000000000000000000815250600960008373ffffffffffffffffffffffffffffffffffffffff1673ffffffffffffffffffffffffffffffffffffffff1681526020019081526020016000206000019080519060200190612c9c929190615872565b508073ffffffffffffffffffffffffffffffffffffffff167f70e9219a99e9bfc211e7aa1236b656ca826ba23e3e9e5cbdc2f16e0c7eb8fad9600960008473ffffffffffffffffffffffffffffffffffffffff1673ffffffffffffffffffffffffffffffffffffffff1681526020019081526020016000206000016040518080602001828103825283818154600181600116156101000203166002900481526020019150805460018160011615610100020316600290048015612da05780601f10612d7557610100808354040283529160200191612da0565b820191906000526020600020905b815481529060010190602001808311612d8357829003601f168201915b50509250505060405180910390a26000600b60008373ffffffffffffffffffffffffffffffffffffffff1673ffffffffffffffffffffffffffffffffffffffff16815260200190815260200160002060006101000a81548160ff0219169083151502179055508073ffffffffffffffffffffffffffffffffffffffff167fe6547a945aa917d8f8b8a71a98062b03570c5ab79d6f47aa64dab5ae6483e0c860405160405180910390a2600b60008273ffffffffffffffffffffffffffffffffffffffff1673ffffffffffffffffffffffffffffffffffffffff16815260200190815260200160002060009054906101000a900460ff16915050919050565b6000801515600760009054906101000a900460ff161515141515612ec157600080fd5b600660008373ffffffffffffffffffffffffffffffffffffffff1673ffffffffffffffffffffffffffffffffffffffff16815260200190815260200160002060009054906101000a900460ff169050919050565b600760009054906101000a900460ff1681565b600080600e60008473ffffffffffffffffffffffffffffffffffffffff1673ffffffffffffffffffffffffffffffffffffffff168152602001908152602001600020905080600101600080815260200190815260200160002060000160009054906101000a90046fffffffffffffffffffffffffffffffff16915050919050565b6000806014600084815260200190815260200160002060020160089054906101000a900467ffffffffffffffff1667ffffffffffffffff169050600081141515612ff65760019150612ff7565b5b50919050565b60008060001515600760009054906101000a900460ff16151514151561302257600080fd5b6000600e60003373ffffffffffffffffffffffffffffffffffffffff1673ffffffffffffffffffffffffffffffffffffffff1681526020019081526020016000209050600d8160000160405180828054600181600116156101000203166002900480156130c65780601f106130a45761010080835404028352918201916130c6565b820191906000526020600020905b8154815290600101906020018083116130b2575b5050915050908152602001604051809103902060009054906101000a900460ff1615156130f257600080fd5b600e60003373ffffffffffffffffffffffffffffffffffffffff1673ffffffffffffffffffffffffffffffffffffffff16815260200190815260200160002091506002600381111561314057fe5b8260010160008681526020019081526020016000206001018681548110151561316557fe5b90600052602060002090602091828204019190069054906101000a900460ff16600381111561319057fe5b14151561319c57600080fd5b600092506003826001016000868152602001908152602001600020600101868154811015156131c757fe5b90600052602060002090602091828204019190066101000a81548160ff021916908360038111156131f457fe5b02179055506001925083857f8c27a03ba49022d57890c2993ba9a892600fe4449c319742d4cfc8afe51b541d8460000160405180806020018281038252838181546001816001161561010002031660029004815260200191508054600181600116156101000203166002900480156132ad5780601f10613282576101008083540402835291602001916132ad565b820191906000526020600020905b81548152906001019060200180831161329057829003601f168201915b50509250505060405180910390a3613358600a83600001604051808280546001816001161561010002031660029004801561331f5780601f106132fd57610100808354040283529182019161331f565b820191906000526020600020905b81548152906001019060200180831161330b575b5050915050908152602001604051809103902060009054906101000a900473ffffffffffffffffffffffffffffffffffffffff16615009565b505092915050565b60008061336b6158f2565b6000801515600760009054906101000a900460ff16151514151561338e57600080fd5b6000600e60003373ffffffffffffffffffffffffffffffffffffffff1673ffffffffffffffffffffffffffffffffffffffff1681526020019081526020016000209050600d8160000160405180828054600181600116156101000203166002900480156134325780601f10613410576101008083540402835291820191613432565b820191906000526020600020905b81548152906001019060200180831161341e575b5050915050908152602001604051809103902060009054906101000a900460ff16151561345e57600080fd5b600e60003373ffffffffffffffffffffffffffffffffffffffff1673ffffffffffffffffffffffffffffffffffffffff1681526020019081526020016000209350608060405190810160405280886fffffffffffffffffffffffffffffffff16815260200160006040519080825280602002602001820160405280156134f35781602001602082028038833980820191505090505b5081526020018767ffffffffffffffff168152602001600015158152509250836008015494508284600101600087815260200190815260200160002060008201518160000160006101000a8154816fffffffffffffffffffffffffffffffff02191690836fffffffffffffffffffffffffffffffff160217905550602082015181600101908051906020019061358a929190615939565b5060408201518160020160006101000a81548167ffffffffffffffff021916908367ffffffffffffffff16021790555060608201518160020160086101000a81548160ff0219169083151502179055509050506001601060008660080154815260200190815260200160002060006101000a81548160ff02191690831515021790555083600801600081548092919060010191905055505b8567ffffffffffffffff168210156136a8578360010160008681526020019081526020016000206001016000908060018154018082558091505090600182039060005260206000209060209182820401919006909192909190916101000a81548160ff0219169083600381111561369557fe5b0217905550508180600101925050613622565b8494505050505092915050565b6000601260008373ffffffffffffffffffffffffffffffffffffffff1673ffffffffffffffffffffffffffffffffffffffff168152602001908152602001600020549050919050565b6000809054906101000a900473ffffffffffffffffffffffffffffffffffffffff1673ffffffffffffffffffffffffffffffffffffffff163373ffffffffffffffffffffffffffffffffffffffff1614806137a9575060011515600660003373ffffffffffffffffffffffffffffffffffffffff1673ffffffffffffffffffffffffffffffffffffffff16815260200190815260200160002060009054906101000a900460ff161515145b15156137b457600080fd5b60001515600760009054906101000a900460ff1615151415156137d657600080fd5b60001515600b60008473ffffffffffffffffffffffffffffffffffffffff1673ffffffffffffffffffffffffffffffffffffffff16815260200190815260200160002060009054906101000a900460ff16151514151561383557600080fd5b6001600b60008473ffffffffffffffffffffffffffffffffffffffff1673ffffffffffffffffffffffffffffffffffffffff16815260200190815260200160002060006101000a81548160ff02191690831515021790555061389782826150e1565b508173ffffffffffffffffffffffffffffffffffffffff167f64a6cb4c2615e9c9ee211131f9fc94aaa6238a3c255423b75ba43ef01ca42dcd60405160405180910390a25050565b6000806000600960003373ffffffffffffffffffffffffffffffffffffffff1673ffffffffffffffffffffffffffffffffffffffff1681526020019081526020016000209050600d8160000160405180828054600181600116156101000203166002900480156139865780601f10613964576101008083540402835291820191613986565b820191906000526020600020905b815481529060010190602001808311613972575b5050915050908152602001604051809103902060009054906101000a900460ff1615156139b257600080fd5b60001515600760009054906101000a900460ff1615151415156139d457600080fd5b600e60003373ffffffffffffffffffffffffffffffffffffffff1673ffffffffffffffffffffffffffffffffffffffff16815260200190815260200160002091506000856fffffffffffffffffffffffffffffffff1610151515613a3757600080fd5b6000151582600101600086815260200190815260200160002060020160089054906101000a900460ff161515141515613a6f57600080fd5b8482600101600086815260200190815260200160002060000160006101000a8154816fffffffffffffffffffffffffffffffff02191690836fffffffffffffffffffffffffffffffff160217905550849250505092915050565b6000806000806000600e60003373ffffffffffffffffffffffffffffffffffffffff1673ffffffffffffffffffffffffffffffffffffffff1681526020019081526020016000209050600d816000016040518082805460018160011615610100020316600290048015613b735780601f10613b51576101008083540402835291820191613b73565b820191906000526020600020905b815481529060010190602001808311613b5f575b5050915050908152602001604051809103902060009054906101000a900460ff161515613b9f57600080fd5b60001515600760009054906101000a900460ff161515141515613bc157600080fd5b600e60003373ffffffffffffffffffffffffffffffffffffffff1673ffffffffffffffffffffffffffffffffffffffff16815260200190815260200160002093508584600101600089815260200190815260200160002060020160008282829054906101000a900467ffffffffffffffff160192506101000a81548167ffffffffffffffff021916908367ffffffffffffffff16021790555083600101600088815260200190815260200160002060020160089054906101000a900460ff16925060001515831515141515613c9557600080fd5b5b8567ffffffffffffffff16821015613d1c578360010160008881526020019081526020016000206001016000908060018154018082558091505090600182039060005260206000209060209182820401919006909192909190916101000a81548160ff02191690836003811115613d0957fe5b0217905550508180600101925050613c96565b867fdb3cb3bd3aa8b0116684a1673c77eb69da47689f478ec18c9b1b42042bff3ebc8560010160008a815260200190815260200160002060020160009054906101000a900467ffffffffffffffff16604051808267ffffffffffffffff1667ffffffffffffffff16815260200191505060405180910390a283600101600088815260200190815260200160002060020160009054906101000a900467ffffffffffffffff1694505050505092915050565b600080600e60008673ffffffffffffffffffffffffffffffffffffffff1673ffffffffffffffffffffffffffffffffffffffff1681526020019081526020016000209050600380811115613e1d57fe5b81600101600085815260200190815260200160002060010185815481101515613e4257fe5b90600052602060002090602091828204019190069054906101000a900460ff166003811115613e6d57fe5b1415613e7c5760019150613e81565b600091505b509392505050565b600c6020528060005260406000206000915054906101000a900460ff1681565b6000806000801515600760009054906101000a900460ff161515141515613ecf57600080fd5b6000600e60003373ffffffffffffffffffffffffffffffffffffffff1673ffffffffffffffffffffffffffffffffffffffff1681526020019081526020016000209050600d816000016040518082805460018160011615610100020316600290048015613f735780601f10613f51576101008083540402835291820191613f73565b820191906000526020600020905b815481529060010190602001808311613f5f575b5050915050908152602001604051809103902060009054906101000a900460ff161515613f9f57600080fd5b600e60003373ffffffffffffffffffffffffffffffffffffffff1673ffffffffffffffffffffffffffffffffffffffff168152602001908152602001600020935060009250600191505b60058211158015613ffe575060001515831515145b1561410f576000846002018360068110151561401657fe5b0160009054906101000a900473ffffffffffffffffffffffffffffffffffffffff1673ffffffffffffffffffffffffffffffffffffffff1614156141025784846002018360068110151561406657fe5b0160006101000a81548173ffffffffffffffffffffffffffffffffffffffff021916908373ffffffffffffffffffffffffffffffffffffffff160217905550600192506001600f60008773ffffffffffffffffffffffffffffffffffffffff1673ffffffffffffffffffffffffffffffffffffffff16815260200190815260200160002060006101000a81548160ff0219169083151502179055505b8180600101925050613fe9565b6001151583151514151561411f57fe5b5050505050565b60008060146000848152602001908152602001600020905061414781614e2c565b151561415257600080fd5b61415b81614e5a565b915050919050565b600080600080858510151561417a57869350614198565b87870392508585840281151561418c57fe5b05915081880190508093505b505050949350505050565b6000806141ae6158f2565b600080600080600e60003373ffffffffffffffffffffffffffffffffffffffff1673ffffffffffffffffffffffffffffffffffffffff1681526020019081526020016000209050600d8160000160405180828054600181600116156101000203166002900480156142565780601f10614234576101008083540402835291820191614256565b820191906000526020600020905b815481529060010190602001808311614242575b5050915050908152602001604051809103902060009054906101000a900460ff16151561428257600080fd5b60001515600760009054906101000a900460ff1615151415156142a457600080fd5b600e60003373ffffffffffffffffffffffffffffffffffffffff1673ffffffffffffffffffffffffffffffffffffffff16815260200190815260200160002095506080604051908101604052808b6fffffffffffffffffffffffffffffffff16815260200160006040519080825280602002602001820160405280156143395781602001602082028038833980820191505090505b508152602001600167ffffffffffffffff168152602001600115158152509450856008015493508486600101600086815260200190815260200160002060008201518160000160006101000a8154816fffffffffffffffffffffffffffffffff02191690836fffffffffffffffffffffffffffffffff16021790555060208201518160010190805190602001906143d1929190615939565b5060408201518160020160006101000a81548167ffffffffffffffff021916908367ffffffffffffffff16021790555060608201518160020160086101000a81548160ff02191690831515021790555090505060018660080160008282540192505081905550600a8660000160405180828054600181600116156101000203166002900480156144985780601f10614476576101008083540402835291820191614498565b820191906000526020600020905b815481529060010190602001808311614484575b5050915050908152602001604051809103902060009054906101000a900473ffffffffffffffffffffffffffffffffffffffff1692508560010160008581526020019081526020016000206001016001908060018154018082558091505090600182039060005260206000209060209182820401919006909192909190916101000a81548160ff0219169083600381111561452f57fe5b021790555050601354915060016013540160138190555061455d8a8a8a67ffffffffffffffff1686866155d9565b8696505050505050509392505050565b600080600e60008473ffffffffffffffffffffffffffffffffffffffff1673ffffffffffffffffffffffffffffffffffffffff1681526020019081526020016000209050601060006001836008015403815260200190815260200160002060009054906101000a900460ff16915050919050565b60008060008060008060009450600a876040518082805190602001908083835b6020831015156146265780518252602082019150602081019050602083039250614601565b6001836020036101000a038019825116818451168082178552505050505050905001915050908152602001604051809103902060009054906101000a900473ffffffffffffffffffffffffffffffffffffffff169250600e60008473ffffffffffffffffffffffffffffffffffffffff1673ffffffffffffffffffffffffffffffffffffffff16815260200190815260200160002091505b81600101600089815260200190815260200160002060010180549050811080156146ec575060001515851515145b1561476957600060038111156146fe57fe5b8260010160008a81526020019081526020016000206001018281548110151561472357fe5b90600052602060002090602091828204019190069054906101000a900460ff16600381111561474e57fe5b141561475c57809350600194505b80806001019150506146be565b6001151585151514151561477957fe5b839550505050505092915050565b60008060009054906101000a900473ffffffffffffffffffffffffffffffffffffffff1673ffffffffffffffffffffffffffffffffffffffff163373ffffffffffffffffffffffffffffffffffffffff161415156147e457600080fd5b81905080601160006101000a81548173ffffffffffffffffffffffffffffffffffffffff021916908373ffffffffffffffffffffffffffffffffffffffff1602179055505050565b6000600880549050905090565b601160009054906101000a900473ffffffffffffffffffffffffffffffffffffffff1681565b6000809054906101000a900473ffffffffffffffffffffffffffffffffffffffff1681565b60018160058110151561489357fe5b016000915054906101000a900473ffffffffffffffffffffffffffffffffffffffff1681565b6000809054906101000a900473ffffffffffffffffffffffffffffffffffffffff1673ffffffffffffffffffffffffffffffffffffffff163373ffffffffffffffffffffffffffffffffffffffff1614151561491457600080fd5b60011515600760009054906101000a900460ff16151514151561493657600080fd5b6000600760006101000a81548160ff0219169083151502179055507f7805862f689e2f13df9f062ff482ad3ad112aca9e0847911ed832e158c525b3360405160405180910390a1565b600080600080600960003373ffffffffffffffffffffffffffffffffffffffff1673ffffffffffffffffffffffffffffffffffffffff1681526020019081526020016000209050600d816000016040518082805460018160011615610100020316600290048015614a275780601f10614a05576101008083540402835291820191614a27565b820191906000526020600020905b815481529060010190602001808311614a13575b5050915050908152602001604051809103902060009054906101000a900460ff161515614a5357600080fd5b60001515600760009054906101000a900460ff161515141515614a7557600080fd5b600e60003373ffffffffffffffffffffffffffffffffffffffff1673ffffffffffffffffffffffffffffffffffffffff168152602001908152602001600020935060009250600191505b60058211158015614ad4575060001515831515145b15614bfb578473ffffffffffffffffffffffffffffffffffffffff168460020183600681101515614b0157fe5b0160009054906101000a900473ffffffffffffffffffffffffffffffffffffffff1673ffffffffffffffffffffffffffffffffffffffff161415614bee5760008460020183600681101515614b5257fe5b0160006101000a81548173ffffffffffffffffffffffffffffffffffffffff021916908373ffffffffffffffffffffffffffffffffffffffff160217905550600192506000600f60008773ffffffffffffffffffffffffffffffffffffffff1673ffffffffffffffffffffffffffffffffffffffff16815260200190815260200160002060006101000a81548160ff0219169083151502179055505b8180600101925050614abf565b60011515831515141515614c0b57fe5b5050505050565b60606000806000600880549050141515614cec57600884815481101515614c3557fe5b90600052602060002090600902019150816000019050808054600181600116156101000203166002900480601f016020809104026020016040519081016040528092919081815260200182805460018160011615610100020316600290048015614ce05780601f10614cb557610100808354040283529160200191614ce0565b820191906000526020600020905b815481529060010190602001808311614cc357829003601f168201915b50505050509250614d25565b6040805190810160405280600181526020017f300000000000000000000000000000000000000000000000000000000000000081525092505b5050919050565b803073ffffffffffffffffffffffffffffffffffffffff163110151515614d5257600080fd5b601160009054906101000a900473ffffffffffffffffffffffffffffffffffffffff1673ffffffffffffffffffffffffffffffffffffffff1663f340fa0182846040518363ffffffff167c0100000000000000000000000000000000000000000000000000000000028152600401808273ffffffffffffffffffffffffffffffffffffffff1673ffffffffffffffffffffffffffffffffffffffff1681526020019150506000604051808303818588803b158015614e0f57600080fd5b505af1158015614e23573d6000803e3d6000fd5b50505050505050565b6000808260020160089054906101000a900467ffffffffffffffff1667ffffffffffffffff16119050919050565b600080600090508260020160089054906101000a900467ffffffffffffffff1667ffffffffffffffff16421115614eb3578260020160089054906101000a900467ffffffffffffffff1667ffffffffffffffff16420390505b614f458360010160009054906101000a90046fffffffffffffffffffffffffffffffff166fffffffffffffffffffffffffffffffff168460010160109054906101000a90046fffffffffffffffffffffffffffffffff166fffffffffffffffffffffffffffffffff168560020160009054906101000a900467ffffffffffffffff1667ffffffffffffffff1684614163565b915050919050565b60146000828152602001908152602001600020600080820160006101000a81549073ffffffffffffffffffffffffffffffffffffffff02191690556001820160006101000a8154906fffffffffffffffffffffffffffffffff02191690556001820160106101000a8154906fffffffffffffffffffffffffffffffff02191690556002820160006101000a81549067ffffffffffffffff02191690556002820160086101000a81549067ffffffffffffffff0219169055505050565b601160009054906101000a900473ffffffffffffffffffffffffffffffffffffffff1673ffffffffffffffffffffffffffffffffffffffff166351cff8d9826040518263ffffffff167c0100000000000000000000000000000000000000000000000000000000028152600401808273ffffffffffffffffffffffffffffffffffffffff1673ffffffffffffffffffffffffffffffffffffffff168152602001915050600060405180830381600087803b1580156150c657600080fd5b505af11580156150da573d6000803e3d6000fd5b5050505050565b60606150eb6159e8565b6150f3615a0b565b60001515600760009054906101000a900460ff16151514151561511557600080fd5b60011515600b60008773ffffffffffffffffffffffffffffffffffffffff1673ffffffffffffffffffffffffffffffffffffffff16815260200190815260200160002060009054906101000a900460ff16151514151561517457600080fd5b60001515600c60008773ffffffffffffffffffffffffffffffffffffffff1673ffffffffffffffffffffffffffffffffffffffff16815260200190815260200160002060009054906101000a900460ff1615151415156151d357600080fd5b60001515600d856040518082805190602001908083835b60208310151561520f57805182526020820191506020810190506020830392506151ea565b6001836020036101000a038019825116818451168082178552505050505050905001915050908152602001604051809103902060009054906101000a900460ff16151514151561525e57600080fd5b6060604051908101604052808581526020018381526020016000815250905080600960008773ffffffffffffffffffffffffffffffffffffffff1673ffffffffffffffffffffffffffffffffffffffff16815260200190815260200160002060008201518160000190805190602001906152d9929190615a34565b506020820151816002019060066152f1929190615ab4565b506040820151816008015590505084600a82600001516040518082805190602001908083835b60208310151561533c5780518252602082019150602081019050602083039250615317565b6001836020036101000a038019825116818451168082178552505050505050905001915050908152602001604051809103902060006101000a81548173ffffffffffffffffffffffffffffffffffffffff021916908373ffffffffffffffffffffffffffffffffffffffff1602179055506001600d82600001516040518082805190602001908083835b6020831015156153eb57805182526020820191506020810190506020830392506153c6565b6001836020036101000a038019825116818451168082178552505050505050905001915050908152602001604051809103902060006101000a81548160ff021916908315150217905550848160200151600060068110151561544957fe5b602002019073ffffffffffffffffffffffffffffffffffffffff16908173ffffffffffffffffffffffffffffffffffffffff168152505080600e60008773ffffffffffffffffffffffffffffffffffffffff1673ffffffffffffffffffffffffffffffffffffffff16815260200190815260200160002060008201518160000190805190602001906154dc929190615a34565b506020820151816002019060066154f4929190615ab4565b50604082015181600801559050506001600c60008773ffffffffffffffffffffffffffffffffffffffff1673ffffffffffffffffffffffffffffffffffffffff16815260200190815260200160002060006101000a81548160ff0219169083151502179055506008819080600181540180825580915050906001820390600052602060002090600902016000909192909190915060008201518160000190805190602001906155a4929190615a34565b506020820151816002019060066155bc929190615ab4565b506040820151816008015550505080600001519250505092915050565b6155e1615b31565b60001515600760009054906101000a900460ff16151514151561560357600080fd5b60a0604051908101604052808473ffffffffffffffffffffffffffffffffffffffff168152602001876fffffffffffffffffffffffffffffffff168152602001866fffffffffffffffffffffffffffffffff1681526020018567ffffffffffffffff1681526020014267ffffffffffffffff168152509050615685828261568d565b505050505050565b603c816060015167ffffffffffffffff16101515156156ab57600080fd5b806014600084815260200190815260200160002060008201518160000160006101000a81548173ffffffffffffffffffffffffffffffffffffffff021916908373ffffffffffffffffffffffffffffffffffffffff16021790555060208201518160010160006101000a8154816fffffffffffffffffffffffffffffffff02191690836fffffffffffffffffffffffffffffffff16021790555060408201518160010160106101000a8154816fffffffffffffffffffffffffffffffff02191690836fffffffffffffffffffffffffffffffff16021790555060608201518160020160006101000a81548167ffffffffffffffff021916908367ffffffffffffffff16021790555060808201518160020160086101000a81548167ffffffffffffffff021916908367ffffffffffffffff1602179055509050507fa9c8dfcda5664a5a124c713e386da27de87432d5b668e79458501eb296389ba78282602001516fffffffffffffffffffffffffffffffff1683604001516fffffffffffffffffffffffffffffffff16846060015167ffffffffffffffff166040518085815260200184815260200183815260200182815260200194505050505060405180910390a15050565b828054600181600116156101000203166002900490600052602060002090601f016020900481019282601f106158b357805160ff19168380011785556158e1565b828001600101855582156158e1579182015b828111156158e05782518255916020019190600101906158c5565b5b5090506158ee9190615baf565b5090565b60806040519081016040528060006fffffffffffffffffffffffffffffffff16815260200160608152602001600067ffffffffffffffff1681526020016000151581525090565b82805482825590600052602060002090601f016020900481019282156159d75791602002820160005b838211156159a857835183826101000a81548160ff0219169083600381111561598757fe5b02179055509260200192600101602081600001049283019260010302615962565b80156159d55782816101000a81549060ff02191690556001016020816000010492830192600103026159a8565b505b5090506159e49190615bd4565b5090565b60c060405190810160405280600690602082028038833980820191505090505090565b6101006040519081016040528060608152602001615a27615c04565b8152602001600081525090565b828054600181600116156101000203166002900490600052602060002090601f016020900481019282601f10615a7557805160ff1916838001178555615aa3565b82800160010185558215615aa3579182015b82811115615aa2578251825591602001919060010190615a87565b5b509050615ab09190615baf565b5090565b8260068101928215615b20579160200282015b82811115615b1f5782518260006101000a81548173ffffffffffffffffffffffffffffffffffffffff021916908373ffffffffffffffffffffffffffffffffffffffff16021790555091602001919060010190615ac7565b5b509050615b2d9190615c27565b5090565b60a060405190810160405280600073ffffffffffffffffffffffffffffffffffffffff16815260200160006fffffffffffffffffffffffffffffffff16815260200160006fffffffffffffffffffffffffffffffff168152602001600067ffffffffffffffff168152602001600067ffffffffffffffff1681525090565b615bd191905b80821115615bcd576000816000905550600101615bb5565b5090565b90565b615c0191905b80821115615bfd57600081816101000a81549060ff021916905550600101615bda565b5090565b90565b60c060405190810160405280600690602082028038833980820191505090505090565b615c6791905b80821115615c6357600081816101000a81549073ffffffffffffffffffffffffffffffffffffffff021916905550600101615c2d565b5090565b905600a165627a7a72305820c11a2640cccef7bff7a9d21133e5a3fb6cfad749b2b82571754131530052218f0029",
  "source": "pragma solidity ^0.4.24;\n\nimport \"./StorePurchasing.sol\";\n\n\n/**  @dev This contract is used to sell auction type items. The entire auction\n  *  process is managed in this contract. It maintains use of the escrow contract\n  *  to manage payments and withdrawl of funds.\n  */\ncontract StoreAuction is StorePurchasing{\n\n  event TestLog(uint number);\n  /// @dev Emit when a new auction type product is created:\n  event LogNewAuctionProduct(uint _auctionId,string indexed _storeName);\n  event AuctionCreated(uint256 productId, uint256 startingPrice, uint256 endingPrice, uint256 duration);\n\n  /// @dev Emit when a new auction executes successfully\n  event AuctionSuccessful(uint256 productId, uint256 totalPrice, address winner);\n  /// @dev Emit when the auction is cancelled\n  event AuctionCancelled(uint256 productId);\n\n  /// @dev Tracks all auctions in the Maats Network\n  uint totalAuctions = 0;\n\n  /// @dev trakes the Auction Id as a key for the Auction\n  mapping(uint256 => Auction) auctionIdToAuction;\n\n  /// @dev Struct for the auction type to manage auction logic\n  struct Auction {\n      // product owner\n      address seller;\n      // equal to price of product struct\n      uint128 startingPrice;\n      // Price (in wei) at end of auction\n      uint128 endingPrice;\n      // Duration (in seconds) of auction\n      uint64 duration;\n      // Time when auction started\n      // NOTE: 0 if this auction has been concluded\n      uint64 startedAt;\n  }\n\n  /// @dev for testing the successful creation of an auciton\n\n  function getAuctionExists(uint auctionId)public constant returns(bool){\n    uint currentTime = auctionIdToAuction[auctionId].startedAt;\n    if(currentTime != 0){\n      return true;\n    }\n  }\n\n  /// @dev Internal function for auctioning products.\n  /// @param _startingPrice : the starting price for the Dutch Auction\n  /// @param _endingPrice : the lowest the owner want's to sell the product for\n  /// @param _duration : the length of the auction\n  /// @param _seller : the address of the owner selling the product\n  /// @param _auctionId : the identifier for the auction\n  function createAuction(\n      uint256 _startingPrice,\n      uint256 _endingPrice,\n      uint256 _duration,\n      address _seller,\n      uint256 _auctionId\n  )\n      internal\n      whenNotPaused\n  {\n      Auction memory auction = Auction(\n          _seller,\n          uint128(_startingPrice),\n          uint128(_endingPrice),\n          uint64(_duration),\n          uint64(now)\n      );\n      _addAuction(_auctionId, auction);\n  }\n\n  /// @dev Adds the auction to the list of current auctions and emits event\n  /// @param _auctionId : the identifier for this auction\n  /// @param _auction : the acution being created\n  function _addAuction(uint256 _auctionId, Auction _auction) internal {\n      // Require that all auctions have a duration of\n      // at least one minute. (Keeps our math from getting hairy!)\n      require(_auction.duration >= 1 minutes);\n\n      // Add auction to mapping storing auctions\n      auctionIdToAuction[_auctionId] = _auction;\n\n      // Let everyone know about the new auction!!\n      emit AuctionCreated(\n          uint256(_auctionId),\n          uint256(_auction.startingPrice),\n          uint256(_auction.endingPrice),\n          uint256(_auction.duration)\n      );\n  }\n\n  /// @dev Removes an auction from the system\n  /// @param _auctionId : Locator for the auction to be deleted\n  function _removeAuction(uint256 _auctionId) internal {\n      delete auctionIdToAuction[_auctionId];\n  }\n\n  /// @dev allows the owner to cancel auction\n  function _cancelAuction(uint256 _auctionId) internal {\n      _removeAuction(_auctionId);\n      emit AuctionCancelled(_auctionId);\n  }\n\n  /// @dev Used to view if an auction is still live\n  function _isOnAuction(Auction storage _auction) internal view returns (bool) {\n      return (_auction.startedAt > 0);\n  }\n\n\n  /// function for testing successful bid\n  function didBid(address ownerofproduct,uint productId,uint itemId)public constant returns(bool){\n    Store storage current = storeAdminToStore[ownerofproduct];\n    if(current.products[productId].items[itemId] == ItemStatus.Bought){\n      return true;\n    }else{\n      return false;\n    }\n  }\n  /// @dev Allows customers to \"bid\" on a product: Dutch (reverse) auctions don't\n  /// have bids since it goes from high price to low price. Bid is essentially buy.\n  /// @param _auctionId : The auction which they will be bidding on\n  /// @param _productId : Identifier for product being bid on\n  function _bid(uint256 _auctionId,uint _productId)\n      public\n      payable\n      whenNotPaused\n      returns (uint256)\n  {\n\n\n      // Get a reference to the auction struct\n      Auction storage auction = auctionIdToAuction[_auctionId];\n\n      // Explicitly check that this auction is currently live.\n      // (Because of how Ethereum mappings work, we can't just count\n      // on the lookup above failing. An invalid _tokenId will just\n      // return an auction object that is all zeros.)\n      require(_isOnAuction(auction));\n\n\n      // Check that the incoming bid is higher than the current\n      // price\n      uint256 value = msg.value;\n      uint256 price = _currentPrice(auction);\n      require(value >= price);\n\n      // Grab a reference to the seller before the auction struct\n      // gets deleted.\n      address seller = auction.seller;\n\n\n      // The bid is good! Remove the auction before sending the fees\n      // to the sender so we can't have a reentrancy attack.\n      _removeAuction(_auctionId);\n\n      depositEscrow(seller,value);\n\n\n\n      Store storage current = storeAdminToStore[seller];\n      current.products[_productId].items[0] = ItemStatus.Bought;\n      emit LogItemBought(_productId, msg.sender,current.storeName);\n      // Tell the world!\n      emit AuctionSuccessful(_productId, price, msg.sender);\n\n      return price;\n\n  }\n\n  /// @dev Creates the auction product and immediately puts it on auction.\n  /// @param _startingPrice : Price the auction will start at (highest)\n  /// @param _endingPrice : Price auction will end at (lowest)\n  /// @param _duration : length of the auction in seconds(determines speed of price decrease)\n  /// @return _auctionId : To be used to tag auction created.\n  function createAuctionProduct(\n    uint256 _startingPrice,\n    uint256 _endingPrice,\n    uint64 _duration\n    )\n    public\n    onlyStoreAdmin\n    whenNotPaused\n    returns(uint auctionId){\n      // Get current store based on the msg.sender\n      Store storage current = storeAdminToStore[msg.sender];\n\n      // Create the new product to store in mapping\n      Product memory _product = Product({\n        price: uint128(_startingPrice),\n        items: new ItemStatus[](0),\n        inventory: 1,\n        auction: true\n        });\n\n      // update product count and pruduct mappings\n      uint _productId = current.prodCount;\n      current.products[_productId] = _product;\n      current.prodCount += 1;\n\n      // Get the current seller(owner) of the product\n      address seller = StoreNameToOwner[current.storeName];\n\n      // Set the product instance as ForAuction\n      current.products[_productId].items.push(ItemStatus.ForAuction);\n\n      // Update contract auction count\n      uint _auctionId =  totalAuctions;\n      totalAuctions = totalAuctions + 1;\n      createAuction( _startingPrice, _endingPrice,_duration,seller,_auctionId);\n\n      // Let the world know about the new product!\n    //  emit LogNewAuctionProduct(_auctionId, current.storeName);\n      return(auctionId);\n    }\n\n  /// @dev Computes the current price of the item on auction\n  function _currentPrice(Auction storage _auction)\n      internal\n      view\n      returns (uint256)\n  {\n      uint256 secondsPassed = 0;\n\n      // A bit of insurance against negative values (or wraparound).\n      // Probably not necessary (since Ethereum guarnatees that the\n      // now variable doesn't ever go backwards).\n      if (now > _auction.startedAt) {\n          secondsPassed = now - _auction.startedAt;\n      }\n\n      //call to internal function\n      return _computeCurrentPrice(\n          _auction.startingPrice,\n          _auction.endingPrice,\n          _auction.duration,\n          secondsPassed\n      );\n  }\n\n  /// @dev Computes the current price of an auction. Factored out\n  ///  from _currentPrice so we can run extensive unit tests.\n  ///  When testing, make this function public and turn on\n  ///  `Current price computation` test suite.\n  function _computeCurrentPrice(\n      uint256 _startingPrice,\n      uint256 _endingPrice,\n      uint256 _duration,\n      uint256 _secondsPassed\n  )\n      //internal // comment out when testing\n      pure\n      returns (uint256)\n  {\n      // NOTE: We don't use SafeMath (or similar) in this function because\n      //  all of our public functions carefully cap the maximum values for\n      //  time (at 64-bits) and currency (at 128-bits). _duration is\n      //  also known to be non-zero (see the require() statement in\n      //  _addAuction())\n      if (_secondsPassed >= _duration) {\n          // We've reached the end of the dynamic pricing portion\n          // of the auction, just return the end price.\n          return _endingPrice;\n      } else {\n          // Starting price can be higher than ending price (and often is!), so\n          // this delta can be negative.\n          int256 totalPriceChange = int256(_endingPrice) - int256(_startingPrice);\n\n          // This multiplication can't overflow, _secondsPassed will easily fit within\n          // 64-bits, and totalPriceChange will easily fit within 128-bits, their product\n          // will always fit within 256-bits.\n          int256 currentPriceChange = totalPriceChange * int256(_secondsPassed) / int256(_duration);\n\n          // currentPriceChange can be negative, but if so, will have a magnitude\n          // less that _startingPrice. Thus, this result will always end up positive.\n          int256 currentPrice = int256(_startingPrice) + currentPriceChange;\n\n          return uint256(currentPrice);\n      }\n    }\n\n      /// @dev allows us to get the auction so we can see the various properties\n      /// params : all paramaters have been previously defined\n      function getAuction(uint _productId)\n          public\n          view\n          returns\n      (\n          address seller,\n          uint256 startingPrice,\n          uint256 endingPrice,\n          uint256 duration,\n          uint256 startedAt\n      ) {\n          Auction storage auction = auctionIdToAuction[_productId];\n          require(_isOnAuction(auction));\n          return (\n              auction.seller,\n              auction.startingPrice,\n              auction.endingPrice,\n              auction.duration,\n              auction.startedAt\n          );\n      }\n\n      function getCurrentPrice(uint _productId)\n          public\n          view\n          returns (uint256)\n      {\n          Auction storage auction = auctionIdToAuction[_productId];\n          require(_isOnAuction(auction));\n          return _currentPrice(auction);\n      }\n\n  }\n",
  "sourcePath": "/Users/ericbrown/Documents/Blockchain/ConsenSysCourse/GitHub/Maats/contracts/StoreAuction.sol",
  "compiler": {
    "name": "solc",
    "version": "0.4.24+commit.e67f0147.Emscripten.clang"
  },
  "schemaVersion": "2.0.1",
  "updatedAt": "2018-08-15T00:56:21.887Z"
}