{
  "contractName": "StoreManagement",
  "abi": [
    {
      "constant": true,
      "inputs": [
        {
          "name": "",
          "type": "address"
        }
      ],
      "name": "OwnerToStore",
      "outputs": [
        {
          "name": "storeName",
          "type": "string"
        },
        {
          "name": "open",
          "type": "bool"
        },
        {
          "name": "prodCount",
          "type": "uint8"
        }
      ],
      "payable": false,
      "stateMutability": "view",
      "type": "function"
    },
    {
      "constant": true,
      "inputs": [
        {
          "name": "_storeName",
          "type": "string"
        }
      ],
      "name": "getStoreExists",
      "outputs": [
        {
          "name": "",
          "type": "bool"
        }
      ],
      "payable": false,
      "stateMutability": "view",
      "type": "function"
    },
    {
      "constant": false,
      "inputs": [],
      "name": "_pause",
      "outputs": [],
      "payable": false,
      "stateMutability": "nonpayable",
      "type": "function"
    },
    {
      "constant": false,
      "inputs": [],
      "name": "withdraw",
      "outputs": [],
      "payable": false,
      "stateMutability": "nonpayable",
      "type": "function"
    },
    {
      "constant": false,
      "inputs": [
        {
          "name": "_revokedAdmin",
          "type": "address"
        }
      ],
      "name": "removeMaatsAdmin",
      "outputs": [],
      "payable": false,
      "stateMutability": "nonpayable",
      "type": "function"
    },
    {
      "constant": true,
      "inputs": [
        {
          "name": "",
          "type": "uint256"
        }
      ],
      "name": "storeOwners",
      "outputs": [
        {
          "name": "ownerAddress",
          "type": "address"
        },
        {
          "name": "ownerRanking",
          "type": "uint128"
        }
      ],
      "payable": false,
      "stateMutability": "view",
      "type": "function"
    },
    {
      "constant": true,
      "inputs": [
        {
          "name": "",
          "type": "address"
        }
      ],
      "name": "isStoreOwner",
      "outputs": [
        {
          "name": "",
          "type": "bool"
        }
      ],
      "payable": false,
      "stateMutability": "view",
      "type": "function"
    },
    {
      "constant": false,
      "inputs": [
        {
          "name": "_newOwner",
          "type": "address"
        }
      ],
      "name": "setMaatsOwner",
      "outputs": [],
      "payable": false,
      "stateMutability": "nonpayable",
      "type": "function"
    },
    {
      "constant": false,
      "inputs": [
        {
          "name": "_badOwner",
          "type": "address"
        }
      ],
      "name": "removeStoreOwner",
      "outputs": [
        {
          "name": "",
          "type": "bool"
        }
      ],
      "payable": false,
      "stateMutability": "nonpayable",
      "type": "function"
    },
    {
      "constant": false,
      "inputs": [
        {
          "name": "_newAdmin",
          "type": "address"
        }
      ],
      "name": "createMaatsAdmin",
      "outputs": [],
      "payable": false,
      "stateMutability": "nonpayable",
      "type": "function"
    },
    {
      "constant": true,
      "inputs": [
        {
          "name": "_admin",
          "type": "address"
        }
      ],
      "name": "getIsAdmin",
      "outputs": [
        {
          "name": "",
          "type": "bool"
        }
      ],
      "payable": false,
      "stateMutability": "view",
      "type": "function"
    },
    {
      "constant": true,
      "inputs": [],
      "name": "pause",
      "outputs": [
        {
          "name": "",
          "type": "bool"
        }
      ],
      "payable": false,
      "stateMutability": "view",
      "type": "function"
    },
    {
      "constant": true,
      "inputs": [
        {
          "name": "",
          "type": "address"
        }
      ],
      "name": "createdStore",
      "outputs": [
        {
          "name": "",
          "type": "bool"
        }
      ],
      "payable": false,
      "stateMutability": "view",
      "type": "function"
    },
    {
      "constant": false,
      "inputs": [
        {
          "name": "_newOwner",
          "type": "address"
        }
      ],
      "name": "makeStoreOwner",
      "outputs": [
        {
          "name": "",
          "type": "uint256"
        }
      ],
      "payable": false,
      "stateMutability": "nonpayable",
      "type": "function"
    },
    {
      "constant": false,
      "inputs": [
        {
          "name": "_storeName",
          "type": "string"
        }
      ],
      "name": "createStore",
      "outputs": [
        {
          "name": "",
          "type": "string"
        }
      ],
      "payable": false,
      "stateMutability": "nonpayable",
      "type": "function"
    },
    {
      "constant": true,
      "inputs": [],
      "name": "maatsOwner",
      "outputs": [
        {
          "name": "",
          "type": "address"
        }
      ],
      "payable": false,
      "stateMutability": "view",
      "type": "function"
    },
    {
      "constant": false,
      "inputs": [],
      "name": "_unpause",
      "outputs": [],
      "payable": false,
      "stateMutability": "nonpayable",
      "type": "function"
    },
    {
      "anonymous": false,
      "inputs": [
        {
          "indexed": true,
          "name": "_ownerAddress",
          "type": "address"
        },
        {
          "indexed": true,
          "name": "_storeName",
          "type": "string"
        }
      ],
      "name": "LogStoreOpened",
      "type": "event"
    },
    {
      "anonymous": false,
      "inputs": [
        {
          "indexed": false,
          "name": "_productId",
          "type": "uint256"
        },
        {
          "indexed": true,
          "name": "_storeName",
          "type": "string"
        }
      ],
      "name": "LogNewSetPriceProduct",
      "type": "event"
    },
    {
      "anonymous": false,
      "inputs": [
        {
          "indexed": true,
          "name": "_productId",
          "type": "uint256"
        },
        {
          "indexed": false,
          "name": "inventory",
          "type": "uint64"
        }
      ],
      "name": "LogAddedInventory",
      "type": "event"
    },
    {
      "anonymous": false,
      "inputs": [
        {
          "indexed": true,
          "name": "_ownerAddress",
          "type": "address"
        },
        {
          "indexed": true,
          "name": "_storeName",
          "type": "string"
        }
      ],
      "name": "LogProductRemoved",
      "type": "event"
    },
    {
      "anonymous": false,
      "inputs": [
        {
          "indexed": true,
          "name": "_productId",
          "type": "uint256"
        },
        {
          "indexed": true,
          "name": "_storeName",
          "type": "string"
        },
        {
          "indexed": false,
          "name": "_newPrice",
          "type": "uint128"
        }
      ],
      "name": "LogPriceChange",
      "type": "event"
    },
    {
      "anonymous": false,
      "inputs": [
        {
          "indexed": true,
          "name": "_storeName",
          "type": "string"
        },
        {
          "indexed": false,
          "name": "adminAddress",
          "type": "address"
        }
      ],
      "name": "LogNewAdmin",
      "type": "event"
    },
    {
      "anonymous": false,
      "inputs": [
        {
          "indexed": true,
          "name": "_storeName",
          "type": "string"
        },
        {
          "indexed": false,
          "name": "adminAddress",
          "type": "address"
        }
      ],
      "name": "LogAdminRemoved",
      "type": "event"
    },
    {
      "anonymous": false,
      "inputs": [
        {
          "indexed": true,
          "name": "_ownerAddress",
          "type": "address"
        },
        {
          "indexed": true,
          "name": "_newStoreName",
          "type": "string"
        }
      ],
      "name": "LogNewStore",
      "type": "event"
    },
    {
      "anonymous": false,
      "inputs": [
        {
          "indexed": true,
          "name": "_storeOwnerAddress",
          "type": "address"
        }
      ],
      "name": "LogNewStoreOwner",
      "type": "event"
    },
    {
      "anonymous": false,
      "inputs": [
        {
          "indexed": true,
          "name": "_storeOwner",
          "type": "address"
        }
      ],
      "name": "LogStoreOwnerRemoved",
      "type": "event"
    },
    {
      "anonymous": false,
      "inputs": [
        {
          "indexed": true,
          "name": "_ownerAddress",
          "type": "address"
        },
        {
          "indexed": false,
          "name": "_oldStoreName",
          "type": "string"
        }
      ],
      "name": "LogStoreClosed",
      "type": "event"
    },
    {
      "anonymous": false,
      "inputs": [
        {
          "indexed": true,
          "name": "previousOwner",
          "type": "address"
        },
        {
          "indexed": true,
          "name": "newOwner",
          "type": "address"
        }
      ],
      "name": "LogNewOwner",
      "type": "event"
    },
    {
      "anonymous": false,
      "inputs": [
        {
          "indexed": true,
          "name": "newAdmin",
          "type": "address"
        }
      ],
      "name": "LogNewAdmin",
      "type": "event"
    },
    {
      "anonymous": false,
      "inputs": [
        {
          "indexed": true,
          "name": "revokedAdmin",
          "type": "address"
        }
      ],
      "name": "LogAdminRevoked",
      "type": "event"
    },
    {
      "anonymous": false,
      "inputs": [],
      "name": "Pause",
      "type": "event"
    },
    {
      "anonymous": false,
      "inputs": [],
      "name": "Unpause",
      "type": "event"
    },
    {
      "constant": false,
      "inputs": [],
      "name": "openStore",
      "outputs": [
        {
          "name": "",
          "type": "bool"
        }
      ],
      "payable": false,
      "stateMutability": "nonpayable",
      "type": "function"
    },
    {
      "constant": true,
      "inputs": [
        {
          "name": "adminAddress",
          "type": "address"
        }
      ],
      "name": "getIsStoreAdmin",
      "outputs": [
        {
          "name": "",
          "type": "bool"
        }
      ],
      "payable": false,
      "stateMutability": "view",
      "type": "function"
    },
    {
      "constant": false,
      "inputs": [
        {
          "name": "_NewAdminAddress",
          "type": "address"
        }
      ],
      "name": "createStoreAdmin",
      "outputs": [],
      "payable": false,
      "stateMutability": "nonpayable",
      "type": "function"
    },
    {
      "constant": false,
      "inputs": [
        {
          "name": "_adminAddress",
          "type": "address"
        }
      ],
      "name": "removeStoreAdmin",
      "outputs": [],
      "payable": false,
      "stateMutability": "nonpayable",
      "type": "function"
    },
    {
      "constant": true,
      "inputs": [
        {
          "name": "ownerAddress",
          "type": "address"
        }
      ],
      "name": "getProductExists",
      "outputs": [
        {
          "name": "",
          "type": "bool"
        }
      ],
      "payable": false,
      "stateMutability": "view",
      "type": "function"
    },
    {
      "constant": false,
      "inputs": [
        {
          "name": "_price",
          "type": "uint128"
        },
        {
          "name": "_inventory",
          "type": "uint64"
        }
      ],
      "name": "createSetPriceProduct",
      "outputs": [
        {
          "name": "_productId",
          "type": "uint8"
        }
      ],
      "payable": false,
      "stateMutability": "nonpayable",
      "type": "function"
    },
    {
      "constant": true,
      "inputs": [
        {
          "name": "ownerAddress",
          "type": "address"
        }
      ],
      "name": "getCurrentInventory",
      "outputs": [
        {
          "name": "",
          "type": "uint64"
        }
      ],
      "payable": false,
      "stateMutability": "view",
      "type": "function"
    },
    {
      "constant": false,
      "inputs": [
        {
          "name": "_productId",
          "type": "uint8"
        },
        {
          "name": "_newInventory",
          "type": "uint64"
        }
      ],
      "name": "addInventory",
      "outputs": [
        {
          "name": "",
          "type": "uint64"
        }
      ],
      "payable": false,
      "stateMutability": "nonpayable",
      "type": "function"
    },
    {
      "constant": true,
      "inputs": [
        {
          "name": "storeOwnerAddress",
          "type": "address"
        }
      ],
      "name": "getCurrentPrice",
      "outputs": [
        {
          "name": "",
          "type": "uint128"
        }
      ],
      "payable": false,
      "stateMutability": "view",
      "type": "function"
    },
    {
      "constant": false,
      "inputs": [
        {
          "name": "_newPrice",
          "type": "uint128"
        },
        {
          "name": "_productId",
          "type": "uint8"
        }
      ],
      "name": "changePrice",
      "outputs": [
        {
          "name": "",
          "type": "uint128"
        }
      ],
      "payable": false,
      "stateMutability": "nonpayable",
      "type": "function"
    }
  ],
  "bytecode": "0x6080604052336000806101000a81548173ffffffffffffffffffffffffffffffffffffffff021916908373ffffffffffffffffffffffffffffffffffffffff160217905550613689806100536000396000f30060806040526004361061015e576000357c0100000000000000000000000000000000000000000000000000000000900463ffffffff168062265dc5146101635780631ab63af8146101be57806321c636fe146102925780632fa8cfac146102fd578063320b2ad91461037e5780633ccfd60b1461039557806340f42c1c146103ac57806344d50993146103ef5780635effd33c146104875780635f7d53a1146104e25780636174fdd11461052557806378678a32146105805780637e1dcaf7146105c3578063822b0ceb146105f25780638456cb591461064d57806384cc315b1461067c578063904c977e146106f75780639bf474b51461077b578063a14f2584146107e7578063bd9cf58e14610854578063bdc39f48146108af578063c4c45dd4146108f2578063cff4af1314610949578063d0e04fe3146109a4578063e698f0bb14610a86578063fc8234cb14610add578063fde57f3b14610af4575b600080fd5b34801561016f57600080fd5b506101a4600480360381019080803573ffffffffffffffffffffffffffffffffffffffff169060200190929190505050610b37565b604051808215151515815260200191505060405180910390f35b3480156101ca57600080fd5b506101ff600480360381019080803573ffffffffffffffffffffffffffffffffffffffff169060200190929190505050610b8d565b6040518080602001841515151581526020018360ff1660ff168152602001828103825285818151815260200191508051906020019080838360005b8381101561025557808201518184015260208101905061023a565b50505050905090810190601f1680156102825780820380516001836020036101000a031916815260200191505b5094505050505060405180910390f35b34801561029e57600080fd5b506102d3600480360381019080803573ffffffffffffffffffffffffffffffffffffffff169060200190929190505050610c69565b604051808267ffffffffffffffff1667ffffffffffffffff16815260200191505060405180910390f35b34801561030957600080fd5b50610364600480360381019080803590602001908201803590602001908080601f0160208091040260200160405190810160405280939291908181526020018383808284378201915050505050509192919290505050610ce5565b604051808215151515815260200191505060405180910390f35b34801561038a57600080fd5b50610393610d67565b005b3480156103a157600080fd5b506103aa610e2d565b005b3480156103b857600080fd5b506103ed600480360381019080803573ffffffffffffffffffffffffffffffffffffffff169060200190929190505050610f09565b005b3480156103fb57600080fd5b5061041a60048036038101908080359060200190929190505050611122565b604051808373ffffffffffffffffffffffffffffffffffffffff1673ffffffffffffffffffffffffffffffffffffffff168152602001826fffffffffffffffffffffffffffffffff166fffffffffffffffffffffffffffffffff1681526020019250505060405180910390f35b34801561049357600080fd5b506104c8600480360381019080803573ffffffffffffffffffffffffffffffffffffffff169060200190929190505050611191565b604051808215151515815260200191505060405180910390f35b3480156104ee57600080fd5b50610523600480360381019080803573ffffffffffffffffffffffffffffffffffffffff1690602001909291905050506111b1565b005b34801561053157600080fd5b50610566600480360381019080803573ffffffffffffffffffffffffffffffffffffffff16906020019092919050505061132e565b604051808215151515815260200191505060405180910390f35b34801561058c57600080fd5b506105c1600480360381019080803573ffffffffffffffffffffffffffffffffffffffff1690602001909291905050506116a0565b005b3480156105cf57600080fd5b506105d8611969565b604051808215151515815260200191505060405180910390f35b3480156105fe57600080fd5b50610633600480360381019080803573ffffffffffffffffffffffffffffffffffffffff169060200190929190505050611ac5565b604051808215151515815260200191505060405180910390f35b34801561065957600080fd5b50610662611b3c565b604051808215151515815260200191505060405180910390f35b34801561068857600080fd5b506106bd600480360381019080803573ffffffffffffffffffffffffffffffffffffffff169060200190929190505050611b4f565b60405180826fffffffffffffffffffffffffffffffff166fffffffffffffffffffffffffffffffff16815260200191505060405180910390f35b34801561070357600080fd5b5061074160048036038101908080356fffffffffffffffffffffffffffffffff169060200190929190803560ff169060200190929190505050611bd3565b60405180826fffffffffffffffffffffffffffffffff166fffffffffffffffffffffffffffffffff16815260200191505060405180910390f35b34801561078757600080fd5b506107bd600480360381019080803560ff169060200190929190803567ffffffffffffffff169060200190929190505050611dc9565b604051808267ffffffffffffffff1667ffffffffffffffff16815260200191505060405180910390f35b3480156107f357600080fd5b5061083860048036038101908080356fffffffffffffffffffffffffffffffff169060200190929190803567ffffffffffffffff1690602001909291905050506120ee565b604051808260ff1660ff16815260200191505060405180910390f35b34801561086057600080fd5b50610895600480360381019080803573ffffffffffffffffffffffffffffffffffffffff16906020019092919050505061248f565b604051808215151515815260200191505060405180910390f35b3480156108bb57600080fd5b506108f0600480360381019080803573ffffffffffffffffffffffffffffffffffffffff1690602001909291905050506124af565b005b3480156108fe57600080fd5b50610933600480360381019080803573ffffffffffffffffffffffffffffffffffffffff16906020019092919050505061272c565b6040518082815260200191505060405180910390f35b34801561095557600080fd5b5061098a600480360381019080803573ffffffffffffffffffffffffffffffffffffffff169060200190929190505050612a0f565b604051808215151515815260200191505060405180910390f35b3480156109b057600080fd5b50610a0b600480360381019080803590602001908201803590602001908080601f0160208091040260200160405190810160405280939291908181526020018383808284378201915050505050509192919290505050612a96565b6040518080602001828103825283818151815260200191508051906020019080838360005b83811015610a4b578082015181840152602081019050610a30565b50505050905090810190601f168015610a785780820380516001836020036101000a031916815260200191505b509250505060405180910390f35b348015610a9257600080fd5b50610a9b612f97565b604051808273ffffffffffffffffffffffffffffffffffffffff1673ffffffffffffffffffffffffffffffffffffffff16815260200191505060405180910390f35b348015610ae957600080fd5b50610af2612fbc565b005b348015610b0057600080fd5b50610b35600480360381019080803573ffffffffffffffffffffffffffffffffffffffff169060200190929190505050613082565b005b6000600f60008373ffffffffffffffffffffffffffffffffffffffff1673ffffffffffffffffffffffffffffffffffffffff16815260200190815260200160002060009054906101000a900460ff169050919050565b6009602052806000526040600020600091509050806000018054600181600116156101000203166002900480601f016020809104026020016040519081016040528092919081815260200182805460018160011615610100020316600290048015610c395780601f10610c0e57610100808354040283529160200191610c39565b820191906000526020600020905b815481529060010190602001808311610c1c57829003601f168201915b5050505050908060020160009054906101000a900460ff16908060090160009054906101000a900460ff16905083565b600080600e60008473ffffffffffffffffffffffffffffffffffffffff1673ffffffffffffffffffffffffffffffffffffffff16815260200190815260200160002090508060010160008060ff16815260200190815260200160002060020160009054906101000a900467ffffffffffffffff16915050919050565b6000600d826040518082805190602001908083835b602083101515610d1f5780518252602082019150602081019050602083039250610cfa565b6001836020036101000a038019825116818451168082178552505050505050905001915050908152602001604051809103902060009054906101000a900460ff169050919050565b6000809054906101000a900473ffffffffffffffffffffffffffffffffffffffff1673ffffffffffffffffffffffffffffffffffffffff163373ffffffffffffffffffffffffffffffffffffffff16141515610dc257600080fd5b60001515600760009054906101000a900460ff161515141515610de457600080fd5b6001600760006101000a81548160ff0219169083151502179055507f6985a02210a168e66602d3235cb6db0e70f92b3ba4d376a33c0f3d9434bff62560405160405180910390a1565b6000809054906101000a900473ffffffffffffffffffffffffffffffffffffffff1673ffffffffffffffffffffffffffffffffffffffff163373ffffffffffffffffffffffffffffffffffffffff16141515610e8857600080fd5b6000809054906101000a900473ffffffffffffffffffffffffffffffffffffffff1673ffffffffffffffffffffffffffffffffffffffff166108fc3073ffffffffffffffffffffffffffffffffffffffff16319081150290604051600060405180830381858888f19350505050158015610f06573d6000803e3d6000fd5b50565b6000806000809054906101000a900473ffffffffffffffffffffffffffffffffffffffff1673ffffffffffffffffffffffffffffffffffffffff163373ffffffffffffffffffffffffffffffffffffffff16141515610f6757600080fd5b60001515600760009054906101000a900460ff161515141515610f8957600080fd5b60009150600090505b60048111158015610fa7575060001515821515145b1561110d578273ffffffffffffffffffffffffffffffffffffffff16600182600581101515610fd257fe5b0160009054906101000a900473ffffffffffffffffffffffffffffffffffffffff1673ffffffffffffffffffffffffffffffffffffffff16141561110057600060018260058110151561102157fe5b0160006101000a81548173ffffffffffffffffffffffffffffffffffffffff021916908373ffffffffffffffffffffffffffffffffffffffff1602179055506000600660008573ffffffffffffffffffffffffffffffffffffffff1673ffffffffffffffffffffffffffffffffffffffff16815260200190815260200160002060006101000a81548160ff021916908315150217905550600191508273ffffffffffffffffffffffffffffffffffffffff167fdca59b6371f7db6faad5c9931588f735722795c7b8ea859824e0afc8b2c70a4f60405160405180910390a25b8080600101915050610f92565b6001151582151514151561111d57fe5b505050565b60088181548110151561113157fe5b90600052602060002090600202016000915090508060000160009054906101000a900473ffffffffffffffffffffffffffffffffffffffff16908060010160009054906101000a90046fffffffffffffffffffffffffffffffff16905082565b600b6020528060005260406000206000915054906101000a900460ff1681565b60008060009054906101000a900473ffffffffffffffffffffffffffffffffffffffff1673ffffffffffffffffffffffffffffffffffffffff163373ffffffffffffffffffffffffffffffffffffffff1614151561120e57600080fd5b60001515600760009054906101000a900460ff16151514151561123057600080fd5b600073ffffffffffffffffffffffffffffffffffffffff168273ffffffffffffffffffffffffffffffffffffffff161415151561126c57600080fd5b6000809054906101000a900473ffffffffffffffffffffffffffffffffffffffff169050816000806101000a81548173ffffffffffffffffffffffffffffffffffffffff021916908373ffffffffffffffffffffffffffffffffffffffff1602179055508073ffffffffffffffffffffffffffffffffffffffff168273ffffffffffffffffffffffffffffffffffffffff167f1f8d7d25344642d919d55999e4664aa452a5f424bc0936ceb9c2b300db7dcbd960405160405180910390a35050565b60008060009054906101000a900473ffffffffffffffffffffffffffffffffffffffff1673ffffffffffffffffffffffffffffffffffffffff163373ffffffffffffffffffffffffffffffffffffffff1614806113db575060011515600660003373ffffffffffffffffffffffffffffffffffffffff1673ffffffffffffffffffffffffffffffffffffffff16815260200190815260200160002060009054906101000a900460ff161515145b15156113e657600080fd5b60011515600b60008473ffffffffffffffffffffffffffffffffffffffff1673ffffffffffffffffffffffffffffffffffffffff16815260200190815260200160002060009054906101000a900460ff16151514151561144557600080fd5b6000600960008473ffffffffffffffffffffffffffffffffffffffff1673ffffffffffffffffffffffffffffffffffffffff16815260200190815260200160002060020160006101000a81548160ff0219169083151502179055508173ffffffffffffffffffffffffffffffffffffffff167f70e9219a99e9bfc211e7aa1236b656ca826ba23e3e9e5cbdc2f16e0c7eb8fad9600960008573ffffffffffffffffffffffffffffffffffffffff1673ffffffffffffffffffffffffffffffffffffffff16815260200190815260200160002060000160405180806020018281038252838181546001816001161561010002031660029004815260200191508054600181600116156101000203166002900480156115a35780601f10611578576101008083540402835291602001916115a3565b820191906000526020600020905b81548152906001019060200180831161158657829003601f168201915b50509250505060405180910390a26000600b60008473ffffffffffffffffffffffffffffffffffffffff1673ffffffffffffffffffffffffffffffffffffffff16815260200190815260200160002060006101000a81548160ff0219169083151502179055508173ffffffffffffffffffffffffffffffffffffffff167fe6547a945aa917d8f8b8a71a98062b03570c5ab79d6f47aa64dab5ae6483e0c860405160405180910390a2600b60008373ffffffffffffffffffffffffffffffffffffffff1673ffffffffffffffffffffffffffffffffffffffff16815260200190815260200160002060009054906101000a900460ff169050919050565b60008060008060009054906101000a900473ffffffffffffffffffffffffffffffffffffffff1673ffffffffffffffffffffffffffffffffffffffff163373ffffffffffffffffffffffffffffffffffffffff1614151561170057600080fd5b60001515600760009054906101000a900460ff16151514151561172257600080fd5b600073ffffffffffffffffffffffffffffffffffffffff168473ffffffffffffffffffffffffffffffffffffffff161415151561175e57600080fd5b5b6004831115156117e9578373ffffffffffffffffffffffffffffffffffffffff1660018460058110151561178f57fe5b0160009054906101000a900473ffffffffffffffffffffffffffffffffffffffff1673ffffffffffffffffffffffffffffffffffffffff1614156117de57600260011415156117dd57600080fd5b5b82600101925061175f565b600091505b60048111158015611803575060001515821515145b1561195357600060018260058110151561181957fe5b0160009054906101000a900473ffffffffffffffffffffffffffffffffffffffff1673ffffffffffffffffffffffffffffffffffffffff161415611946578360018260058110151561186757fe5b0160006101000a81548173ffffffffffffffffffffffffffffffffffffffff021916908373ffffffffffffffffffffffffffffffffffffffff1602179055506001600660008673ffffffffffffffffffffffffffffffffffffffff1673ffffffffffffffffffffffffffffffffffffffff16815260200190815260200160002060006101000a81548160ff021916908315150217905550600191508373ffffffffffffffffffffffffffffffffffffffff167f39e7d4b9ba48f55a740a5192809dbc498fa12724c030b37dab126a3f6774c0f360405160405180910390a25b80806001019150506117ee565b6001151582151514151561196357fe5b50505050565b6000806000600960003373ffffffffffffffffffffffffffffffffffffffff1673ffffffffffffffffffffffffffffffffffffffff1681526020019081526020016000209050600d816000016040518082805460018160011615610100020316600290048015611a105780601f106119ee576101008083540402835291820191611a10565b820191906000526020600020905b8154815290600101906020018083116119fc575b5050915050908152602001604051809103902060009054906101000a900460ff161515611a3c57600080fd5b60001515600760009054906101000a900460ff161515141515611a5e57600080fd5b600960003373ffffffffffffffffffffffffffffffffffffffff1673ffffffffffffffffffffffffffffffffffffffff168152602001908152602001600020915060018260020160006101000a81548160ff02191690831515021790555060019250505090565b6000801515600760009054906101000a900460ff161515141515611ae857600080fd5b600660008373ffffffffffffffffffffffffffffffffffffffff1673ffffffffffffffffffffffffffffffffffffffff16815260200190815260200160002060009054906101000a900460ff169050919050565b600760009054906101000a900460ff1681565b600080600e60008473ffffffffffffffffffffffffffffffffffffffff1673ffffffffffffffffffffffffffffffffffffffff16815260200190815260200160002090508060010160008060ff16815260200190815260200160002060000160009054906101000a90046fffffffffffffffffffffffffffffffff16915050919050565b6000806000600960003373ffffffffffffffffffffffffffffffffffffffff1673ffffffffffffffffffffffffffffffffffffffff1681526020019081526020016000209050600d816000016040518082805460018160011615610100020316600290048015611c7a5780601f10611c58576101008083540402835291820191611c7a565b820191906000526020600020905b815481529060010190602001808311611c66575b5050915050908152602001604051809103902060009054906101000a900460ff161515611ca657600080fd5b60001515600760009054906101000a900460ff161515141515611cc857600080fd5b600e60003373ffffffffffffffffffffffffffffffffffffffff1673ffffffffffffffffffffffffffffffffffffffff16815260200190815260200160002091506000856fffffffffffffffffffffffffffffffff1610151515611d2b57600080fd5b600015158260010160008660ff1660ff16815260200190815260200160002060020160089054906101000a900460ff161515141515611d6957600080fd5b848260010160008660ff1660ff16815260200190815260200160002060000160006101000a8154816fffffffffffffffffffffffffffffffff02191690836fffffffffffffffffffffffffffffffff160217905550849250505092915050565b6000806000806000600e60003373ffffffffffffffffffffffffffffffffffffffff1673ffffffffffffffffffffffffffffffffffffffff1681526020019081526020016000209050600d816000016040518082805460018160011615610100020316600290048015611e735780601f10611e51576101008083540402835291820191611e73565b820191906000526020600020905b815481529060010190602001808311611e5f575b5050915050908152602001604051809103902060009054906101000a900460ff161515611e9f57600080fd5b60001515600760009054906101000a900460ff161515141515611ec157600080fd5b600e60003373ffffffffffffffffffffffffffffffffffffffff1673ffffffffffffffffffffffffffffffffffffffff1681526020019081526020016000209350858460010160008960ff1660ff16815260200190815260200160002060020160008282829054906101000a900467ffffffffffffffff160192506101000a81548167ffffffffffffffff021916908367ffffffffffffffff1602179055508360010160008860ff1660ff16815260200190815260200160002060020160089054906101000a900460ff16925060001515831515141515611fa157600080fd5b5b8567ffffffffffffffff1682101561202e578360010160008860ff1660ff1681526020019081526020016000206001016000908060018154018082558091505090600182039060005260206000209060209182820401919006909192909190916101000a81548160ff0219169083600381111561201b57fe5b0217905550508180600101925050611fa2565b8660ff167fdb3cb3bd3aa8b0116684a1673c77eb69da47689f478ec18c9b1b42042bff3ebc8560010160008a60ff1660ff16815260200190815260200160002060020160009054906101000a900467ffffffffffffffff16604051808267ffffffffffffffff1667ffffffffffffffff16815260200191505060405180910390a28360010160008860ff1660ff16815260200190815260200160002060020160009054906101000a900467ffffffffffffffff1694505050505092915050565b6000806120f9613315565b6000801515600760009054906101000a900460ff16151514151561211c57600080fd5b6000600e60003373ffffffffffffffffffffffffffffffffffffffff1673ffffffffffffffffffffffffffffffffffffffff1681526020019081526020016000209050600d8160000160405180828054600181600116156101000203166002900480156121c05780601f1061219e5761010080835404028352918201916121c0565b820191906000526020600020905b8154815290600101906020018083116121ac575b5050915050908152602001604051809103902060009054906101000a900460ff1615156121ec57600080fd5b600e60003373ffffffffffffffffffffffffffffffffffffffff1673ffffffffffffffffffffffffffffffffffffffff1681526020019081526020016000209350608060405190810160405280886fffffffffffffffffffffffffffffffff16815260200160006040519080825280602002602001820160405280156122815781602001602082028038833980820191505090505b5081526020018767ffffffffffffffff1681526020016000151581525092508360090160009054906101000a900460ff169450828460010160008760ff1660ff16815260200190815260200160002060008201518160000160006101000a8154816fffffffffffffffffffffffffffffffff02191690836fffffffffffffffffffffffffffffffff160217905550602082015181600101908051906020019061232b92919061335c565b5060408201518160020160006101000a81548167ffffffffffffffff021916908367ffffffffffffffff16021790555060608201518160020160086101000a81548160ff0219169083151502179055509050506001601060008660090160009054906101000a900460ff1660ff1660ff16815260200190815260200160002060006101000a81548160ff02191690831515021790555083600901600081819054906101000a900460ff168092919060010191906101000a81548160ff021916908360ff160217905550505b8567ffffffffffffffff16821015612482578360010160008660ff1660ff1681526020019081526020016000206001016000908060018154018082558091505090600182039060005260206000209060209182820401919006909192909190916101000a81548160ff0219169083600381111561246f57fe5b02179055505081806001019250506123f6565b8494505050505092915050565b600c6020528060005260406000206000915054906101000a900460ff1681565b6000806000801515600760009054906101000a900460ff1615151415156124d557600080fd5b6000600e60003373ffffffffffffffffffffffffffffffffffffffff1673ffffffffffffffffffffffffffffffffffffffff1681526020019081526020016000209050600d8160000160405180828054600181600116156101000203166002900480156125795780601f10612557576101008083540402835291820191612579565b820191906000526020600020905b815481529060010190602001808311612565575b5050915050908152602001604051809103902060009054906101000a900460ff1615156125a557600080fd5b600e60003373ffffffffffffffffffffffffffffffffffffffff1673ffffffffffffffffffffffffffffffffffffffff168152602001908152602001600020935060009250600191505b60058211158015612604575060001515831515145b15612715576000846003018360068110151561261c57fe5b0160009054906101000a900473ffffffffffffffffffffffffffffffffffffffff1673ffffffffffffffffffffffffffffffffffffffff1614156127085784846003018360068110151561266c57fe5b0160006101000a81548173ffffffffffffffffffffffffffffffffffffffff021916908373ffffffffffffffffffffffffffffffffffffffff160217905550600192506001600f60008773ffffffffffffffffffffffffffffffffffffffff1673ffffffffffffffffffffffffffffffffffffffff16815260200190815260200160002060006101000a81548160ff0219169083151502179055505b81806001019250506125ef565b6001151583151514151561272557fe5b5050505050565b600061273661340b565b60008060009054906101000a900473ffffffffffffffffffffffffffffffffffffffff1673ffffffffffffffffffffffffffffffffffffffff163373ffffffffffffffffffffffffffffffffffffffff1614806127e3575060011515600660003373ffffffffffffffffffffffffffffffffffffffff1673ffffffffffffffffffffffffffffffffffffffff16815260200190815260200160002060009054906101000a900460ff161515145b15156127ee57600080fd5b60001515600760009054906101000a900460ff16151514151561281057600080fd5b60001515600b60008673ffffffffffffffffffffffffffffffffffffffff1673ffffffffffffffffffffffffffffffffffffffff16815260200190815260200160002060009054906101000a900460ff16151514151561286f57600080fd5b60408051908101604052808573ffffffffffffffffffffffffffffffffffffffff16815260200160006fffffffffffffffffffffffffffffffff16815250915060016008839080600181540180825580915050906001820390600052602060002090600202016000909192909190915060008201518160000160006101000a81548173ffffffffffffffffffffffffffffffffffffffff021916908373ffffffffffffffffffffffffffffffffffffffff16021790555060208201518160010160006101000a8154816fffffffffffffffffffffffffffffffff02191690836fffffffffffffffffffffffffffffffff16021790555050500390506001600b60008673ffffffffffffffffffffffffffffffffffffffff1673ffffffffffffffffffffffffffffffffffffffff16815260200190815260200160002060006101000a81548160ff0219169083151502179055508373ffffffffffffffffffffffffffffffffffffffff167f64a6cb4c2615e9c9ee211131f9fc94aaa6238a3c255423b75ba43ef01ca42dcd60405160405180910390a28092505050919050565b600080600e60008473ffffffffffffffffffffffffffffffffffffffff1673ffffffffffffffffffffffffffffffffffffffff16815260200190815260200160002090506010600060018360090160009054906101000a900460ff160360ff1660ff16815260200190815260200160002060009054906101000a900460ff16915050919050565b6060612aa061344d565b612aa8613470565b60001515600760009054906101000a900460ff161515141515612aca57600080fd5b60011515600b60003373ffffffffffffffffffffffffffffffffffffffff1673ffffffffffffffffffffffffffffffffffffffff16815260200190815260200160002060009054906101000a900460ff161515141515612b2957600080fd5b60001515600c60003373ffffffffffffffffffffffffffffffffffffffff1673ffffffffffffffffffffffffffffffffffffffff16815260200190815260200160002060009054906101000a900460ff161515141515612b8857600080fd5b60001515600d856040518082805190602001908083835b602083101515612bc45780518252602082019150602081019050602083039250612b9f565b6001836020036101000a038019825116818451168082178552505050505050905001915050908152602001604051809103902060009054906101000a900460ff161515141515612c1357600080fd5b608060405190810160405280858152602001600015158152602001838152602001600060ff16815250905080600960003373ffffffffffffffffffffffffffffffffffffffff1673ffffffffffffffffffffffffffffffffffffffff1681526020019081526020016000206000820151816000019080519060200190612c9a9291906134a5565b5060208201518160020160006101000a81548160ff021916908315150217905550604082015181600301906006612cd2929190613525565b5060608201518160090160006101000a81548160ff021916908360ff16021790555090505033600a82600001516040518082805190602001908083835b602083101515612d345780518252602082019150602081019050602083039250612d0f565b6001836020036101000a038019825116818451168082178552505050505050905001915050908152602001604051809103902060006101000a81548173ffffffffffffffffffffffffffffffffffffffff021916908373ffffffffffffffffffffffffffffffffffffffff1602179055506001600d82600001516040518082805190602001908083835b602083101515612de35780518252602082019150602081019050602083039250612dbe565b6001836020036101000a038019825116818451168082178552505050505050905001915050908152602001604051809103902060006101000a81548160ff0219169083151502179055503381604001516000600681101515612e4157fe5b602002019073ffffffffffffffffffffffffffffffffffffffff16908173ffffffffffffffffffffffffffffffffffffffff168152505080600e60003373ffffffffffffffffffffffffffffffffffffffff1673ffffffffffffffffffffffffffffffffffffffff1681526020019081526020016000206000820151816000019080519060200190612ed49291906134a5565b5060208201518160020160006101000a81548160ff021916908315150217905550604082015181600301906006612f0c929190613525565b5060608201518160090160006101000a81548160ff021916908360ff1602179055509050506001600c60003373ffffffffffffffffffffffffffffffffffffffff1673ffffffffffffffffffffffffffffffffffffffff16815260200190815260200160002060006101000a81548160ff021916908315150217905550806000015192505050919050565b6000809054906101000a900473ffffffffffffffffffffffffffffffffffffffff1681565b6000809054906101000a900473ffffffffffffffffffffffffffffffffffffffff1673ffffffffffffffffffffffffffffffffffffffff163373ffffffffffffffffffffffffffffffffffffffff1614151561301757600080fd5b60011515600760009054906101000a900460ff16151514151561303957600080fd5b6000600760006101000a81548160ff0219169083151502179055507f7805862f689e2f13df9f062ff482ad3ad112aca9e0847911ed832e158c525b3360405160405180910390a1565b600080600080600960003373ffffffffffffffffffffffffffffffffffffffff1673ffffffffffffffffffffffffffffffffffffffff1681526020019081526020016000209050600d81600001604051808280546001816001161561010002031660029004801561312a5780601f1061310857610100808354040283529182019161312a565b820191906000526020600020905b815481529060010190602001808311613116575b5050915050908152602001604051809103902060009054906101000a900460ff16151561315657600080fd5b60001515600760009054906101000a900460ff16151514151561317857600080fd5b600e60003373ffffffffffffffffffffffffffffffffffffffff1673ffffffffffffffffffffffffffffffffffffffff168152602001908152602001600020935060009250600191505b600582111580156131d7575060001515831515145b156132fe578473ffffffffffffffffffffffffffffffffffffffff16846003018360068110151561320457fe5b0160009054906101000a900473ffffffffffffffffffffffffffffffffffffffff1673ffffffffffffffffffffffffffffffffffffffff1614156132f1576000846003018360068110151561325557fe5b0160006101000a81548173ffffffffffffffffffffffffffffffffffffffff021916908373ffffffffffffffffffffffffffffffffffffffff160217905550600192506000600f60008773ffffffffffffffffffffffffffffffffffffffff1673ffffffffffffffffffffffffffffffffffffffff16815260200190815260200160002060006101000a81548160ff0219169083151502179055505b81806001019250506131c2565b6001151583151514151561330e57fe5b5050505050565b60806040519081016040528060006fffffffffffffffffffffffffffffffff16815260200160608152602001600067ffffffffffffffff1681526020016000151581525090565b82805482825590600052602060002090601f016020900481019282156133fa5791602002820160005b838211156133cb57835183826101000a81548160ff021916908360038111156133aa57fe5b02179055509260200192600101602081600001049283019260010302613385565b80156133f85782816101000a81549060ff02191690556001016020816000010492830192600103026133cb565b505b50905061340791906135a2565b5090565b6040805190810160405280600073ffffffffffffffffffffffffffffffffffffffff16815260200160006fffffffffffffffffffffffffffffffff1681525090565b60c060405190810160405280600690602082028038833980820191505090505090565b61012060405190810160405280606081526020016000151581526020016134956135d2565b8152602001600060ff1681525090565b828054600181600116156101000203166002900490600052602060002090601f016020900481019282601f106134e657805160ff1916838001178555613514565b82800160010185558215613514579182015b828111156135135782518255916020019190600101906134f8565b5b50905061352191906135f5565b5090565b8260068101928215613591579160200282015b828111156135905782518260006101000a81548173ffffffffffffffffffffffffffffffffffffffff021916908373ffffffffffffffffffffffffffffffffffffffff16021790555091602001919060010190613538565b5b50905061359e919061361a565b5090565b6135cf91905b808211156135cb57600081816101000a81549060ff0219169055506001016135a8565b5090565b90565b60c060405190810160405280600690602082028038833980820191505090505090565b61361791905b808211156136135760008160009055506001016135fb565b5090565b90565b61365a91905b8082111561365657600081816101000a81549073ffffffffffffffffffffffffffffffffffffffff021916905550600101613620565b5090565b905600a165627a7a723058203652d42b4cef59f13f4bcda3d26762605a8433701d5c5e6a1c40331798a90be30029",
  "source": "pragma solidity ^0.4.24;\n\nimport \"./StoreBase.sol\";\n\n/** @dev Contract for storeOwner management. This includes product management,\n  * store closure by owner and store removal by owner. This contract also\n  * manages product inventory and specific instances of a product type.\n  */\ncontract StoreManagement is StoreBase{\n\n  /// @dev Store name is still used in most events as the unique identifer.\n  event LogStoreOpened(address indexed _ownerAddress, string indexed _storeName);\n  /// @dev Emit when a product with set price is created.\n  event LogNewSetPriceProduct(uint _productId,string indexed _storeName);\n  /// @dev Emit when inventory of a product is increased.\n  event LogAddedInventory(uint indexed _productId,uint64 inventory);\n  /// @dev Emit when a product is no longer being sold\n  event LogProductRemoved(address indexed _ownerAddress,string indexed _storeName);\n  /// @dev Let the world know of price changes\n  event LogPriceChange(uint indexed _productId,string indexed _storeName,uint128 _newPrice);\n  /// @dev Emit when an admin is added to a store\n  event LogNewAdmin(string indexed _storeName,address adminAddress);\n  /// @dev Emit when an admin is removed from a store\n  event LogAdminRemoved(string indexed _storeName,address adminAddress);\n\n\n\n\n  /// @dev Uses current store to determine if they are an admin, allowing them to\n  /// act on the store for which they are an admin. Recall that the 0-index\n  /// of the storeAdmins array holds the owner address. Therefore any function\n  /// which uses this modifier can be also accessed by the owner!\n  modifier onlyStoreAdmin(){\n    Store storage current = storeAdminToStore[msg.sender];\n\n    // if current isn't equal to a store, then the following require fails\n    require(storeExists[current.storeName]);\n    _;\n  }\n\n  /// @dev Uses store mappings to determine if the msg.sender is the owner.\n  modifier onlyStoreOwner(){\n    Store storage current = OwnerToStore[msg.sender];\n    require(storeExists[current.storeName]);\n    _;\n  }\n\n\n/*\n***** Store Admin Management *****\n*/\n\n  /// @dev Stores are initialized as closed to give the owner time to setup shop.\n  /// This function allows them to set their store to open and let the world know!\n  /// @return true : just returns true to confirm success opening the store.\n  function openStore()\n    public\n    onlyStoreOwner\n    whenNotPaused\n    returns(bool){\n      Store storage current = OwnerToStore[msg.sender];\n      current.open = true;\n      ///emit LogStoreOpened(msg.sender, current.storeName);\n      return(true);\n    }\n\n  // used for testing purposes\n  mapping (address => bool) isStoreAdmin;\n  function getIsStoreAdmin(address adminAddress)public constant returns(bool){\n    return isStoreAdmin[adminAddress];\n  }\n\n  /// @dev Allow the store owner or its admins to add another admin to the store.\n  /// The function checks that the address isn't already an admin and ensures that\n  /// there aren't already admins. It starts at index 1 since index 0 is always\n  /// for the store owner.\n  /// @param _NewAdminAddress : address of the soon to be admin.\n  function createStoreAdmin(address _NewAdminAddress)\n  public\n  whenNotPaused\n  onlyStoreAdmin{\n    // retrieve the store based off of who is calling.\n    Store storage current = storeAdminToStore[msg.sender];\n\n    bool adminCreated = false;\n    for(uint i=1; i <= 5 && adminCreated == false; i++){\n      if (current.storeAdmins[i] == 0){\n        current.storeAdmins[i] = _NewAdminAddress;\n        adminCreated = true;\n        isStoreAdmin[_NewAdminAddress] = true;\n      }\n    }\n\n\n    // This assert is used to prevent a silent failure of this function call\n    assert(adminCreated == true);\n\n  ///emit LogNewAdmin(current.storeName, _NewAdminAddress);\n  }\n\n  /// @dev This function removes an admin from the store. It can only be called\n  /// by the owner of the store. The admin array isn't restructured because\n  /// the order of admins is insignificant outside of the 0-index == owner.\n  /// @param _adminAddress : the address of the admin being removed.\n  function removeStoreAdmin(address _adminAddress)\n  public\n  onlyStoreOwner\n  whenNotPaused{\n    Store storage current = storeAdminToStore[msg.sender];\n    bool adminRemoved = false;\n    uint i = 1;\n    // start at 1-index because the 0-index is reserved for the owner\n    for(; i<=5 && adminRemoved == false; i++){\n      if(current.storeAdmins[i] == _adminAddress){\n        current.storeAdmins[i] = 0;\n        adminRemoved = true;\n        isStoreAdmin[_adminAddress] = false;\n      }\n    }\n\n    // want to sensure there isn't a silent failure of this function call.\n     assert(adminRemoved == true);\n\n  //  emit LogAdminRemoved(current.storeName, _adminAddress);\n  }\n\n/*\n****** Product Management *****\n*/\n\n  /// @dev Only used for testing. GetProductExists really only checks if there\n  /// is  a product in the array at prodCount\n  mapping (uint8 => bool) productExists;\n  function getProductExists(address ownerAddress)public constant returns(bool){\n    Store storage current = storeAdminToStore[ownerAddress];\n    return productExists[current.prodCount -1];\n\n  }\n  /// @dev This function creates a new product which is sold for a set price.\n  /// It is added to the products mapping for the store and can only be accessed\n  /// when the contract isn't paused. Security concerns are present if an\n  /// owner acts maliciously and attempts to add hundreds of products to slow\n  /// down Maats Network and cause errors\n  /// notice: immediately makes product forSale\n  /// @param _price : the price of the new product\n  /// @param _inventory : the initial inventory the store has on hand of the product\n  /// @return _productId : returns the key for the products mapping.\n  function createSetPriceProduct(\n    uint128 _price,\n    uint64 _inventory\n    )\n    public\n    whenNotPaused\n    onlyStoreAdmin\n    returns(uint8 _productId){\n      // fetch current store based off of the msg.sender\n      Store storage current = storeAdminToStore[msg.sender];\n\n      // the product will be stored in the products mapping as to avoid\n      // dissapearing during deallocation of local memory variables.\n      Product memory _product = Product({\n        price: _price,\n        items: new ItemStatus[](0),\n        inventory: _inventory,\n        auction: false\n        });\n\n      // The identifier for a product is equal to the current count of products\n      // before this product was created. It is then added to the mapping and\n      // the count of total products in the store is incremented.\n      _productId = current.prodCount;\n      current.products[_productId] = _product;\n      productExists[current.prodCount] = true;\n      current.prodCount++;\n\n      // fill the items array with initial inventory and set to ForSale\n      for(uint i; i <_inventory; i++){\n        current.products[_productId].items.push(ItemStatus.ForSale);\n      }\n\n      // Let the world know there's a new product on the store!!\n    //  emit LogNewSetPriceProduct(_productId, current.storeName);\n      return(_productId);\n    }\n\n  // Just for testing\n  function getCurrentInventory(address ownerAddress) public constant returns(uint64){\n    Store storage current = storeAdminToStore[ownerAddress];\n    return current.products[0].inventory;\n  }\n\n  /// @dev Add inventory to a product and manage inventory variables.\n  /// notice Added inventory for set-price becomes for sale immediatley\n  /// Can't add inventory for auctions, new product created instead\n  /// @param _productId : the product type which is getting new inventory\n  /// @param _newInventory : the amount of new inventory being added\n  /// @return current.products[_productId].inventory : the now total inventory\n  function addInventory(uint8 _productId,uint64 _newInventory)\n    public\n    onlyStoreAdmin\n    whenNotPaused\n    returns(uint64){\n      // fetch current store based off of msg.sender\n      Store storage current = storeAdminToStore[msg.sender];\n      // add the new inventory to the current amount of inventory\n      current.products[_productId].inventory += _newInventory;\n      // Ensure that product isn't of type auction since you can't add inventory\n      // to a single item on auction.\n      bool _isAuction = current.products[_productId].auction;\n      require(_isAuction == false);\n\n      // immediately set new inventory up for sale.\n      for(uint i; i <_newInventory; i++){\n        current.products[_productId].items.push(ItemStatus.ForSale);\n      }\n\n      emit LogAddedInventory(_productId, current.products[_productId].inventory);\n      return(current.products[_productId].inventory);\n  }\n\n  function getCurrentPrice(address storeOwnerAddress)public constant returns(uint128){\n    Store storage current = storeAdminToStore[storeOwnerAddress];\n    return current.products[0].price;\n  }\n  /// @dev Change the price of an existing product. Ensure that the new price\n  /// is not larger than 0 (0 is allowed if people are feeling generous).\n  /// notice You can't change the price of an auction item since those items\n  /// follow their own logic.\n  /// @param _newPrice : the new price for the product\n  /// @param _productId : the product which is experiencing the price change.\n  function changePrice(uint128 _newPrice,uint8 _productId)\n    public\n    onlyStoreOwner\n    whenNotPaused\n    returns(uint128){\n      Store storage current = storeAdminToStore[msg.sender];\n      require(_newPrice >= 0);\n      // can't change the price of an auction item\n      require(current.products[_productId].auction == false);\n      // change price\n      current.products[_productId].price = _newPrice;\n      // Let the world know about the price change!!\n    //  emit LogPriceChange(_productId, current.storeName, _newPrice);\n      return(_newPrice);\n  }\n\n}\n",
  "sourcePath": "/Users/ericbrown/Documents/Blockchain/ConsenSysCourse/GitHub/Maats/contracts/StoreManagement.sol",
  "compiler": {
    "name": "solc",
    "version": "0.4.24+commit.e67f0147.Emscripten.clang"
  },
  "schemaVersion": "2.0.1",
  "updatedAt": "2018-08-03T23:22:35.471Z"
}