{
  "contractName": "StoreAuction",
  "abi": [
    {
      "constant": true,
      "inputs": [
        {
          "name": "adminAddress",
          "type": "address"
        }
      ],
      "name": "getIsStoreAdmin",
      "outputs": [
        {
          "name": "",
          "type": "bool"
        }
      ],
      "payable": false,
      "stateMutability": "view",
      "type": "function"
    },
    {
      "constant": false,
      "inputs": [
        {
          "name": "_productId",
          "type": "uint8"
        },
        {
          "name": "_storeName",
          "type": "string"
        }
      ],
      "name": "buyItem",
      "outputs": [
        {
          "name": "index",
          "type": "uint256"
        }
      ],
      "payable": true,
      "stateMutability": "payable",
      "type": "function"
    },
    {
      "constant": true,
      "inputs": [
        {
          "name": "",
          "type": "address"
        }
      ],
      "name": "OwnerToStore",
      "outputs": [
        {
          "name": "storeName",
          "type": "string"
        },
        {
          "name": "open",
          "type": "bool"
        },
        {
          "name": "prodCount",
          "type": "uint8"
        }
      ],
      "payable": false,
      "stateMutability": "view",
      "type": "function"
    },
    {
      "constant": true,
      "inputs": [
        {
          "name": "ownerAddress",
          "type": "address"
        }
      ],
      "name": "getCurrentInventory",
      "outputs": [
        {
          "name": "",
          "type": "uint64"
        }
      ],
      "payable": false,
      "stateMutability": "view",
      "type": "function"
    },
    {
      "constant": true,
      "inputs": [
        {
          "name": "_storeName",
          "type": "string"
        }
      ],
      "name": "getStoreExists",
      "outputs": [
        {
          "name": "",
          "type": "bool"
        }
      ],
      "payable": false,
      "stateMutability": "view",
      "type": "function"
    },
    {
      "constant": true,
      "inputs": [
        {
          "name": "",
          "type": "address"
        }
      ],
      "name": "purchaserToItem",
      "outputs": [
        {
          "name": "",
          "type": "uint256"
        }
      ],
      "payable": false,
      "stateMutability": "view",
      "type": "function"
    },
    {
      "constant": false,
      "inputs": [],
      "name": "_pause",
      "outputs": [],
      "payable": false,
      "stateMutability": "nonpayable",
      "type": "function"
    },
    {
      "constant": false,
      "inputs": [],
      "name": "withdraw",
      "outputs": [],
      "payable": false,
      "stateMutability": "nonpayable",
      "type": "function"
    },
    {
      "constant": false,
      "inputs": [
        {
          "name": "_revokedAdmin",
          "type": "address"
        }
      ],
      "name": "removeMaatsAdmin",
      "outputs": [],
      "payable": false,
      "stateMutability": "nonpayable",
      "type": "function"
    },
    {
      "constant": true,
      "inputs": [
        {
          "name": "",
          "type": "uint256"
        }
      ],
      "name": "storeOwners",
      "outputs": [
        {
          "name": "ownerAddress",
          "type": "address"
        },
        {
          "name": "ownerRanking",
          "type": "uint128"
        }
      ],
      "payable": false,
      "stateMutability": "view",
      "type": "function"
    },
    {
      "constant": true,
      "inputs": [
        {
          "name": "_productId",
          "type": "uint8"
        },
        {
          "name": "_storeName",
          "type": "string"
        }
      ],
      "name": "findFirstItemForSale",
      "outputs": [
        {
          "name": "",
          "type": "uint256"
        }
      ],
      "payable": false,
      "stateMutability": "view",
      "type": "function"
    },
    {
      "constant": true,
      "inputs": [
        {
          "name": "ownerAddress",
          "type": "address"
        },
        {
          "name": "index",
          "type": "uint256"
        },
        {
          "name": "productId",
          "type": "uint8"
        }
      ],
      "name": "getItemShipped",
      "outputs": [
        {
          "name": "",
          "type": "bool"
        }
      ],
      "payable": false,
      "stateMutability": "view",
      "type": "function"
    },
    {
      "constant": true,
      "inputs": [
        {
          "name": "",
          "type": "address"
        }
      ],
      "name": "isStoreOwner",
      "outputs": [
        {
          "name": "",
          "type": "bool"
        }
      ],
      "payable": false,
      "stateMutability": "view",
      "type": "function"
    },
    {
      "constant": false,
      "inputs": [
        {
          "name": "_newOwner",
          "type": "address"
        }
      ],
      "name": "setMaatsOwner",
      "outputs": [],
      "payable": false,
      "stateMutability": "nonpayable",
      "type": "function"
    },
    {
      "constant": false,
      "inputs": [
        {
          "name": "_badOwner",
          "type": "address"
        }
      ],
      "name": "removeStoreOwner",
      "outputs": [
        {
          "name": "",
          "type": "bool"
        }
      ],
      "payable": false,
      "stateMutability": "nonpayable",
      "type": "function"
    },
    {
      "constant": false,
      "inputs": [
        {
          "name": "_newAdmin",
          "type": "address"
        }
      ],
      "name": "createMaatsAdmin",
      "outputs": [],
      "payable": false,
      "stateMutability": "nonpayable",
      "type": "function"
    },
    {
      "constant": false,
      "inputs": [],
      "name": "openStore",
      "outputs": [
        {
          "name": "",
          "type": "bool"
        }
      ],
      "payable": false,
      "stateMutability": "nonpayable",
      "type": "function"
    },
    {
      "constant": false,
      "inputs": [
        {
          "name": "_itemIndex",
          "type": "uint256"
        },
        {
          "name": "_productId",
          "type": "uint8"
        }
      ],
      "name": "shipItem",
      "outputs": [
        {
          "name": "shipped",
          "type": "bool"
        }
      ],
      "payable": false,
      "stateMutability": "nonpayable",
      "type": "function"
    },
    {
      "constant": true,
      "inputs": [
        {
          "name": "_admin",
          "type": "address"
        }
      ],
      "name": "getIsAdmin",
      "outputs": [
        {
          "name": "",
          "type": "bool"
        }
      ],
      "payable": false,
      "stateMutability": "view",
      "type": "function"
    },
    {
      "constant": true,
      "inputs": [],
      "name": "pause",
      "outputs": [
        {
          "name": "",
          "type": "bool"
        }
      ],
      "payable": false,
      "stateMutability": "view",
      "type": "function"
    },
    {
      "constant": false,
      "inputs": [
        {
          "name": "_newPrice",
          "type": "uint128"
        },
        {
          "name": "_productId",
          "type": "uint8"
        }
      ],
      "name": "changePrice",
      "outputs": [
        {
          "name": "",
          "type": "uint128"
        }
      ],
      "payable": false,
      "stateMutability": "nonpayable",
      "type": "function"
    },
    {
      "constant": false,
      "inputs": [
        {
          "name": "_productId",
          "type": "uint8"
        },
        {
          "name": "_newInventory",
          "type": "uint64"
        }
      ],
      "name": "addInventory",
      "outputs": [
        {
          "name": "",
          "type": "uint64"
        }
      ],
      "payable": false,
      "stateMutability": "nonpayable",
      "type": "function"
    },
    {
      "constant": false,
      "inputs": [
        {
          "name": "_price",
          "type": "uint128"
        },
        {
          "name": "_inventory",
          "type": "uint64"
        }
      ],
      "name": "createSetPriceProduct",
      "outputs": [
        {
          "name": "_productId",
          "type": "uint8"
        }
      ],
      "payable": false,
      "stateMutability": "nonpayable",
      "type": "function"
    },
    {
      "constant": true,
      "inputs": [
        {
          "name": "_purchaser",
          "type": "address"
        }
      ],
      "name": "getPurchase",
      "outputs": [
        {
          "name": "",
          "type": "uint256"
        }
      ],
      "payable": false,
      "stateMutability": "view",
      "type": "function"
    },
    {
      "constant": true,
      "inputs": [
        {
          "name": "",
          "type": "address"
        }
      ],
      "name": "createdStore",
      "outputs": [
        {
          "name": "",
          "type": "bool"
        }
      ],
      "payable": false,
      "stateMutability": "view",
      "type": "function"
    },
    {
      "constant": false,
      "inputs": [
        {
          "name": "_NewAdminAddress",
          "type": "address"
        }
      ],
      "name": "createStoreAdmin",
      "outputs": [],
      "payable": false,
      "stateMutability": "nonpayable",
      "type": "function"
    },
    {
      "constant": false,
      "inputs": [
        {
          "name": "_newOwner",
          "type": "address"
        }
      ],
      "name": "makeStoreOwner",
      "outputs": [
        {
          "name": "",
          "type": "uint256"
        }
      ],
      "payable": false,
      "stateMutability": "nonpayable",
      "type": "function"
    },
    {
      "constant": true,
      "inputs": [
        {
          "name": "ownerAddress",
          "type": "address"
        }
      ],
      "name": "getProductExists",
      "outputs": [
        {
          "name": "",
          "type": "bool"
        }
      ],
      "payable": false,
      "stateMutability": "view",
      "type": "function"
    },
    {
      "constant": false,
      "inputs": [
        {
          "name": "_storeName",
          "type": "string"
        }
      ],
      "name": "createStore",
      "outputs": [
        {
          "name": "",
          "type": "string"
        }
      ],
      "payable": false,
      "stateMutability": "nonpayable",
      "type": "function"
    },
    {
      "constant": false,
      "inputs": [
        {
          "name": "_escrowAddress",
          "type": "address"
        }
      ],
      "name": "setEscrowAddress",
      "outputs": [],
      "payable": false,
      "stateMutability": "nonpayable",
      "type": "function"
    },
    {
      "constant": true,
      "inputs": [],
      "name": "escrow",
      "outputs": [
        {
          "name": "",
          "type": "address"
        }
      ],
      "payable": false,
      "stateMutability": "view",
      "type": "function"
    },
    {
      "constant": true,
      "inputs": [],
      "name": "maatsOwner",
      "outputs": [
        {
          "name": "",
          "type": "address"
        }
      ],
      "payable": false,
      "stateMutability": "view",
      "type": "function"
    },
    {
      "constant": false,
      "inputs": [],
      "name": "_unpause",
      "outputs": [],
      "payable": false,
      "stateMutability": "nonpayable",
      "type": "function"
    },
    {
      "constant": false,
      "inputs": [
        {
          "name": "_adminAddress",
          "type": "address"
        }
      ],
      "name": "removeStoreAdmin",
      "outputs": [],
      "payable": false,
      "stateMutability": "nonpayable",
      "type": "function"
    },
    {
      "anonymous": false,
      "inputs": [
        {
          "indexed": false,
          "name": "number",
          "type": "uint256"
        }
      ],
      "name": "TestLog",
      "type": "event"
    },
    {
      "anonymous": false,
      "inputs": [
        {
          "indexed": false,
          "name": "_auctionId",
          "type": "uint256"
        },
        {
          "indexed": true,
          "name": "_storeName",
          "type": "string"
        }
      ],
      "name": "LogNewAuctionProduct",
      "type": "event"
    },
    {
      "anonymous": false,
      "inputs": [
        {
          "indexed": false,
          "name": "productId",
          "type": "uint256"
        },
        {
          "indexed": false,
          "name": "startingPrice",
          "type": "uint256"
        },
        {
          "indexed": false,
          "name": "endingPrice",
          "type": "uint256"
        },
        {
          "indexed": false,
          "name": "duration",
          "type": "uint256"
        }
      ],
      "name": "AuctionCreated",
      "type": "event"
    },
    {
      "anonymous": false,
      "inputs": [
        {
          "indexed": false,
          "name": "productId",
          "type": "uint256"
        },
        {
          "indexed": false,
          "name": "totalPrice",
          "type": "uint256"
        },
        {
          "indexed": false,
          "name": "winner",
          "type": "address"
        }
      ],
      "name": "AuctionSuccessful",
      "type": "event"
    },
    {
      "anonymous": false,
      "inputs": [
        {
          "indexed": false,
          "name": "productId",
          "type": "uint256"
        }
      ],
      "name": "AuctionCancelled",
      "type": "event"
    },
    {
      "anonymous": false,
      "inputs": [
        {
          "indexed": true,
          "name": "_productId",
          "type": "uint256"
        },
        {
          "indexed": true,
          "name": "_purchaser",
          "type": "address"
        },
        {
          "indexed": false,
          "name": "_storeName",
          "type": "string"
        }
      ],
      "name": "LogItemBought",
      "type": "event"
    },
    {
      "anonymous": false,
      "inputs": [
        {
          "indexed": true,
          "name": "_storeName",
          "type": "string"
        },
        {
          "indexed": true,
          "name": "_productId",
          "type": "uint256"
        },
        {
          "indexed": false,
          "name": "remaining",
          "type": "uint64"
        }
      ],
      "name": "LogInventoryLow",
      "type": "event"
    },
    {
      "anonymous": false,
      "inputs": [
        {
          "indexed": true,
          "name": "_storeName",
          "type": "string"
        },
        {
          "indexed": true,
          "name": "_productId",
          "type": "uint256"
        }
      ],
      "name": "LogInventoryOut",
      "type": "event"
    },
    {
      "anonymous": false,
      "inputs": [
        {
          "indexed": true,
          "name": "_index",
          "type": "uint256"
        },
        {
          "indexed": true,
          "name": "_productId",
          "type": "uint256"
        },
        {
          "indexed": false,
          "name": "_storeName",
          "type": "string"
        }
      ],
      "name": "LogItemShipped",
      "type": "event"
    },
    {
      "anonymous": false,
      "inputs": [
        {
          "indexed": true,
          "name": "_ownerAddress",
          "type": "address"
        },
        {
          "indexed": true,
          "name": "_storeName",
          "type": "string"
        }
      ],
      "name": "LogStoreOpened",
      "type": "event"
    },
    {
      "anonymous": false,
      "inputs": [
        {
          "indexed": false,
          "name": "_productId",
          "type": "uint256"
        },
        {
          "indexed": true,
          "name": "_storeName",
          "type": "string"
        }
      ],
      "name": "LogNewSetPriceProduct",
      "type": "event"
    },
    {
      "anonymous": false,
      "inputs": [
        {
          "indexed": true,
          "name": "_productId",
          "type": "uint256"
        },
        {
          "indexed": false,
          "name": "inventory",
          "type": "uint64"
        }
      ],
      "name": "LogAddedInventory",
      "type": "event"
    },
    {
      "anonymous": false,
      "inputs": [
        {
          "indexed": true,
          "name": "_ownerAddress",
          "type": "address"
        },
        {
          "indexed": true,
          "name": "_storeName",
          "type": "string"
        }
      ],
      "name": "LogProductRemoved",
      "type": "event"
    },
    {
      "anonymous": false,
      "inputs": [
        {
          "indexed": true,
          "name": "_productId",
          "type": "uint256"
        },
        {
          "indexed": true,
          "name": "_storeName",
          "type": "string"
        },
        {
          "indexed": false,
          "name": "_newPrice",
          "type": "uint128"
        }
      ],
      "name": "LogPriceChange",
      "type": "event"
    },
    {
      "anonymous": false,
      "inputs": [
        {
          "indexed": true,
          "name": "_storeName",
          "type": "string"
        },
        {
          "indexed": false,
          "name": "adminAddress",
          "type": "address"
        }
      ],
      "name": "LogNewAdmin",
      "type": "event"
    },
    {
      "anonymous": false,
      "inputs": [
        {
          "indexed": true,
          "name": "_storeName",
          "type": "string"
        },
        {
          "indexed": false,
          "name": "adminAddress",
          "type": "address"
        }
      ],
      "name": "LogAdminRemoved",
      "type": "event"
    },
    {
      "anonymous": false,
      "inputs": [
        {
          "indexed": true,
          "name": "_ownerAddress",
          "type": "address"
        },
        {
          "indexed": true,
          "name": "_newStoreName",
          "type": "string"
        }
      ],
      "name": "LogNewStore",
      "type": "event"
    },
    {
      "anonymous": false,
      "inputs": [
        {
          "indexed": true,
          "name": "_storeOwnerAddress",
          "type": "address"
        }
      ],
      "name": "LogNewStoreOwner",
      "type": "event"
    },
    {
      "anonymous": false,
      "inputs": [
        {
          "indexed": true,
          "name": "_storeOwner",
          "type": "address"
        }
      ],
      "name": "LogStoreOwnerRemoved",
      "type": "event"
    },
    {
      "anonymous": false,
      "inputs": [
        {
          "indexed": true,
          "name": "_ownerAddress",
          "type": "address"
        },
        {
          "indexed": false,
          "name": "_oldStoreName",
          "type": "string"
        }
      ],
      "name": "LogStoreClosed",
      "type": "event"
    },
    {
      "anonymous": false,
      "inputs": [
        {
          "indexed": true,
          "name": "previousOwner",
          "type": "address"
        },
        {
          "indexed": true,
          "name": "newOwner",
          "type": "address"
        }
      ],
      "name": "LogNewOwner",
      "type": "event"
    },
    {
      "anonymous": false,
      "inputs": [
        {
          "indexed": true,
          "name": "newAdmin",
          "type": "address"
        }
      ],
      "name": "LogNewAdmin",
      "type": "event"
    },
    {
      "anonymous": false,
      "inputs": [
        {
          "indexed": true,
          "name": "revokedAdmin",
          "type": "address"
        }
      ],
      "name": "LogAdminRevoked",
      "type": "event"
    },
    {
      "anonymous": false,
      "inputs": [],
      "name": "Pause",
      "type": "event"
    },
    {
      "anonymous": false,
      "inputs": [],
      "name": "Unpause",
      "type": "event"
    },
    {
      "constant": true,
      "inputs": [
        {
          "name": "auctionId",
          "type": "uint256"
        }
      ],
      "name": "getAuctionExists",
      "outputs": [
        {
          "name": "",
          "type": "bool"
        }
      ],
      "payable": false,
      "stateMutability": "view",
      "type": "function"
    },
    {
      "constant": true,
      "inputs": [
        {
          "name": "ownerofproduct",
          "type": "address"
        },
        {
          "name": "productId",
          "type": "uint8"
        },
        {
          "name": "itemId",
          "type": "uint256"
        }
      ],
      "name": "didBid",
      "outputs": [
        {
          "name": "",
          "type": "bool"
        }
      ],
      "payable": false,
      "stateMutability": "view",
      "type": "function"
    },
    {
      "constant": false,
      "inputs": [
        {
          "name": "_auctionId",
          "type": "uint256"
        },
        {
          "name": "_productId",
          "type": "uint8"
        }
      ],
      "name": "_bid",
      "outputs": [
        {
          "name": "",
          "type": "uint256"
        }
      ],
      "payable": true,
      "stateMutability": "payable",
      "type": "function"
    },
    {
      "constant": false,
      "inputs": [
        {
          "name": "_startingPrice",
          "type": "uint256"
        },
        {
          "name": "_endingPrice",
          "type": "uint256"
        },
        {
          "name": "_duration",
          "type": "uint64"
        }
      ],
      "name": "createAuctionProduct",
      "outputs": [
        {
          "name": "auctionId",
          "type": "uint256"
        }
      ],
      "payable": false,
      "stateMutability": "nonpayable",
      "type": "function"
    },
    {
      "constant": true,
      "inputs": [
        {
          "name": "_startingPrice",
          "type": "uint256"
        },
        {
          "name": "_endingPrice",
          "type": "uint256"
        },
        {
          "name": "_duration",
          "type": "uint256"
        },
        {
          "name": "_secondsPassed",
          "type": "uint256"
        }
      ],
      "name": "_computeCurrentPrice",
      "outputs": [
        {
          "name": "",
          "type": "uint256"
        }
      ],
      "payable": false,
      "stateMutability": "pure",
      "type": "function"
    },
    {
      "constant": true,
      "inputs": [
        {
          "name": "_productId",
          "type": "uint8"
        }
      ],
      "name": "getAuction",
      "outputs": [
        {
          "name": "seller",
          "type": "address"
        },
        {
          "name": "startingPrice",
          "type": "uint256"
        },
        {
          "name": "endingPrice",
          "type": "uint256"
        },
        {
          "name": "duration",
          "type": "uint256"
        },
        {
          "name": "startedAt",
          "type": "uint256"
        }
      ],
      "payable": false,
      "stateMutability": "view",
      "type": "function"
    },
    {
      "constant": true,
      "inputs": [
        {
          "name": "storeOwnerAddress",
          "type": "address"
        }
      ],
      "name": "getCurrentPrice",
      "outputs": [
        {
          "name": "",
          "type": "uint128"
        }
      ],
      "payable": false,
      "stateMutability": "view",
      "type": "function"
    },
    {
      "constant": true,
      "inputs": [
        {
          "name": "_productId",
          "type": "uint8"
        }
      ],
      "name": "getCurrentPrice",
      "outputs": [
        {
          "name": "",
          "type": "uint256"
        }
      ],
      "payable": false,
      "stateMutability": "view",
      "type": "function"
    }
  ],
  "bytecode": "0x60806040526000601355336000806101000a81548173ffffffffffffffffffffffffffffffffffffffff021916908373ffffffffffffffffffffffffffffffffffffffff1602179055506156bb806100586000396000f300608060405260043610610203576000357c0100000000000000000000000000000000000000000000000000000000900463ffffffff168062265dc514610208578063060347e0146102635780631ab63af8146102e057806321c636fe146103b45780632fa8cfac1461041f57806331df27ce146104a0578063320b2ad9146104f757806335b2b5be1461050e5780633ccfd60b1461054f57806340f42c1c1461056657806344d50993146105a95780634db4bc16146106415780635d51aba2146106cb5780635effd33c1461073d5780635f7d53a1146107985780636174fdd1146107db57806378678a32146108365780637e1dcaf71461087957806381e4fc82146108a8578063822b0ceb146108fa5780638456cb591461095557806384cc315b14610984578063904c977e146109ff578063982a359614610a835780639bf474b514610ac8578063a14f258414610b34578063a275999c14610ba1578063bd9cf58e14610bf8578063bdc39f4814610c53578063c4c45dd414610c96578063cb92bfa114610ced578063cbb18cc414610d4c578063cca0400114610dbe578063cff4af1314610e1d578063d0e04fe314610e78578063ddeb63b514610f5a578063e2fdcc1714610f9d578063e698f0bb14610ff4578063eff8fe5a1461104b578063fc8234cb1461108f578063fde57f3b146110a6578063ff956032146110e9575b600080fd5b34801561021457600080fd5b50610249600480360381019080803573ffffffffffffffffffffffffffffffffffffffff169060200190929190505050611175565b604051808215151515815260200191505060405180910390f35b6102ca600480360381019080803560ff169060200190929190803590602001908201803590602001908080601f01602080910402602001604051908101604052809392919081815260200183838082843782019150505050505091929192905050506111cb565b6040518082815260200191505060405180910390f35b3480156102ec57600080fd5b50610321600480360381019080803573ffffffffffffffffffffffffffffffffffffffff16906020019092919050505061147d565b6040518080602001841515151581526020018360ff1660ff168152602001828103825285818151815260200191508051906020019080838360005b8381101561037757808201518184015260208101905061035c565b50505050905090810190601f1680156103a45780820380516001836020036101000a031916815260200191505b5094505050505060405180910390f35b3480156103c057600080fd5b506103f5600480360381019080803573ffffffffffffffffffffffffffffffffffffffff169060200190929190505050611559565b604051808267ffffffffffffffff1667ffffffffffffffff16815260200191505060405180910390f35b34801561042b57600080fd5b50610486600480360381019080803590602001908201803590602001908080601f01602080910402602001604051908101604052809392919081815260200183838082843782019150505050505091929192905050506115d5565b604051808215151515815260200191505060405180910390f35b3480156104ac57600080fd5b506104e1600480360381019080803573ffffffffffffffffffffffffffffffffffffffff169060200190929190505050611657565b6040518082815260200191505060405180910390f35b34801561050357600080fd5b5061050c61166f565b005b61053960048036038101908080359060200190929190803560ff169060200190929190505050611735565b6040518082815260200191505060405180910390f35b34801561055b57600080fd5b506105646119dc565b005b34801561057257600080fd5b506105a7600480360381019080803573ffffffffffffffffffffffffffffffffffffffff169060200190929190505050611ab8565b005b3480156105b557600080fd5b506105d460048036038101908080359060200190929190505050611cd1565b604051808373ffffffffffffffffffffffffffffffffffffffff1673ffffffffffffffffffffffffffffffffffffffff168152602001826fffffffffffffffffffffffffffffffff166fffffffffffffffffffffffffffffffff1681526020019250505060405180910390f35b34801561064d57600080fd5b506106b5600480360381019080803560ff169060200190929190803590602001908201803590602001908080601f0160208091040260200160405190810160405280939291908181526020018383808284378201915050505050509192919290505050611d40565b6040518082815260200191505060405180910390f35b3480156106d757600080fd5b50610723600480360381019080803573ffffffffffffffffffffffffffffffffffffffff16906020019092919080359060200190929190803560ff169060200190929190505050611ef2565b604051808215151515815260200191505060405180910390f35b34801561074957600080fd5b5061077e600480360381019080803573ffffffffffffffffffffffffffffffffffffffff169060200190929190505050611fb4565b604051808215151515815260200191505060405180910390f35b3480156107a457600080fd5b506107d9600480360381019080803573ffffffffffffffffffffffffffffffffffffffff169060200190929190505050611fd4565b005b3480156107e757600080fd5b5061081c600480360381019080803573ffffffffffffffffffffffffffffffffffffffff169060200190929190505050612151565b604051808215151515815260200191505060405180910390f35b34801561084257600080fd5b50610877600480360381019080803573ffffffffffffffffffffffffffffffffffffffff1690602001909291905050506124c3565b005b34801561088557600080fd5b5061088e61278c565b604051808215151515815260200191505060405180910390f35b3480156108b457600080fd5b506108e060048036038101908080359060200190929190803560ff1690602001909291905050506128e8565b604051808215151515815260200191505060405180910390f35b34801561090657600080fd5b5061093b600480360381019080803573ffffffffffffffffffffffffffffffffffffffff169060200190929190505050612c5a565b604051808215151515815260200191505060405180910390f35b34801561096157600080fd5b5061096a612cd1565b604051808215151515815260200191505060405180910390f35b34801561099057600080fd5b506109c5600480360381019080803573ffffffffffffffffffffffffffffffffffffffff169060200190929190505050612ce4565b60405180826fffffffffffffffffffffffffffffffff166fffffffffffffffffffffffffffffffff16815260200191505060405180910390f35b348015610a0b57600080fd5b50610a4960048036038101908080356fffffffffffffffffffffffffffffffff169060200190929190803560ff169060200190929190505050612d68565b60405180826fffffffffffffffffffffffffffffffff166fffffffffffffffffffffffffffffffff16815260200191505060405180910390f35b348015610a8f57600080fd5b50610aae60048036038101908080359060200190929190505050612f5e565b604051808215151515815260200191505060405180910390f35b348015610ad457600080fd5b50610b0a600480360381019080803560ff169060200190929190803567ffffffffffffffff169060200190929190505050612fb2565b604051808267ffffffffffffffff1667ffffffffffffffff16815260200191505060405180910390f35b348015610b4057600080fd5b50610b8560048036038101908080356fffffffffffffffffffffffffffffffff169060200190929190803567ffffffffffffffff1690602001909291905050506132d7565b604051808260ff1660ff16815260200191505060405180910390f35b348015610bad57600080fd5b50610be2600480360381019080803573ffffffffffffffffffffffffffffffffffffffff169060200190929190505050613678565b6040518082815260200191505060405180910390f35b348015610c0457600080fd5b50610c39600480360381019080803573ffffffffffffffffffffffffffffffffffffffff1690602001909291905050506136c1565b604051808215151515815260200191505060405180910390f35b348015610c5f57600080fd5b50610c94600480360381019080803573ffffffffffffffffffffffffffffffffffffffff1690602001909291905050506136e1565b005b348015610ca257600080fd5b50610cd7600480360381019080803573ffffffffffffffffffffffffffffffffffffffff16906020019092919050505061395e565b6040518082815260200191505060405180910390f35b348015610cf957600080fd5b50610d3660048036038101908080359060200190929190803590602001909291908035906020019092919080359060200190929190505050613c41565b6040518082815260200191505060405180910390f35b348015610d5857600080fd5b50610da4600480360381019080803573ffffffffffffffffffffffffffffffffffffffff169060200190929190803560ff16906020019092919080359060200190929190505050613c81565b604051808215151515815260200191505060405180910390f35b348015610dca57600080fd5b50610e076004803603810190808035906020019092919080359060200190929190803567ffffffffffffffff169060200190929190505050613d44565b6040518082815260200191505060405180910390f35b348015610e2957600080fd5b50610e5e600480360381019080803573ffffffffffffffffffffffffffffffffffffffff169060200190929190505050614144565b604051808215151515815260200191505060405180910390f35b348015610e8457600080fd5b50610edf600480360381019080803590602001908201803590602001908080601f01602080910402602001604051908101604052809392919081815260200183838082843782019150505050505091929192905050506141cb565b6040518080602001828103825283818151815260200191508051906020019080838360005b83811015610f1f578082015181840152602081019050610f04565b50505050905090810190601f168015610f4c5780820380516001836020036101000a031916815260200191505b509250505060405180910390f35b348015610f6657600080fd5b50610f9b600480360381019080803573ffffffffffffffffffffffffffffffffffffffff1690602001909291905050506146cc565b005b348015610fa957600080fd5b50610fb2614771565b604051808273ffffffffffffffffffffffffffffffffffffffff1673ffffffffffffffffffffffffffffffffffffffff16815260200191505060405180910390f35b34801561100057600080fd5b50611009614797565b604051808273ffffffffffffffffffffffffffffffffffffffff1673ffffffffffffffffffffffffffffffffffffffff16815260200191505060405180910390f35b34801561105757600080fd5b50611079600480360381019080803560ff1690602001909291905050506147bc565b6040518082815260200191505060405180910390f35b34801561109b57600080fd5b506110a46147fc565b005b3480156110b257600080fd5b506110e7600480360381019080803573ffffffffffffffffffffffffffffffffffffffff1690602001909291905050506148c2565b005b3480156110f557600080fd5b50611117600480360381019080803560ff169060200190929190505050614b55565b604051808673ffffffffffffffffffffffffffffffffffffffff1673ffffffffffffffffffffffffffffffffffffffff1681526020018581526020018481526020018381526020018281526020019550505050505060405180910390f35b6000600f60008373ffffffffffffffffffffffffffffffffffffffff1673ffffffffffffffffffffffffffffffffffffffff16815260200190815260200160002060009054906101000a900460ff169050919050565b6000806000806000801515600760009054906101000a900460ff1615151415156111f457600080fd5b600a866040518082805190602001908083835b60208310151561122c5780518252602082019150602081019050602083039250611207565b6001836020036101000a038019825116818451168082178552505050505050905001915050908152602001604051809103902060009054906101000a900473ffffffffffffffffffffffffffffffffffffffff169350600e60008573ffffffffffffffffffffffffffffffffffffffff1673ffffffffffffffffffffffffffffffffffffffff16815260200190815260200160002092506112cd8787611d40565b94503491508260010160008860ff1660ff16815260200190815260200160002060000160009054906101000a90046fffffffffffffffffffffffffffffffff166fffffffffffffffffffffffffffffffff16821015151561132d57600080fd5b6113378483614c7b565b60028360010160008960ff1660ff1681526020019081526020016000206001018681548110151561136457fe5b90600052602060002090602091828204019190066101000a81548160ff0219169083600381111561139157fe5b021790555084601260003373ffffffffffffffffffffffffffffffffffffffff1673ffffffffffffffffffffffffffffffffffffffff168152602001908152602001600020819055508260010160008860ff1660ff168152602001908152602001600020600201600081819054906101000a900467ffffffffffffffff16809291906001900391906101000a81548167ffffffffffffffff021916908367ffffffffffffffff160217905550508260010160008860ff1660ff16815260200190815260200160002060020160009054906101000a900467ffffffffffffffff1690505050505092915050565b6009602052806000526040600020600091509050806000018054600181600116156101000203166002900480601f0160208091040260200160405190810160405280929190818152602001828054600181600116156101000203166002900480156115295780601f106114fe57610100808354040283529160200191611529565b820191906000526020600020905b81548152906001019060200180831161150c57829003601f168201915b5050505050908060020160009054906101000a900460ff16908060090160009054906101000a900460ff16905083565b600080600e60008473ffffffffffffffffffffffffffffffffffffffff1673ffffffffffffffffffffffffffffffffffffffff16815260200190815260200160002090508060010160008060ff16815260200190815260200160002060020160009054906101000a900467ffffffffffffffff16915050919050565b6000600d826040518082805190602001908083835b60208310151561160f57805182526020820191506020810190506020830392506115ea565b6001836020036101000a038019825116818451168082178552505050505050905001915050908152602001604051809103902060009054906101000a900460ff169050919050565b60126020528060005260406000206000915090505481565b6000809054906101000a900473ffffffffffffffffffffffffffffffffffffffff1673ffffffffffffffffffffffffffffffffffffffff163373ffffffffffffffffffffffffffffffffffffffff161415156116ca57600080fd5b60001515600760009054906101000a900460ff1615151415156116ec57600080fd5b6001600760006101000a81548160ff0219169083151502179055507f6985a02210a168e66602d3235cb6db0e70f92b3ba4d376a33c0f3d9434bff62560405160405180910390a1565b60008060008060008060001515600760009054906101000a900460ff16151514151561176057600080fd5b60146000898152602001908152602001600020945061177e85614d7b565b151561178957600080fd5b34935061179585614da9565b92508284101515156117a657600080fd5b8460000160009054906101000a900473ffffffffffffffffffffffffffffffffffffffff1691506117d688614e9c565b6117e08285614c7b565b600e60008373ffffffffffffffffffffffffffffffffffffffff1673ffffffffffffffffffffffffffffffffffffffff168152602001908152602001600020905060028160010160008960ff1660ff168152602001908152602001600020600101600081548110151561184f57fe5b90600052602060002090602091828204019190066101000a81548160ff0219169083600381111561187c57fe5b02179055503373ffffffffffffffffffffffffffffffffffffffff168760ff167f21b69e57dafb192d2fc9ec6fabee5106b55506c43564934190281e68e3fd43a883600001604051808060200182810382528381815460018160011615610100020316600290048152602001915080546001816001161561010002031660029004801561194a5780601f1061191f5761010080835404028352916020019161194a565b820191906000526020600020905b81548152906001019060200180831161192d57829003601f168201915b50509250505060405180910390a37f4fcc30d90a842164dd58501ab874a101a3749c3d4747139cefe7c876f4ccebd2878433604051808460ff1681526020018381526020018273ffffffffffffffffffffffffffffffffffffffff1673ffffffffffffffffffffffffffffffffffffffff168152602001935050505060405180910390a1829550505050505092915050565b6000809054906101000a900473ffffffffffffffffffffffffffffffffffffffff1673ffffffffffffffffffffffffffffffffffffffff163373ffffffffffffffffffffffffffffffffffffffff16141515611a3757600080fd5b6000809054906101000a900473ffffffffffffffffffffffffffffffffffffffff1673ffffffffffffffffffffffffffffffffffffffff166108fc3073ffffffffffffffffffffffffffffffffffffffff16319081150290604051600060405180830381858888f19350505050158015611ab5573d6000803e3d6000fd5b50565b6000806000809054906101000a900473ffffffffffffffffffffffffffffffffffffffff1673ffffffffffffffffffffffffffffffffffffffff163373ffffffffffffffffffffffffffffffffffffffff16141515611b1657600080fd5b60001515600760009054906101000a900460ff161515141515611b3857600080fd5b60009150600090505b60048111158015611b56575060001515821515145b15611cbc578273ffffffffffffffffffffffffffffffffffffffff16600182600581101515611b8157fe5b0160009054906101000a900473ffffffffffffffffffffffffffffffffffffffff1673ffffffffffffffffffffffffffffffffffffffff161415611caf576000600182600581101515611bd057fe5b0160006101000a81548173ffffffffffffffffffffffffffffffffffffffff021916908373ffffffffffffffffffffffffffffffffffffffff1602179055506000600660008573ffffffffffffffffffffffffffffffffffffffff1673ffffffffffffffffffffffffffffffffffffffff16815260200190815260200160002060006101000a81548160ff021916908315150217905550600191508273ffffffffffffffffffffffffffffffffffffffff167fdca59b6371f7db6faad5c9931588f735722795c7b8ea859824e0afc8b2c70a4f60405160405180910390a25b8080600101915050611b41565b60011515821515141515611ccc57fe5b505050565b600881815481101515611ce057fe5b90600052602060002090600202016000915090508060000160009054906101000a900473ffffffffffffffffffffffffffffffffffffffff16908060010160009054906101000a90046fffffffffffffffffffffffffffffffff16905082565b60008060008060008060009450600a876040518082805190602001908083835b602083101515611d855780518252602082019150602081019050602083039250611d60565b6001836020036101000a038019825116818451168082178552505050505050905001915050908152602001604051809103902060009054906101000a900473ffffffffffffffffffffffffffffffffffffffff169250600e60008473ffffffffffffffffffffffffffffffffffffffff1673ffffffffffffffffffffffffffffffffffffffff16815260200190815260200160002091505b8160010160008960ff1660ff1681526020019081526020016000206001018054905081108015611e51575060001515851515145b15611ed45760006003811115611e6357fe5b8260010160008a60ff1660ff16815260200190815260200160002060010182815481101515611e8e57fe5b90600052602060002090602091828204019190069054906101000a900460ff166003811115611eb957fe5b1415611ec757809350600194505b8080600101915050611e1d565b60011515851515141515611ee457fe5b839550505050505092915050565b600080600e60008673ffffffffffffffffffffffffffffffffffffffff1673ffffffffffffffffffffffffffffffffffffffff1681526020019081526020016000209050600380811115611f4257fe5b8160010160008560ff1660ff16815260200190815260200160002060010185815481101515611f6d57fe5b90600052602060002090602091828204019190069054906101000a900460ff166003811115611f9857fe5b1415611fa75760019150611fac565b600091505b509392505050565b600b6020528060005260406000206000915054906101000a900460ff1681565b60008060009054906101000a900473ffffffffffffffffffffffffffffffffffffffff1673ffffffffffffffffffffffffffffffffffffffff163373ffffffffffffffffffffffffffffffffffffffff1614151561203157600080fd5b60001515600760009054906101000a900460ff16151514151561205357600080fd5b600073ffffffffffffffffffffffffffffffffffffffff168273ffffffffffffffffffffffffffffffffffffffff161415151561208f57600080fd5b6000809054906101000a900473ffffffffffffffffffffffffffffffffffffffff169050816000806101000a81548173ffffffffffffffffffffffffffffffffffffffff021916908373ffffffffffffffffffffffffffffffffffffffff1602179055508073ffffffffffffffffffffffffffffffffffffffff168273ffffffffffffffffffffffffffffffffffffffff167f1f8d7d25344642d919d55999e4664aa452a5f424bc0936ceb9c2b300db7dcbd960405160405180910390a35050565b60008060009054906101000a900473ffffffffffffffffffffffffffffffffffffffff1673ffffffffffffffffffffffffffffffffffffffff163373ffffffffffffffffffffffffffffffffffffffff1614806121fe575060011515600660003373ffffffffffffffffffffffffffffffffffffffff1673ffffffffffffffffffffffffffffffffffffffff16815260200190815260200160002060009054906101000a900460ff161515145b151561220957600080fd5b60011515600b60008473ffffffffffffffffffffffffffffffffffffffff1673ffffffffffffffffffffffffffffffffffffffff16815260200190815260200160002060009054906101000a900460ff16151514151561226857600080fd5b6000600960008473ffffffffffffffffffffffffffffffffffffffff1673ffffffffffffffffffffffffffffffffffffffff16815260200190815260200160002060020160006101000a81548160ff0219169083151502179055508173ffffffffffffffffffffffffffffffffffffffff167f70e9219a99e9bfc211e7aa1236b656ca826ba23e3e9e5cbdc2f16e0c7eb8fad9600960008573ffffffffffffffffffffffffffffffffffffffff1673ffffffffffffffffffffffffffffffffffffffff16815260200190815260200160002060000160405180806020018281038252838181546001816001161561010002031660029004815260200191508054600181600116156101000203166002900480156123c65780601f1061239b576101008083540402835291602001916123c6565b820191906000526020600020905b8154815290600101906020018083116123a957829003601f168201915b50509250505060405180910390a26000600b60008473ffffffffffffffffffffffffffffffffffffffff1673ffffffffffffffffffffffffffffffffffffffff16815260200190815260200160002060006101000a81548160ff0219169083151502179055508173ffffffffffffffffffffffffffffffffffffffff167fe6547a945aa917d8f8b8a71a98062b03570c5ab79d6f47aa64dab5ae6483e0c860405160405180910390a2600b60008373ffffffffffffffffffffffffffffffffffffffff1673ffffffffffffffffffffffffffffffffffffffff16815260200190815260200160002060009054906101000a900460ff169050919050565b60008060008060009054906101000a900473ffffffffffffffffffffffffffffffffffffffff1673ffffffffffffffffffffffffffffffffffffffff163373ffffffffffffffffffffffffffffffffffffffff1614151561252357600080fd5b60001515600760009054906101000a900460ff16151514151561254557600080fd5b600073ffffffffffffffffffffffffffffffffffffffff168473ffffffffffffffffffffffffffffffffffffffff161415151561258157600080fd5b5b60048311151561260c578373ffffffffffffffffffffffffffffffffffffffff166001846005811015156125b257fe5b0160009054906101000a900473ffffffffffffffffffffffffffffffffffffffff1673ffffffffffffffffffffffffffffffffffffffff161415612601576002600114151561260057600080fd5b5b826001019250612582565b600091505b60048111158015612626575060001515821515145b1561277657600060018260058110151561263c57fe5b0160009054906101000a900473ffffffffffffffffffffffffffffffffffffffff1673ffffffffffffffffffffffffffffffffffffffff161415612769578360018260058110151561268a57fe5b0160006101000a81548173ffffffffffffffffffffffffffffffffffffffff021916908373ffffffffffffffffffffffffffffffffffffffff1602179055506001600660008673ffffffffffffffffffffffffffffffffffffffff1673ffffffffffffffffffffffffffffffffffffffff16815260200190815260200160002060006101000a81548160ff021916908315150217905550600191508373ffffffffffffffffffffffffffffffffffffffff167f39e7d4b9ba48f55a740a5192809dbc498fa12724c030b37dab126a3f6774c0f360405160405180910390a25b8080600101915050612611565b6001151582151514151561278657fe5b50505050565b6000806000600960003373ffffffffffffffffffffffffffffffffffffffff1673ffffffffffffffffffffffffffffffffffffffff1681526020019081526020016000209050600d8160000160405180828054600181600116156101000203166002900480156128335780601f10612811576101008083540402835291820191612833565b820191906000526020600020905b81548152906001019060200180831161281f575b5050915050908152602001604051809103902060009054906101000a900460ff16151561285f57600080fd5b60001515600760009054906101000a900460ff16151514151561288157600080fd5b600960003373ffffffffffffffffffffffffffffffffffffffff1673ffffffffffffffffffffffffffffffffffffffff168152602001908152602001600020915060018260020160006101000a81548160ff02191690831515021790555060019250505090565b60008060001515600760009054906101000a900460ff16151514151561290d57600080fd5b6000600e60003373ffffffffffffffffffffffffffffffffffffffff1673ffffffffffffffffffffffffffffffffffffffff1681526020019081526020016000209050600d8160000160405180828054600181600116156101000203166002900480156129b15780601f1061298f5761010080835404028352918201916129b1565b820191906000526020600020905b81548152906001019060200180831161299d575b5050915050908152602001604051809103902060009054906101000a900460ff1615156129dd57600080fd5b600e60003373ffffffffffffffffffffffffffffffffffffffff1673ffffffffffffffffffffffffffffffffffffffff168152602001908152602001600020915060026003811115612a2b57fe5b8260010160008660ff1660ff16815260200190815260200160002060010186815481101515612a5657fe5b90600052602060002090602091828204019190069054906101000a900460ff166003811115612a8157fe5b141515612a8d57600080fd5b6000925060038260010160008660ff1660ff16815260200190815260200160002060010186815481101515612abe57fe5b90600052602060002090602091828204019190066101000a81548160ff02191690836003811115612aeb57fe5b0217905550600192508360ff16857f8c27a03ba49022d57890c2993ba9a892600fe4449c319742d4cfc8afe51b541d846000016040518080602001828103825283818154600181600116156101000203166002900481526020019150805460018160011615610100020316600290048015612ba75780601f10612b7c57610100808354040283529160200191612ba7565b820191906000526020600020905b815481529060010190602001808311612b8a57829003601f168201915b50509250505060405180910390a3612c52600a836000016040518082805460018160011615610100020316600290048015612c195780601f10612bf7576101008083540402835291820191612c19565b820191906000526020600020905b815481529060010190602001808311612c05575b5050915050908152602001604051809103902060009054906101000a900473ffffffffffffffffffffffffffffffffffffffff16614f58565b505092915050565b6000801515600760009054906101000a900460ff161515141515612c7d57600080fd5b600660008373ffffffffffffffffffffffffffffffffffffffff1673ffffffffffffffffffffffffffffffffffffffff16815260200190815260200160002060009054906101000a900460ff169050919050565b600760009054906101000a900460ff1681565b600080600e60008473ffffffffffffffffffffffffffffffffffffffff1673ffffffffffffffffffffffffffffffffffffffff16815260200190815260200160002090508060010160008060ff16815260200190815260200160002060000160009054906101000a90046fffffffffffffffffffffffffffffffff16915050919050565b6000806000600960003373ffffffffffffffffffffffffffffffffffffffff1673ffffffffffffffffffffffffffffffffffffffff1681526020019081526020016000209050600d816000016040518082805460018160011615610100020316600290048015612e0f5780601f10612ded576101008083540402835291820191612e0f565b820191906000526020600020905b815481529060010190602001808311612dfb575b5050915050908152602001604051809103902060009054906101000a900460ff161515612e3b57600080fd5b60001515600760009054906101000a900460ff161515141515612e5d57600080fd5b600e60003373ffffffffffffffffffffffffffffffffffffffff1673ffffffffffffffffffffffffffffffffffffffff16815260200190815260200160002091506000856fffffffffffffffffffffffffffffffff1610151515612ec057600080fd5b600015158260010160008660ff1660ff16815260200190815260200160002060020160089054906101000a900460ff161515141515612efe57600080fd5b848260010160008660ff1660ff16815260200190815260200160002060000160006101000a8154816fffffffffffffffffffffffffffffffff02191690836fffffffffffffffffffffffffffffffff160217905550849250505092915050565b6000806014600084815260200190815260200160002060020160089054906101000a900467ffffffffffffffff1667ffffffffffffffff169050600081141515612fab5760019150612fac565b5b50919050565b6000806000806000600e60003373ffffffffffffffffffffffffffffffffffffffff1673ffffffffffffffffffffffffffffffffffffffff1681526020019081526020016000209050600d81600001604051808280546001816001161561010002031660029004801561305c5780601f1061303a57610100808354040283529182019161305c565b820191906000526020600020905b815481529060010190602001808311613048575b5050915050908152602001604051809103902060009054906101000a900460ff16151561308857600080fd5b60001515600760009054906101000a900460ff1615151415156130aa57600080fd5b600e60003373ffffffffffffffffffffffffffffffffffffffff1673ffffffffffffffffffffffffffffffffffffffff1681526020019081526020016000209350858460010160008960ff1660ff16815260200190815260200160002060020160008282829054906101000a900467ffffffffffffffff160192506101000a81548167ffffffffffffffff021916908367ffffffffffffffff1602179055508360010160008860ff1660ff16815260200190815260200160002060020160089054906101000a900460ff1692506000151583151514151561318a57600080fd5b5b8567ffffffffffffffff16821015613217578360010160008860ff1660ff1681526020019081526020016000206001016000908060018154018082558091505090600182039060005260206000209060209182820401919006909192909190916101000a81548160ff0219169083600381111561320457fe5b021790555050818060010192505061318b565b8660ff167fdb3cb3bd3aa8b0116684a1673c77eb69da47689f478ec18c9b1b42042bff3ebc8560010160008a60ff1660ff16815260200190815260200160002060020160009054906101000a900467ffffffffffffffff16604051808267ffffffffffffffff1667ffffffffffffffff16815260200191505060405180910390a28360010160008860ff1660ff16815260200190815260200160002060020160009054906101000a900467ffffffffffffffff1694505050505092915050565b6000806132e26152c9565b6000801515600760009054906101000a900460ff16151514151561330557600080fd5b6000600e60003373ffffffffffffffffffffffffffffffffffffffff1673ffffffffffffffffffffffffffffffffffffffff1681526020019081526020016000209050600d8160000160405180828054600181600116156101000203166002900480156133a95780601f106133875761010080835404028352918201916133a9565b820191906000526020600020905b815481529060010190602001808311613395575b5050915050908152602001604051809103902060009054906101000a900460ff1615156133d557600080fd5b600e60003373ffffffffffffffffffffffffffffffffffffffff1673ffffffffffffffffffffffffffffffffffffffff1681526020019081526020016000209350608060405190810160405280886fffffffffffffffffffffffffffffffff168152602001600060405190808252806020026020018201604052801561346a5781602001602082028038833980820191505090505b5081526020018767ffffffffffffffff1681526020016000151581525092508360090160009054906101000a900460ff169450828460010160008760ff1660ff16815260200190815260200160002060008201518160000160006101000a8154816fffffffffffffffffffffffffffffffff02191690836fffffffffffffffffffffffffffffffff1602179055506020820151816001019080519060200190613514929190615310565b5060408201518160020160006101000a81548167ffffffffffffffff021916908367ffffffffffffffff16021790555060608201518160020160086101000a81548160ff0219169083151502179055509050506001601060008660090160009054906101000a900460ff1660ff1660ff16815260200190815260200160002060006101000a81548160ff02191690831515021790555083600901600081819054906101000a900460ff168092919060010191906101000a81548160ff021916908360ff160217905550505b8567ffffffffffffffff1682101561366b578360010160008660ff1660ff1681526020019081526020016000206001016000908060018154018082558091505090600182039060005260206000209060209182820401919006909192909190916101000a81548160ff0219169083600381111561365857fe5b02179055505081806001019250506135df565b8494505050505092915050565b6000601260008373ffffffffffffffffffffffffffffffffffffffff1673ffffffffffffffffffffffffffffffffffffffff168152602001908152602001600020549050919050565b600c6020528060005260406000206000915054906101000a900460ff1681565b6000806000801515600760009054906101000a900460ff16151514151561370757600080fd5b6000600e60003373ffffffffffffffffffffffffffffffffffffffff1673ffffffffffffffffffffffffffffffffffffffff1681526020019081526020016000209050600d8160000160405180828054600181600116156101000203166002900480156137ab5780601f106137895761010080835404028352918201916137ab565b820191906000526020600020905b815481529060010190602001808311613797575b5050915050908152602001604051809103902060009054906101000a900460ff1615156137d757600080fd5b600e60003373ffffffffffffffffffffffffffffffffffffffff1673ffffffffffffffffffffffffffffffffffffffff168152602001908152602001600020935060009250600191505b60058211158015613836575060001515831515145b15613947576000846003018360068110151561384e57fe5b0160009054906101000a900473ffffffffffffffffffffffffffffffffffffffff1673ffffffffffffffffffffffffffffffffffffffff16141561393a5784846003018360068110151561389e57fe5b0160006101000a81548173ffffffffffffffffffffffffffffffffffffffff021916908373ffffffffffffffffffffffffffffffffffffffff160217905550600192506001600f60008773ffffffffffffffffffffffffffffffffffffffff1673ffffffffffffffffffffffffffffffffffffffff16815260200190815260200160002060006101000a81548160ff0219169083151502179055505b8180600101925050613821565b6001151583151514151561395757fe5b5050505050565b60006139686153bf565b60008060009054906101000a900473ffffffffffffffffffffffffffffffffffffffff1673ffffffffffffffffffffffffffffffffffffffff163373ffffffffffffffffffffffffffffffffffffffff161480613a15575060011515600660003373ffffffffffffffffffffffffffffffffffffffff1673ffffffffffffffffffffffffffffffffffffffff16815260200190815260200160002060009054906101000a900460ff161515145b1515613a2057600080fd5b60001515600760009054906101000a900460ff161515141515613a4257600080fd5b60001515600b60008673ffffffffffffffffffffffffffffffffffffffff1673ffffffffffffffffffffffffffffffffffffffff16815260200190815260200160002060009054906101000a900460ff161515141515613aa157600080fd5b60408051908101604052808573ffffffffffffffffffffffffffffffffffffffff16815260200160006fffffffffffffffffffffffffffffffff16815250915060016008839080600181540180825580915050906001820390600052602060002090600202016000909192909190915060008201518160000160006101000a81548173ffffffffffffffffffffffffffffffffffffffff021916908373ffffffffffffffffffffffffffffffffffffffff16021790555060208201518160010160006101000a8154816fffffffffffffffffffffffffffffffff02191690836fffffffffffffffffffffffffffffffff16021790555050500390506001600b60008673ffffffffffffffffffffffffffffffffffffffff1673ffffffffffffffffffffffffffffffffffffffff16815260200190815260200160002060006101000a81548160ff0219169083151502179055508373ffffffffffffffffffffffffffffffffffffffff167f64a6cb4c2615e9c9ee211131f9fc94aaa6238a3c255423b75ba43ef01ca42dcd60405160405180910390a28092505050919050565b6000806000808585101515613c5857869350613c76565b878703925085858402811515613c6a57fe5b05915081880190508093505b505050949350505050565b600080600e60008673ffffffffffffffffffffffffffffffffffffffff1673ffffffffffffffffffffffffffffffffffffffff168152602001908152602001600020905060026003811115613cd257fe5b8160010160008660ff1660ff16815260200190815260200160002060010184815481101515613cfd57fe5b90600052602060002090602091828204019190069054906101000a900460ff166003811115613d2857fe5b1415613d375760019150613d3c565b600091505b509392505050565b600080613d4f6152c9565b600080600080600e60003373ffffffffffffffffffffffffffffffffffffffff1673ffffffffffffffffffffffffffffffffffffffff1681526020019081526020016000209050600d816000016040518082805460018160011615610100020316600290048015613df75780601f10613dd5576101008083540402835291820191613df7565b820191906000526020600020905b815481529060010190602001808311613de3575b5050915050908152602001604051809103902060009054906101000a900460ff161515613e2357600080fd5b60001515600760009054906101000a900460ff161515141515613e4557600080fd5b600e60003373ffffffffffffffffffffffffffffffffffffffff1673ffffffffffffffffffffffffffffffffffffffff16815260200190815260200160002095506080604051908101604052808b6fffffffffffffffffffffffffffffffff1681526020016000604051908082528060200260200182016040528015613eda5781602001602082028038833980820191505090505b508152602001600167ffffffffffffffff1681526020016001151581525094508560090160009054906101000a900460ff169350848660010160008660ff1660ff16815260200190815260200160002060008201518160000160006101000a8154816fffffffffffffffffffffffffffffffff02191690836fffffffffffffffffffffffffffffffff1602179055506020820151816001019080519060200190613f85929190615310565b5060408201518160020160006101000a81548167ffffffffffffffff021916908367ffffffffffffffff16021790555060608201518160020160086101000a81548160ff02191690831515021790555090505060018660090160008282829054906101000a900460ff160192506101000a81548160ff021916908360ff160217905550600a8660000160405180828054600181600116156101000203166002900480156140695780601f10614047576101008083540402835291820191614069565b820191906000526020600020905b815481529060010190602001808311614055575b5050915050908152602001604051809103902060009054906101000a900473ffffffffffffffffffffffffffffffffffffffff1692508560010160008560ff1660ff1681526020019081526020016000206001016001908060018154018082558091505090600182039060005260206000209060209182820401919006909192909190916101000a81548160ff0219169083600381111561410657fe5b02179055505060135491506001601354016013819055506141348a8a8a67ffffffffffffffff168686615030565b8696505050505050509392505050565b600080600e60008473ffffffffffffffffffffffffffffffffffffffff1673ffffffffffffffffffffffffffffffffffffffff16815260200190815260200160002090506010600060018360090160009054906101000a900460ff160360ff1660ff16815260200190815260200160002060009054906101000a900460ff16915050919050565b60606141d5615401565b6141dd615424565b60001515600760009054906101000a900460ff1615151415156141ff57600080fd5b60011515600b60003373ffffffffffffffffffffffffffffffffffffffff1673ffffffffffffffffffffffffffffffffffffffff16815260200190815260200160002060009054906101000a900460ff16151514151561425e57600080fd5b60001515600c60003373ffffffffffffffffffffffffffffffffffffffff1673ffffffffffffffffffffffffffffffffffffffff16815260200190815260200160002060009054906101000a900460ff1615151415156142bd57600080fd5b60001515600d856040518082805190602001908083835b6020831015156142f957805182526020820191506020810190506020830392506142d4565b6001836020036101000a038019825116818451168082178552505050505050905001915050908152602001604051809103902060009054906101000a900460ff16151514151561434857600080fd5b608060405190810160405280858152602001600015158152602001838152602001600060ff16815250905080600960003373ffffffffffffffffffffffffffffffffffffffff1673ffffffffffffffffffffffffffffffffffffffff16815260200190815260200160002060008201518160000190805190602001906143cf929190615459565b5060208201518160020160006101000a81548160ff0219169083151502179055506040820151816003019060066144079291906154d9565b5060608201518160090160006101000a81548160ff021916908360ff16021790555090505033600a82600001516040518082805190602001908083835b6020831015156144695780518252602082019150602081019050602083039250614444565b6001836020036101000a038019825116818451168082178552505050505050905001915050908152602001604051809103902060006101000a81548173ffffffffffffffffffffffffffffffffffffffff021916908373ffffffffffffffffffffffffffffffffffffffff1602179055506001600d82600001516040518082805190602001908083835b60208310151561451857805182526020820191506020810190506020830392506144f3565b6001836020036101000a038019825116818451168082178552505050505050905001915050908152602001604051809103902060006101000a81548160ff021916908315150217905550338160400151600060068110151561457657fe5b602002019073ffffffffffffffffffffffffffffffffffffffff16908173ffffffffffffffffffffffffffffffffffffffff168152505080600e60003373ffffffffffffffffffffffffffffffffffffffff1673ffffffffffffffffffffffffffffffffffffffff1681526020019081526020016000206000820151816000019080519060200190614609929190615459565b5060208201518160020160006101000a81548160ff0219169083151502179055506040820151816003019060066146419291906154d9565b5060608201518160090160006101000a81548160ff021916908360ff1602179055509050506001600c60003373ffffffffffffffffffffffffffffffffffffffff1673ffffffffffffffffffffffffffffffffffffffff16815260200190815260200160002060006101000a81548160ff021916908315150217905550806000015192505050919050565b60008060009054906101000a900473ffffffffffffffffffffffffffffffffffffffff1673ffffffffffffffffffffffffffffffffffffffff163373ffffffffffffffffffffffffffffffffffffffff1614151561472957600080fd5b81905080601160006101000a81548173ffffffffffffffffffffffffffffffffffffffff021916908373ffffffffffffffffffffffffffffffffffffffff1602179055505050565b601160009054906101000a900473ffffffffffffffffffffffffffffffffffffffff1681565b6000809054906101000a900473ffffffffffffffffffffffffffffffffffffffff1681565b600080601460008460ff16815260200190815260200160002090506147e081614d7b565b15156147eb57600080fd5b6147f481614da9565b915050919050565b6000809054906101000a900473ffffffffffffffffffffffffffffffffffffffff1673ffffffffffffffffffffffffffffffffffffffff163373ffffffffffffffffffffffffffffffffffffffff1614151561485757600080fd5b60011515600760009054906101000a900460ff16151514151561487957600080fd5b6000600760006101000a81548160ff0219169083151502179055507f7805862f689e2f13df9f062ff482ad3ad112aca9e0847911ed832e158c525b3360405160405180910390a1565b600080600080600960003373ffffffffffffffffffffffffffffffffffffffff1673ffffffffffffffffffffffffffffffffffffffff1681526020019081526020016000209050600d81600001604051808280546001816001161561010002031660029004801561496a5780601f1061494857610100808354040283529182019161496a565b820191906000526020600020905b815481529060010190602001808311614956575b5050915050908152602001604051809103902060009054906101000a900460ff16151561499657600080fd5b60001515600760009054906101000a900460ff1615151415156149b857600080fd5b600e60003373ffffffffffffffffffffffffffffffffffffffff1673ffffffffffffffffffffffffffffffffffffffff168152602001908152602001600020935060009250600191505b60058211158015614a17575060001515831515145b15614b3e578473ffffffffffffffffffffffffffffffffffffffff168460030183600681101515614a4457fe5b0160009054906101000a900473ffffffffffffffffffffffffffffffffffffffff1673ffffffffffffffffffffffffffffffffffffffff161415614b315760008460030183600681101515614a9557fe5b0160006101000a81548173ffffffffffffffffffffffffffffffffffffffff021916908373ffffffffffffffffffffffffffffffffffffffff160217905550600192506000600f60008773ffffffffffffffffffffffffffffffffffffffff1673ffffffffffffffffffffffffffffffffffffffff16815260200190815260200160002060006101000a81548160ff0219169083151502179055505b8180600101925050614a02565b60011515831515141515614b4e57fe5b5050505050565b600080600080600080601460008860ff1681526020019081526020016000209050614b7f81614d7b565b1515614b8a57600080fd5b8060000160009054906101000a900473ffffffffffffffffffffffffffffffffffffffff168160010160009054906101000a90046fffffffffffffffffffffffffffffffff168260010160109054906101000a90046fffffffffffffffffffffffffffffffff168360020160009054906101000a900467ffffffffffffffff168460020160089054906101000a900467ffffffffffffffff16836fffffffffffffffffffffffffffffffff169350826fffffffffffffffffffffffffffffffff1692508167ffffffffffffffff1691508067ffffffffffffffff169050955095509550955095505091939590929450565b803073ffffffffffffffffffffffffffffffffffffffff163110151515614ca157600080fd5b601160009054906101000a900473ffffffffffffffffffffffffffffffffffffffff1673ffffffffffffffffffffffffffffffffffffffff1663f340fa0182846040518363ffffffff167c0100000000000000000000000000000000000000000000000000000000028152600401808273ffffffffffffffffffffffffffffffffffffffff1673ffffffffffffffffffffffffffffffffffffffff1681526020019150506000604051808303818588803b158015614d5e57600080fd5b505af1158015614d72573d6000803e3d6000fd5b50505050505050565b6000808260020160089054906101000a900467ffffffffffffffff1667ffffffffffffffff16119050919050565b600080600090508260020160089054906101000a900467ffffffffffffffff1667ffffffffffffffff16421115614e02578260020160089054906101000a900467ffffffffffffffff1667ffffffffffffffff16420390505b614e948360010160009054906101000a90046fffffffffffffffffffffffffffffffff166fffffffffffffffffffffffffffffffff168460010160109054906101000a90046fffffffffffffffffffffffffffffffff166fffffffffffffffffffffffffffffffff168560020160009054906101000a900467ffffffffffffffff1667ffffffffffffffff1684613c41565b915050919050565b60146000828152602001908152602001600020600080820160006101000a81549073ffffffffffffffffffffffffffffffffffffffff02191690556001820160006101000a8154906fffffffffffffffffffffffffffffffff02191690556001820160106101000a8154906fffffffffffffffffffffffffffffffff02191690556002820160006101000a81549067ffffffffffffffff02191690556002820160086101000a81549067ffffffffffffffff0219169055505050565b601160009054906101000a900473ffffffffffffffffffffffffffffffffffffffff1673ffffffffffffffffffffffffffffffffffffffff166351cff8d9826040518263ffffffff167c0100000000000000000000000000000000000000000000000000000000028152600401808273ffffffffffffffffffffffffffffffffffffffff1673ffffffffffffffffffffffffffffffffffffffff168152602001915050600060405180830381600087803b15801561501557600080fd5b505af1158015615029573d6000803e3d6000fd5b5050505050565b615038615556565b60001515600760009054906101000a900460ff16151514151561505a57600080fd5b60a0604051908101604052808473ffffffffffffffffffffffffffffffffffffffff168152602001876fffffffffffffffffffffffffffffffff168152602001866fffffffffffffffffffffffffffffffff1681526020018567ffffffffffffffff1681526020014267ffffffffffffffff1681525090506150dc82826150e4565b505050505050565b603c816060015167ffffffffffffffff161015151561510257600080fd5b806014600084815260200190815260200160002060008201518160000160006101000a81548173ffffffffffffffffffffffffffffffffffffffff021916908373ffffffffffffffffffffffffffffffffffffffff16021790555060208201518160010160006101000a8154816fffffffffffffffffffffffffffffffff02191690836fffffffffffffffffffffffffffffffff16021790555060408201518160010160106101000a8154816fffffffffffffffffffffffffffffffff02191690836fffffffffffffffffffffffffffffffff16021790555060608201518160020160006101000a81548167ffffffffffffffff021916908367ffffffffffffffff16021790555060808201518160020160086101000a81548167ffffffffffffffff021916908367ffffffffffffffff1602179055509050507fa9c8dfcda5664a5a124c713e386da27de87432d5b668e79458501eb296389ba78282602001516fffffffffffffffffffffffffffffffff1683604001516fffffffffffffffffffffffffffffffff16846060015167ffffffffffffffff166040518085815260200184815260200183815260200182815260200194505050505060405180910390a15050565b60806040519081016040528060006fffffffffffffffffffffffffffffffff16815260200160608152602001600067ffffffffffffffff1681526020016000151581525090565b82805482825590600052602060002090601f016020900481019282156153ae5791602002820160005b8382111561537f57835183826101000a81548160ff0219169083600381111561535e57fe5b02179055509260200192600101602081600001049283019260010302615339565b80156153ac5782816101000a81549060ff021916905560010160208160000104928301926001030261537f565b505b5090506153bb91906155d4565b5090565b6040805190810160405280600073ffffffffffffffffffffffffffffffffffffffff16815260200160006fffffffffffffffffffffffffffffffff1681525090565b60c060405190810160405280600690602082028038833980820191505090505090565b6101206040519081016040528060608152602001600015158152602001615449615604565b8152602001600060ff1681525090565b828054600181600116156101000203166002900490600052602060002090601f016020900481019282601f1061549a57805160ff19168380011785556154c8565b828001600101855582156154c8579182015b828111156154c75782518255916020019190600101906154ac565b5b5090506154d59190615627565b5090565b8260068101928215615545579160200282015b828111156155445782518260006101000a81548173ffffffffffffffffffffffffffffffffffffffff021916908373ffffffffffffffffffffffffffffffffffffffff160217905550916020019190600101906154ec565b5b509050615552919061564c565b5090565b60a060405190810160405280600073ffffffffffffffffffffffffffffffffffffffff16815260200160006fffffffffffffffffffffffffffffffff16815260200160006fffffffffffffffffffffffffffffffff168152602001600067ffffffffffffffff168152602001600067ffffffffffffffff1681525090565b61560191905b808211156155fd57600081816101000a81549060ff0219169055506001016155da565b5090565b90565b60c060405190810160405280600690602082028038833980820191505090505090565b61564991905b8082111561564557600081600090555060010161562d565b5090565b90565b61568c91905b8082111561568857600081816101000a81549073ffffffffffffffffffffffffffffffffffffffff021916905550600101615652565b5090565b905600a165627a7a72305820db1ae913496ff05fbf1351bd185d54abfbd0e69d4bfca178da15bda4f48114380029",
  "source": "pragma solidity ^0.4.24;\n\nimport \"./StorePurchasing.sol\";\n\n\n/**  @dev This contract is used to sell auction type items. The entire auction\n  *  process is managed in this contract. It maintains use of the escrow contract\n  *  to manage payments and withdrawl of funds.\n  */\ncontract StoreAuction is StorePurchasing{\n\n  event TestLog(uint number);\n  /// @dev Emit when a new auction type product is created:\n  event LogNewAuctionProduct(uint _auctionId,string indexed _storeName);\n  event AuctionCreated(uint256 productId, uint256 startingPrice, uint256 endingPrice, uint256 duration);\n\n  /// @dev Emit when a new auction executes successfully\n  event AuctionSuccessful(uint256 productId, uint256 totalPrice, address winner);\n  /// @dev Emit when the auction is cancelled\n  event AuctionCancelled(uint256 productId);\n\n  /// @dev Tracks all auctions in the Maats Network\n  uint totalAuctions = 0;\n\n  /// @dev trakes the Auction Id as a key for the Auction\n  mapping(uint256 => Auction) auctionIdToAuction;\n\n  /// @dev Struct for the auction type to manage auction logic\n  struct Auction {\n      // product owner\n      address seller;\n      // equal to price of product struct\n      uint128 startingPrice;\n      // Price (in wei) at end of auction\n      uint128 endingPrice;\n      // Duration (in seconds) of auction\n      uint64 duration;\n      // Time when auction started\n      // NOTE: 0 if this auction has been concluded\n      uint64 startedAt;\n  }\n\n  /// @dev for testing the successful creation of an auciton\n\n  function getAuctionExists(uint auctionId)public constant returns(bool){\n    uint currentTime = auctionIdToAuction[auctionId].startedAt;\n    if(currentTime != 0){\n      return true;\n    }\n  }\n\n  /// @dev Internal function for auctioning products.\n  /// @param _startingPrice : the starting price for the Dutch Auction\n  /// @param _endingPrice : the lowest the owner want's to sell the product for\n  /// @param _duration : the length of the auction\n  /// @param _seller : the address of the owner selling the product\n  /// @param _auctionId : the identifier for the auction\n  function createAuction(\n      uint256 _startingPrice,\n      uint256 _endingPrice,\n      uint256 _duration,\n      address _seller,\n      uint256 _auctionId\n  )\n      internal\n      whenNotPaused\n  {\n      Auction memory auction = Auction(\n          _seller,\n          uint128(_startingPrice),\n          uint128(_endingPrice),\n          uint64(_duration),\n          uint64(now)\n      );\n      _addAuction(_auctionId, auction);\n  }\n\n  /// @dev Adds the auction to the list of current auctions and emits event\n  /// @param _auctionId : the identifier for this auction\n  /// @param _auction : the acution being created\n  function _addAuction(uint256 _auctionId, Auction _auction) internal {\n      // Require that all auctions have a duration of\n      // at least one minute. (Keeps our math from getting hairy!)\n      require(_auction.duration >= 1 minutes);\n\n      // Add auction to mapping storing auctions\n      auctionIdToAuction[_auctionId] = _auction;\n\n      // Let everyone know about the new auction!!\n      emit AuctionCreated(\n          uint256(_auctionId),\n          uint256(_auction.startingPrice),\n          uint256(_auction.endingPrice),\n          uint256(_auction.duration)\n      );\n  }\n\n  /// @dev Removes an auction from the system\n  /// @param _auctionId : Locator for the auction to be deleted\n  function _removeAuction(uint256 _auctionId) internal {\n      delete auctionIdToAuction[_auctionId];\n  }\n\n  /// @dev allows the owner to cancel auction\n  function _cancelAuction(uint256 _auctionId) internal {\n      _removeAuction(_auctionId);\n      emit AuctionCancelled(_auctionId);\n  }\n\n  /// @dev Used to view if an auction is still live\n  function _isOnAuction(Auction storage _auction) internal view returns (bool) {\n      return (_auction.startedAt > 0);\n  }\n\n\n  /// function for testing successful bid\n  function didBid(address ownerofproduct,uint8 productId,uint itemId)public constant returns(bool){\n    Store storage current = storeAdminToStore[ownerofproduct];\n    if(current.products[productId].items[itemId] == ItemStatus.Bought){\n      return true;\n    }else{\n      return false;\n    }\n  }\n  /// @dev Allows customers to \"bid\" on a product: Dutch (reverse) auctions don't\n  /// have bids since it goes from high price to low price. Bid is essentially buy.\n  /// @param _auctionId : The auction which they will be bidding on\n  /// @param _productId : Identifier for product being bid on\n  function _bid(uint256 _auctionId,uint8 _productId)\n      public\n      payable\n      whenNotPaused\n      returns (uint256)\n  {\n\n\n      // Get a reference to the auction struct\n      Auction storage auction = auctionIdToAuction[_auctionId];\n\n      // Explicitly check that this auction is currently live.\n      // (Because of how Ethereum mappings work, we can't just count\n      // on the lookup above failing. An invalid _tokenId will just\n      // return an auction object that is all zeros.)\n      require(_isOnAuction(auction));\n\n\n      // Check that the incoming bid is higher than the current\n      // price\n      uint256 value = msg.value;\n      uint256 price = _currentPrice(auction);\n      require(value >= price);\n\n      // Grab a reference to the seller before the auction struct\n      // gets deleted.\n      address seller = auction.seller;\n\n\n      // The bid is good! Remove the auction before sending the fees\n      // to the sender so we can't have a reentrancy attack.\n      _removeAuction(_auctionId);\n\n      depositEscrow(seller,value);\n\n\n\n      Store storage current = storeAdminToStore[seller];\n      current.products[_productId].items[0] = ItemStatus.Bought;\n      emit LogItemBought(_productId, msg.sender,current.storeName);\n      // Tell the world!\n      emit AuctionSuccessful(_productId, price, msg.sender);\n\n      return price;\n\n  }\n\n  /// @dev Creates the auction product and immediately puts it on auction.\n  /// @param _startingPrice : Price the auction will start at (highest)\n  /// @param _endingPrice : Price auction will end at (lowest)\n  /// @param _duration : length of the auction in seconds(determines speed of price decrease)\n  /// @return _auctionId : To be used to tag auction created.\n  function createAuctionProduct(\n    uint256 _startingPrice,\n    uint256 _endingPrice,\n    uint64 _duration\n    )\n    public\n    onlyStoreAdmin\n    whenNotPaused\n    returns(uint auctionId){\n      // Get current store based on the msg.sender\n      Store storage current = storeAdminToStore[msg.sender];\n\n      // Create the new product to store in mapping\n      Product memory _product = Product({\n        price: uint128(_startingPrice),\n        items: new ItemStatus[](0),\n        inventory: 1,\n        auction: true\n        });\n\n      // update product count and pruduct mappings\n      uint8 _productId = current.prodCount;\n      current.products[_productId] = _product;\n      current.prodCount += 1;\n\n      // Get the current seller(owner) of the product\n      address seller = StoreNameToOwner[current.storeName];\n\n      // Set the product instance as ForAuction\n      current.products[_productId].items.push(ItemStatus.ForAuction);\n\n      // Update contract auction count\n      uint _auctionId =  totalAuctions;\n      totalAuctions = totalAuctions + 1;\n      createAuction( _startingPrice, _endingPrice,_duration,seller,_auctionId);\n\n      // Let the world know about the new product!\n    //  emit LogNewAuctionProduct(_auctionId, current.storeName);\n      return(auctionId);\n    }\n\n  /// @dev Computes the current price of the item on auction\n  function _currentPrice(Auction storage _auction)\n      internal\n      view\n      returns (uint256)\n  {\n      uint256 secondsPassed = 0;\n\n      // A bit of insurance against negative values (or wraparound).\n      // Probably not necessary (since Ethereum guarnatees that the\n      // now variable doesn't ever go backwards).\n      if (now > _auction.startedAt) {\n          secondsPassed = now - _auction.startedAt;\n      }\n\n      //call to internal function\n      return _computeCurrentPrice(\n          _auction.startingPrice,\n          _auction.endingPrice,\n          _auction.duration,\n          secondsPassed\n      );\n  }\n\n  /// @dev Computes the current price of an auction. Factored out\n  ///  from _currentPrice so we can run extensive unit tests.\n  ///  When testing, make this function public and turn on\n  ///  `Current price computation` test suite.\n  function _computeCurrentPrice(\n      uint256 _startingPrice,\n      uint256 _endingPrice,\n      uint256 _duration,\n      uint256 _secondsPassed\n  )\n      //internal // comment out when testing\n      pure\n      returns (uint256)\n  {\n      // NOTE: We don't use SafeMath (or similar) in this function because\n      //  all of our public functions carefully cap the maximum values for\n      //  time (at 64-bits) and currency (at 128-bits). _duration is\n      //  also known to be non-zero (see the require() statement in\n      //  _addAuction())\n      if (_secondsPassed >= _duration) {\n          // We've reached the end of the dynamic pricing portion\n          // of the auction, just return the end price.\n          return _endingPrice;\n      } else {\n          // Starting price can be higher than ending price (and often is!), so\n          // this delta can be negative.\n          int256 totalPriceChange = int256(_endingPrice) - int256(_startingPrice);\n\n          // This multiplication can't overflow, _secondsPassed will easily fit within\n          // 64-bits, and totalPriceChange will easily fit within 128-bits, their product\n          // will always fit within 256-bits.\n          int256 currentPriceChange = totalPriceChange * int256(_secondsPassed) / int256(_duration);\n\n          // currentPriceChange can be negative, but if so, will have a magnitude\n          // less that _startingPrice. Thus, this result will always end up positive.\n          int256 currentPrice = int256(_startingPrice) + currentPriceChange;\n\n          return uint256(currentPrice);\n      }\n    }\n\n      /// @dev allows us to get the auction so we can see the various properties\n      /// params : all paramaters have been previously defined\n      function getAuction(uint8 _productId)\n          public\n          view\n          returns\n      (\n          address seller,\n          uint256 startingPrice,\n          uint256 endingPrice,\n          uint256 duration,\n          uint256 startedAt\n      ) {\n          Auction storage auction = auctionIdToAuction[_productId];\n          require(_isOnAuction(auction));\n          return (\n              auction.seller,\n              auction.startingPrice,\n              auction.endingPrice,\n              auction.duration,\n              auction.startedAt\n          );\n      }\n\n      function getCurrentPrice(uint8 _productId)\n          public\n          view\n          returns (uint256)\n      {\n          Auction storage auction = auctionIdToAuction[_productId];\n          require(_isOnAuction(auction));\n          return _currentPrice(auction);\n      }\n\n  }\n",
  "sourcePath": "/Users/ericbrown/Documents/Blockchain/ConsenSysCourse/GitHub/Maats/contracts/StoreAuction.sol",
  "compiler": {
    "name": "solc",
    "version": "0.4.24+commit.e67f0147.Emscripten.clang"
  },
  "schemaVersion": "2.0.1",
  "updatedAt": "2018-08-04T21:18:04.250Z"
}