{
  "contractName": "StoreAuction",
  "abi": [
    {
      "constant": false,
      "inputs": [
        {
          "name": "_productId",
          "type": "uint8"
        },
        {
          "name": "_storeName",
          "type": "string"
        }
      ],
      "name": "buyItem",
      "outputs": [
        {
          "name": "index",
          "type": "uint256"
        }
      ],
      "payable": true,
      "stateMutability": "payable",
      "type": "function"
    },
    {
      "constant": true,
      "inputs": [
        {
          "name": "",
          "type": "address"
        }
      ],
      "name": "OwnerToStore",
      "outputs": [
        {
          "name": "storeName",
          "type": "string"
        },
        {
          "name": "open",
          "type": "bool"
        },
        {
          "name": "prodCount",
          "type": "uint8"
        }
      ],
      "payable": false,
      "stateMutability": "view",
      "type": "function"
    },
    {
      "constant": true,
      "inputs": [
        {
          "name": "",
          "type": "address"
        }
      ],
      "name": "purchaserToItem",
      "outputs": [
        {
          "name": "",
          "type": "uint256"
        }
      ],
      "payable": false,
      "stateMutability": "view",
      "type": "function"
    },
    {
      "constant": false,
      "inputs": [],
      "name": "withdraw",
      "outputs": [],
      "payable": false,
      "stateMutability": "nonpayable",
      "type": "function"
    },
    {
      "constant": false,
      "inputs": [],
      "name": "unpause",
      "outputs": [],
      "payable": false,
      "stateMutability": "nonpayable",
      "type": "function"
    },
    {
      "constant": false,
      "inputs": [
        {
          "name": "_revokedAdmin",
          "type": "address"
        }
      ],
      "name": "removeMaatsAdmin",
      "outputs": [],
      "payable": false,
      "stateMutability": "nonpayable",
      "type": "function"
    },
    {
      "constant": true,
      "inputs": [
        {
          "name": "",
          "type": "uint256"
        }
      ],
      "name": "storeOwners",
      "outputs": [
        {
          "name": "ownerAddress",
          "type": "address"
        },
        {
          "name": "ownerRanking",
          "type": "uint128"
        }
      ],
      "payable": false,
      "stateMutability": "view",
      "type": "function"
    },
    {
      "constant": true,
      "inputs": [
        {
          "name": "",
          "type": "address"
        }
      ],
      "name": "isStoreOwner",
      "outputs": [
        {
          "name": "",
          "type": "bool"
        }
      ],
      "payable": false,
      "stateMutability": "view",
      "type": "function"
    },
    {
      "constant": false,
      "inputs": [
        {
          "name": "_newOwner",
          "type": "address"
        }
      ],
      "name": "setMaatsOwner",
      "outputs": [],
      "payable": false,
      "stateMutability": "nonpayable",
      "type": "function"
    },
    {
      "constant": false,
      "inputs": [
        {
          "name": "_badOwner",
          "type": "address"
        }
      ],
      "name": "removeStoreOwner",
      "outputs": [
        {
          "name": "",
          "type": "bool"
        }
      ],
      "payable": false,
      "stateMutability": "nonpayable",
      "type": "function"
    },
    {
      "constant": false,
      "inputs": [
        {
          "name": "_newAdmin",
          "type": "address"
        }
      ],
      "name": "createMaatsAdmin",
      "outputs": [],
      "payable": false,
      "stateMutability": "nonpayable",
      "type": "function"
    },
    {
      "constant": false,
      "inputs": [],
      "name": "openStore",
      "outputs": [
        {
          "name": "",
          "type": "bool"
        }
      ],
      "payable": false,
      "stateMutability": "nonpayable",
      "type": "function"
    },
    {
      "constant": false,
      "inputs": [
        {
          "name": "_itemIndex",
          "type": "uint256"
        },
        {
          "name": "_productId",
          "type": "uint8"
        }
      ],
      "name": "shipItem",
      "outputs": [
        {
          "name": "shipped",
          "type": "bool"
        }
      ],
      "payable": false,
      "stateMutability": "nonpayable",
      "type": "function"
    },
    {
      "constant": false,
      "inputs": [],
      "name": "pause",
      "outputs": [],
      "payable": false,
      "stateMutability": "nonpayable",
      "type": "function"
    },
    {
      "constant": false,
      "inputs": [
        {
          "name": "_newPrice",
          "type": "uint128"
        },
        {
          "name": "_productId",
          "type": "uint8"
        }
      ],
      "name": "changePrice",
      "outputs": [
        {
          "name": "",
          "type": "uint128"
        }
      ],
      "payable": false,
      "stateMutability": "nonpayable",
      "type": "function"
    },
    {
      "constant": false,
      "inputs": [
        {
          "name": "_productId",
          "type": "uint8"
        },
        {
          "name": "_newInventory",
          "type": "uint64"
        }
      ],
      "name": "addInventory",
      "outputs": [
        {
          "name": "",
          "type": "uint64"
        }
      ],
      "payable": false,
      "stateMutability": "nonpayable",
      "type": "function"
    },
    {
      "constant": false,
      "inputs": [
        {
          "name": "_price",
          "type": "uint128"
        },
        {
          "name": "_inventory",
          "type": "uint64"
        }
      ],
      "name": "createSetPriceProduct",
      "outputs": [
        {
          "name": "_productId",
          "type": "uint8"
        }
      ],
      "payable": false,
      "stateMutability": "nonpayable",
      "type": "function"
    },
    {
      "constant": true,
      "inputs": [
        {
          "name": "",
          "type": "address"
        }
      ],
      "name": "createdStore",
      "outputs": [
        {
          "name": "",
          "type": "bool"
        }
      ],
      "payable": false,
      "stateMutability": "view",
      "type": "function"
    },
    {
      "constant": false,
      "inputs": [
        {
          "name": "_NewAdminAddress",
          "type": "address"
        }
      ],
      "name": "createStoreAdmin",
      "outputs": [],
      "payable": false,
      "stateMutability": "nonpayable",
      "type": "function"
    },
    {
      "constant": false,
      "inputs": [
        {
          "name": "_newOwner",
          "type": "address"
        }
      ],
      "name": "makeStoreOwner",
      "outputs": [
        {
          "name": "",
          "type": "uint256"
        }
      ],
      "payable": false,
      "stateMutability": "nonpayable",
      "type": "function"
    },
    {
      "constant": false,
      "inputs": [
        {
          "name": "_storeName",
          "type": "string"
        }
      ],
      "name": "createStore",
      "outputs": [
        {
          "name": "",
          "type": "string"
        }
      ],
      "payable": false,
      "stateMutability": "nonpayable",
      "type": "function"
    },
    {
      "constant": false,
      "inputs": [
        {
          "name": "_escrowAddress",
          "type": "address"
        }
      ],
      "name": "setEscrowAddress",
      "outputs": [],
      "payable": false,
      "stateMutability": "nonpayable",
      "type": "function"
    },
    {
      "constant": true,
      "inputs": [],
      "name": "escrow",
      "outputs": [
        {
          "name": "",
          "type": "address"
        }
      ],
      "payable": false,
      "stateMutability": "view",
      "type": "function"
    },
    {
      "constant": true,
      "inputs": [],
      "name": "maatsOwner",
      "outputs": [
        {
          "name": "",
          "type": "address"
        }
      ],
      "payable": false,
      "stateMutability": "view",
      "type": "function"
    },
    {
      "constant": false,
      "inputs": [
        {
          "name": "_adminAddress",
          "type": "address"
        }
      ],
      "name": "removeStoreAdmin",
      "outputs": [],
      "payable": false,
      "stateMutability": "nonpayable",
      "type": "function"
    },
    {
      "anonymous": false,
      "inputs": [
        {
          "indexed": false,
          "name": "_auctionId",
          "type": "uint256"
        },
        {
          "indexed": true,
          "name": "_storeName",
          "type": "string"
        }
      ],
      "name": "LogNewAuctionProduct",
      "type": "event"
    },
    {
      "anonymous": false,
      "inputs": [
        {
          "indexed": false,
          "name": "productId",
          "type": "uint256"
        },
        {
          "indexed": false,
          "name": "startingPrice",
          "type": "uint256"
        },
        {
          "indexed": false,
          "name": "endingPrice",
          "type": "uint256"
        },
        {
          "indexed": false,
          "name": "duration",
          "type": "uint256"
        }
      ],
      "name": "AuctionCreated",
      "type": "event"
    },
    {
      "anonymous": false,
      "inputs": [
        {
          "indexed": false,
          "name": "productId",
          "type": "uint256"
        },
        {
          "indexed": false,
          "name": "totalPrice",
          "type": "uint256"
        },
        {
          "indexed": false,
          "name": "winner",
          "type": "address"
        }
      ],
      "name": "AuctionSuccessful",
      "type": "event"
    },
    {
      "anonymous": false,
      "inputs": [
        {
          "indexed": false,
          "name": "productId",
          "type": "uint256"
        }
      ],
      "name": "AuctionCancelled",
      "type": "event"
    },
    {
      "anonymous": false,
      "inputs": [
        {
          "indexed": true,
          "name": "_productId",
          "type": "uint256"
        },
        {
          "indexed": true,
          "name": "_purchaser",
          "type": "address"
        },
        {
          "indexed": false,
          "name": "_storeName",
          "type": "string"
        }
      ],
      "name": "LogItemBought",
      "type": "event"
    },
    {
      "anonymous": false,
      "inputs": [
        {
          "indexed": true,
          "name": "_storeName",
          "type": "string"
        },
        {
          "indexed": true,
          "name": "_productId",
          "type": "uint256"
        },
        {
          "indexed": false,
          "name": "remaining",
          "type": "uint64"
        }
      ],
      "name": "LogInventoryLow",
      "type": "event"
    },
    {
      "anonymous": false,
      "inputs": [
        {
          "indexed": true,
          "name": "_storeName",
          "type": "string"
        },
        {
          "indexed": true,
          "name": "_productId",
          "type": "uint256"
        }
      ],
      "name": "LogInventoryOut",
      "type": "event"
    },
    {
      "anonymous": false,
      "inputs": [
        {
          "indexed": true,
          "name": "_index",
          "type": "uint256"
        },
        {
          "indexed": true,
          "name": "_productId",
          "type": "uint256"
        },
        {
          "indexed": false,
          "name": "_storeName",
          "type": "string"
        }
      ],
      "name": "LogItemShipped",
      "type": "event"
    },
    {
      "anonymous": false,
      "inputs": [
        {
          "indexed": true,
          "name": "_ownerAddress",
          "type": "address"
        },
        {
          "indexed": true,
          "name": "_storeName",
          "type": "string"
        }
      ],
      "name": "LogStoreOpened",
      "type": "event"
    },
    {
      "anonymous": false,
      "inputs": [
        {
          "indexed": false,
          "name": "_productId",
          "type": "uint256"
        },
        {
          "indexed": true,
          "name": "_storeName",
          "type": "string"
        }
      ],
      "name": "LogNewSetPriceProduct",
      "type": "event"
    },
    {
      "anonymous": false,
      "inputs": [
        {
          "indexed": true,
          "name": "_productId",
          "type": "uint256"
        },
        {
          "indexed": false,
          "name": "inventory",
          "type": "uint64"
        }
      ],
      "name": "LogAddedInventory",
      "type": "event"
    },
    {
      "anonymous": false,
      "inputs": [
        {
          "indexed": true,
          "name": "_ownerAddress",
          "type": "address"
        },
        {
          "indexed": true,
          "name": "_storeName",
          "type": "string"
        }
      ],
      "name": "LogProductRemoved",
      "type": "event"
    },
    {
      "anonymous": false,
      "inputs": [
        {
          "indexed": true,
          "name": "_productId",
          "type": "uint256"
        },
        {
          "indexed": true,
          "name": "_storeName",
          "type": "string"
        },
        {
          "indexed": false,
          "name": "_newPrice",
          "type": "uint128"
        }
      ],
      "name": "LogPriceChange",
      "type": "event"
    },
    {
      "anonymous": false,
      "inputs": [
        {
          "indexed": true,
          "name": "_storeName",
          "type": "string"
        },
        {
          "indexed": false,
          "name": "adminAddress",
          "type": "address"
        }
      ],
      "name": "LogNewAdmin",
      "type": "event"
    },
    {
      "anonymous": false,
      "inputs": [
        {
          "indexed": true,
          "name": "_storeName",
          "type": "string"
        },
        {
          "indexed": false,
          "name": "adminAddress",
          "type": "address"
        }
      ],
      "name": "LogAdminRemoved",
      "type": "event"
    },
    {
      "anonymous": false,
      "inputs": [
        {
          "indexed": true,
          "name": "_ownerAddress",
          "type": "address"
        },
        {
          "indexed": true,
          "name": "_newStoreName",
          "type": "string"
        }
      ],
      "name": "LogNewStore",
      "type": "event"
    },
    {
      "anonymous": false,
      "inputs": [
        {
          "indexed": true,
          "name": "_storeOwnerAddress",
          "type": "address"
        }
      ],
      "name": "LogNewStoreOwner",
      "type": "event"
    },
    {
      "anonymous": false,
      "inputs": [
        {
          "indexed": true,
          "name": "_storeOwner",
          "type": "address"
        }
      ],
      "name": "LogStoreOwnerRemoved",
      "type": "event"
    },
    {
      "anonymous": false,
      "inputs": [
        {
          "indexed": true,
          "name": "_ownerAddress",
          "type": "address"
        },
        {
          "indexed": false,
          "name": "_oldStoreName",
          "type": "string"
        }
      ],
      "name": "LogStoreClosed",
      "type": "event"
    },
    {
      "anonymous": false,
      "inputs": [
        {
          "indexed": true,
          "name": "previousOwner",
          "type": "address"
        },
        {
          "indexed": true,
          "name": "newOwner",
          "type": "address"
        }
      ],
      "name": "LogNewOwner",
      "type": "event"
    },
    {
      "anonymous": false,
      "inputs": [
        {
          "indexed": true,
          "name": "newAdmin",
          "type": "address"
        }
      ],
      "name": "LogNewAdmin",
      "type": "event"
    },
    {
      "anonymous": false,
      "inputs": [
        {
          "indexed": true,
          "name": "revokedAdmin",
          "type": "address"
        }
      ],
      "name": "LogAdminRevoked",
      "type": "event"
    },
    {
      "anonymous": false,
      "inputs": [],
      "name": "Pause",
      "type": "event"
    },
    {
      "anonymous": false,
      "inputs": [],
      "name": "Unpause",
      "type": "event"
    },
    {
      "constant": false,
      "inputs": [
        {
          "name": "_auctionId",
          "type": "uint256"
        },
        {
          "name": "_productId",
          "type": "uint8"
        }
      ],
      "name": "_bid",
      "outputs": [
        {
          "name": "",
          "type": "uint256"
        }
      ],
      "payable": true,
      "stateMutability": "payable",
      "type": "function"
    },
    {
      "constant": false,
      "inputs": [
        {
          "name": "_startingPrice",
          "type": "uint256"
        },
        {
          "name": "_endingPrice",
          "type": "uint256"
        },
        {
          "name": "_duration",
          "type": "uint64"
        }
      ],
      "name": "createAuctionProduct",
      "outputs": [
        {
          "name": "auctionId",
          "type": "uint256"
        }
      ],
      "payable": false,
      "stateMutability": "nonpayable",
      "type": "function"
    },
    {
      "constant": true,
      "inputs": [
        {
          "name": "_productId",
          "type": "uint8"
        }
      ],
      "name": "getAuction",
      "outputs": [
        {
          "name": "seller",
          "type": "address"
        },
        {
          "name": "startingPrice",
          "type": "uint256"
        },
        {
          "name": "endingPrice",
          "type": "uint256"
        },
        {
          "name": "duration",
          "type": "uint256"
        },
        {
          "name": "startedAt",
          "type": "uint256"
        }
      ],
      "payable": false,
      "stateMutability": "view",
      "type": "function"
    },
    {
      "constant": true,
      "inputs": [
        {
          "name": "_productId",
          "type": "uint8"
        }
      ],
      "name": "getCurrentPrice",
      "outputs": [
        {
          "name": "",
          "type": "uint256"
        }
      ],
      "payable": false,
      "stateMutability": "view",
      "type": "function"
    }
  ],
  "bytecode": "0x60806040526000601155336000806101000a81548173ffffffffffffffffffffffffffffffffffffffff021916908373ffffffffffffffffffffffffffffffffffffffff1602179055506150ff806100586000396000f300608060405260043610610175576000357c0100000000000000000000000000000000000000000000000000000000900463ffffffff168063060347e01461017a5780631ab63af8146101f757806331df27ce146102cb57806335b2b5be146103225780633ccfd60b146103635780633f4ba83a1461037a57806340f42c1c1461039157806344d50993146103d45780635effd33c1461046c5780635f7d53a1146104c75780636174fdd11461050a57806378678a32146105655780637e1dcaf7146105a857806381e4fc82146105d75780638456cb5914610629578063904c977e146106405780639bf474b5146106c4578063a14f258414610730578063bd9cf58e1461079d578063bdc39f48146107f8578063c4c45dd41461083b578063cca0400114610892578063d0e04fe3146108f1578063ddeb63b5146109d3578063e2fdcc1714610a16578063e698f0bb14610a6d578063eff8fe5a14610ac4578063fde57f3b14610b08578063ff95603214610b4b575b600080fd5b6101e1600480360381019080803560ff169060200190929190803590602001908201803590602001908080601f0160208091040260200160405190810160405280939291908181526020018383808284378201915050505050509192919290505050610bd7565b6040518082815260200191505060405180910390f35b34801561020357600080fd5b50610238600480360381019080803573ffffffffffffffffffffffffffffffffffffffff1690602001909291905050506110e0565b6040518080602001841515151581526020018360ff1660ff168152602001828103825285818151815260200191508051906020019080838360005b8381101561028e578082015181840152602081019050610273565b50505050905090810190601f1680156102bb5780820380516001836020036101000a031916815260200191505b5094505050505060405180910390f35b3480156102d757600080fd5b5061030c600480360381019080803573ffffffffffffffffffffffffffffffffffffffff1690602001909291905050506111bc565b6040518082815260200191505060405180910390f35b61034d60048036038101908080359060200190929190803560ff1690602001909291905050506111d4565b6040518082815260200191505060405180910390f35b34801561036f57600080fd5b5061037861147b565b005b34801561038657600080fd5b5061038f611557565b005b34801561039d57600080fd5b506103d2600480360381019080803573ffffffffffffffffffffffffffffffffffffffff16906020019092919050505061161d565b005b3480156103e057600080fd5b506103ff60048036038101908080359060200190929190505050611836565b604051808373ffffffffffffffffffffffffffffffffffffffff1673ffffffffffffffffffffffffffffffffffffffff168152602001826fffffffffffffffffffffffffffffffff166fffffffffffffffffffffffffffffffff1681526020019250505060405180910390f35b34801561047857600080fd5b506104ad600480360381019080803573ffffffffffffffffffffffffffffffffffffffff1690602001909291905050506118a5565b604051808215151515815260200191505060405180910390f35b3480156104d357600080fd5b50610508600480360381019080803573ffffffffffffffffffffffffffffffffffffffff1690602001909291905050506118c5565b005b34801561051657600080fd5b5061054b600480360381019080803573ffffffffffffffffffffffffffffffffffffffff169060200190929190505050611a42565b604051808215151515815260200191505060405180910390f35b34801561057157600080fd5b506105a6600480360381019080803573ffffffffffffffffffffffffffffffffffffffff169060200190929190505050611dac565b005b3480156105b457600080fd5b506105bd612075565b604051808215151515815260200191505060405180910390f35b3480156105e357600080fd5b5061060f60048036038101908080359060200190929190803560ff169060200190929190505050612280565b604051808215151515815260200191505060405180910390f35b34801561063557600080fd5b5061063e6125f2565b005b34801561064c57600080fd5b5061068a60048036038101908080356fffffffffffffffffffffffffffffffff169060200190929190803560ff1690602001909291905050506126b8565b60405180826fffffffffffffffffffffffffffffffff166fffffffffffffffffffffffffffffffff16815260200191505060405180910390f35b3480156106d057600080fd5b50610706600480360381019080803560ff169060200190929190803567ffffffffffffffff169060200190929190505050612979565b604051808267ffffffffffffffff1667ffffffffffffffff16815260200191505060405180910390f35b34801561073c57600080fd5b5061078160048036038101908080356fffffffffffffffffffffffffffffffff169060200190929190803567ffffffffffffffff169060200190929190505050612c9e565b604051808260ff1660ff16815260200191505060405180910390f35b3480156107a957600080fd5b506107de600480360381019080803573ffffffffffffffffffffffffffffffffffffffff1690602001909291905050506130a2565b604051808215151515815260200191505060405180910390f35b34801561080457600080fd5b50610839600480360381019080803573ffffffffffffffffffffffffffffffffffffffff1690602001909291905050506130c2565b005b34801561084757600080fd5b5061087c600480360381019080803573ffffffffffffffffffffffffffffffffffffffff16906020019092919050505061339b565b6040518082815260200191505060405180910390f35b34801561089e57600080fd5b506108db6004803603810190808035906020019092919080359060200190929190803567ffffffffffffffff16906020019092919050505061367e565b6040518082815260200191505060405180910390f35b3480156108fd57600080fd5b50610958600480360381019080803590602001908201803590602001908080601f0160208091040260200160405190810160405280939291908181526020018383808284378201915050505050509192919290505050613ab0565b6040518080602001828103825283818151815260200191508051906020019080838360005b8381101561099857808201518184015260208101905061097d565b50505050905090810190601f1680156109c55780820380516001836020036101000a031916815260200191505b509250505060405180910390f35b3480156109df57600080fd5b50610a14600480360381019080803573ffffffffffffffffffffffffffffffffffffffff169060200190929190505050613fa2565b005b348015610a2257600080fd5b50610a2b614047565b604051808273ffffffffffffffffffffffffffffffffffffffff1673ffffffffffffffffffffffffffffffffffffffff16815260200191505060405180910390f35b348015610a7957600080fd5b50610a8261406d565b604051808273ffffffffffffffffffffffffffffffffffffffff1673ffffffffffffffffffffffffffffffffffffffff16815260200191505060405180910390f35b348015610ad057600080fd5b50610af2600480360381019080803560ff169060200190929190505050614092565b6040518082815260200191505060405180910390f35b348015610b1457600080fd5b50610b49600480360381019080803573ffffffffffffffffffffffffffffffffffffffff1690602001909291905050506140d2565b005b348015610b5757600080fd5b50610b79600480360381019080803560ff1690602001909291905050506143ab565b604051808673ffffffffffffffffffffffffffffffffffffffff1673ffffffffffffffffffffffffffffffffffffffff1681526020018581526020018481526020018381526020018281526020019550505050505060405180910390f35b6000806000806000801515600760009054906101000a900460ff161515141515610c0057600080fd5b600a866040518082805190602001908083835b602083101515610c385780518252602082019150602081019050602083039250610c13565b6001836020036101000a038019825116818451168082178552505050505050905001915050908152602001604051809103902060009054906101000a900473ffffffffffffffffffffffffffffffffffffffff169350600960008573ffffffffffffffffffffffffffffffffffffffff1673ffffffffffffffffffffffffffffffffffffffff1681526020019081526020016000209250610cd987876144d1565b94503491508260010160008860ff1660ff16815260200190815260200160002060000160009054906101000a90046fffffffffffffffffffffffffffffffff166fffffffffffffffffffffffffffffffff168210151515610d3957600080fd5b610d43848361467f565b60028360010160008960ff1660ff16815260200190815260200160002060010186815481101515610d7057fe5b90600052602060002090602091828204019190066101000a81548160ff02191690836003811115610d9d57fe5b02179055503373ffffffffffffffffffffffffffffffffffffffff168760ff167f21b69e57dafb192d2fc9ec6fabee5106b55506c43564934190281e68e3fd43a8856000016040518080602001828103825283818154600181600116156101000203166002900481526020019150805460018160011615610100020316600290048015610e6b5780601f10610e4057610100808354040283529160200191610e6b565b820191906000526020600020905b815481529060010190602001808311610e4e57829003601f168201915b50509250505060405180910390a384601060003373ffffffffffffffffffffffffffffffffffffffff1673ffffffffffffffffffffffffffffffffffffffff168152602001908152602001600020819055508260010160008860ff1660ff168152602001908152602001600020600201600081819054906101000a900467ffffffffffffffff16809291906001900391906101000a81548167ffffffffffffffff021916908367ffffffffffffffff160217905550508260010160008860ff1660ff16815260200190815260200160002060020160009054906101000a900467ffffffffffffffff16905060058167ffffffffffffffff161115156110d65760008167ffffffffffffffff16141561101a578660ff16836000016040518082805460018160011615610100020316600290048015610fe05780601f10610fbe576101008083540402835291820191610fe0565b820191906000526020600020905b815481529060010190602001808311610fcc575b505091505060405180910390207fc9de8ea04483018837e93b72d9875d362c24c6b288707c71bc97532f98bce38c60405160405180910390a35b8660ff1683600001604051808280546001816001161561010002031660029004801561107d5780601f1061105b57610100808354040283529182019161107d565b820191906000526020600020905b815481529060010190602001808311611069575b505091505060405180910390207fcd4eb49b487b912c0255590a3d4a92db6488383d7bb11265b173443257cb8d2083604051808267ffffffffffffffff1667ffffffffffffffff16815260200191505060405180910390a35b5050505092915050565b6009602052806000526040600020600091509050806000018054600181600116156101000203166002900480601f01602080910402602001604051908101604052809291908181526020018280546001816001161561010002031660029004801561118c5780601f106111615761010080835404028352916020019161118c565b820191906000526020600020905b81548152906001019060200180831161116f57829003601f168201915b5050505050908060020160009054906101000a900460ff16908060090160009054906101000a900460ff16905083565b60106020528060005260406000206000915090505481565b60008060008060008060001515600760009054906101000a900460ff1615151415156111ff57600080fd5b60126000898152602001908152602001600020945061121d8561477f565b151561122857600080fd5b349350611234856147ad565b925082841015151561124557600080fd5b8460000160009054906101000a900473ffffffffffffffffffffffffffffffffffffffff169150611275886148a0565b61127f828561467f565b600960008373ffffffffffffffffffffffffffffffffffffffff1673ffffffffffffffffffffffffffffffffffffffff168152602001908152602001600020905060028160010160008960ff1660ff16815260200190815260200160002060010160008154811015156112ee57fe5b90600052602060002090602091828204019190066101000a81548160ff0219169083600381111561131b57fe5b02179055503373ffffffffffffffffffffffffffffffffffffffff168760ff167f21b69e57dafb192d2fc9ec6fabee5106b55506c43564934190281e68e3fd43a88360000160405180806020018281038252838181546001816001161561010002031660029004815260200191508054600181600116156101000203166002900480156113e95780601f106113be576101008083540402835291602001916113e9565b820191906000526020600020905b8154815290600101906020018083116113cc57829003601f168201915b50509250505060405180910390a37f4fcc30d90a842164dd58501ab874a101a3749c3d4747139cefe7c876f4ccebd2878433604051808460ff1681526020018381526020018273ffffffffffffffffffffffffffffffffffffffff1673ffffffffffffffffffffffffffffffffffffffff168152602001935050505060405180910390a1829550505050505092915050565b6000809054906101000a900473ffffffffffffffffffffffffffffffffffffffff1673ffffffffffffffffffffffffffffffffffffffff163373ffffffffffffffffffffffffffffffffffffffff161415156114d657600080fd5b6000809054906101000a900473ffffffffffffffffffffffffffffffffffffffff1673ffffffffffffffffffffffffffffffffffffffff166108fc3073ffffffffffffffffffffffffffffffffffffffff16319081150290604051600060405180830381858888f19350505050158015611554573d6000803e3d6000fd5b50565b6000809054906101000a900473ffffffffffffffffffffffffffffffffffffffff1673ffffffffffffffffffffffffffffffffffffffff163373ffffffffffffffffffffffffffffffffffffffff161415156115b257600080fd5b60011515600760009054906101000a900460ff1615151415156115d457600080fd5b6000600760006101000a81548160ff0219169083151502179055507f7805862f689e2f13df9f062ff482ad3ad112aca9e0847911ed832e158c525b3360405160405180910390a1565b6000806000809054906101000a900473ffffffffffffffffffffffffffffffffffffffff1673ffffffffffffffffffffffffffffffffffffffff163373ffffffffffffffffffffffffffffffffffffffff1614151561167b57600080fd5b60001515600760009054906101000a900460ff16151514151561169d57600080fd5b60009150600090505b600481111580156116bb575060001515821515145b15611821578273ffffffffffffffffffffffffffffffffffffffff166001826005811015156116e657fe5b0160009054906101000a900473ffffffffffffffffffffffffffffffffffffffff1673ffffffffffffffffffffffffffffffffffffffff16141561181457600060018260058110151561173557fe5b0160006101000a81548173ffffffffffffffffffffffffffffffffffffffff021916908373ffffffffffffffffffffffffffffffffffffffff1602179055506000600660003373ffffffffffffffffffffffffffffffffffffffff1673ffffffffffffffffffffffffffffffffffffffff16815260200190815260200160002060006101000a81548160ff021916908315150217905550600191508273ffffffffffffffffffffffffffffffffffffffff167fdca59b6371f7db6faad5c9931588f735722795c7b8ea859824e0afc8b2c70a4f60405160405180910390a25b80806001019150506116a6565b6001151582151514151561183157fe5b505050565b60088181548110151561184557fe5b90600052602060002090600202016000915090508060000160009054906101000a900473ffffffffffffffffffffffffffffffffffffffff16908060010160009054906101000a90046fffffffffffffffffffffffffffffffff16905082565b600b6020528060005260406000206000915054906101000a900460ff1681565b60008060009054906101000a900473ffffffffffffffffffffffffffffffffffffffff1673ffffffffffffffffffffffffffffffffffffffff163373ffffffffffffffffffffffffffffffffffffffff1614151561192257600080fd5b60001515600760009054906101000a900460ff16151514151561194457600080fd5b600073ffffffffffffffffffffffffffffffffffffffff168273ffffffffffffffffffffffffffffffffffffffff161415151561198057600080fd5b6000809054906101000a900473ffffffffffffffffffffffffffffffffffffffff169050816000806101000a81548173ffffffffffffffffffffffffffffffffffffffff021916908373ffffffffffffffffffffffffffffffffffffffff1602179055508073ffffffffffffffffffffffffffffffffffffffff168273ffffffffffffffffffffffffffffffffffffffff167f1f8d7d25344642d919d55999e4664aa452a5f424bc0936ceb9c2b300db7dcbd960405160405180910390a35050565b60008060009054906101000a900473ffffffffffffffffffffffffffffffffffffffff1673ffffffffffffffffffffffffffffffffffffffff163373ffffffffffffffffffffffffffffffffffffffff161480611aef575060011515600660003373ffffffffffffffffffffffffffffffffffffffff1673ffffffffffffffffffffffffffffffffffffffff16815260200190815260200160002060009054906101000a900460ff161515145b1515611afa57600080fd5b60011515600b60008473ffffffffffffffffffffffffffffffffffffffff1673ffffffffffffffffffffffffffffffffffffffff16815260200190815260200160002060009054906101000a900460ff161515141515611b5957600080fd5b6000600960008473ffffffffffffffffffffffffffffffffffffffff1673ffffffffffffffffffffffffffffffffffffffff16815260200190815260200160002060020160006101000a81548160ff0219169083151502179055508173ffffffffffffffffffffffffffffffffffffffff167f70e9219a99e9bfc211e7aa1236b656ca826ba23e3e9e5cbdc2f16e0c7eb8fad9600960008573ffffffffffffffffffffffffffffffffffffffff1673ffffffffffffffffffffffffffffffffffffffff1681526020019081526020016000206000016040518080602001828103825283818154600181600116156101000203166002900481526020019150805460018160011615610100020316600290048015611cb75780601f10611c8c57610100808354040283529160200191611cb7565b820191906000526020600020905b815481529060010190602001808311611c9a57829003601f168201915b50509250505060405180910390a260001515600b60008473ffffffffffffffffffffffffffffffffffffffff1673ffffffffffffffffffffffffffffffffffffffff16815260200190815260200160002060009054906101000a905050508173ffffffffffffffffffffffffffffffffffffffff167fe6547a945aa917d8f8b8a71a98062b03570c5ab79d6f47aa64dab5ae6483e0c860405160405180910390a2600b60008373ffffffffffffffffffffffffffffffffffffffff1673ffffffffffffffffffffffffffffffffffffffff16815260200190815260200160002060009054906101000a900460ff169050919050565b60008060008060009054906101000a900473ffffffffffffffffffffffffffffffffffffffff1673ffffffffffffffffffffffffffffffffffffffff163373ffffffffffffffffffffffffffffffffffffffff16141515611e0c57600080fd5b60001515600760009054906101000a900460ff161515141515611e2e57600080fd5b600073ffffffffffffffffffffffffffffffffffffffff168473ffffffffffffffffffffffffffffffffffffffff1614151515611e6a57600080fd5b5b600483111515611ef5578373ffffffffffffffffffffffffffffffffffffffff16600184600581101515611e9b57fe5b0160009054906101000a900473ffffffffffffffffffffffffffffffffffffffff1673ffffffffffffffffffffffffffffffffffffffff161415611eea5760026001141515611ee957600080fd5b5b826001019250611e6b565b600091505b60048111158015611f0f575060001515821515145b1561205f576000600182600581101515611f2557fe5b0160009054906101000a900473ffffffffffffffffffffffffffffffffffffffff1673ffffffffffffffffffffffffffffffffffffffff1614156120525783600182600581101515611f7357fe5b0160006101000a81548173ffffffffffffffffffffffffffffffffffffffff021916908373ffffffffffffffffffffffffffffffffffffffff1602179055506001600660008673ffffffffffffffffffffffffffffffffffffffff1673ffffffffffffffffffffffffffffffffffffffff16815260200190815260200160002060006101000a81548160ff021916908315150217905550600191508373ffffffffffffffffffffffffffffffffffffffff167f39e7d4b9ba48f55a740a5192809dbc498fa12724c030b37dab126a3f6774c0f360405160405180910390a25b8080600101915050611efa565b6001151582151514151561206f57fe5b50505050565b6000806000600960003373ffffffffffffffffffffffffffffffffffffffff1673ffffffffffffffffffffffffffffffffffffffff1681526020019081526020016000209050600d81600001604051808280546001816001161561010002031660029004801561211c5780601f106120fa57610100808354040283529182019161211c565b820191906000526020600020905b815481529060010190602001808311612108575b5050915050908152602001604051809103902060009054906101000a900460ff16151561214857600080fd5b60001515600760009054906101000a900460ff16151514151561216a57600080fd5b600960003373ffffffffffffffffffffffffffffffffffffffff1673ffffffffffffffffffffffffffffffffffffffff168152602001908152602001600020915060018260020160006101000a81548160ff0219169083151502179055508160000160405180828054600181600116156101000203166002900480156122275780601f10612205576101008083540402835291820191612227565b820191906000526020600020905b815481529060010190602001808311612213575b505091505060405180910390203373ffffffffffffffffffffffffffffffffffffffff167ff355208fd9d312498b0cc4874efc22f43194b1b5e38771b6265a15909b95b84860405160405180910390a360019250505090565b60008060001515600760009054906101000a900460ff1615151415156122a557600080fd5b6000600e60003373ffffffffffffffffffffffffffffffffffffffff1673ffffffffffffffffffffffffffffffffffffffff1681526020019081526020016000209050600d8160000160405180828054600181600116156101000203166002900480156123495780601f10612327576101008083540402835291820191612349565b820191906000526020600020905b815481529060010190602001808311612335575b5050915050908152602001604051809103902060009054906101000a900460ff16151561237557600080fd5b600e60003373ffffffffffffffffffffffffffffffffffffffff1673ffffffffffffffffffffffffffffffffffffffff1681526020019081526020016000209150600260038111156123c357fe5b8260010160008660ff1660ff168152602001908152602001600020600101868154811015156123ee57fe5b90600052602060002090602091828204019190069054906101000a900460ff16600381111561241957fe5b14151561242557600080fd5b6000925060038260010160008660ff1660ff1681526020019081526020016000206001018681548110151561245657fe5b90600052602060002090602091828204019190066101000a81548160ff0219169083600381111561248357fe5b0217905550600192508360ff16857f8c27a03ba49022d57890c2993ba9a892600fe4449c319742d4cfc8afe51b541d84600001604051808060200182810382528381815460018160011615610100020316600290048152602001915080546001816001161561010002031660029004801561253f5780601f106125145761010080835404028352916020019161253f565b820191906000526020600020905b81548152906001019060200180831161252257829003601f168201915b50509250505060405180910390a36125ea600a8360000160405180828054600181600116156101000203166002900480156125b15780601f1061258f5761010080835404028352918201916125b1565b820191906000526020600020905b81548152906001019060200180831161259d575b5050915050908152602001604051809103902060009054906101000a900473ffffffffffffffffffffffffffffffffffffffff1661495c565b505092915050565b6000809054906101000a900473ffffffffffffffffffffffffffffffffffffffff1673ffffffffffffffffffffffffffffffffffffffff163373ffffffffffffffffffffffffffffffffffffffff1614151561264d57600080fd5b60001515600760009054906101000a900460ff16151514151561266f57600080fd5b6001600760006101000a81548160ff0219169083151502179055507f6985a02210a168e66602d3235cb6db0e70f92b3ba4d376a33c0f3d9434bff62560405160405180910390a1565b6000806000600960003373ffffffffffffffffffffffffffffffffffffffff1673ffffffffffffffffffffffffffffffffffffffff1681526020019081526020016000209050600d81600001604051808280546001816001161561010002031660029004801561275f5780601f1061273d57610100808354040283529182019161275f565b820191906000526020600020905b81548152906001019060200180831161274b575b5050915050908152602001604051809103902060009054906101000a900460ff16151561278b57600080fd5b60001515600760009054906101000a900460ff1615151415156127ad57600080fd5b600960003373ffffffffffffffffffffffffffffffffffffffff1673ffffffffffffffffffffffffffffffffffffffff16815260200190815260200160002091506000856fffffffffffffffffffffffffffffffff161015151561281057600080fd5b600015158260010160008660ff1660ff16815260200190815260200160002060020160089054906101000a900460ff16151514151561284e57600080fd5b848260010160008660ff1660ff16815260200190815260200160002060000160006101000a8154816fffffffffffffffffffffffffffffffff02191690836fffffffffffffffffffffffffffffffff1602179055508160000160405180828054600181600116156101000203166002900480156129025780601f106128e0576101008083540402835291820191612902565b820191906000526020600020905b8154815290600101906020018083116128ee575b505091505060405180910390208460ff167f630a01f7d64713a78064208ae7bed35bf6ad95a924703f5c2ce1f0351cca1a858760405180826fffffffffffffffffffffffffffffffff166fffffffffffffffffffffffffffffffff16815260200191505060405180910390a3849250505092915050565b6000806000806000600e60003373ffffffffffffffffffffffffffffffffffffffff1673ffffffffffffffffffffffffffffffffffffffff1681526020019081526020016000209050600d816000016040518082805460018160011615610100020316600290048015612a235780601f10612a01576101008083540402835291820191612a23565b820191906000526020600020905b815481529060010190602001808311612a0f575b5050915050908152602001604051809103902060009054906101000a900460ff161515612a4f57600080fd5b60001515600760009054906101000a900460ff161515141515612a7157600080fd5b600e60003373ffffffffffffffffffffffffffffffffffffffff1673ffffffffffffffffffffffffffffffffffffffff1681526020019081526020016000209350858460010160008960ff1660ff16815260200190815260200160002060020160008282829054906101000a900467ffffffffffffffff160192506101000a81548167ffffffffffffffff021916908367ffffffffffffffff1602179055508360010160008860ff1660ff16815260200190815260200160002060020160089054906101000a900460ff16925060001515831515141515612b5157600080fd5b5b8567ffffffffffffffff16821015612bde578360010160008860ff1660ff1681526020019081526020016000206001016000908060018154018082558091505090600182039060005260206000209060209182820401919006909192909190916101000a81548160ff02191690836003811115612bcb57fe5b0217905550508180600101925050612b52565b8660ff167fdb3cb3bd3aa8b0116684a1673c77eb69da47689f478ec18c9b1b42042bff3ebc8560010160008a60ff1660ff16815260200190815260200160002060020160009054906101000a900467ffffffffffffffff16604051808267ffffffffffffffff1667ffffffffffffffff16815260200191505060405180910390a28360010160008860ff1660ff16815260200190815260200160002060020160009054906101000a900467ffffffffffffffff1694505050505092915050565b600080612ca9614d0d565b6000801515600760009054906101000a900460ff161515141515612ccc57600080fd5b6000600e60003373ffffffffffffffffffffffffffffffffffffffff1673ffffffffffffffffffffffffffffffffffffffff1681526020019081526020016000209050600d816000016040518082805460018160011615610100020316600290048015612d705780601f10612d4e576101008083540402835291820191612d70565b820191906000526020600020905b815481529060010190602001808311612d5c575b5050915050908152602001604051809103902060009054906101000a900460ff161515612d9c57600080fd5b600e60003373ffffffffffffffffffffffffffffffffffffffff1673ffffffffffffffffffffffffffffffffffffffff1681526020019081526020016000209350608060405190810160405280886fffffffffffffffffffffffffffffffff1681526020016000604051908082528060200260200182016040528015612e315781602001602082028038833980820191505090505b5081526020018767ffffffffffffffff1681526020016000151581525092508360090160009054906101000a900460ff169450828460010160008760ff1660ff16815260200190815260200160002060008201518160000160006101000a8154816fffffffffffffffffffffffffffffffff02191690836fffffffffffffffffffffffffffffffff1602179055506020820151816001019080519060200190612edb929190614d54565b5060408201518160020160006101000a81548167ffffffffffffffff021916908367ffffffffffffffff16021790555060608201518160020160086101000a81548160ff02191690831515021790555090505083600901600081819054906101000a900460ff168092919060010191906101000a81548160ff021916908360ff160217905550505b8567ffffffffffffffff16821015612fef578360010160008660ff1660ff1681526020019081526020016000206001016000908060018154018082558091505090600182039060005260206000209060209182820401919006909192909190916101000a81548160ff02191690836003811115612fdc57fe5b0217905550508180600101925050612f63565b83600001604051808280546001816001161561010002031660029004801561304e5780601f1061302c57610100808354040283529182019161304e565b820191906000526020600020905b81548152906001019060200180831161303a575b505091505060405180910390207f2cce3c7d7df1dc3800ffe78d254642769c0310fced2b71ad898a32370de24ef986604051808260ff16815260200191505060405180910390a28494505050505092915050565b600c6020528060005260406000206000915054906101000a900460ff1681565b6000806000801515600760009054906101000a900460ff1615151415156130e857600080fd5b6000600e60003373ffffffffffffffffffffffffffffffffffffffff1673ffffffffffffffffffffffffffffffffffffffff1681526020019081526020016000209050600d81600001604051808280546001816001161561010002031660029004801561318c5780601f1061316a57610100808354040283529182019161318c565b820191906000526020600020905b815481529060010190602001808311613178575b5050915050908152602001604051809103902060009054906101000a900460ff1615156131b857600080fd5b600e60003373ffffffffffffffffffffffffffffffffffffffff1673ffffffffffffffffffffffffffffffffffffffff168152602001908152602001600020935060009250600191505b60058211158015613217575060001515831515145b156132b5576000846003018360068110151561322f57fe5b0160009054906101000a900473ffffffffffffffffffffffffffffffffffffffff1673ffffffffffffffffffffffffffffffffffffffff1614156132a8578473ffffffffffffffffffffffffffffffffffffffff16846003018360068110151561329557fe5b0160009054906101000a90505050600192505b8180600101925050613202565b600115158315151415156132c557fe5b8360000160405180828054600181600116156101000203166002900480156133245780601f10613302576101008083540402835291820191613324565b820191906000526020600020905b815481529060010190602001808311613310575b505091505060405180910390207fdca8ee980ba41d88dec0b4c222b29abe66398c56059a90c3bb7f5a597c7d91be86604051808273ffffffffffffffffffffffffffffffffffffffff1673ffffffffffffffffffffffffffffffffffffffff16815260200191505060405180910390a25050505050565b60006133a5614e03565b60008060009054906101000a900473ffffffffffffffffffffffffffffffffffffffff1673ffffffffffffffffffffffffffffffffffffffff163373ffffffffffffffffffffffffffffffffffffffff161480613452575060011515600660003373ffffffffffffffffffffffffffffffffffffffff1673ffffffffffffffffffffffffffffffffffffffff16815260200190815260200160002060009054906101000a900460ff161515145b151561345d57600080fd5b60001515600760009054906101000a900460ff16151514151561347f57600080fd5b60001515600b60008673ffffffffffffffffffffffffffffffffffffffff1673ffffffffffffffffffffffffffffffffffffffff16815260200190815260200160002060009054906101000a900460ff1615151415156134de57600080fd5b60408051908101604052808573ffffffffffffffffffffffffffffffffffffffff16815260200160006fffffffffffffffffffffffffffffffff16815250915060016008839080600181540180825580915050906001820390600052602060002090600202016000909192909190915060008201518160000160006101000a81548173ffffffffffffffffffffffffffffffffffffffff021916908373ffffffffffffffffffffffffffffffffffffffff16021790555060208201518160010160006101000a8154816fffffffffffffffffffffffffffffffff02191690836fffffffffffffffffffffffffffffffff16021790555050500390506001600b60008673ffffffffffffffffffffffffffffffffffffffff1673ffffffffffffffffffffffffffffffffffffffff16815260200190815260200160002060006101000a81548160ff0219169083151502179055508373ffffffffffffffffffffffffffffffffffffffff167f64a6cb4c2615e9c9ee211131f9fc94aaa6238a3c255423b75ba43ef01ca42dcd60405160405180910390a28092505050919050565b600080613689614d0d565b600080600060011515600660003373ffffffffffffffffffffffffffffffffffffffff1673ffffffffffffffffffffffffffffffffffffffff16815260200190815260200160002060009054906101000a900460ff1615151415156136ed57600080fd5b60001515600760009054906101000a900460ff16151514151561370f57600080fd5b600e60003373ffffffffffffffffffffffffffffffffffffffff1673ffffffffffffffffffffffffffffffffffffffff16815260200190815260200160002094506080604051908101604052808a6fffffffffffffffffffffffffffffffff16815260200160006040519080825280602002602001820160405280156137a45781602001602082028038833980820191505090505b508152602001600167ffffffffffffffff1681526020016001151581525093508460090160009054906101000a900460ff169250838560010160008560ff1660ff16815260200190815260200160002060008201518160000160006101000a8154816fffffffffffffffffffffffffffffffff02191690836fffffffffffffffffffffffffffffffff160217905550602082015181600101908051906020019061384f929190614d54565b5060408201518160020160006101000a81548167ffffffffffffffff021916908367ffffffffffffffff16021790555060608201518160020160086101000a81548160ff02191690831515021790555090505060018560090160008282829054906101000a900460ff160192506101000a81548160ff021916908360ff160217905550600a8560000160405180828054600181600116156101000203166002900480156139335780601f10613911576101008083540402835291820191613933565b820191906000526020600020905b81548152906001019060200180831161391f575b5050915050908152602001604051809103902060009054906101000a900473ffffffffffffffffffffffffffffffffffffffff1691508460010160008460ff1660ff1681526020019081526020016000206001016001908060018154018082558091505090600182039060005260206000209060209182820401919006909192909190916101000a81548160ff021916908360038111156139d057fe5b02179055505060115490506001601154016011819055506139fe89898967ffffffffffffffff168585614a34565b846000016040518082805460018160011615610100020316600290048015613a5d5780601f10613a3b576101008083540402835291820191613a5d565b820191906000526020600020905b815481529060010190602001808311613a49575b505091505060405180910390207ff36840d47ad7293fb7696ae2295903ce8f79944fa7923223f824eabacee772d4826040518082815260200191505060405180910390a285955050505050509392505050565b6060613aba614e45565b613ac2614e68565b60001515600760009054906101000a900460ff161515141515613ae457600080fd5b60011515600b60003373ffffffffffffffffffffffffffffffffffffffff1673ffffffffffffffffffffffffffffffffffffffff16815260200190815260200160002060009054906101000a900460ff161515141515613b4357600080fd5b60001515600c60003373ffffffffffffffffffffffffffffffffffffffff1673ffffffffffffffffffffffffffffffffffffffff16815260200190815260200160002060009054906101000a900460ff161515141515613ba257600080fd5b60001515600d856040518082805190602001908083835b602083101515613bde5780518252602082019150602081019050602083039250613bb9565b6001836020036101000a038019825116818451168082178552505050505050905001915050908152602001604051809103902060009054906101000a900460ff161515141515613c2d57600080fd5b608060405190810160405280858152602001600015158152602001838152602001600060ff16815250905080600960003373ffffffffffffffffffffffffffffffffffffffff1673ffffffffffffffffffffffffffffffffffffffff1681526020019081526020016000206000820151816000019080519060200190613cb4929190614e9d565b5060208201518160020160006101000a81548160ff021916908315150217905550604082015181600301906006613cec929190614f1d565b5060608201518160090160006101000a81548160ff021916908360ff16021790555090505033600a82600001516040518082805190602001908083835b602083101515613d4e5780518252602082019150602081019050602083039250613d29565b6001836020036101000a038019825116818451168082178552505050505050905001915050908152602001604051809103902060006101000a81548173ffffffffffffffffffffffffffffffffffffffff021916908373ffffffffffffffffffffffffffffffffffffffff1602179055506001600d82600001516040518082805190602001908083835b602083101515613dfd5780518252602082019150602081019050602083039250613dd8565b6001836020036101000a038019825116818451168082178552505050505050905001915050908152602001604051809103902060006101000a81548160ff0219169083151502179055503381604001516000600681101515613e5b57fe5b602002019073ffffffffffffffffffffffffffffffffffffffff16908173ffffffffffffffffffffffffffffffffffffffff16815250506001600c60003373ffffffffffffffffffffffffffffffffffffffff1673ffffffffffffffffffffffffffffffffffffffff16815260200190815260200160002060006101000a81548160ff02191690831515021790555080600001516040518082805190602001908083835b602083101515613f245780518252602082019150602081019050602083039250613eff565b6001836020036101000a03801982511681845116808217855250505050505090500191505060405180910390203373ffffffffffffffffffffffffffffffffffffffff167fa7a7f9a1330b838be79b751ee060f9db022a74c4288f770bb54d328e8e4c11a760405160405180910390a3806000015192505050919050565b60008060009054906101000a900473ffffffffffffffffffffffffffffffffffffffff1673ffffffffffffffffffffffffffffffffffffffff163373ffffffffffffffffffffffffffffffffffffffff16141515613fff57600080fd5b81905080600f60006101000a81548173ffffffffffffffffffffffffffffffffffffffff021916908373ffffffffffffffffffffffffffffffffffffffff1602179055505050565b600f60009054906101000a900473ffffffffffffffffffffffffffffffffffffffff1681565b6000809054906101000a900473ffffffffffffffffffffffffffffffffffffffff1681565b600080601260008460ff16815260200190815260200160002090506140b68161477f565b15156140c157600080fd5b6140ca816147ad565b915050919050565b600080600080600960003373ffffffffffffffffffffffffffffffffffffffff1673ffffffffffffffffffffffffffffffffffffffff1681526020019081526020016000209050600d81600001604051808280546001816001161561010002031660029004801561417a5780601f1061415857610100808354040283529182019161417a565b820191906000526020600020905b815481529060010190602001808311614166575b5050915050908152602001604051809103902060009054906101000a900460ff1615156141a657600080fd5b60001515600760009054906101000a900460ff1615151415156141c857600080fd5b600960003373ffffffffffffffffffffffffffffffffffffffff1673ffffffffffffffffffffffffffffffffffffffff168152602001908152602001600020935060009250600191505b60058211158015614227575060001515831515145b156142c5578473ffffffffffffffffffffffffffffffffffffffff16846003018360068110151561425457fe5b0160009054906101000a900473ffffffffffffffffffffffffffffffffffffffff1673ffffffffffffffffffffffffffffffffffffffff1614156142b857600084600301836006811015156142a557fe5b0160009054906101000a90505050600192505b8180600101925050614212565b600115158315151415156142d557fe5b8360000160405180828054600181600116156101000203166002900480156143345780601f10614312576101008083540402835291820191614334565b820191906000526020600020905b815481529060010190602001808311614320575b505091505060405180910390207f98629ba0c60b4974223d2f7684841bf2f71d2ecebd4c82a490d9cfe73132de5b86604051808273ffffffffffffffffffffffffffffffffffffffff1673ffffffffffffffffffffffffffffffffffffffff16815260200191505060405180910390a25050505050565b600080600080600080601260008860ff16815260200190815260200160002090506143d58161477f565b15156143e057600080fd5b8060000160009054906101000a900473ffffffffffffffffffffffffffffffffffffffff168160010160009054906101000a90046fffffffffffffffffffffffffffffffff168260010160109054906101000a90046fffffffffffffffffffffffffffffffff168360020160009054906101000a900467ffffffffffffffff168460020160089054906101000a900467ffffffffffffffff16836fffffffffffffffffffffffffffffffff169350826fffffffffffffffffffffffffffffffff1692508167ffffffffffffffff1691508067ffffffffffffffff169050955095509550955095505091939590929450565b60008060008060008060009450600a876040518082805190602001908083835b60208310151561451657805182526020820191506020810190506020830392506144f1565b6001836020036101000a038019825116818451168082178552505050505050905001915050908152602001604051809103902060009054906101000a900473ffffffffffffffffffffffffffffffffffffffff169250600960008473ffffffffffffffffffffffffffffffffffffffff1673ffffffffffffffffffffffffffffffffffffffff16815260200190815260200160002091505b8160010160008960ff1660ff16815260200190815260200160002060010180549050811080156145e2575060001515851515145b1561466157600060038111156145f457fe5b8260010160008a60ff1660ff1681526020019081526020016000206001018281548110151561461f57fe5b90600052602060002090602091828204019190069054906101000a900460ff16600381111561464a57fe5b1415614654578093505b80806001019150506145ae565b6001151585151514151561467157fe5b839550505050505092915050565b803073ffffffffffffffffffffffffffffffffffffffff1631101515156146a557600080fd5b600f60009054906101000a900473ffffffffffffffffffffffffffffffffffffffff1673ffffffffffffffffffffffffffffffffffffffff1663f340fa0182846040518363ffffffff167c0100000000000000000000000000000000000000000000000000000000028152600401808273ffffffffffffffffffffffffffffffffffffffff1673ffffffffffffffffffffffffffffffffffffffff1681526020019150506000604051808303818588803b15801561476257600080fd5b505af1158015614776573d6000803e3d6000fd5b50505050505050565b6000808260020160089054906101000a900467ffffffffffffffff1667ffffffffffffffff16119050919050565b600080600090508260020160089054906101000a900467ffffffffffffffff1667ffffffffffffffff16421115614806578260020160089054906101000a900467ffffffffffffffff1667ffffffffffffffff16420390505b6148988360010160009054906101000a90046fffffffffffffffffffffffffffffffff166fffffffffffffffffffffffffffffffff168460010160109054906101000a90046fffffffffffffffffffffffffffffffff166fffffffffffffffffffffffffffffffff168560020160009054906101000a900467ffffffffffffffff1667ffffffffffffffff1684614ae8565b915050919050565b60126000828152602001908152602001600020600080820160006101000a81549073ffffffffffffffffffffffffffffffffffffffff02191690556001820160006101000a8154906fffffffffffffffffffffffffffffffff02191690556001820160106101000a8154906fffffffffffffffffffffffffffffffff02191690556002820160006101000a81549067ffffffffffffffff02191690556002820160086101000a81549067ffffffffffffffff0219169055505050565b600f60009054906101000a900473ffffffffffffffffffffffffffffffffffffffff1673ffffffffffffffffffffffffffffffffffffffff166351cff8d9826040518263ffffffff167c0100000000000000000000000000000000000000000000000000000000028152600401808273ffffffffffffffffffffffffffffffffffffffff1673ffffffffffffffffffffffffffffffffffffffff168152602001915050600060405180830381600087803b158015614a1957600080fd5b505af1158015614a2d573d6000803e3d6000fd5b5050505050565b614a3c614f9a565b60001515600760009054906101000a900460ff161515141515614a5e57600080fd5b60a0604051908101604052808473ffffffffffffffffffffffffffffffffffffffff168152602001876fffffffffffffffffffffffffffffffff168152602001866fffffffffffffffffffffffffffffffff1681526020018567ffffffffffffffff1681526020014267ffffffffffffffff168152509050614ae08282614b28565b505050505050565b6000806000808585101515614aff57869350614b1d565b878703925085858402811515614b1157fe5b05915081880190508093505b505050949350505050565b603c816060015167ffffffffffffffff1610151515614b4657600080fd5b806012600084815260200190815260200160002060008201518160000160006101000a81548173ffffffffffffffffffffffffffffffffffffffff021916908373ffffffffffffffffffffffffffffffffffffffff16021790555060208201518160010160006101000a8154816fffffffffffffffffffffffffffffffff02191690836fffffffffffffffffffffffffffffffff16021790555060408201518160010160106101000a8154816fffffffffffffffffffffffffffffffff02191690836fffffffffffffffffffffffffffffffff16021790555060608201518160020160006101000a81548167ffffffffffffffff021916908367ffffffffffffffff16021790555060808201518160020160086101000a81548167ffffffffffffffff021916908367ffffffffffffffff1602179055509050507fa9c8dfcda5664a5a124c713e386da27de87432d5b668e79458501eb296389ba78282602001516fffffffffffffffffffffffffffffffff1683604001516fffffffffffffffffffffffffffffffff16846060015167ffffffffffffffff166040518085815260200184815260200183815260200182815260200194505050505060405180910390a15050565b60806040519081016040528060006fffffffffffffffffffffffffffffffff16815260200160608152602001600067ffffffffffffffff1681526020016000151581525090565b82805482825590600052602060002090601f01602090048101928215614df25791602002820160005b83821115614dc357835183826101000a81548160ff02191690836003811115614da257fe5b02179055509260200192600101602081600001049283019260010302614d7d565b8015614df05782816101000a81549060ff0219169055600101602081600001049283019260010302614dc3565b505b509050614dff9190615018565b5090565b6040805190810160405280600073ffffffffffffffffffffffffffffffffffffffff16815260200160006fffffffffffffffffffffffffffffffff1681525090565b60c060405190810160405280600690602082028038833980820191505090505090565b6101206040519081016040528060608152602001600015158152602001614e8d615048565b8152602001600060ff1681525090565b828054600181600116156101000203166002900490600052602060002090601f016020900481019282601f10614ede57805160ff1916838001178555614f0c565b82800160010185558215614f0c579182015b82811115614f0b578251825591602001919060010190614ef0565b5b509050614f19919061506b565b5090565b8260068101928215614f89579160200282015b82811115614f885782518260006101000a81548173ffffffffffffffffffffffffffffffffffffffff021916908373ffffffffffffffffffffffffffffffffffffffff16021790555091602001919060010190614f30565b5b509050614f969190615090565b5090565b60a060405190810160405280600073ffffffffffffffffffffffffffffffffffffffff16815260200160006fffffffffffffffffffffffffffffffff16815260200160006fffffffffffffffffffffffffffffffff168152602001600067ffffffffffffffff168152602001600067ffffffffffffffff1681525090565b61504591905b8082111561504157600081816101000a81549060ff02191690555060010161501e565b5090565b90565b60c060405190810160405280600690602082028038833980820191505090505090565b61508d91905b80821115615089576000816000905550600101615071565b5090565b90565b6150d091905b808211156150cc57600081816101000a81549073ffffffffffffffffffffffffffffffffffffffff021916905550600101615096565b5090565b905600a165627a7a72305820aa95f20cd3e4fc12bfa4dce2c8a93ec34c6e1bdb2d82a4fcf8abe80c756c2b710029",
  "source": "pragma solidity ^0.4.24;\n\nimport \"./StorePurchasing.sol\";\n\n\n/**  @dev This contract is used to sell auction type items. The entire auction\n  *  process is managed in this contract. It maintains use of the escrow contract\n  *  to manage payments and withdrawl of funds.\n  */\ncontract StoreAuction is StorePurchasing{\n\n  /// @dev Emit when a new auction type product is created:\n  event LogNewAuctionProduct(uint _auctionId,string indexed _storeName);\n  event AuctionCreated(uint256 productId, uint256 startingPrice, uint256 endingPrice, uint256 duration);\n\n  /// @dev Emit when a new auction executes successfully\n  event AuctionSuccessful(uint256 productId, uint256 totalPrice, address winner);\n  /// @dev Emit when the auction is cancelled\n  event AuctionCancelled(uint256 productId);\n\n  /// @dev Tracks all auctions in the Maats Network\n  uint totalAuctions = 0;\n\n  /// @dev trakes the Auction Id as a key for the Auction\n  mapping(uint256 => Auction) auctionIdToAuction;\n\n  /// @dev Struct for the auction type to manage auction logic\n  struct Auction {\n      // product owner\n      address seller;\n      // equal to price of product struct\n      uint128 startingPrice;\n      // Price (in wei) at end of auction\n      uint128 endingPrice;\n      // Duration (in seconds) of auction\n      uint64 duration;\n      // Time when auction started\n      // NOTE: 0 if this auction has been concluded\n      uint64 startedAt;\n  }\n\n  /// @dev Internal function for auctioning products.\n  /// @param _startingPrice : the starting price for the Dutch Auction\n  /// @param _endingPrice : the lowest the owner want's to sell the product for\n  /// @param _duration : the length of the auction\n  /// @param _seller : the address of the owner selling the product\n  /// @param _auctionId : the identifier for the auction\n  function createAuction(\n      uint256 _startingPrice,\n      uint256 _endingPrice,\n      uint256 _duration,\n      address _seller,\n      uint256 _auctionId\n  )\n      internal\n      whenNotPaused\n  {\n      Auction memory auction = Auction(\n          _seller,\n          uint128(_startingPrice),\n          uint128(_endingPrice),\n          uint64(_duration),\n          uint64(now)\n      );\n      _addAuction(_auctionId, auction);\n  }\n\n  /// @dev Adds the auction to the list of current auctions and emits event\n  /// @param _auctionId : the identifier for this auction\n  /// @param _auction : the acution being created\n  function _addAuction(uint256 _auctionId, Auction _auction) internal {\n      // Require that all auctions have a duration of\n      // at least one minute. (Keeps our math from getting hairy!)\n      require(_auction.duration >= 1 minutes);\n\n      // Add auction to mapping storing auctions\n      auctionIdToAuction[_auctionId] = _auction;\n\n      // Let everyone know about the new auction!!\n      emit AuctionCreated(\n          uint256(_auctionId),\n          uint256(_auction.startingPrice),\n          uint256(_auction.endingPrice),\n          uint256(_auction.duration)\n      );\n  }\n\n  /// @dev Removes an auction from the system\n  /// @param _auctionId : Locator for the auction to be deleted\n  function _removeAuction(uint256 _auctionId) internal {\n      delete auctionIdToAuction[_auctionId];\n  }\n\n  /// @dev allows the owner to cancel auction\n  function _cancelAuction(uint256 _auctionId) internal {\n      _removeAuction(_auctionId);\n      emit AuctionCancelled(_auctionId);\n  }\n\n  /// @dev Used to view if an auction is still live\n  function _isOnAuction(Auction storage _auction) internal view returns (bool) {\n      return (_auction.startedAt > 0);\n  }\n\n  /// @dev Allows customers to \"bid\" on a product: Dutch (reverse) auctions don't\n  /// have bids since it goes from high price to low price. Bid is essentially buy.\n  /// @param _auctionId : The auction which they will be bidding on\n  /// @param _productId : Identifier for product being bid on\n  function _bid(uint256 _auctionId,uint8 _productId)\n      public\n      payable\n      whenNotPaused\n      returns (uint256)\n  {\n      // Get a reference to the auction struct\n      Auction storage auction = auctionIdToAuction[_auctionId];\n\n      // Explicitly check that this auction is currently live.\n      // (Because of how Ethereum mappings work, we can't just count\n      // on the lookup above failing. An invalid _tokenId will just\n      // return an auction object that is all zeros.)\n      require(_isOnAuction(auction));\n\n      // Check that the incoming bid is higher than the current\n      // price\n      uint256 value = msg.value;\n      uint256 price = _currentPrice(auction);\n      require(value >= price);\n\n      // Grab a reference to the seller before the auction struct\n      // gets deleted.\n      address seller = auction.seller;\n\n      // The bid is good! Remove the auction before sending the fees\n      // to the sender so we can't have a reentrancy attack.\n      _removeAuction(_auctionId);\n\n      depositEscrow(seller,value);\n\n      Store storage current = OwnerToStore[seller];\n      current.products[_productId].items[0] = ItemStatus.Bought;\n      emit LogItemBought(_productId, msg.sender,current.storeName);\n      // Tell the world!\n      emit AuctionSuccessful(_productId, price, msg.sender);\n\n      return price;\n  }\n\n  /// @dev Creates the auction product and immediately puts it on auction.\n  /// @param _startingPrice : Price the auction will start at (highest)\n  /// @param _endingPrice : Price auction will end at (lowest)\n  /// @param _duration : length of the auction (determines speed of price decrease)\n  /// @return _auctionId : To be used to tag auction created.\n  function createAuctionProduct(\n    uint256 _startingPrice,\n    uint256 _endingPrice,\n    uint64 _duration\n    )\n    public\n    onlyMaatsAdmin\n    whenNotPaused\n    returns(uint auctionId){\n      // Get current store based on the msg.sender\n      Store storage current = storeAdminToStore[msg.sender];\n\n      // Create the new product to store in mapping\n      Product memory _product = Product({\n        price: uint128(_startingPrice),\n        items: new ItemStatus[](0),\n        inventory: 1,\n        auction: true\n        });\n\n      // update product count and pruduct mappings\n      uint8 _productId = current.prodCount;\n      current.products[_productId] = _product;\n      current.prodCount += 1;\n\n      // Get the current seller(owner) of the product\n      address seller = StoreNameToOwner[current.storeName];\n\n      // Set the product instance as ForAuction\n      current.products[_productId].items.push(ItemStatus.ForAuction);\n\n      // Update contract auction count\n      uint _auctionId =  totalAuctions;\n      totalAuctions = totalAuctions + 1;\n      createAuction( _startingPrice, _endingPrice,_duration,seller,_auctionId);\n\n      // Let the world know about the new product!\n      emit LogNewAuctionProduct(_auctionId, current.storeName);\n      return(auctionId);\n    }\n\n  /// @dev Computes the current price of the item on auction\n  function _currentPrice(Auction storage _auction)\n      internal\n      view\n      returns (uint256)\n  {\n      uint256 secondsPassed = 0;\n\n      // A bit of insurance against negative values (or wraparound).\n      // Probably not necessary (since Ethereum guarnatees that the\n      // now variable doesn't ever go backwards).\n      if (now > _auction.startedAt) {\n          secondsPassed = now - _auction.startedAt;\n      }\n\n      //call to internal function\n      return _computeCurrentPrice(\n          _auction.startingPrice,\n          _auction.endingPrice,\n          _auction.duration,\n          secondsPassed\n      );\n  }\n\n  /// @dev Computes the current price of an auction. Factored out\n  ///  from _currentPrice so we can run extensive unit tests.\n  ///  When testing, make this function public and turn on\n  ///  `Current price computation` test suite.\n  function _computeCurrentPrice(\n      uint256 _startingPrice,\n      uint256 _endingPrice,\n      uint256 _duration,\n      uint256 _secondsPassed\n  )\n      internal\n      pure\n      returns (uint256)\n  {\n      // NOTE: We don't use SafeMath (or similar) in this function because\n      //  all of our public functions carefully cap the maximum values for\n      //  time (at 64-bits) and currency (at 128-bits). _duration is\n      //  also known to be non-zero (see the require() statement in\n      //  _addAuction())\n      if (_secondsPassed >= _duration) {\n          // We've reached the end of the dynamic pricing portion\n          // of the auction, just return the end price.\n          return _endingPrice;\n      } else {\n          // Starting price can be higher than ending price (and often is!), so\n          // this delta can be negative.\n          int256 totalPriceChange = int256(_endingPrice) - int256(_startingPrice);\n\n          // This multiplication can't overflow, _secondsPassed will easily fit within\n          // 64-bits, and totalPriceChange will easily fit within 128-bits, their product\n          // will always fit within 256-bits.\n          int256 currentPriceChange = totalPriceChange * int256(_secondsPassed) / int256(_duration);\n\n          // currentPriceChange can be negative, but if so, will have a magnitude\n          // less that _startingPrice. Thus, this result will always end up positive.\n          int256 currentPrice = int256(_startingPrice) + currentPriceChange;\n\n          return uint256(currentPrice);\n      }\n    }\n\n      /// @dev allows us to get the auction so we can see the various properties\n      /// params : all paramaters have been previously defined\n      function getAuction(uint8 _productId)\n          public\n          view\n          returns\n      (\n          address seller,\n          uint256 startingPrice,\n          uint256 endingPrice,\n          uint256 duration,\n          uint256 startedAt\n      ) {\n          Auction storage auction = auctionIdToAuction[_productId];\n          require(_isOnAuction(auction));\n          return (\n              auction.seller,\n              auction.startingPrice,\n              auction.endingPrice,\n              auction.duration,\n              auction.startedAt\n          );\n      }\n\n      function getCurrentPrice(uint8 _productId)\n          public\n          view\n          returns (uint256)\n      {\n          Auction storage auction = auctionIdToAuction[_productId];\n          require(_isOnAuction(auction));\n          return _currentPrice(auction);\n      }\n\n  }\n",
  "sourcePath": "/Users/ericbrown/Documents/Blockchain/ConsenSysCourse/Maats/contracts/StoreAuction.sol",
  "compiler": {
    "name": "solc",
    "version": "0.4.24+commit.e67f0147.Emscripten.clang"
  },
  "schemaVersion": "2.0.1",
  "updatedAt": "2018-07-27T16:53:36.213Z"
}