{
  "contractName": "StorePurchasing",
  "abi": [
    {
      "constant": true,
      "inputs": [
        {
          "name": "adminAddress",
          "type": "address"
        }
      ],
      "name": "getIsStoreAdmin",
      "outputs": [
        {
          "name": "",
          "type": "bool"
        }
      ],
      "payable": false,
      "stateMutability": "view",
      "type": "function"
    },
    {
      "constant": true,
      "inputs": [
        {
          "name": "_storeName",
          "type": "string"
        }
      ],
      "name": "getNumProducts",
      "outputs": [
        {
          "name": "",
          "type": "uint256"
        }
      ],
      "payable": false,
      "stateMutability": "view",
      "type": "function"
    },
    {
      "constant": true,
      "inputs": [
        {
          "name": "_storeName",
          "type": "string"
        }
      ],
      "name": "getOwnerFromName",
      "outputs": [
        {
          "name": "",
          "type": "address"
        }
      ],
      "payable": false,
      "stateMutability": "view",
      "type": "function"
    },
    {
      "constant": true,
      "inputs": [
        {
          "name": "storeName",
          "type": "string"
        },
        {
          "name": "productId",
          "type": "uint8"
        }
      ],
      "name": "getCurrentSetPrice",
      "outputs": [
        {
          "name": "",
          "type": "uint72"
        }
      ],
      "payable": false,
      "stateMutability": "view",
      "type": "function"
    },
    {
      "constant": true,
      "inputs": [
        {
          "name": "_storeName",
          "type": "string"
        }
      ],
      "name": "getStoreExists",
      "outputs": [
        {
          "name": "",
          "type": "bool"
        }
      ],
      "payable": false,
      "stateMutability": "view",
      "type": "function"
    },
    {
      "constant": true,
      "inputs": [
        {
          "name": "",
          "type": "address"
        }
      ],
      "name": "purchaserToItem",
      "outputs": [
        {
          "name": "",
          "type": "uint256"
        }
      ],
      "payable": false,
      "stateMutability": "view",
      "type": "function"
    },
    {
      "constant": false,
      "inputs": [],
      "name": "_pause",
      "outputs": [],
      "payable": false,
      "stateMutability": "nonpayable",
      "type": "function"
    },
    {
      "constant": false,
      "inputs": [],
      "name": "withdraw",
      "outputs": [],
      "payable": false,
      "stateMutability": "nonpayable",
      "type": "function"
    },
    {
      "constant": false,
      "inputs": [
        {
          "name": "_revokedAdmin",
          "type": "address"
        }
      ],
      "name": "removeMaatsAdmin",
      "outputs": [],
      "payable": false,
      "stateMutability": "nonpayable",
      "type": "function"
    },
    {
      "constant": false,
      "inputs": [
        {
          "name": "_newOwner",
          "type": "address"
        }
      ],
      "name": "setMaatsOwner",
      "outputs": [],
      "payable": false,
      "stateMutability": "nonpayable",
      "type": "function"
    },
    {
      "constant": true,
      "inputs": [
        {
          "name": "_productId",
          "type": "uint8"
        },
        {
          "name": "_storeName",
          "type": "string"
        }
      ],
      "name": "getProductType",
      "outputs": [
        {
          "name": "",
          "type": "bool"
        }
      ],
      "payable": false,
      "stateMutability": "view",
      "type": "function"
    },
    {
      "constant": true,
      "inputs": [
        {
          "name": "index",
          "type": "uint256"
        },
        {
          "name": "storeName",
          "type": "string"
        }
      ],
      "name": "getStoreAdmins",
      "outputs": [
        {
          "name": "",
          "type": "address"
        }
      ],
      "payable": false,
      "stateMutability": "view",
      "type": "function"
    },
    {
      "constant": false,
      "inputs": [
        {
          "name": "_newAdmin",
          "type": "address"
        }
      ],
      "name": "createMaatsAdmin",
      "outputs": [],
      "payable": false,
      "stateMutability": "nonpayable",
      "type": "function"
    },
    {
      "constant": false,
      "inputs": [
        {
          "name": "_storeName",
          "type": "string"
        }
      ],
      "name": "removeStoreOwner",
      "outputs": [],
      "payable": false,
      "stateMutability": "nonpayable",
      "type": "function"
    },
    {
      "constant": true,
      "inputs": [
        {
          "name": "_admin",
          "type": "address"
        }
      ],
      "name": "getIsAdmin",
      "outputs": [
        {
          "name": "",
          "type": "bool"
        }
      ],
      "payable": false,
      "stateMutability": "view",
      "type": "function"
    },
    {
      "constant": true,
      "inputs": [],
      "name": "pause",
      "outputs": [
        {
          "name": "",
          "type": "bool"
        }
      ],
      "payable": false,
      "stateMutability": "view",
      "type": "function"
    },
    {
      "constant": false,
      "inputs": [
        {
          "name": "_newPrice",
          "type": "uint72"
        },
        {
          "name": "_productId",
          "type": "uint8"
        }
      ],
      "name": "changePrice",
      "outputs": [
        {
          "name": "",
          "type": "uint72"
        }
      ],
      "payable": false,
      "stateMutability": "nonpayable",
      "type": "function"
    },
    {
      "constant": false,
      "inputs": [
        {
          "name": "_productId",
          "type": "uint8"
        },
        {
          "name": "_newInventory",
          "type": "uint64"
        }
      ],
      "name": "addInventory",
      "outputs": [
        {
          "name": "",
          "type": "uint64"
        }
      ],
      "payable": false,
      "stateMutability": "nonpayable",
      "type": "function"
    },
    {
      "constant": true,
      "inputs": [
        {
          "name": "",
          "type": "address"
        }
      ],
      "name": "OwnerToStoreId",
      "outputs": [
        {
          "name": "",
          "type": "uint256"
        }
      ],
      "payable": false,
      "stateMutability": "view",
      "type": "function"
    },
    {
      "constant": true,
      "inputs": [],
      "name": "currentStoreCount",
      "outputs": [
        {
          "name": "",
          "type": "uint256"
        }
      ],
      "payable": false,
      "stateMutability": "view",
      "type": "function"
    },
    {
      "constant": false,
      "inputs": [
        {
          "name": "_NewAdminAddress",
          "type": "address"
        }
      ],
      "name": "createStoreAdmin",
      "outputs": [],
      "payable": false,
      "stateMutability": "nonpayable",
      "type": "function"
    },
    {
      "constant": true,
      "inputs": [
        {
          "name": "storeName",
          "type": "string"
        },
        {
          "name": "productId",
          "type": "uint8"
        }
      ],
      "name": "getCurrentInventory",
      "outputs": [
        {
          "name": "",
          "type": "uint64"
        }
      ],
      "payable": false,
      "stateMutability": "view",
      "type": "function"
    },
    {
      "constant": true,
      "inputs": [],
      "name": "escrow",
      "outputs": [
        {
          "name": "",
          "type": "address"
        }
      ],
      "payable": false,
      "stateMutability": "view",
      "type": "function"
    },
    {
      "constant": true,
      "inputs": [
        {
          "name": "storeName",
          "type": "string"
        },
        {
          "name": "productId",
          "type": "uint8"
        }
      ],
      "name": "getProductExists",
      "outputs": [
        {
          "name": "",
          "type": "bool"
        }
      ],
      "payable": false,
      "stateMutability": "view",
      "type": "function"
    },
    {
      "constant": true,
      "inputs": [],
      "name": "maatsOwner",
      "outputs": [
        {
          "name": "",
          "type": "address"
        }
      ],
      "payable": false,
      "stateMutability": "view",
      "type": "function"
    },
    {
      "constant": true,
      "inputs": [
        {
          "name": "",
          "type": "uint256"
        }
      ],
      "name": "maatsAdmins",
      "outputs": [
        {
          "name": "",
          "type": "address"
        }
      ],
      "payable": false,
      "stateMutability": "view",
      "type": "function"
    },
    {
      "constant": false,
      "inputs": [
        {
          "name": "_newOwner",
          "type": "address"
        },
        {
          "name": "_storeName",
          "type": "string"
        }
      ],
      "name": "createStore",
      "outputs": [
        {
          "name": "",
          "type": "string"
        }
      ],
      "payable": false,
      "stateMutability": "nonpayable",
      "type": "function"
    },
    {
      "constant": false,
      "inputs": [],
      "name": "_unpause",
      "outputs": [],
      "payable": false,
      "stateMutability": "nonpayable",
      "type": "function"
    },
    {
      "constant": false,
      "inputs": [
        {
          "name": "_price",
          "type": "uint72"
        },
        {
          "name": "_inventory",
          "type": "uint64"
        }
      ],
      "name": "createSetPriceProduct",
      "outputs": [
        {
          "name": "_productId",
          "type": "uint8"
        }
      ],
      "payable": false,
      "stateMutability": "nonpayable",
      "type": "function"
    },
    {
      "constant": false,
      "inputs": [
        {
          "name": "_adminAddress",
          "type": "address"
        }
      ],
      "name": "removeStoreAdmin",
      "outputs": [],
      "payable": false,
      "stateMutability": "nonpayable",
      "type": "function"
    },
    {
      "constant": true,
      "inputs": [
        {
          "name": "i",
          "type": "uint256"
        }
      ],
      "name": "getStoreName",
      "outputs": [
        {
          "name": "",
          "type": "string"
        }
      ],
      "payable": false,
      "stateMutability": "view",
      "type": "function"
    },
    {
      "anonymous": false,
      "inputs": [
        {
          "indexed": true,
          "name": "_productId",
          "type": "uint8"
        },
        {
          "indexed": true,
          "name": "_purchaser",
          "type": "address"
        },
        {
          "indexed": false,
          "name": "_storeName",
          "type": "string"
        }
      ],
      "name": "LogItemBought",
      "type": "event"
    },
    {
      "anonymous": false,
      "inputs": [
        {
          "indexed": true,
          "name": "_storeName",
          "type": "string"
        },
        {
          "indexed": true,
          "name": "_productId",
          "type": "uint8"
        },
        {
          "indexed": false,
          "name": "remaining",
          "type": "uint64"
        }
      ],
      "name": "LogInventoryLow",
      "type": "event"
    },
    {
      "anonymous": false,
      "inputs": [
        {
          "indexed": true,
          "name": "_storeName",
          "type": "string"
        },
        {
          "indexed": true,
          "name": "_productId",
          "type": "uint8"
        }
      ],
      "name": "LogInventoryOut",
      "type": "event"
    },
    {
      "anonymous": false,
      "inputs": [
        {
          "indexed": true,
          "name": "_index",
          "type": "uint256"
        },
        {
          "indexed": true,
          "name": "_productId",
          "type": "uint8"
        },
        {
          "indexed": false,
          "name": "_storeName",
          "type": "string"
        }
      ],
      "name": "LogItemShipped",
      "type": "event"
    },
    {
      "anonymous": false,
      "inputs": [
        {
          "indexed": false,
          "name": "_productId",
          "type": "uint8"
        },
        {
          "indexed": true,
          "name": "_storeName",
          "type": "string"
        }
      ],
      "name": "LogNewSetPriceProduct",
      "type": "event"
    },
    {
      "anonymous": false,
      "inputs": [
        {
          "indexed": true,
          "name": "_productId",
          "type": "uint8"
        },
        {
          "indexed": false,
          "name": "inventory",
          "type": "uint64"
        }
      ],
      "name": "LogAddedInventory",
      "type": "event"
    },
    {
      "anonymous": false,
      "inputs": [
        {
          "indexed": true,
          "name": "_ownerAddress",
          "type": "address"
        },
        {
          "indexed": true,
          "name": "_storeName",
          "type": "string"
        }
      ],
      "name": "LogProductRemoved",
      "type": "event"
    },
    {
      "anonymous": false,
      "inputs": [
        {
          "indexed": true,
          "name": "_productId",
          "type": "uint8"
        },
        {
          "indexed": true,
          "name": "_storeName",
          "type": "string"
        },
        {
          "indexed": false,
          "name": "_newPrice",
          "type": "uint72"
        }
      ],
      "name": "LogPriceChange",
      "type": "event"
    },
    {
      "anonymous": false,
      "inputs": [
        {
          "indexed": true,
          "name": "_ownerAddress",
          "type": "address"
        },
        {
          "indexed": true,
          "name": "_newStoreName",
          "type": "string"
        }
      ],
      "name": "LogNewStore",
      "type": "event"
    },
    {
      "anonymous": false,
      "inputs": [
        {
          "indexed": true,
          "name": "_storeOwnerAddress",
          "type": "address"
        }
      ],
      "name": "LogNewStoreOwner",
      "type": "event"
    },
    {
      "anonymous": false,
      "inputs": [
        {
          "indexed": true,
          "name": "_storeOwner",
          "type": "address"
        }
      ],
      "name": "LogStoreOwnerRemoved",
      "type": "event"
    },
    {
      "anonymous": false,
      "inputs": [
        {
          "indexed": true,
          "name": "_ownerAddress",
          "type": "address"
        }
      ],
      "name": "LogStoreClosed",
      "type": "event"
    },
    {
      "anonymous": false,
      "inputs": [
        {
          "indexed": true,
          "name": "previousOwner",
          "type": "address"
        },
        {
          "indexed": true,
          "name": "newOwner",
          "type": "address"
        }
      ],
      "name": "LogNewOwner",
      "type": "event"
    },
    {
      "anonymous": false,
      "inputs": [
        {
          "indexed": true,
          "name": "newAdmin",
          "type": "address"
        }
      ],
      "name": "LogNewAdmin",
      "type": "event"
    },
    {
      "anonymous": false,
      "inputs": [
        {
          "indexed": true,
          "name": "revokedAdmin",
          "type": "address"
        }
      ],
      "name": "LogAdminRevoked",
      "type": "event"
    },
    {
      "anonymous": false,
      "inputs": [],
      "name": "Pause",
      "type": "event"
    },
    {
      "anonymous": false,
      "inputs": [],
      "name": "Unpause",
      "type": "event"
    },
    {
      "constant": false,
      "inputs": [
        {
          "name": "_escrowAddress",
          "type": "address"
        }
      ],
      "name": "setEscrowAddress",
      "outputs": [],
      "payable": false,
      "stateMutability": "nonpayable",
      "type": "function"
    },
    {
      "constant": true,
      "inputs": [
        {
          "name": "_productId",
          "type": "uint8"
        },
        {
          "name": "_storeName",
          "type": "string"
        }
      ],
      "name": "findFirstItemForSale",
      "outputs": [
        {
          "name": "",
          "type": "uint256"
        }
      ],
      "payable": false,
      "stateMutability": "view",
      "type": "function"
    },
    {
      "constant": true,
      "inputs": [
        {
          "name": "_purchaser",
          "type": "address"
        }
      ],
      "name": "getPurchase",
      "outputs": [
        {
          "name": "",
          "type": "uint256"
        }
      ],
      "payable": false,
      "stateMutability": "view",
      "type": "function"
    },
    {
      "constant": false,
      "inputs": [
        {
          "name": "_productId",
          "type": "uint8"
        },
        {
          "name": "_storeName",
          "type": "string"
        }
      ],
      "name": "buyItem",
      "outputs": [
        {
          "name": "index",
          "type": "uint256"
        }
      ],
      "payable": true,
      "stateMutability": "payable",
      "type": "function"
    },
    {
      "constant": true,
      "inputs": [
        {
          "name": "storeName",
          "type": "string"
        },
        {
          "name": "index",
          "type": "uint256"
        },
        {
          "name": "productId",
          "type": "uint8"
        }
      ],
      "name": "getItemShipped",
      "outputs": [
        {
          "name": "",
          "type": "bool"
        }
      ],
      "payable": false,
      "stateMutability": "view",
      "type": "function"
    },
    {
      "constant": false,
      "inputs": [
        {
          "name": "_itemIndex",
          "type": "uint256"
        },
        {
          "name": "_productId",
          "type": "uint8"
        }
      ],
      "name": "shipItem",
      "outputs": [
        {
          "name": "shipped",
          "type": "bool"
        }
      ],
      "payable": false,
      "stateMutability": "nonpayable",
      "type": "function"
    }
  ],
  "bytecode": "0x60806040526001600855336000806101000a81548173ffffffffffffffffffffffffffffffffffffffff021916908373ffffffffffffffffffffffffffffffffffffffff1602179055506147c9806100586000396000f3006080604052600436106101cc576000357c0100000000000000000000000000000000000000000000000000000000900463ffffffff168062265dc5146101d1578063050cfdd11461022c578063060347e0146102a957806328ec015c146103265780632eea9067146103cf5780632fa8cfac1461046f57806331df27ce146104f0578063320b2ad9146105475780633ccfd60b1461055e57806340f42c1c146105755780634db4bc16146105b85780635f7d53a1146106425780636f48fe7e1461068557806373ada8061461071357806378678a32146107c6578063803360b61461080957806381e4fc8214610872578063822b0ceb146108c45780638456cb591461091f5780639024b8c51461094e5780639bf474b5146109bd5780639d2bcb5414610a29578063a075a5b114610ac1578063a275999c14610b18578063bcddcfb214610b6f578063bdc39f4814610b9a578063c7fc1bd114610bdd578063ddeb63b514610c7b578063e2fdcc1714610cbe578063e5fdf7f814610d15578063e698f0bb14610da3578063f0e06e4a14610dfa578063f6a99e4c14610e67578063fc8234cb14610f69578063fd8f49a514610f80578063fde57f3b14610fe6578063fed4894914611029575b600080fd5b3480156101dd57600080fd5b50610212600480360381019080803573ffffffffffffffffffffffffffffffffffffffff1690602001909291905050506110cf565b604051808215151515815260200191505060405180910390f35b34801561023857600080fd5b50610293600480360381019080803590602001908201803590602001908080601f016020809104026020016040519081016040528093929190818152602001838380828437820191505050505050919291929050505061111b565b6040518082815260200191505060405180910390f35b610310600480360381019080803560ff169060200190929190803590602001908201803590602001908080601f01602080910402602001604051908101604052809392919081815260200183838082843782019150505050505091929192905050506112a9565b6040518082815260200191505060405180910390f35b34801561033257600080fd5b5061038d600480360381019080803590602001908201803590602001908080601f0160208091040260200160405190810160405280939291908181526020018383808284378201915050505050509192919290505050611566565b604051808273ffffffffffffffffffffffffffffffffffffffff1673ffffffffffffffffffffffffffffffffffffffff16815260200191505060405180910390f35b3480156103db57600080fd5b50610443600480360381019080803590602001908201803590602001908080601f0160208091040260200160405190810160405280939291908181526020018383808284378201915050505050509192919290803560ff169060200190929190505050611600565b604051808268ffffffffffffffffff1668ffffffffffffffffff16815260200191505060405180910390f35b34801561047b57600080fd5b506104d6600480360381019080803590602001908201803590602001908080601f016020809104026020016040519081016040528093929190818152602001838380828437820191505050505050919291929050505061172a565b604051808215151515815260200191505060405180910390f35b3480156104fc57600080fd5b50610531600480360381019080803573ffffffffffffffffffffffffffffffffffffffff1690602001909291905050506117ac565b6040518082815260200191505060405180910390f35b34801561055357600080fd5b5061055c6117c4565b005b34801561056a57600080fd5b5061057361188a565b005b34801561058157600080fd5b506105b6600480360381019080803573ffffffffffffffffffffffffffffffffffffffff169060200190929190505050611966565b005b3480156105c457600080fd5b5061062c600480360381019080803560ff169060200190929190803590602001908201803590602001908080601f0160208091040260200160405190810160405280939291908181526020018383808284378201915050505050509192919290505050611b7f565b6040518082815260200191505060405180910390f35b34801561064e57600080fd5b50610683600480360381019080803573ffffffffffffffffffffffffffffffffffffffff169060200190929190505050611d49565b005b34801561069157600080fd5b506106f9600480360381019080803560ff169060200190929190803590602001908201803590602001908080601f0160208091040260200160405190810160405280939291908181526020018383808284378201915050505050509192919290505050611ec6565b604051808215151515815260200191505060405180910390f35b34801561071f57600080fd5b5061078460048036038101908080359060200190929190803590602001908201803590602001908080601f0160208091040260200160405190810160405280939291908181526020018383808284378201915050505050509192919290505050612072565b604051808273ffffffffffffffffffffffffffffffffffffffff1673ffffffffffffffffffffffffffffffffffffffff16815260200191505060405180910390f35b3480156107d257600080fd5b50610807600480360381019080803573ffffffffffffffffffffffffffffffffffffffff1690602001909291905050506121cc565b005b34801561081557600080fd5b50610870600480360381019080803590602001908201803590602001908080601f0160208091040260200160405190810160405280939291908181526020018383808284378201915050505050509192919290505050612495565b005b34801561087e57600080fd5b506108aa60048036038101908080359060200190929190803560ff16906020019092919050505061280b565b604051808215151515815260200191505060405180910390f35b3480156108d057600080fd5b50610905600480360381019080803573ffffffffffffffffffffffffffffffffffffffff169060200190929190505050612b13565b604051808215151515815260200191505060405180910390f35b34801561092b57600080fd5b50610934612b8a565b604051808215151515815260200191505060405180910390f35b34801561095a57600080fd5b50610991600480360381019080803568ffffffffffffffffff169060200190929190803560ff169060200190929190505050612b9d565b604051808268ffffffffffffffffff1668ffffffffffffffffff16815260200191505060405180910390f35b3480156109c957600080fd5b506109ff600480360381019080803560ff169060200190929190803567ffffffffffffffff169060200190929190505050612d14565b604051808267ffffffffffffffff1667ffffffffffffffff16815260200191505060405180910390f35b348015610a3557600080fd5b50610aa7600480360381019080803590602001908201803590602001908080601f016020809104026020016040519081016040528093929190818152602001838380828437820191505050505050919291929080359060200190929190803560ff169060200190929190505050612fcf565b604051808215151515815260200191505060405180910390f35b348015610acd57600080fd5b50610b02600480360381019080803573ffffffffffffffffffffffffffffffffffffffff16906020019092919050505061313a565b6040518082815260200191505060405180910390f35b348015610b2457600080fd5b50610b59600480360381019080803573ffffffffffffffffffffffffffffffffffffffff169060200190929190505050613152565b6040518082815260200191505060405180910390f35b348015610b7b57600080fd5b50610b8461319b565b6040518082815260200191505060405180910390f35b348015610ba657600080fd5b50610bdb600480360381019080803573ffffffffffffffffffffffffffffffffffffffff1690602001909291905050506131a1565b005b348015610be957600080fd5b50610c51600480360381019080803590602001908201803590602001908080601f0160208091040260200160405190810160405280939291908181526020018383808284378201915050505050509192919290803560ff1690602001909291905050506133a1565b604051808267ffffffffffffffff1667ffffffffffffffff16815260200191505060405180910390f35b348015610c8757600080fd5b50610cbc600480360381019080803573ffffffffffffffffffffffffffffffffffffffff1690602001909291905050506134ca565b005b348015610cca57600080fd5b50610cd361356f565b604051808273ffffffffffffffffffffffffffffffffffffffff1673ffffffffffffffffffffffffffffffffffffffff16815260200191505060405180910390f35b348015610d2157600080fd5b50610d89600480360381019080803590602001908201803590602001908080601f0160208091040260200160405190810160405280939291908181526020018383808284378201915050505050509192919290803560ff169060200190929190505050613595565b604051808215151515815260200191505060405180910390f35b348015610daf57600080fd5b50610db86136ce565b604051808273ffffffffffffffffffffffffffffffffffffffff1673ffffffffffffffffffffffffffffffffffffffff16815260200191505060405180910390f35b348015610e0657600080fd5b50610e25600480360381019080803590602001909291905050506136f3565b604051808273ffffffffffffffffffffffffffffffffffffffff1673ffffffffffffffffffffffffffffffffffffffff16815260200191505060405180910390f35b348015610e7357600080fd5b50610eee600480360381019080803573ffffffffffffffffffffffffffffffffffffffff169060200190929190803590602001908201803590602001908080601f0160208091040260200160405190810160405280939291908181526020018383808284378201915050505050509192919290505050613728565b6040518080602001828103825283818151815260200191508051906020019080838360005b83811015610f2e578082015181840152602081019050610f13565b50505050905090810190601f168015610f5b5780820380516001836020036101000a031916815260200191505b509250505060405180910390f35b348015610f7557600080fd5b50610f7e613baa565b005b348015610f8c57600080fd5b50610fca600480360381019080803568ffffffffffffffffff169060200190929190803567ffffffffffffffff169060200190929190505050613c70565b604051808260ff1660ff16815260200191505060405180910390f35b348015610ff257600080fd5b50611027600480360381019080803573ffffffffffffffffffffffffffffffffffffffff169060200190929190505050613f50565b005b34801561103557600080fd5b5061105460048036038101908080359060200190929190505050614167565b6040518080602001828103825283818151815260200191508051906020019080838360005b83811015611094578082015181840152602081019050611079565b50505050905090810190601f1680156110c15780820380516001836020036101000a031916815260200191505b509250505060405180910390f35b600080600d60008473ffffffffffffffffffffffffffffffffffffffff1673ffffffffffffffffffffffffffffffffffffffff1681526020019081526020016000205414159050919050565b600080600080600c856040518082805190602001908083835b6020831015156111595780518252602082019150602081019050602083039250611134565b6001836020036101000a038019825116818451168082178552505050505050905001915050908152602001604051809103902060009054906101000a900460ff1615156111a557600080fd5b600b856040518082805190602001908083835b6020831015156111dd57805182526020820191506020810190506020830392506111b8565b6001836020036101000a038019825116818451168082178552505050505050905001915050908152602001604051809103902060009054906101000a900473ffffffffffffffffffffffffffffffffffffffff169250600a60008473ffffffffffffffffffffffffffffffffffffffff1673ffffffffffffffffffffffffffffffffffffffff1681526020019081526020016000205491506009600083815260200190815260200160002090508060060160009054906101000a900460ff1660ff169350505050919050565b60008060008060008060001515600760009054906101000a900460ff1615151415156112d457600080fd5b600b876040518082805190602001908083835b60208310151561130c57805182526020820191506020810190506020830392506112e7565b6001836020036101000a038019825116818451168082178552505050505050905001915050908152602001604051809103902060009054906101000a900473ffffffffffffffffffffffffffffffffffffffff169450600a60008673ffffffffffffffffffffffffffffffffffffffff1673ffffffffffffffffffffffffffffffffffffffff1681526020019081526020016000205493506009600085815260200190815260200160002092506113c38888611b7f565b95503491508260080160008960ff1660ff16815260200190815260200160002060010160009054906101000a900468ffffffffffffffffff1668ffffffffffffffffff16821015151561141557600080fd5b61141f8583614274565b60028360080160008a60ff1660ff1681526020019081526020016000206000018781548110151561144c57fe5b90600052602060002090602091828204019190066101000a81548160ff0219169083600381111561147957fe5b021790555085600f60003373ffffffffffffffffffffffffffffffffffffffff1673ffffffffffffffffffffffffffffffffffffffff168152602001908152602001600020819055508260080160008960ff1660ff168152602001908152602001600020600101600981819054906101000a900467ffffffffffffffff16809291906001900391906101000a81548167ffffffffffffffff021916908367ffffffffffffffff160217905550508260080160008960ff1660ff16815260200190815260200160002060010160099054906101000a900467ffffffffffffffff169050505050505092915050565b600080600b836040518082805190602001908083835b6020831015156115a1578051825260208201915060208101905060208303925061157c565b6001836020036101000a038019825116818451168082178552505050505050905001915050908152602001604051809103902060009054906101000a900473ffffffffffffffffffffffffffffffffffffffff16905080915050919050565b600080600080600b866040518082805190602001908083835b60208310151561163e5780518252602082019150602081019050602083039250611619565b6001836020036101000a038019825116818451168082178552505050505050905001915050908152602001604051809103902060009054906101000a900473ffffffffffffffffffffffffffffffffffffffff169250600d60008473ffffffffffffffffffffffffffffffffffffffff1673ffffffffffffffffffffffffffffffffffffffff1681526020019081526020016000205491506009600083815260200190815260200160002090508060080160008660ff1660ff16815260200190815260200160002060010160009054906101000a900468ffffffffffffffffff16935050505092915050565b6000600c826040518082805190602001908083835b602083101515611764578051825260208201915060208101905060208303925061173f565b6001836020036101000a038019825116818451168082178552505050505050905001915050908152602001604051809103902060009054906101000a900460ff169050919050565b600f6020528060005260406000206000915090505481565b6000809054906101000a900473ffffffffffffffffffffffffffffffffffffffff1673ffffffffffffffffffffffffffffffffffffffff163373ffffffffffffffffffffffffffffffffffffffff1614151561181f57600080fd5b60001515600760009054906101000a900460ff16151514151561184157600080fd5b6001600760006101000a81548160ff0219169083151502179055507f6985a02210a168e66602d3235cb6db0e70f92b3ba4d376a33c0f3d9434bff62560405160405180910390a1565b6000809054906101000a900473ffffffffffffffffffffffffffffffffffffffff1673ffffffffffffffffffffffffffffffffffffffff163373ffffffffffffffffffffffffffffffffffffffff161415156118e557600080fd5b6000809054906101000a900473ffffffffffffffffffffffffffffffffffffffff1673ffffffffffffffffffffffffffffffffffffffff166108fc3073ffffffffffffffffffffffffffffffffffffffff16319081150290604051600060405180830381858888f19350505050158015611963573d6000803e3d6000fd5b50565b6000806000809054906101000a900473ffffffffffffffffffffffffffffffffffffffff1673ffffffffffffffffffffffffffffffffffffffff163373ffffffffffffffffffffffffffffffffffffffff161415156119c457600080fd5b60001515600760009054906101000a900460ff1615151415156119e657600080fd5b60009150600090505b60048111158015611a04575060001515821515145b15611b6a578273ffffffffffffffffffffffffffffffffffffffff16600182600581101515611a2f57fe5b0160009054906101000a900473ffffffffffffffffffffffffffffffffffffffff1673ffffffffffffffffffffffffffffffffffffffff161415611b5d576000600182600581101515611a7e57fe5b0160006101000a81548173ffffffffffffffffffffffffffffffffffffffff021916908373ffffffffffffffffffffffffffffffffffffffff1602179055506000600660008573ffffffffffffffffffffffffffffffffffffffff1673ffffffffffffffffffffffffffffffffffffffff16815260200190815260200160002060006101000a81548160ff021916908315150217905550600191508273ffffffffffffffffffffffffffffffffffffffff167fdca59b6371f7db6faad5c9931588f735722795c7b8ea859824e0afc8b2c70a4f60405160405180910390a25b80806001019150506119ef565b60011515821515141515611b7a57fe5b505050565b6000806000806000806000809550600b886040518082805190602001908083835b602083101515611bc55780518252602082019150602081019050602083039250611ba0565b6001836020036101000a038019825116818451168082178552505050505050905001915050908152602001604051809103902060009054906101000a900473ffffffffffffffffffffffffffffffffffffffff169350600d60008573ffffffffffffffffffffffffffffffffffffffff1673ffffffffffffffffffffffffffffffffffffffff1681526020019081526020016000205492506009600084815260200190815260200160002091505b8160080160008a60ff1660ff1681526020019081526020016000206000018054905081108015611ca7575060001515861515145b15611d2a5760006003811115611cb957fe5b8260080160008b60ff1660ff16815260200190815260200160002060000182815481101515611ce457fe5b90600052602060002090602091828204019190069054906101000a900460ff166003811115611d0f57fe5b1415611d1d57809450600195505b8080600101915050611c73565b60011515861515141515611d3a57fe5b84965050505050505092915050565b60008060009054906101000a900473ffffffffffffffffffffffffffffffffffffffff1673ffffffffffffffffffffffffffffffffffffffff163373ffffffffffffffffffffffffffffffffffffffff16141515611da657600080fd5b60001515600760009054906101000a900460ff161515141515611dc857600080fd5b600073ffffffffffffffffffffffffffffffffffffffff168273ffffffffffffffffffffffffffffffffffffffff1614151515611e0457600080fd5b6000809054906101000a900473ffffffffffffffffffffffffffffffffffffffff169050816000806101000a81548173ffffffffffffffffffffffffffffffffffffffff021916908373ffffffffffffffffffffffffffffffffffffffff1602179055508073ffffffffffffffffffffffffffffffffffffffff168273ffffffffffffffffffffffffffffffffffffffff167f1f8d7d25344642d919d55999e4664aa452a5f424bc0936ceb9c2b300db7dcbd960405160405180910390a35050565b6000806000806000600c866040518082805190602001908083835b602083101515611f065780518252602082019150602081019050602083039250611ee1565b6001836020036101000a038019825116818451168082178552505050505050905001915050908152602001604051809103902060009054906101000a900460ff161515611f5257600080fd5b600b866040518082805190602001908083835b602083101515611f8a5780518252602082019150602081019050602083039250611f65565b6001836020036101000a038019825116818451168082178552505050505050905001915050908152602001604051809103902060009054906101000a900473ffffffffffffffffffffffffffffffffffffffff169350600a60008573ffffffffffffffffffffffffffffffffffffffff1673ffffffffffffffffffffffffffffffffffffffff1681526020019081526020016000205492506009600084815260200190815260200160002091508160080160008860ff1660ff16815260200190815260200160002090508060010160119054906101000a900460ff1694505050505092915050565b6000806000806001861015801561208a575060058611155b151561209557600080fd5b600b856040518082805190602001908083835b6020831015156120cd57805182526020820191506020810190506020830392506120a8565b6001836020036101000a038019825116818451168082178552505050505050905001915050908152602001604051809103902060009054906101000a900473ffffffffffffffffffffffffffffffffffffffff169250600a60008473ffffffffffffffffffffffffffffffffffffffff1673ffffffffffffffffffffffffffffffffffffffff1681526020019081526020016000205491506009600083815260200190815260200160002090506000600611156121be57806000018660068110151561219557fe5b0160009054906101000a900473ffffffffffffffffffffffffffffffffffffffff1693506121c3565b600093505b50505092915050565b60008060008060009054906101000a900473ffffffffffffffffffffffffffffffffffffffff1673ffffffffffffffffffffffffffffffffffffffff163373ffffffffffffffffffffffffffffffffffffffff1614151561222c57600080fd5b60001515600760009054906101000a900460ff16151514151561224e57600080fd5b600073ffffffffffffffffffffffffffffffffffffffff168473ffffffffffffffffffffffffffffffffffffffff161415151561228a57600080fd5b5b600483111515612315578373ffffffffffffffffffffffffffffffffffffffff166001846005811015156122bb57fe5b0160009054906101000a900473ffffffffffffffffffffffffffffffffffffffff1673ffffffffffffffffffffffffffffffffffffffff16141561230a576002600114151561230957600080fd5b5b82600101925061228b565b600091505b6004811115801561232f575060001515821515145b1561247f57600060018260058110151561234557fe5b0160009054906101000a900473ffffffffffffffffffffffffffffffffffffffff1673ffffffffffffffffffffffffffffffffffffffff161415612472578360018260058110151561239357fe5b0160006101000a81548173ffffffffffffffffffffffffffffffffffffffff021916908373ffffffffffffffffffffffffffffffffffffffff1602179055506001600660008673ffffffffffffffffffffffffffffffffffffffff1673ffffffffffffffffffffffffffffffffffffffff16815260200190815260200160002060006101000a81548160ff021916908315150217905550600191508373ffffffffffffffffffffffffffffffffffffffff167f39e7d4b9ba48f55a740a5192809dbc498fa12724c030b37dab126a3f6774c0f360405160405180910390a25b808060010191505061231a565b6001151582151514151561248f57fe5b50505050565b6000806000809054906101000a900473ffffffffffffffffffffffffffffffffffffffff1673ffffffffffffffffffffffffffffffffffffffff163373ffffffffffffffffffffffffffffffffffffffff161480612543575060011515600660003373ffffffffffffffffffffffffffffffffffffffff1673ffffffffffffffffffffffffffffffffffffffff16815260200190815260200160002060009054906101000a900460ff161515145b151561254e57600080fd5b600b836040518082805190602001908083835b6020831015156125865780518252602082019150602081019050602083039250612561565b6001836020036101000a038019825116818451168082178552505050505050905001915050908152602001604051809103902060009054906101000a900473ffffffffffffffffffffffffffffffffffffffff1691506000600a60008473ffffffffffffffffffffffffffffffffffffffff1673ffffffffffffffffffffffffffffffffffffffff168152602001908152602001600020541415151561262b57600080fd5b6000600c846040518082805190602001908083835b6020831015156126655780518252602082019150602081019050602083039250612640565b6001836020036101000a038019825116818451168082178552505050505050905001915050908152602001604051809103902060006101000a81548160ff021916908315150217905550600a60008373ffffffffffffffffffffffffffffffffffffffff1673ffffffffffffffffffffffffffffffffffffffff1681526020019081526020016000205490506009600082815260200190815260200160002060008082016000612715919061444c565b6006820160006101000a81549060ff0219169055600782016000612739919061445f565b50508173ffffffffffffffffffffffffffffffffffffffff167f99834834070224a7bc8eee507b8f041592b6cd80dd705f79f81b42487b0b460d60405160405180910390a26000600a60008473ffffffffffffffffffffffffffffffffffffffff1673ffffffffffffffffffffffffffffffffffffffff168152602001908152602001600020819055508173ffffffffffffffffffffffffffffffffffffffff167fe6547a945aa917d8f8b8a71a98062b03570c5ab79d6f47aa64dab5ae6483e0c860405160405180910390a2505050565b6000806000801515600760009054906101000a900460ff16151514151561283157600080fd5b6000600d60003373ffffffffffffffffffffffffffffffffffffffff1673ffffffffffffffffffffffffffffffffffffffff168152602001908152602001600020541415151561288057600080fd5b600d60003373ffffffffffffffffffffffffffffffffffffffff1673ffffffffffffffffffffffffffffffffffffffff168152602001908152602001600020549150600960008381526020019081526020016000209050600260038111156128e457fe5b8160080160008660ff1660ff1681526020019081526020016000206000018681548110151561290f57fe5b90600052602060002090602091828204019190069054906101000a900460ff16600381111561293a57fe5b14151561294657600080fd5b6000925060038160080160008660ff1660ff1681526020019081526020016000206000018681548110151561297757fe5b90600052602060002090602091828204019190066101000a81548160ff021916908360038111156129a457fe5b0217905550600192508360ff16857fa88cd15baa294be44c222117dcf9e5a965809cae03e05f544dc401b296cafabc836007016040518080602001828103825283818154600181600116156101000203166002900481526020019150805460018160011615610100020316600290048015612a605780601f10612a3557610100808354040283529160200191612a60565b820191906000526020600020905b815481529060010190602001808311612a4357829003601f168201915b50509250505060405180910390a3612b0b600b826007016040518082805460018160011615610100020316600290048015612ad25780601f10612ab0576101008083540402835291820191612ad2565b820191906000526020600020905b815481529060010190602001808311612abe575b5050915050908152602001604051809103902060009054906101000a900473ffffffffffffffffffffffffffffffffffffffff16614374565b505092915050565b6000801515600760009054906101000a900460ff161515141515612b3657600080fd5b600660008373ffffffffffffffffffffffffffffffffffffffff1673ffffffffffffffffffffffffffffffffffffffff16815260200190815260200160002060009054906101000a900460ff169050919050565b600760009054906101000a900460ff1681565b600080600080600a60003373ffffffffffffffffffffffffffffffffffffffff1673ffffffffffffffffffffffffffffffffffffffff1681526020019081526020016000205414151515612bf057600080fd5b60001515600760009054906101000a900460ff161515141515612c1257600080fd5b600a60003373ffffffffffffffffffffffffffffffffffffffff1673ffffffffffffffffffffffffffffffffffffffff16815260200190815260200160002054915060096000838152602001908152602001600020905060008568ffffffffffffffffff1610151515612c8457600080fd5b600015158160080160008660ff1660ff16815260200190815260200160002060010160119054906101000a900460ff161515141515612cc257600080fd5b848160080160008660ff1660ff16815260200190815260200160002060010160006101000a81548168ffffffffffffffffff021916908368ffffffffffffffffff160217905550849250505092915050565b600080600080600080600d60003373ffffffffffffffffffffffffffffffffffffffff1673ffffffffffffffffffffffffffffffffffffffff1681526020019081526020016000205414151515612d6a57600080fd5b60001515600760009054906101000a900460ff161515141515612d8c57600080fd5b600d60003373ffffffffffffffffffffffffffffffffffffffff1673ffffffffffffffffffffffffffffffffffffffff168152602001908152602001600020549350600960008581526020019081526020016000209250858360080160008960ff1660ff16815260200190815260200160002060010160098282829054906101000a900467ffffffffffffffff160192506101000a81548167ffffffffffffffff021916908367ffffffffffffffff1602179055508260080160008860ff1660ff16815260200190815260200160002060010160119054906101000a900460ff16915060001515821515141515612e8257600080fd5b5b8567ffffffffffffffff16811015612f0f578260080160008860ff1660ff1681526020019081526020016000206000016000908060018154018082558091505090600182039060005260206000209060209182820401919006909192909190916101000a81548160ff02191690836003811115612efc57fe5b0217905550508080600101915050612e83565b8660ff167fcd54f669064af9fb6802bd64bd9ae5303d604527aec88e9024bc9517c945fab78460080160008a60ff1660ff16815260200190815260200160002060010160099054906101000a900467ffffffffffffffff16604051808267ffffffffffffffff1667ffffffffffffffff16815260200191505060405180910390a28260080160008860ff1660ff16815260200190815260200160002060010160099054906101000a900467ffffffffffffffff1694505050505092915050565b600080600080600b876040518082805190602001908083835b60208310151561300d5780518252602082019150602081019050602083039250612fe8565b6001836020036101000a038019825116818451168082178552505050505050905001915050908152602001604051809103902060009054906101000a900473ffffffffffffffffffffffffffffffffffffffff169250600a60008473ffffffffffffffffffffffffffffffffffffffff1673ffffffffffffffffffffffffffffffffffffffff1681526020019081526020016000205491506009600083815260200190815260200160002090506003808111156130c657fe5b8160080160008760ff1660ff168152602001908152602001600020600001878154811015156130f157fe5b90600052602060002090602091828204019190069054906101000a900460ff16600381111561311c57fe5b141561312b5760019350613130565b600093505b5050509392505050565b600a6020528060005260406000206000915090505481565b6000600f60008373ffffffffffffffffffffffffffffffffffffffff1673ffffffffffffffffffffffffffffffffffffffff168152602001908152602001600020549050919050565b60085481565b60008060008060001515600760009054906101000a900460ff1615151415156131c957600080fd5b6000600a60003373ffffffffffffffffffffffffffffffffffffffff1673ffffffffffffffffffffffffffffffffffffffff168152602001908152602001600020541415151561321857600080fd5b600a60003373ffffffffffffffffffffffffffffffffffffffff1673ffffffffffffffffffffffffffffffffffffffff16815260200190815260200160002054935060096000858152602001908152602001600020925060009150600190505b6005811115801561328d575060001515821515145b1561338a57600083600001826006811015156132a557fe5b0160009054906101000a900473ffffffffffffffffffffffffffffffffffffffff1673ffffffffffffffffffffffffffffffffffffffff16141561337d57600191508483600001826006811015156132f957fe5b0160006101000a81548173ffffffffffffffffffffffffffffffffffffffff021916908373ffffffffffffffffffffffffffffffffffffffff16021790555083600d60008773ffffffffffffffffffffffffffffffffffffffff1673ffffffffffffffffffffffffffffffffffffffff168152602001908152602001600020819055505b8080600101915050613278565b6001151582151514151561339a57fe5b5050505050565b600080600080600b866040518082805190602001908083835b6020831015156133df57805182526020820191506020810190506020830392506133ba565b6001836020036101000a038019825116818451168082178552505050505050905001915050908152602001604051809103902060009054906101000a900473ffffffffffffffffffffffffffffffffffffffff169250600d60008473ffffffffffffffffffffffffffffffffffffffff1673ffffffffffffffffffffffffffffffffffffffff1681526020019081526020016000205491506009600083815260200190815260200160002090508060080160008660ff1660ff16815260200190815260200160002060010160099054906101000a900467ffffffffffffffff16935050505092915050565b60008060009054906101000a900473ffffffffffffffffffffffffffffffffffffffff1673ffffffffffffffffffffffffffffffffffffffff163373ffffffffffffffffffffffffffffffffffffffff1614151561352757600080fd5b81905080600e60006101000a81548173ffffffffffffffffffffffffffffffffffffffff021916908373ffffffffffffffffffffffffffffffffffffffff1602179055505050565b600e60009054906101000a900473ffffffffffffffffffffffffffffffffffffffff1681565b600080600080600b866040518082805190602001908083835b6020831015156135d357805182526020820191506020810190506020830392506135ae565b6001836020036101000a038019825116818451168082178552505050505050905001915050908152602001604051809103902060009054906101000a900473ffffffffffffffffffffffffffffffffffffffff169250600d60008473ffffffffffffffffffffffffffffffffffffffff1673ffffffffffffffffffffffffffffffffffffffff16815260200190815260200160002054915060096000838152602001908152602001600020905060008160080160008760ff1660ff16815260200190815260200160002060010160009054906101000a900468ffffffffffffffffff1668ffffffffffffffffff161415935050505092915050565b6000809054906101000a900473ffffffffffffffffffffffffffffffffffffffff1681565b60018160058110151561370257fe5b016000915054906101000a900473ffffffffffffffffffffffffffffffffffffffff1681565b60606137326144a7565b61373a6144ca565b6000809054906101000a900473ffffffffffffffffffffffffffffffffffffffff1673ffffffffffffffffffffffffffffffffffffffff163373ffffffffffffffffffffffffffffffffffffffff1614806137e5575060011515600660003373ffffffffffffffffffffffffffffffffffffffff1673ffffffffffffffffffffffffffffffffffffffff16815260200190815260200160002060009054906101000a900460ff161515145b15156137f057600080fd5b60001515600760009054906101000a900460ff16151514151561381257600080fd5b6000600a60008773ffffffffffffffffffffffffffffffffffffffff1673ffffffffffffffffffffffffffffffffffffffff1681526020019081526020016000205414151561386057600080fd5b60001515600c856040518082805190602001908083835b60208310151561389c5780518252602082019150602081019050602083039250613877565b6001836020036101000a038019825116818451168082178552505050505050905001915050908152602001604051809103902060009054906101000a900460ff1615151415156138eb57600080fd5b606060405190810160405280838152602001600060ff168152602001858152509050600854600a60008773ffffffffffffffffffffffffffffffffffffffff1673ffffffffffffffffffffffffffffffffffffffff16815260200190815260200160002081905550600854600d60008773ffffffffffffffffffffffffffffffffffffffff1673ffffffffffffffffffffffffffffffffffffffff16815260200190815260200160002081905550806009600060085481526020019081526020016000206000820151816000019060066139c69291906144f6565b5060208201518160060160006101000a81548160ff021916908360ff1602179055506040820151816007019080519060200190613a04929190614573565b5090505060086000815480929190600101919050555084600b82604001516040518082805190602001908083835b602083101515613a575780518252602082019150602081019050602083039250613a32565b6001836020036101000a038019825116818451168082178552505050505050905001915050908152602001604051809103902060006101000a81548173ffffffffffffffffffffffffffffffffffffffff021916908373ffffffffffffffffffffffffffffffffffffffff1602179055506001600c82604001516040518082805190602001908083835b602083101515613b065780518252602082019150602081019050602083039250613ae1565b6001836020036101000a038019825116818451168082178552505050505050905001915050908152602001604051809103902060006101000a81548160ff0219169083151502179055508481600001516000600681101515613b6457fe5b602002019073ffffffffffffffffffffffffffffffffffffffff16908173ffffffffffffffffffffffffffffffffffffffff168152505080604001519250505092915050565b6000809054906101000a900473ffffffffffffffffffffffffffffffffffffffff1673ffffffffffffffffffffffffffffffffffffffff163373ffffffffffffffffffffffffffffffffffffffff16141515613c0557600080fd5b60011515600760009054906101000a900460ff161515141515613c2757600080fd5b6000600760006101000a81548160ff0219169083151502179055507f7805862f689e2f13df9f062ff482ad3ad112aca9e0847911ed832e158c525b3360405160405180910390a1565b6000806000613c7d6145f3565b6000801515600760009054906101000a900460ff161515141515613ca057600080fd5b6000600d60003373ffffffffffffffffffffffffffffffffffffffff1673ffffffffffffffffffffffffffffffffffffffff1681526020019081526020016000205414151515613cef57600080fd5b600d60003373ffffffffffffffffffffffffffffffffffffffff1673ffffffffffffffffffffffffffffffffffffffff1681526020019081526020016000205493506009600085815260200190815260200160002092506080604051908101604052806000604051908082528060200260200182016040528015613d825781602001602082028038833980820191505090505b5081526020018868ffffffffffffffffff1681526020018767ffffffffffffffff1681526020016000151581525091508260060160009054906101000a900460ff169450818360080160008760ff1660ff1681526020019081526020016000206000820151816000019080519060200190613dfe929190614633565b5060208201518160010160006101000a81548168ffffffffffffffffff021916908368ffffffffffffffffff16021790555060408201518160010160096101000a81548167ffffffffffffffff021916908367ffffffffffffffff16021790555060608201518160010160116101000a81548160ff02191690831515021790555090505082600601600081819054906101000a900460ff168092919060010191906101000a81548160ff021916908360ff160217905550505b8567ffffffffffffffff16811015613f43578260080160008660ff1660ff1681526020019081526020016000206000016000908060018154018082558091505090600182039060005260206000209060209182820401919006909192909190916101000a81548160ff02191690836003811115613f3057fe5b0217905550508080600101915050613eb7565b8494505050505092915050565b6000806000806000600a60003373ffffffffffffffffffffffffffffffffffffffff1673ffffffffffffffffffffffffffffffffffffffff1681526020019081526020016000205414151515613fa557600080fd5b60001515600760009054906101000a900460ff161515141515613fc757600080fd5b600a60003373ffffffffffffffffffffffffffffffffffffffff1673ffffffffffffffffffffffffffffffffffffffff16815260200190815260200160002054935060096000858152602001908152602001600020925060009150600190505b6005811115801561403c575060001515821515145b15614150578473ffffffffffffffffffffffffffffffffffffffff16836000018260068110151561406957fe5b0160009054906101000a900473ffffffffffffffffffffffffffffffffffffffff1673ffffffffffffffffffffffffffffffffffffffff16141561414357600083600001826006811015156140ba57fe5b0160006101000a81548173ffffffffffffffffffffffffffffffffffffffff021916908373ffffffffffffffffffffffffffffffffffffffff1602179055506000600d60008773ffffffffffffffffffffffffffffffffffffffff1673ffffffffffffffffffffffffffffffffffffffff16815260200190815260200160002081905550600191505b8080600101915050614027565b6001151582151514151561416057fe5b5050505050565b6060600080600160085414151561423457600960008581526020019081526020016000209150816007019050808054600181600116156101000203166002900480601f0160208091040260200160405190810160405280929190818152602001828054600181600116156101000203166002900480156142285780601f106141fd57610100808354040283529160200191614228565b820191906000526020600020905b81548152906001019060200180831161420b57829003601f168201915b5050505050925061426d565b6040805190810160405280600181526020017f300000000000000000000000000000000000000000000000000000000000000081525092505b5050919050565b803073ffffffffffffffffffffffffffffffffffffffff16311015151561429a57600080fd5b600e60009054906101000a900473ffffffffffffffffffffffffffffffffffffffff1673ffffffffffffffffffffffffffffffffffffffff1663f340fa0182846040518363ffffffff167c0100000000000000000000000000000000000000000000000000000000028152600401808273ffffffffffffffffffffffffffffffffffffffff1673ffffffffffffffffffffffffffffffffffffffff1681526020019150506000604051808303818588803b15801561435757600080fd5b505af115801561436b573d6000803e3d6000fd5b50505050505050565b600e60009054906101000a900473ffffffffffffffffffffffffffffffffffffffff1673ffffffffffffffffffffffffffffffffffffffff166351cff8d9826040518263ffffffff167c0100000000000000000000000000000000000000000000000000000000028152600401808273ffffffffffffffffffffffffffffffffffffffff1673ffffffffffffffffffffffffffffffffffffffff168152602001915050600060405180830381600087803b15801561443157600080fd5b505af1158015614445573d6000803e3d6000fd5b5050505050565b50806006019061445c91906146e2565b50565b50805460018160011615610100020316600290046000825580601f1061448557506144a4565b601f0160209004906000526020600020908101906144a391906146e2565b5b50565b60c060405190810160405280600690602082028038833980820191505090505090565b610100604051908101604052806144df614707565b8152602001600060ff168152602001606081525090565b8260068101928215614562579160200282015b828111156145615782518260006101000a81548173ffffffffffffffffffffffffffffffffffffffff021916908373ffffffffffffffffffffffffffffffffffffffff16021790555091602001919060010190614509565b5b50905061456f919061472a565b5090565b828054600181600116156101000203166002900490600052602060002090601f016020900481019282601f106145b457805160ff19168380011785556145e2565b828001600101855582156145e2579182015b828111156145e15782518255916020019190600101906145c6565b5b5090506145ef91906146e2565b5090565b60806040519081016040528060608152602001600068ffffffffffffffffff168152602001600067ffffffffffffffff1681526020016000151581525090565b82805482825590600052602060002090601f016020900481019282156146d15791602002820160005b838211156146a257835183826101000a81548160ff0219169083600381111561468157fe5b0217905550926020019260010160208160000104928301926001030261465c565b80156146cf5782816101000a81549060ff02191690556001016020816000010492830192600103026146a2565b505b5090506146de919061476d565b5090565b61470491905b808211156147005760008160009055506001016146e8565b5090565b90565b60c060405190810160405280600690602082028038833980820191505090505090565b61476a91905b8082111561476657600081816101000a81549073ffffffffffffffffffffffffffffffffffffffff021916905550600101614730565b5090565b90565b61479a91905b8082111561479657600081816101000a81549060ff021916905550600101614773565b5090565b905600a165627a7a72305820d31cfaee3663ba4b48e4cd19e21afa69536a84fad160e9bb41d555c8ff2a08120029",
  "source": "pragma solidity ^0.4.24;\n\nimport \"./StoreManagement.sol\";\n/*import \"./Auction/ClockAuctionBase.sol\";\nimport \"./Auction/ClockAuction.sol\";*/\nimport \"../importedContracts/payment/Escrow.sol\";\n\n\n/* @dev This contract is used to manage the purchasing process for set price\n * products. It also manages payments through an escrow contract.  When owner's\n * or admin's ship a product to the purchaser, they withdraw the deposited fund\n * from the purchase of that item. Auction items are NOT managed in this contract\n*/\ncontract StorePurchasing is StoreManagement{\n\n  /// @dev Let owner/admins know a product instance has been purchased\n  event LogItemBought(uint8 indexed _productId, address indexed _purchaser,string _storeName);\n  /// @dev Let owner/admins know they are running out or are out of a product\n  event LogInventoryLow(string indexed _storeName, uint8 indexed _productId,uint64 remaining);\n  event LogInventoryOut(string indexed _storeName, uint8 indexed _productId);\n  /// @dev record that a purchased item has been shipped\n  event LogItemShipped(uint indexed _index,uint8 indexed _productId,string _storeName);\n\n  /// @dev address of the contract used to handle escrow services;\n  Escrow public escrow;\n\n  /// @dev Used to record the purchaser address and the item they purchased\n  mapping(address => uint) public purchaserToItem;\n\n  /// @dev set the address of the contract handling escrow services;\n  /// @param _escrowAddress : The address of the contract being used\n  function setEscrowAddress(address _escrowAddress) public onlyMaatsOwner {\n    Escrow _escrow = Escrow(_escrowAddress);\n    escrow = _escrow;\n  }\n\n  /// @dev An internal function used to store the payment in the escrow for the owner\n  /// @param _payee : the address of the owner getting payed\n  /// @param value : the value of msg.value in the function calling this function.\n  function depositEscrow(address _payee, uint value) internal{\n    // require that adequate funds are in this contract.\n    require(address(this).balance >= value);\n    // make deposit for the owner\n    escrow.deposit.value(value)(_payee);\n  }\n\n  /// @dev An internal function which withdraws and sends funds to store owner\n  /// @param _payee : the address of the store owner getting payed.\n  function withdrawEscrow(address _payee) internal{\n    escrow.withdraw(_payee);\n  }\n\n  // this could get expensive, lead to security weaknesses, consider method with\n  // index count of first \"forSale\" item. Make public for testing\n  function findFirstItemForSale(uint8 _productId, string _storeName) public view returns(uint){\n    bool found = false;\n    uint index;\n    address _owner = StoreNameToOwner[_storeName];\n    uint storeId = storeAdminToStoreId[_owner];\n    Store storage _store = storeIdToStore[storeId];\n    for(uint i; i < _store.products[_productId].items.length && found == false; i++){\n      if(_store.products[_productId].items[i] == ItemStatus.ForSale){\n        index = i;\n        found = true;\n      }\n    }\n    // want to avoid silent failure and subsequent inappropriate decrement of inventory\n    assert(found == true);\n    return index;\n  }\n\n  /// @dev for testing purchasing\n  function getPurchase(address _purchaser)public constant returns(uint){\n    return purchaserToItem[_purchaser];\n}\n\n  /// @dev This payable function allows customers to buy products from a store\n  /// It requires that the value sent in msg.value is greater than the price\n  /// of the product. It calls internal function depositEscrow. It will also\n  /// emit events to let owner/admins know if their inventory is (almost) out\n  /// @param _productId : the product type being purchased\n  /// @param _storeName : the unique identifer for the store which sells the product\n  /// @return index : The location of the item instance being purchased\n  function buyItem(uint8 _productId,string _storeName)\n    public\n    payable\n    whenNotPaused\n    returns (uint index){\n      // get address of store owner to be accessed in depositEscrow\n      address _storeOwner = StoreNameToOwner[_storeName];\n      uint storeId = OwnerToStoreId[_storeOwner];\n      Store storage _store = storeIdToStore[storeId];\n\n      // calls internal function to find first product instance ForSale\n      index = findFirstItemForSale(_productId, _storeName);\n\n      // require funds sent are adequate\n      uint value = msg.value;\n      require(value >= _store.products[_productId].price);\n      depositEscrow(_storeOwner, value);\n\n      _store.products[_productId].items[index] = ItemStatus.Bought;\n    //  emit LogItemBought( _productId, msg.sender, _store.storeName);\n      purchaserToItem[msg.sender] = index;\n\n      // update the inventory of the product type\n      _store.products[_productId].inventory--;\n      uint64 remaining = _store.products[_productId].inventory;\n      if(remaining <=5){\n        if(remaining ==0){\n        //  emit LogInventoryOut(_store.storeName,_productId);\n        }\n      //  emit LogInventoryLow(_store.storeName, _productId, remaining);\n      }\n  }\n\n  /// @dev for testing successful ship of item\n  function getItemShipped(string storeName,uint index,uint8 productId)\n   public\n   constant\n   returns(bool){\n     address owner = StoreNameToOwner[storeName];\n     uint storeId = OwnerToStoreId[owner];\n     Store storage current = storeIdToStore[storeId];\n    if(current.products[productId].items[index] == ItemStatus.Shipped){\n      return true;\n    }else{\n      return false;\n    }\n  }\n  /// @dev Once an item is logged as bought, the store owner/admin can ship the\n  /// item and use this function to log it has been shipped. When Item is shipped,\n  /// the owner receives their deposits from escrow.\n  /// notice: right now there is a !!SECURITY!! concern becuase if the owner\n  /// has several items \"bought\" but not sold, they could withdraw total deposited\n  /// funds by shipping only one item. Should edit escrow contract to prevent.\n  /// @param _itemIndex : the instance of the item to be shipped\n  /// @param _productId : the product type to which the instance belongs\n  /// @return shipped : simply confirms that the product has infact been shipped.\n  /// WOULD LOVE TO USE ORACLE HERE FROM SHIPPING COMPANIES!!!!\n  function shipItem(uint _itemIndex,uint8 _productId)\n    public\n    whenNotPaused\n    onlyStoreAdmin\n    returns(bool shipped){\n      uint storeId = storeAdminToStoreId[msg.sender];\n      Store storage current = storeIdToStore[storeId];\n      require(current.products[_productId].items[_itemIndex] == ItemStatus.Bought);\n      shipped = false;\n      // would be great to use an oracle here to check that UPS has received the package\n      // for now will let store leadership change the status of the item to shipped\n      current.products[_productId].items[_itemIndex] = ItemStatus.Shipped;\n      shipped = true;\n      emit LogItemShipped(_itemIndex, _productId, current.storeName);\n\n      withdrawEscrow(StoreNameToOwner[current.storeName]);\n    }\n}\n",
  "sourcePath": "/Users/ericbrown/Documents/Blockchain/ConsenSysCourse/GitHub/Maats/contracts/StorePurchasing.sol",
  "compiler": {
    "name": "solc",
    "version": "0.4.24+commit.e67f0147.Emscripten.clang"
  },
  "schemaVersion": "2.0.1",
  "updatedAt": "2018-08-15T19:57:33.561Z"
}