{
  "contractName": "StoreCore",
  "abi": [
    {
      "constant": true,
      "inputs": [
        {
          "name": "adminAddress",
          "type": "address"
        }
      ],
      "name": "getIsStoreAdmin",
      "outputs": [
        {
          "name": "",
          "type": "bool"
        }
      ],
      "payable": false,
      "stateMutability": "view",
      "type": "function"
    },
    {
      "constant": true,
      "inputs": [
        {
          "name": "storeName",
          "type": "string"
        },
        {
          "name": "productId",
          "type": "uint8"
        }
      ],
      "name": "getItemLength",
      "outputs": [
        {
          "name": "",
          "type": "uint256"
        }
      ],
      "payable": false,
      "stateMutability": "view",
      "type": "function"
    },
    {
      "constant": true,
      "inputs": [
        {
          "name": "_storeName",
          "type": "string"
        }
      ],
      "name": "getNumProducts",
      "outputs": [
        {
          "name": "",
          "type": "uint256"
        }
      ],
      "payable": false,
      "stateMutability": "view",
      "type": "function"
    },
    {
      "constant": false,
      "inputs": [
        {
          "name": "_productId",
          "type": "uint8"
        },
        {
          "name": "_storeName",
          "type": "string"
        }
      ],
      "name": "buyItem",
      "outputs": [
        {
          "name": "index",
          "type": "uint256"
        }
      ],
      "payable": true,
      "stateMutability": "payable",
      "type": "function"
    },
    {
      "constant": true,
      "inputs": [
        {
          "name": "StoreName",
          "type": "string"
        },
        {
          "name": "productId",
          "type": "uint8"
        }
      ],
      "name": "getAuctionId",
      "outputs": [
        {
          "name": "",
          "type": "uint256"
        }
      ],
      "payable": false,
      "stateMutability": "view",
      "type": "function"
    },
    {
      "constant": true,
      "inputs": [
        {
          "name": "_storeName",
          "type": "string"
        }
      ],
      "name": "getOwnerFromName",
      "outputs": [
        {
          "name": "",
          "type": "address"
        }
      ],
      "payable": false,
      "stateMutability": "view",
      "type": "function"
    },
    {
      "constant": true,
      "inputs": [
        {
          "name": "storeName",
          "type": "string"
        },
        {
          "name": "productId",
          "type": "uint8"
        }
      ],
      "name": "getCurrentSetPrice",
      "outputs": [
        {
          "name": "",
          "type": "uint72"
        }
      ],
      "payable": false,
      "stateMutability": "view",
      "type": "function"
    },
    {
      "constant": true,
      "inputs": [
        {
          "name": "_storeName",
          "type": "string"
        }
      ],
      "name": "getStoreExists",
      "outputs": [
        {
          "name": "",
          "type": "bool"
        }
      ],
      "payable": false,
      "stateMutability": "view",
      "type": "function"
    },
    {
      "constant": true,
      "inputs": [
        {
          "name": "",
          "type": "address"
        }
      ],
      "name": "purchaserToItem",
      "outputs": [
        {
          "name": "",
          "type": "uint256"
        }
      ],
      "payable": false,
      "stateMutability": "view",
      "type": "function"
    },
    {
      "constant": false,
      "inputs": [],
      "name": "_pause",
      "outputs": [],
      "payable": false,
      "stateMutability": "nonpayable",
      "type": "function"
    },
    {
      "constant": false,
      "inputs": [
        {
          "name": "_auctionId",
          "type": "uint256"
        },
        {
          "name": "_productId",
          "type": "uint8"
        }
      ],
      "name": "_bid",
      "outputs": [
        {
          "name": "",
          "type": "uint256"
        }
      ],
      "payable": true,
      "stateMutability": "payable",
      "type": "function"
    },
    {
      "constant": false,
      "inputs": [],
      "name": "withdraw",
      "outputs": [],
      "payable": false,
      "stateMutability": "nonpayable",
      "type": "function"
    },
    {
      "constant": false,
      "inputs": [
        {
          "name": "_revokedAdmin",
          "type": "address"
        }
      ],
      "name": "removeMaatsAdmin",
      "outputs": [],
      "payable": false,
      "stateMutability": "nonpayable",
      "type": "function"
    },
    {
      "constant": true,
      "inputs": [
        {
          "name": "_productId",
          "type": "uint8"
        },
        {
          "name": "_storeName",
          "type": "string"
        }
      ],
      "name": "findFirstItemForSale",
      "outputs": [
        {
          "name": "",
          "type": "uint256"
        }
      ],
      "payable": false,
      "stateMutability": "view",
      "type": "function"
    },
    {
      "constant": false,
      "inputs": [
        {
          "name": "_newOwner",
          "type": "address"
        }
      ],
      "name": "setMaatsOwner",
      "outputs": [],
      "payable": false,
      "stateMutability": "nonpayable",
      "type": "function"
    },
    {
      "constant": true,
      "inputs": [],
      "name": "newContractAddress",
      "outputs": [
        {
          "name": "",
          "type": "address"
        }
      ],
      "payable": false,
      "stateMutability": "view",
      "type": "function"
    },
    {
      "constant": true,
      "inputs": [
        {
          "name": "_productId",
          "type": "uint8"
        },
        {
          "name": "_storeName",
          "type": "string"
        }
      ],
      "name": "getProductType",
      "outputs": [
        {
          "name": "",
          "type": "bool"
        }
      ],
      "payable": false,
      "stateMutability": "view",
      "type": "function"
    },
    {
      "constant": true,
      "inputs": [
        {
          "name": "index",
          "type": "uint256"
        },
        {
          "name": "storeName",
          "type": "string"
        }
      ],
      "name": "getStoreAdmins",
      "outputs": [
        {
          "name": "",
          "type": "address"
        }
      ],
      "payable": false,
      "stateMutability": "view",
      "type": "function"
    },
    {
      "constant": false,
      "inputs": [
        {
          "name": "_newAdmin",
          "type": "address"
        }
      ],
      "name": "createMaatsAdmin",
      "outputs": [],
      "payable": false,
      "stateMutability": "nonpayable",
      "type": "function"
    },
    {
      "constant": false,
      "inputs": [
        {
          "name": "_storeName",
          "type": "string"
        }
      ],
      "name": "removeStoreOwner",
      "outputs": [],
      "payable": false,
      "stateMutability": "nonpayable",
      "type": "function"
    },
    {
      "constant": false,
      "inputs": [
        {
          "name": "_itemIndex",
          "type": "uint256"
        },
        {
          "name": "_productId",
          "type": "uint8"
        }
      ],
      "name": "shipItem",
      "outputs": [
        {
          "name": "shipped",
          "type": "bool"
        }
      ],
      "payable": false,
      "stateMutability": "nonpayable",
      "type": "function"
    },
    {
      "constant": true,
      "inputs": [
        {
          "name": "_admin",
          "type": "address"
        }
      ],
      "name": "getIsAdmin",
      "outputs": [
        {
          "name": "",
          "type": "bool"
        }
      ],
      "payable": false,
      "stateMutability": "view",
      "type": "function"
    },
    {
      "constant": true,
      "inputs": [],
      "name": "pause",
      "outputs": [
        {
          "name": "",
          "type": "bool"
        }
      ],
      "payable": false,
      "stateMutability": "view",
      "type": "function"
    },
    {
      "constant": true,
      "inputs": [
        {
          "name": "auctionId",
          "type": "uint256"
        }
      ],
      "name": "getDuration",
      "outputs": [
        {
          "name": "",
          "type": "uint256"
        }
      ],
      "payable": false,
      "stateMutability": "view",
      "type": "function"
    },
    {
      "constant": false,
      "inputs": [
        {
          "name": "_newPrice",
          "type": "uint72"
        },
        {
          "name": "_productId",
          "type": "uint8"
        }
      ],
      "name": "changePrice",
      "outputs": [
        {
          "name": "",
          "type": "uint72"
        }
      ],
      "payable": false,
      "stateMutability": "nonpayable",
      "type": "function"
    },
    {
      "constant": true,
      "inputs": [
        {
          "name": "auctionId",
          "type": "uint256"
        }
      ],
      "name": "getAuctionExists",
      "outputs": [
        {
          "name": "",
          "type": "uint64"
        }
      ],
      "payable": false,
      "stateMutability": "view",
      "type": "function"
    },
    {
      "constant": false,
      "inputs": [
        {
          "name": "_productId",
          "type": "uint8"
        },
        {
          "name": "_newInventory",
          "type": "uint64"
        }
      ],
      "name": "addInventory",
      "outputs": [
        {
          "name": "",
          "type": "uint64"
        }
      ],
      "payable": false,
      "stateMutability": "nonpayable",
      "type": "function"
    },
    {
      "constant": true,
      "inputs": [
        {
          "name": "storeName",
          "type": "string"
        },
        {
          "name": "index",
          "type": "uint256"
        },
        {
          "name": "productId",
          "type": "uint8"
        }
      ],
      "name": "getItemShipped",
      "outputs": [
        {
          "name": "",
          "type": "bool"
        }
      ],
      "payable": false,
      "stateMutability": "view",
      "type": "function"
    },
    {
      "constant": true,
      "inputs": [
        {
          "name": "",
          "type": "address"
        }
      ],
      "name": "OwnerToStoreId",
      "outputs": [
        {
          "name": "",
          "type": "uint256"
        }
      ],
      "payable": false,
      "stateMutability": "view",
      "type": "function"
    },
    {
      "constant": true,
      "inputs": [
        {
          "name": "_purchaser",
          "type": "address"
        }
      ],
      "name": "getPurchase",
      "outputs": [
        {
          "name": "",
          "type": "uint256"
        }
      ],
      "payable": false,
      "stateMutability": "view",
      "type": "function"
    },
    {
      "constant": true,
      "inputs": [],
      "name": "currentStoreCount",
      "outputs": [
        {
          "name": "",
          "type": "uint256"
        }
      ],
      "payable": false,
      "stateMutability": "view",
      "type": "function"
    },
    {
      "constant": false,
      "inputs": [
        {
          "name": "_NewAdminAddress",
          "type": "address"
        }
      ],
      "name": "createStoreAdmin",
      "outputs": [],
      "payable": false,
      "stateMutability": "nonpayable",
      "type": "function"
    },
    {
      "constant": true,
      "inputs": [
        {
          "name": "auctionId",
          "type": "uint256"
        }
      ],
      "name": "getCurrentPrice",
      "outputs": [
        {
          "name": "",
          "type": "uint256"
        }
      ],
      "payable": false,
      "stateMutability": "view",
      "type": "function"
    },
    {
      "constant": true,
      "inputs": [
        {
          "name": "storeName",
          "type": "string"
        },
        {
          "name": "productId",
          "type": "uint8"
        }
      ],
      "name": "getCurrentInventory",
      "outputs": [
        {
          "name": "",
          "type": "uint64"
        }
      ],
      "payable": false,
      "stateMutability": "view",
      "type": "function"
    },
    {
      "constant": true,
      "inputs": [
        {
          "name": "_startingPrice",
          "type": "uint256"
        },
        {
          "name": "_endingPrice",
          "type": "uint256"
        },
        {
          "name": "_duration",
          "type": "uint256"
        },
        {
          "name": "_secondsPassed",
          "type": "uint256"
        }
      ],
      "name": "_computeCurrentPrice",
      "outputs": [
        {
          "name": "",
          "type": "uint256"
        }
      ],
      "payable": false,
      "stateMutability": "pure",
      "type": "function"
    },
    {
      "constant": true,
      "inputs": [
        {
          "name": "ownerofproduct",
          "type": "address"
        },
        {
          "name": "productId",
          "type": "uint8"
        },
        {
          "name": "itemId",
          "type": "uint256"
        }
      ],
      "name": "didBid",
      "outputs": [
        {
          "name": "",
          "type": "bool"
        }
      ],
      "payable": false,
      "stateMutability": "view",
      "type": "function"
    },
    {
      "constant": false,
      "inputs": [
        {
          "name": "_startingPrice",
          "type": "uint256"
        },
        {
          "name": "_endingPrice",
          "type": "uint256"
        },
        {
          "name": "_duration",
          "type": "uint64"
        }
      ],
      "name": "createAuctionProduct",
      "outputs": [
        {
          "name": "auctionId",
          "type": "uint256"
        }
      ],
      "payable": false,
      "stateMutability": "nonpayable",
      "type": "function"
    },
    {
      "constant": true,
      "inputs": [
        {
          "name": "storeName",
          "type": "string"
        },
        {
          "name": "productId",
          "type": "uint8"
        },
        {
          "name": "index",
          "type": "uint256"
        }
      ],
      "name": "getItemBought",
      "outputs": [
        {
          "name": "",
          "type": "bool"
        }
      ],
      "payable": false,
      "stateMutability": "view",
      "type": "function"
    },
    {
      "constant": true,
      "inputs": [
        {
          "name": "auctionId",
          "type": "uint256"
        }
      ],
      "name": "getReservePrice",
      "outputs": [
        {
          "name": "",
          "type": "uint256"
        }
      ],
      "payable": false,
      "stateMutability": "view",
      "type": "function"
    },
    {
      "constant": false,
      "inputs": [
        {
          "name": "_escrowAddress",
          "type": "address"
        }
      ],
      "name": "setEscrowAddress",
      "outputs": [],
      "payable": false,
      "stateMutability": "nonpayable",
      "type": "function"
    },
    {
      "constant": true,
      "inputs": [],
      "name": "escrow",
      "outputs": [
        {
          "name": "",
          "type": "address"
        }
      ],
      "payable": false,
      "stateMutability": "view",
      "type": "function"
    },
    {
      "constant": true,
      "inputs": [
        {
          "name": "storeName",
          "type": "string"
        },
        {
          "name": "productId",
          "type": "uint8"
        }
      ],
      "name": "getProductExists",
      "outputs": [
        {
          "name": "",
          "type": "bool"
        }
      ],
      "payable": false,
      "stateMutability": "view",
      "type": "function"
    },
    {
      "constant": true,
      "inputs": [],
      "name": "maatsOwner",
      "outputs": [
        {
          "name": "",
          "type": "address"
        }
      ],
      "payable": false,
      "stateMutability": "view",
      "type": "function"
    },
    {
      "constant": true,
      "inputs": [
        {
          "name": "",
          "type": "uint256"
        }
      ],
      "name": "maatsAdmins",
      "outputs": [
        {
          "name": "",
          "type": "address"
        }
      ],
      "payable": false,
      "stateMutability": "view",
      "type": "function"
    },
    {
      "constant": false,
      "inputs": [
        {
          "name": "_newOwner",
          "type": "address"
        },
        {
          "name": "_storeName",
          "type": "string"
        }
      ],
      "name": "createStore",
      "outputs": [
        {
          "name": "",
          "type": "string"
        }
      ],
      "payable": false,
      "stateMutability": "nonpayable",
      "type": "function"
    },
    {
      "constant": false,
      "inputs": [],
      "name": "_unpause",
      "outputs": [],
      "payable": false,
      "stateMutability": "nonpayable",
      "type": "function"
    },
    {
      "constant": false,
      "inputs": [
        {
          "name": "_price",
          "type": "uint72"
        },
        {
          "name": "_inventory",
          "type": "uint64"
        }
      ],
      "name": "createSetPriceProduct",
      "outputs": [
        {
          "name": "_productId",
          "type": "uint8"
        }
      ],
      "payable": false,
      "stateMutability": "nonpayable",
      "type": "function"
    },
    {
      "constant": false,
      "inputs": [
        {
          "name": "_adminAddress",
          "type": "address"
        }
      ],
      "name": "removeStoreAdmin",
      "outputs": [],
      "payable": false,
      "stateMutability": "nonpayable",
      "type": "function"
    },
    {
      "constant": true,
      "inputs": [
        {
          "name": "i",
          "type": "uint256"
        }
      ],
      "name": "getStoreName",
      "outputs": [
        {
          "name": "",
          "type": "string"
        }
      ],
      "payable": false,
      "stateMutability": "view",
      "type": "function"
    },
    {
      "inputs": [],
      "payable": false,
      "stateMutability": "nonpayable",
      "type": "constructor"
    },
    {
      "payable": true,
      "stateMutability": "payable",
      "type": "fallback"
    },
    {
      "anonymous": false,
      "inputs": [
        {
          "indexed": true,
          "name": "_sender",
          "type": "address"
        },
        {
          "indexed": false,
          "name": "_value",
          "type": "uint256"
        }
      ],
      "name": "LogFundsReceived",
      "type": "event"
    },
    {
      "anonymous": false,
      "inputs": [
        {
          "indexed": false,
          "name": "number",
          "type": "uint256"
        }
      ],
      "name": "TestLog",
      "type": "event"
    },
    {
      "anonymous": false,
      "inputs": [
        {
          "indexed": false,
          "name": "_auctionId",
          "type": "uint256"
        },
        {
          "indexed": true,
          "name": "_storeName",
          "type": "string"
        }
      ],
      "name": "LogNewAuctionProduct",
      "type": "event"
    },
    {
      "anonymous": false,
      "inputs": [
        {
          "indexed": false,
          "name": "auctionId",
          "type": "uint256"
        },
        {
          "indexed": false,
          "name": "startingPrice",
          "type": "uint256"
        },
        {
          "indexed": false,
          "name": "endingPrice",
          "type": "uint256"
        },
        {
          "indexed": false,
          "name": "duration",
          "type": "uint256"
        }
      ],
      "name": "AuctionCreated",
      "type": "event"
    },
    {
      "anonymous": false,
      "inputs": [
        {
          "indexed": false,
          "name": "productId",
          "type": "uint8"
        },
        {
          "indexed": false,
          "name": "totalPrice",
          "type": "uint256"
        },
        {
          "indexed": false,
          "name": "winner",
          "type": "address"
        }
      ],
      "name": "AuctionSuccessful",
      "type": "event"
    },
    {
      "anonymous": false,
      "inputs": [
        {
          "indexed": false,
          "name": "auctionId",
          "type": "uint256"
        }
      ],
      "name": "AuctionCancelled",
      "type": "event"
    },
    {
      "anonymous": false,
      "inputs": [
        {
          "indexed": true,
          "name": "_productId",
          "type": "uint8"
        },
        {
          "indexed": true,
          "name": "_purchaser",
          "type": "address"
        },
        {
          "indexed": false,
          "name": "_storeName",
          "type": "string"
        }
      ],
      "name": "LogItemBought",
      "type": "event"
    },
    {
      "anonymous": false,
      "inputs": [
        {
          "indexed": true,
          "name": "_storeName",
          "type": "string"
        },
        {
          "indexed": true,
          "name": "_productId",
          "type": "uint8"
        },
        {
          "indexed": false,
          "name": "remaining",
          "type": "uint64"
        }
      ],
      "name": "LogInventoryLow",
      "type": "event"
    },
    {
      "anonymous": false,
      "inputs": [
        {
          "indexed": true,
          "name": "_storeName",
          "type": "string"
        },
        {
          "indexed": true,
          "name": "_productId",
          "type": "uint8"
        }
      ],
      "name": "LogInventoryOut",
      "type": "event"
    },
    {
      "anonymous": false,
      "inputs": [
        {
          "indexed": true,
          "name": "_index",
          "type": "uint256"
        },
        {
          "indexed": true,
          "name": "_productId",
          "type": "uint8"
        },
        {
          "indexed": false,
          "name": "_storeName",
          "type": "string"
        }
      ],
      "name": "LogItemShipped",
      "type": "event"
    },
    {
      "anonymous": false,
      "inputs": [
        {
          "indexed": false,
          "name": "_productId",
          "type": "uint8"
        },
        {
          "indexed": true,
          "name": "_storeName",
          "type": "string"
        }
      ],
      "name": "LogNewSetPriceProduct",
      "type": "event"
    },
    {
      "anonymous": false,
      "inputs": [
        {
          "indexed": true,
          "name": "_productId",
          "type": "uint8"
        },
        {
          "indexed": false,
          "name": "inventory",
          "type": "uint64"
        }
      ],
      "name": "LogAddedInventory",
      "type": "event"
    },
    {
      "anonymous": false,
      "inputs": [
        {
          "indexed": true,
          "name": "_ownerAddress",
          "type": "address"
        },
        {
          "indexed": true,
          "name": "_storeName",
          "type": "string"
        }
      ],
      "name": "LogProductRemoved",
      "type": "event"
    },
    {
      "anonymous": false,
      "inputs": [
        {
          "indexed": true,
          "name": "_productId",
          "type": "uint8"
        },
        {
          "indexed": true,
          "name": "_storeName",
          "type": "string"
        },
        {
          "indexed": false,
          "name": "_newPrice",
          "type": "uint72"
        }
      ],
      "name": "LogPriceChange",
      "type": "event"
    },
    {
      "anonymous": false,
      "inputs": [
        {
          "indexed": true,
          "name": "_ownerAddress",
          "type": "address"
        },
        {
          "indexed": true,
          "name": "_newStoreName",
          "type": "string"
        }
      ],
      "name": "LogNewStore",
      "type": "event"
    },
    {
      "anonymous": false,
      "inputs": [
        {
          "indexed": true,
          "name": "_storeOwnerAddress",
          "type": "address"
        }
      ],
      "name": "LogNewStoreOwner",
      "type": "event"
    },
    {
      "anonymous": false,
      "inputs": [
        {
          "indexed": true,
          "name": "_storeOwner",
          "type": "address"
        }
      ],
      "name": "LogStoreOwnerRemoved",
      "type": "event"
    },
    {
      "anonymous": false,
      "inputs": [
        {
          "indexed": true,
          "name": "_ownerAddress",
          "type": "address"
        }
      ],
      "name": "LogStoreClosed",
      "type": "event"
    },
    {
      "anonymous": false,
      "inputs": [
        {
          "indexed": true,
          "name": "previousOwner",
          "type": "address"
        },
        {
          "indexed": true,
          "name": "newOwner",
          "type": "address"
        }
      ],
      "name": "LogNewOwner",
      "type": "event"
    },
    {
      "anonymous": false,
      "inputs": [
        {
          "indexed": true,
          "name": "newAdmin",
          "type": "address"
        }
      ],
      "name": "LogNewAdmin",
      "type": "event"
    },
    {
      "anonymous": false,
      "inputs": [
        {
          "indexed": true,
          "name": "revokedAdmin",
          "type": "address"
        }
      ],
      "name": "LogAdminRevoked",
      "type": "event"
    },
    {
      "anonymous": false,
      "inputs": [],
      "name": "Pause",
      "type": "event"
    },
    {
      "anonymous": false,
      "inputs": [],
      "name": "Unpause",
      "type": "event"
    }
  ],
  "bytecode": "0x60806040526001600855600160105534801561001a57600080fd5b50336000806101000a81548173ffffffffffffffffffffffffffffffffffffffff021916908373ffffffffffffffffffffffffffffffffffffffff1602179055506001600760006101000a81548160ff0219169083151502179055503373ffffffffffffffffffffffffffffffffffffffff166000809054906101000a90505050615e8c80620000ab6000396000f300608060405260043610610250576000357c0100000000000000000000000000000000000000000000000000000000900463ffffffff168062265dc5146102ab57806303efa6e614610306578063050cfdd114610390578063060347e01461040d5780631def8eed1461048a57806328ec015c146105145780632eea9067146105bd5780632fa8cfac1461065d57806331df27ce146106de578063320b2ad91461073557806335b2b5be1461074c5780633ccfd60b1461078d57806340f42c1c146107a45780634db4bc16146107e75780635f7d53a1146108715780636af04a57146108b45780636f48fe7e1461090b57806373ada8061461099957806378678a3214610a4c578063803360b614610a8f57806381e4fc8214610af8578063822b0ceb14610b4a5780638456cb5914610ba55780638bb126a714610bd45780639024b8c514610c15578063982a359614610c845780639bf474b514610cd95780639d2bcb5414610d45578063a075a5b114610ddd578063a275999c14610e34578063bcddcfb214610e8b578063bdc39f4814610eb6578063c55d0f5614610ef9578063c7fc1bd114610f3a578063cb92bfa114610fd8578063cbb18cc414611037578063cca04001146110a9578063cd15b91314611108578063d45c35ff146111a0578063ddeb63b5146111e1578063e2fdcc1714611224578063e5fdf7f81461127b578063e698f0bb14611309578063f0e06e4a14611360578063f6a99e4c146113cd578063fc8234cb146114cf578063fd8f49a5146114e6578063fde57f3b1461154c578063fed489491461158f575b6000341015156102a9573373ffffffffffffffffffffffffffffffffffffffff167fafc7c22656214f820dd5d5d53d4e1a42b878f2fe22f8523d33e095602edff922346040518082815260200191505060405180910390a25b005b3480156102b757600080fd5b506102ec600480360381019080803573ffffffffffffffffffffffffffffffffffffffff169060200190929190505050611635565b604051808215151515815260200191505060405180910390f35b34801561031257600080fd5b5061037a600480360381019080803590602001908201803590602001908080601f0160208091040260200160405190810160405280939291908181526020018383808284378201915050505050509192919290803560ff169060200190929190505050611681565b6040518082815260200191505060405180910390f35b34801561039c57600080fd5b506103f7600480360381019080803590602001908201803590602001908080601f0160208091040260200160405190810160405280939291908181526020018383808284378201915050505050509192919290505050611794565b6040518082815260200191505060405180910390f35b610474600480360381019080803560ff169060200190929190803590602001908201803590602001908080601f0160208091040260200160405190810160405280939291908181526020018383808284378201915050505050509192919290505050611922565b6040518082815260200191505060405180910390f35b34801561049657600080fd5b506104fe600480360381019080803590602001908201803590602001908080601f0160208091040260200160405190810160405280939291908181526020018383808284378201915050505050509192919290803560ff169060200190929190505050611bdf565b6040518082815260200191505060405180910390f35b34801561052057600080fd5b5061057b600480360381019080803590602001908201803590602001908080601f0160208091040260200160405190810160405280939291908181526020018383808284378201915050505050509192919290505050611c6c565b604051808273ffffffffffffffffffffffffffffffffffffffff1673ffffffffffffffffffffffffffffffffffffffff16815260200191505060405180910390f35b3480156105c957600080fd5b50610631600480360381019080803590602001908201803590602001908080601f0160208091040260200160405190810160405280939291908181526020018383808284378201915050505050509192919290803560ff169060200190929190505050611d06565b604051808268ffffffffffffffffff1668ffffffffffffffffff16815260200191505060405180910390f35b34801561066957600080fd5b506106c4600480360381019080803590602001908201803590602001908080601f0160208091040260200160405190810160405280939291908181526020018383808284378201915050505050509192919290505050611e30565b604051808215151515815260200191505060405180910390f35b3480156106ea57600080fd5b5061071f600480360381019080803573ffffffffffffffffffffffffffffffffffffffff169060200190929190505050611eb2565b6040518082815260200191505060405180910390f35b34801561074157600080fd5b5061074a611eca565b005b61077760048036038101908080359060200190929190803560ff169060200190929190505050611f90565b6040518082815260200191505060405180910390f35b34801561079957600080fd5b506107a2612252565b005b3480156107b057600080fd5b506107e5600480360381019080803573ffffffffffffffffffffffffffffffffffffffff16906020019092919050505061232e565b005b3480156107f357600080fd5b5061085b600480360381019080803560ff169060200190929190803590602001908201803590602001908080601f0160208091040260200160405190810160405280939291908181526020018383808284378201915050505050509192919290505050612547565b6040518082815260200191505060405180910390f35b34801561087d57600080fd5b506108b2600480360381019080803573ffffffffffffffffffffffffffffffffffffffff169060200190929190505050612711565b005b3480156108c057600080fd5b506108c961288e565b604051808273ffffffffffffffffffffffffffffffffffffffff1673ffffffffffffffffffffffffffffffffffffffff16815260200191505060405180910390f35b34801561091757600080fd5b5061097f600480360381019080803560ff169060200190929190803590602001908201803590602001908080601f01602080910402602001604051908101604052809392919081815260200183838082843782019150505050505091929192905050506128b4565b604051808215151515815260200191505060405180910390f35b3480156109a557600080fd5b50610a0a60048036038101908080359060200190929190803590602001908201803590602001908080601f0160208091040260200160405190810160405280939291908181526020018383808284378201915050505050509192919290505050612a60565b604051808273ffffffffffffffffffffffffffffffffffffffff1673ffffffffffffffffffffffffffffffffffffffff16815260200191505060405180910390f35b348015610a5857600080fd5b50610a8d600480360381019080803573ffffffffffffffffffffffffffffffffffffffff169060200190929190505050612bba565b005b348015610a9b57600080fd5b50610af6600480360381019080803590602001908201803590602001908080601f0160208091040260200160405190810160405280939291908181526020018383808284378201915050505050509192919290505050612e83565b005b348015610b0457600080fd5b50610b3060048036038101908080359060200190929190803560ff1690602001909291905050506131f9565b604051808215151515815260200191505060405180910390f35b348015610b5657600080fd5b50610b8b600480360381019080803573ffffffffffffffffffffffffffffffffffffffff169060200190929190505050613501565b604051808215151515815260200191505060405180910390f35b348015610bb157600080fd5b50610bba613578565b604051808215151515815260200191505060405180910390f35b348015610be057600080fd5b50610bff6004803603810190808035906020019092919050505061358b565b6040518082815260200191505060405180910390f35b348015610c2157600080fd5b50610c58600480360381019080803568ffffffffffffffffff169060200190929190803560ff1690602001909291905050506135e2565b604051808268ffffffffffffffffff1668ffffffffffffffffff16815260200191505060405180910390f35b348015610c9057600080fd5b50610caf60048036038101908080359060200190929190505050613759565b604051808267ffffffffffffffff1667ffffffffffffffff16815260200191505060405180910390f35b348015610ce557600080fd5b50610d1b600480360381019080803560ff169060200190929190803567ffffffffffffffff1690602001909291905050506137b0565b604051808267ffffffffffffffff1667ffffffffffffffff16815260200191505060405180910390f35b348015610d5157600080fd5b50610dc3600480360381019080803590602001908201803590602001908080601f016020809104026020016040519081016040528093929190818152602001838380828437820191505050505050919291929080359060200190929190803560ff169060200190929190505050613a6b565b604051808215151515815260200191505060405180910390f35b348015610de957600080fd5b50610e1e600480360381019080803573ffffffffffffffffffffffffffffffffffffffff169060200190929190505050613bd6565b6040518082815260200191505060405180910390f35b348015610e4057600080fd5b50610e75600480360381019080803573ffffffffffffffffffffffffffffffffffffffff169060200190929190505050613bee565b6040518082815260200191505060405180910390f35b348015610e9757600080fd5b50610ea0613c37565b6040518082815260200191505060405180910390f35b348015610ec257600080fd5b50610ef7600480360381019080803573ffffffffffffffffffffffffffffffffffffffff169060200190929190505050613c3d565b005b348015610f0557600080fd5b50610f2460048036038101908080359060200190929190505050613e3d565b6040518082815260200191505060405180910390f35b348015610f4657600080fd5b50610fae600480360381019080803590602001908201803590602001908080601f0160208091040260200160405190810160405280939291908181526020018383808284378201915050505050509192919290803560ff169060200190929190505050613e7a565b604051808267ffffffffffffffff1667ffffffffffffffff16815260200191505060405180910390f35b348015610fe457600080fd5b5061102160048036038101908080359060200190929190803590602001909291908035906020019092919080359060200190929190505050613fa3565b6040518082815260200191505060405180910390f35b34801561104357600080fd5b5061108f600480360381019080803573ffffffffffffffffffffffffffffffffffffffff169060200190929190803560ff16906020019092919080359060200190929190505050613fe3565b604051808215151515815260200191505060405180910390f35b3480156110b557600080fd5b506110f26004803603810190808035906020019092919080359060200190929190803567ffffffffffffffff1690602001909291905050506140bf565b6040518082815260200191505060405180910390f35b34801561111457600080fd5b50611186600480360381019080803590602001908201803590602001908080601f0160208091040260200160405190810160405280939291908181526020018383808284378201915050505050509192919290803560ff169060200190929190803590602001909291905050506144d1565b604051808215151515815260200191505060405180910390f35b3480156111ac57600080fd5b506111cb60048036038101908080359060200190929190505050614632565b6040518082815260200191505060405180910390f35b3480156111ed57600080fd5b50611222600480360381019080803573ffffffffffffffffffffffffffffffffffffffff169060200190929190505050614699565b005b34801561123057600080fd5b5061123961473e565b604051808273ffffffffffffffffffffffffffffffffffffffff1673ffffffffffffffffffffffffffffffffffffffff16815260200191505060405180910390f35b34801561128757600080fd5b506112ef600480360381019080803590602001908201803590602001908080601f0160208091040260200160405190810160405280939291908181526020018383808284378201915050505050509192919290803560ff169060200190929190505050614764565b604051808215151515815260200191505060405180910390f35b34801561131557600080fd5b5061131e61489d565b604051808273ffffffffffffffffffffffffffffffffffffffff1673ffffffffffffffffffffffffffffffffffffffff16815260200191505060405180910390f35b34801561136c57600080fd5b5061138b600480360381019080803590602001909291905050506148c2565b604051808273ffffffffffffffffffffffffffffffffffffffff1673ffffffffffffffffffffffffffffffffffffffff16815260200191505060405180910390f35b3480156113d957600080fd5b50611454600480360381019080803573ffffffffffffffffffffffffffffffffffffffff169060200190929190803590602001908201803590602001908080601f01602080910402602001604051908101604052809392919081815260200183838082843782019150505050505091929192905050506148f7565b6040518080602001828103825283818151815260200191508051906020019080838360005b83811015611494578082015181840152602081019050611479565b50505050905090810190601f1680156114c15780820380516001836020036101000a031916815260200191505b509250505060405180910390f35b3480156114db57600080fd5b506114e4614d79565b005b3480156114f257600080fd5b50611530600480360381019080803568ffffffffffffffffff169060200190929190803567ffffffffffffffff169060200190929190505050614e3f565b604051808260ff1660ff16815260200191505060405180910390f35b34801561155857600080fd5b5061158d600480360381019080803573ffffffffffffffffffffffffffffffffffffffff16906020019092919050505061511f565b005b34801561159b57600080fd5b506115ba60048036038101908080359060200190929190505050615336565b6040518080602001828103825283818151815260200191508051906020019080838360005b838110156115fa5780820151818401526020810190506115df565b50505050905090810190601f1680156116275780820380516001836020036101000a031916815260200191505b509250505060405180910390f35b600080600d60008473ffffffffffffffffffffffffffffffffffffffff1673ffffffffffffffffffffffffffffffffffffffff1681526020019081526020016000205414159050919050565b6000806000600b856040518082805190602001908083835b6020831015156116be5780518252602082019150602081019050602083039250611699565b6001836020036101000a038019825116818451168082178552505050505050905001915050908152602001604051809103902060009054906101000a900473ffffffffffffffffffffffffffffffffffffffff169150600a60008373ffffffffffffffffffffffffffffffffffffffff1673ffffffffffffffffffffffffffffffffffffffff1681526020019081526020016000205490506009600082815260200190815260200160002060080160008560ff1660ff168152602001908152602001600020600001805490509250505092915050565b600080600080600c856040518082805190602001908083835b6020831015156117d257805182526020820191506020810190506020830392506117ad565b6001836020036101000a038019825116818451168082178552505050505050905001915050908152602001604051809103902060009054906101000a900460ff16151561181e57600080fd5b600b856040518082805190602001908083835b6020831015156118565780518252602082019150602081019050602083039250611831565b6001836020036101000a038019825116818451168082178552505050505050905001915050908152602001604051809103902060009054906101000a900473ffffffffffffffffffffffffffffffffffffffff169250600a60008473ffffffffffffffffffffffffffffffffffffffff1673ffffffffffffffffffffffffffffffffffffffff1681526020019081526020016000205491506009600083815260200190815260200160002090508060060160009054906101000a900460ff1660ff169350505050919050565b60008060008060008060001515600760009054906101000a900460ff16151514151561194d57600080fd5b600b876040518082805190602001908083835b6020831015156119855780518252602082019150602081019050602083039250611960565b6001836020036101000a038019825116818451168082178552505050505050905001915050908152602001604051809103902060009054906101000a900473ffffffffffffffffffffffffffffffffffffffff169450600a60008673ffffffffffffffffffffffffffffffffffffffff1673ffffffffffffffffffffffffffffffffffffffff168152602001908152602001600020549350600960008581526020019081526020016000209250611a3c8888612547565b95503491508260080160008960ff1660ff16815260200190815260200160002060010160009054906101000a900468ffffffffffffffffff1668ffffffffffffffffff168210151515611a8e57600080fd5b611a988583615443565b60028360080160008a60ff1660ff16815260200190815260200160002060000187815481101515611ac557fe5b90600052602060002090602091828204019190066101000a81548160ff02191690836003811115611af257fe5b021790555085600f60003373ffffffffffffffffffffffffffffffffffffffff1673ffffffffffffffffffffffffffffffffffffffff168152602001908152602001600020819055508260080160008960ff1660ff168152602001908152602001600020600101600981819054906101000a900467ffffffffffffffff16809291906001900391906101000a81548167ffffffffffffffff021916908367ffffffffffffffff160217905550508260080160008960ff1660ff16815260200190815260200160002060010160099054906101000a900467ffffffffffffffff169050505050505092915050565b60006012836040518082805190602001908083835b602083101515611c195780518252602082019150602081019050602083039250611bf4565b6001836020036101000a038019825116818451168082178552505050505050905001915050908152602001604051809103902060008360ff1660ff16815260200190815260200160002054905092915050565b600080600b836040518082805190602001908083835b602083101515611ca75780518252602082019150602081019050602083039250611c82565b6001836020036101000a038019825116818451168082178552505050505050905001915050908152602001604051809103902060009054906101000a900473ffffffffffffffffffffffffffffffffffffffff16905080915050919050565b600080600080600b866040518082805190602001908083835b602083101515611d445780518252602082019150602081019050602083039250611d1f565b6001836020036101000a038019825116818451168082178552505050505050905001915050908152602001604051809103902060009054906101000a900473ffffffffffffffffffffffffffffffffffffffff169250600d60008473ffffffffffffffffffffffffffffffffffffffff1673ffffffffffffffffffffffffffffffffffffffff1681526020019081526020016000205491506009600083815260200190815260200160002090508060080160008660ff1660ff16815260200190815260200160002060010160009054906101000a900468ffffffffffffffffff16935050505092915050565b6000600c826040518082805190602001908083835b602083101515611e6a5780518252602082019150602081019050602083039250611e45565b6001836020036101000a038019825116818451168082178552505050505050905001915050908152602001604051809103902060009054906101000a900460ff169050919050565b600f6020528060005260406000206000915090505481565b6000809054906101000a900473ffffffffffffffffffffffffffffffffffffffff1673ffffffffffffffffffffffffffffffffffffffff163373ffffffffffffffffffffffffffffffffffffffff16141515611f2557600080fd5b60001515600760009054906101000a900460ff161515141515611f4757600080fd5b6001600760006101000a81548160ff0219169083151502179055507f6985a02210a168e66602d3235cb6db0e70f92b3ba4d376a33c0f3d9434bff62560405160405180910390a1565b6000806000806000806000801515600760009054906101000a900460ff161515141515611fbc57600080fd5b601160008a81526020019081526020016000209550611fda86615543565b1515611fe557600080fd5b349450611ff186615571565b935083851015151561200257600080fd5b8560000160009054906101000a900473ffffffffffffffffffffffffffffffffffffffff16925061203289615664565b61203c8386615443565b600d60008473ffffffffffffffffffffffffffffffffffffffff1673ffffffffffffffffffffffffffffffffffffffff16815260200190815260200160002054915060096000838152602001908152602001600020905060028160080160008a60ff1660ff16815260200190815260200160002060000160008154811015156120c157fe5b90600052602060002090602091828204019190066101000a81548160ff021916908360038111156120ee57fe5b02179055503373ffffffffffffffffffffffffffffffffffffffff168860ff167fefbcc64f981e16228c4d01a58ecea3a1549e873e5f7fe8b01287765d3c33785b8360070160405180806020018281038252838181546001816001161561010002031660029004815260200191508054600181600116156101000203166002900480156121bc5780601f10612191576101008083540402835291602001916121bc565b820191906000526020600020905b81548152906001019060200180831161219f57829003601f168201915b50509250505060405180910390a37f391f37ee14cb2bac7ab5022640f6cc73659fa7c1ce7e4786cba2338c830c527e888533604051808460ff1660ff1681526020018381526020018273ffffffffffffffffffffffffffffffffffffffff1673ffffffffffffffffffffffffffffffffffffffff168152602001935050505060405180910390a183965050505050505092915050565b6000809054906101000a900473ffffffffffffffffffffffffffffffffffffffff1673ffffffffffffffffffffffffffffffffffffffff163373ffffffffffffffffffffffffffffffffffffffff161415156122ad57600080fd5b6000809054906101000a900473ffffffffffffffffffffffffffffffffffffffff1673ffffffffffffffffffffffffffffffffffffffff166108fc3073ffffffffffffffffffffffffffffffffffffffff16319081150290604051600060405180830381858888f1935050505015801561232b573d6000803e3d6000fd5b50565b6000806000809054906101000a900473ffffffffffffffffffffffffffffffffffffffff1673ffffffffffffffffffffffffffffffffffffffff163373ffffffffffffffffffffffffffffffffffffffff1614151561238c57600080fd5b60001515600760009054906101000a900460ff1615151415156123ae57600080fd5b60009150600090505b600481111580156123cc575060001515821515145b15612532578273ffffffffffffffffffffffffffffffffffffffff166001826005811015156123f757fe5b0160009054906101000a900473ffffffffffffffffffffffffffffffffffffffff1673ffffffffffffffffffffffffffffffffffffffff16141561252557600060018260058110151561244657fe5b0160006101000a81548173ffffffffffffffffffffffffffffffffffffffff021916908373ffffffffffffffffffffffffffffffffffffffff1602179055506000600660008573ffffffffffffffffffffffffffffffffffffffff1673ffffffffffffffffffffffffffffffffffffffff16815260200190815260200160002060006101000a81548160ff021916908315150217905550600191508273ffffffffffffffffffffffffffffffffffffffff167fdca59b6371f7db6faad5c9931588f735722795c7b8ea859824e0afc8b2c70a4f60405160405180910390a25b80806001019150506123b7565b6001151582151514151561254257fe5b505050565b6000806000806000806000809550600b886040518082805190602001908083835b60208310151561258d5780518252602082019150602081019050602083039250612568565b6001836020036101000a038019825116818451168082178552505050505050905001915050908152602001604051809103902060009054906101000a900473ffffffffffffffffffffffffffffffffffffffff169350600d60008573ffffffffffffffffffffffffffffffffffffffff1673ffffffffffffffffffffffffffffffffffffffff1681526020019081526020016000205492506009600084815260200190815260200160002091505b8160080160008a60ff1660ff168152602001908152602001600020600001805490508110801561266f575060001515861515145b156126f2576000600381111561268157fe5b8260080160008b60ff1660ff168152602001908152602001600020600001828154811015156126ac57fe5b90600052602060002090602091828204019190069054906101000a900460ff1660038111156126d757fe5b14156126e557809450600195505b808060010191505061263b565b6001151586151514151561270257fe5b84965050505050505092915050565b60008060009054906101000a900473ffffffffffffffffffffffffffffffffffffffff1673ffffffffffffffffffffffffffffffffffffffff163373ffffffffffffffffffffffffffffffffffffffff1614151561276e57600080fd5b60001515600760009054906101000a900460ff16151514151561279057600080fd5b600073ffffffffffffffffffffffffffffffffffffffff168273ffffffffffffffffffffffffffffffffffffffff16141515156127cc57600080fd5b6000809054906101000a900473ffffffffffffffffffffffffffffffffffffffff169050816000806101000a81548173ffffffffffffffffffffffffffffffffffffffff021916908373ffffffffffffffffffffffffffffffffffffffff1602179055508073ffffffffffffffffffffffffffffffffffffffff168273ffffffffffffffffffffffffffffffffffffffff167f1f8d7d25344642d919d55999e4664aa452a5f424bc0936ceb9c2b300db7dcbd960405160405180910390a35050565b601360009054906101000a900473ffffffffffffffffffffffffffffffffffffffff1681565b6000806000806000600c866040518082805190602001908083835b6020831015156128f457805182526020820191506020810190506020830392506128cf565b6001836020036101000a038019825116818451168082178552505050505050905001915050908152602001604051809103902060009054906101000a900460ff16151561294057600080fd5b600b866040518082805190602001908083835b6020831015156129785780518252602082019150602081019050602083039250612953565b6001836020036101000a038019825116818451168082178552505050505050905001915050908152602001604051809103902060009054906101000a900473ffffffffffffffffffffffffffffffffffffffff169350600a60008573ffffffffffffffffffffffffffffffffffffffff1673ffffffffffffffffffffffffffffffffffffffff1681526020019081526020016000205492506009600084815260200190815260200160002091508160080160008860ff1660ff16815260200190815260200160002090508060010160119054906101000a900460ff1694505050505092915050565b60008060008060018610158015612a78575060058611155b1515612a8357600080fd5b600b856040518082805190602001908083835b602083101515612abb5780518252602082019150602081019050602083039250612a96565b6001836020036101000a038019825116818451168082178552505050505050905001915050908152602001604051809103902060009054906101000a900473ffffffffffffffffffffffffffffffffffffffff169250600a60008473ffffffffffffffffffffffffffffffffffffffff1673ffffffffffffffffffffffffffffffffffffffff168152602001908152602001600020549150600960008381526020019081526020016000209050600060061115612bac578060000186600681101515612b8357fe5b0160009054906101000a900473ffffffffffffffffffffffffffffffffffffffff169350612bb1565b600093505b50505092915050565b60008060008060009054906101000a900473ffffffffffffffffffffffffffffffffffffffff1673ffffffffffffffffffffffffffffffffffffffff163373ffffffffffffffffffffffffffffffffffffffff16141515612c1a57600080fd5b60001515600760009054906101000a900460ff161515141515612c3c57600080fd5b600073ffffffffffffffffffffffffffffffffffffffff168473ffffffffffffffffffffffffffffffffffffffff1614151515612c7857600080fd5b5b600483111515612d03578373ffffffffffffffffffffffffffffffffffffffff16600184600581101515612ca957fe5b0160009054906101000a900473ffffffffffffffffffffffffffffffffffffffff1673ffffffffffffffffffffffffffffffffffffffff161415612cf85760026001141515612cf757600080fd5b5b826001019250612c79565b600091505b60048111158015612d1d575060001515821515145b15612e6d576000600182600581101515612d3357fe5b0160009054906101000a900473ffffffffffffffffffffffffffffffffffffffff1673ffffffffffffffffffffffffffffffffffffffff161415612e605783600182600581101515612d8157fe5b0160006101000a81548173ffffffffffffffffffffffffffffffffffffffff021916908373ffffffffffffffffffffffffffffffffffffffff1602179055506001600660008673ffffffffffffffffffffffffffffffffffffffff1673ffffffffffffffffffffffffffffffffffffffff16815260200190815260200160002060006101000a81548160ff021916908315150217905550600191508373ffffffffffffffffffffffffffffffffffffffff167f39e7d4b9ba48f55a740a5192809dbc498fa12724c030b37dab126a3f6774c0f360405160405180910390a25b8080600101915050612d08565b60011515821515141515612e7d57fe5b50505050565b6000806000809054906101000a900473ffffffffffffffffffffffffffffffffffffffff1673ffffffffffffffffffffffffffffffffffffffff163373ffffffffffffffffffffffffffffffffffffffff161480612f31575060011515600660003373ffffffffffffffffffffffffffffffffffffffff1673ffffffffffffffffffffffffffffffffffffffff16815260200190815260200160002060009054906101000a900460ff161515145b1515612f3c57600080fd5b600b836040518082805190602001908083835b602083101515612f745780518252602082019150602081019050602083039250612f4f565b6001836020036101000a038019825116818451168082178552505050505050905001915050908152602001604051809103902060009054906101000a900473ffffffffffffffffffffffffffffffffffffffff1691506000600a60008473ffffffffffffffffffffffffffffffffffffffff1673ffffffffffffffffffffffffffffffffffffffff168152602001908152602001600020541415151561301957600080fd5b6000600c846040518082805190602001908083835b602083101515613053578051825260208201915060208101905060208303925061302e565b6001836020036101000a038019825116818451168082178552505050505050905001915050908152602001604051809103902060006101000a81548160ff021916908315150217905550600a60008373ffffffffffffffffffffffffffffffffffffffff1673ffffffffffffffffffffffffffffffffffffffff16815260200190815260200160002054905060096000828152602001908152602001600020600080820160006131039190615a91565b6006820160006101000a81549060ff02191690556007820160006131279190615aa4565b50508173ffffffffffffffffffffffffffffffffffffffff167f99834834070224a7bc8eee507b8f041592b6cd80dd705f79f81b42487b0b460d60405160405180910390a26000600a60008473ffffffffffffffffffffffffffffffffffffffff1673ffffffffffffffffffffffffffffffffffffffff168152602001908152602001600020819055508173ffffffffffffffffffffffffffffffffffffffff167fe6547a945aa917d8f8b8a71a98062b03570c5ab79d6f47aa64dab5ae6483e0c860405160405180910390a2505050565b6000806000801515600760009054906101000a900460ff16151514151561321f57600080fd5b6000600d60003373ffffffffffffffffffffffffffffffffffffffff1673ffffffffffffffffffffffffffffffffffffffff168152602001908152602001600020541415151561326e57600080fd5b600d60003373ffffffffffffffffffffffffffffffffffffffff1673ffffffffffffffffffffffffffffffffffffffff168152602001908152602001600020549150600960008381526020019081526020016000209050600260038111156132d257fe5b8160080160008660ff1660ff168152602001908152602001600020600001868154811015156132fd57fe5b90600052602060002090602091828204019190069054906101000a900460ff16600381111561332857fe5b14151561333457600080fd5b6000925060038160080160008660ff1660ff1681526020019081526020016000206000018681548110151561336557fe5b90600052602060002090602091828204019190066101000a81548160ff0219169083600381111561339257fe5b0217905550600192508360ff16857fa88cd15baa294be44c222117dcf9e5a965809cae03e05f544dc401b296cafabc83600701604051808060200182810382528381815460018160011615610100020316600290048152602001915080546001816001161561010002031660029004801561344e5780601f106134235761010080835404028352916020019161344e565b820191906000526020600020905b81548152906001019060200180831161343157829003601f168201915b50509250505060405180910390a36134f9600b8260070160405180828054600181600116156101000203166002900480156134c05780601f1061349e5761010080835404028352918201916134c0565b820191906000526020600020905b8154815290600101906020018083116134ac575b5050915050908152602001604051809103902060009054906101000a900473ffffffffffffffffffffffffffffffffffffffff16615720565b505092915050565b6000801515600760009054906101000a900460ff16151514151561352457600080fd5b600660008373ffffffffffffffffffffffffffffffffffffffff1673ffffffffffffffffffffffffffffffffffffffff16815260200190815260200160002060009054906101000a900460ff169050919050565b600760009054906101000a900460ff1681565b6000806011600084815260200190815260200160002090506135ac81615543565b15156135b757600080fd5b8060020160009054906101000a900467ffffffffffffffff1667ffffffffffffffff16915050919050565b600080600080600a60003373ffffffffffffffffffffffffffffffffffffffff1673ffffffffffffffffffffffffffffffffffffffff168152602001908152602001600020541415151561363557600080fd5b60001515600760009054906101000a900460ff16151514151561365757600080fd5b600a60003373ffffffffffffffffffffffffffffffffffffffff1673ffffffffffffffffffffffffffffffffffffffff16815260200190815260200160002054915060096000838152602001908152602001600020905060008568ffffffffffffffffff16101515156136c957600080fd5b600015158160080160008660ff1660ff16815260200190815260200160002060010160119054906101000a900460ff16151514151561370757600080fd5b848160080160008660ff1660ff16815260200190815260200160002060010160006101000a81548168ffffffffffffffffff021916908368ffffffffffffffffff160217905550849250505092915050565b6000806011600084815260200190815260200160002060020160089054906101000a900467ffffffffffffffff16905060008167ffffffffffffffff161415156137a5578091506137aa565b600091505b50919050565b600080600080600080600d60003373ffffffffffffffffffffffffffffffffffffffff1673ffffffffffffffffffffffffffffffffffffffff168152602001908152602001600020541415151561380657600080fd5b60001515600760009054906101000a900460ff16151514151561382857600080fd5b600d60003373ffffffffffffffffffffffffffffffffffffffff1673ffffffffffffffffffffffffffffffffffffffff168152602001908152602001600020549350600960008581526020019081526020016000209250858360080160008960ff1660ff16815260200190815260200160002060010160098282829054906101000a900467ffffffffffffffff160192506101000a81548167ffffffffffffffff021916908367ffffffffffffffff1602179055508260080160008860ff1660ff16815260200190815260200160002060010160119054906101000a900460ff1691506000151582151514151561391e57600080fd5b5b8567ffffffffffffffff168110156139ab578260080160008860ff1660ff1681526020019081526020016000206000016000908060018154018082558091505090600182039060005260206000209060209182820401919006909192909190916101000a81548160ff0219169083600381111561399857fe5b021790555050808060010191505061391f565b8660ff167fcd54f669064af9fb6802bd64bd9ae5303d604527aec88e9024bc9517c945fab78460080160008a60ff1660ff16815260200190815260200160002060010160099054906101000a900467ffffffffffffffff16604051808267ffffffffffffffff1667ffffffffffffffff16815260200191505060405180910390a28260080160008860ff1660ff16815260200190815260200160002060010160099054906101000a900467ffffffffffffffff1694505050505092915050565b600080600080600b876040518082805190602001908083835b602083101515613aa95780518252602082019150602081019050602083039250613a84565b6001836020036101000a038019825116818451168082178552505050505050905001915050908152602001604051809103902060009054906101000a900473ffffffffffffffffffffffffffffffffffffffff169250600a60008473ffffffffffffffffffffffffffffffffffffffff1673ffffffffffffffffffffffffffffffffffffffff168152602001908152602001600020549150600960008381526020019081526020016000209050600380811115613b6257fe5b8160080160008760ff1660ff16815260200190815260200160002060000187815481101515613b8d57fe5b90600052602060002090602091828204019190069054906101000a900460ff166003811115613bb857fe5b1415613bc75760019350613bcc565b600093505b5050509392505050565b600a6020528060005260406000206000915090505481565b6000600f60008373ffffffffffffffffffffffffffffffffffffffff1673ffffffffffffffffffffffffffffffffffffffff168152602001908152602001600020549050919050565b60085481565b60008060008060001515600760009054906101000a900460ff161515141515613c6557600080fd5b6000600a60003373ffffffffffffffffffffffffffffffffffffffff1673ffffffffffffffffffffffffffffffffffffffff1681526020019081526020016000205414151515613cb457600080fd5b600a60003373ffffffffffffffffffffffffffffffffffffffff1673ffffffffffffffffffffffffffffffffffffffff16815260200190815260200160002054935060096000858152602001908152602001600020925060009150600190505b60058111158015613d29575060001515821515145b15613e265760008360000182600681101515613d4157fe5b0160009054906101000a900473ffffffffffffffffffffffffffffffffffffffff1673ffffffffffffffffffffffffffffffffffffffff161415613e195760019150848360000182600681101515613d9557fe5b0160006101000a81548173ffffffffffffffffffffffffffffffffffffffff021916908373ffffffffffffffffffffffffffffffffffffffff16021790555083600d60008773ffffffffffffffffffffffffffffffffffffffff1673ffffffffffffffffffffffffffffffffffffffff168152602001908152602001600020819055505b8080600101915050613d14565b60011515821515141515613e3657fe5b5050505050565b600080601160008481526020019081526020016000209050613e5e81615543565b1515613e6957600080fd5b613e7281615571565b915050919050565b600080600080600b866040518082805190602001908083835b602083101515613eb85780518252602082019150602081019050602083039250613e93565b6001836020036101000a038019825116818451168082178552505050505050905001915050908152602001604051809103902060009054906101000a900473ffffffffffffffffffffffffffffffffffffffff169250600d60008473ffffffffffffffffffffffffffffffffffffffff1673ffffffffffffffffffffffffffffffffffffffff1681526020019081526020016000205491506009600083815260200190815260200160002090508060080160008660ff1660ff16815260200190815260200160002060010160099054906101000a900467ffffffffffffffff16935050505092915050565b6000806000808585101515613fba57869350613fd8565b878703925085858402811515613fcc57fe5b05915081880190508093505b505050949350505050565b6000806000600d60008773ffffffffffffffffffffffffffffffffffffffff1673ffffffffffffffffffffffffffffffffffffffff1681526020019081526020016000205491506009600083815260200190815260200160002090506002600381111561404c57fe5b8160080160008760ff1660ff1681526020019081526020016000206000018581548110151561407757fe5b90600052602060002090602091828204019190069054906101000a900460ff1660038111156140a257fe5b14156140b157600192506140b6565b600092505b50509392505050565b60008060006140cc615aec565b600080600080600d60003373ffffffffffffffffffffffffffffffffffffffff1673ffffffffffffffffffffffffffffffffffffffff168152602001908152602001600020541415151561411f57600080fd5b60001515600760009054906101000a900460ff16151514151561414157600080fd5b600d60003373ffffffffffffffffffffffffffffffffffffffff1673ffffffffffffffffffffffffffffffffffffffff16815260200190815260200160002054955060096000878152602001908152602001600020945060806040519081016040528060006040519080825280602002602001820160405280156141d45781602001602082028038833980820191505090505b5081526020018b68ffffffffffffffffff168152602001600167ffffffffffffffff1681526020016001151581525093508460060160009054906101000a900460ff169250838560080160008560ff1660ff1681526020019081526020016000206000820151816000019080519060200190614251929190615b2c565b5060208201518160010160006101000a81548168ffffffffffffffffff021916908368ffffffffffffffffff16021790555060408201518160010160096101000a81548167ffffffffffffffff021916908367ffffffffffffffff16021790555060608201518160010160116101000a81548160ff02191690831515021790555090505060018560060160008282829054906101000a900460ff160192506101000a81548160ff021916908360ff160217905550600b8560070160405180828054600181600116156101000203166002900480156143665780601f10614344576101008083540402835291820191614366565b820191906000526020600020905b815481529060010190602001808311614352575b5050915050908152602001604051809103902060009054906101000a900473ffffffffffffffffffffffffffffffffffffffff1691508460080160008460ff1660ff1681526020019081526020016000206000016001908060018154018082558091505090600182039060005260206000209060209182820401919006909192909190916101000a81548160ff0219169083600381111561440357fe5b02179055505060105490508060128660070160405180828054600181600116156101000203166002900480156144705780601f1061444e576101008083540402835291820191614470565b820191906000526020600020905b81548152906001019060200180831161445c575b5050915050908152602001604051809103902060008560ff1660ff168152602001908152602001600020819055506001601054016010819055506144c18a8a8a67ffffffffffffffff1685856157f8565b8696505050505050509392505050565b6000806000806000600b886040518082805190602001908083835b60208310151561451157805182526020820191506020810190506020830392506144ec565b6001836020036101000a038019825116818451168082178552505050505050905001915050908152602001604051809103902060009054906101000a900473ffffffffffffffffffffffffffffffffffffffff169350600a60008573ffffffffffffffffffffffffffffffffffffffff1673ffffffffffffffffffffffffffffffffffffffff1681526020019081526020016000205492506009600084815260200190815260200160002091508160080160008860ff1660ff168152602001908152602001600020600001868154811015156145e957fe5b90600052602060002090602091828204019190069054906101000a900460ff1690506002600381111561461857fe5b81600381111561462457fe5b149450505050509392505050565b60008060116000848152602001908152602001600020905061465381615543565b151561465e57600080fd5b8060010160109054906101000a90046fffffffffffffffffffffffffffffffff166fffffffffffffffffffffffffffffffff16915050919050565b60008060009054906101000a900473ffffffffffffffffffffffffffffffffffffffff1673ffffffffffffffffffffffffffffffffffffffff163373ffffffffffffffffffffffffffffffffffffffff161415156146f657600080fd5b81905080600e60006101000a81548173ffffffffffffffffffffffffffffffffffffffff021916908373ffffffffffffffffffffffffffffffffffffffff1602179055505050565b600e60009054906101000a900473ffffffffffffffffffffffffffffffffffffffff1681565b600080600080600b866040518082805190602001908083835b6020831015156147a2578051825260208201915060208101905060208303925061477d565b6001836020036101000a038019825116818451168082178552505050505050905001915050908152602001604051809103902060009054906101000a900473ffffffffffffffffffffffffffffffffffffffff169250600d60008473ffffffffffffffffffffffffffffffffffffffff1673ffffffffffffffffffffffffffffffffffffffff16815260200190815260200160002054915060096000838152602001908152602001600020905060008160080160008760ff1660ff16815260200190815260200160002060010160009054906101000a900468ffffffffffffffffff1668ffffffffffffffffff161415935050505092915050565b6000809054906101000a900473ffffffffffffffffffffffffffffffffffffffff1681565b6001816005811015156148d157fe5b016000915054906101000a900473ffffffffffffffffffffffffffffffffffffffff1681565b6060614901615bdb565b614909615bfe565b6000809054906101000a900473ffffffffffffffffffffffffffffffffffffffff1673ffffffffffffffffffffffffffffffffffffffff163373ffffffffffffffffffffffffffffffffffffffff1614806149b4575060011515600660003373ffffffffffffffffffffffffffffffffffffffff1673ffffffffffffffffffffffffffffffffffffffff16815260200190815260200160002060009054906101000a900460ff161515145b15156149bf57600080fd5b60001515600760009054906101000a900460ff1615151415156149e157600080fd5b6000600a60008773ffffffffffffffffffffffffffffffffffffffff1673ffffffffffffffffffffffffffffffffffffffff16815260200190815260200160002054141515614a2f57600080fd5b60001515600c856040518082805190602001908083835b602083101515614a6b5780518252602082019150602081019050602083039250614a46565b6001836020036101000a038019825116818451168082178552505050505050905001915050908152602001604051809103902060009054906101000a900460ff161515141515614aba57600080fd5b606060405190810160405280838152602001600060ff168152602001858152509050600854600a60008773ffffffffffffffffffffffffffffffffffffffff1673ffffffffffffffffffffffffffffffffffffffff16815260200190815260200160002081905550600854600d60008773ffffffffffffffffffffffffffffffffffffffff1673ffffffffffffffffffffffffffffffffffffffff1681526020019081526020016000208190555080600960006008548152602001908152602001600020600082015181600001906006614b95929190615c2a565b5060208201518160060160006101000a81548160ff021916908360ff1602179055506040820151816007019080519060200190614bd3929190615ca7565b5090505060086000815480929190600101919050555084600b82604001516040518082805190602001908083835b602083101515614c265780518252602082019150602081019050602083039250614c01565b6001836020036101000a038019825116818451168082178552505050505050905001915050908152602001604051809103902060006101000a81548173ffffffffffffffffffffffffffffffffffffffff021916908373ffffffffffffffffffffffffffffffffffffffff1602179055506001600c82604001516040518082805190602001908083835b602083101515614cd55780518252602082019150602081019050602083039250614cb0565b6001836020036101000a038019825116818451168082178552505050505050905001915050908152602001604051809103902060006101000a81548160ff0219169083151502179055508481600001516000600681101515614d3357fe5b602002019073ffffffffffffffffffffffffffffffffffffffff16908173ffffffffffffffffffffffffffffffffffffffff168152505080604001519250505092915050565b6000809054906101000a900473ffffffffffffffffffffffffffffffffffffffff1673ffffffffffffffffffffffffffffffffffffffff163373ffffffffffffffffffffffffffffffffffffffff16141515614dd457600080fd5b60011515600760009054906101000a900460ff161515141515614df657600080fd5b6000600760006101000a81548160ff0219169083151502179055507f7805862f689e2f13df9f062ff482ad3ad112aca9e0847911ed832e158c525b3360405160405180910390a1565b6000806000614e4c615aec565b6000801515600760009054906101000a900460ff161515141515614e6f57600080fd5b6000600d60003373ffffffffffffffffffffffffffffffffffffffff1673ffffffffffffffffffffffffffffffffffffffff1681526020019081526020016000205414151515614ebe57600080fd5b600d60003373ffffffffffffffffffffffffffffffffffffffff1673ffffffffffffffffffffffffffffffffffffffff1681526020019081526020016000205493506009600085815260200190815260200160002092506080604051908101604052806000604051908082528060200260200182016040528015614f515781602001602082028038833980820191505090505b5081526020018868ffffffffffffffffff1681526020018767ffffffffffffffff1681526020016000151581525091508260060160009054906101000a900460ff169450818360080160008760ff1660ff1681526020019081526020016000206000820151816000019080519060200190614fcd929190615b2c565b5060208201518160010160006101000a81548168ffffffffffffffffff021916908368ffffffffffffffffff16021790555060408201518160010160096101000a81548167ffffffffffffffff021916908367ffffffffffffffff16021790555060608201518160010160116101000a81548160ff02191690831515021790555090505082600601600081819054906101000a900460ff168092919060010191906101000a81548160ff021916908360ff160217905550505b8567ffffffffffffffff16811015615112578260080160008660ff1660ff1681526020019081526020016000206000016000908060018154018082558091505090600182039060005260206000209060209182820401919006909192909190916101000a81548160ff021916908360038111156150ff57fe5b0217905550508080600101915050615086565b8494505050505092915050565b6000806000806000600a60003373ffffffffffffffffffffffffffffffffffffffff1673ffffffffffffffffffffffffffffffffffffffff168152602001908152602001600020541415151561517457600080fd5b60001515600760009054906101000a900460ff16151514151561519657600080fd5b600a60003373ffffffffffffffffffffffffffffffffffffffff1673ffffffffffffffffffffffffffffffffffffffff16815260200190815260200160002054935060096000858152602001908152602001600020925060009150600190505b6005811115801561520b575060001515821515145b1561531f578473ffffffffffffffffffffffffffffffffffffffff16836000018260068110151561523857fe5b0160009054906101000a900473ffffffffffffffffffffffffffffffffffffffff1673ffffffffffffffffffffffffffffffffffffffff161415615312576000836000018260068110151561528957fe5b0160006101000a81548173ffffffffffffffffffffffffffffffffffffffff021916908373ffffffffffffffffffffffffffffffffffffffff1602179055506000600d60008773ffffffffffffffffffffffffffffffffffffffff1673ffffffffffffffffffffffffffffffffffffffff16815260200190815260200160002081905550600191505b80806001019150506151f6565b6001151582151514151561532f57fe5b5050505050565b6060600080600160085414151561540357600960008581526020019081526020016000209150816007019050808054600181600116156101000203166002900480601f0160208091040260200160405190810160405280929190818152602001828054600181600116156101000203166002900480156153f75780601f106153cc576101008083540402835291602001916153f7565b820191906000526020600020905b8154815290600101906020018083116153da57829003601f168201915b5050505050925061543c565b6040805190810160405280600181526020017f300000000000000000000000000000000000000000000000000000000000000081525092505b5050919050565b803073ffffffffffffffffffffffffffffffffffffffff16311015151561546957600080fd5b600e60009054906101000a900473ffffffffffffffffffffffffffffffffffffffff1673ffffffffffffffffffffffffffffffffffffffff1663f340fa0182846040518363ffffffff167c0100000000000000000000000000000000000000000000000000000000028152600401808273ffffffffffffffffffffffffffffffffffffffff1673ffffffffffffffffffffffffffffffffffffffff1681526020019150506000604051808303818588803b15801561552657600080fd5b505af115801561553a573d6000803e3d6000fd5b50505050505050565b6000808260020160089054906101000a900467ffffffffffffffff1667ffffffffffffffff16119050919050565b600080600090508260020160089054906101000a900467ffffffffffffffff1667ffffffffffffffff164211156155ca578260020160089054906101000a900467ffffffffffffffff1667ffffffffffffffff16420390505b61565c8360010160009054906101000a90046fffffffffffffffffffffffffffffffff166fffffffffffffffffffffffffffffffff168460010160109054906101000a90046fffffffffffffffffffffffffffffffff166fffffffffffffffffffffffffffffffff168560020160009054906101000a900467ffffffffffffffff1667ffffffffffffffff1684613fa3565b915050919050565b60116000828152602001908152602001600020600080820160006101000a81549073ffffffffffffffffffffffffffffffffffffffff02191690556001820160006101000a8154906fffffffffffffffffffffffffffffffff02191690556001820160106101000a8154906fffffffffffffffffffffffffffffffff02191690556002820160006101000a81549067ffffffffffffffff02191690556002820160086101000a81549067ffffffffffffffff0219169055505050565b600e60009054906101000a900473ffffffffffffffffffffffffffffffffffffffff1673ffffffffffffffffffffffffffffffffffffffff166351cff8d9826040518263ffffffff167c0100000000000000000000000000000000000000000000000000000000028152600401808273ffffffffffffffffffffffffffffffffffffffff1673ffffffffffffffffffffffffffffffffffffffff168152602001915050600060405180830381600087803b1580156157dd57600080fd5b505af11580156157f1573d6000803e3d6000fd5b5050505050565b615800615d27565b60001515600760009054906101000a900460ff16151514151561582257600080fd5b60a0604051908101604052808473ffffffffffffffffffffffffffffffffffffffff168152602001876fffffffffffffffffffffffffffffffff168152602001866fffffffffffffffffffffffffffffffff1681526020018567ffffffffffffffff1681526020014267ffffffffffffffff1681525090506158a482826158ac565b505050505050565b603c816060015167ffffffffffffffff16101515156158ca57600080fd5b806011600084815260200190815260200160002060008201518160000160006101000a81548173ffffffffffffffffffffffffffffffffffffffff021916908373ffffffffffffffffffffffffffffffffffffffff16021790555060208201518160010160006101000a8154816fffffffffffffffffffffffffffffffff02191690836fffffffffffffffffffffffffffffffff16021790555060408201518160010160106101000a8154816fffffffffffffffffffffffffffffffff02191690836fffffffffffffffffffffffffffffffff16021790555060608201518160020160006101000a81548167ffffffffffffffff021916908367ffffffffffffffff16021790555060808201518160020160086101000a81548167ffffffffffffffff021916908367ffffffffffffffff1602179055509050507fa9c8dfcda5664a5a124c713e386da27de87432d5b668e79458501eb296389ba78282602001516fffffffffffffffffffffffffffffffff1683604001516fffffffffffffffffffffffffffffffff16846060015167ffffffffffffffff166040518085815260200184815260200183815260200182815260200194505050505060405180910390a15050565b508060060190615aa19190615da5565b50565b50805460018160011615610100020316600290046000825580601f10615aca5750615ae9565b601f016020900490600052602060002090810190615ae89190615da5565b5b50565b60806040519081016040528060608152602001600068ffffffffffffffffff168152602001600067ffffffffffffffff1681526020016000151581525090565b82805482825590600052602060002090601f01602090048101928215615bca5791602002820160005b83821115615b9b57835183826101000a81548160ff02191690836003811115615b7a57fe5b02179055509260200192600101602081600001049283019260010302615b55565b8015615bc85782816101000a81549060ff0219169055600101602081600001049283019260010302615b9b565b505b509050615bd79190615dca565b5090565b60c060405190810160405280600690602082028038833980820191505090505090565b61010060405190810160405280615c13615dfa565b8152602001600060ff168152602001606081525090565b8260068101928215615c96579160200282015b82811115615c955782518260006101000a81548173ffffffffffffffffffffffffffffffffffffffff021916908373ffffffffffffffffffffffffffffffffffffffff16021790555091602001919060010190615c3d565b5b509050615ca39190615e1d565b5090565b828054600181600116156101000203166002900490600052602060002090601f016020900481019282601f10615ce857805160ff1916838001178555615d16565b82800160010185558215615d16579182015b82811115615d15578251825591602001919060010190615cfa565b5b509050615d239190615da5565b5090565b60a060405190810160405280600073ffffffffffffffffffffffffffffffffffffffff16815260200160006fffffffffffffffffffffffffffffffff16815260200160006fffffffffffffffffffffffffffffffff168152602001600067ffffffffffffffff168152602001600067ffffffffffffffff1681525090565b615dc791905b80821115615dc3576000816000905550600101615dab565b5090565b90565b615df791905b80821115615df357600081816101000a81549060ff021916905550600101615dd0565b5090565b90565b60c060405190810160405280600690602082028038833980820191505090505090565b615e5d91905b80821115615e5957600081816101000a81549073ffffffffffffffffffffffffffffffffffffffff021916905550600101615e23565b5090565b905600a165627a7a7230582075c458c3d8c6f783ebcde4a3f9257880a54be509a9b94e4a20e81cc70fad68260029",
  "source": "pragma solidity ^0.4.24;\n\nimport \"./StoreAuction.sol\";\n\n/**\n  * @dev This contract represents a store in the Maat's network of stores. It\n  * is deployed from the StoreFactory contract\n  * @author Eric Brown (https://github.com/ericbrown99)\n  */\n\n  contract StoreCore is StoreAuction {\n    /*  Needs to be implemented:\n        - This is the core contract which manages all of the subcontracts. Use\n          this contract to create the constructor and implement upgradable\n          design patterns\n        - Manage\n        - Lookup function to find the addreses of owners associated with stores so\n          that Maats leadership can act on stores which aren't active\n    */\n\n    // For upgradeability\n    address public newContractAddress;\n    // emit event if funds donated to contract (don't take cut of sales)\n    event LogFundsReceived(address indexed _sender,uint _value);\n\n    /// @dev set the pause vaiable to true when creating the contract. THe owner\n    /// must ensure that the proper escrow contract is linked to the contract\n    /// and that the proxy has connected to the contract before unpausing the\n    /// contract as a security measure.\n\n    constructor() public{\n      pause = true;\n      maatsOwner == msg.sender;\n    }\n\n    /// @dev Fall back function with donations allowed\n    function() external payable{\n      if (msg.value >= 0){\n        emit LogFundsReceived(msg.sender, msg.value);\n      }\n    }\n\n\n\n  }\n",
  "sourcePath": "/Users/ericbrown/Documents/Blockchain/ConsenSysCourse/GitHub/Maats/contracts/StoreCore.sol",
  "compiler": {
    "name": "solc",
    "version": "0.4.24+commit.e67f0147.Emscripten.clang"
  },
  "schemaVersion": "2.0.1",
  "updatedAt": "2018-08-16T02:58:50.720Z"
}