{
  "contractName": "StoreAuction",
  "abi": [
    {
      "constant": true,
      "inputs": [
        {
          "name": "adminAddress",
          "type": "address"
        }
      ],
      "name": "getIsStoreAdmin",
      "outputs": [
        {
          "name": "",
          "type": "bool"
        }
      ],
      "payable": false,
      "stateMutability": "view",
      "type": "function"
    },
    {
      "constant": false,
      "inputs": [
        {
          "name": "_productId",
          "type": "uint8"
        },
        {
          "name": "_storeName",
          "type": "string"
        }
      ],
      "name": "buyItem",
      "outputs": [
        {
          "name": "index",
          "type": "uint256"
        }
      ],
      "payable": true,
      "stateMutability": "payable",
      "type": "function"
    },
    {
      "constant": true,
      "inputs": [
        {
          "name": "",
          "type": "address"
        }
      ],
      "name": "OwnerToStore",
      "outputs": [
        {
          "name": "storeName",
          "type": "string"
        },
        {
          "name": "open",
          "type": "bool"
        },
        {
          "name": "prodCount",
          "type": "uint8"
        }
      ],
      "payable": false,
      "stateMutability": "view",
      "type": "function"
    },
    {
      "constant": true,
      "inputs": [
        {
          "name": "ownerAddress",
          "type": "address"
        }
      ],
      "name": "getCurrentInventory",
      "outputs": [
        {
          "name": "",
          "type": "uint64"
        }
      ],
      "payable": false,
      "stateMutability": "view",
      "type": "function"
    },
    {
      "constant": true,
      "inputs": [
        {
          "name": "_storeName",
          "type": "string"
        }
      ],
      "name": "getStoreExists",
      "outputs": [
        {
          "name": "",
          "type": "bool"
        }
      ],
      "payable": false,
      "stateMutability": "view",
      "type": "function"
    },
    {
      "constant": true,
      "inputs": [
        {
          "name": "",
          "type": "address"
        }
      ],
      "name": "purchaserToItem",
      "outputs": [
        {
          "name": "",
          "type": "uint256"
        }
      ],
      "payable": false,
      "stateMutability": "view",
      "type": "function"
    },
    {
      "constant": false,
      "inputs": [],
      "name": "_pause",
      "outputs": [],
      "payable": false,
      "stateMutability": "nonpayable",
      "type": "function"
    },
    {
      "constant": false,
      "inputs": [],
      "name": "withdraw",
      "outputs": [],
      "payable": false,
      "stateMutability": "nonpayable",
      "type": "function"
    },
    {
      "constant": false,
      "inputs": [
        {
          "name": "_revokedAdmin",
          "type": "address"
        }
      ],
      "name": "removeMaatsAdmin",
      "outputs": [],
      "payable": false,
      "stateMutability": "nonpayable",
      "type": "function"
    },
    {
      "constant": true,
      "inputs": [
        {
          "name": "_productId",
          "type": "uint8"
        },
        {
          "name": "_storeName",
          "type": "string"
        }
      ],
      "name": "findFirstItemForSale",
      "outputs": [
        {
          "name": "",
          "type": "uint256"
        }
      ],
      "payable": false,
      "stateMutability": "view",
      "type": "function"
    },
    {
      "constant": true,
      "inputs": [
        {
          "name": "ownerAddress",
          "type": "address"
        },
        {
          "name": "index",
          "type": "uint256"
        },
        {
          "name": "productId",
          "type": "uint8"
        }
      ],
      "name": "getItemShipped",
      "outputs": [
        {
          "name": "",
          "type": "bool"
        }
      ],
      "payable": false,
      "stateMutability": "view",
      "type": "function"
    },
    {
      "constant": true,
      "inputs": [
        {
          "name": "",
          "type": "address"
        }
      ],
      "name": "isStoreOwner",
      "outputs": [
        {
          "name": "",
          "type": "bool"
        }
      ],
      "payable": false,
      "stateMutability": "view",
      "type": "function"
    },
    {
      "constant": false,
      "inputs": [
        {
          "name": "_newOwner",
          "type": "address"
        }
      ],
      "name": "setMaatsOwner",
      "outputs": [],
      "payable": false,
      "stateMutability": "nonpayable",
      "type": "function"
    },
    {
      "constant": false,
      "inputs": [
        {
          "name": "_newAdmin",
          "type": "address"
        }
      ],
      "name": "createMaatsAdmin",
      "outputs": [],
      "payable": false,
      "stateMutability": "nonpayable",
      "type": "function"
    },
    {
      "constant": false,
      "inputs": [],
      "name": "openStore",
      "outputs": [
        {
          "name": "",
          "type": "bool"
        }
      ],
      "payable": false,
      "stateMutability": "nonpayable",
      "type": "function"
    },
    {
      "constant": false,
      "inputs": [
        {
          "name": "_storeName",
          "type": "string"
        }
      ],
      "name": "removeStoreOwner",
      "outputs": [
        {
          "name": "",
          "type": "bool"
        }
      ],
      "payable": false,
      "stateMutability": "nonpayable",
      "type": "function"
    },
    {
      "constant": false,
      "inputs": [
        {
          "name": "_itemIndex",
          "type": "uint256"
        },
        {
          "name": "_productId",
          "type": "uint8"
        }
      ],
      "name": "shipItem",
      "outputs": [
        {
          "name": "shipped",
          "type": "bool"
        }
      ],
      "payable": false,
      "stateMutability": "nonpayable",
      "type": "function"
    },
    {
      "constant": true,
      "inputs": [
        {
          "name": "_admin",
          "type": "address"
        }
      ],
      "name": "getIsAdmin",
      "outputs": [
        {
          "name": "",
          "type": "bool"
        }
      ],
      "payable": false,
      "stateMutability": "view",
      "type": "function"
    },
    {
      "constant": true,
      "inputs": [],
      "name": "pause",
      "outputs": [
        {
          "name": "",
          "type": "bool"
        }
      ],
      "payable": false,
      "stateMutability": "view",
      "type": "function"
    },
    {
      "constant": false,
      "inputs": [
        {
          "name": "_newPrice",
          "type": "uint128"
        },
        {
          "name": "_productId",
          "type": "uint8"
        }
      ],
      "name": "changePrice",
      "outputs": [
        {
          "name": "",
          "type": "uint128"
        }
      ],
      "payable": false,
      "stateMutability": "nonpayable",
      "type": "function"
    },
    {
      "constant": false,
      "inputs": [
        {
          "name": "_productId",
          "type": "uint8"
        },
        {
          "name": "_newInventory",
          "type": "uint64"
        }
      ],
      "name": "addInventory",
      "outputs": [
        {
          "name": "",
          "type": "uint64"
        }
      ],
      "payable": false,
      "stateMutability": "nonpayable",
      "type": "function"
    },
    {
      "constant": false,
      "inputs": [
        {
          "name": "_price",
          "type": "uint128"
        },
        {
          "name": "_inventory",
          "type": "uint64"
        }
      ],
      "name": "createSetPriceProduct",
      "outputs": [
        {
          "name": "_productId",
          "type": "uint8"
        }
      ],
      "payable": false,
      "stateMutability": "nonpayable",
      "type": "function"
    },
    {
      "constant": true,
      "inputs": [
        {
          "name": "_purchaser",
          "type": "address"
        }
      ],
      "name": "getPurchase",
      "outputs": [
        {
          "name": "",
          "type": "uint256"
        }
      ],
      "payable": false,
      "stateMutability": "view",
      "type": "function"
    },
    {
      "constant": false,
      "inputs": [
        {
          "name": "_newOwner",
          "type": "address"
        },
        {
          "name": "_storeName",
          "type": "string"
        }
      ],
      "name": "makeStoreOwner",
      "outputs": [],
      "payable": false,
      "stateMutability": "nonpayable",
      "type": "function"
    },
    {
      "constant": true,
      "inputs": [
        {
          "name": "",
          "type": "address"
        }
      ],
      "name": "createdStore",
      "outputs": [
        {
          "name": "",
          "type": "bool"
        }
      ],
      "payable": false,
      "stateMutability": "view",
      "type": "function"
    },
    {
      "constant": false,
      "inputs": [
        {
          "name": "_NewAdminAddress",
          "type": "address"
        }
      ],
      "name": "createStoreAdmin",
      "outputs": [],
      "payable": false,
      "stateMutability": "nonpayable",
      "type": "function"
    },
    {
      "constant": true,
      "inputs": [
        {
          "name": "ownerAddress",
          "type": "address"
        }
      ],
      "name": "getProductExists",
      "outputs": [
        {
          "name": "",
          "type": "bool"
        }
      ],
      "payable": false,
      "stateMutability": "view",
      "type": "function"
    },
    {
      "constant": false,
      "inputs": [
        {
          "name": "_escrowAddress",
          "type": "address"
        }
      ],
      "name": "setEscrowAddress",
      "outputs": [],
      "payable": false,
      "stateMutability": "nonpayable",
      "type": "function"
    },
    {
      "constant": true,
      "inputs": [],
      "name": "getNumStores",
      "outputs": [
        {
          "name": "",
          "type": "uint256"
        }
      ],
      "payable": false,
      "stateMutability": "view",
      "type": "function"
    },
    {
      "constant": true,
      "inputs": [],
      "name": "escrow",
      "outputs": [
        {
          "name": "",
          "type": "address"
        }
      ],
      "payable": false,
      "stateMutability": "view",
      "type": "function"
    },
    {
      "constant": true,
      "inputs": [],
      "name": "maatsOwner",
      "outputs": [
        {
          "name": "",
          "type": "address"
        }
      ],
      "payable": false,
      "stateMutability": "view",
      "type": "function"
    },
    {
      "constant": true,
      "inputs": [
        {
          "name": "",
          "type": "uint256"
        }
      ],
      "name": "maatsAdmins",
      "outputs": [
        {
          "name": "",
          "type": "address"
        }
      ],
      "payable": false,
      "stateMutability": "view",
      "type": "function"
    },
    {
      "constant": false,
      "inputs": [],
      "name": "_unpause",
      "outputs": [],
      "payable": false,
      "stateMutability": "nonpayable",
      "type": "function"
    },
    {
      "constant": false,
      "inputs": [
        {
          "name": "_adminAddress",
          "type": "address"
        }
      ],
      "name": "removeStoreAdmin",
      "outputs": [],
      "payable": false,
      "stateMutability": "nonpayable",
      "type": "function"
    },
    {
      "constant": true,
      "inputs": [
        {
          "name": "i",
          "type": "uint256"
        }
      ],
      "name": "getStoreName",
      "outputs": [
        {
          "name": "",
          "type": "string"
        }
      ],
      "payable": false,
      "stateMutability": "view",
      "type": "function"
    },
    {
      "anonymous": false,
      "inputs": [
        {
          "indexed": false,
          "name": "number",
          "type": "uint256"
        }
      ],
      "name": "TestLog",
      "type": "event"
    },
    {
      "anonymous": false,
      "inputs": [
        {
          "indexed": false,
          "name": "_auctionId",
          "type": "uint256"
        },
        {
          "indexed": true,
          "name": "_storeName",
          "type": "string"
        }
      ],
      "name": "LogNewAuctionProduct",
      "type": "event"
    },
    {
      "anonymous": false,
      "inputs": [
        {
          "indexed": false,
          "name": "productId",
          "type": "uint256"
        },
        {
          "indexed": false,
          "name": "startingPrice",
          "type": "uint256"
        },
        {
          "indexed": false,
          "name": "endingPrice",
          "type": "uint256"
        },
        {
          "indexed": false,
          "name": "duration",
          "type": "uint256"
        }
      ],
      "name": "AuctionCreated",
      "type": "event"
    },
    {
      "anonymous": false,
      "inputs": [
        {
          "indexed": false,
          "name": "productId",
          "type": "uint256"
        },
        {
          "indexed": false,
          "name": "totalPrice",
          "type": "uint256"
        },
        {
          "indexed": false,
          "name": "winner",
          "type": "address"
        }
      ],
      "name": "AuctionSuccessful",
      "type": "event"
    },
    {
      "anonymous": false,
      "inputs": [
        {
          "indexed": false,
          "name": "productId",
          "type": "uint256"
        }
      ],
      "name": "AuctionCancelled",
      "type": "event"
    },
    {
      "anonymous": false,
      "inputs": [
        {
          "indexed": true,
          "name": "_productId",
          "type": "uint256"
        },
        {
          "indexed": true,
          "name": "_purchaser",
          "type": "address"
        },
        {
          "indexed": false,
          "name": "_storeName",
          "type": "string"
        }
      ],
      "name": "LogItemBought",
      "type": "event"
    },
    {
      "anonymous": false,
      "inputs": [
        {
          "indexed": true,
          "name": "_storeName",
          "type": "string"
        },
        {
          "indexed": true,
          "name": "_productId",
          "type": "uint256"
        },
        {
          "indexed": false,
          "name": "remaining",
          "type": "uint64"
        }
      ],
      "name": "LogInventoryLow",
      "type": "event"
    },
    {
      "anonymous": false,
      "inputs": [
        {
          "indexed": true,
          "name": "_storeName",
          "type": "string"
        },
        {
          "indexed": true,
          "name": "_productId",
          "type": "uint256"
        }
      ],
      "name": "LogInventoryOut",
      "type": "event"
    },
    {
      "anonymous": false,
      "inputs": [
        {
          "indexed": true,
          "name": "_index",
          "type": "uint256"
        },
        {
          "indexed": true,
          "name": "_productId",
          "type": "uint256"
        },
        {
          "indexed": false,
          "name": "_storeName",
          "type": "string"
        }
      ],
      "name": "LogItemShipped",
      "type": "event"
    },
    {
      "anonymous": false,
      "inputs": [
        {
          "indexed": true,
          "name": "_ownerAddress",
          "type": "address"
        },
        {
          "indexed": true,
          "name": "_storeName",
          "type": "string"
        }
      ],
      "name": "LogStoreOpened",
      "type": "event"
    },
    {
      "anonymous": false,
      "inputs": [
        {
          "indexed": false,
          "name": "_productId",
          "type": "uint256"
        },
        {
          "indexed": true,
          "name": "_storeName",
          "type": "string"
        }
      ],
      "name": "LogNewSetPriceProduct",
      "type": "event"
    },
    {
      "anonymous": false,
      "inputs": [
        {
          "indexed": true,
          "name": "_productId",
          "type": "uint256"
        },
        {
          "indexed": false,
          "name": "inventory",
          "type": "uint64"
        }
      ],
      "name": "LogAddedInventory",
      "type": "event"
    },
    {
      "anonymous": false,
      "inputs": [
        {
          "indexed": true,
          "name": "_ownerAddress",
          "type": "address"
        },
        {
          "indexed": true,
          "name": "_storeName",
          "type": "string"
        }
      ],
      "name": "LogProductRemoved",
      "type": "event"
    },
    {
      "anonymous": false,
      "inputs": [
        {
          "indexed": true,
          "name": "_productId",
          "type": "uint256"
        },
        {
          "indexed": true,
          "name": "_storeName",
          "type": "string"
        },
        {
          "indexed": false,
          "name": "_newPrice",
          "type": "uint128"
        }
      ],
      "name": "LogPriceChange",
      "type": "event"
    },
    {
      "anonymous": false,
      "inputs": [
        {
          "indexed": true,
          "name": "_storeName",
          "type": "string"
        },
        {
          "indexed": false,
          "name": "adminAddress",
          "type": "address"
        }
      ],
      "name": "LogNewAdmin",
      "type": "event"
    },
    {
      "anonymous": false,
      "inputs": [
        {
          "indexed": true,
          "name": "_storeName",
          "type": "string"
        },
        {
          "indexed": false,
          "name": "adminAddress",
          "type": "address"
        }
      ],
      "name": "LogAdminRemoved",
      "type": "event"
    },
    {
      "anonymous": false,
      "inputs": [
        {
          "indexed": true,
          "name": "_ownerAddress",
          "type": "address"
        },
        {
          "indexed": true,
          "name": "_newStoreName",
          "type": "string"
        }
      ],
      "name": "LogNewStore",
      "type": "event"
    },
    {
      "anonymous": false,
      "inputs": [
        {
          "indexed": true,
          "name": "_storeOwnerAddress",
          "type": "address"
        }
      ],
      "name": "LogNewStoreOwner",
      "type": "event"
    },
    {
      "anonymous": false,
      "inputs": [
        {
          "indexed": true,
          "name": "_storeOwner",
          "type": "address"
        }
      ],
      "name": "LogStoreOwnerRemoved",
      "type": "event"
    },
    {
      "anonymous": false,
      "inputs": [
        {
          "indexed": true,
          "name": "_ownerAddress",
          "type": "address"
        },
        {
          "indexed": false,
          "name": "_oldStoreName",
          "type": "string"
        }
      ],
      "name": "LogStoreClosed",
      "type": "event"
    },
    {
      "anonymous": false,
      "inputs": [
        {
          "indexed": true,
          "name": "previousOwner",
          "type": "address"
        },
        {
          "indexed": true,
          "name": "newOwner",
          "type": "address"
        }
      ],
      "name": "LogNewOwner",
      "type": "event"
    },
    {
      "anonymous": false,
      "inputs": [
        {
          "indexed": true,
          "name": "newAdmin",
          "type": "address"
        }
      ],
      "name": "LogNewAdmin",
      "type": "event"
    },
    {
      "anonymous": false,
      "inputs": [
        {
          "indexed": true,
          "name": "revokedAdmin",
          "type": "address"
        }
      ],
      "name": "LogAdminRevoked",
      "type": "event"
    },
    {
      "anonymous": false,
      "inputs": [],
      "name": "Pause",
      "type": "event"
    },
    {
      "anonymous": false,
      "inputs": [],
      "name": "Unpause",
      "type": "event"
    },
    {
      "constant": true,
      "inputs": [
        {
          "name": "auctionId",
          "type": "uint256"
        }
      ],
      "name": "getAuctionExists",
      "outputs": [
        {
          "name": "",
          "type": "bool"
        }
      ],
      "payable": false,
      "stateMutability": "view",
      "type": "function"
    },
    {
      "constant": true,
      "inputs": [
        {
          "name": "ownerofproduct",
          "type": "address"
        },
        {
          "name": "productId",
          "type": "uint8"
        },
        {
          "name": "itemId",
          "type": "uint256"
        }
      ],
      "name": "didBid",
      "outputs": [
        {
          "name": "",
          "type": "bool"
        }
      ],
      "payable": false,
      "stateMutability": "view",
      "type": "function"
    },
    {
      "constant": false,
      "inputs": [
        {
          "name": "_auctionId",
          "type": "uint256"
        },
        {
          "name": "_productId",
          "type": "uint8"
        }
      ],
      "name": "_bid",
      "outputs": [
        {
          "name": "",
          "type": "uint256"
        }
      ],
      "payable": true,
      "stateMutability": "payable",
      "type": "function"
    },
    {
      "constant": false,
      "inputs": [
        {
          "name": "_startingPrice",
          "type": "uint256"
        },
        {
          "name": "_endingPrice",
          "type": "uint256"
        },
        {
          "name": "_duration",
          "type": "uint64"
        }
      ],
      "name": "createAuctionProduct",
      "outputs": [
        {
          "name": "auctionId",
          "type": "uint256"
        }
      ],
      "payable": false,
      "stateMutability": "nonpayable",
      "type": "function"
    },
    {
      "constant": true,
      "inputs": [
        {
          "name": "_startingPrice",
          "type": "uint256"
        },
        {
          "name": "_endingPrice",
          "type": "uint256"
        },
        {
          "name": "_duration",
          "type": "uint256"
        },
        {
          "name": "_secondsPassed",
          "type": "uint256"
        }
      ],
      "name": "_computeCurrentPrice",
      "outputs": [
        {
          "name": "",
          "type": "uint256"
        }
      ],
      "payable": false,
      "stateMutability": "pure",
      "type": "function"
    },
    {
      "constant": true,
      "inputs": [
        {
          "name": "_productId",
          "type": "uint8"
        }
      ],
      "name": "getAuction",
      "outputs": [
        {
          "name": "seller",
          "type": "address"
        },
        {
          "name": "startingPrice",
          "type": "uint256"
        },
        {
          "name": "endingPrice",
          "type": "uint256"
        },
        {
          "name": "duration",
          "type": "uint256"
        },
        {
          "name": "startedAt",
          "type": "uint256"
        }
      ],
      "payable": false,
      "stateMutability": "view",
      "type": "function"
    },
    {
      "constant": true,
      "inputs": [
        {
          "name": "storeOwnerAddress",
          "type": "address"
        }
      ],
      "name": "getCurrentPrice",
      "outputs": [
        {
          "name": "",
          "type": "uint128"
        }
      ],
      "payable": false,
      "stateMutability": "view",
      "type": "function"
    },
    {
      "constant": true,
      "inputs": [
        {
          "name": "_productId",
          "type": "uint8"
        }
      ],
      "name": "getCurrentPrice",
      "outputs": [
        {
          "name": "",
          "type": "uint256"
        }
      ],
      "payable": false,
      "stateMutability": "view",
      "type": "function"
    }
  ],
  "bytecode": "0x60806040526000601355336000806101000a81548173ffffffffffffffffffffffffffffffffffffffff021916908373ffffffffffffffffffffffffffffffffffffffff1602179055506159de806100586000396000f30060806040526004361061020e576000357c0100000000000000000000000000000000000000000000000000000000900463ffffffff168062265dc514610213578063060347e01461026e5780631ab63af8146102eb57806321c636fe146103bf5780632fa8cfac1461042a57806331df27ce146104ab578063320b2ad91461050257806335b2b5be146105195780633ccfd60b1461055a57806340f42c1c146105715780634db4bc16146105b45780635d51aba21461063e5780635effd33c146106b05780635f7d53a11461070b57806378678a321461074e5780637e1dcaf714610791578063803360b6146107c057806381e4fc8214610841578063822b0ceb146108935780638456cb59146108ee57806384cc315b1461091d578063904c977e14610998578063982a359614610a1c5780639bf474b514610a61578063a14f258414610acd578063a275999c14610b3a578063a6bb52e214610b91578063bd9cf58e14610c1a578063bdc39f4814610c75578063cb92bfa114610cb8578063cbb18cc414610d17578063cca0400114610d89578063cff4af1314610de8578063ddeb63b514610e43578063e20df13814610e86578063e2fdcc1714610eb1578063e698f0bb14610f08578063eff8fe5a14610f5f578063f0e06e4a14610fa3578063fc8234cb14611010578063fde57f3b14611027578063fed489491461106a578063ff95603214611110575b600080fd5b34801561021f57600080fd5b50610254600480360381019080803573ffffffffffffffffffffffffffffffffffffffff16906020019092919050505061119c565b604051808215151515815260200191505060405180910390f35b6102d5600480360381019080803560ff169060200190929190803590602001908201803590602001908080601f01602080910402602001604051908101604052809392919081815260200183838082843782019150505050505091929192905050506111f2565b6040518082815260200191505060405180910390f35b3480156102f757600080fd5b5061032c600480360381019080803573ffffffffffffffffffffffffffffffffffffffff1690602001909291905050506114a4565b6040518080602001841515151581526020018360ff1660ff168152602001828103825285818151815260200191508051906020019080838360005b83811015610382578082015181840152602081019050610367565b50505050905090810190601f1680156103af5780820380516001836020036101000a031916815260200191505b5094505050505060405180910390f35b3480156103cb57600080fd5b50610400600480360381019080803573ffffffffffffffffffffffffffffffffffffffff169060200190929190505050611580565b604051808267ffffffffffffffff1667ffffffffffffffff16815260200191505060405180910390f35b34801561043657600080fd5b50610491600480360381019080803590602001908201803590602001908080601f01602080910402602001604051908101604052809392919081815260200183838082843782019150505050505091929192905050506115fc565b604051808215151515815260200191505060405180910390f35b3480156104b757600080fd5b506104ec600480360381019080803573ffffffffffffffffffffffffffffffffffffffff16906020019092919050505061167e565b6040518082815260200191505060405180910390f35b34801561050e57600080fd5b50610517611696565b005b61054460048036038101908080359060200190929190803560ff16906020019092919050505061175c565b6040518082815260200191505060405180910390f35b34801561056657600080fd5b5061056f611a03565b005b34801561057d57600080fd5b506105b2600480360381019080803573ffffffffffffffffffffffffffffffffffffffff169060200190929190505050611adf565b005b3480156105c057600080fd5b50610628600480360381019080803560ff169060200190929190803590602001908201803590602001908080601f0160208091040260200160405190810160405280939291908181526020018383808284378201915050505050509192919290505050611cf8565b6040518082815260200191505060405180910390f35b34801561064a57600080fd5b50610696600480360381019080803573ffffffffffffffffffffffffffffffffffffffff16906020019092919080359060200190929190803560ff169060200190929190505050611eaa565b604051808215151515815260200191505060405180910390f35b3480156106bc57600080fd5b506106f1600480360381019080803573ffffffffffffffffffffffffffffffffffffffff169060200190929190505050611f6c565b604051808215151515815260200191505060405180910390f35b34801561071757600080fd5b5061074c600480360381019080803573ffffffffffffffffffffffffffffffffffffffff169060200190929190505050611f8c565b005b34801561075a57600080fd5b5061078f600480360381019080803573ffffffffffffffffffffffffffffffffffffffff169060200190929190505050612109565b005b34801561079d57600080fd5b506107a66123d2565b604051808215151515815260200191505060405180910390f35b3480156107cc57600080fd5b50610827600480360381019080803590602001908201803590602001908080601f016020809104026020016040519081016040528093929190818152602001838380828437820191505050505050919291929050505061252e565b604051808215151515815260200191505060405180910390f35b34801561084d57600080fd5b5061087960048036038101908080359060200190929190803560ff169060200190929190505050612a40565b604051808215151515815260200191505060405180910390f35b34801561089f57600080fd5b506108d4600480360381019080803573ffffffffffffffffffffffffffffffffffffffff169060200190929190505050612db2565b604051808215151515815260200191505060405180910390f35b3480156108fa57600080fd5b50610903612e29565b604051808215151515815260200191505060405180910390f35b34801561092957600080fd5b5061095e600480360381019080803573ffffffffffffffffffffffffffffffffffffffff169060200190929190505050612e3c565b60405180826fffffffffffffffffffffffffffffffff166fffffffffffffffffffffffffffffffff16815260200191505060405180910390f35b3480156109a457600080fd5b506109e260048036038101908080356fffffffffffffffffffffffffffffffff169060200190929190803560ff169060200190929190505050612ec0565b60405180826fffffffffffffffffffffffffffffffff166fffffffffffffffffffffffffffffffff16815260200191505060405180910390f35b348015610a2857600080fd5b50610a47600480360381019080803590602001909291905050506130b6565b604051808215151515815260200191505060405180910390f35b348015610a6d57600080fd5b50610aa3600480360381019080803560ff169060200190929190803567ffffffffffffffff16906020019092919050505061310a565b604051808267ffffffffffffffff1667ffffffffffffffff16815260200191505060405180910390f35b348015610ad957600080fd5b50610b1e60048036038101908080356fffffffffffffffffffffffffffffffff169060200190929190803567ffffffffffffffff16906020019092919050505061342f565b604051808260ff1660ff16815260200191505060405180910390f35b348015610b4657600080fd5b50610b7b600480360381019080803573ffffffffffffffffffffffffffffffffffffffff1690602001909291905050506137d0565b6040518082815260200191505060405180910390f35b348015610b9d57600080fd5b50610c18600480360381019080803573ffffffffffffffffffffffffffffffffffffffff169060200190929190803590602001908201803590602001908080601f0160208091040260200160405190810160405280939291908181526020018383808284378201915050505050509192919290505050613819565b005b348015610c2657600080fd5b50610c5b600480360381019080803573ffffffffffffffffffffffffffffffffffffffff169060200190929190505050613a43565b604051808215151515815260200191505060405180910390f35b348015610c8157600080fd5b50610cb6600480360381019080803573ffffffffffffffffffffffffffffffffffffffff169060200190929190505050613a63565b005b348015610cc457600080fd5b50610d0160048036038101908080359060200190929190803590602001909291908035906020019092919080359060200190929190505050613ce0565b6040518082815260200191505060405180910390f35b348015610d2357600080fd5b50610d6f600480360381019080803573ffffffffffffffffffffffffffffffffffffffff169060200190929190803560ff16906020019092919080359060200190929190505050613d20565b604051808215151515815260200191505060405180910390f35b348015610d9557600080fd5b50610dd26004803603810190808035906020019092919080359060200190929190803567ffffffffffffffff169060200190929190505050613de3565b6040518082815260200191505060405180910390f35b348015610df457600080fd5b50610e29600480360381019080803573ffffffffffffffffffffffffffffffffffffffff1690602001909291905050506141e3565b604051808215151515815260200191505060405180910390f35b348015610e4f57600080fd5b50610e84600480360381019080803573ffffffffffffffffffffffffffffffffffffffff16906020019092919050505061426a565b005b348015610e9257600080fd5b50610e9b61430f565b6040518082815260200191505060405180910390f35b348015610ebd57600080fd5b50610ec661431c565b604051808273ffffffffffffffffffffffffffffffffffffffff1673ffffffffffffffffffffffffffffffffffffffff16815260200191505060405180910390f35b348015610f1457600080fd5b50610f1d614342565b604051808273ffffffffffffffffffffffffffffffffffffffff1673ffffffffffffffffffffffffffffffffffffffff16815260200191505060405180910390f35b348015610f6b57600080fd5b50610f8d600480360381019080803560ff169060200190929190505050614367565b6040518082815260200191505060405180910390f35b348015610faf57600080fd5b50610fce600480360381019080803590602001909291905050506143a7565b604051808273ffffffffffffffffffffffffffffffffffffffff1673ffffffffffffffffffffffffffffffffffffffff16815260200191505060405180910390f35b34801561101c57600080fd5b506110256143dc565b005b34801561103357600080fd5b50611068600480360381019080803573ffffffffffffffffffffffffffffffffffffffff1690602001909291905050506144a2565b005b34801561107657600080fd5b5061109560048036038101908080359060200190929190505050614735565b6040518080602001828103825283818151815260200191508051906020019080838360005b838110156110d55780820151818401526020810190506110ba565b50505050905090810190601f1680156111025780820380516001836020036101000a031916815260200191505b509250505060405180910390f35b34801561111c57600080fd5b5061113e600480360381019080803560ff16906020019092919050505061484f565b604051808673ffffffffffffffffffffffffffffffffffffffff1673ffffffffffffffffffffffffffffffffffffffff1681526020018581526020018481526020018381526020018281526020019550505050505060405180910390f35b6000600f60008373ffffffffffffffffffffffffffffffffffffffff1673ffffffffffffffffffffffffffffffffffffffff16815260200190815260200160002060009054906101000a900460ff169050919050565b6000806000806000801515600760009054906101000a900460ff16151514151561121b57600080fd5b600a866040518082805190602001908083835b602083101515611253578051825260208201915060208101905060208303925061122e565b6001836020036101000a038019825116818451168082178552505050505050905001915050908152602001604051809103902060009054906101000a900473ffffffffffffffffffffffffffffffffffffffff169350600e60008573ffffffffffffffffffffffffffffffffffffffff1673ffffffffffffffffffffffffffffffffffffffff16815260200190815260200160002092506112f48787611cf8565b94503491508260010160008860ff1660ff16815260200190815260200160002060000160009054906101000a90046fffffffffffffffffffffffffffffffff166fffffffffffffffffffffffffffffffff16821015151561135457600080fd5b61135e8483614975565b60028360010160008960ff1660ff1681526020019081526020016000206001018681548110151561138b57fe5b90600052602060002090602091828204019190066101000a81548160ff021916908360038111156113b857fe5b021790555084601260003373ffffffffffffffffffffffffffffffffffffffff1673ffffffffffffffffffffffffffffffffffffffff168152602001908152602001600020819055508260010160008860ff1660ff168152602001908152602001600020600201600081819054906101000a900467ffffffffffffffff16809291906001900391906101000a81548167ffffffffffffffff021916908367ffffffffffffffff160217905550508260010160008860ff1660ff16815260200190815260200160002060020160009054906101000a900467ffffffffffffffff1690505050505092915050565b6009602052806000526040600020600091509050806000018054600181600116156101000203166002900480601f0160208091040260200160405190810160405280929190818152602001828054600181600116156101000203166002900480156115505780601f1061152557610100808354040283529160200191611550565b820191906000526020600020905b81548152906001019060200180831161153357829003601f168201915b5050505050908060020160009054906101000a900460ff16908060090160009054906101000a900460ff16905083565b600080600e60008473ffffffffffffffffffffffffffffffffffffffff1673ffffffffffffffffffffffffffffffffffffffff16815260200190815260200160002090508060010160008060ff16815260200190815260200160002060020160009054906101000a900467ffffffffffffffff16915050919050565b6000600d826040518082805190602001908083835b6020831015156116365780518252602082019150602081019050602083039250611611565b6001836020036101000a038019825116818451168082178552505050505050905001915050908152602001604051809103902060009054906101000a900460ff169050919050565b60126020528060005260406000206000915090505481565b6000809054906101000a900473ffffffffffffffffffffffffffffffffffffffff1673ffffffffffffffffffffffffffffffffffffffff163373ffffffffffffffffffffffffffffffffffffffff161415156116f157600080fd5b60001515600760009054906101000a900460ff16151514151561171357600080fd5b6001600760006101000a81548160ff0219169083151502179055507f6985a02210a168e66602d3235cb6db0e70f92b3ba4d376a33c0f3d9434bff62560405160405180910390a1565b60008060008060008060001515600760009054906101000a900460ff16151514151561178757600080fd5b6014600089815260200190815260200160002094506117a585614a75565b15156117b057600080fd5b3493506117bc85614aa3565b92508284101515156117cd57600080fd5b8460000160009054906101000a900473ffffffffffffffffffffffffffffffffffffffff1691506117fd88614b96565b6118078285614975565b600e60008373ffffffffffffffffffffffffffffffffffffffff1673ffffffffffffffffffffffffffffffffffffffff168152602001908152602001600020905060028160010160008960ff1660ff168152602001908152602001600020600101600081548110151561187657fe5b90600052602060002090602091828204019190066101000a81548160ff021916908360038111156118a357fe5b02179055503373ffffffffffffffffffffffffffffffffffffffff168760ff167f21b69e57dafb192d2fc9ec6fabee5106b55506c43564934190281e68e3fd43a88360000160405180806020018281038252838181546001816001161561010002031660029004815260200191508054600181600116156101000203166002900480156119715780601f1061194657610100808354040283529160200191611971565b820191906000526020600020905b81548152906001019060200180831161195457829003601f168201915b50509250505060405180910390a37f4fcc30d90a842164dd58501ab874a101a3749c3d4747139cefe7c876f4ccebd2878433604051808460ff1681526020018381526020018273ffffffffffffffffffffffffffffffffffffffff1673ffffffffffffffffffffffffffffffffffffffff168152602001935050505060405180910390a1829550505050505092915050565b6000809054906101000a900473ffffffffffffffffffffffffffffffffffffffff1673ffffffffffffffffffffffffffffffffffffffff163373ffffffffffffffffffffffffffffffffffffffff16141515611a5e57600080fd5b6000809054906101000a900473ffffffffffffffffffffffffffffffffffffffff1673ffffffffffffffffffffffffffffffffffffffff166108fc3073ffffffffffffffffffffffffffffffffffffffff16319081150290604051600060405180830381858888f19350505050158015611adc573d6000803e3d6000fd5b50565b6000806000809054906101000a900473ffffffffffffffffffffffffffffffffffffffff1673ffffffffffffffffffffffffffffffffffffffff163373ffffffffffffffffffffffffffffffffffffffff16141515611b3d57600080fd5b60001515600760009054906101000a900460ff161515141515611b5f57600080fd5b60009150600090505b60048111158015611b7d575060001515821515145b15611ce3578273ffffffffffffffffffffffffffffffffffffffff16600182600581101515611ba857fe5b0160009054906101000a900473ffffffffffffffffffffffffffffffffffffffff1673ffffffffffffffffffffffffffffffffffffffff161415611cd6576000600182600581101515611bf757fe5b0160006101000a81548173ffffffffffffffffffffffffffffffffffffffff021916908373ffffffffffffffffffffffffffffffffffffffff1602179055506000600660008573ffffffffffffffffffffffffffffffffffffffff1673ffffffffffffffffffffffffffffffffffffffff16815260200190815260200160002060006101000a81548160ff021916908315150217905550600191508273ffffffffffffffffffffffffffffffffffffffff167fdca59b6371f7db6faad5c9931588f735722795c7b8ea859824e0afc8b2c70a4f60405160405180910390a25b8080600101915050611b68565b60011515821515141515611cf357fe5b505050565b60008060008060008060009450600a876040518082805190602001908083835b602083101515611d3d5780518252602082019150602081019050602083039250611d18565b6001836020036101000a038019825116818451168082178552505050505050905001915050908152602001604051809103902060009054906101000a900473ffffffffffffffffffffffffffffffffffffffff169250600e60008473ffffffffffffffffffffffffffffffffffffffff1673ffffffffffffffffffffffffffffffffffffffff16815260200190815260200160002091505b8160010160008960ff1660ff1681526020019081526020016000206001018054905081108015611e09575060001515851515145b15611e8c5760006003811115611e1b57fe5b8260010160008a60ff1660ff16815260200190815260200160002060010182815481101515611e4657fe5b90600052602060002090602091828204019190069054906101000a900460ff166003811115611e7157fe5b1415611e7f57809350600194505b8080600101915050611dd5565b60011515851515141515611e9c57fe5b839550505050505092915050565b600080600e60008673ffffffffffffffffffffffffffffffffffffffff1673ffffffffffffffffffffffffffffffffffffffff1681526020019081526020016000209050600380811115611efa57fe5b8160010160008560ff1660ff16815260200190815260200160002060010185815481101515611f2557fe5b90600052602060002090602091828204019190069054906101000a900460ff166003811115611f5057fe5b1415611f5f5760019150611f64565b600091505b509392505050565b600b6020528060005260406000206000915054906101000a900460ff1681565b60008060009054906101000a900473ffffffffffffffffffffffffffffffffffffffff1673ffffffffffffffffffffffffffffffffffffffff163373ffffffffffffffffffffffffffffffffffffffff16141515611fe957600080fd5b60001515600760009054906101000a900460ff16151514151561200b57600080fd5b600073ffffffffffffffffffffffffffffffffffffffff168273ffffffffffffffffffffffffffffffffffffffff161415151561204757600080fd5b6000809054906101000a900473ffffffffffffffffffffffffffffffffffffffff169050816000806101000a81548173ffffffffffffffffffffffffffffffffffffffff021916908373ffffffffffffffffffffffffffffffffffffffff1602179055508073ffffffffffffffffffffffffffffffffffffffff168273ffffffffffffffffffffffffffffffffffffffff167f1f8d7d25344642d919d55999e4664aa452a5f424bc0936ceb9c2b300db7dcbd960405160405180910390a35050565b60008060008060009054906101000a900473ffffffffffffffffffffffffffffffffffffffff1673ffffffffffffffffffffffffffffffffffffffff163373ffffffffffffffffffffffffffffffffffffffff1614151561216957600080fd5b60001515600760009054906101000a900460ff16151514151561218b57600080fd5b600073ffffffffffffffffffffffffffffffffffffffff168473ffffffffffffffffffffffffffffffffffffffff16141515156121c757600080fd5b5b600483111515612252578373ffffffffffffffffffffffffffffffffffffffff166001846005811015156121f857fe5b0160009054906101000a900473ffffffffffffffffffffffffffffffffffffffff1673ffffffffffffffffffffffffffffffffffffffff161415612247576002600114151561224657600080fd5b5b8260010192506121c8565b600091505b6004811115801561226c575060001515821515145b156123bc57600060018260058110151561228257fe5b0160009054906101000a900473ffffffffffffffffffffffffffffffffffffffff1673ffffffffffffffffffffffffffffffffffffffff1614156123af57836001826005811015156122d057fe5b0160006101000a81548173ffffffffffffffffffffffffffffffffffffffff021916908373ffffffffffffffffffffffffffffffffffffffff1602179055506001600660008673ffffffffffffffffffffffffffffffffffffffff1673ffffffffffffffffffffffffffffffffffffffff16815260200190815260200160002060006101000a81548160ff021916908315150217905550600191508373ffffffffffffffffffffffffffffffffffffffff167f39e7d4b9ba48f55a740a5192809dbc498fa12724c030b37dab126a3f6774c0f360405160405180910390a25b8080600101915050612257565b600115158215151415156123cc57fe5b50505050565b6000806000600960003373ffffffffffffffffffffffffffffffffffffffff1673ffffffffffffffffffffffffffffffffffffffff1681526020019081526020016000209050600d8160000160405180828054600181600116156101000203166002900480156124795780601f10612457576101008083540402835291820191612479565b820191906000526020600020905b815481529060010190602001808311612465575b5050915050908152602001604051809103902060009054906101000a900460ff1615156124a557600080fd5b60001515600760009054906101000a900460ff1615151415156124c757600080fd5b600960003373ffffffffffffffffffffffffffffffffffffffff1673ffffffffffffffffffffffffffffffffffffffff168152602001908152602001600020915060018260020160006101000a81548160ff02191690831515021790555060019250505090565b6000806000809054906101000a900473ffffffffffffffffffffffffffffffffffffffff1673ffffffffffffffffffffffffffffffffffffffff163373ffffffffffffffffffffffffffffffffffffffff1614806125dc575060011515600660003373ffffffffffffffffffffffffffffffffffffffff1673ffffffffffffffffffffffffffffffffffffffff16815260200190815260200160002060009054906101000a900460ff161515145b15156125e757600080fd5b600a836040518082805190602001908083835b60208310151561261f57805182526020820191506020810190506020830392506125fa565b6001836020036101000a038019825116818451168082178552505050505050905001915050908152602001604051809103902060009054906101000a900473ffffffffffffffffffffffffffffffffffffffff16905060011515600b60008373ffffffffffffffffffffffffffffffffffffffff1673ffffffffffffffffffffffffffffffffffffffff16815260200190815260200160002060009054906101000a900460ff1615151415156126d457600080fd5b6000600d846040518082805190602001908083835b60208310151561270e57805182526020820191506020810190506020830392506126e9565b6001836020036101000a038019825116818451168082178552505050505050905001915050908152602001604051809103902060006101000a81548160ff0219169083151502179055506000600960008373ffffffffffffffffffffffffffffffffffffffff1673ffffffffffffffffffffffffffffffffffffffff16815260200190815260200160002060020160006101000a81548160ff0219169083151502179055506040805190810160405280600181526020017f3000000000000000000000000000000000000000000000000000000000000000815250600960008373ffffffffffffffffffffffffffffffffffffffff1673ffffffffffffffffffffffffffffffffffffffff168152602001908152602001600020600001908051906020019061283e92919061556c565b508073ffffffffffffffffffffffffffffffffffffffff167f70e9219a99e9bfc211e7aa1236b656ca826ba23e3e9e5cbdc2f16e0c7eb8fad9600960008473ffffffffffffffffffffffffffffffffffffffff1673ffffffffffffffffffffffffffffffffffffffff16815260200190815260200160002060000160405180806020018281038252838181546001816001161561010002031660029004815260200191508054600181600116156101000203166002900480156129425780601f1061291757610100808354040283529160200191612942565b820191906000526020600020905b81548152906001019060200180831161292557829003601f168201915b50509250505060405180910390a26000600b60008373ffffffffffffffffffffffffffffffffffffffff1673ffffffffffffffffffffffffffffffffffffffff16815260200190815260200160002060006101000a81548160ff0219169083151502179055508073ffffffffffffffffffffffffffffffffffffffff167fe6547a945aa917d8f8b8a71a98062b03570c5ab79d6f47aa64dab5ae6483e0c860405160405180910390a2600b60008273ffffffffffffffffffffffffffffffffffffffff1673ffffffffffffffffffffffffffffffffffffffff16815260200190815260200160002060009054906101000a900460ff16915050919050565b60008060001515600760009054906101000a900460ff161515141515612a6557600080fd5b6000600e60003373ffffffffffffffffffffffffffffffffffffffff1673ffffffffffffffffffffffffffffffffffffffff1681526020019081526020016000209050600d816000016040518082805460018160011615610100020316600290048015612b095780601f10612ae7576101008083540402835291820191612b09565b820191906000526020600020905b815481529060010190602001808311612af5575b5050915050908152602001604051809103902060009054906101000a900460ff161515612b3557600080fd5b600e60003373ffffffffffffffffffffffffffffffffffffffff1673ffffffffffffffffffffffffffffffffffffffff168152602001908152602001600020915060026003811115612b8357fe5b8260010160008660ff1660ff16815260200190815260200160002060010186815481101515612bae57fe5b90600052602060002090602091828204019190069054906101000a900460ff166003811115612bd957fe5b141515612be557600080fd5b6000925060038260010160008660ff1660ff16815260200190815260200160002060010186815481101515612c1657fe5b90600052602060002090602091828204019190066101000a81548160ff02191690836003811115612c4357fe5b0217905550600192508360ff16857f8c27a03ba49022d57890c2993ba9a892600fe4449c319742d4cfc8afe51b541d846000016040518080602001828103825283818154600181600116156101000203166002900481526020019150805460018160011615610100020316600290048015612cff5780601f10612cd457610100808354040283529160200191612cff565b820191906000526020600020905b815481529060010190602001808311612ce257829003601f168201915b50509250505060405180910390a3612daa600a836000016040518082805460018160011615610100020316600290048015612d715780601f10612d4f576101008083540402835291820191612d71565b820191906000526020600020905b815481529060010190602001808311612d5d575b5050915050908152602001604051809103902060009054906101000a900473ffffffffffffffffffffffffffffffffffffffff16614c52565b505092915050565b6000801515600760009054906101000a900460ff161515141515612dd557600080fd5b600660008373ffffffffffffffffffffffffffffffffffffffff1673ffffffffffffffffffffffffffffffffffffffff16815260200190815260200160002060009054906101000a900460ff169050919050565b600760009054906101000a900460ff1681565b600080600e60008473ffffffffffffffffffffffffffffffffffffffff1673ffffffffffffffffffffffffffffffffffffffff16815260200190815260200160002090508060010160008060ff16815260200190815260200160002060000160009054906101000a90046fffffffffffffffffffffffffffffffff16915050919050565b6000806000600960003373ffffffffffffffffffffffffffffffffffffffff1673ffffffffffffffffffffffffffffffffffffffff1681526020019081526020016000209050600d816000016040518082805460018160011615610100020316600290048015612f675780601f10612f45576101008083540402835291820191612f67565b820191906000526020600020905b815481529060010190602001808311612f53575b5050915050908152602001604051809103902060009054906101000a900460ff161515612f9357600080fd5b60001515600760009054906101000a900460ff161515141515612fb557600080fd5b600e60003373ffffffffffffffffffffffffffffffffffffffff1673ffffffffffffffffffffffffffffffffffffffff16815260200190815260200160002091506000856fffffffffffffffffffffffffffffffff161015151561301857600080fd5b600015158260010160008660ff1660ff16815260200190815260200160002060020160089054906101000a900460ff16151514151561305657600080fd5b848260010160008660ff1660ff16815260200190815260200160002060000160006101000a8154816fffffffffffffffffffffffffffffffff02191690836fffffffffffffffffffffffffffffffff160217905550849250505092915050565b6000806014600084815260200190815260200160002060020160089054906101000a900467ffffffffffffffff1667ffffffffffffffff1690506000811415156131035760019150613104565b5b50919050565b6000806000806000600e60003373ffffffffffffffffffffffffffffffffffffffff1673ffffffffffffffffffffffffffffffffffffffff1681526020019081526020016000209050600d8160000160405180828054600181600116156101000203166002900480156131b45780601f106131925761010080835404028352918201916131b4565b820191906000526020600020905b8154815290600101906020018083116131a0575b5050915050908152602001604051809103902060009054906101000a900460ff1615156131e057600080fd5b60001515600760009054906101000a900460ff16151514151561320257600080fd5b600e60003373ffffffffffffffffffffffffffffffffffffffff1673ffffffffffffffffffffffffffffffffffffffff1681526020019081526020016000209350858460010160008960ff1660ff16815260200190815260200160002060020160008282829054906101000a900467ffffffffffffffff160192506101000a81548167ffffffffffffffff021916908367ffffffffffffffff1602179055508360010160008860ff1660ff16815260200190815260200160002060020160089054906101000a900460ff169250600015158315151415156132e257600080fd5b5b8567ffffffffffffffff1682101561336f578360010160008860ff1660ff1681526020019081526020016000206001016000908060018154018082558091505090600182039060005260206000209060209182820401919006909192909190916101000a81548160ff0219169083600381111561335c57fe5b02179055505081806001019250506132e3565b8660ff167fdb3cb3bd3aa8b0116684a1673c77eb69da47689f478ec18c9b1b42042bff3ebc8560010160008a60ff1660ff16815260200190815260200160002060020160009054906101000a900467ffffffffffffffff16604051808267ffffffffffffffff1667ffffffffffffffff16815260200191505060405180910390a28360010160008860ff1660ff16815260200190815260200160002060020160009054906101000a900467ffffffffffffffff1694505050505092915050565b60008061343a6155ec565b6000801515600760009054906101000a900460ff16151514151561345d57600080fd5b6000600e60003373ffffffffffffffffffffffffffffffffffffffff1673ffffffffffffffffffffffffffffffffffffffff1681526020019081526020016000209050600d8160000160405180828054600181600116156101000203166002900480156135015780601f106134df576101008083540402835291820191613501565b820191906000526020600020905b8154815290600101906020018083116134ed575b5050915050908152602001604051809103902060009054906101000a900460ff16151561352d57600080fd5b600e60003373ffffffffffffffffffffffffffffffffffffffff1673ffffffffffffffffffffffffffffffffffffffff1681526020019081526020016000209350608060405190810160405280886fffffffffffffffffffffffffffffffff16815260200160006040519080825280602002602001820160405280156135c25781602001602082028038833980820191505090505b5081526020018767ffffffffffffffff1681526020016000151581525092508360090160009054906101000a900460ff169450828460010160008760ff1660ff16815260200190815260200160002060008201518160000160006101000a8154816fffffffffffffffffffffffffffffffff02191690836fffffffffffffffffffffffffffffffff160217905550602082015181600101908051906020019061366c929190615633565b5060408201518160020160006101000a81548167ffffffffffffffff021916908367ffffffffffffffff16021790555060608201518160020160086101000a81548160ff0219169083151502179055509050506001601060008660090160009054906101000a900460ff1660ff1660ff16815260200190815260200160002060006101000a81548160ff02191690831515021790555083600901600081819054906101000a900460ff168092919060010191906101000a81548160ff021916908360ff160217905550505b8567ffffffffffffffff168210156137c3578360010160008660ff1660ff1681526020019081526020016000206001016000908060018154018082558091505090600182039060005260206000209060209182820401919006909192909190916101000a81548160ff021916908360038111156137b057fe5b0217905550508180600101925050613737565b8494505050505092915050565b6000601260008373ffffffffffffffffffffffffffffffffffffffff1673ffffffffffffffffffffffffffffffffffffffff168152602001908152602001600020549050919050565b6138216156e2565b6000809054906101000a900473ffffffffffffffffffffffffffffffffffffffff1673ffffffffffffffffffffffffffffffffffffffff163373ffffffffffffffffffffffffffffffffffffffff1614806138cc575060011515600660003373ffffffffffffffffffffffffffffffffffffffff1673ffffffffffffffffffffffffffffffffffffffff16815260200190815260200160002060009054906101000a900460ff161515145b15156138d757600080fd5b60001515600760009054906101000a900460ff1615151415156138f957600080fd5b60001515600b60008573ffffffffffffffffffffffffffffffffffffffff1673ffffffffffffffffffffffffffffffffffffffff16815260200190815260200160002060009054906101000a900460ff16151514151561395857600080fd5b60408051908101604052808473ffffffffffffffffffffffffffffffffffffffff16815260200160006fffffffffffffffffffffffffffffffff1681525090506001600b60008573ffffffffffffffffffffffffffffffffffffffff1673ffffffffffffffffffffffffffffffffffffffff16815260200190815260200160002060006101000a81548160ff0219169083151502179055506139fa8383614d2a565b508273ffffffffffffffffffffffffffffffffffffffff167f64a6cb4c2615e9c9ee211131f9fc94aaa6238a3c255423b75ba43ef01ca42dcd60405160405180910390a2505050565b600c6020528060005260406000206000915054906101000a900460ff1681565b6000806000801515600760009054906101000a900460ff161515141515613a8957600080fd5b6000600e60003373ffffffffffffffffffffffffffffffffffffffff1673ffffffffffffffffffffffffffffffffffffffff1681526020019081526020016000209050600d816000016040518082805460018160011615610100020316600290048015613b2d5780601f10613b0b576101008083540402835291820191613b2d565b820191906000526020600020905b815481529060010190602001808311613b19575b5050915050908152602001604051809103902060009054906101000a900460ff161515613b5957600080fd5b600e60003373ffffffffffffffffffffffffffffffffffffffff1673ffffffffffffffffffffffffffffffffffffffff168152602001908152602001600020935060009250600191505b60058211158015613bb8575060001515831515145b15613cc95760008460030183600681101515613bd057fe5b0160009054906101000a900473ffffffffffffffffffffffffffffffffffffffff1673ffffffffffffffffffffffffffffffffffffffff161415613cbc57848460030183600681101515613c2057fe5b0160006101000a81548173ffffffffffffffffffffffffffffffffffffffff021916908373ffffffffffffffffffffffffffffffffffffffff160217905550600192506001600f60008773ffffffffffffffffffffffffffffffffffffffff1673ffffffffffffffffffffffffffffffffffffffff16815260200190815260200160002060006101000a81548160ff0219169083151502179055505b8180600101925050613ba3565b60011515831515141515613cd957fe5b5050505050565b6000806000808585101515613cf757869350613d15565b878703925085858402811515613d0957fe5b05915081880190508093505b505050949350505050565b600080600e60008673ffffffffffffffffffffffffffffffffffffffff1673ffffffffffffffffffffffffffffffffffffffff168152602001908152602001600020905060026003811115613d7157fe5b8160010160008660ff1660ff16815260200190815260200160002060010184815481101515613d9c57fe5b90600052602060002090602091828204019190069054906101000a900460ff166003811115613dc757fe5b1415613dd65760019150613ddb565b600091505b509392505050565b600080613dee6155ec565b600080600080600e60003373ffffffffffffffffffffffffffffffffffffffff1673ffffffffffffffffffffffffffffffffffffffff1681526020019081526020016000209050600d816000016040518082805460018160011615610100020316600290048015613e965780601f10613e74576101008083540402835291820191613e96565b820191906000526020600020905b815481529060010190602001808311613e82575b5050915050908152602001604051809103902060009054906101000a900460ff161515613ec257600080fd5b60001515600760009054906101000a900460ff161515141515613ee457600080fd5b600e60003373ffffffffffffffffffffffffffffffffffffffff1673ffffffffffffffffffffffffffffffffffffffff16815260200190815260200160002095506080604051908101604052808b6fffffffffffffffffffffffffffffffff1681526020016000604051908082528060200260200182016040528015613f795781602001602082028038833980820191505090505b508152602001600167ffffffffffffffff1681526020016001151581525094508560090160009054906101000a900460ff169350848660010160008660ff1660ff16815260200190815260200160002060008201518160000160006101000a8154816fffffffffffffffffffffffffffffffff02191690836fffffffffffffffffffffffffffffffff1602179055506020820151816001019080519060200190614024929190615633565b5060408201518160020160006101000a81548167ffffffffffffffff021916908367ffffffffffffffff16021790555060608201518160020160086101000a81548160ff02191690831515021790555090505060018660090160008282829054906101000a900460ff160192506101000a81548160ff021916908360ff160217905550600a8660000160405180828054600181600116156101000203166002900480156141085780601f106140e6576101008083540402835291820191614108565b820191906000526020600020905b8154815290600101906020018083116140f4575b5050915050908152602001604051809103902060009054906101000a900473ffffffffffffffffffffffffffffffffffffffff1692508560010160008560ff1660ff1681526020019081526020016000206001016001908060018154018082558091505090600182039060005260206000209060209182820401919006909192909190916101000a81548160ff021916908360038111156141a557fe5b02179055505060135491506001601354016013819055506141d38a8a8a67ffffffffffffffff1686866152d3565b8696505050505050509392505050565b600080600e60008473ffffffffffffffffffffffffffffffffffffffff1673ffffffffffffffffffffffffffffffffffffffff16815260200190815260200160002090506010600060018360090160009054906101000a900460ff160360ff1660ff16815260200190815260200160002060009054906101000a900460ff16915050919050565b60008060009054906101000a900473ffffffffffffffffffffffffffffffffffffffff1673ffffffffffffffffffffffffffffffffffffffff163373ffffffffffffffffffffffffffffffffffffffff161415156142c757600080fd5b81905080601160006101000a81548173ffffffffffffffffffffffffffffffffffffffff021916908373ffffffffffffffffffffffffffffffffffffffff1602179055505050565b6000600880549050905090565b601160009054906101000a900473ffffffffffffffffffffffffffffffffffffffff1681565b6000809054906101000a900473ffffffffffffffffffffffffffffffffffffffff1681565b600080601460008460ff168152602001908152602001600020905061438b81614a75565b151561439657600080fd5b61439f81614aa3565b915050919050565b6001816005811015156143b657fe5b016000915054906101000a900473ffffffffffffffffffffffffffffffffffffffff1681565b6000809054906101000a900473ffffffffffffffffffffffffffffffffffffffff1673ffffffffffffffffffffffffffffffffffffffff163373ffffffffffffffffffffffffffffffffffffffff1614151561443757600080fd5b60011515600760009054906101000a900460ff16151514151561445957600080fd5b6000600760006101000a81548160ff0219169083151502179055507f7805862f689e2f13df9f062ff482ad3ad112aca9e0847911ed832e158c525b3360405160405180910390a1565b600080600080600960003373ffffffffffffffffffffffffffffffffffffffff1673ffffffffffffffffffffffffffffffffffffffff1681526020019081526020016000209050600d81600001604051808280546001816001161561010002031660029004801561454a5780601f1061452857610100808354040283529182019161454a565b820191906000526020600020905b815481529060010190602001808311614536575b5050915050908152602001604051809103902060009054906101000a900460ff16151561457657600080fd5b60001515600760009054906101000a900460ff16151514151561459857600080fd5b600e60003373ffffffffffffffffffffffffffffffffffffffff1673ffffffffffffffffffffffffffffffffffffffff168152602001908152602001600020935060009250600191505b600582111580156145f7575060001515831515145b1561471e578473ffffffffffffffffffffffffffffffffffffffff16846003018360068110151561462457fe5b0160009054906101000a900473ffffffffffffffffffffffffffffffffffffffff1673ffffffffffffffffffffffffffffffffffffffff161415614711576000846003018360068110151561467557fe5b0160006101000a81548173ffffffffffffffffffffffffffffffffffffffff021916908373ffffffffffffffffffffffffffffffffffffffff160217905550600192506000600f60008773ffffffffffffffffffffffffffffffffffffffff1673ffffffffffffffffffffffffffffffffffffffff16815260200190815260200160002060006101000a81548160ff0219169083151502179055505b81806001019250506145e2565b6001151583151514151561472e57fe5b5050505050565b6060600080600060088054905014151561480f5760088481548110151561475857fe5b90600052602060002090600a02019150816000019050808054600181600116156101000203166002900480601f0160208091040260200160405190810160405280929190818152602001828054600181600116156101000203166002900480156148035780601f106147d857610100808354040283529160200191614803565b820191906000526020600020905b8154815290600101906020018083116147e657829003601f168201915b50505050509250614848565b6040805190810160405280600181526020017f300000000000000000000000000000000000000000000000000000000000000081525092505b5050919050565b600080600080600080601460008860ff168152602001908152602001600020905061487981614a75565b151561488457600080fd5b8060000160009054906101000a900473ffffffffffffffffffffffffffffffffffffffff168160010160009054906101000a90046fffffffffffffffffffffffffffffffff168260010160109054906101000a90046fffffffffffffffffffffffffffffffff168360020160009054906101000a900467ffffffffffffffff168460020160089054906101000a900467ffffffffffffffff16836fffffffffffffffffffffffffffffffff169350826fffffffffffffffffffffffffffffffff1692508167ffffffffffffffff1691508067ffffffffffffffff169050955095509550955095505091939590929450565b803073ffffffffffffffffffffffffffffffffffffffff16311015151561499b57600080fd5b601160009054906101000a900473ffffffffffffffffffffffffffffffffffffffff1673ffffffffffffffffffffffffffffffffffffffff1663f340fa0182846040518363ffffffff167c0100000000000000000000000000000000000000000000000000000000028152600401808273ffffffffffffffffffffffffffffffffffffffff1673ffffffffffffffffffffffffffffffffffffffff1681526020019150506000604051808303818588803b158015614a5857600080fd5b505af1158015614a6c573d6000803e3d6000fd5b50505050505050565b6000808260020160089054906101000a900467ffffffffffffffff1667ffffffffffffffff16119050919050565b600080600090508260020160089054906101000a900467ffffffffffffffff1667ffffffffffffffff16421115614afc578260020160089054906101000a900467ffffffffffffffff1667ffffffffffffffff16420390505b614b8e8360010160009054906101000a90046fffffffffffffffffffffffffffffffff166fffffffffffffffffffffffffffffffff168460010160109054906101000a90046fffffffffffffffffffffffffffffffff166fffffffffffffffffffffffffffffffff168560020160009054906101000a900467ffffffffffffffff1667ffffffffffffffff1684613ce0565b915050919050565b60146000828152602001908152602001600020600080820160006101000a81549073ffffffffffffffffffffffffffffffffffffffff02191690556001820160006101000a8154906fffffffffffffffffffffffffffffffff02191690556001820160106101000a8154906fffffffffffffffffffffffffffffffff02191690556002820160006101000a81549067ffffffffffffffff02191690556002820160086101000a81549067ffffffffffffffff0219169055505050565b601160009054906101000a900473ffffffffffffffffffffffffffffffffffffffff1673ffffffffffffffffffffffffffffffffffffffff166351cff8d9826040518263ffffffff167c0100000000000000000000000000000000000000000000000000000000028152600401808273ffffffffffffffffffffffffffffffffffffffff1673ffffffffffffffffffffffffffffffffffffffff168152602001915050600060405180830381600087803b158015614d0f57600080fd5b505af1158015614d23573d6000803e3d6000fd5b5050505050565b6060614d34615724565b614d3c615747565b60001515600760009054906101000a900460ff161515141515614d5e57600080fd5b60011515600b60008773ffffffffffffffffffffffffffffffffffffffff1673ffffffffffffffffffffffffffffffffffffffff16815260200190815260200160002060009054906101000a900460ff161515141515614dbd57600080fd5b60001515600c60008773ffffffffffffffffffffffffffffffffffffffff1673ffffffffffffffffffffffffffffffffffffffff16815260200190815260200160002060009054906101000a900460ff161515141515614e1c57600080fd5b60001515600d856040518082805190602001908083835b602083101515614e585780518252602082019150602081019050602083039250614e33565b6001836020036101000a038019825116818451168082178552505050505050905001915050908152602001604051809103902060009054906101000a900460ff161515141515614ea757600080fd5b608060405190810160405280858152602001600015158152602001838152602001600060ff16815250905080600960008773ffffffffffffffffffffffffffffffffffffffff1673ffffffffffffffffffffffffffffffffffffffff1681526020019081526020016000206000820151816000019080519060200190614f2e92919061577c565b5060208201518160020160006101000a81548160ff021916908315150217905550604082015181600301906006614f669291906157fc565b5060608201518160090160006101000a81548160ff021916908360ff16021790555090505084600a82600001516040518082805190602001908083835b602083101515614fc85780518252602082019150602081019050602083039250614fa3565b6001836020036101000a038019825116818451168082178552505050505050905001915050908152602001604051809103902060006101000a81548173ffffffffffffffffffffffffffffffffffffffff021916908373ffffffffffffffffffffffffffffffffffffffff1602179055506001600d82600001516040518082805190602001908083835b6020831015156150775780518252602082019150602081019050602083039250615052565b6001836020036101000a038019825116818451168082178552505050505050905001915050908152602001604051809103902060006101000a81548160ff02191690831515021790555084816040015160006006811015156150d557fe5b602002019073ffffffffffffffffffffffffffffffffffffffff16908173ffffffffffffffffffffffffffffffffffffffff168152505080600e60008773ffffffffffffffffffffffffffffffffffffffff1673ffffffffffffffffffffffffffffffffffffffff168152602001908152602001600020600082015181600001908051906020019061516892919061577c565b5060208201518160020160006101000a81548160ff0219169083151502179055506040820151816003019060066151a09291906157fc565b5060608201518160090160006101000a81548160ff021916908360ff1602179055509050506001600c60008773ffffffffffffffffffffffffffffffffffffffff1673ffffffffffffffffffffffffffffffffffffffff16815260200190815260200160002060006101000a81548160ff0219169083151502179055506008819080600181540180825580915050906001820390600052602060002090600a020160009091929091909150600082015181600001908051906020019061526792919061577c565b5060208201518160020160006101000a81548160ff02191690831515021790555060408201518160030190600661529f9291906157fc565b5060608201518160090160006101000a81548160ff021916908360ff16021790555050505080600001519250505092915050565b6152db615879565b60001515600760009054906101000a900460ff1615151415156152fd57600080fd5b60a0604051908101604052808473ffffffffffffffffffffffffffffffffffffffff168152602001876fffffffffffffffffffffffffffffffff168152602001866fffffffffffffffffffffffffffffffff1681526020018567ffffffffffffffff1681526020014267ffffffffffffffff16815250905061537f8282615387565b505050505050565b603c816060015167ffffffffffffffff16101515156153a557600080fd5b806014600084815260200190815260200160002060008201518160000160006101000a81548173ffffffffffffffffffffffffffffffffffffffff021916908373ffffffffffffffffffffffffffffffffffffffff16021790555060208201518160010160006101000a8154816fffffffffffffffffffffffffffffffff02191690836fffffffffffffffffffffffffffffffff16021790555060408201518160010160106101000a8154816fffffffffffffffffffffffffffffffff02191690836fffffffffffffffffffffffffffffffff16021790555060608201518160020160006101000a81548167ffffffffffffffff021916908367ffffffffffffffff16021790555060808201518160020160086101000a81548167ffffffffffffffff021916908367ffffffffffffffff1602179055509050507fa9c8dfcda5664a5a124c713e386da27de87432d5b668e79458501eb296389ba78282602001516fffffffffffffffffffffffffffffffff1683604001516fffffffffffffffffffffffffffffffff16846060015167ffffffffffffffff166040518085815260200184815260200183815260200182815260200194505050505060405180910390a15050565b828054600181600116156101000203166002900490600052602060002090601f016020900481019282601f106155ad57805160ff19168380011785556155db565b828001600101855582156155db579182015b828111156155da5782518255916020019190600101906155bf565b5b5090506155e891906158f7565b5090565b60806040519081016040528060006fffffffffffffffffffffffffffffffff16815260200160608152602001600067ffffffffffffffff1681526020016000151581525090565b82805482825590600052602060002090601f016020900481019282156156d15791602002820160005b838211156156a257835183826101000a81548160ff0219169083600381111561568157fe5b0217905550926020019260010160208160000104928301926001030261565c565b80156156cf5782816101000a81549060ff02191690556001016020816000010492830192600103026156a2565b505b5090506156de919061591c565b5090565b6040805190810160405280600073ffffffffffffffffffffffffffffffffffffffff16815260200160006fffffffffffffffffffffffffffffffff1681525090565b60c060405190810160405280600690602082028038833980820191505090505090565b610120604051908101604052806060815260200160001515815260200161576c61594c565b8152602001600060ff1681525090565b828054600181600116156101000203166002900490600052602060002090601f016020900481019282601f106157bd57805160ff19168380011785556157eb565b828001600101855582156157eb579182015b828111156157ea5782518255916020019190600101906157cf565b5b5090506157f891906158f7565b5090565b8260068101928215615868579160200282015b828111156158675782518260006101000a81548173ffffffffffffffffffffffffffffffffffffffff021916908373ffffffffffffffffffffffffffffffffffffffff1602179055509160200191906001019061580f565b5b509050615875919061596f565b5090565b60a060405190810160405280600073ffffffffffffffffffffffffffffffffffffffff16815260200160006fffffffffffffffffffffffffffffffff16815260200160006fffffffffffffffffffffffffffffffff168152602001600067ffffffffffffffff168152602001600067ffffffffffffffff1681525090565b61591991905b808211156159155760008160009055506001016158fd565b5090565b90565b61594991905b8082111561594557600081816101000a81549060ff021916905550600101615922565b5090565b90565b60c060405190810160405280600690602082028038833980820191505090505090565b6159af91905b808211156159ab57600081816101000a81549073ffffffffffffffffffffffffffffffffffffffff021916905550600101615975565b5090565b905600a165627a7a7230582055905f5934eb04dc50eae46c06ef8d452c4433e0901c8cd51c81bf58466962c10029",
  "source": "pragma solidity ^0.4.24;\n\nimport \"./StorePurchasing.sol\";\n\n\n/**  @dev This contract is used to sell auction type items. The entire auction\n  *  process is managed in this contract. It maintains use of the escrow contract\n  *  to manage payments and withdrawl of funds.\n  */\ncontract StoreAuction is StorePurchasing{\n\n  event TestLog(uint number);\n  /// @dev Emit when a new auction type product is created:\n  event LogNewAuctionProduct(uint _auctionId,string indexed _storeName);\n  event AuctionCreated(uint256 productId, uint256 startingPrice, uint256 endingPrice, uint256 duration);\n\n  /// @dev Emit when a new auction executes successfully\n  event AuctionSuccessful(uint256 productId, uint256 totalPrice, address winner);\n  /// @dev Emit when the auction is cancelled\n  event AuctionCancelled(uint256 productId);\n\n  /// @dev Tracks all auctions in the Maats Network\n  uint totalAuctions = 0;\n\n  /// @dev trakes the Auction Id as a key for the Auction\n  mapping(uint256 => Auction) auctionIdToAuction;\n\n  /// @dev Struct for the auction type to manage auction logic\n  struct Auction {\n      // product owner\n      address seller;\n      // equal to price of product struct\n      uint128 startingPrice;\n      // Price (in wei) at end of auction\n      uint128 endingPrice;\n      // Duration (in seconds) of auction\n      uint64 duration;\n      // Time when auction started\n      // NOTE: 0 if this auction has been concluded\n      uint64 startedAt;\n  }\n\n  /// @dev for testing the successful creation of an auciton\n\n  function getAuctionExists(uint auctionId)public constant returns(bool){\n    uint currentTime = auctionIdToAuction[auctionId].startedAt;\n    if(currentTime != 0){\n      return true;\n    }\n  }\n\n  /// @dev Internal function for auctioning products.\n  /// @param _startingPrice : the starting price for the Dutch Auction\n  /// @param _endingPrice : the lowest the owner want's to sell the product for\n  /// @param _duration : the length of the auction\n  /// @param _seller : the address of the owner selling the product\n  /// @param _auctionId : the identifier for the auction\n  function createAuction(\n      uint256 _startingPrice,\n      uint256 _endingPrice,\n      uint256 _duration,\n      address _seller,\n      uint256 _auctionId\n  )\n      internal\n      whenNotPaused\n  {\n      Auction memory auction = Auction(\n          _seller,\n          uint128(_startingPrice),\n          uint128(_endingPrice),\n          uint64(_duration),\n          uint64(now)\n      );\n      _addAuction(_auctionId, auction);\n  }\n\n  /// @dev Adds the auction to the list of current auctions and emits event\n  /// @param _auctionId : the identifier for this auction\n  /// @param _auction : the acution being created\n  function _addAuction(uint256 _auctionId, Auction _auction) internal {\n      // Require that all auctions have a duration of\n      // at least one minute. (Keeps our math from getting hairy!)\n      require(_auction.duration >= 1 minutes);\n\n      // Add auction to mapping storing auctions\n      auctionIdToAuction[_auctionId] = _auction;\n\n      // Let everyone know about the new auction!!\n      emit AuctionCreated(\n          uint256(_auctionId),\n          uint256(_auction.startingPrice),\n          uint256(_auction.endingPrice),\n          uint256(_auction.duration)\n      );\n  }\n\n  /// @dev Removes an auction from the system\n  /// @param _auctionId : Locator for the auction to be deleted\n  function _removeAuction(uint256 _auctionId) internal {\n      delete auctionIdToAuction[_auctionId];\n  }\n\n  /// @dev allows the owner to cancel auction\n  function _cancelAuction(uint256 _auctionId) internal {\n      _removeAuction(_auctionId);\n      emit AuctionCancelled(_auctionId);\n  }\n\n  /// @dev Used to view if an auction is still live\n  function _isOnAuction(Auction storage _auction) internal view returns (bool) {\n      return (_auction.startedAt > 0);\n  }\n\n\n  /// function for testing successful bid\n  function didBid(address ownerofproduct,uint8 productId,uint itemId)public constant returns(bool){\n    Store storage current = storeAdminToStore[ownerofproduct];\n    if(current.products[productId].items[itemId] == ItemStatus.Bought){\n      return true;\n    }else{\n      return false;\n    }\n  }\n  /// @dev Allows customers to \"bid\" on a product: Dutch (reverse) auctions don't\n  /// have bids since it goes from high price to low price. Bid is essentially buy.\n  /// @param _auctionId : The auction which they will be bidding on\n  /// @param _productId : Identifier for product being bid on\n  function _bid(uint256 _auctionId,uint8 _productId)\n      public\n      payable\n      whenNotPaused\n      returns (uint256)\n  {\n\n\n      // Get a reference to the auction struct\n      Auction storage auction = auctionIdToAuction[_auctionId];\n\n      // Explicitly check that this auction is currently live.\n      // (Because of how Ethereum mappings work, we can't just count\n      // on the lookup above failing. An invalid _tokenId will just\n      // return an auction object that is all zeros.)\n      require(_isOnAuction(auction));\n\n\n      // Check that the incoming bid is higher than the current\n      // price\n      uint256 value = msg.value;\n      uint256 price = _currentPrice(auction);\n      require(value >= price);\n\n      // Grab a reference to the seller before the auction struct\n      // gets deleted.\n      address seller = auction.seller;\n\n\n      // The bid is good! Remove the auction before sending the fees\n      // to the sender so we can't have a reentrancy attack.\n      _removeAuction(_auctionId);\n\n      depositEscrow(seller,value);\n\n\n\n      Store storage current = storeAdminToStore[seller];\n      current.products[_productId].items[0] = ItemStatus.Bought;\n      emit LogItemBought(_productId, msg.sender,current.storeName);\n      // Tell the world!\n      emit AuctionSuccessful(_productId, price, msg.sender);\n\n      return price;\n\n  }\n\n  /// @dev Creates the auction product and immediately puts it on auction.\n  /// @param _startingPrice : Price the auction will start at (highest)\n  /// @param _endingPrice : Price auction will end at (lowest)\n  /// @param _duration : length of the auction in seconds(determines speed of price decrease)\n  /// @return _auctionId : To be used to tag auction created.\n  function createAuctionProduct(\n    uint256 _startingPrice,\n    uint256 _endingPrice,\n    uint64 _duration\n    )\n    public\n    onlyStoreAdmin\n    whenNotPaused\n    returns(uint auctionId){\n      // Get current store based on the msg.sender\n      Store storage current = storeAdminToStore[msg.sender];\n\n      // Create the new product to store in mapping\n      Product memory _product = Product({\n        price: uint128(_startingPrice),\n        items: new ItemStatus[](0),\n        inventory: 1,\n        auction: true\n        });\n\n      // update product count and pruduct mappings\n      uint8 _productId = current.prodCount;\n      current.products[_productId] = _product;\n      current.prodCount += 1;\n\n      // Get the current seller(owner) of the product\n      address seller = StoreNameToOwner[current.storeName];\n\n      // Set the product instance as ForAuction\n      current.products[_productId].items.push(ItemStatus.ForAuction);\n\n      // Update contract auction count\n      uint _auctionId =  totalAuctions;\n      totalAuctions = totalAuctions + 1;\n      createAuction( _startingPrice, _endingPrice,_duration,seller,_auctionId);\n\n      // Let the world know about the new product!\n    //  emit LogNewAuctionProduct(_auctionId, current.storeName);\n      return(auctionId);\n    }\n\n  /// @dev Computes the current price of the item on auction\n  function _currentPrice(Auction storage _auction)\n      internal\n      view\n      returns (uint256)\n  {\n      uint256 secondsPassed = 0;\n\n      // A bit of insurance against negative values (or wraparound).\n      // Probably not necessary (since Ethereum guarnatees that the\n      // now variable doesn't ever go backwards).\n      if (now > _auction.startedAt) {\n          secondsPassed = now - _auction.startedAt;\n      }\n\n      //call to internal function\n      return _computeCurrentPrice(\n          _auction.startingPrice,\n          _auction.endingPrice,\n          _auction.duration,\n          secondsPassed\n      );\n  }\n\n  /// @dev Computes the current price of an auction. Factored out\n  ///  from _currentPrice so we can run extensive unit tests.\n  ///  When testing, make this function public and turn on\n  ///  `Current price computation` test suite.\n  function _computeCurrentPrice(\n      uint256 _startingPrice,\n      uint256 _endingPrice,\n      uint256 _duration,\n      uint256 _secondsPassed\n  )\n      //internal // comment out when testing\n      pure\n      returns (uint256)\n  {\n      // NOTE: We don't use SafeMath (or similar) in this function because\n      //  all of our public functions carefully cap the maximum values for\n      //  time (at 64-bits) and currency (at 128-bits). _duration is\n      //  also known to be non-zero (see the require() statement in\n      //  _addAuction())\n      if (_secondsPassed >= _duration) {\n          // We've reached the end of the dynamic pricing portion\n          // of the auction, just return the end price.\n          return _endingPrice;\n      } else {\n          // Starting price can be higher than ending price (and often is!), so\n          // this delta can be negative.\n          int256 totalPriceChange = int256(_endingPrice) - int256(_startingPrice);\n\n          // This multiplication can't overflow, _secondsPassed will easily fit within\n          // 64-bits, and totalPriceChange will easily fit within 128-bits, their product\n          // will always fit within 256-bits.\n          int256 currentPriceChange = totalPriceChange * int256(_secondsPassed) / int256(_duration);\n\n          // currentPriceChange can be negative, but if so, will have a magnitude\n          // less that _startingPrice. Thus, this result will always end up positive.\n          int256 currentPrice = int256(_startingPrice) + currentPriceChange;\n\n          return uint256(currentPrice);\n      }\n    }\n\n      /// @dev allows us to get the auction so we can see the various properties\n      /// params : all paramaters have been previously defined\n      function getAuction(uint8 _productId)\n          public\n          view\n          returns\n      (\n          address seller,\n          uint256 startingPrice,\n          uint256 endingPrice,\n          uint256 duration,\n          uint256 startedAt\n      ) {\n          Auction storage auction = auctionIdToAuction[_productId];\n          require(_isOnAuction(auction));\n          return (\n              auction.seller,\n              auction.startingPrice,\n              auction.endingPrice,\n              auction.duration,\n              auction.startedAt\n          );\n      }\n\n      function getCurrentPrice(uint8 _productId)\n          public\n          view\n          returns (uint256)\n      {\n          Auction storage auction = auctionIdToAuction[_productId];\n          require(_isOnAuction(auction));\n          return _currentPrice(auction);\n      }\n\n  }\n",
  "sourcePath": "/Users/ericbrown/Documents/Blockchain/ConsenSysCourse/GitHub/Maats/contracts/StoreAuction.sol",
  "compiler": {
    "name": "solc",
    "version": "0.4.24+commit.e67f0147.Emscripten.clang"
  },
  "schemaVersion": "2.0.1",
  "updatedAt": "2018-08-14T03:41:22.674Z"
}