{
  "contractName": "StoreAccessControl",
  "abi": [
    {
      "constant": true,
      "inputs": [],
      "name": "pause",
      "outputs": [
        {
          "name": "",
          "type": "bool"
        }
      ],
      "payable": false,
      "stateMutability": "view",
      "type": "function"
    },
    {
      "constant": true,
      "inputs": [],
      "name": "maatsOwner",
      "outputs": [
        {
          "name": "",
          "type": "address"
        }
      ],
      "payable": false,
      "stateMutability": "view",
      "type": "function"
    },
    {
      "constant": true,
      "inputs": [
        {
          "name": "",
          "type": "uint256"
        }
      ],
      "name": "maatsAdmins",
      "outputs": [
        {
          "name": "",
          "type": "address"
        }
      ],
      "payable": false,
      "stateMutability": "view",
      "type": "function"
    },
    {
      "inputs": [],
      "payable": false,
      "stateMutability": "nonpayable",
      "type": "constructor"
    },
    {
      "anonymous": false,
      "inputs": [
        {
          "indexed": true,
          "name": "previousOwner",
          "type": "address"
        },
        {
          "indexed": true,
          "name": "newOwner",
          "type": "address"
        }
      ],
      "name": "LogNewOwner",
      "type": "event"
    },
    {
      "anonymous": false,
      "inputs": [
        {
          "indexed": true,
          "name": "newAdmin",
          "type": "address"
        }
      ],
      "name": "LogNewAdmin",
      "type": "event"
    },
    {
      "anonymous": false,
      "inputs": [
        {
          "indexed": true,
          "name": "revokedAdmin",
          "type": "address"
        }
      ],
      "name": "LogAdminRevoked",
      "type": "event"
    },
    {
      "anonymous": false,
      "inputs": [],
      "name": "Pause",
      "type": "event"
    },
    {
      "anonymous": false,
      "inputs": [],
      "name": "Unpause",
      "type": "event"
    },
    {
      "constant": false,
      "inputs": [
        {
          "name": "_newOwner",
          "type": "address"
        }
      ],
      "name": "setMaatsOwner",
      "outputs": [],
      "payable": false,
      "stateMutability": "nonpayable",
      "type": "function"
    },
    {
      "constant": false,
      "inputs": [
        {
          "name": "_newAdmin",
          "type": "address"
        }
      ],
      "name": "createMaatsAdmin",
      "outputs": [],
      "payable": false,
      "stateMutability": "nonpayable",
      "type": "function"
    },
    {
      "constant": false,
      "inputs": [
        {
          "name": "_revokedAdmin",
          "type": "address"
        }
      ],
      "name": "removeMaatsAdmin",
      "outputs": [],
      "payable": false,
      "stateMutability": "nonpayable",
      "type": "function"
    },
    {
      "constant": false,
      "inputs": [],
      "name": "withdraw",
      "outputs": [],
      "payable": false,
      "stateMutability": "nonpayable",
      "type": "function"
    },
    {
      "constant": false,
      "inputs": [],
      "name": "_pause",
      "outputs": [],
      "payable": false,
      "stateMutability": "nonpayable",
      "type": "function"
    },
    {
      "constant": false,
      "inputs": [],
      "name": "_unpause",
      "outputs": [],
      "payable": false,
      "stateMutability": "nonpayable",
      "type": "function"
    }
  ],
  "bytecode": "0x608060405234801561001057600080fd5b50336000806101000a81548173ffffffffffffffffffffffffffffffffffffffff021916908373ffffffffffffffffffffffffffffffffffffffff160217905550610bff806100606000396000f300608060405260043610610099576000357c0100000000000000000000000000000000000000000000000000000000900463ffffffff168063320b2ad91461009e5780633ccfd60b146100b557806340f42c1c146100cc5780635f7d53a11461010f57806378678a32146101525780638456cb5914610195578063e698f0bb146101c4578063f0e06e4a1461021b578063fc8234cb14610288575b600080fd5b3480156100aa57600080fd5b506100b361029f565b005b3480156100c157600080fd5b506100ca610365565b005b3480156100d857600080fd5b5061010d600480360381019080803573ffffffffffffffffffffffffffffffffffffffff169060200190929190505050610441565b005b34801561011b57600080fd5b50610150600480360381019080803573ffffffffffffffffffffffffffffffffffffffff16906020019092919050505061065a565b005b34801561015e57600080fd5b50610193600480360381019080803573ffffffffffffffffffffffffffffffffffffffff1690602001909291905050506107d7565b005b3480156101a157600080fd5b506101aa610aa0565b604051808215151515815260200191505060405180910390f35b3480156101d057600080fd5b506101d9610ab3565b604051808273ffffffffffffffffffffffffffffffffffffffff1673ffffffffffffffffffffffffffffffffffffffff16815260200191505060405180910390f35b34801561022757600080fd5b5061024660048036038101908080359060200190929190505050610ad8565b604051808273ffffffffffffffffffffffffffffffffffffffff1673ffffffffffffffffffffffffffffffffffffffff16815260200191505060405180910390f35b34801561029457600080fd5b5061029d610b0d565b005b6000809054906101000a900473ffffffffffffffffffffffffffffffffffffffff1673ffffffffffffffffffffffffffffffffffffffff163373ffffffffffffffffffffffffffffffffffffffff161415156102fa57600080fd5b60001515600760009054906101000a900460ff16151514151561031c57600080fd5b6001600760006101000a81548160ff0219169083151502179055507f6985a02210a168e66602d3235cb6db0e70f92b3ba4d376a33c0f3d9434bff62560405160405180910390a1565b6000809054906101000a900473ffffffffffffffffffffffffffffffffffffffff1673ffffffffffffffffffffffffffffffffffffffff163373ffffffffffffffffffffffffffffffffffffffff161415156103c057600080fd5b6000809054906101000a900473ffffffffffffffffffffffffffffffffffffffff1673ffffffffffffffffffffffffffffffffffffffff166108fc3073ffffffffffffffffffffffffffffffffffffffff16319081150290604051600060405180830381858888f1935050505015801561043e573d6000803e3d6000fd5b50565b6000806000809054906101000a900473ffffffffffffffffffffffffffffffffffffffff1673ffffffffffffffffffffffffffffffffffffffff163373ffffffffffffffffffffffffffffffffffffffff1614151561049f57600080fd5b60001515600760009054906101000a900460ff1615151415156104c157600080fd5b60009150600090505b600481111580156104df575060001515821515145b15610645578273ffffffffffffffffffffffffffffffffffffffff1660018260058110151561050a57fe5b0160009054906101000a900473ffffffffffffffffffffffffffffffffffffffff1673ffffffffffffffffffffffffffffffffffffffff16141561063857600060018260058110151561055957fe5b0160006101000a81548173ffffffffffffffffffffffffffffffffffffffff021916908373ffffffffffffffffffffffffffffffffffffffff1602179055506000600660008573ffffffffffffffffffffffffffffffffffffffff1673ffffffffffffffffffffffffffffffffffffffff16815260200190815260200160002060006101000a81548160ff021916908315150217905550600191508273ffffffffffffffffffffffffffffffffffffffff167fdca59b6371f7db6faad5c9931588f735722795c7b8ea859824e0afc8b2c70a4f60405160405180910390a25b80806001019150506104ca565b6001151582151514151561065557fe5b505050565b60008060009054906101000a900473ffffffffffffffffffffffffffffffffffffffff1673ffffffffffffffffffffffffffffffffffffffff163373ffffffffffffffffffffffffffffffffffffffff161415156106b757600080fd5b60001515600760009054906101000a900460ff1615151415156106d957600080fd5b600073ffffffffffffffffffffffffffffffffffffffff168273ffffffffffffffffffffffffffffffffffffffff161415151561071557600080fd5b6000809054906101000a900473ffffffffffffffffffffffffffffffffffffffff169050816000806101000a81548173ffffffffffffffffffffffffffffffffffffffff021916908373ffffffffffffffffffffffffffffffffffffffff1602179055508073ffffffffffffffffffffffffffffffffffffffff168273ffffffffffffffffffffffffffffffffffffffff167f1f8d7d25344642d919d55999e4664aa452a5f424bc0936ceb9c2b300db7dcbd960405160405180910390a35050565b60008060008060009054906101000a900473ffffffffffffffffffffffffffffffffffffffff1673ffffffffffffffffffffffffffffffffffffffff163373ffffffffffffffffffffffffffffffffffffffff1614151561083757600080fd5b60001515600760009054906101000a900460ff16151514151561085957600080fd5b600073ffffffffffffffffffffffffffffffffffffffff168473ffffffffffffffffffffffffffffffffffffffff161415151561089557600080fd5b5b600483111515610920578373ffffffffffffffffffffffffffffffffffffffff166001846005811015156108c657fe5b0160009054906101000a900473ffffffffffffffffffffffffffffffffffffffff1673ffffffffffffffffffffffffffffffffffffffff161415610915576002600114151561091457600080fd5b5b826001019250610896565b600091505b6004811115801561093a575060001515821515145b15610a8a57600060018260058110151561095057fe5b0160009054906101000a900473ffffffffffffffffffffffffffffffffffffffff1673ffffffffffffffffffffffffffffffffffffffff161415610a7d578360018260058110151561099e57fe5b0160006101000a81548173ffffffffffffffffffffffffffffffffffffffff021916908373ffffffffffffffffffffffffffffffffffffffff1602179055506001600660008673ffffffffffffffffffffffffffffffffffffffff1673ffffffffffffffffffffffffffffffffffffffff16815260200190815260200160002060006101000a81548160ff021916908315150217905550600191508373ffffffffffffffffffffffffffffffffffffffff167f39e7d4b9ba48f55a740a5192809dbc498fa12724c030b37dab126a3f6774c0f360405160405180910390a25b8080600101915050610925565b60011515821515141515610a9a57fe5b50505050565b600760009054906101000a900460ff1681565b6000809054906101000a900473ffffffffffffffffffffffffffffffffffffffff1681565b600181600581101515610ae757fe5b016000915054906101000a900473ffffffffffffffffffffffffffffffffffffffff1681565b6000809054906101000a900473ffffffffffffffffffffffffffffffffffffffff1673ffffffffffffffffffffffffffffffffffffffff163373ffffffffffffffffffffffffffffffffffffffff16141515610b6857600080fd5b60011515600760009054906101000a900460ff161515141515610b8a57600080fd5b6000600760006101000a81548160ff0219169083151502179055507f7805862f689e2f13df9f062ff482ad3ad112aca9e0847911ed832e158c525b3360405160405180910390a15600a165627a7a723058209da1e9c99b16b803535db766ee71b3ef85ecb003ef67b8fde4980b240a1d7d700029",
  "source": "pragma solidity ^0.4.24;\n\n/**\n  * @dev Base contract which controls accessibility for both the Maats Network\n  * of stores and the stores themselves. This contract also implements an\n  * emergency stop using pausible functions and methods to restrain access to\n  * dangerous functions in the case of a malicious event. The puasable nature\n  * of the contract is also important for implementing upgradeability.\n  */\n\ncontract StoreAccessControl{\n\n  // Define the network owner\n  address public maatsOwner;\n\n  event LogNewOwner(address indexed previousOwner,address indexed newOwner);\n  event LogNewAdmin(address indexed newAdmin);\n  event LogAdminRevoked(address indexed revokedAdmin);\n\n  /// @dev There are at most 5 admins managing the Maats Network\n  address[5] public maatsAdmins;\n\n  /// @dev Determine if an address is a network admin\n  mapping (address => bool) isMaatsAdmin;\n\n  /// @dev Limit function access to the owner of the Maats Network\n  modifier onlyMaatsOwner() {\n    require(msg.sender == maatsOwner);\n    _;\n  }\n\n  /// @dev Limit function access to only admins, owner NOT inclueded\n  modifier onlyMaatsAdmin(){\n    require(isMaatsAdmin[msg.sender] == true);\n    _;\n  }\n\n  /// @dev Access provided to both the owner and the admins of the network\n  modifier onlyMaatsLeadership(){\n    require(\n      msg.sender == maatsOwner ||\n      isMaatsAdmin[msg.sender] == true\n      );\n    _;\n  }\n\n  /// @dev Constructor simply sets the owner of Maats Network\n  constructor() public {\n    maatsOwner = msg.sender;\n  }\n\n  /// @dev allow the current owner to transfer their ownership\n  /// @param _newOwner the address which will then have ownership over Maats\n  function setMaatsOwner(address _newOwner) public onlyMaatsOwner whenNotPaused{\n    require(_newOwner != address(0));\n    address oldOwner = maatsOwner;\n    maatsOwner = _newOwner;\n\n    // Let everyone know who transfered their ownership to whom.\n    emit LogNewOwner(_newOwner, oldOwner);\n  }\n\n  /// @dev Only the owner can create a new network admin. Require's that the\n  /// address isn't already an admin and that it isn't equal to 0.\n  /// @param _newAdmin The address being added as an admin\n  function createMaatsAdmin(address _newAdmin) public onlyMaatsOwner whenNotPaused{\n    require(_newAdmin != address(0));\n\n    for(uint i; i<=4; ++i){\n      if (maatsAdmins[i] == _newAdmin){require(1 == 2);}\n    }\n\n    // Ensure there is space for the new admin\n    bool space = false;\n    for (uint j; j <=4 && space == false; j++){\n      if(maatsAdmins[j] == 0){\n        maatsAdmins[j] = _newAdmin;\n        isMaatsAdmin[_newAdmin] =true;\n        space = true;\n        emit LogNewAdmin(_newAdmin);\n      }\n    }\n    // Throw if there were already 5 maatsAdmins to avoid silent failure\n    assert(space == true);\n  }\n\n  /// @dev The owner can remove an admin for any reason. The function iterates\n  /// through the array until the address is found and removed. The array\n  /// doesn't need to be restructured because the order of admins is insignificant\n  /// @param _revokedAdmin The address being removed as an admin\n  function removeMaatsAdmin(address _revokedAdmin) public onlyMaatsOwner whenNotPaused{\n    bool removed = false;\n    for (uint i= 0; i <=4 && removed == false; i++){\n      if(maatsAdmins[i] == _revokedAdmin){\n        maatsAdmins[i] = 0;\n        isMaatsAdmin[_revokedAdmin] = false;\n        removed = true;\n        emit LogAdminRevoked(_revokedAdmin);\n      }\n    }\n    // Throws if the address isn't in the admins array to avoid silent failure\n    assert(removed == true);\n  }\n\n  /// @dev Pull withdraw from contract. There isn't a payment method but doneations\n  /// are accepted. Only the owner can withdraw the funds.\n  function withdraw() external onlyMaatsOwner{\n    maatsOwner.transfer(address(this).balance);\n  }\n\n  /// @dev Modified version of OpenZeppelin's Pausable to match Maat's accessibility\n  /// Pausable is used as to enable emergency stops as well as safe upgrading of contracts\n  event Pause();\n  event Unpause();\n\n  /// @dev pause will be set to true in Core constructor. The owner must\n  /// unpause the contracts after deployment to ensure proper connection with\n  /// the proxy contract and the escrow contracts to which the contract linked.\n  bool public pause;\n\n  /// @dev Controls functions to ensure they can't be accessed if the owner\n  /// pauses the contract.\n  modifier whenNotPaused(){\n    require(pause == false);\n    _;\n  }\n\n  /// @dev Certain functions should only be accessible when the contract is paused\n  modifier whenPaused(){\n    require(pause == true);\n    _;\n  }\n\n  /// @dev Only the owner can pause the contract when it isn't already paused\n  function _pause() onlyMaatsOwner whenNotPaused public{\n    pause = true;\n    emit Pause();\n  }\n  \n  /// @dev Only the owner can unpause the contract when its currently paused.\n  function _unpause() onlyMaatsOwner whenPaused public{\n    pause = false;\n    emit Unpause();\n  }\n\n\n}\n",
  "sourcePath": "/Users/ericbrown/Documents/Blockchain/ConsenSysCourse/GitHub/Maats/contracts/StoreAccessControl.sol",
  "compiler": {
    "name": "solc",
    "version": "0.4.24+commit.e67f0147.Emscripten.clang"
  },
  "schemaVersion": "2.0.1",
  "updatedAt": "2018-08-27T02:56:40.394Z"
}