{
  "contractName": "StoreManagement",
  "abi": [
    {
      "constant": false,
      "inputs": [],
      "name": "_pause",
      "outputs": [],
      "payable": false,
      "stateMutability": "nonpayable",
      "type": "function"
    },
    {
      "constant": false,
      "inputs": [],
      "name": "withdraw",
      "outputs": [],
      "payable": false,
      "stateMutability": "nonpayable",
      "type": "function"
    },
    {
      "constant": false,
      "inputs": [
        {
          "name": "_revokedAdmin",
          "type": "address"
        }
      ],
      "name": "removeMaatsAdmin",
      "outputs": [],
      "payable": false,
      "stateMutability": "nonpayable",
      "type": "function"
    },
    {
      "constant": false,
      "inputs": [
        {
          "name": "_newOwner",
          "type": "address"
        }
      ],
      "name": "setMaatsOwner",
      "outputs": [],
      "payable": false,
      "stateMutability": "nonpayable",
      "type": "function"
    },
    {
      "constant": false,
      "inputs": [
        {
          "name": "_newAdmin",
          "type": "address"
        }
      ],
      "name": "createMaatsAdmin",
      "outputs": [],
      "payable": false,
      "stateMutability": "nonpayable",
      "type": "function"
    },
    {
      "constant": false,
      "inputs": [
        {
          "name": "_storeName",
          "type": "string"
        }
      ],
      "name": "removeStoreOwner",
      "outputs": [],
      "payable": false,
      "stateMutability": "nonpayable",
      "type": "function"
    },
    {
      "constant": true,
      "inputs": [],
      "name": "pause",
      "outputs": [
        {
          "name": "",
          "type": "bool"
        }
      ],
      "payable": false,
      "stateMutability": "view",
      "type": "function"
    },
    {
      "constant": true,
      "inputs": [
        {
          "name": "",
          "type": "address"
        }
      ],
      "name": "OwnerToStoreId",
      "outputs": [
        {
          "name": "",
          "type": "uint256"
        }
      ],
      "payable": false,
      "stateMutability": "view",
      "type": "function"
    },
    {
      "constant": true,
      "inputs": [],
      "name": "currentStoreCount",
      "outputs": [
        {
          "name": "",
          "type": "uint256"
        }
      ],
      "payable": false,
      "stateMutability": "view",
      "type": "function"
    },
    {
      "constant": true,
      "inputs": [],
      "name": "maatsOwner",
      "outputs": [
        {
          "name": "",
          "type": "address"
        }
      ],
      "payable": false,
      "stateMutability": "view",
      "type": "function"
    },
    {
      "constant": true,
      "inputs": [
        {
          "name": "",
          "type": "uint256"
        }
      ],
      "name": "maatsAdmins",
      "outputs": [
        {
          "name": "",
          "type": "address"
        }
      ],
      "payable": false,
      "stateMutability": "view",
      "type": "function"
    },
    {
      "constant": false,
      "inputs": [
        {
          "name": "_newOwner",
          "type": "address"
        },
        {
          "name": "_storeName",
          "type": "string"
        }
      ],
      "name": "createStore",
      "outputs": [
        {
          "name": "",
          "type": "string"
        }
      ],
      "payable": false,
      "stateMutability": "nonpayable",
      "type": "function"
    },
    {
      "constant": false,
      "inputs": [],
      "name": "_unpause",
      "outputs": [],
      "payable": false,
      "stateMutability": "nonpayable",
      "type": "function"
    },
    {
      "anonymous": false,
      "inputs": [
        {
          "indexed": false,
          "name": "_productId",
          "type": "uint8"
        },
        {
          "indexed": true,
          "name": "_storeName",
          "type": "string"
        }
      ],
      "name": "LogNewSetPriceProduct",
      "type": "event"
    },
    {
      "anonymous": false,
      "inputs": [
        {
          "indexed": true,
          "name": "_productId",
          "type": "uint8"
        },
        {
          "indexed": false,
          "name": "inventory",
          "type": "uint64"
        }
      ],
      "name": "LogAddedInventory",
      "type": "event"
    },
    {
      "anonymous": false,
      "inputs": [
        {
          "indexed": true,
          "name": "_ownerAddress",
          "type": "address"
        },
        {
          "indexed": true,
          "name": "_storeName",
          "type": "string"
        }
      ],
      "name": "LogProductRemoved",
      "type": "event"
    },
    {
      "anonymous": false,
      "inputs": [
        {
          "indexed": true,
          "name": "_productId",
          "type": "uint8"
        },
        {
          "indexed": true,
          "name": "_storeName",
          "type": "string"
        },
        {
          "indexed": false,
          "name": "_newPrice",
          "type": "uint72"
        }
      ],
      "name": "LogPriceChange",
      "type": "event"
    },
    {
      "anonymous": false,
      "inputs": [
        {
          "indexed": true,
          "name": "_ownerAddress",
          "type": "address"
        },
        {
          "indexed": true,
          "name": "_newStoreName",
          "type": "string"
        }
      ],
      "name": "LogNewStore",
      "type": "event"
    },
    {
      "anonymous": false,
      "inputs": [
        {
          "indexed": true,
          "name": "_storeOwnerAddress",
          "type": "address"
        }
      ],
      "name": "LogNewStoreOwner",
      "type": "event"
    },
    {
      "anonymous": false,
      "inputs": [
        {
          "indexed": true,
          "name": "_storeOwner",
          "type": "address"
        }
      ],
      "name": "LogStoreOwnerRemoved",
      "type": "event"
    },
    {
      "anonymous": false,
      "inputs": [
        {
          "indexed": true,
          "name": "_ownerAddress",
          "type": "address"
        }
      ],
      "name": "LogStoreClosed",
      "type": "event"
    },
    {
      "anonymous": false,
      "inputs": [
        {
          "indexed": true,
          "name": "previousOwner",
          "type": "address"
        },
        {
          "indexed": true,
          "name": "newOwner",
          "type": "address"
        }
      ],
      "name": "LogNewOwner",
      "type": "event"
    },
    {
      "anonymous": false,
      "inputs": [
        {
          "indexed": true,
          "name": "newAdmin",
          "type": "address"
        }
      ],
      "name": "LogNewAdmin",
      "type": "event"
    },
    {
      "anonymous": false,
      "inputs": [
        {
          "indexed": true,
          "name": "revokedAdmin",
          "type": "address"
        }
      ],
      "name": "LogAdminRevoked",
      "type": "event"
    },
    {
      "anonymous": false,
      "inputs": [],
      "name": "Pause",
      "type": "event"
    },
    {
      "anonymous": false,
      "inputs": [],
      "name": "Unpause",
      "type": "event"
    },
    {
      "constant": false,
      "inputs": [
        {
          "name": "_NewAdminAddress",
          "type": "address"
        }
      ],
      "name": "createStoreAdmin",
      "outputs": [],
      "payable": false,
      "stateMutability": "nonpayable",
      "type": "function"
    },
    {
      "constant": false,
      "inputs": [
        {
          "name": "_adminAddress",
          "type": "address"
        }
      ],
      "name": "removeStoreAdmin",
      "outputs": [],
      "payable": false,
      "stateMutability": "nonpayable",
      "type": "function"
    },
    {
      "constant": false,
      "inputs": [
        {
          "name": "_price",
          "type": "uint72"
        },
        {
          "name": "_inventory",
          "type": "uint64"
        }
      ],
      "name": "createSetPriceProduct",
      "outputs": [
        {
          "name": "_productId",
          "type": "uint8"
        }
      ],
      "payable": false,
      "stateMutability": "nonpayable",
      "type": "function"
    },
    {
      "constant": false,
      "inputs": [
        {
          "name": "_productId",
          "type": "uint8"
        },
        {
          "name": "_newInventory",
          "type": "uint64"
        }
      ],
      "name": "addInventory",
      "outputs": [
        {
          "name": "",
          "type": "uint64"
        }
      ],
      "payable": false,
      "stateMutability": "nonpayable",
      "type": "function"
    },
    {
      "constant": false,
      "inputs": [
        {
          "name": "_newPrice",
          "type": "uint72"
        },
        {
          "name": "_productId",
          "type": "uint8"
        }
      ],
      "name": "changePrice",
      "outputs": [
        {
          "name": "",
          "type": "uint72"
        }
      ],
      "payable": false,
      "stateMutability": "nonpayable",
      "type": "function"
    }
  ],
  "bytecode": "0x60806040526001600855336000806101000a81548173ffffffffffffffffffffffffffffffffffffffff021916908373ffffffffffffffffffffffffffffffffffffffff160217905550612743806100586000396000f3006080604052600436106100fc576000357c0100000000000000000000000000000000000000000000000000000000900463ffffffff168063320b2ad9146101015780633ccfd60b1461011857806340f42c1c1461012f5780635f7d53a11461017257806378678a32146101b5578063803360b6146101f85780638456cb59146102615780639024b8c5146102905780639bf474b5146102ff578063a075a5b11461036b578063bcddcfb2146103c2578063bdc39f48146103ed578063e698f0bb14610430578063f0e06e4a14610487578063f6a99e4c146104f4578063fc8234cb146105f6578063fd8f49a51461060d578063fde57f3b14610673575b600080fd5b34801561010d57600080fd5b506101166106b6565b005b34801561012457600080fd5b5061012d61077c565b005b34801561013b57600080fd5b50610170600480360381019080803573ffffffffffffffffffffffffffffffffffffffff169060200190929190505050610858565b005b34801561017e57600080fd5b506101b3600480360381019080803573ffffffffffffffffffffffffffffffffffffffff169060200190929190505050610a71565b005b3480156101c157600080fd5b506101f6600480360381019080803573ffffffffffffffffffffffffffffffffffffffff169060200190929190505050610bee565b005b34801561020457600080fd5b5061025f600480360381019080803590602001908201803590602001908080601f0160208091040260200160405190810160405280939291908181526020018383808284378201915050505050509192919290505050610eb7565b005b34801561026d57600080fd5b5061027661122d565b604051808215151515815260200191505060405180910390f35b34801561029c57600080fd5b506102d3600480360381019080803568ffffffffffffffffff169060200190929190803560ff169060200190929190505050611240565b604051808268ffffffffffffffffff1668ffffffffffffffffff16815260200191505060405180910390f35b34801561030b57600080fd5b50610341600480360381019080803560ff169060200190929190803567ffffffffffffffff1690602001909291905050506113b7565b604051808267ffffffffffffffff1667ffffffffffffffff16815260200191505060405180910390f35b34801561037757600080fd5b506103ac600480360381019080803573ffffffffffffffffffffffffffffffffffffffff1690602001909291905050506116d0565b6040518082815260200191505060405180910390f35b3480156103ce57600080fd5b506103d76116e8565b6040518082815260200191505060405180910390f35b3480156103f957600080fd5b5061042e600480360381019080803573ffffffffffffffffffffffffffffffffffffffff1690602001909291905050506116ee565b005b34801561043c57600080fd5b506104456118ee565b604051808273ffffffffffffffffffffffffffffffffffffffff1673ffffffffffffffffffffffffffffffffffffffff16815260200191505060405180910390f35b34801561049357600080fd5b506104b260048036038101908080359060200190929190505050611913565b604051808273ffffffffffffffffffffffffffffffffffffffff1673ffffffffffffffffffffffffffffffffffffffff16815260200191505060405180910390f35b34801561050057600080fd5b5061057b600480360381019080803573ffffffffffffffffffffffffffffffffffffffff169060200190929190803590602001908201803590602001908080601f0160208091040260200160405190810160405280939291908181526020018383808284378201915050505050509192919290505050611948565b6040518080602001828103825283818151815260200191508051906020019080838360005b838110156105bb5780820151818401526020810190506105a0565b50505050905090810190601f1680156105e85780820380516001836020036101000a031916815260200191505b509250505060405180910390f35b34801561060257600080fd5b5061060b611dca565b005b34801561061957600080fd5b50610657600480360381019080803568ffffffffffffffffff169060200190929190803567ffffffffffffffff169060200190929190505050611e90565b604051808260ff1660ff16815260200191505060405180910390f35b34801561067f57600080fd5b506106b4600480360381019080803573ffffffffffffffffffffffffffffffffffffffff1690602001909291905050506121af565b005b6000809054906101000a900473ffffffffffffffffffffffffffffffffffffffff1673ffffffffffffffffffffffffffffffffffffffff163373ffffffffffffffffffffffffffffffffffffffff1614151561071157600080fd5b60001515600760009054906101000a900460ff16151514151561073357600080fd5b6001600760006101000a81548160ff0219169083151502179055507f6985a02210a168e66602d3235cb6db0e70f92b3ba4d376a33c0f3d9434bff62560405160405180910390a1565b6000809054906101000a900473ffffffffffffffffffffffffffffffffffffffff1673ffffffffffffffffffffffffffffffffffffffff163373ffffffffffffffffffffffffffffffffffffffff161415156107d757600080fd5b6000809054906101000a900473ffffffffffffffffffffffffffffffffffffffff1673ffffffffffffffffffffffffffffffffffffffff166108fc3073ffffffffffffffffffffffffffffffffffffffff16319081150290604051600060405180830381858888f19350505050158015610855573d6000803e3d6000fd5b50565b6000806000809054906101000a900473ffffffffffffffffffffffffffffffffffffffff1673ffffffffffffffffffffffffffffffffffffffff163373ffffffffffffffffffffffffffffffffffffffff161415156108b657600080fd5b60001515600760009054906101000a900460ff1615151415156108d857600080fd5b60009150600090505b600481111580156108f6575060001515821515145b15610a5c578273ffffffffffffffffffffffffffffffffffffffff1660018260058110151561092157fe5b0160009054906101000a900473ffffffffffffffffffffffffffffffffffffffff1673ffffffffffffffffffffffffffffffffffffffff161415610a4f57600060018260058110151561097057fe5b0160006101000a81548173ffffffffffffffffffffffffffffffffffffffff021916908373ffffffffffffffffffffffffffffffffffffffff1602179055506000600660008573ffffffffffffffffffffffffffffffffffffffff1673ffffffffffffffffffffffffffffffffffffffff16815260200190815260200160002060006101000a81548160ff021916908315150217905550600191508273ffffffffffffffffffffffffffffffffffffffff167fdca59b6371f7db6faad5c9931588f735722795c7b8ea859824e0afc8b2c70a4f60405160405180910390a25b80806001019150506108e1565b60011515821515141515610a6c57fe5b505050565b60008060009054906101000a900473ffffffffffffffffffffffffffffffffffffffff1673ffffffffffffffffffffffffffffffffffffffff163373ffffffffffffffffffffffffffffffffffffffff16141515610ace57600080fd5b60001515600760009054906101000a900460ff161515141515610af057600080fd5b600073ffffffffffffffffffffffffffffffffffffffff168273ffffffffffffffffffffffffffffffffffffffff1614151515610b2c57600080fd5b6000809054906101000a900473ffffffffffffffffffffffffffffffffffffffff169050816000806101000a81548173ffffffffffffffffffffffffffffffffffffffff021916908373ffffffffffffffffffffffffffffffffffffffff1602179055508073ffffffffffffffffffffffffffffffffffffffff168273ffffffffffffffffffffffffffffffffffffffff167f1f8d7d25344642d919d55999e4664aa452a5f424bc0936ceb9c2b300db7dcbd960405160405180910390a35050565b60008060008060009054906101000a900473ffffffffffffffffffffffffffffffffffffffff1673ffffffffffffffffffffffffffffffffffffffff163373ffffffffffffffffffffffffffffffffffffffff16141515610c4e57600080fd5b60001515600760009054906101000a900460ff161515141515610c7057600080fd5b600073ffffffffffffffffffffffffffffffffffffffff168473ffffffffffffffffffffffffffffffffffffffff1614151515610cac57600080fd5b5b600483111515610d37578373ffffffffffffffffffffffffffffffffffffffff16600184600581101515610cdd57fe5b0160009054906101000a900473ffffffffffffffffffffffffffffffffffffffff1673ffffffffffffffffffffffffffffffffffffffff161415610d2c5760026001141515610d2b57600080fd5b5b826001019250610cad565b600091505b60048111158015610d51575060001515821515145b15610ea1576000600182600581101515610d6757fe5b0160009054906101000a900473ffffffffffffffffffffffffffffffffffffffff1673ffffffffffffffffffffffffffffffffffffffff161415610e945783600182600581101515610db557fe5b0160006101000a81548173ffffffffffffffffffffffffffffffffffffffff021916908373ffffffffffffffffffffffffffffffffffffffff1602179055506001600660008673ffffffffffffffffffffffffffffffffffffffff1673ffffffffffffffffffffffffffffffffffffffff16815260200190815260200160002060006101000a81548160ff021916908315150217905550600191508373ffffffffffffffffffffffffffffffffffffffff167f39e7d4b9ba48f55a740a5192809dbc498fa12724c030b37dab126a3f6774c0f360405160405180910390a25b8080600101915050610d3c565b60011515821515141515610eb157fe5b50505050565b6000806000809054906101000a900473ffffffffffffffffffffffffffffffffffffffff1673ffffffffffffffffffffffffffffffffffffffff163373ffffffffffffffffffffffffffffffffffffffff161480610f65575060011515600660003373ffffffffffffffffffffffffffffffffffffffff1673ffffffffffffffffffffffffffffffffffffffff16815260200190815260200160002060009054906101000a900460ff161515145b1515610f7057600080fd5b600b836040518082805190602001908083835b602083101515610fa85780518252602082019150602081019050602083039250610f83565b6001836020036101000a038019825116818451168082178552505050505050905001915050908152602001604051809103902060009054906101000a900473ffffffffffffffffffffffffffffffffffffffff1691506000600a60008473ffffffffffffffffffffffffffffffffffffffff1673ffffffffffffffffffffffffffffffffffffffff168152602001908152602001600020541415151561104d57600080fd5b6000600c846040518082805190602001908083835b6020831015156110875780518252602082019150602081019050602083039250611062565b6001836020036101000a038019825116818451168082178552505050505050905001915050908152602001604051809103902060006101000a81548160ff021916908315150217905550600a60008373ffffffffffffffffffffffffffffffffffffffff1673ffffffffffffffffffffffffffffffffffffffff168152602001908152602001600020549050600960008281526020019081526020016000206000808201600061113791906123c6565b6006820160006101000a81549060ff021916905560078201600061115b91906123d9565b50508173ffffffffffffffffffffffffffffffffffffffff167f99834834070224a7bc8eee507b8f041592b6cd80dd705f79f81b42487b0b460d60405160405180910390a26000600a60008473ffffffffffffffffffffffffffffffffffffffff1673ffffffffffffffffffffffffffffffffffffffff168152602001908152602001600020819055508173ffffffffffffffffffffffffffffffffffffffff167fe6547a945aa917d8f8b8a71a98062b03570c5ab79d6f47aa64dab5ae6483e0c860405160405180910390a2505050565b600760009054906101000a900460ff1681565b600080600080600a60003373ffffffffffffffffffffffffffffffffffffffff1673ffffffffffffffffffffffffffffffffffffffff168152602001908152602001600020541415151561129357600080fd5b60001515600760009054906101000a900460ff1615151415156112b557600080fd5b600a60003373ffffffffffffffffffffffffffffffffffffffff1673ffffffffffffffffffffffffffffffffffffffff16815260200190815260200160002054915060096000838152602001908152602001600020905060008568ffffffffffffffffff161015151561132757600080fd5b600015158160080160008660ff1660ff16815260200190815260200160002060010160119054906101000a900460ff16151514151561136557600080fd5b848160080160008660ff1660ff16815260200190815260200160002060010160006101000a81548168ffffffffffffffffff021916908368ffffffffffffffffff160217905550849250505092915050565b6000806000806000806000600d60003373ffffffffffffffffffffffffffffffffffffffff1673ffffffffffffffffffffffffffffffffffffffff168152602001908152602001600020541415151561140f57600080fd5b60001515600760009054906101000a900460ff16151514151561143157600080fd5b6101f48767ffffffffffffffff161115151561144c57600080fd5b600d60003373ffffffffffffffffffffffffffffffffffffffff1673ffffffffffffffffffffffffffffffffffffffff1681526020019081526020016000205494506009600086815260200190815260200160002093508360080160008960ff1660ff16815260200190815260200160002060010160099054906101000a900467ffffffffffffffff169250677fffffffffffffff87840167ffffffffffffffff161015156114fa57600080fd5b8683018460080160008a60ff1660ff16815260200190815260200160002060010160096101000a81548167ffffffffffffffff021916908367ffffffffffffffff1602179055508360080160008960ff1660ff16815260200190815260200160002060010160119054906101000a900460ff1691506000151582151514151561158257600080fd5b5b8667ffffffffffffffff1681101561160f578360080160008960ff1660ff1681526020019081526020016000206000016000908060018154018082558091505090600182039060005260206000209060209182820401919006909192909190916101000a81548160ff021916908360038111156115fc57fe5b0217905550508080600101915050611583565b8760ff167fcd54f669064af9fb6802bd64bd9ae5303d604527aec88e9024bc9517c945fab78560080160008b60ff1660ff16815260200190815260200160002060010160099054906101000a900467ffffffffffffffff16604051808267ffffffffffffffff1667ffffffffffffffff16815260200191505060405180910390a28360080160008960ff1660ff16815260200190815260200160002060010160099054906101000a900467ffffffffffffffff169550505050505092915050565b600a6020528060005260406000206000915090505481565b60085481565b60008060008060001515600760009054906101000a900460ff16151514151561171657600080fd5b6000600a60003373ffffffffffffffffffffffffffffffffffffffff1673ffffffffffffffffffffffffffffffffffffffff168152602001908152602001600020541415151561176557600080fd5b600a60003373ffffffffffffffffffffffffffffffffffffffff1673ffffffffffffffffffffffffffffffffffffffff16815260200190815260200160002054935060096000858152602001908152602001600020925060009150600190505b600581111580156117da575060001515821515145b156118d757600083600001826006811015156117f257fe5b0160009054906101000a900473ffffffffffffffffffffffffffffffffffffffff1673ffffffffffffffffffffffffffffffffffffffff1614156118ca576001915084836000018260068110151561184657fe5b0160006101000a81548173ffffffffffffffffffffffffffffffffffffffff021916908373ffffffffffffffffffffffffffffffffffffffff16021790555083600d60008773ffffffffffffffffffffffffffffffffffffffff1673ffffffffffffffffffffffffffffffffffffffff168152602001908152602001600020819055505b80806001019150506117c5565b600115158215151415156118e757fe5b5050505050565b6000809054906101000a900473ffffffffffffffffffffffffffffffffffffffff1681565b60018160058110151561192257fe5b016000915054906101000a900473ffffffffffffffffffffffffffffffffffffffff1681565b6060611952612421565b61195a612444565b6000809054906101000a900473ffffffffffffffffffffffffffffffffffffffff1673ffffffffffffffffffffffffffffffffffffffff163373ffffffffffffffffffffffffffffffffffffffff161480611a05575060011515600660003373ffffffffffffffffffffffffffffffffffffffff1673ffffffffffffffffffffffffffffffffffffffff16815260200190815260200160002060009054906101000a900460ff161515145b1515611a1057600080fd5b60001515600760009054906101000a900460ff161515141515611a3257600080fd5b6000600a60008773ffffffffffffffffffffffffffffffffffffffff1673ffffffffffffffffffffffffffffffffffffffff16815260200190815260200160002054141515611a8057600080fd5b60001515600c856040518082805190602001908083835b602083101515611abc5780518252602082019150602081019050602083039250611a97565b6001836020036101000a038019825116818451168082178552505050505050905001915050908152602001604051809103902060009054906101000a900460ff161515141515611b0b57600080fd5b606060405190810160405280838152602001600060ff168152602001858152509050600854600a60008773ffffffffffffffffffffffffffffffffffffffff1673ffffffffffffffffffffffffffffffffffffffff16815260200190815260200160002081905550600854600d60008773ffffffffffffffffffffffffffffffffffffffff1673ffffffffffffffffffffffffffffffffffffffff1681526020019081526020016000208190555080600960006008548152602001908152602001600020600082015181600001906006611be6929190612470565b5060208201518160060160006101000a81548160ff021916908360ff1602179055506040820151816007019080519060200190611c249291906124ed565b5090505060086000815480929190600101919050555084600b82604001516040518082805190602001908083835b602083101515611c775780518252602082019150602081019050602083039250611c52565b6001836020036101000a038019825116818451168082178552505050505050905001915050908152602001604051809103902060006101000a81548173ffffffffffffffffffffffffffffffffffffffff021916908373ffffffffffffffffffffffffffffffffffffffff1602179055506001600c82604001516040518082805190602001908083835b602083101515611d265780518252602082019150602081019050602083039250611d01565b6001836020036101000a038019825116818451168082178552505050505050905001915050908152602001604051809103902060006101000a81548160ff0219169083151502179055508481600001516000600681101515611d8457fe5b602002019073ffffffffffffffffffffffffffffffffffffffff16908173ffffffffffffffffffffffffffffffffffffffff168152505080604001519250505092915050565b6000809054906101000a900473ffffffffffffffffffffffffffffffffffffffff1673ffffffffffffffffffffffffffffffffffffffff163373ffffffffffffffffffffffffffffffffffffffff16141515611e2557600080fd5b60011515600760009054906101000a900460ff161515141515611e4757600080fd5b6000600760006101000a81548160ff0219169083151502179055507f7805862f689e2f13df9f062ff482ad3ad112aca9e0847911ed832e158c525b3360405160405180910390a1565b6000806000611e9d61256d565b6000801515600760009054906101000a900460ff161515141515611ec057600080fd5b6000600d60003373ffffffffffffffffffffffffffffffffffffffff1673ffffffffffffffffffffffffffffffffffffffff1681526020019081526020016000205414151515611f0f57600080fd5b6101f48667ffffffffffffffff1611151515611f2a57600080fd5b600d60003373ffffffffffffffffffffffffffffffffffffffff1673ffffffffffffffffffffffffffffffffffffffff1681526020019081526020016000205493506009600085815260200190815260200160002092506101008360060160009054906101000a900460ff1660ff16101515611fa557600080fd5b6080604051908101604052806000604051908082528060200260200182016040528015611fe15781602001602082028038833980820191505090505b5081526020018868ffffffffffffffffff1681526020018767ffffffffffffffff1681526020016000151581525091508260060160009054906101000a900460ff169450818360080160008760ff1660ff168152602001908152602001600020600082015181600001908051906020019061205d9291906125ad565b5060208201518160010160006101000a81548168ffffffffffffffffff021916908368ffffffffffffffffff16021790555060408201518160010160096101000a81548167ffffffffffffffff021916908367ffffffffffffffff16021790555060608201518160010160116101000a81548160ff02191690831515021790555090505082600601600081819054906101000a900460ff168092919060010191906101000a81548160ff021916908360ff160217905550505b8567ffffffffffffffff168110156121a2578260080160008660ff1660ff1681526020019081526020016000206000016000908060018154018082558091505090600182039060005260206000209060209182820401919006909192909190916101000a81548160ff0219169083600381111561218f57fe5b0217905550508080600101915050612116565b8494505050505092915050565b6000806000806000600a60003373ffffffffffffffffffffffffffffffffffffffff1673ffffffffffffffffffffffffffffffffffffffff168152602001908152602001600020541415151561220457600080fd5b60001515600760009054906101000a900460ff16151514151561222657600080fd5b600a60003373ffffffffffffffffffffffffffffffffffffffff1673ffffffffffffffffffffffffffffffffffffffff16815260200190815260200160002054935060096000858152602001908152602001600020925060009150600190505b6005811115801561229b575060001515821515145b156123af578473ffffffffffffffffffffffffffffffffffffffff1683600001826006811015156122c857fe5b0160009054906101000a900473ffffffffffffffffffffffffffffffffffffffff1673ffffffffffffffffffffffffffffffffffffffff1614156123a2576000836000018260068110151561231957fe5b0160006101000a81548173ffffffffffffffffffffffffffffffffffffffff021916908373ffffffffffffffffffffffffffffffffffffffff1602179055506000600d60008773ffffffffffffffffffffffffffffffffffffffff1673ffffffffffffffffffffffffffffffffffffffff16815260200190815260200160002081905550600191505b8080600101915050612286565b600115158215151415156123bf57fe5b5050505050565b5080600601906123d6919061265c565b50565b50805460018160011615610100020316600290046000825580601f106123ff575061241e565b601f01602090049060005260206000209081019061241d919061265c565b5b50565b60c060405190810160405280600690602082028038833980820191505090505090565b61010060405190810160405280612459612681565b8152602001600060ff168152602001606081525090565b82600681019282156124dc579160200282015b828111156124db5782518260006101000a81548173ffffffffffffffffffffffffffffffffffffffff021916908373ffffffffffffffffffffffffffffffffffffffff16021790555091602001919060010190612483565b5b5090506124e991906126a4565b5090565b828054600181600116156101000203166002900490600052602060002090601f016020900481019282601f1061252e57805160ff191683800117855561255c565b8280016001018555821561255c579182015b8281111561255b578251825591602001919060010190612540565b5b509050612569919061265c565b5090565b60806040519081016040528060608152602001600068ffffffffffffffffff168152602001600067ffffffffffffffff1681526020016000151581525090565b82805482825590600052602060002090601f0160209004810192821561264b5791602002820160005b8382111561261c57835183826101000a81548160ff021916908360038111156125fb57fe5b021790555092602001926001016020816000010492830192600103026125d6565b80156126495782816101000a81549060ff021916905560010160208160000104928301926001030261261c565b505b50905061265891906126e7565b5090565b61267e91905b8082111561267a576000816000905550600101612662565b5090565b90565b60c060405190810160405280600690602082028038833980820191505090505090565b6126e491905b808211156126e057600081816101000a81549073ffffffffffffffffffffffffffffffffffffffff0219169055506001016126aa565b5090565b90565b61271491905b8082111561271057600081816101000a81549060ff0219169055506001016126ed565b5090565b905600a165627a7a723058206b904283e86af60d28caa64e594a20d9c35e504edf3e50e74e3d2893cfad48a00029",
  "source": "pragma solidity ^0.4.24;\n\nimport \"./StoreBase.sol\";\n\n/** @dev Contract for storeOwner management. This includes product management,\n  * store closure by owner and store removal by owner. This contract also\n  * manages product inventory and specific instances of a product type.\n  */\ncontract StoreManagement is StoreBase{\n\n  /// @dev Emit when a product with set price is created.\n  event LogNewSetPriceProduct(uint8 _productId,string indexed _storeName);\n  /// @dev Emit when inventory of a product is increased.\n  event LogAddedInventory(uint8 indexed _productId,uint64 inventory);\n  /// @dev Emit when a product is no longer being sold\n  event LogProductRemoved(address indexed _ownerAddress,string indexed _storeName);\n  /// @dev Let the world know of price changes\n  event LogPriceChange(uint8 indexed _productId,string indexed _storeName,uint72 _newPrice);\n\n\n\n  /// @dev if they are an admin then mapping won't equal 0. Specific store\n  /// set within function\n  modifier onlyStoreAdmin(){\n    require(storeAdminToStoreId[msg.sender] !=0);\n    _;\n  }\n\n  /// @dev Uses store mappings to determine if the msg.sender is the owner.\n  modifier onlyStoreOwner(){\n    // if they have a store the mapping won't equal zero\n    require(OwnerToStoreId[msg.sender] != 0);\n    _;\n  }\n\n\n/*\n***** Store Admin Management *****\n*/\n\n  /// @dev Allow the store owner or its admins to add another admin to the store.\n  /// The function checks that the address isn't already an admin and ensures that\n  /// there aren't already admins. It starts at index 1 since index 0 is always\n  /// for the store owner.\n  /// @param _NewAdminAddress : address of the soon to be admin.\n  function createStoreAdmin(address _NewAdminAddress)\n  public\n  whenNotPaused\n  onlyStoreOwner{\n    // retrieve the store based off of who is calling.\n    uint storeId = OwnerToStoreId[msg.sender];\n    Store storage current = storeIdToStore[storeId];\n\n    bool adminCreated = false;\n    for(uint i=1; i <= 5 && adminCreated == false; i++){\n      if (current.storeAdmins[i] == 0){\n        adminCreated = true;\n        current.storeAdmins[i] = _NewAdminAddress;\n        storeAdminToStoreId[_NewAdminAddress] = storeId;\n      }\n    }\n    // This assert is used to prevent a silent failure of this function call\n    assert(adminCreated == true);\n\n  }\n\n  /// @dev This function removes an admin from the store. It can only be called\n  /// by the owner of the store. The admin array isn't restructured because\n  /// the order of admins is insignificant outside of the 0-index == owner.\n  /// @param _adminAddress : the address of the admin being removed.\n  function removeStoreAdmin(address _adminAddress)\n  public\n  onlyStoreOwner\n  whenNotPaused{\n    // get current store\n    uint storeId = OwnerToStoreId[msg.sender];\n    Store storage current = storeIdToStore[storeId];\n\n    bool adminRemoved = false;\n    uint i = 1;\n    // start at 1-index because the 0-index is reserved for the owner\n    for(; i<=5 && adminRemoved == false; i++){\n      if(current.storeAdmins[i] == _adminAddress){\n        current.storeAdmins[i] = 0;\n        storeAdminToStoreId[_adminAddress] = 0;\n        adminRemoved = true;\n      }\n    }\n\n    // want to sensure there isn't a silent failure of this function call.\n     assert(adminRemoved == true);\n\n  }\n\n/*\n****** Product Management *****\n*/\n\n  /// @dev This function creates a new product which is sold for a set price.\n  /// It is added to the products mapping for the store and can only be accessed\n  /// when the contract isn't paused. Security concerns are present if an\n  /// owner acts maliciously and attempts to add hundreds of products to slow\n  /// down Maats Network and cause errors\n  /// notice: immediately makes product forSale\n  /// @param _price : the price of the new product\n  /// @param _inventory : the initial inventory the store has on hand of the product\n  /// @return _productId : returns the key for the products mapping.\n  function createSetPriceProduct(\n    uint72 _price,\n    uint64 _inventory\n    )\n    public\n    whenNotPaused\n    onlyStoreAdmin\n    returns(uint8 _productId){\n\n      // Status of initial inventory set in a loop and we don't want to exceed\n      // the block gas limit\n      require(_inventory <= 500);\n\n      // fetch current store based off of the msg.sender\n      uint storeId = storeAdminToStoreId[msg.sender];\n      Store storage current = storeIdToStore[storeId];\n\n      // As of now, stores can't have more than 256 products due to the size\n      // of \"prodCount\"\n      require(current.prodCount < 256);\n\n      // the product will be stored in the products mapping as to avoid\n      // dissapearing during deallocation of local memory variables.\n      Product memory _product = Product({\n        price: _price,\n        items: new ItemStatus[](0),\n        inventory: _inventory,\n        auction: false\n        });\n\n      // The identifier for a product is equal to the current count of products\n      // before this product was created. It is then added to the mapping and\n      // the count of total products in the store is incremented.\n      _productId = current.prodCount;\n      current.products[_productId] = _product;\n      current.prodCount++;\n\n      // fill the items array with initial inventory and set to ForSale\n      for(uint i; i <_inventory; i++){\n        current.products[_productId].items.push(ItemStatus.ForSale);\n      }\n\n      return(_productId);\n    }\n\n\n  /// @dev Add inventory to a product and manage inventory variables.\n  /// notice Added inventory for set-price becomes for sale immediatley\n  /// Can't add inventory for auctions, new product created instead\n  /// @param _productId : the product type which is getting new inventory\n  /// @param _newInventory : the amount of new inventory being added\n  /// @return current.products[_productId].inventory : the now total inventory\n  function addInventory(uint8 _productId,uint64 _newInventory)\n    public\n    onlyStoreAdmin\n    whenNotPaused\n    returns(uint64){\n      // Security since the _newInventory variable runs a for loop and we need\n      // to stay under the block gas limit\n      require(_newInventory <= 500);\n      // fetch current store based off of msg.sender\n      uint storeId = storeAdminToStoreId[msg.sender];\n      Store storage current = storeIdToStore[storeId];\n      // add the new inventory to the current amount of inventory\n      uint64 currentInventory = current.products[_productId].inventory;\n      //shouldn't be a problem but just in case....\n      require(currentInventory + _newInventory < 9223372036854775807);\n      current.products[_productId].inventory = currentInventory + _newInventory;\n      // Ensure that product isn't of type auction since you can't add inventory\n      // to a single item on auction.\n      bool _isAuction = current.products[_productId].auction;\n      require(_isAuction == false);\n\n      // immediately set new inventory up for sale.\n      // Only loop which is not in control of Maats owner\n      // First line of this function restricts _newInventory <500\n      for(uint i; i <_newInventory; i++){\n        current.products[_productId].items.push(ItemStatus.ForSale);\n      }\n\n      emit LogAddedInventory(_productId, current.products[_productId].inventory);\n      return(current.products[_productId].inventory);\n  }\n\n\n  /// @dev Change the price of an existing product. Ensure that the new price\n  /// is not larger than 0 (0 is allowed if people are feeling generous).\n  /// notice You can't change the price of an auction item since those items\n  /// follow their own logic.\n  /// @param _newPrice : the new price for the product\n  /// @param _productId : the product which is experiencing the price change.\n  function changePrice(uint72 _newPrice,uint8 _productId)\n    public\n    onlyStoreOwner\n    whenNotPaused\n    returns(uint72){\n      uint storeId = OwnerToStoreId[msg.sender];\n      Store storage current = storeIdToStore[storeId];\n      require(_newPrice >= 0);\n      // can't change the price of an auction item\n      require(current.products[_productId].auction == false);\n      // change price\n      current.products[_productId].price = _newPrice;\n      // Let the world know about the price change!!\n      // emit LogPriceChange(_productId, current.storeName, _newPrice);\n      return _newPrice;\n  }\n\n\n}\n",
  "sourcePath": "/Users/ericbrown/Documents/Blockchain/ConsenSysCourse/GitHub/Maats/contracts/StoreManagement.sol",
  "compiler": {
    "name": "solc",
    "version": "0.4.24+commit.e67f0147.Emscripten.clang"
  },
  "schemaVersion": "2.0.1",
  "updatedAt": "2018-08-27T02:56:40.415Z"
}