{
  "contractName": "StoreBase",
  "abi": [
    {
      "constant": false,
      "inputs": [],
      "name": "_pause",
      "outputs": [],
      "payable": false,
      "stateMutability": "nonpayable",
      "type": "function"
    },
    {
      "constant": false,
      "inputs": [],
      "name": "withdraw",
      "outputs": [],
      "payable": false,
      "stateMutability": "nonpayable",
      "type": "function"
    },
    {
      "constant": false,
      "inputs": [
        {
          "name": "_revokedAdmin",
          "type": "address"
        }
      ],
      "name": "removeMaatsAdmin",
      "outputs": [],
      "payable": false,
      "stateMutability": "nonpayable",
      "type": "function"
    },
    {
      "constant": false,
      "inputs": [
        {
          "name": "_newOwner",
          "type": "address"
        }
      ],
      "name": "setMaatsOwner",
      "outputs": [],
      "payable": false,
      "stateMutability": "nonpayable",
      "type": "function"
    },
    {
      "constant": false,
      "inputs": [
        {
          "name": "_newAdmin",
          "type": "address"
        }
      ],
      "name": "createMaatsAdmin",
      "outputs": [],
      "payable": false,
      "stateMutability": "nonpayable",
      "type": "function"
    },
    {
      "constant": true,
      "inputs": [],
      "name": "pause",
      "outputs": [
        {
          "name": "",
          "type": "bool"
        }
      ],
      "payable": false,
      "stateMutability": "view",
      "type": "function"
    },
    {
      "constant": true,
      "inputs": [
        {
          "name": "",
          "type": "address"
        }
      ],
      "name": "OwnerToStoreId",
      "outputs": [
        {
          "name": "",
          "type": "uint256"
        }
      ],
      "payable": false,
      "stateMutability": "view",
      "type": "function"
    },
    {
      "constant": true,
      "inputs": [],
      "name": "currentStoreCount",
      "outputs": [
        {
          "name": "",
          "type": "uint256"
        }
      ],
      "payable": false,
      "stateMutability": "view",
      "type": "function"
    },
    {
      "constant": true,
      "inputs": [],
      "name": "maatsOwner",
      "outputs": [
        {
          "name": "",
          "type": "address"
        }
      ],
      "payable": false,
      "stateMutability": "view",
      "type": "function"
    },
    {
      "constant": true,
      "inputs": [
        {
          "name": "",
          "type": "uint256"
        }
      ],
      "name": "maatsAdmins",
      "outputs": [
        {
          "name": "",
          "type": "address"
        }
      ],
      "payable": false,
      "stateMutability": "view",
      "type": "function"
    },
    {
      "constant": false,
      "inputs": [],
      "name": "_unpause",
      "outputs": [],
      "payable": false,
      "stateMutability": "nonpayable",
      "type": "function"
    },
    {
      "anonymous": false,
      "inputs": [
        {
          "indexed": true,
          "name": "_ownerAddress",
          "type": "address"
        },
        {
          "indexed": true,
          "name": "_newStoreName",
          "type": "string"
        }
      ],
      "name": "LogNewStore",
      "type": "event"
    },
    {
      "anonymous": false,
      "inputs": [
        {
          "indexed": true,
          "name": "_storeOwnerAddress",
          "type": "address"
        }
      ],
      "name": "LogNewStoreOwner",
      "type": "event"
    },
    {
      "anonymous": false,
      "inputs": [
        {
          "indexed": true,
          "name": "_storeOwner",
          "type": "address"
        }
      ],
      "name": "LogStoreOwnerRemoved",
      "type": "event"
    },
    {
      "anonymous": false,
      "inputs": [
        {
          "indexed": true,
          "name": "_ownerAddress",
          "type": "address"
        }
      ],
      "name": "LogStoreClosed",
      "type": "event"
    },
    {
      "anonymous": false,
      "inputs": [
        {
          "indexed": true,
          "name": "previousOwner",
          "type": "address"
        },
        {
          "indexed": true,
          "name": "newOwner",
          "type": "address"
        }
      ],
      "name": "LogNewOwner",
      "type": "event"
    },
    {
      "anonymous": false,
      "inputs": [
        {
          "indexed": true,
          "name": "newAdmin",
          "type": "address"
        }
      ],
      "name": "LogNewAdmin",
      "type": "event"
    },
    {
      "anonymous": false,
      "inputs": [
        {
          "indexed": true,
          "name": "revokedAdmin",
          "type": "address"
        }
      ],
      "name": "LogAdminRevoked",
      "type": "event"
    },
    {
      "anonymous": false,
      "inputs": [],
      "name": "Pause",
      "type": "event"
    },
    {
      "anonymous": false,
      "inputs": [],
      "name": "Unpause",
      "type": "event"
    },
    {
      "constant": false,
      "inputs": [
        {
          "name": "_storeName",
          "type": "string"
        }
      ],
      "name": "removeStoreOwner",
      "outputs": [],
      "payable": false,
      "stateMutability": "nonpayable",
      "type": "function"
    },
    {
      "constant": false,
      "inputs": [
        {
          "name": "_newOwner",
          "type": "address"
        },
        {
          "name": "_storeName",
          "type": "string"
        }
      ],
      "name": "createStore",
      "outputs": [
        {
          "name": "",
          "type": "string"
        }
      ],
      "payable": false,
      "stateMutability": "nonpayable",
      "type": "function"
    }
  ],
  "bytecode": "0x60806040526001600855336000806101000a81548173ffffffffffffffffffffffffffffffffffffffff021916908373ffffffffffffffffffffffffffffffffffffffff160217905550611860806100586000396000f3006080604052600436106100c5576000357c0100000000000000000000000000000000000000000000000000000000900463ffffffff168063320b2ad9146100ca5780633ccfd60b146100e157806340f42c1c146100f85780635f7d53a11461013b57806378678a321461017e578063803360b6146101c15780638456cb591461022a578063a075a5b114610259578063bcddcfb2146102b0578063e698f0bb146102db578063f0e06e4a14610332578063f6a99e4c1461039f578063fc8234cb146104a1575b600080fd5b3480156100d657600080fd5b506100df6104b8565b005b3480156100ed57600080fd5b506100f661057e565b005b34801561010457600080fd5b50610139600480360381019080803573ffffffffffffffffffffffffffffffffffffffff16906020019092919050505061065a565b005b34801561014757600080fd5b5061017c600480360381019080803573ffffffffffffffffffffffffffffffffffffffff169060200190929190505050610873565b005b34801561018a57600080fd5b506101bf600480360381019080803573ffffffffffffffffffffffffffffffffffffffff1690602001909291905050506109f0565b005b3480156101cd57600080fd5b50610228600480360381019080803590602001908201803590602001908080601f0160208091040260200160405190810160405280939291908181526020018383808284378201915050505050509192919290505050610cb9565b005b34801561023657600080fd5b5061023f61102f565b604051808215151515815260200191505060405180910390f35b34801561026557600080fd5b5061029a600480360381019080803573ffffffffffffffffffffffffffffffffffffffff169060200190929190505050611042565b6040518082815260200191505060405180910390f35b3480156102bc57600080fd5b506102c561105a565b6040518082815260200191505060405180910390f35b3480156102e757600080fd5b506102f0611060565b604051808273ffffffffffffffffffffffffffffffffffffffff1673ffffffffffffffffffffffffffffffffffffffff16815260200191505060405180910390f35b34801561033e57600080fd5b5061035d60048036038101908080359060200190929190505050611085565b604051808273ffffffffffffffffffffffffffffffffffffffff1673ffffffffffffffffffffffffffffffffffffffff16815260200191505060405180910390f35b3480156103ab57600080fd5b50610426600480360381019080803573ffffffffffffffffffffffffffffffffffffffff169060200190929190803590602001908201803590602001908080601f01602080910402602001604051908101604052809392919081815260200183838082843782019150505050505091929192905050506110ba565b6040518080602001828103825283818151815260200191508051906020019080838360005b8381101561046657808201518184015260208101905061044b565b50505050905090810190601f1680156104935780820380516001836020036101000a031916815260200191505b509250505060405180910390f35b3480156104ad57600080fd5b506104b661153c565b005b6000809054906101000a900473ffffffffffffffffffffffffffffffffffffffff1673ffffffffffffffffffffffffffffffffffffffff163373ffffffffffffffffffffffffffffffffffffffff1614151561051357600080fd5b60001515600760009054906101000a900460ff16151514151561053557600080fd5b6001600760006101000a81548160ff0219169083151502179055507f6985a02210a168e66602d3235cb6db0e70f92b3ba4d376a33c0f3d9434bff62560405160405180910390a1565b6000809054906101000a900473ffffffffffffffffffffffffffffffffffffffff1673ffffffffffffffffffffffffffffffffffffffff163373ffffffffffffffffffffffffffffffffffffffff161415156105d957600080fd5b6000809054906101000a900473ffffffffffffffffffffffffffffffffffffffff1673ffffffffffffffffffffffffffffffffffffffff166108fc3073ffffffffffffffffffffffffffffffffffffffff16319081150290604051600060405180830381858888f19350505050158015610657573d6000803e3d6000fd5b50565b6000806000809054906101000a900473ffffffffffffffffffffffffffffffffffffffff1673ffffffffffffffffffffffffffffffffffffffff163373ffffffffffffffffffffffffffffffffffffffff161415156106b857600080fd5b60001515600760009054906101000a900460ff1615151415156106da57600080fd5b60009150600090505b600481111580156106f8575060001515821515145b1561085e578273ffffffffffffffffffffffffffffffffffffffff1660018260058110151561072357fe5b0160009054906101000a900473ffffffffffffffffffffffffffffffffffffffff1673ffffffffffffffffffffffffffffffffffffffff16141561085157600060018260058110151561077257fe5b0160006101000a81548173ffffffffffffffffffffffffffffffffffffffff021916908373ffffffffffffffffffffffffffffffffffffffff1602179055506000600660008573ffffffffffffffffffffffffffffffffffffffff1673ffffffffffffffffffffffffffffffffffffffff16815260200190815260200160002060006101000a81548160ff021916908315150217905550600191508273ffffffffffffffffffffffffffffffffffffffff167fdca59b6371f7db6faad5c9931588f735722795c7b8ea859824e0afc8b2c70a4f60405160405180910390a25b80806001019150506106e3565b6001151582151514151561086e57fe5b505050565b60008060009054906101000a900473ffffffffffffffffffffffffffffffffffffffff1673ffffffffffffffffffffffffffffffffffffffff163373ffffffffffffffffffffffffffffffffffffffff161415156108d057600080fd5b60001515600760009054906101000a900460ff1615151415156108f257600080fd5b600073ffffffffffffffffffffffffffffffffffffffff168273ffffffffffffffffffffffffffffffffffffffff161415151561092e57600080fd5b6000809054906101000a900473ffffffffffffffffffffffffffffffffffffffff169050816000806101000a81548173ffffffffffffffffffffffffffffffffffffffff021916908373ffffffffffffffffffffffffffffffffffffffff1602179055508073ffffffffffffffffffffffffffffffffffffffff168273ffffffffffffffffffffffffffffffffffffffff167f1f8d7d25344642d919d55999e4664aa452a5f424bc0936ceb9c2b300db7dcbd960405160405180910390a35050565b60008060008060009054906101000a900473ffffffffffffffffffffffffffffffffffffffff1673ffffffffffffffffffffffffffffffffffffffff163373ffffffffffffffffffffffffffffffffffffffff16141515610a5057600080fd5b60001515600760009054906101000a900460ff161515141515610a7257600080fd5b600073ffffffffffffffffffffffffffffffffffffffff168473ffffffffffffffffffffffffffffffffffffffff1614151515610aae57600080fd5b5b600483111515610b39578373ffffffffffffffffffffffffffffffffffffffff16600184600581101515610adf57fe5b0160009054906101000a900473ffffffffffffffffffffffffffffffffffffffff1673ffffffffffffffffffffffffffffffffffffffff161415610b2e5760026001141515610b2d57600080fd5b5b826001019250610aaf565b600091505b60048111158015610b53575060001515821515145b15610ca3576000600182600581101515610b6957fe5b0160009054906101000a900473ffffffffffffffffffffffffffffffffffffffff1673ffffffffffffffffffffffffffffffffffffffff161415610c965783600182600581101515610bb757fe5b0160006101000a81548173ffffffffffffffffffffffffffffffffffffffff021916908373ffffffffffffffffffffffffffffffffffffffff1602179055506001600660008673ffffffffffffffffffffffffffffffffffffffff1673ffffffffffffffffffffffffffffffffffffffff16815260200190815260200160002060006101000a81548160ff021916908315150217905550600191508373ffffffffffffffffffffffffffffffffffffffff167f39e7d4b9ba48f55a740a5192809dbc498fa12724c030b37dab126a3f6774c0f360405160405180910390a25b8080600101915050610b3e565b60011515821515141515610cb357fe5b50505050565b6000806000809054906101000a900473ffffffffffffffffffffffffffffffffffffffff1673ffffffffffffffffffffffffffffffffffffffff163373ffffffffffffffffffffffffffffffffffffffff161480610d67575060011515600660003373ffffffffffffffffffffffffffffffffffffffff1673ffffffffffffffffffffffffffffffffffffffff16815260200190815260200160002060009054906101000a900460ff161515145b1515610d7257600080fd5b600b836040518082805190602001908083835b602083101515610daa5780518252602082019150602081019050602083039250610d85565b6001836020036101000a038019825116818451168082178552505050505050905001915050908152602001604051809103902060009054906101000a900473ffffffffffffffffffffffffffffffffffffffff1691506000600a60008473ffffffffffffffffffffffffffffffffffffffff1673ffffffffffffffffffffffffffffffffffffffff1681526020019081526020016000205414151515610e4f57600080fd5b6000600c846040518082805190602001908083835b602083101515610e895780518252602082019150602081019050602083039250610e64565b6001836020036101000a038019825116818451168082178552505050505050905001915050908152602001604051809103902060006101000a81548160ff021916908315150217905550600a60008373ffffffffffffffffffffffffffffffffffffffff1673ffffffffffffffffffffffffffffffffffffffff1681526020019081526020016000205490506009600082815260200190815260200160002060008082016000610f399190611602565b6006820160006101000a81549060ff0219169055600782016000610f5d9190611615565b50508173ffffffffffffffffffffffffffffffffffffffff167f99834834070224a7bc8eee507b8f041592b6cd80dd705f79f81b42487b0b460d60405160405180910390a26000600a60008473ffffffffffffffffffffffffffffffffffffffff1673ffffffffffffffffffffffffffffffffffffffff168152602001908152602001600020819055508173ffffffffffffffffffffffffffffffffffffffff167fe6547a945aa917d8f8b8a71a98062b03570c5ab79d6f47aa64dab5ae6483e0c860405160405180910390a2505050565b600760009054906101000a900460ff1681565b600a6020528060005260406000206000915090505481565b60085481565b6000809054906101000a900473ffffffffffffffffffffffffffffffffffffffff1681565b60018160058110151561109457fe5b016000915054906101000a900473ffffffffffffffffffffffffffffffffffffffff1681565b60606110c461165d565b6110cc611680565b6000809054906101000a900473ffffffffffffffffffffffffffffffffffffffff1673ffffffffffffffffffffffffffffffffffffffff163373ffffffffffffffffffffffffffffffffffffffff161480611177575060011515600660003373ffffffffffffffffffffffffffffffffffffffff1673ffffffffffffffffffffffffffffffffffffffff16815260200190815260200160002060009054906101000a900460ff161515145b151561118257600080fd5b60001515600760009054906101000a900460ff1615151415156111a457600080fd5b6000600a60008773ffffffffffffffffffffffffffffffffffffffff1673ffffffffffffffffffffffffffffffffffffffff168152602001908152602001600020541415156111f257600080fd5b60001515600c856040518082805190602001908083835b60208310151561122e5780518252602082019150602081019050602083039250611209565b6001836020036101000a038019825116818451168082178552505050505050905001915050908152602001604051809103902060009054906101000a900460ff16151514151561127d57600080fd5b606060405190810160405280838152602001600060ff168152602001858152509050600854600a60008773ffffffffffffffffffffffffffffffffffffffff1673ffffffffffffffffffffffffffffffffffffffff16815260200190815260200160002081905550600854600d60008773ffffffffffffffffffffffffffffffffffffffff1673ffffffffffffffffffffffffffffffffffffffff16815260200190815260200160002081905550806009600060085481526020019081526020016000206000820151816000019060066113589291906116ac565b5060208201518160060160006101000a81548160ff021916908360ff1602179055506040820151816007019080519060200190611396929190611729565b5090505060086000815480929190600101919050555084600b82604001516040518082805190602001908083835b6020831015156113e957805182526020820191506020810190506020830392506113c4565b6001836020036101000a038019825116818451168082178552505050505050905001915050908152602001604051809103902060006101000a81548173ffffffffffffffffffffffffffffffffffffffff021916908373ffffffffffffffffffffffffffffffffffffffff1602179055506001600c82604001516040518082805190602001908083835b6020831015156114985780518252602082019150602081019050602083039250611473565b6001836020036101000a038019825116818451168082178552505050505050905001915050908152602001604051809103902060006101000a81548160ff02191690831515021790555084816000015160006006811015156114f657fe5b602002019073ffffffffffffffffffffffffffffffffffffffff16908173ffffffffffffffffffffffffffffffffffffffff168152505080604001519250505092915050565b6000809054906101000a900473ffffffffffffffffffffffffffffffffffffffff1673ffffffffffffffffffffffffffffffffffffffff163373ffffffffffffffffffffffffffffffffffffffff1614151561159757600080fd5b60011515600760009054906101000a900460ff1615151415156115b957600080fd5b6000600760006101000a81548160ff0219169083151502179055507f7805862f689e2f13df9f062ff482ad3ad112aca9e0847911ed832e158c525b3360405160405180910390a1565b50806006019061161291906117a9565b50565b50805460018160011615610100020316600290046000825580601f1061163b575061165a565b601f01602090049060005260206000209081019061165991906117a9565b5b50565b60c060405190810160405280600690602082028038833980820191505090505090565b610100604051908101604052806116956117ce565b8152602001600060ff168152602001606081525090565b8260068101928215611718579160200282015b828111156117175782518260006101000a81548173ffffffffffffffffffffffffffffffffffffffff021916908373ffffffffffffffffffffffffffffffffffffffff160217905550916020019190600101906116bf565b5b50905061172591906117f1565b5090565b828054600181600116156101000203166002900490600052602060002090601f016020900481019282601f1061176a57805160ff1916838001178555611798565b82800160010185558215611798579182015b8281111561179757825182559160200191906001019061177c565b5b5090506117a591906117a9565b5090565b6117cb91905b808211156117c75760008160009055506001016117af565b5090565b90565b60c060405190810160405280600690602082028038833980820191505090505090565b61183191905b8082111561182d57600081816101000a81549073ffffffffffffffffffffffffffffffffffffffff0219169055506001016117f7565b5090565b905600a165627a7a723058206b428befda7cc8849f162e300c7cb0f2ab1c8d90414c20ce898a49c895626feb0029",
  "source": "pragma solidity ^0.4.24;\n\nimport \"./StoreAccessControl.sol\";\n\n/**\n  * @dev Defines the storage needs to create and manage stores as well as create\n  * and manage the products which are specific to stores.\n  */\ncontract StoreBase is StoreAccessControl{\n\n  /// @dev Store name is used as a unique identifier, used in many events.\n  event LogNewStore(address indexed _ownerAddress, string indexed _newStoreName);\n  event LogNewStoreOwner(address indexed _storeOwnerAddress);\n  event LogStoreOwnerRemoved(address indexed _storeOwner);\n  event LogStoreClosed(address indexed _ownerAddress);\n\n\n  // 6 writes per struct = 20,000 * 6 = 120,000 gas ....\n  /// @dev The Store struct is used to represent all stores in the Maats Network.\n  struct Store{\n    // Stores can only have 5 admins. The 0-index is reserved for store owner.\n    address[6] storeAdmins;\n    // Acts as the key for the products mapping. NOTE: max num prod = 256: SCALABILITY :/\n    uint8 prodCount;\n    // Acts as unique identifier.\n    string storeName;\n    // Structs can't store struct array's so mapping is used instead.\n    mapping(uint8 => Product) products;\n  }\n\n\n  /// @dev Products are members of Stores. Each new product an owner adds to\n  /// their store takes the following form.\n  struct Product{\n    // Array of the enum to track instances of this product type. This allows\n    // for a product to be sold for a set price or sold at auction. It also\n    // tracks progress of an instance so the owner knows when to ship an item.\n    ItemStatus[] items;\n\n    uint72 price;\n    // Used to manage the inventory of the product.\n    uint64 inventory;\n    // If false, the product is set-price, true its an auction.\n    bool auction;\n  }\n\n  /// @dev Keep track of progress of sale and type of sale of a product instance (item).\n  enum ItemStatus{\n    ForSale,\n    ForAuction,\n    Bought,\n    Shipped\n  }\n\n  /// @dev acts as Id for storeIdtoStore mapping\n  /// The storeID of 0 is reserved for admins/owners not applied to a store\n  uint public currentStoreCount = 1;\n  mapping (uint256 => Store) storeIdToStore;\n\n  /// @dev Mapping accessing the store owned by a specific owner address.\n  mapping (address => uint256) public OwnerToStoreId;\n\n  /// @dev Need a way to access the address of the store owner for functions\n  /// where store admins are acting upon the store and not the owner.\n  mapping(string => address)  StoreNameToOwner;\n\n  /// @dev Used to ensure that store names remain unique identifiers for Store\n  /// structs and to ensure that a only existing stores are acted upon.\n  mapping(string => bool) storeExists;\n\n  /// SUPER EXPENSIVE MAPPING\n  /// @dev give admins access to stores instead of requiring the owner address\n  mapping (address => uint256) storeAdminToStoreId;\n\n\n\n    /// @dev Used to remove an owner from the isStoreOwner mapping and prevent\n    /// the specified address from accessing store owner functions on Maat's.\n    /// It also closes the store for which they are the owner.\n    /// notice This doesn't have a pausible modifier since we want to be able\n    /// to remove an owner when paused in the case they are acting maliciously\n    /// as opposed to simple inactivity or other violations.\n    /// @param _storeName : The store of the owner being removed\n    /// @return The value of the mapping which states if they are a store owner\n    function removeStoreOwner(string _storeName)\n      public\n      onlyMaatsLeadership{\n        // throw if this address isn't an owner\n        address owner = StoreNameToOwner[_storeName];\n        require(OwnerToStoreId[owner] != 0);\n\n        // free the store name for future use\n        storeExists[_storeName] = false;\n\n        uint storeId = OwnerToStoreId[owner];\n        delete storeIdToStore[storeId];\n\n        emit LogStoreClosed(owner);\n        OwnerToStoreId[owner] = 0;\n\n        emit LogStoreOwnerRemoved(owner);\n      }\n\n    /// @dev Requries that the msg.sender is a storeOwner. It checks to ensure\n    /// that the msg.sender hasn't created a store yet and that the storeName\n    /// they choose hasn't already been taken by another owner.\n    /// @param _storeName : The string used as the unique identifier for the Store.\n    /// @return _newStore.storeName: returns the name of the new store.\n    function createStore(address _newOwner, string _storeName)\n      public\n      onlyMaatsLeadership\n      whenNotPaused\n      returns(string){\n        // require address doesn't already have a store\n        require(OwnerToStoreId[_newOwner] == 0);\n        // Require that the name for their store hasn't been taken.\n        require(storeExists[_storeName] == false);\n\n        // Fixed size array's need to be in memory before definition in structs\n        // This will be the storeAdmin array in the new store.\n        address[6] memory newArray;\n\n        // Create the new store type in memory. It will be stored in the\n        // OwnerToStore mapping as to not be lost during deallocation\n        Store memory _newStore = Store({\n          storeName: _storeName,\n          storeAdmins: newArray,\n          prodCount: 0\n          });\n\n        // This mapping stores the newStore in contract storage\n        OwnerToStoreId[_newOwner] = currentStoreCount;\n        storeAdminToStoreId[_newOwner] = currentStoreCount;\n        storeIdToStore[currentStoreCount] = _newStore;\n        currentStoreCount++;\n\n        // Ensure we can access the owner from the store's unique identifier.\n        StoreNameToOwner[_newStore.storeName] = _newOwner;\n        // Register this name to ensure another owner can't take this name\n        storeExists[_newStore.storeName] = true;\n        // 0-index is reserved for store owner. Can only change during owner transfer\n        _newStore.storeAdmins[0] = _newOwner;\n\n        return(_newStore.storeName);\n    }\n\n}\n",
  "sourcePath": "/Users/ericbrown/Documents/Blockchain/ConsenSysCourse/GitHub/Maats/contracts/StoreBase.sol",
  "compiler": {
    "name": "solc",
    "version": "0.4.24+commit.e67f0147.Emscripten.clang"
  },
  "schemaVersion": "2.0.1",
  "updatedAt": "2018-08-16T19:09:56.482Z"
}