{
  "contractName": "StoreManagement",
  "abi": [
    {
      "constant": true,
      "inputs": [
        {
          "name": "_storeName",
          "type": "string"
        }
      ],
      "name": "getStoreExists",
      "outputs": [
        {
          "name": "",
          "type": "bool"
        }
      ],
      "payable": false,
      "stateMutability": "view",
      "type": "function"
    },
    {
      "constant": false,
      "inputs": [],
      "name": "_pause",
      "outputs": [],
      "payable": false,
      "stateMutability": "nonpayable",
      "type": "function"
    },
    {
      "constant": false,
      "inputs": [],
      "name": "withdraw",
      "outputs": [],
      "payable": false,
      "stateMutability": "nonpayable",
      "type": "function"
    },
    {
      "constant": false,
      "inputs": [
        {
          "name": "_revokedAdmin",
          "type": "address"
        }
      ],
      "name": "removeMaatsAdmin",
      "outputs": [],
      "payable": false,
      "stateMutability": "nonpayable",
      "type": "function"
    },
    {
      "constant": false,
      "inputs": [
        {
          "name": "_newOwner",
          "type": "address"
        }
      ],
      "name": "setMaatsOwner",
      "outputs": [],
      "payable": false,
      "stateMutability": "nonpayable",
      "type": "function"
    },
    {
      "constant": false,
      "inputs": [
        {
          "name": "_newAdmin",
          "type": "address"
        }
      ],
      "name": "createMaatsAdmin",
      "outputs": [],
      "payable": false,
      "stateMutability": "nonpayable",
      "type": "function"
    },
    {
      "constant": false,
      "inputs": [
        {
          "name": "_storeName",
          "type": "string"
        }
      ],
      "name": "removeStoreOwner",
      "outputs": [],
      "payable": false,
      "stateMutability": "nonpayable",
      "type": "function"
    },
    {
      "constant": true,
      "inputs": [
        {
          "name": "_admin",
          "type": "address"
        }
      ],
      "name": "getIsAdmin",
      "outputs": [
        {
          "name": "",
          "type": "bool"
        }
      ],
      "payable": false,
      "stateMutability": "view",
      "type": "function"
    },
    {
      "constant": true,
      "inputs": [],
      "name": "pause",
      "outputs": [
        {
          "name": "",
          "type": "bool"
        }
      ],
      "payable": false,
      "stateMutability": "view",
      "type": "function"
    },
    {
      "constant": true,
      "inputs": [
        {
          "name": "",
          "type": "address"
        }
      ],
      "name": "OwnerToStoreId",
      "outputs": [
        {
          "name": "",
          "type": "uint256"
        }
      ],
      "payable": false,
      "stateMutability": "view",
      "type": "function"
    },
    {
      "constant": true,
      "inputs": [],
      "name": "currentStoreCount",
      "outputs": [
        {
          "name": "",
          "type": "uint256"
        }
      ],
      "payable": false,
      "stateMutability": "view",
      "type": "function"
    },
    {
      "constant": true,
      "inputs": [],
      "name": "maatsOwner",
      "outputs": [
        {
          "name": "",
          "type": "address"
        }
      ],
      "payable": false,
      "stateMutability": "view",
      "type": "function"
    },
    {
      "constant": true,
      "inputs": [
        {
          "name": "",
          "type": "uint256"
        }
      ],
      "name": "maatsAdmins",
      "outputs": [
        {
          "name": "",
          "type": "address"
        }
      ],
      "payable": false,
      "stateMutability": "view",
      "type": "function"
    },
    {
      "constant": false,
      "inputs": [
        {
          "name": "_newOwner",
          "type": "address"
        },
        {
          "name": "_storeName",
          "type": "string"
        }
      ],
      "name": "createStore",
      "outputs": [
        {
          "name": "",
          "type": "string"
        }
      ],
      "payable": false,
      "stateMutability": "nonpayable",
      "type": "function"
    },
    {
      "constant": false,
      "inputs": [],
      "name": "_unpause",
      "outputs": [],
      "payable": false,
      "stateMutability": "nonpayable",
      "type": "function"
    },
    {
      "constant": true,
      "inputs": [
        {
          "name": "i",
          "type": "uint256"
        }
      ],
      "name": "getStoreName",
      "outputs": [
        {
          "name": "",
          "type": "string"
        }
      ],
      "payable": false,
      "stateMutability": "view",
      "type": "function"
    },
    {
      "anonymous": false,
      "inputs": [
        {
          "indexed": false,
          "name": "_productId",
          "type": "uint8"
        },
        {
          "indexed": true,
          "name": "_storeName",
          "type": "string"
        }
      ],
      "name": "LogNewSetPriceProduct",
      "type": "event"
    },
    {
      "anonymous": false,
      "inputs": [
        {
          "indexed": true,
          "name": "_productId",
          "type": "uint8"
        },
        {
          "indexed": false,
          "name": "inventory",
          "type": "uint64"
        }
      ],
      "name": "LogAddedInventory",
      "type": "event"
    },
    {
      "anonymous": false,
      "inputs": [
        {
          "indexed": true,
          "name": "_ownerAddress",
          "type": "address"
        },
        {
          "indexed": true,
          "name": "_storeName",
          "type": "string"
        }
      ],
      "name": "LogProductRemoved",
      "type": "event"
    },
    {
      "anonymous": false,
      "inputs": [
        {
          "indexed": true,
          "name": "_productId",
          "type": "uint8"
        },
        {
          "indexed": true,
          "name": "_storeName",
          "type": "string"
        },
        {
          "indexed": false,
          "name": "_newPrice",
          "type": "uint72"
        }
      ],
      "name": "LogPriceChange",
      "type": "event"
    },
    {
      "anonymous": false,
      "inputs": [
        {
          "indexed": true,
          "name": "_ownerAddress",
          "type": "address"
        },
        {
          "indexed": true,
          "name": "_newStoreName",
          "type": "string"
        }
      ],
      "name": "LogNewStore",
      "type": "event"
    },
    {
      "anonymous": false,
      "inputs": [
        {
          "indexed": true,
          "name": "_storeOwnerAddress",
          "type": "address"
        }
      ],
      "name": "LogNewStoreOwner",
      "type": "event"
    },
    {
      "anonymous": false,
      "inputs": [
        {
          "indexed": true,
          "name": "_storeOwner",
          "type": "address"
        }
      ],
      "name": "LogStoreOwnerRemoved",
      "type": "event"
    },
    {
      "anonymous": false,
      "inputs": [
        {
          "indexed": true,
          "name": "_ownerAddress",
          "type": "address"
        }
      ],
      "name": "LogStoreClosed",
      "type": "event"
    },
    {
      "anonymous": false,
      "inputs": [
        {
          "indexed": true,
          "name": "previousOwner",
          "type": "address"
        },
        {
          "indexed": true,
          "name": "newOwner",
          "type": "address"
        }
      ],
      "name": "LogNewOwner",
      "type": "event"
    },
    {
      "anonymous": false,
      "inputs": [
        {
          "indexed": true,
          "name": "newAdmin",
          "type": "address"
        }
      ],
      "name": "LogNewAdmin",
      "type": "event"
    },
    {
      "anonymous": false,
      "inputs": [
        {
          "indexed": true,
          "name": "revokedAdmin",
          "type": "address"
        }
      ],
      "name": "LogAdminRevoked",
      "type": "event"
    },
    {
      "anonymous": false,
      "inputs": [],
      "name": "Pause",
      "type": "event"
    },
    {
      "anonymous": false,
      "inputs": [],
      "name": "Unpause",
      "type": "event"
    },
    {
      "constant": true,
      "inputs": [
        {
          "name": "adminAddress",
          "type": "address"
        }
      ],
      "name": "getIsStoreAdmin",
      "outputs": [
        {
          "name": "",
          "type": "bool"
        }
      ],
      "payable": false,
      "stateMutability": "view",
      "type": "function"
    },
    {
      "constant": false,
      "inputs": [
        {
          "name": "_NewAdminAddress",
          "type": "address"
        }
      ],
      "name": "createStoreAdmin",
      "outputs": [],
      "payable": false,
      "stateMutability": "nonpayable",
      "type": "function"
    },
    {
      "constant": false,
      "inputs": [
        {
          "name": "_adminAddress",
          "type": "address"
        }
      ],
      "name": "removeStoreAdmin",
      "outputs": [],
      "payable": false,
      "stateMutability": "nonpayable",
      "type": "function"
    },
    {
      "constant": true,
      "inputs": [
        {
          "name": "storeName",
          "type": "string"
        },
        {
          "name": "productId",
          "type": "uint8"
        }
      ],
      "name": "getProductExists",
      "outputs": [
        {
          "name": "",
          "type": "bool"
        }
      ],
      "payable": false,
      "stateMutability": "view",
      "type": "function"
    },
    {
      "constant": false,
      "inputs": [
        {
          "name": "_price",
          "type": "uint72"
        },
        {
          "name": "_inventory",
          "type": "uint64"
        }
      ],
      "name": "createSetPriceProduct",
      "outputs": [
        {
          "name": "_productId",
          "type": "uint8"
        }
      ],
      "payable": false,
      "stateMutability": "nonpayable",
      "type": "function"
    },
    {
      "constant": true,
      "inputs": [
        {
          "name": "storeName",
          "type": "string"
        },
        {
          "name": "productId",
          "type": "uint8"
        }
      ],
      "name": "getCurrentInventory",
      "outputs": [
        {
          "name": "",
          "type": "uint64"
        }
      ],
      "payable": false,
      "stateMutability": "view",
      "type": "function"
    },
    {
      "constant": false,
      "inputs": [
        {
          "name": "_productId",
          "type": "uint8"
        },
        {
          "name": "_newInventory",
          "type": "uint64"
        }
      ],
      "name": "addInventory",
      "outputs": [
        {
          "name": "",
          "type": "uint64"
        }
      ],
      "payable": false,
      "stateMutability": "nonpayable",
      "type": "function"
    },
    {
      "constant": true,
      "inputs": [
        {
          "name": "storeName",
          "type": "string"
        },
        {
          "name": "productId",
          "type": "uint8"
        }
      ],
      "name": "getCurrentSetPrice",
      "outputs": [
        {
          "name": "",
          "type": "uint72"
        }
      ],
      "payable": false,
      "stateMutability": "view",
      "type": "function"
    },
    {
      "constant": false,
      "inputs": [
        {
          "name": "_newPrice",
          "type": "uint72"
        },
        {
          "name": "_productId",
          "type": "uint8"
        }
      ],
      "name": "changePrice",
      "outputs": [
        {
          "name": "",
          "type": "uint72"
        }
      ],
      "payable": false,
      "stateMutability": "nonpayable",
      "type": "function"
    },
    {
      "constant": true,
      "inputs": [
        {
          "name": "index",
          "type": "uint256"
        },
        {
          "name": "storeName",
          "type": "string"
        }
      ],
      "name": "getStoreAdmins",
      "outputs": [
        {
          "name": "",
          "type": "address"
        }
      ],
      "payable": false,
      "stateMutability": "view",
      "type": "function"
    },
    {
      "constant": true,
      "inputs": [
        {
          "name": "_storeName",
          "type": "string"
        }
      ],
      "name": "getNumProducts",
      "outputs": [
        {
          "name": "",
          "type": "uint256"
        }
      ],
      "payable": false,
      "stateMutability": "view",
      "type": "function"
    },
    {
      "constant": true,
      "inputs": [
        {
          "name": "_productId",
          "type": "uint8"
        },
        {
          "name": "_storeName",
          "type": "string"
        }
      ],
      "name": "getProductType",
      "outputs": [
        {
          "name": "",
          "type": "bool"
        }
      ],
      "payable": false,
      "stateMutability": "view",
      "type": "function"
    },
    {
      "constant": true,
      "inputs": [
        {
          "name": "_storeName",
          "type": "string"
        }
      ],
      "name": "getOwnerFromName",
      "outputs": [
        {
          "name": "",
          "type": "address"
        }
      ],
      "payable": false,
      "stateMutability": "view",
      "type": "function"
    }
  ],
  "bytecode": "0x60806040526001600855336000806101000a81548173ffffffffffffffffffffffffffffffffffffffff021916908373ffffffffffffffffffffffffffffffffffffffff16021790555061383a806100586000396000f300608060405260043610610174576000357c0100000000000000000000000000000000000000000000000000000000900463ffffffff168062265dc514610179578063050cfdd1146101d457806328ec015c146102515780632eea9067146102fa5780632fa8cfac1461039a578063320b2ad91461041b5780633ccfd60b1461043257806340f42c1c146104495780635f7d53a11461048c5780636f48fe7e146104cf57806373ada8061461055d57806378678a3214610610578063803360b614610653578063822b0ceb146106bc5780638456cb59146107175780639024b8c5146107465780639bf474b5146107b5578063a075a5b114610821578063bcddcfb214610878578063bdc39f48146108a3578063c7fc1bd1146108e6578063e5fdf7f814610984578063e698f0bb14610a12578063f0e06e4a14610a69578063f6a99e4c14610ad6578063fc8234cb14610bd8578063fd8f49a514610bef578063fde57f3b14610c55578063fed4894914610c98575b600080fd5b34801561018557600080fd5b506101ba600480360381019080803573ffffffffffffffffffffffffffffffffffffffff169060200190929190505050610d3e565b604051808215151515815260200191505060405180910390f35b3480156101e057600080fd5b5061023b600480360381019080803590602001908201803590602001908080601f0160208091040260200160405190810160405280939291908181526020018383808284378201915050505050509192919290505050610d8a565b6040518082815260200191505060405180910390f35b34801561025d57600080fd5b506102b8600480360381019080803590602001908201803590602001908080601f0160208091040260200160405190810160405280939291908181526020018383808284378201915050505050509192919290505050610f18565b604051808273ffffffffffffffffffffffffffffffffffffffff1673ffffffffffffffffffffffffffffffffffffffff16815260200191505060405180910390f35b34801561030657600080fd5b5061036e600480360381019080803590602001908201803590602001908080601f0160208091040260200160405190810160405280939291908181526020018383808284378201915050505050509192919290803560ff169060200190929190505050610fb2565b604051808268ffffffffffffffffff1668ffffffffffffffffff16815260200191505060405180910390f35b3480156103a657600080fd5b50610401600480360381019080803590602001908201803590602001908080601f01602080910402602001604051908101604052809392919081815260200183838082843782019150505050505091929192905050506110dc565b604051808215151515815260200191505060405180910390f35b34801561042757600080fd5b5061043061115e565b005b34801561043e57600080fd5b50610447611224565b005b34801561045557600080fd5b5061048a600480360381019080803573ffffffffffffffffffffffffffffffffffffffff169060200190929190505050611300565b005b34801561049857600080fd5b506104cd600480360381019080803573ffffffffffffffffffffffffffffffffffffffff169060200190929190505050611519565b005b3480156104db57600080fd5b50610543600480360381019080803560ff169060200190929190803590602001908201803590602001908080601f0160208091040260200160405190810160405280939291908181526020018383808284378201915050505050509192919290505050611696565b604051808215151515815260200191505060405180910390f35b34801561056957600080fd5b506105ce60048036038101908080359060200190929190803590602001908201803590602001908080601f0160208091040260200160405190810160405280939291908181526020018383808284378201915050505050509192919290505050611842565b604051808273ffffffffffffffffffffffffffffffffffffffff1673ffffffffffffffffffffffffffffffffffffffff16815260200191505060405180910390f35b34801561061c57600080fd5b50610651600480360381019080803573ffffffffffffffffffffffffffffffffffffffff16906020019092919050505061199c565b005b34801561065f57600080fd5b506106ba600480360381019080803590602001908201803590602001908080601f0160208091040260200160405190810160405280939291908181526020018383808284378201915050505050509192919290505050611c65565b005b3480156106c857600080fd5b506106fd600480360381019080803573ffffffffffffffffffffffffffffffffffffffff169060200190929190505050611fdb565b604051808215151515815260200191505060405180910390f35b34801561072357600080fd5b5061072c612052565b604051808215151515815260200191505060405180910390f35b34801561075257600080fd5b50610789600480360381019080803568ffffffffffffffffff169060200190929190803560ff169060200190929190505050612065565b604051808268ffffffffffffffffff1668ffffffffffffffffff16815260200191505060405180910390f35b3480156107c157600080fd5b506107f7600480360381019080803560ff169060200190929190803567ffffffffffffffff1690602001909291905050506121dc565b604051808267ffffffffffffffff1667ffffffffffffffff16815260200191505060405180910390f35b34801561082d57600080fd5b50610862600480360381019080803573ffffffffffffffffffffffffffffffffffffffff169060200190929190505050612497565b6040518082815260200191505060405180910390f35b34801561088457600080fd5b5061088d6124af565b6040518082815260200191505060405180910390f35b3480156108af57600080fd5b506108e4600480360381019080803573ffffffffffffffffffffffffffffffffffffffff1690602001909291905050506124b5565b005b3480156108f257600080fd5b5061095a600480360381019080803590602001908201803590602001908080601f0160208091040260200160405190810160405280939291908181526020018383808284378201915050505050509192919290803560ff1690602001909291905050506126b5565b604051808267ffffffffffffffff1667ffffffffffffffff16815260200191505060405180910390f35b34801561099057600080fd5b506109f8600480360381019080803590602001908201803590602001908080601f0160208091040260200160405190810160405280939291908181526020018383808284378201915050505050509192919290803560ff1690602001909291905050506127de565b604051808215151515815260200191505060405180910390f35b348015610a1e57600080fd5b50610a27612917565b604051808273ffffffffffffffffffffffffffffffffffffffff1673ffffffffffffffffffffffffffffffffffffffff16815260200191505060405180910390f35b348015610a7557600080fd5b50610a946004803603810190808035906020019092919050505061293c565b604051808273ffffffffffffffffffffffffffffffffffffffff1673ffffffffffffffffffffffffffffffffffffffff16815260200191505060405180910390f35b348015610ae257600080fd5b50610b5d600480360381019080803573ffffffffffffffffffffffffffffffffffffffff169060200190929190803590602001908201803590602001908080601f0160208091040260200160405190810160405280939291908181526020018383808284378201915050505050509192919290505050612971565b6040518080602001828103825283818151815260200191508051906020019080838360005b83811015610b9d578082015181840152602081019050610b82565b50505050905090810190601f168015610bca5780820380516001836020036101000a031916815260200191505b509250505060405180910390f35b348015610be457600080fd5b50610bed612df3565b005b348015610bfb57600080fd5b50610c39600480360381019080803568ffffffffffffffffff169060200190929190803567ffffffffffffffff169060200190929190505050612eb9565b604051808260ff1660ff16815260200191505060405180910390f35b348015610c6157600080fd5b50610c96600480360381019080803573ffffffffffffffffffffffffffffffffffffffff169060200190929190505050613199565b005b348015610ca457600080fd5b50610cc3600480360381019080803590602001909291905050506133b0565b6040518080602001828103825283818151815260200191508051906020019080838360005b83811015610d03578082015181840152602081019050610ce8565b50505050905090810190601f168015610d305780820380516001836020036101000a031916815260200191505b509250505060405180910390f35b600080600d60008473ffffffffffffffffffffffffffffffffffffffff1673ffffffffffffffffffffffffffffffffffffffff1681526020019081526020016000205414159050919050565b600080600080600c856040518082805190602001908083835b602083101515610dc85780518252602082019150602081019050602083039250610da3565b6001836020036101000a038019825116818451168082178552505050505050905001915050908152602001604051809103902060009054906101000a900460ff161515610e1457600080fd5b600b856040518082805190602001908083835b602083101515610e4c5780518252602082019150602081019050602083039250610e27565b6001836020036101000a038019825116818451168082178552505050505050905001915050908152602001604051809103902060009054906101000a900473ffffffffffffffffffffffffffffffffffffffff169250600a60008473ffffffffffffffffffffffffffffffffffffffff1673ffffffffffffffffffffffffffffffffffffffff1681526020019081526020016000205491506009600083815260200190815260200160002090508060060160009054906101000a900460ff1660ff169350505050919050565b600080600b836040518082805190602001908083835b602083101515610f535780518252602082019150602081019050602083039250610f2e565b6001836020036101000a038019825116818451168082178552505050505050905001915050908152602001604051809103902060009054906101000a900473ffffffffffffffffffffffffffffffffffffffff16905080915050919050565b600080600080600b866040518082805190602001908083835b602083101515610ff05780518252602082019150602081019050602083039250610fcb565b6001836020036101000a038019825116818451168082178552505050505050905001915050908152602001604051809103902060009054906101000a900473ffffffffffffffffffffffffffffffffffffffff169250600d60008473ffffffffffffffffffffffffffffffffffffffff1673ffffffffffffffffffffffffffffffffffffffff1681526020019081526020016000205491506009600083815260200190815260200160002090508060080160008660ff1660ff16815260200190815260200160002060010160009054906101000a900468ffffffffffffffffff16935050505092915050565b6000600c826040518082805190602001908083835b60208310151561111657805182526020820191506020810190506020830392506110f1565b6001836020036101000a038019825116818451168082178552505050505050905001915050908152602001604051809103902060009054906101000a900460ff169050919050565b6000809054906101000a900473ffffffffffffffffffffffffffffffffffffffff1673ffffffffffffffffffffffffffffffffffffffff163373ffffffffffffffffffffffffffffffffffffffff161415156111b957600080fd5b60001515600760009054906101000a900460ff1615151415156111db57600080fd5b6001600760006101000a81548160ff0219169083151502179055507f6985a02210a168e66602d3235cb6db0e70f92b3ba4d376a33c0f3d9434bff62560405160405180910390a1565b6000809054906101000a900473ffffffffffffffffffffffffffffffffffffffff1673ffffffffffffffffffffffffffffffffffffffff163373ffffffffffffffffffffffffffffffffffffffff1614151561127f57600080fd5b6000809054906101000a900473ffffffffffffffffffffffffffffffffffffffff1673ffffffffffffffffffffffffffffffffffffffff166108fc3073ffffffffffffffffffffffffffffffffffffffff16319081150290604051600060405180830381858888f193505050501580156112fd573d6000803e3d6000fd5b50565b6000806000809054906101000a900473ffffffffffffffffffffffffffffffffffffffff1673ffffffffffffffffffffffffffffffffffffffff163373ffffffffffffffffffffffffffffffffffffffff1614151561135e57600080fd5b60001515600760009054906101000a900460ff16151514151561138057600080fd5b60009150600090505b6004811115801561139e575060001515821515145b15611504578273ffffffffffffffffffffffffffffffffffffffff166001826005811015156113c957fe5b0160009054906101000a900473ffffffffffffffffffffffffffffffffffffffff1673ffffffffffffffffffffffffffffffffffffffff1614156114f757600060018260058110151561141857fe5b0160006101000a81548173ffffffffffffffffffffffffffffffffffffffff021916908373ffffffffffffffffffffffffffffffffffffffff1602179055506000600660008573ffffffffffffffffffffffffffffffffffffffff1673ffffffffffffffffffffffffffffffffffffffff16815260200190815260200160002060006101000a81548160ff021916908315150217905550600191508273ffffffffffffffffffffffffffffffffffffffff167fdca59b6371f7db6faad5c9931588f735722795c7b8ea859824e0afc8b2c70a4f60405160405180910390a25b8080600101915050611389565b6001151582151514151561151457fe5b505050565b60008060009054906101000a900473ffffffffffffffffffffffffffffffffffffffff1673ffffffffffffffffffffffffffffffffffffffff163373ffffffffffffffffffffffffffffffffffffffff1614151561157657600080fd5b60001515600760009054906101000a900460ff16151514151561159857600080fd5b600073ffffffffffffffffffffffffffffffffffffffff168273ffffffffffffffffffffffffffffffffffffffff16141515156115d457600080fd5b6000809054906101000a900473ffffffffffffffffffffffffffffffffffffffff169050816000806101000a81548173ffffffffffffffffffffffffffffffffffffffff021916908373ffffffffffffffffffffffffffffffffffffffff1602179055508073ffffffffffffffffffffffffffffffffffffffff168273ffffffffffffffffffffffffffffffffffffffff167f1f8d7d25344642d919d55999e4664aa452a5f424bc0936ceb9c2b300db7dcbd960405160405180910390a35050565b6000806000806000600c866040518082805190602001908083835b6020831015156116d657805182526020820191506020810190506020830392506116b1565b6001836020036101000a038019825116818451168082178552505050505050905001915050908152602001604051809103902060009054906101000a900460ff16151561172257600080fd5b600b866040518082805190602001908083835b60208310151561175a5780518252602082019150602081019050602083039250611735565b6001836020036101000a038019825116818451168082178552505050505050905001915050908152602001604051809103902060009054906101000a900473ffffffffffffffffffffffffffffffffffffffff169350600a60008573ffffffffffffffffffffffffffffffffffffffff1673ffffffffffffffffffffffffffffffffffffffff1681526020019081526020016000205492506009600084815260200190815260200160002091508160080160008860ff1660ff16815260200190815260200160002090508060010160119054906101000a900460ff1694505050505092915050565b6000806000806001861015801561185a575060058611155b151561186557600080fd5b600b856040518082805190602001908083835b60208310151561189d5780518252602082019150602081019050602083039250611878565b6001836020036101000a038019825116818451168082178552505050505050905001915050908152602001604051809103902060009054906101000a900473ffffffffffffffffffffffffffffffffffffffff169250600a60008473ffffffffffffffffffffffffffffffffffffffff1673ffffffffffffffffffffffffffffffffffffffff16815260200190815260200160002054915060096000838152602001908152602001600020905060006006111561198e57806000018660068110151561196557fe5b0160009054906101000a900473ffffffffffffffffffffffffffffffffffffffff169350611993565b600093505b50505092915050565b60008060008060009054906101000a900473ffffffffffffffffffffffffffffffffffffffff1673ffffffffffffffffffffffffffffffffffffffff163373ffffffffffffffffffffffffffffffffffffffff161415156119fc57600080fd5b60001515600760009054906101000a900460ff161515141515611a1e57600080fd5b600073ffffffffffffffffffffffffffffffffffffffff168473ffffffffffffffffffffffffffffffffffffffff1614151515611a5a57600080fd5b5b600483111515611ae5578373ffffffffffffffffffffffffffffffffffffffff16600184600581101515611a8b57fe5b0160009054906101000a900473ffffffffffffffffffffffffffffffffffffffff1673ffffffffffffffffffffffffffffffffffffffff161415611ada5760026001141515611ad957600080fd5b5b826001019250611a5b565b600091505b60048111158015611aff575060001515821515145b15611c4f576000600182600581101515611b1557fe5b0160009054906101000a900473ffffffffffffffffffffffffffffffffffffffff1673ffffffffffffffffffffffffffffffffffffffff161415611c425783600182600581101515611b6357fe5b0160006101000a81548173ffffffffffffffffffffffffffffffffffffffff021916908373ffffffffffffffffffffffffffffffffffffffff1602179055506001600660008673ffffffffffffffffffffffffffffffffffffffff1673ffffffffffffffffffffffffffffffffffffffff16815260200190815260200160002060006101000a81548160ff021916908315150217905550600191508373ffffffffffffffffffffffffffffffffffffffff167f39e7d4b9ba48f55a740a5192809dbc498fa12724c030b37dab126a3f6774c0f360405160405180910390a25b8080600101915050611aea565b60011515821515141515611c5f57fe5b50505050565b6000806000809054906101000a900473ffffffffffffffffffffffffffffffffffffffff1673ffffffffffffffffffffffffffffffffffffffff163373ffffffffffffffffffffffffffffffffffffffff161480611d13575060011515600660003373ffffffffffffffffffffffffffffffffffffffff1673ffffffffffffffffffffffffffffffffffffffff16815260200190815260200160002060009054906101000a900460ff161515145b1515611d1e57600080fd5b600b836040518082805190602001908083835b602083101515611d565780518252602082019150602081019050602083039250611d31565b6001836020036101000a038019825116818451168082178552505050505050905001915050908152602001604051809103902060009054906101000a900473ffffffffffffffffffffffffffffffffffffffff1691506000600a60008473ffffffffffffffffffffffffffffffffffffffff1673ffffffffffffffffffffffffffffffffffffffff1681526020019081526020016000205414151515611dfb57600080fd5b6000600c846040518082805190602001908083835b602083101515611e355780518252602082019150602081019050602083039250611e10565b6001836020036101000a038019825116818451168082178552505050505050905001915050908152602001604051809103902060006101000a81548160ff021916908315150217905550600a60008373ffffffffffffffffffffffffffffffffffffffff1673ffffffffffffffffffffffffffffffffffffffff1681526020019081526020016000205490506009600082815260200190815260200160002060008082016000611ee591906134bd565b6006820160006101000a81549060ff0219169055600782016000611f0991906134d0565b50508173ffffffffffffffffffffffffffffffffffffffff167f99834834070224a7bc8eee507b8f041592b6cd80dd705f79f81b42487b0b460d60405160405180910390a26000600a60008473ffffffffffffffffffffffffffffffffffffffff1673ffffffffffffffffffffffffffffffffffffffff168152602001908152602001600020819055508173ffffffffffffffffffffffffffffffffffffffff167fe6547a945aa917d8f8b8a71a98062b03570c5ab79d6f47aa64dab5ae6483e0c860405160405180910390a2505050565b6000801515600760009054906101000a900460ff161515141515611ffe57600080fd5b600660008373ffffffffffffffffffffffffffffffffffffffff1673ffffffffffffffffffffffffffffffffffffffff16815260200190815260200160002060009054906101000a900460ff169050919050565b600760009054906101000a900460ff1681565b600080600080600a60003373ffffffffffffffffffffffffffffffffffffffff1673ffffffffffffffffffffffffffffffffffffffff16815260200190815260200160002054141515156120b857600080fd5b60001515600760009054906101000a900460ff1615151415156120da57600080fd5b600a60003373ffffffffffffffffffffffffffffffffffffffff1673ffffffffffffffffffffffffffffffffffffffff16815260200190815260200160002054915060096000838152602001908152602001600020905060008568ffffffffffffffffff161015151561214c57600080fd5b600015158160080160008660ff1660ff16815260200190815260200160002060010160119054906101000a900460ff16151514151561218a57600080fd5b848160080160008660ff1660ff16815260200190815260200160002060010160006101000a81548168ffffffffffffffffff021916908368ffffffffffffffffff160217905550849250505092915050565b600080600080600080600d60003373ffffffffffffffffffffffffffffffffffffffff1673ffffffffffffffffffffffffffffffffffffffff168152602001908152602001600020541415151561223257600080fd5b60001515600760009054906101000a900460ff16151514151561225457600080fd5b600d60003373ffffffffffffffffffffffffffffffffffffffff1673ffffffffffffffffffffffffffffffffffffffff168152602001908152602001600020549350600960008581526020019081526020016000209250858360080160008960ff1660ff16815260200190815260200160002060010160098282829054906101000a900467ffffffffffffffff160192506101000a81548167ffffffffffffffff021916908367ffffffffffffffff1602179055508260080160008860ff1660ff16815260200190815260200160002060010160119054906101000a900460ff1691506000151582151514151561234a57600080fd5b5b8567ffffffffffffffff168110156123d7578260080160008860ff1660ff1681526020019081526020016000206000016000908060018154018082558091505090600182039060005260206000209060209182820401919006909192909190916101000a81548160ff021916908360038111156123c457fe5b021790555050808060010191505061234b565b8660ff167fcd54f669064af9fb6802bd64bd9ae5303d604527aec88e9024bc9517c945fab78460080160008a60ff1660ff16815260200190815260200160002060010160099054906101000a900467ffffffffffffffff16604051808267ffffffffffffffff1667ffffffffffffffff16815260200191505060405180910390a28260080160008860ff1660ff16815260200190815260200160002060010160099054906101000a900467ffffffffffffffff1694505050505092915050565b600a6020528060005260406000206000915090505481565b60085481565b60008060008060001515600760009054906101000a900460ff1615151415156124dd57600080fd5b6000600a60003373ffffffffffffffffffffffffffffffffffffffff1673ffffffffffffffffffffffffffffffffffffffff168152602001908152602001600020541415151561252c57600080fd5b600a60003373ffffffffffffffffffffffffffffffffffffffff1673ffffffffffffffffffffffffffffffffffffffff16815260200190815260200160002054935060096000858152602001908152602001600020925060009150600190505b600581111580156125a1575060001515821515145b1561269e57600083600001826006811015156125b957fe5b0160009054906101000a900473ffffffffffffffffffffffffffffffffffffffff1673ffffffffffffffffffffffffffffffffffffffff161415612691576001915084836000018260068110151561260d57fe5b0160006101000a81548173ffffffffffffffffffffffffffffffffffffffff021916908373ffffffffffffffffffffffffffffffffffffffff16021790555083600d60008773ffffffffffffffffffffffffffffffffffffffff1673ffffffffffffffffffffffffffffffffffffffff168152602001908152602001600020819055505b808060010191505061258c565b600115158215151415156126ae57fe5b5050505050565b600080600080600b866040518082805190602001908083835b6020831015156126f357805182526020820191506020810190506020830392506126ce565b6001836020036101000a038019825116818451168082178552505050505050905001915050908152602001604051809103902060009054906101000a900473ffffffffffffffffffffffffffffffffffffffff169250600d60008473ffffffffffffffffffffffffffffffffffffffff1673ffffffffffffffffffffffffffffffffffffffff1681526020019081526020016000205491506009600083815260200190815260200160002090508060080160008660ff1660ff16815260200190815260200160002060010160099054906101000a900467ffffffffffffffff16935050505092915050565b600080600080600b866040518082805190602001908083835b60208310151561281c57805182526020820191506020810190506020830392506127f7565b6001836020036101000a038019825116818451168082178552505050505050905001915050908152602001604051809103902060009054906101000a900473ffffffffffffffffffffffffffffffffffffffff169250600d60008473ffffffffffffffffffffffffffffffffffffffff1673ffffffffffffffffffffffffffffffffffffffff16815260200190815260200160002054915060096000838152602001908152602001600020905060008160080160008760ff1660ff16815260200190815260200160002060010160009054906101000a900468ffffffffffffffffff1668ffffffffffffffffff161415935050505092915050565b6000809054906101000a900473ffffffffffffffffffffffffffffffffffffffff1681565b60018160058110151561294b57fe5b016000915054906101000a900473ffffffffffffffffffffffffffffffffffffffff1681565b606061297b613518565b61298361353b565b6000809054906101000a900473ffffffffffffffffffffffffffffffffffffffff1673ffffffffffffffffffffffffffffffffffffffff163373ffffffffffffffffffffffffffffffffffffffff161480612a2e575060011515600660003373ffffffffffffffffffffffffffffffffffffffff1673ffffffffffffffffffffffffffffffffffffffff16815260200190815260200160002060009054906101000a900460ff161515145b1515612a3957600080fd5b60001515600760009054906101000a900460ff161515141515612a5b57600080fd5b6000600a60008773ffffffffffffffffffffffffffffffffffffffff1673ffffffffffffffffffffffffffffffffffffffff16815260200190815260200160002054141515612aa957600080fd5b60001515600c856040518082805190602001908083835b602083101515612ae55780518252602082019150602081019050602083039250612ac0565b6001836020036101000a038019825116818451168082178552505050505050905001915050908152602001604051809103902060009054906101000a900460ff161515141515612b3457600080fd5b606060405190810160405280838152602001600060ff168152602001858152509050600854600a60008773ffffffffffffffffffffffffffffffffffffffff1673ffffffffffffffffffffffffffffffffffffffff16815260200190815260200160002081905550600854600d60008773ffffffffffffffffffffffffffffffffffffffff1673ffffffffffffffffffffffffffffffffffffffff1681526020019081526020016000208190555080600960006008548152602001908152602001600020600082015181600001906006612c0f929190613567565b5060208201518160060160006101000a81548160ff021916908360ff1602179055506040820151816007019080519060200190612c4d9291906135e4565b5090505060086000815480929190600101919050555084600b82604001516040518082805190602001908083835b602083101515612ca05780518252602082019150602081019050602083039250612c7b565b6001836020036101000a038019825116818451168082178552505050505050905001915050908152602001604051809103902060006101000a81548173ffffffffffffffffffffffffffffffffffffffff021916908373ffffffffffffffffffffffffffffffffffffffff1602179055506001600c82604001516040518082805190602001908083835b602083101515612d4f5780518252602082019150602081019050602083039250612d2a565b6001836020036101000a038019825116818451168082178552505050505050905001915050908152602001604051809103902060006101000a81548160ff0219169083151502179055508481600001516000600681101515612dad57fe5b602002019073ffffffffffffffffffffffffffffffffffffffff16908173ffffffffffffffffffffffffffffffffffffffff168152505080604001519250505092915050565b6000809054906101000a900473ffffffffffffffffffffffffffffffffffffffff1673ffffffffffffffffffffffffffffffffffffffff163373ffffffffffffffffffffffffffffffffffffffff16141515612e4e57600080fd5b60011515600760009054906101000a900460ff161515141515612e7057600080fd5b6000600760006101000a81548160ff0219169083151502179055507f7805862f689e2f13df9f062ff482ad3ad112aca9e0847911ed832e158c525b3360405160405180910390a1565b6000806000612ec6613664565b6000801515600760009054906101000a900460ff161515141515612ee957600080fd5b6000600d60003373ffffffffffffffffffffffffffffffffffffffff1673ffffffffffffffffffffffffffffffffffffffff1681526020019081526020016000205414151515612f3857600080fd5b600d60003373ffffffffffffffffffffffffffffffffffffffff1673ffffffffffffffffffffffffffffffffffffffff1681526020019081526020016000205493506009600085815260200190815260200160002092506080604051908101604052806000604051908082528060200260200182016040528015612fcb5781602001602082028038833980820191505090505b5081526020018868ffffffffffffffffff1681526020018767ffffffffffffffff1681526020016000151581525091508260060160009054906101000a900460ff169450818360080160008760ff1660ff16815260200190815260200160002060008201518160000190805190602001906130479291906136a4565b5060208201518160010160006101000a81548168ffffffffffffffffff021916908368ffffffffffffffffff16021790555060408201518160010160096101000a81548167ffffffffffffffff021916908367ffffffffffffffff16021790555060608201518160010160116101000a81548160ff02191690831515021790555090505082600601600081819054906101000a900460ff168092919060010191906101000a81548160ff021916908360ff160217905550505b8567ffffffffffffffff1681101561318c578260080160008660ff1660ff1681526020019081526020016000206000016000908060018154018082558091505090600182039060005260206000209060209182820401919006909192909190916101000a81548160ff0219169083600381111561317957fe5b0217905550508080600101915050613100565b8494505050505092915050565b6000806000806000600a60003373ffffffffffffffffffffffffffffffffffffffff1673ffffffffffffffffffffffffffffffffffffffff16815260200190815260200160002054141515156131ee57600080fd5b60001515600760009054906101000a900460ff16151514151561321057600080fd5b600a60003373ffffffffffffffffffffffffffffffffffffffff1673ffffffffffffffffffffffffffffffffffffffff16815260200190815260200160002054935060096000858152602001908152602001600020925060009150600190505b60058111158015613285575060001515821515145b15613399578473ffffffffffffffffffffffffffffffffffffffff1683600001826006811015156132b257fe5b0160009054906101000a900473ffffffffffffffffffffffffffffffffffffffff1673ffffffffffffffffffffffffffffffffffffffff16141561338c576000836000018260068110151561330357fe5b0160006101000a81548173ffffffffffffffffffffffffffffffffffffffff021916908373ffffffffffffffffffffffffffffffffffffffff1602179055506000600d60008773ffffffffffffffffffffffffffffffffffffffff1673ffffffffffffffffffffffffffffffffffffffff16815260200190815260200160002081905550600191505b8080600101915050613270565b600115158215151415156133a957fe5b5050505050565b6060600080600160085414151561347d57600960008581526020019081526020016000209150816007019050808054600181600116156101000203166002900480601f0160208091040260200160405190810160405280929190818152602001828054600181600116156101000203166002900480156134715780601f1061344657610100808354040283529160200191613471565b820191906000526020600020905b81548152906001019060200180831161345457829003601f168201915b505050505092506134b6565b6040805190810160405280600181526020017f300000000000000000000000000000000000000000000000000000000000000081525092505b5050919050565b5080600601906134cd9190613753565b50565b50805460018160011615610100020316600290046000825580601f106134f65750613515565b601f0160209004906000526020600020908101906135149190613753565b5b50565b60c060405190810160405280600690602082028038833980820191505090505090565b61010060405190810160405280613550613778565b8152602001600060ff168152602001606081525090565b82600681019282156135d3579160200282015b828111156135d25782518260006101000a81548173ffffffffffffffffffffffffffffffffffffffff021916908373ffffffffffffffffffffffffffffffffffffffff1602179055509160200191906001019061357a565b5b5090506135e0919061379b565b5090565b828054600181600116156101000203166002900490600052602060002090601f016020900481019282601f1061362557805160ff1916838001178555613653565b82800160010185558215613653579182015b82811115613652578251825591602001919060010190613637565b5b5090506136609190613753565b5090565b60806040519081016040528060608152602001600068ffffffffffffffffff168152602001600067ffffffffffffffff1681526020016000151581525090565b82805482825590600052602060002090601f016020900481019282156137425791602002820160005b8382111561371357835183826101000a81548160ff021916908360038111156136f257fe5b021790555092602001926001016020816000010492830192600103026136cd565b80156137405782816101000a81549060ff0219169055600101602081600001049283019260010302613713565b505b50905061374f91906137de565b5090565b61377591905b80821115613771576000816000905550600101613759565b5090565b90565b60c060405190810160405280600690602082028038833980820191505090505090565b6137db91905b808211156137d757600081816101000a81549073ffffffffffffffffffffffffffffffffffffffff0219169055506001016137a1565b5090565b90565b61380b91905b8082111561380757600081816101000a81549060ff0219169055506001016137e4565b5090565b905600a165627a7a72305820a94d1cfbdbde266dc864165052bd1e54447a5fccfb79a78beb5d1185ae25dc780029",
  "source": "pragma solidity ^0.4.24;\n\nimport \"./StoreBase.sol\";\n\n/** @dev Contract for storeOwner management. This includes product management,\n  * store closure by owner and store removal by owner. This contract also\n  * manages product inventory and specific instances of a product type.\n  */\ncontract StoreManagement is StoreBase{\n\n  /// @dev Emit when a product with set price is created.\n  event LogNewSetPriceProduct(uint8 _productId,string indexed _storeName);\n  /// @dev Emit when inventory of a product is increased.\n  event LogAddedInventory(uint8 indexed _productId,uint64 inventory);\n  /// @dev Emit when a product is no longer being sold\n  event LogProductRemoved(address indexed _ownerAddress,string indexed _storeName);\n  /// @dev Let the world know of price changes\n  event LogPriceChange(uint8 indexed _productId,string indexed _storeName,uint72 _newPrice);\n\n\n\n\n\n  /// @dev if they are an admin then mapping won't equal 0. Specific store\n  /// set within function\n  modifier onlyStoreAdmin(){\n    require(storeAdminToStoreId[msg.sender] !=0);\n    _;\n  }\n\n  /// @dev Uses store mappings to determine if the msg.sender is the owner.\n  modifier onlyStoreOwner(){\n    // if they have a store the mapping won't equal zero\n    require(OwnerToStoreId[msg.sender] != 0);\n    _;\n  }\n\n\n/*\n***** Store Admin Management *****\n*/\n\n\n  function getIsStoreAdmin(address adminAddress)public constant returns(bool){\n    return (storeAdminToStoreId[adminAddress] != 0);\n  }\n\n  /// @dev Allow the store owner or its admins to add another admin to the store.\n  /// The function checks that the address isn't already an admin and ensures that\n  /// there aren't already admins. It starts at index 1 since index 0 is always\n  /// for the store owner.\n  /// @param _NewAdminAddress : address of the soon to be admin.\n  function createStoreAdmin(address _NewAdminAddress)\n  public\n  whenNotPaused\n  onlyStoreOwner{\n    // retrieve the store based off of who is calling.\n    uint storeId = OwnerToStoreId[msg.sender];\n    Store storage current = storeIdToStore[storeId];\n\n    bool adminCreated = false;\n    for(uint i=1; i <= 5 && adminCreated == false; i++){\n      if (current.storeAdmins[i] == 0){\n        adminCreated = true;\n        current.storeAdmins[i] = _NewAdminAddress;\n        storeAdminToStoreId[_NewAdminAddress] = storeId;\n      }\n    }\n\n    // This assert is used to prevent a silent failure of this function call\n    assert(adminCreated == true);\n\n  }\n\n  /// @dev This function removes an admin from the store. It can only be called\n  /// by the owner of the store. The admin array isn't restructured because\n  /// the order of admins is insignificant outside of the 0-index == owner.\n  /// @param _adminAddress : the address of the admin being removed.\n  function removeStoreAdmin(address _adminAddress)\n  public\n  onlyStoreOwner\n  whenNotPaused{\n    // get current store\n    uint storeId = OwnerToStoreId[msg.sender];\n    Store storage current = storeIdToStore[storeId];\n\n    bool adminRemoved = false;\n    uint i = 1;\n    // start at 1-index because the 0-index is reserved for the owner\n    for(; i<=5 && adminRemoved == false; i++){\n      if(current.storeAdmins[i] == _adminAddress){\n        current.storeAdmins[i] = 0;\n        storeAdminToStoreId[_adminAddress] = 0;\n        adminRemoved = true;\n      }\n    }\n\n    // want to sensure there isn't a silent failure of this function call.\n     assert(adminRemoved == true);\n\n  //  emit LogAdminRemoved(current.storeName, _adminAddress);\n  }\n\n/*\n****** Product Management *****\n*/\n\n  /// @dev If price ==0 its assumed it no longer exists\n  function getProductExists(string storeName,uint8 productId)public constant returns(bool){\n    address owner = StoreNameToOwner[storeName];\n    uint storeId = storeAdminToStoreId[owner];\n    Store storage current = storeIdToStore[storeId];\n    return (current.products[productId].price != 0);\n\n  }\n  /// @dev This function creates a new product which is sold for a set price.\n  /// It is added to the products mapping for the store and can only be accessed\n  /// when the contract isn't paused. Security concerns are present if an\n  /// owner acts maliciously and attempts to add hundreds of products to slow\n  /// down Maats Network and cause errors\n  /// notice: immediately makes product forSale\n  /// @param _price : the price of the new product\n  /// @param _inventory : the initial inventory the store has on hand of the product\n  /// @return _productId : returns the key for the products mapping.\n  function createSetPriceProduct(\n    uint72 _price,\n    uint64 _inventory\n    )\n    public\n    whenNotPaused\n    onlyStoreAdmin\n    returns(uint8 _productId){\n      // fetch current store based off of the msg.sender\n      uint storeId = storeAdminToStoreId[msg.sender];\n      Store storage current = storeIdToStore[storeId];\n\n      // the product will be stored in the products mapping as to avoid\n      // dissapearing during deallocation of local memory variables.\n      Product memory _product = Product({\n        price: _price,\n        items: new ItemStatus[](0),\n        inventory: _inventory,\n        auction: false\n        });\n\n      // The identifier for a product is equal to the current count of products\n      // before this product was created. It is then added to the mapping and\n      // the count of total products in the store is incremented.\n      _productId = current.prodCount;\n      current.products[_productId] = _product;\n      current.prodCount++;\n\n      // fill the items array with initial inventory and set to ForSale\n      for(uint i; i <_inventory; i++){\n        current.products[_productId].items.push(ItemStatus.ForSale);\n      }\n\n      // Let the world know there's a new product on the store!!\n    //  emit LogNewSetPriceProduct(_productId, current.storeName);\n      return(_productId);\n    }\n\n  // Just for testing\n  function getCurrentInventory(string storeName, uint8 productId) public constant returns(uint64){\n    address owner = StoreNameToOwner[storeName];\n    uint storeId = storeAdminToStoreId[owner];\n    Store storage current = storeIdToStore[storeId];\n    return current.products[productId].inventory;\n  }\n\n  /// @dev Add inventory to a product and manage inventory variables.\n  /// notice Added inventory for set-price becomes for sale immediatley\n  /// Can't add inventory for auctions, new product created instead\n  /// @param _productId : the product type which is getting new inventory\n  /// @param _newInventory : the amount of new inventory being added\n  /// @return current.products[_productId].inventory : the now total inventory\n  function addInventory(uint8 _productId,uint64 _newInventory)\n    public\n    onlyStoreAdmin\n    whenNotPaused\n    returns(uint64){\n      // fetch current store based off of msg.sender\n      uint storeId = storeAdminToStoreId[msg.sender];\n      Store storage current = storeIdToStore[storeId];\n      // add the new inventory to the current amount of inventory\n      current.products[_productId].inventory += _newInventory;\n      // Ensure that product isn't of type auction since you can't add inventory\n      // to a single item on auction.\n      bool _isAuction = current.products[_productId].auction;\n      require(_isAuction == false);\n\n      // immediately set new inventory up for sale.\n      for(uint i; i <_newInventory; i++){\n        current.products[_productId].items.push(ItemStatus.ForSale);\n      }\n\n      emit LogAddedInventory(_productId, current.products[_productId].inventory);\n      return(current.products[_productId].inventory);\n  }\n\n  function getCurrentSetPrice(string storeName,uint8 productId)public constant returns(uint72){\n    address owner = StoreNameToOwner[storeName];\n    uint storeId = storeAdminToStoreId[owner];\n    Store storage current = storeIdToStore[storeId];\n    return current.products[productId].price;\n  }\n  /// @dev Change the price of an existing product. Ensure that the new price\n  /// is not larger than 0 (0 is allowed if people are feeling generous).\n  /// notice You can't change the price of an auction item since those items\n  /// follow their own logic.\n  /// @param _newPrice : the new price for the product\n  /// @param _productId : the product which is experiencing the price change.\n  function changePrice(uint72 _newPrice,uint8 _productId)\n    public\n    onlyStoreOwner\n    whenNotPaused\n    returns(uint72){\n      uint storeId = OwnerToStoreId[msg.sender];\n      Store storage current = storeIdToStore[storeId];\n      require(_newPrice >= 0);\n      // can't change the price of an auction item\n      require(current.products[_productId].auction == false);\n      // change price\n      current.products[_productId].price = _newPrice;\n      // Let the world know about the price change!!\n    //  emit LogPriceChange(_productId, current.storeName, _newPrice);\n      return(_newPrice);\n  }\n\n  function getStoreAdmins(uint index,string storeName)public constant returns(address){\n    require(index >=1 && index <=5);\n    address owner = StoreNameToOwner[storeName];\n    uint storeId = OwnerToStoreId[owner];\n    Store storage _store = storeIdToStore[storeId];\n    if(_store.storeAdmins.length > 0){\n      return(_store.storeAdmins[index]);\n    }\n    return(address(0));\n  }\n\n  function getNumProducts(string _storeName) public constant returns(uint){\n    require(storeExists[_storeName]);\n\n    address _owner = StoreNameToOwner[_storeName];\n    uint storeId = OwnerToStoreId[_owner];\n    Store storage _store = storeIdToStore[storeId];\n    return(_store.prodCount);\n  }\n\n  function getProductType(uint8 _productId,string _storeName) public constant returns(bool){\n    require(storeExists[_storeName]);\n    address _owner = StoreNameToOwner[_storeName];\n    uint storeId = OwnerToStoreId[_owner];\n    Store storage _store = storeIdToStore[storeId];\n    Product storage _product = _store.products[_productId];\n    return(_product.auction);\n  }\n\n  function getOwnerFromName(string _storeName) public constant returns(address){\n    address _owner = StoreNameToOwner[_storeName];\n    return(_owner);\n  }\n\n}\n",
  "sourcePath": "/Users/ericbrown/Documents/Blockchain/ConsenSysCourse/GitHub/Maats/contracts/StoreManagement.sol",
  "compiler": {
    "name": "solc",
    "version": "0.4.24+commit.e67f0147.Emscripten.clang"
  },
  "schemaVersion": "2.0.1",
  "updatedAt": "2018-08-15T19:57:33.618Z"
}