{
  "contractName": "StorePurchasing",
  "abi": [
    {
      "constant": true,
      "inputs": [
        {
          "name": "",
          "type": "address"
        }
      ],
      "name": "OwnerToStore",
      "outputs": [
        {
          "name": "storeName",
          "type": "string"
        },
        {
          "name": "open",
          "type": "bool"
        },
        {
          "name": "prodCount",
          "type": "uint8"
        }
      ],
      "payable": false,
      "stateMutability": "view",
      "type": "function"
    },
    {
      "constant": true,
      "inputs": [
        {
          "name": "",
          "type": "address"
        }
      ],
      "name": "purchaserToItem",
      "outputs": [
        {
          "name": "",
          "type": "uint256"
        }
      ],
      "payable": false,
      "stateMutability": "view",
      "type": "function"
    },
    {
      "constant": false,
      "inputs": [],
      "name": "withdraw",
      "outputs": [],
      "payable": false,
      "stateMutability": "nonpayable",
      "type": "function"
    },
    {
      "constant": false,
      "inputs": [],
      "name": "unpause",
      "outputs": [],
      "payable": false,
      "stateMutability": "nonpayable",
      "type": "function"
    },
    {
      "constant": false,
      "inputs": [
        {
          "name": "_revokedAdmin",
          "type": "address"
        }
      ],
      "name": "removeMaatsAdmin",
      "outputs": [],
      "payable": false,
      "stateMutability": "nonpayable",
      "type": "function"
    },
    {
      "constant": true,
      "inputs": [
        {
          "name": "",
          "type": "uint256"
        }
      ],
      "name": "storeOwners",
      "outputs": [
        {
          "name": "ownerAddress",
          "type": "address"
        },
        {
          "name": "ownerRanking",
          "type": "uint128"
        }
      ],
      "payable": false,
      "stateMutability": "view",
      "type": "function"
    },
    {
      "constant": true,
      "inputs": [
        {
          "name": "",
          "type": "address"
        }
      ],
      "name": "isStoreOwner",
      "outputs": [
        {
          "name": "",
          "type": "bool"
        }
      ],
      "payable": false,
      "stateMutability": "view",
      "type": "function"
    },
    {
      "constant": false,
      "inputs": [
        {
          "name": "_newOwner",
          "type": "address"
        }
      ],
      "name": "setMaatsOwner",
      "outputs": [],
      "payable": false,
      "stateMutability": "nonpayable",
      "type": "function"
    },
    {
      "constant": false,
      "inputs": [
        {
          "name": "_badOwner",
          "type": "address"
        }
      ],
      "name": "removeStoreOwner",
      "outputs": [
        {
          "name": "",
          "type": "bool"
        }
      ],
      "payable": false,
      "stateMutability": "nonpayable",
      "type": "function"
    },
    {
      "constant": false,
      "inputs": [
        {
          "name": "_newAdmin",
          "type": "address"
        }
      ],
      "name": "createMaatsAdmin",
      "outputs": [],
      "payable": false,
      "stateMutability": "nonpayable",
      "type": "function"
    },
    {
      "constant": false,
      "inputs": [],
      "name": "openStore",
      "outputs": [
        {
          "name": "",
          "type": "bool"
        }
      ],
      "payable": false,
      "stateMutability": "nonpayable",
      "type": "function"
    },
    {
      "constant": false,
      "inputs": [],
      "name": "pause",
      "outputs": [],
      "payable": false,
      "stateMutability": "nonpayable",
      "type": "function"
    },
    {
      "constant": false,
      "inputs": [
        {
          "name": "_newPrice",
          "type": "uint128"
        },
        {
          "name": "_productId",
          "type": "uint8"
        }
      ],
      "name": "changePrice",
      "outputs": [
        {
          "name": "",
          "type": "uint128"
        }
      ],
      "payable": false,
      "stateMutability": "nonpayable",
      "type": "function"
    },
    {
      "constant": false,
      "inputs": [
        {
          "name": "_productId",
          "type": "uint8"
        },
        {
          "name": "_newInventory",
          "type": "uint64"
        }
      ],
      "name": "addInventory",
      "outputs": [
        {
          "name": "",
          "type": "uint64"
        }
      ],
      "payable": false,
      "stateMutability": "nonpayable",
      "type": "function"
    },
    {
      "constant": false,
      "inputs": [
        {
          "name": "_price",
          "type": "uint128"
        },
        {
          "name": "_inventory",
          "type": "uint64"
        }
      ],
      "name": "createSetPriceProduct",
      "outputs": [
        {
          "name": "_productId",
          "type": "uint8"
        }
      ],
      "payable": false,
      "stateMutability": "nonpayable",
      "type": "function"
    },
    {
      "constant": true,
      "inputs": [
        {
          "name": "",
          "type": "address"
        }
      ],
      "name": "createdStore",
      "outputs": [
        {
          "name": "",
          "type": "bool"
        }
      ],
      "payable": false,
      "stateMutability": "view",
      "type": "function"
    },
    {
      "constant": false,
      "inputs": [
        {
          "name": "_NewAdminAddress",
          "type": "address"
        }
      ],
      "name": "createStoreAdmin",
      "outputs": [],
      "payable": false,
      "stateMutability": "nonpayable",
      "type": "function"
    },
    {
      "constant": false,
      "inputs": [
        {
          "name": "_newOwner",
          "type": "address"
        }
      ],
      "name": "makeStoreOwner",
      "outputs": [
        {
          "name": "",
          "type": "uint256"
        }
      ],
      "payable": false,
      "stateMutability": "nonpayable",
      "type": "function"
    },
    {
      "constant": false,
      "inputs": [
        {
          "name": "_storeName",
          "type": "string"
        }
      ],
      "name": "createStore",
      "outputs": [
        {
          "name": "",
          "type": "string"
        }
      ],
      "payable": false,
      "stateMutability": "nonpayable",
      "type": "function"
    },
    {
      "constant": true,
      "inputs": [],
      "name": "escrow",
      "outputs": [
        {
          "name": "",
          "type": "address"
        }
      ],
      "payable": false,
      "stateMutability": "view",
      "type": "function"
    },
    {
      "constant": true,
      "inputs": [],
      "name": "maatsOwner",
      "outputs": [
        {
          "name": "",
          "type": "address"
        }
      ],
      "payable": false,
      "stateMutability": "view",
      "type": "function"
    },
    {
      "constant": false,
      "inputs": [
        {
          "name": "_adminAddress",
          "type": "address"
        }
      ],
      "name": "removeStoreAdmin",
      "outputs": [],
      "payable": false,
      "stateMutability": "nonpayable",
      "type": "function"
    },
    {
      "anonymous": false,
      "inputs": [
        {
          "indexed": true,
          "name": "_productId",
          "type": "uint256"
        },
        {
          "indexed": true,
          "name": "_purchaser",
          "type": "address"
        },
        {
          "indexed": false,
          "name": "_storeName",
          "type": "string"
        }
      ],
      "name": "LogItemBought",
      "type": "event"
    },
    {
      "anonymous": false,
      "inputs": [
        {
          "indexed": true,
          "name": "_storeName",
          "type": "string"
        },
        {
          "indexed": true,
          "name": "_productId",
          "type": "uint256"
        },
        {
          "indexed": false,
          "name": "remaining",
          "type": "uint64"
        }
      ],
      "name": "LogInventoryLow",
      "type": "event"
    },
    {
      "anonymous": false,
      "inputs": [
        {
          "indexed": true,
          "name": "_storeName",
          "type": "string"
        },
        {
          "indexed": true,
          "name": "_productId",
          "type": "uint256"
        }
      ],
      "name": "LogInventoryOut",
      "type": "event"
    },
    {
      "anonymous": false,
      "inputs": [
        {
          "indexed": true,
          "name": "_index",
          "type": "uint256"
        },
        {
          "indexed": true,
          "name": "_productId",
          "type": "uint256"
        },
        {
          "indexed": false,
          "name": "_storeName",
          "type": "string"
        }
      ],
      "name": "LogItemShipped",
      "type": "event"
    },
    {
      "anonymous": false,
      "inputs": [
        {
          "indexed": true,
          "name": "_ownerAddress",
          "type": "address"
        },
        {
          "indexed": true,
          "name": "_storeName",
          "type": "string"
        }
      ],
      "name": "LogStoreOpened",
      "type": "event"
    },
    {
      "anonymous": false,
      "inputs": [
        {
          "indexed": false,
          "name": "_productId",
          "type": "uint256"
        },
        {
          "indexed": true,
          "name": "_storeName",
          "type": "string"
        }
      ],
      "name": "LogNewSetPriceProduct",
      "type": "event"
    },
    {
      "anonymous": false,
      "inputs": [
        {
          "indexed": true,
          "name": "_productId",
          "type": "uint256"
        },
        {
          "indexed": false,
          "name": "inventory",
          "type": "uint64"
        }
      ],
      "name": "LogAddedInventory",
      "type": "event"
    },
    {
      "anonymous": false,
      "inputs": [
        {
          "indexed": true,
          "name": "_ownerAddress",
          "type": "address"
        },
        {
          "indexed": true,
          "name": "_storeName",
          "type": "string"
        }
      ],
      "name": "LogProductRemoved",
      "type": "event"
    },
    {
      "anonymous": false,
      "inputs": [
        {
          "indexed": true,
          "name": "_productId",
          "type": "uint256"
        },
        {
          "indexed": true,
          "name": "_storeName",
          "type": "string"
        },
        {
          "indexed": false,
          "name": "_newPrice",
          "type": "uint128"
        }
      ],
      "name": "LogPriceChange",
      "type": "event"
    },
    {
      "anonymous": false,
      "inputs": [
        {
          "indexed": true,
          "name": "_storeName",
          "type": "string"
        },
        {
          "indexed": false,
          "name": "adminAddress",
          "type": "address"
        }
      ],
      "name": "LogNewAdmin",
      "type": "event"
    },
    {
      "anonymous": false,
      "inputs": [
        {
          "indexed": true,
          "name": "_storeName",
          "type": "string"
        },
        {
          "indexed": false,
          "name": "adminAddress",
          "type": "address"
        }
      ],
      "name": "LogAdminRemoved",
      "type": "event"
    },
    {
      "anonymous": false,
      "inputs": [
        {
          "indexed": true,
          "name": "_ownerAddress",
          "type": "address"
        },
        {
          "indexed": true,
          "name": "_newStoreName",
          "type": "string"
        }
      ],
      "name": "LogNewStore",
      "type": "event"
    },
    {
      "anonymous": false,
      "inputs": [
        {
          "indexed": true,
          "name": "_storeOwnerAddress",
          "type": "address"
        }
      ],
      "name": "LogNewStoreOwner",
      "type": "event"
    },
    {
      "anonymous": false,
      "inputs": [
        {
          "indexed": true,
          "name": "_storeOwner",
          "type": "address"
        }
      ],
      "name": "LogStoreOwnerRemoved",
      "type": "event"
    },
    {
      "anonymous": false,
      "inputs": [
        {
          "indexed": true,
          "name": "_ownerAddress",
          "type": "address"
        },
        {
          "indexed": false,
          "name": "_oldStoreName",
          "type": "string"
        }
      ],
      "name": "LogStoreClosed",
      "type": "event"
    },
    {
      "anonymous": false,
      "inputs": [
        {
          "indexed": true,
          "name": "previousOwner",
          "type": "address"
        },
        {
          "indexed": true,
          "name": "newOwner",
          "type": "address"
        }
      ],
      "name": "LogNewOwner",
      "type": "event"
    },
    {
      "anonymous": false,
      "inputs": [
        {
          "indexed": true,
          "name": "newAdmin",
          "type": "address"
        }
      ],
      "name": "LogNewAdmin",
      "type": "event"
    },
    {
      "anonymous": false,
      "inputs": [
        {
          "indexed": true,
          "name": "revokedAdmin",
          "type": "address"
        }
      ],
      "name": "LogAdminRevoked",
      "type": "event"
    },
    {
      "anonymous": false,
      "inputs": [],
      "name": "Pause",
      "type": "event"
    },
    {
      "anonymous": false,
      "inputs": [],
      "name": "Unpause",
      "type": "event"
    },
    {
      "constant": false,
      "inputs": [
        {
          "name": "_escrowAddress",
          "type": "address"
        }
      ],
      "name": "setEscrowAddress",
      "outputs": [],
      "payable": false,
      "stateMutability": "nonpayable",
      "type": "function"
    },
    {
      "constant": false,
      "inputs": [
        {
          "name": "_productId",
          "type": "uint8"
        },
        {
          "name": "_storeName",
          "type": "string"
        }
      ],
      "name": "buyItem",
      "outputs": [
        {
          "name": "index",
          "type": "uint256"
        }
      ],
      "payable": true,
      "stateMutability": "payable",
      "type": "function"
    },
    {
      "constant": false,
      "inputs": [
        {
          "name": "_itemIndex",
          "type": "uint256"
        },
        {
          "name": "_productId",
          "type": "uint8"
        }
      ],
      "name": "shipItem",
      "outputs": [
        {
          "name": "shipped",
          "type": "bool"
        }
      ],
      "payable": false,
      "stateMutability": "nonpayable",
      "type": "function"
    }
  ],
  "bytecode": "0x6080604052336000806101000a81548173ffffffffffffffffffffffffffffffffffffffff021916908373ffffffffffffffffffffffffffffffffffffffff1602179055506141f0806100536000396000f300608060405260043610610149576000357c0100000000000000000000000000000000000000000000000000000000900463ffffffff168063060347e01461014e5780631ab63af8146101cb57806331df27ce1461029f5780633ccfd60b146102f65780633f4ba83a1461030d57806340f42c1c1461032457806344d50993146103675780635effd33c146103ff5780635f7d53a11461045a5780636174fdd11461049d57806378678a32146104f85780637e1dcaf71461053b57806381e4fc821461056a5780638456cb59146105bc578063904c977e146105d35780639bf474b514610657578063a14f2584146106c3578063bd9cf58e14610730578063bdc39f481461078b578063c4c45dd4146107ce578063d0e04fe314610825578063ddeb63b514610907578063e2fdcc171461094a578063e698f0bb146109a1578063fde57f3b146109f8575b600080fd5b6101b5600480360381019080803560ff169060200190929190803590602001908201803590602001908080601f0160208091040260200160405190810160405280939291908181526020018383808284378201915050505050509192919290505050610a3b565b6040518082815260200191505060405180910390f35b3480156101d757600080fd5b5061020c600480360381019080803573ffffffffffffffffffffffffffffffffffffffff169060200190929190505050610f44565b6040518080602001841515151581526020018360ff1660ff168152602001828103825285818151815260200191508051906020019080838360005b83811015610262578082015181840152602081019050610247565b50505050905090810190601f16801561028f5780820380516001836020036101000a031916815260200191505b5094505050505060405180910390f35b3480156102ab57600080fd5b506102e0600480360381019080803573ffffffffffffffffffffffffffffffffffffffff169060200190929190505050611020565b6040518082815260200191505060405180910390f35b34801561030257600080fd5b5061030b611038565b005b34801561031957600080fd5b50610322611114565b005b34801561033057600080fd5b50610365600480360381019080803573ffffffffffffffffffffffffffffffffffffffff1690602001909291905050506111da565b005b34801561037357600080fd5b50610392600480360381019080803590602001909291905050506113f3565b604051808373ffffffffffffffffffffffffffffffffffffffff1673ffffffffffffffffffffffffffffffffffffffff168152602001826fffffffffffffffffffffffffffffffff166fffffffffffffffffffffffffffffffff1681526020019250505060405180910390f35b34801561040b57600080fd5b50610440600480360381019080803573ffffffffffffffffffffffffffffffffffffffff169060200190929190505050611462565b604051808215151515815260200191505060405180910390f35b34801561046657600080fd5b5061049b600480360381019080803573ffffffffffffffffffffffffffffffffffffffff169060200190929190505050611482565b005b3480156104a957600080fd5b506104de600480360381019080803573ffffffffffffffffffffffffffffffffffffffff1690602001909291905050506115ff565b604051808215151515815260200191505060405180910390f35b34801561050457600080fd5b50610539600480360381019080803573ffffffffffffffffffffffffffffffffffffffff169060200190929190505050611969565b005b34801561054757600080fd5b50610550611c32565b604051808215151515815260200191505060405180910390f35b34801561057657600080fd5b506105a260048036038101908080359060200190929190803560ff169060200190929190505050611e3d565b604051808215151515815260200191505060405180910390f35b3480156105c857600080fd5b506105d16121af565b005b3480156105df57600080fd5b5061061d60048036038101908080356fffffffffffffffffffffffffffffffff169060200190929190803560ff169060200190929190505050612275565b60405180826fffffffffffffffffffffffffffffffff166fffffffffffffffffffffffffffffffff16815260200191505060405180910390f35b34801561066357600080fd5b50610699600480360381019080803560ff169060200190929190803567ffffffffffffffff169060200190929190505050612536565b604051808267ffffffffffffffff1667ffffffffffffffff16815260200191505060405180910390f35b3480156106cf57600080fd5b5061071460048036038101908080356fffffffffffffffffffffffffffffffff169060200190929190803567ffffffffffffffff16906020019092919050505061285b565b604051808260ff1660ff16815260200191505060405180910390f35b34801561073c57600080fd5b50610771600480360381019080803573ffffffffffffffffffffffffffffffffffffffff169060200190929190505050612c5f565b604051808215151515815260200191505060405180910390f35b34801561079757600080fd5b506107cc600480360381019080803573ffffffffffffffffffffffffffffffffffffffff169060200190929190505050612c7f565b005b3480156107da57600080fd5b5061080f600480360381019080803573ffffffffffffffffffffffffffffffffffffffff169060200190929190505050612f58565b6040518082815260200191505060405180910390f35b34801561083157600080fd5b5061088c600480360381019080803590602001908201803590602001908080601f016020809104026020016040519081016040528093929190818152602001838380828437820191505050505050919291929050505061323b565b6040518080602001828103825283818151815260200191508051906020019080838360005b838110156108cc5780820151818401526020810190506108b1565b50505050905090810190601f1680156108f95780820380516001836020036101000a031916815260200191505b509250505060405180910390f35b34801561091357600080fd5b50610948600480360381019080803573ffffffffffffffffffffffffffffffffffffffff16906020019092919050505061372d565b005b34801561095657600080fd5b5061095f6137d2565b604051808273ffffffffffffffffffffffffffffffffffffffff1673ffffffffffffffffffffffffffffffffffffffff16815260200191505060405180910390f35b3480156109ad57600080fd5b506109b66137f8565b604051808273ffffffffffffffffffffffffffffffffffffffff1673ffffffffffffffffffffffffffffffffffffffff16815260200191505060405180910390f35b348015610a0457600080fd5b50610a39600480360381019080803573ffffffffffffffffffffffffffffffffffffffff16906020019092919050505061381d565b005b6000806000806000801515600760009054906101000a900460ff161515141515610a6457600080fd5b600a866040518082805190602001908083835b602083101515610a9c5780518252602082019150602081019050602083039250610a77565b6001836020036101000a038019825116818451168082178552505050505050905001915050908152602001604051809103902060009054906101000a900473ffffffffffffffffffffffffffffffffffffffff169350600960008573ffffffffffffffffffffffffffffffffffffffff1673ffffffffffffffffffffffffffffffffffffffff1681526020019081526020016000209250610b3d8787613af6565b94503491508260010160008860ff1660ff16815260200190815260200160002060000160009054906101000a90046fffffffffffffffffffffffffffffffff166fffffffffffffffffffffffffffffffff168210151515610b9d57600080fd5b610ba78483613ca4565b60028360010160008960ff1660ff16815260200190815260200160002060010186815481101515610bd457fe5b90600052602060002090602091828204019190066101000a81548160ff02191690836003811115610c0157fe5b02179055503373ffffffffffffffffffffffffffffffffffffffff168760ff167f21b69e57dafb192d2fc9ec6fabee5106b55506c43564934190281e68e3fd43a8856000016040518080602001828103825283818154600181600116156101000203166002900481526020019150805460018160011615610100020316600290048015610ccf5780601f10610ca457610100808354040283529160200191610ccf565b820191906000526020600020905b815481529060010190602001808311610cb257829003601f168201915b50509250505060405180910390a384601060003373ffffffffffffffffffffffffffffffffffffffff1673ffffffffffffffffffffffffffffffffffffffff168152602001908152602001600020819055508260010160008860ff1660ff168152602001908152602001600020600201600081819054906101000a900467ffffffffffffffff16809291906001900391906101000a81548167ffffffffffffffff021916908367ffffffffffffffff160217905550508260010160008860ff1660ff16815260200190815260200160002060020160009054906101000a900467ffffffffffffffff16905060058167ffffffffffffffff16111515610f3a5760008167ffffffffffffffff161415610e7e578660ff16836000016040518082805460018160011615610100020316600290048015610e445780601f10610e22576101008083540402835291820191610e44565b820191906000526020600020905b815481529060010190602001808311610e30575b505091505060405180910390207fc9de8ea04483018837e93b72d9875d362c24c6b288707c71bc97532f98bce38c60405160405180910390a35b8660ff16836000016040518082805460018160011615610100020316600290048015610ee15780601f10610ebf576101008083540402835291820191610ee1565b820191906000526020600020905b815481529060010190602001808311610ecd575b505091505060405180910390207fcd4eb49b487b912c0255590a3d4a92db6488383d7bb11265b173443257cb8d2083604051808267ffffffffffffffff1667ffffffffffffffff16815260200191505060405180910390a35b5050505092915050565b6009602052806000526040600020600091509050806000018054600181600116156101000203166002900480601f016020809104026020016040519081016040528092919081815260200182805460018160011615610100020316600290048015610ff05780601f10610fc557610100808354040283529160200191610ff0565b820191906000526020600020905b815481529060010190602001808311610fd357829003601f168201915b5050505050908060020160009054906101000a900460ff16908060090160009054906101000a900460ff16905083565b60106020528060005260406000206000915090505481565b6000809054906101000a900473ffffffffffffffffffffffffffffffffffffffff1673ffffffffffffffffffffffffffffffffffffffff163373ffffffffffffffffffffffffffffffffffffffff1614151561109357600080fd5b6000809054906101000a900473ffffffffffffffffffffffffffffffffffffffff1673ffffffffffffffffffffffffffffffffffffffff166108fc3073ffffffffffffffffffffffffffffffffffffffff16319081150290604051600060405180830381858888f19350505050158015611111573d6000803e3d6000fd5b50565b6000809054906101000a900473ffffffffffffffffffffffffffffffffffffffff1673ffffffffffffffffffffffffffffffffffffffff163373ffffffffffffffffffffffffffffffffffffffff1614151561116f57600080fd5b60011515600760009054906101000a900460ff16151514151561119157600080fd5b6000600760006101000a81548160ff0219169083151502179055507f7805862f689e2f13df9f062ff482ad3ad112aca9e0847911ed832e158c525b3360405160405180910390a1565b6000806000809054906101000a900473ffffffffffffffffffffffffffffffffffffffff1673ffffffffffffffffffffffffffffffffffffffff163373ffffffffffffffffffffffffffffffffffffffff1614151561123857600080fd5b60001515600760009054906101000a900460ff16151514151561125a57600080fd5b60009150600090505b60048111158015611278575060001515821515145b156113de578273ffffffffffffffffffffffffffffffffffffffff166001826005811015156112a357fe5b0160009054906101000a900473ffffffffffffffffffffffffffffffffffffffff1673ffffffffffffffffffffffffffffffffffffffff1614156113d15760006001826005811015156112f257fe5b0160006101000a81548173ffffffffffffffffffffffffffffffffffffffff021916908373ffffffffffffffffffffffffffffffffffffffff1602179055506000600660003373ffffffffffffffffffffffffffffffffffffffff1673ffffffffffffffffffffffffffffffffffffffff16815260200190815260200160002060006101000a81548160ff021916908315150217905550600191508273ffffffffffffffffffffffffffffffffffffffff167fdca59b6371f7db6faad5c9931588f735722795c7b8ea859824e0afc8b2c70a4f60405160405180910390a25b8080600101915050611263565b600115158215151415156113ee57fe5b505050565b60088181548110151561140257fe5b90600052602060002090600202016000915090508060000160009054906101000a900473ffffffffffffffffffffffffffffffffffffffff16908060010160009054906101000a90046fffffffffffffffffffffffffffffffff16905082565b600b6020528060005260406000206000915054906101000a900460ff1681565b60008060009054906101000a900473ffffffffffffffffffffffffffffffffffffffff1673ffffffffffffffffffffffffffffffffffffffff163373ffffffffffffffffffffffffffffffffffffffff161415156114df57600080fd5b60001515600760009054906101000a900460ff16151514151561150157600080fd5b600073ffffffffffffffffffffffffffffffffffffffff168273ffffffffffffffffffffffffffffffffffffffff161415151561153d57600080fd5b6000809054906101000a900473ffffffffffffffffffffffffffffffffffffffff169050816000806101000a81548173ffffffffffffffffffffffffffffffffffffffff021916908373ffffffffffffffffffffffffffffffffffffffff1602179055508073ffffffffffffffffffffffffffffffffffffffff168273ffffffffffffffffffffffffffffffffffffffff167f1f8d7d25344642d919d55999e4664aa452a5f424bc0936ceb9c2b300db7dcbd960405160405180910390a35050565b60008060009054906101000a900473ffffffffffffffffffffffffffffffffffffffff1673ffffffffffffffffffffffffffffffffffffffff163373ffffffffffffffffffffffffffffffffffffffff1614806116ac575060011515600660003373ffffffffffffffffffffffffffffffffffffffff1673ffffffffffffffffffffffffffffffffffffffff16815260200190815260200160002060009054906101000a900460ff161515145b15156116b757600080fd5b60011515600b60008473ffffffffffffffffffffffffffffffffffffffff1673ffffffffffffffffffffffffffffffffffffffff16815260200190815260200160002060009054906101000a900460ff16151514151561171657600080fd5b6000600960008473ffffffffffffffffffffffffffffffffffffffff1673ffffffffffffffffffffffffffffffffffffffff16815260200190815260200160002060020160006101000a81548160ff0219169083151502179055508173ffffffffffffffffffffffffffffffffffffffff167f70e9219a99e9bfc211e7aa1236b656ca826ba23e3e9e5cbdc2f16e0c7eb8fad9600960008573ffffffffffffffffffffffffffffffffffffffff1673ffffffffffffffffffffffffffffffffffffffff16815260200190815260200160002060000160405180806020018281038252838181546001816001161561010002031660029004815260200191508054600181600116156101000203166002900480156118745780601f1061184957610100808354040283529160200191611874565b820191906000526020600020905b81548152906001019060200180831161185757829003601f168201915b50509250505060405180910390a260001515600b60008473ffffffffffffffffffffffffffffffffffffffff1673ffffffffffffffffffffffffffffffffffffffff16815260200190815260200160002060009054906101000a905050508173ffffffffffffffffffffffffffffffffffffffff167fe6547a945aa917d8f8b8a71a98062b03570c5ab79d6f47aa64dab5ae6483e0c860405160405180910390a2600b60008373ffffffffffffffffffffffffffffffffffffffff1673ffffffffffffffffffffffffffffffffffffffff16815260200190815260200160002060009054906101000a900460ff169050919050565b60008060008060009054906101000a900473ffffffffffffffffffffffffffffffffffffffff1673ffffffffffffffffffffffffffffffffffffffff163373ffffffffffffffffffffffffffffffffffffffff161415156119c957600080fd5b60001515600760009054906101000a900460ff1615151415156119eb57600080fd5b600073ffffffffffffffffffffffffffffffffffffffff168473ffffffffffffffffffffffffffffffffffffffff1614151515611a2757600080fd5b5b600483111515611ab2578373ffffffffffffffffffffffffffffffffffffffff16600184600581101515611a5857fe5b0160009054906101000a900473ffffffffffffffffffffffffffffffffffffffff1673ffffffffffffffffffffffffffffffffffffffff161415611aa75760026001141515611aa657600080fd5b5b826001019250611a28565b600091505b60048111158015611acc575060001515821515145b15611c1c576000600182600581101515611ae257fe5b0160009054906101000a900473ffffffffffffffffffffffffffffffffffffffff1673ffffffffffffffffffffffffffffffffffffffff161415611c0f5783600182600581101515611b3057fe5b0160006101000a81548173ffffffffffffffffffffffffffffffffffffffff021916908373ffffffffffffffffffffffffffffffffffffffff1602179055506001600660008673ffffffffffffffffffffffffffffffffffffffff1673ffffffffffffffffffffffffffffffffffffffff16815260200190815260200160002060006101000a81548160ff021916908315150217905550600191508373ffffffffffffffffffffffffffffffffffffffff167f39e7d4b9ba48f55a740a5192809dbc498fa12724c030b37dab126a3f6774c0f360405160405180910390a25b8080600101915050611ab7565b60011515821515141515611c2c57fe5b50505050565b6000806000600960003373ffffffffffffffffffffffffffffffffffffffff1673ffffffffffffffffffffffffffffffffffffffff1681526020019081526020016000209050600d816000016040518082805460018160011615610100020316600290048015611cd95780601f10611cb7576101008083540402835291820191611cd9565b820191906000526020600020905b815481529060010190602001808311611cc5575b5050915050908152602001604051809103902060009054906101000a900460ff161515611d0557600080fd5b60001515600760009054906101000a900460ff161515141515611d2757600080fd5b600960003373ffffffffffffffffffffffffffffffffffffffff1673ffffffffffffffffffffffffffffffffffffffff168152602001908152602001600020915060018260020160006101000a81548160ff021916908315150217905550816000016040518082805460018160011615610100020316600290048015611de45780601f10611dc2576101008083540402835291820191611de4565b820191906000526020600020905b815481529060010190602001808311611dd0575b505091505060405180910390203373ffffffffffffffffffffffffffffffffffffffff167ff355208fd9d312498b0cc4874efc22f43194b1b5e38771b6265a15909b95b84860405160405180910390a360019250505090565b60008060001515600760009054906101000a900460ff161515141515611e6257600080fd5b6000600e60003373ffffffffffffffffffffffffffffffffffffffff1673ffffffffffffffffffffffffffffffffffffffff1681526020019081526020016000209050600d816000016040518082805460018160011615610100020316600290048015611f065780601f10611ee4576101008083540402835291820191611f06565b820191906000526020600020905b815481529060010190602001808311611ef2575b5050915050908152602001604051809103902060009054906101000a900460ff161515611f3257600080fd5b600e60003373ffffffffffffffffffffffffffffffffffffffff1673ffffffffffffffffffffffffffffffffffffffff168152602001908152602001600020915060026003811115611f8057fe5b8260010160008660ff1660ff16815260200190815260200160002060010186815481101515611fab57fe5b90600052602060002090602091828204019190069054906101000a900460ff166003811115611fd657fe5b141515611fe257600080fd5b6000925060038260010160008660ff1660ff1681526020019081526020016000206001018681548110151561201357fe5b90600052602060002090602091828204019190066101000a81548160ff0219169083600381111561204057fe5b0217905550600192508360ff16857f8c27a03ba49022d57890c2993ba9a892600fe4449c319742d4cfc8afe51b541d8460000160405180806020018281038252838181546001816001161561010002031660029004815260200191508054600181600116156101000203166002900480156120fc5780601f106120d1576101008083540402835291602001916120fc565b820191906000526020600020905b8154815290600101906020018083116120df57829003601f168201915b50509250505060405180910390a36121a7600a83600001604051808280546001816001161561010002031660029004801561216e5780601f1061214c57610100808354040283529182019161216e565b820191906000526020600020905b81548152906001019060200180831161215a575b5050915050908152602001604051809103902060009054906101000a900473ffffffffffffffffffffffffffffffffffffffff16613da4565b505092915050565b6000809054906101000a900473ffffffffffffffffffffffffffffffffffffffff1673ffffffffffffffffffffffffffffffffffffffff163373ffffffffffffffffffffffffffffffffffffffff1614151561220a57600080fd5b60001515600760009054906101000a900460ff16151514151561222c57600080fd5b6001600760006101000a81548160ff0219169083151502179055507f6985a02210a168e66602d3235cb6db0e70f92b3ba4d376a33c0f3d9434bff62560405160405180910390a1565b6000806000600960003373ffffffffffffffffffffffffffffffffffffffff1673ffffffffffffffffffffffffffffffffffffffff1681526020019081526020016000209050600d81600001604051808280546001816001161561010002031660029004801561231c5780601f106122fa57610100808354040283529182019161231c565b820191906000526020600020905b815481529060010190602001808311612308575b5050915050908152602001604051809103902060009054906101000a900460ff16151561234857600080fd5b60001515600760009054906101000a900460ff16151514151561236a57600080fd5b600960003373ffffffffffffffffffffffffffffffffffffffff1673ffffffffffffffffffffffffffffffffffffffff16815260200190815260200160002091506000856fffffffffffffffffffffffffffffffff16101515156123cd57600080fd5b600015158260010160008660ff1660ff16815260200190815260200160002060020160089054906101000a900460ff16151514151561240b57600080fd5b848260010160008660ff1660ff16815260200190815260200160002060000160006101000a8154816fffffffffffffffffffffffffffffffff02191690836fffffffffffffffffffffffffffffffff1602179055508160000160405180828054600181600116156101000203166002900480156124bf5780601f1061249d5761010080835404028352918201916124bf565b820191906000526020600020905b8154815290600101906020018083116124ab575b505091505060405180910390208460ff167f630a01f7d64713a78064208ae7bed35bf6ad95a924703f5c2ce1f0351cca1a858760405180826fffffffffffffffffffffffffffffffff166fffffffffffffffffffffffffffffffff16815260200191505060405180910390a3849250505092915050565b6000806000806000600e60003373ffffffffffffffffffffffffffffffffffffffff1673ffffffffffffffffffffffffffffffffffffffff1681526020019081526020016000209050600d8160000160405180828054600181600116156101000203166002900480156125e05780601f106125be5761010080835404028352918201916125e0565b820191906000526020600020905b8154815290600101906020018083116125cc575b5050915050908152602001604051809103902060009054906101000a900460ff16151561260c57600080fd5b60001515600760009054906101000a900460ff16151514151561262e57600080fd5b600e60003373ffffffffffffffffffffffffffffffffffffffff1673ffffffffffffffffffffffffffffffffffffffff1681526020019081526020016000209350858460010160008960ff1660ff16815260200190815260200160002060020160008282829054906101000a900467ffffffffffffffff160192506101000a81548167ffffffffffffffff021916908367ffffffffffffffff1602179055508360010160008860ff1660ff16815260200190815260200160002060020160089054906101000a900460ff1692506000151583151514151561270e57600080fd5b5b8567ffffffffffffffff1682101561279b578360010160008860ff1660ff1681526020019081526020016000206001016000908060018154018082558091505090600182039060005260206000209060209182820401919006909192909190916101000a81548160ff0219169083600381111561278857fe5b021790555050818060010192505061270f565b8660ff167fdb3cb3bd3aa8b0116684a1673c77eb69da47689f478ec18c9b1b42042bff3ebc8560010160008a60ff1660ff16815260200190815260200160002060020160009054906101000a900467ffffffffffffffff16604051808267ffffffffffffffff1667ffffffffffffffff16815260200191505060405180910390a28360010160008860ff1660ff16815260200190815260200160002060020160009054906101000a900467ffffffffffffffff1694505050505092915050565b600080612866613e7c565b6000801515600760009054906101000a900460ff16151514151561288957600080fd5b6000600e60003373ffffffffffffffffffffffffffffffffffffffff1673ffffffffffffffffffffffffffffffffffffffff1681526020019081526020016000209050600d81600001604051808280546001816001161561010002031660029004801561292d5780601f1061290b57610100808354040283529182019161292d565b820191906000526020600020905b815481529060010190602001808311612919575b5050915050908152602001604051809103902060009054906101000a900460ff16151561295957600080fd5b600e60003373ffffffffffffffffffffffffffffffffffffffff1673ffffffffffffffffffffffffffffffffffffffff1681526020019081526020016000209350608060405190810160405280886fffffffffffffffffffffffffffffffff16815260200160006040519080825280602002602001820160405280156129ee5781602001602082028038833980820191505090505b5081526020018767ffffffffffffffff1681526020016000151581525092508360090160009054906101000a900460ff169450828460010160008760ff1660ff16815260200190815260200160002060008201518160000160006101000a8154816fffffffffffffffffffffffffffffffff02191690836fffffffffffffffffffffffffffffffff1602179055506020820151816001019080519060200190612a98929190613ec3565b5060408201518160020160006101000a81548167ffffffffffffffff021916908367ffffffffffffffff16021790555060608201518160020160086101000a81548160ff02191690831515021790555090505083600901600081819054906101000a900460ff168092919060010191906101000a81548160ff021916908360ff160217905550505b8567ffffffffffffffff16821015612bac578360010160008660ff1660ff1681526020019081526020016000206001016000908060018154018082558091505090600182039060005260206000209060209182820401919006909192909190916101000a81548160ff02191690836003811115612b9957fe5b0217905550508180600101925050612b20565b836000016040518082805460018160011615610100020316600290048015612c0b5780601f10612be9576101008083540402835291820191612c0b565b820191906000526020600020905b815481529060010190602001808311612bf7575b505091505060405180910390207f2cce3c7d7df1dc3800ffe78d254642769c0310fced2b71ad898a32370de24ef986604051808260ff16815260200191505060405180910390a28494505050505092915050565b600c6020528060005260406000206000915054906101000a900460ff1681565b6000806000801515600760009054906101000a900460ff161515141515612ca557600080fd5b6000600e60003373ffffffffffffffffffffffffffffffffffffffff1673ffffffffffffffffffffffffffffffffffffffff1681526020019081526020016000209050600d816000016040518082805460018160011615610100020316600290048015612d495780601f10612d27576101008083540402835291820191612d49565b820191906000526020600020905b815481529060010190602001808311612d35575b5050915050908152602001604051809103902060009054906101000a900460ff161515612d7557600080fd5b600e60003373ffffffffffffffffffffffffffffffffffffffff1673ffffffffffffffffffffffffffffffffffffffff168152602001908152602001600020935060009250600191505b60058211158015612dd4575060001515831515145b15612e725760008460030183600681101515612dec57fe5b0160009054906101000a900473ffffffffffffffffffffffffffffffffffffffff1673ffffffffffffffffffffffffffffffffffffffff161415612e65578473ffffffffffffffffffffffffffffffffffffffff168460030183600681101515612e5257fe5b0160009054906101000a90505050600192505b8180600101925050612dbf565b60011515831515141515612e8257fe5b836000016040518082805460018160011615610100020316600290048015612ee15780601f10612ebf576101008083540402835291820191612ee1565b820191906000526020600020905b815481529060010190602001808311612ecd575b505091505060405180910390207fdca8ee980ba41d88dec0b4c222b29abe66398c56059a90c3bb7f5a597c7d91be86604051808273ffffffffffffffffffffffffffffffffffffffff1673ffffffffffffffffffffffffffffffffffffffff16815260200191505060405180910390a25050505050565b6000612f62613f72565b60008060009054906101000a900473ffffffffffffffffffffffffffffffffffffffff1673ffffffffffffffffffffffffffffffffffffffff163373ffffffffffffffffffffffffffffffffffffffff16148061300f575060011515600660003373ffffffffffffffffffffffffffffffffffffffff1673ffffffffffffffffffffffffffffffffffffffff16815260200190815260200160002060009054906101000a900460ff161515145b151561301a57600080fd5b60001515600760009054906101000a900460ff16151514151561303c57600080fd5b60001515600b60008673ffffffffffffffffffffffffffffffffffffffff1673ffffffffffffffffffffffffffffffffffffffff16815260200190815260200160002060009054906101000a900460ff16151514151561309b57600080fd5b60408051908101604052808573ffffffffffffffffffffffffffffffffffffffff16815260200160006fffffffffffffffffffffffffffffffff16815250915060016008839080600181540180825580915050906001820390600052602060002090600202016000909192909190915060008201518160000160006101000a81548173ffffffffffffffffffffffffffffffffffffffff021916908373ffffffffffffffffffffffffffffffffffffffff16021790555060208201518160010160006101000a8154816fffffffffffffffffffffffffffffffff02191690836fffffffffffffffffffffffffffffffff16021790555050500390506001600b60008673ffffffffffffffffffffffffffffffffffffffff1673ffffffffffffffffffffffffffffffffffffffff16815260200190815260200160002060006101000a81548160ff0219169083151502179055508373ffffffffffffffffffffffffffffffffffffffff167f64a6cb4c2615e9c9ee211131f9fc94aaa6238a3c255423b75ba43ef01ca42dcd60405160405180910390a28092505050919050565b6060613245613fb4565b61324d613fd7565b60001515600760009054906101000a900460ff16151514151561326f57600080fd5b60011515600b60003373ffffffffffffffffffffffffffffffffffffffff1673ffffffffffffffffffffffffffffffffffffffff16815260200190815260200160002060009054906101000a900460ff1615151415156132ce57600080fd5b60001515600c60003373ffffffffffffffffffffffffffffffffffffffff1673ffffffffffffffffffffffffffffffffffffffff16815260200190815260200160002060009054906101000a900460ff16151514151561332d57600080fd5b60001515600d856040518082805190602001908083835b6020831015156133695780518252602082019150602081019050602083039250613344565b6001836020036101000a038019825116818451168082178552505050505050905001915050908152602001604051809103902060009054906101000a900460ff1615151415156133b857600080fd5b608060405190810160405280858152602001600015158152602001838152602001600060ff16815250905080600960003373ffffffffffffffffffffffffffffffffffffffff1673ffffffffffffffffffffffffffffffffffffffff168152602001908152602001600020600082015181600001908051906020019061343f92919061400c565b5060208201518160020160006101000a81548160ff02191690831515021790555060408201518160030190600661347792919061408c565b5060608201518160090160006101000a81548160ff021916908360ff16021790555090505033600a82600001516040518082805190602001908083835b6020831015156134d957805182526020820191506020810190506020830392506134b4565b6001836020036101000a038019825116818451168082178552505050505050905001915050908152602001604051809103902060006101000a81548173ffffffffffffffffffffffffffffffffffffffff021916908373ffffffffffffffffffffffffffffffffffffffff1602179055506001600d82600001516040518082805190602001908083835b6020831015156135885780518252602082019150602081019050602083039250613563565b6001836020036101000a038019825116818451168082178552505050505050905001915050908152602001604051809103902060006101000a81548160ff02191690831515021790555033816040015160006006811015156135e657fe5b602002019073ffffffffffffffffffffffffffffffffffffffff16908173ffffffffffffffffffffffffffffffffffffffff16815250506001600c60003373ffffffffffffffffffffffffffffffffffffffff1673ffffffffffffffffffffffffffffffffffffffff16815260200190815260200160002060006101000a81548160ff02191690831515021790555080600001516040518082805190602001908083835b6020831015156136af578051825260208201915060208101905060208303925061368a565b6001836020036101000a03801982511681845116808217855250505050505090500191505060405180910390203373ffffffffffffffffffffffffffffffffffffffff167fa7a7f9a1330b838be79b751ee060f9db022a74c4288f770bb54d328e8e4c11a760405160405180910390a3806000015192505050919050565b60008060009054906101000a900473ffffffffffffffffffffffffffffffffffffffff1673ffffffffffffffffffffffffffffffffffffffff163373ffffffffffffffffffffffffffffffffffffffff1614151561378a57600080fd5b81905080600f60006101000a81548173ffffffffffffffffffffffffffffffffffffffff021916908373ffffffffffffffffffffffffffffffffffffffff1602179055505050565b600f60009054906101000a900473ffffffffffffffffffffffffffffffffffffffff1681565b6000809054906101000a900473ffffffffffffffffffffffffffffffffffffffff1681565b600080600080600960003373ffffffffffffffffffffffffffffffffffffffff1673ffffffffffffffffffffffffffffffffffffffff1681526020019081526020016000209050600d8160000160405180828054600181600116156101000203166002900480156138c55780601f106138a35761010080835404028352918201916138c5565b820191906000526020600020905b8154815290600101906020018083116138b1575b5050915050908152602001604051809103902060009054906101000a900460ff1615156138f157600080fd5b60001515600760009054906101000a900460ff16151514151561391357600080fd5b600960003373ffffffffffffffffffffffffffffffffffffffff1673ffffffffffffffffffffffffffffffffffffffff168152602001908152602001600020935060009250600191505b60058211158015613972575060001515831515145b15613a10578473ffffffffffffffffffffffffffffffffffffffff16846003018360068110151561399f57fe5b0160009054906101000a900473ffffffffffffffffffffffffffffffffffffffff1673ffffffffffffffffffffffffffffffffffffffff161415613a0357600084600301836006811015156139f057fe5b0160009054906101000a90505050600192505b818060010192505061395d565b60011515831515141515613a2057fe5b836000016040518082805460018160011615610100020316600290048015613a7f5780601f10613a5d576101008083540402835291820191613a7f565b820191906000526020600020905b815481529060010190602001808311613a6b575b505091505060405180910390207f98629ba0c60b4974223d2f7684841bf2f71d2ecebd4c82a490d9cfe73132de5b86604051808273ffffffffffffffffffffffffffffffffffffffff1673ffffffffffffffffffffffffffffffffffffffff16815260200191505060405180910390a25050505050565b60008060008060008060009450600a876040518082805190602001908083835b602083101515613b3b5780518252602082019150602081019050602083039250613b16565b6001836020036101000a038019825116818451168082178552505050505050905001915050908152602001604051809103902060009054906101000a900473ffffffffffffffffffffffffffffffffffffffff169250600960008473ffffffffffffffffffffffffffffffffffffffff1673ffffffffffffffffffffffffffffffffffffffff16815260200190815260200160002091505b8160010160008960ff1660ff1681526020019081526020016000206001018054905081108015613c07575060001515851515145b15613c865760006003811115613c1957fe5b8260010160008a60ff1660ff16815260200190815260200160002060010182815481101515613c4457fe5b90600052602060002090602091828204019190069054906101000a900460ff166003811115613c6f57fe5b1415613c79578093505b8080600101915050613bd3565b60011515851515141515613c9657fe5b839550505050505092915050565b803073ffffffffffffffffffffffffffffffffffffffff163110151515613cca57600080fd5b600f60009054906101000a900473ffffffffffffffffffffffffffffffffffffffff1673ffffffffffffffffffffffffffffffffffffffff1663f340fa0182846040518363ffffffff167c0100000000000000000000000000000000000000000000000000000000028152600401808273ffffffffffffffffffffffffffffffffffffffff1673ffffffffffffffffffffffffffffffffffffffff1681526020019150506000604051808303818588803b158015613d8757600080fd5b505af1158015613d9b573d6000803e3d6000fd5b50505050505050565b600f60009054906101000a900473ffffffffffffffffffffffffffffffffffffffff1673ffffffffffffffffffffffffffffffffffffffff166351cff8d9826040518263ffffffff167c0100000000000000000000000000000000000000000000000000000000028152600401808273ffffffffffffffffffffffffffffffffffffffff1673ffffffffffffffffffffffffffffffffffffffff168152602001915050600060405180830381600087803b158015613e6157600080fd5b505af1158015613e75573d6000803e3d6000fd5b5050505050565b60806040519081016040528060006fffffffffffffffffffffffffffffffff16815260200160608152602001600067ffffffffffffffff1681526020016000151581525090565b82805482825590600052602060002090601f01602090048101928215613f615791602002820160005b83821115613f3257835183826101000a81548160ff02191690836003811115613f1157fe5b02179055509260200192600101602081600001049283019260010302613eec565b8015613f5f5782816101000a81549060ff0219169055600101602081600001049283019260010302613f32565b505b509050613f6e9190614109565b5090565b6040805190810160405280600073ffffffffffffffffffffffffffffffffffffffff16815260200160006fffffffffffffffffffffffffffffffff1681525090565b60c060405190810160405280600690602082028038833980820191505090505090565b6101206040519081016040528060608152602001600015158152602001613ffc614139565b8152602001600060ff1681525090565b828054600181600116156101000203166002900490600052602060002090601f016020900481019282601f1061404d57805160ff191683800117855561407b565b8280016001018555821561407b579182015b8281111561407a57825182559160200191906001019061405f565b5b509050614088919061415c565b5090565b82600681019282156140f8579160200282015b828111156140f75782518260006101000a81548173ffffffffffffffffffffffffffffffffffffffff021916908373ffffffffffffffffffffffffffffffffffffffff1602179055509160200191906001019061409f565b5b5090506141059190614181565b5090565b61413691905b8082111561413257600081816101000a81549060ff02191690555060010161410f565b5090565b90565b60c060405190810160405280600690602082028038833980820191505090505090565b61417e91905b8082111561417a576000816000905550600101614162565b5090565b90565b6141c191905b808211156141bd57600081816101000a81549073ffffffffffffffffffffffffffffffffffffffff021916905550600101614187565b5090565b905600a165627a7a723058202ad207e1d73a5b7931db0c93d717b80176e661a68b0fd97b99083a964fb618550029",
  "source": "pragma solidity ^0.4.24;\n\nimport \"./StoreManagement.sol\";\n/*import \"./Auction/ClockAuctionBase.sol\";\nimport \"./Auction/ClockAuction.sol\";*/\nimport \"../importedContracts/payment/Escrow.sol\";\n\n\n/* @dev This contract is used to manage the purchasing process for set price\n * products. It also manages payments through an escrow contract.  When owner's\n * or admin's ship a product to the purchaser, they withdraw the deposited fund\n * from the purchase of that item. Auction items are NOT managed in this contract\n*/\ncontract StorePurchasing is StoreManagement{\n\n  /// @dev Let owner/admins know a product instance has been purchased\n  event LogItemBought(uint indexed _productId, address indexed _purchaser,string _storeName);\n  /// @dev Let owner/admins know they are running out or are out of a product\n  event LogInventoryLow(string indexed _storeName, uint indexed _productId,uint64 remaining);\n  event LogInventoryOut(string indexed _storeName, uint indexed _productId);\n  /// @dev record that a purchased item has been shipped\n  event LogItemShipped(uint indexed _index,uint indexed _productId,string _storeName);\n\n  /// @dev address of the contract used to handle escrow services;\n  Escrow public escrow;\n\n  /// @dev Used to record the purchaser address and the item they purchased\n  mapping(address => uint) public purchaserToItem;\n\n  /// @dev set the address of the contract handling escrow services;\n  /// @param _escrowAddress : The address of the contract being used\n  function setEscrowAddress(address _escrowAddress) public onlyMaatsOwner {\n    Escrow _escrow = Escrow(_escrowAddress);\n    escrow = _escrow;\n  }\n\n  /// @dev An internal function used to store the payment in the escrow for the owner\n  /// @param _payee : the address of the owner getting payed\n  /// @param value : the value of msg.value in the function calling this function.\n  function depositEscrow(address _payee, uint value) internal{\n    // require that adequate funds are in this contract.\n    require(address(this).balance >= value);\n    // make deposit for the owner\n    escrow.deposit.value(value)(_payee);\n  }\n\n  /// @dev An internal function which withdraws and sends funds to store owner\n  /// @param _payee : the address of the store owner getting payed.\n  function withdrawEscrow(address _payee) internal{\n    escrow.withdraw(_payee);\n  }\n\n  // this could get expensive, lead to security weaknesses, consider method with\n  // index count of first \"forSale\" item.\n  function findFirstItemForSale(uint8 _productId, string _storeName) internal view returns(uint){\n    bool found = false;\n    uint index;\n    address _owner = StoreNameToOwner[_storeName];\n    Store storage _store = OwnerToStore[_owner];\n    for(uint i; i < _store.products[_productId].items.length && found == false; i++){\n      if(_store.products[_productId].items[i] == ItemStatus.ForSale){\n        index = i;\n        found == true;\n      }\n    }\n    // want to avoid silent failure and subsequent inappropriate decrement of inventory\n    assert(found == true);\n    return index;\n  }\n\n  /// @dev This payable function allows customers to buy products from a store\n  /// It requires that the value sent in msg.value is greater than the price\n  /// of the product. It calls internal function depositEscrow. It will also\n  /// emit events to let owner/admins know if their inventory is (almost) out\n  /// @param _productId : the product type being purchased\n  /// @param _storeName : the unique identifer for the store which sells the product\n  /// @return index : The location of the item instance being purchased\n  function buyItem(uint8 _productId,string _storeName)\n    public\n    payable\n    whenNotPaused()\n    returns (uint index){\n      // get address of store owner to be accessed in depositEscrow\n      address _storeOwner = StoreNameToOwner[_storeName];\n      Store storage _store = OwnerToStore[_storeOwner];\n\n      // calls internal function to find first product instance ForSale\n      index = findFirstItemForSale(_productId, _storeName);\n\n      // require funds sent are adequate\n      uint value = msg.value;\n      require(value >= _store.products[_productId].price);\n      depositEscrow(_storeOwner, value);\n\n      _store.products[_productId].items[index] = ItemStatus.Bought;\n      emit LogItemBought( _productId, msg.sender, _store.storeName);\n      purchaserToItem[msg.sender] = index;\n\n      // update the inventory of the product type\n      _store.products[_productId].inventory--;\n      uint64 remaining = _store.products[_productId].inventory;\n      if(remaining <=5){\n        if(remaining ==0){\n          emit LogInventoryOut(_store.storeName,_productId);\n        }\n        emit LogInventoryLow(_store.storeName, _productId, remaining);\n      }\n\n  }\n\n  /// @dev Once an item is logged as bought, the store owner/admin can ship the\n  /// item and use this function to log it has been shipped. When Item is shipped,\n  /// the owner receives their deposits from escrow.\n  /// notice: right now there is a !!SECURITY!! concern becuase if the owner\n  /// has several items \"bought\" but not sold, they could withdraw total deposited\n  /// funds by shipping only one item. Should edit escrow contract to prevent.\n  /// @param _itemIndex : the instance of the item to be shipped\n  /// @param _productId : the product type to which the instance belongs\n  /// @return shipped : simply confirms that the product has infact been shipped.\n  /// WOULD LOVE TO USE ORACLE HERE FROM SHIPPING COMPANIES!!!!\n  function shipItem(uint _itemIndex,uint8 _productId)\n    public\n    whenNotPaused\n    onlyStoreAdmin\n    returns(bool shipped){\n      Store storage current = storeAdminToStore[msg.sender];\n      require(current.products[_productId].items[_itemIndex] == ItemStatus.Bought);\n      shipped = false;\n      // would be great to use an oracle here to check that UPS has received the package\n      // for now will let store leadership change the status of the item to shipped\n      current.products[_productId].items[_itemIndex] = ItemStatus.Shipped;\n      shipped = true;\n      emit LogItemShipped(_itemIndex, _productId, current.storeName);\n\n      withdrawEscrow(StoreNameToOwner[current.storeName]);\n    }\n}\n",
  "sourcePath": "/Users/ericbrown/Documents/Blockchain/ConsenSysCourse/Maats/contracts/StorePurchasing.sol",
  "compiler": {
    "name": "solc",
    "version": "0.4.24+commit.e67f0147.Emscripten.clang"
  },
  "schemaVersion": "2.0.1",
  "updatedAt": "2018-07-27T16:53:36.176Z"
}