{
  "contractName": "StorePurchasing",
  "abi": [
    {
      "constant": true,
      "inputs": [
        {
          "name": "",
          "type": "address"
        }
      ],
      "name": "purchaserToItem",
      "outputs": [
        {
          "name": "",
          "type": "uint256"
        }
      ],
      "payable": false,
      "stateMutability": "view",
      "type": "function"
    },
    {
      "constant": false,
      "inputs": [],
      "name": "_pause",
      "outputs": [],
      "payable": false,
      "stateMutability": "nonpayable",
      "type": "function"
    },
    {
      "constant": false,
      "inputs": [],
      "name": "withdraw",
      "outputs": [],
      "payable": false,
      "stateMutability": "nonpayable",
      "type": "function"
    },
    {
      "constant": false,
      "inputs": [
        {
          "name": "_revokedAdmin",
          "type": "address"
        }
      ],
      "name": "removeMaatsAdmin",
      "outputs": [],
      "payable": false,
      "stateMutability": "nonpayable",
      "type": "function"
    },
    {
      "constant": false,
      "inputs": [
        {
          "name": "_newOwner",
          "type": "address"
        }
      ],
      "name": "setMaatsOwner",
      "outputs": [],
      "payable": false,
      "stateMutability": "nonpayable",
      "type": "function"
    },
    {
      "constant": false,
      "inputs": [
        {
          "name": "_newAdmin",
          "type": "address"
        }
      ],
      "name": "createMaatsAdmin",
      "outputs": [],
      "payable": false,
      "stateMutability": "nonpayable",
      "type": "function"
    },
    {
      "constant": false,
      "inputs": [
        {
          "name": "_storeName",
          "type": "string"
        }
      ],
      "name": "removeStoreOwner",
      "outputs": [],
      "payable": false,
      "stateMutability": "nonpayable",
      "type": "function"
    },
    {
      "constant": true,
      "inputs": [],
      "name": "pause",
      "outputs": [
        {
          "name": "",
          "type": "bool"
        }
      ],
      "payable": false,
      "stateMutability": "view",
      "type": "function"
    },
    {
      "constant": false,
      "inputs": [
        {
          "name": "_newPrice",
          "type": "uint72"
        },
        {
          "name": "_productId",
          "type": "uint8"
        }
      ],
      "name": "changePrice",
      "outputs": [
        {
          "name": "",
          "type": "uint72"
        }
      ],
      "payable": false,
      "stateMutability": "nonpayable",
      "type": "function"
    },
    {
      "constant": false,
      "inputs": [
        {
          "name": "_productId",
          "type": "uint8"
        },
        {
          "name": "_newInventory",
          "type": "uint64"
        }
      ],
      "name": "addInventory",
      "outputs": [
        {
          "name": "",
          "type": "uint64"
        }
      ],
      "payable": false,
      "stateMutability": "nonpayable",
      "type": "function"
    },
    {
      "constant": true,
      "inputs": [
        {
          "name": "",
          "type": "address"
        }
      ],
      "name": "OwnerToStoreId",
      "outputs": [
        {
          "name": "",
          "type": "uint256"
        }
      ],
      "payable": false,
      "stateMutability": "view",
      "type": "function"
    },
    {
      "constant": true,
      "inputs": [],
      "name": "currentStoreCount",
      "outputs": [
        {
          "name": "",
          "type": "uint256"
        }
      ],
      "payable": false,
      "stateMutability": "view",
      "type": "function"
    },
    {
      "constant": false,
      "inputs": [
        {
          "name": "_NewAdminAddress",
          "type": "address"
        }
      ],
      "name": "createStoreAdmin",
      "outputs": [],
      "payable": false,
      "stateMutability": "nonpayable",
      "type": "function"
    },
    {
      "constant": true,
      "inputs": [],
      "name": "escrow",
      "outputs": [
        {
          "name": "",
          "type": "address"
        }
      ],
      "payable": false,
      "stateMutability": "view",
      "type": "function"
    },
    {
      "constant": true,
      "inputs": [],
      "name": "maatsOwner",
      "outputs": [
        {
          "name": "",
          "type": "address"
        }
      ],
      "payable": false,
      "stateMutability": "view",
      "type": "function"
    },
    {
      "constant": true,
      "inputs": [
        {
          "name": "",
          "type": "uint256"
        }
      ],
      "name": "maatsAdmins",
      "outputs": [
        {
          "name": "",
          "type": "address"
        }
      ],
      "payable": false,
      "stateMutability": "view",
      "type": "function"
    },
    {
      "constant": false,
      "inputs": [
        {
          "name": "_newOwner",
          "type": "address"
        },
        {
          "name": "_storeName",
          "type": "string"
        }
      ],
      "name": "createStore",
      "outputs": [
        {
          "name": "",
          "type": "string"
        }
      ],
      "payable": false,
      "stateMutability": "nonpayable",
      "type": "function"
    },
    {
      "constant": false,
      "inputs": [],
      "name": "_unpause",
      "outputs": [],
      "payable": false,
      "stateMutability": "nonpayable",
      "type": "function"
    },
    {
      "constant": false,
      "inputs": [
        {
          "name": "_price",
          "type": "uint72"
        },
        {
          "name": "_inventory",
          "type": "uint64"
        }
      ],
      "name": "createSetPriceProduct",
      "outputs": [
        {
          "name": "_productId",
          "type": "uint8"
        }
      ],
      "payable": false,
      "stateMutability": "nonpayable",
      "type": "function"
    },
    {
      "constant": false,
      "inputs": [
        {
          "name": "_adminAddress",
          "type": "address"
        }
      ],
      "name": "removeStoreAdmin",
      "outputs": [],
      "payable": false,
      "stateMutability": "nonpayable",
      "type": "function"
    },
    {
      "anonymous": false,
      "inputs": [
        {
          "indexed": true,
          "name": "_productId",
          "type": "uint8"
        },
        {
          "indexed": true,
          "name": "_purchaser",
          "type": "address"
        },
        {
          "indexed": false,
          "name": "_storeName",
          "type": "string"
        }
      ],
      "name": "LogItemBought",
      "type": "event"
    },
    {
      "anonymous": false,
      "inputs": [
        {
          "indexed": true,
          "name": "_storeName",
          "type": "string"
        },
        {
          "indexed": true,
          "name": "_productId",
          "type": "uint8"
        },
        {
          "indexed": false,
          "name": "remaining",
          "type": "uint64"
        }
      ],
      "name": "LogInventoryLow",
      "type": "event"
    },
    {
      "anonymous": false,
      "inputs": [
        {
          "indexed": true,
          "name": "_storeName",
          "type": "string"
        },
        {
          "indexed": true,
          "name": "_productId",
          "type": "uint8"
        }
      ],
      "name": "LogInventoryOut",
      "type": "event"
    },
    {
      "anonymous": false,
      "inputs": [
        {
          "indexed": true,
          "name": "_index",
          "type": "uint256"
        },
        {
          "indexed": true,
          "name": "_productId",
          "type": "uint8"
        },
        {
          "indexed": false,
          "name": "_storeName",
          "type": "string"
        }
      ],
      "name": "LogItemShipped",
      "type": "event"
    },
    {
      "anonymous": false,
      "inputs": [
        {
          "indexed": false,
          "name": "_productId",
          "type": "uint8"
        },
        {
          "indexed": true,
          "name": "_storeName",
          "type": "string"
        }
      ],
      "name": "LogNewSetPriceProduct",
      "type": "event"
    },
    {
      "anonymous": false,
      "inputs": [
        {
          "indexed": true,
          "name": "_productId",
          "type": "uint8"
        },
        {
          "indexed": false,
          "name": "inventory",
          "type": "uint64"
        }
      ],
      "name": "LogAddedInventory",
      "type": "event"
    },
    {
      "anonymous": false,
      "inputs": [
        {
          "indexed": true,
          "name": "_ownerAddress",
          "type": "address"
        },
        {
          "indexed": true,
          "name": "_storeName",
          "type": "string"
        }
      ],
      "name": "LogProductRemoved",
      "type": "event"
    },
    {
      "anonymous": false,
      "inputs": [
        {
          "indexed": true,
          "name": "_productId",
          "type": "uint8"
        },
        {
          "indexed": true,
          "name": "_storeName",
          "type": "string"
        },
        {
          "indexed": false,
          "name": "_newPrice",
          "type": "uint72"
        }
      ],
      "name": "LogPriceChange",
      "type": "event"
    },
    {
      "anonymous": false,
      "inputs": [
        {
          "indexed": true,
          "name": "_ownerAddress",
          "type": "address"
        },
        {
          "indexed": true,
          "name": "_newStoreName",
          "type": "string"
        }
      ],
      "name": "LogNewStore",
      "type": "event"
    },
    {
      "anonymous": false,
      "inputs": [
        {
          "indexed": true,
          "name": "_storeOwnerAddress",
          "type": "address"
        }
      ],
      "name": "LogNewStoreOwner",
      "type": "event"
    },
    {
      "anonymous": false,
      "inputs": [
        {
          "indexed": true,
          "name": "_storeOwner",
          "type": "address"
        }
      ],
      "name": "LogStoreOwnerRemoved",
      "type": "event"
    },
    {
      "anonymous": false,
      "inputs": [
        {
          "indexed": true,
          "name": "_ownerAddress",
          "type": "address"
        }
      ],
      "name": "LogStoreClosed",
      "type": "event"
    },
    {
      "anonymous": false,
      "inputs": [
        {
          "indexed": true,
          "name": "previousOwner",
          "type": "address"
        },
        {
          "indexed": true,
          "name": "newOwner",
          "type": "address"
        }
      ],
      "name": "LogNewOwner",
      "type": "event"
    },
    {
      "anonymous": false,
      "inputs": [
        {
          "indexed": true,
          "name": "newAdmin",
          "type": "address"
        }
      ],
      "name": "LogNewAdmin",
      "type": "event"
    },
    {
      "anonymous": false,
      "inputs": [
        {
          "indexed": true,
          "name": "revokedAdmin",
          "type": "address"
        }
      ],
      "name": "LogAdminRevoked",
      "type": "event"
    },
    {
      "anonymous": false,
      "inputs": [],
      "name": "Pause",
      "type": "event"
    },
    {
      "anonymous": false,
      "inputs": [],
      "name": "Unpause",
      "type": "event"
    },
    {
      "constant": false,
      "inputs": [
        {
          "name": "_escrowAddress",
          "type": "address"
        }
      ],
      "name": "setEscrowAddress",
      "outputs": [],
      "payable": false,
      "stateMutability": "nonpayable",
      "type": "function"
    },
    {
      "constant": true,
      "inputs": [
        {
          "name": "_productId",
          "type": "uint8"
        },
        {
          "name": "_storeName",
          "type": "string"
        }
      ],
      "name": "findFirstItemForSale",
      "outputs": [
        {
          "name": "",
          "type": "uint256"
        }
      ],
      "payable": false,
      "stateMutability": "view",
      "type": "function"
    },
    {
      "constant": false,
      "inputs": [
        {
          "name": "_productId",
          "type": "uint8"
        },
        {
          "name": "_storeName",
          "type": "string"
        }
      ],
      "name": "buyItem",
      "outputs": [
        {
          "name": "index",
          "type": "uint256"
        }
      ],
      "payable": true,
      "stateMutability": "payable",
      "type": "function"
    },
    {
      "constant": false,
      "inputs": [
        {
          "name": "_itemIndex",
          "type": "uint256"
        },
        {
          "name": "_productId",
          "type": "uint8"
        }
      ],
      "name": "shipItem",
      "outputs": [
        {
          "name": "shipped",
          "type": "bool"
        }
      ],
      "payable": false,
      "stateMutability": "nonpayable",
      "type": "function"
    }
  ],
  "bytecode": "0x60806040526001600855336000806101000a81548173ffffffffffffffffffffffffffffffffffffffff021916908373ffffffffffffffffffffffffffffffffffffffff160217905550613472806100586000396000f30060806040526004361061013e576000357c0100000000000000000000000000000000000000000000000000000000900463ffffffff168063060347e01461014357806331df27ce146101c0578063320b2ad9146102175780633ccfd60b1461022e57806340f42c1c146102455780634db4bc16146102885780635f7d53a11461031257806378678a3214610355578063803360b61461039857806381e4fc82146104015780638456cb59146104535780639024b8c5146104825780639bf474b5146104f1578063a075a5b11461055d578063bcddcfb2146105b4578063bdc39f48146105df578063ddeb63b514610622578063e2fdcc1714610665578063e698f0bb146106bc578063f0e06e4a14610713578063f6a99e4c14610780578063fc8234cb14610882578063fd8f49a514610899578063fde57f3b146108ff575b600080fd5b6101aa600480360381019080803560ff169060200190929190803590602001908201803590602001908080601f0160208091040260200160405190810160405280939291908181526020018383808284378201915050505050509192919290505050610942565b6040518082815260200191505060405180910390f35b3480156101cc57600080fd5b50610201600480360381019080803573ffffffffffffffffffffffffffffffffffffffff169060200190929190505050610bff565b6040518082815260200191505060405180910390f35b34801561022357600080fd5b5061022c610c17565b005b34801561023a57600080fd5b50610243610cdd565b005b34801561025157600080fd5b50610286600480360381019080803573ffffffffffffffffffffffffffffffffffffffff169060200190929190505050610db9565b005b34801561029457600080fd5b506102fc600480360381019080803560ff169060200190929190803590602001908201803590602001908080601f0160208091040260200160405190810160405280939291908181526020018383808284378201915050505050509192919290505050610fd2565b6040518082815260200191505060405180910390f35b34801561031e57600080fd5b50610353600480360381019080803573ffffffffffffffffffffffffffffffffffffffff16906020019092919050505061119c565b005b34801561036157600080fd5b50610396600480360381019080803573ffffffffffffffffffffffffffffffffffffffff169060200190929190505050611319565b005b3480156103a457600080fd5b506103ff600480360381019080803590602001908201803590602001908080601f01602080910402602001604051908101604052809392919081815260200183838082843782019150505050505091929192905050506115e2565b005b34801561040d57600080fd5b5061043960048036038101908080359060200190929190803560ff169060200190929190505050611958565b604051808215151515815260200191505060405180910390f35b34801561045f57600080fd5b50610468611c9a565b604051808215151515815260200191505060405180910390f35b34801561048e57600080fd5b506104c5600480360381019080803568ffffffffffffffffff169060200190929190803560ff169060200190929190505050611cad565b604051808268ffffffffffffffffff1668ffffffffffffffffff16815260200191505060405180910390f35b3480156104fd57600080fd5b50610533600480360381019080803560ff169060200190929190803567ffffffffffffffff169060200190929190505050611e24565b604051808267ffffffffffffffff1667ffffffffffffffff16815260200191505060405180910390f35b34801561056957600080fd5b5061059e600480360381019080803573ffffffffffffffffffffffffffffffffffffffff16906020019092919050505061213d565b6040518082815260200191505060405180910390f35b3480156105c057600080fd5b506105c9612155565b6040518082815260200191505060405180910390f35b3480156105eb57600080fd5b50610620600480360381019080803573ffffffffffffffffffffffffffffffffffffffff16906020019092919050505061215b565b005b34801561062e57600080fd5b50610663600480360381019080803573ffffffffffffffffffffffffffffffffffffffff16906020019092919050505061235b565b005b34801561067157600080fd5b5061067a612400565b604051808273ffffffffffffffffffffffffffffffffffffffff1673ffffffffffffffffffffffffffffffffffffffff16815260200191505060405180910390f35b3480156106c857600080fd5b506106d1612426565b604051808273ffffffffffffffffffffffffffffffffffffffff1673ffffffffffffffffffffffffffffffffffffffff16815260200191505060405180910390f35b34801561071f57600080fd5b5061073e6004803603810190808035906020019092919050505061244b565b604051808273ffffffffffffffffffffffffffffffffffffffff1673ffffffffffffffffffffffffffffffffffffffff16815260200191505060405180910390f35b34801561078c57600080fd5b50610807600480360381019080803573ffffffffffffffffffffffffffffffffffffffff169060200190929190803590602001908201803590602001908080601f0160208091040260200160405190810160405280939291908181526020018383808284378201915050505050509192919290505050612480565b6040518080602001828103825283818151815260200191508051906020019080838360005b8381101561084757808201518184015260208101905061082c565b50505050905090810190601f1680156108745780820380516001836020036101000a031916815260200191505b509250505060405180910390f35b34801561088e57600080fd5b50610897612902565b005b3480156108a557600080fd5b506108e3600480360381019080803568ffffffffffffffffff169060200190929190803567ffffffffffffffff1690602001909291905050506129c8565b604051808260ff1660ff16815260200191505060405180910390f35b34801561090b57600080fd5b50610940600480360381019080803573ffffffffffffffffffffffffffffffffffffffff169060200190929190505050612ce7565b005b60008060008060008060001515600760009054906101000a900460ff16151514151561096d57600080fd5b600b876040518082805190602001908083835b6020831015156109a55780518252602082019150602081019050602083039250610980565b6001836020036101000a038019825116818451168082178552505050505050905001915050908152602001604051809103902060009054906101000a900473ffffffffffffffffffffffffffffffffffffffff169450600a60008673ffffffffffffffffffffffffffffffffffffffff1673ffffffffffffffffffffffffffffffffffffffff168152602001908152602001600020549350600960008581526020019081526020016000209250610a5c8888610fd2565b95503491508260080160008960ff1660ff16815260200190815260200160002060010160009054906101000a900468ffffffffffffffffff1668ffffffffffffffffff168210151515610aae57600080fd5b610ab88583612efe565b60028360080160008a60ff1660ff16815260200190815260200160002060000187815481101515610ae557fe5b90600052602060002090602091828204019190066101000a81548160ff02191690836003811115610b1257fe5b021790555085600f60003373ffffffffffffffffffffffffffffffffffffffff1673ffffffffffffffffffffffffffffffffffffffff168152602001908152602001600020819055508260080160008960ff1660ff168152602001908152602001600020600101600981819054906101000a900467ffffffffffffffff16809291906001900391906101000a81548167ffffffffffffffff021916908367ffffffffffffffff160217905550508260080160008960ff1660ff16815260200190815260200160002060010160099054906101000a900467ffffffffffffffff169050505050505092915050565b600f6020528060005260406000206000915090505481565b6000809054906101000a900473ffffffffffffffffffffffffffffffffffffffff1673ffffffffffffffffffffffffffffffffffffffff163373ffffffffffffffffffffffffffffffffffffffff16141515610c7257600080fd5b60001515600760009054906101000a900460ff161515141515610c9457600080fd5b6001600760006101000a81548160ff0219169083151502179055507f6985a02210a168e66602d3235cb6db0e70f92b3ba4d376a33c0f3d9434bff62560405160405180910390a1565b6000809054906101000a900473ffffffffffffffffffffffffffffffffffffffff1673ffffffffffffffffffffffffffffffffffffffff163373ffffffffffffffffffffffffffffffffffffffff16141515610d3857600080fd5b6000809054906101000a900473ffffffffffffffffffffffffffffffffffffffff1673ffffffffffffffffffffffffffffffffffffffff166108fc3073ffffffffffffffffffffffffffffffffffffffff16319081150290604051600060405180830381858888f19350505050158015610db6573d6000803e3d6000fd5b50565b6000806000809054906101000a900473ffffffffffffffffffffffffffffffffffffffff1673ffffffffffffffffffffffffffffffffffffffff163373ffffffffffffffffffffffffffffffffffffffff16141515610e1757600080fd5b60001515600760009054906101000a900460ff161515141515610e3957600080fd5b60009150600090505b60048111158015610e57575060001515821515145b15610fbd578273ffffffffffffffffffffffffffffffffffffffff16600182600581101515610e8257fe5b0160009054906101000a900473ffffffffffffffffffffffffffffffffffffffff1673ffffffffffffffffffffffffffffffffffffffff161415610fb0576000600182600581101515610ed157fe5b0160006101000a81548173ffffffffffffffffffffffffffffffffffffffff021916908373ffffffffffffffffffffffffffffffffffffffff1602179055506000600660008573ffffffffffffffffffffffffffffffffffffffff1673ffffffffffffffffffffffffffffffffffffffff16815260200190815260200160002060006101000a81548160ff021916908315150217905550600191508273ffffffffffffffffffffffffffffffffffffffff167fdca59b6371f7db6faad5c9931588f735722795c7b8ea859824e0afc8b2c70a4f60405160405180910390a25b8080600101915050610e42565b60011515821515141515610fcd57fe5b505050565b6000806000806000806000809550600b886040518082805190602001908083835b6020831015156110185780518252602082019150602081019050602083039250610ff3565b6001836020036101000a038019825116818451168082178552505050505050905001915050908152602001604051809103902060009054906101000a900473ffffffffffffffffffffffffffffffffffffffff169350600d60008573ffffffffffffffffffffffffffffffffffffffff1673ffffffffffffffffffffffffffffffffffffffff1681526020019081526020016000205492506009600084815260200190815260200160002091505b8160080160008a60ff1660ff16815260200190815260200160002060000180549050811080156110fa575060001515861515145b1561117d576000600381111561110c57fe5b8260080160008b60ff1660ff1681526020019081526020016000206000018281548110151561113757fe5b90600052602060002090602091828204019190069054906101000a900460ff16600381111561116257fe5b141561117057809450600195505b80806001019150506110c6565b6001151586151514151561118d57fe5b84965050505050505092915050565b60008060009054906101000a900473ffffffffffffffffffffffffffffffffffffffff1673ffffffffffffffffffffffffffffffffffffffff163373ffffffffffffffffffffffffffffffffffffffff161415156111f957600080fd5b60001515600760009054906101000a900460ff16151514151561121b57600080fd5b600073ffffffffffffffffffffffffffffffffffffffff168273ffffffffffffffffffffffffffffffffffffffff161415151561125757600080fd5b6000809054906101000a900473ffffffffffffffffffffffffffffffffffffffff169050816000806101000a81548173ffffffffffffffffffffffffffffffffffffffff021916908373ffffffffffffffffffffffffffffffffffffffff1602179055508073ffffffffffffffffffffffffffffffffffffffff168273ffffffffffffffffffffffffffffffffffffffff167f1f8d7d25344642d919d55999e4664aa452a5f424bc0936ceb9c2b300db7dcbd960405160405180910390a35050565b60008060008060009054906101000a900473ffffffffffffffffffffffffffffffffffffffff1673ffffffffffffffffffffffffffffffffffffffff163373ffffffffffffffffffffffffffffffffffffffff1614151561137957600080fd5b60001515600760009054906101000a900460ff16151514151561139b57600080fd5b600073ffffffffffffffffffffffffffffffffffffffff168473ffffffffffffffffffffffffffffffffffffffff16141515156113d757600080fd5b5b600483111515611462578373ffffffffffffffffffffffffffffffffffffffff1660018460058110151561140857fe5b0160009054906101000a900473ffffffffffffffffffffffffffffffffffffffff1673ffffffffffffffffffffffffffffffffffffffff161415611457576002600114151561145657600080fd5b5b8260010192506113d8565b600091505b6004811115801561147c575060001515821515145b156115cc57600060018260058110151561149257fe5b0160009054906101000a900473ffffffffffffffffffffffffffffffffffffffff1673ffffffffffffffffffffffffffffffffffffffff1614156115bf57836001826005811015156114e057fe5b0160006101000a81548173ffffffffffffffffffffffffffffffffffffffff021916908373ffffffffffffffffffffffffffffffffffffffff1602179055506001600660008673ffffffffffffffffffffffffffffffffffffffff1673ffffffffffffffffffffffffffffffffffffffff16815260200190815260200160002060006101000a81548160ff021916908315150217905550600191508373ffffffffffffffffffffffffffffffffffffffff167f39e7d4b9ba48f55a740a5192809dbc498fa12724c030b37dab126a3f6774c0f360405160405180910390a25b8080600101915050611467565b600115158215151415156115dc57fe5b50505050565b6000806000809054906101000a900473ffffffffffffffffffffffffffffffffffffffff1673ffffffffffffffffffffffffffffffffffffffff163373ffffffffffffffffffffffffffffffffffffffff161480611690575060011515600660003373ffffffffffffffffffffffffffffffffffffffff1673ffffffffffffffffffffffffffffffffffffffff16815260200190815260200160002060009054906101000a900460ff161515145b151561169b57600080fd5b600b836040518082805190602001908083835b6020831015156116d357805182526020820191506020810190506020830392506116ae565b6001836020036101000a038019825116818451168082178552505050505050905001915050908152602001604051809103902060009054906101000a900473ffffffffffffffffffffffffffffffffffffffff1691506000600a60008473ffffffffffffffffffffffffffffffffffffffff1673ffffffffffffffffffffffffffffffffffffffff168152602001908152602001600020541415151561177857600080fd5b6000600c846040518082805190602001908083835b6020831015156117b2578051825260208201915060208101905060208303925061178d565b6001836020036101000a038019825116818451168082178552505050505050905001915050908152602001604051809103902060006101000a81548160ff021916908315150217905550600a60008373ffffffffffffffffffffffffffffffffffffffff1673ffffffffffffffffffffffffffffffffffffffff168152602001908152602001600020549050600960008281526020019081526020016000206000808201600061186291906130f5565b6006820160006101000a81549060ff02191690556007820160006118869190613108565b50508173ffffffffffffffffffffffffffffffffffffffff167f99834834070224a7bc8eee507b8f041592b6cd80dd705f79f81b42487b0b460d60405160405180910390a26000600a60008473ffffffffffffffffffffffffffffffffffffffff1673ffffffffffffffffffffffffffffffffffffffff168152602001908152602001600020819055508173ffffffffffffffffffffffffffffffffffffffff167fe6547a945aa917d8f8b8a71a98062b03570c5ab79d6f47aa64dab5ae6483e0c860405160405180910390a2505050565b60008060008060001515600760009054906101000a900460ff16151514151561198057600080fd5b6000600d60003373ffffffffffffffffffffffffffffffffffffffff1673ffffffffffffffffffffffffffffffffffffffff16815260200190815260200160002054141515156119cf57600080fd5b600d60003373ffffffffffffffffffffffffffffffffffffffff1673ffffffffffffffffffffffffffffffffffffffff16815260200190815260200160002054925060096000848152602001908152602001600020915060026003811115611a3357fe5b8260080160008760ff1660ff16815260200190815260200160002060000187815481101515611a5e57fe5b90600052602060002090602091828204019190069054906101000a900460ff166003811115611a8957fe5b141515611a9557600080fd5b600093508160080160008660ff1660ff16815260200190815260200160002060010160009054906101000a900468ffffffffffffffffff16905060038260080160008760ff1660ff16815260200190815260200160002060000187815481101515611afc57fe5b90600052602060002090602091828204019190066101000a81548160ff02191690836003811115611b2957fe5b0217905550600193508460ff16867fa88cd15baa294be44c222117dcf9e5a965809cae03e05f544dc401b296cafabc846007016040518080602001828103825283818154600181600116156101000203166002900481526020019150805460018160011615610100020316600290048015611be55780601f10611bba57610100808354040283529160200191611be5565b820191906000526020600020905b815481529060010190602001808311611bc857829003601f168201915b50509250505060405180910390a3611c91600b836007016040518082805460018160011615610100020316600290048015611c575780601f10611c35576101008083540402835291820191611c57565b820191906000526020600020905b815481529060010190602001808311611c43575b5050915050908152602001604051809103902060009054906101000a900473ffffffffffffffffffffffffffffffffffffffff1682612ffe565b50505092915050565b600760009054906101000a900460ff1681565b600080600080600a60003373ffffffffffffffffffffffffffffffffffffffff1673ffffffffffffffffffffffffffffffffffffffff1681526020019081526020016000205414151515611d0057600080fd5b60001515600760009054906101000a900460ff161515141515611d2257600080fd5b600a60003373ffffffffffffffffffffffffffffffffffffffff1673ffffffffffffffffffffffffffffffffffffffff16815260200190815260200160002054915060096000838152602001908152602001600020905060008568ffffffffffffffffff1610151515611d9457600080fd5b600015158160080160008660ff1660ff16815260200190815260200160002060010160119054906101000a900460ff161515141515611dd257600080fd5b848160080160008660ff1660ff16815260200190815260200160002060010160006101000a81548168ffffffffffffffffff021916908368ffffffffffffffffff160217905550849250505092915050565b6000806000806000806000600d60003373ffffffffffffffffffffffffffffffffffffffff1673ffffffffffffffffffffffffffffffffffffffff1681526020019081526020016000205414151515611e7c57600080fd5b60001515600760009054906101000a900460ff161515141515611e9e57600080fd5b6101f48767ffffffffffffffff1611151515611eb957600080fd5b600d60003373ffffffffffffffffffffffffffffffffffffffff1673ffffffffffffffffffffffffffffffffffffffff1681526020019081526020016000205494506009600086815260200190815260200160002093508360080160008960ff1660ff16815260200190815260200160002060010160099054906101000a900467ffffffffffffffff169250677fffffffffffffff87840167ffffffffffffffff16101515611f6757600080fd5b8683018460080160008a60ff1660ff16815260200190815260200160002060010160096101000a81548167ffffffffffffffff021916908367ffffffffffffffff1602179055508360080160008960ff1660ff16815260200190815260200160002060010160119054906101000a900460ff16915060001515821515141515611fef57600080fd5b5b8667ffffffffffffffff1681101561207c578360080160008960ff1660ff1681526020019081526020016000206000016000908060018154018082558091505090600182039060005260206000209060209182820401919006909192909190916101000a81548160ff0219169083600381111561206957fe5b0217905550508080600101915050611ff0565b8760ff167fcd54f669064af9fb6802bd64bd9ae5303d604527aec88e9024bc9517c945fab78560080160008b60ff1660ff16815260200190815260200160002060010160099054906101000a900467ffffffffffffffff16604051808267ffffffffffffffff1667ffffffffffffffff16815260200191505060405180910390a28360080160008960ff1660ff16815260200190815260200160002060010160099054906101000a900467ffffffffffffffff169550505050505092915050565b600a6020528060005260406000206000915090505481565b60085481565b60008060008060001515600760009054906101000a900460ff16151514151561218357600080fd5b6000600a60003373ffffffffffffffffffffffffffffffffffffffff1673ffffffffffffffffffffffffffffffffffffffff16815260200190815260200160002054141515156121d257600080fd5b600a60003373ffffffffffffffffffffffffffffffffffffffff1673ffffffffffffffffffffffffffffffffffffffff16815260200190815260200160002054935060096000858152602001908152602001600020925060009150600190505b60058111158015612247575060001515821515145b15612344576000836000018260068110151561225f57fe5b0160009054906101000a900473ffffffffffffffffffffffffffffffffffffffff1673ffffffffffffffffffffffffffffffffffffffff16141561233757600191508483600001826006811015156122b357fe5b0160006101000a81548173ffffffffffffffffffffffffffffffffffffffff021916908373ffffffffffffffffffffffffffffffffffffffff16021790555083600d60008773ffffffffffffffffffffffffffffffffffffffff1673ffffffffffffffffffffffffffffffffffffffff168152602001908152602001600020819055505b8080600101915050612232565b6001151582151514151561235457fe5b5050505050565b60008060009054906101000a900473ffffffffffffffffffffffffffffffffffffffff1673ffffffffffffffffffffffffffffffffffffffff163373ffffffffffffffffffffffffffffffffffffffff161415156123b857600080fd5b81905080600e60006101000a81548173ffffffffffffffffffffffffffffffffffffffff021916908373ffffffffffffffffffffffffffffffffffffffff1602179055505050565b600e60009054906101000a900473ffffffffffffffffffffffffffffffffffffffff1681565b6000809054906101000a900473ffffffffffffffffffffffffffffffffffffffff1681565b60018160058110151561245a57fe5b016000915054906101000a900473ffffffffffffffffffffffffffffffffffffffff1681565b606061248a613150565b612492613173565b6000809054906101000a900473ffffffffffffffffffffffffffffffffffffffff1673ffffffffffffffffffffffffffffffffffffffff163373ffffffffffffffffffffffffffffffffffffffff16148061253d575060011515600660003373ffffffffffffffffffffffffffffffffffffffff1673ffffffffffffffffffffffffffffffffffffffff16815260200190815260200160002060009054906101000a900460ff161515145b151561254857600080fd5b60001515600760009054906101000a900460ff16151514151561256a57600080fd5b6000600a60008773ffffffffffffffffffffffffffffffffffffffff1673ffffffffffffffffffffffffffffffffffffffff168152602001908152602001600020541415156125b857600080fd5b60001515600c856040518082805190602001908083835b6020831015156125f457805182526020820191506020810190506020830392506125cf565b6001836020036101000a038019825116818451168082178552505050505050905001915050908152602001604051809103902060009054906101000a900460ff16151514151561264357600080fd5b606060405190810160405280838152602001600060ff168152602001858152509050600854600a60008773ffffffffffffffffffffffffffffffffffffffff1673ffffffffffffffffffffffffffffffffffffffff16815260200190815260200160002081905550600854600d60008773ffffffffffffffffffffffffffffffffffffffff1673ffffffffffffffffffffffffffffffffffffffff168152602001908152602001600020819055508060096000600854815260200190815260200160002060008201518160000190600661271e92919061319f565b5060208201518160060160006101000a81548160ff021916908360ff160217905550604082015181600701908051906020019061275c92919061321c565b5090505060086000815480929190600101919050555084600b82604001516040518082805190602001908083835b6020831015156127af578051825260208201915060208101905060208303925061278a565b6001836020036101000a038019825116818451168082178552505050505050905001915050908152602001604051809103902060006101000a81548173ffffffffffffffffffffffffffffffffffffffff021916908373ffffffffffffffffffffffffffffffffffffffff1602179055506001600c82604001516040518082805190602001908083835b60208310151561285e5780518252602082019150602081019050602083039250612839565b6001836020036101000a038019825116818451168082178552505050505050905001915050908152602001604051809103902060006101000a81548160ff02191690831515021790555084816000015160006006811015156128bc57fe5b602002019073ffffffffffffffffffffffffffffffffffffffff16908173ffffffffffffffffffffffffffffffffffffffff168152505080604001519250505092915050565b6000809054906101000a900473ffffffffffffffffffffffffffffffffffffffff1673ffffffffffffffffffffffffffffffffffffffff163373ffffffffffffffffffffffffffffffffffffffff1614151561295d57600080fd5b60011515600760009054906101000a900460ff16151514151561297f57600080fd5b6000600760006101000a81548160ff0219169083151502179055507f7805862f689e2f13df9f062ff482ad3ad112aca9e0847911ed832e158c525b3360405160405180910390a1565b60008060006129d561329c565b6000801515600760009054906101000a900460ff1615151415156129f857600080fd5b6000600d60003373ffffffffffffffffffffffffffffffffffffffff1673ffffffffffffffffffffffffffffffffffffffff1681526020019081526020016000205414151515612a4757600080fd5b6101f48667ffffffffffffffff1611151515612a6257600080fd5b600d60003373ffffffffffffffffffffffffffffffffffffffff1673ffffffffffffffffffffffffffffffffffffffff1681526020019081526020016000205493506009600085815260200190815260200160002092506101008360060160009054906101000a900460ff1660ff16101515612add57600080fd5b6080604051908101604052806000604051908082528060200260200182016040528015612b195781602001602082028038833980820191505090505b5081526020018868ffffffffffffffffff1681526020018767ffffffffffffffff1681526020016000151581525091508260060160009054906101000a900460ff169450818360080160008760ff1660ff1681526020019081526020016000206000820151816000019080519060200190612b959291906132dc565b5060208201518160010160006101000a81548168ffffffffffffffffff021916908368ffffffffffffffffff16021790555060408201518160010160096101000a81548167ffffffffffffffff021916908367ffffffffffffffff16021790555060608201518160010160116101000a81548160ff02191690831515021790555090505082600601600081819054906101000a900460ff168092919060010191906101000a81548160ff021916908360ff160217905550505b8567ffffffffffffffff16811015612cda578260080160008660ff1660ff1681526020019081526020016000206000016000908060018154018082558091505090600182039060005260206000209060209182820401919006909192909190916101000a81548160ff02191690836003811115612cc757fe5b0217905550508080600101915050612c4e565b8494505050505092915050565b6000806000806000600a60003373ffffffffffffffffffffffffffffffffffffffff1673ffffffffffffffffffffffffffffffffffffffff1681526020019081526020016000205414151515612d3c57600080fd5b60001515600760009054906101000a900460ff161515141515612d5e57600080fd5b600a60003373ffffffffffffffffffffffffffffffffffffffff1673ffffffffffffffffffffffffffffffffffffffff16815260200190815260200160002054935060096000858152602001908152602001600020925060009150600190505b60058111158015612dd3575060001515821515145b15612ee7578473ffffffffffffffffffffffffffffffffffffffff168360000182600681101515612e0057fe5b0160009054906101000a900473ffffffffffffffffffffffffffffffffffffffff1673ffffffffffffffffffffffffffffffffffffffff161415612eda5760008360000182600681101515612e5157fe5b0160006101000a81548173ffffffffffffffffffffffffffffffffffffffff021916908373ffffffffffffffffffffffffffffffffffffffff1602179055506000600d60008773ffffffffffffffffffffffffffffffffffffffff1673ffffffffffffffffffffffffffffffffffffffff16815260200190815260200160002081905550600191505b8080600101915050612dbe565b60011515821515141515612ef757fe5b5050505050565b803073ffffffffffffffffffffffffffffffffffffffff163110151515612f2457600080fd5b600e60009054906101000a900473ffffffffffffffffffffffffffffffffffffffff1673ffffffffffffffffffffffffffffffffffffffff1663f340fa0182846040518363ffffffff167c0100000000000000000000000000000000000000000000000000000000028152600401808273ffffffffffffffffffffffffffffffffffffffff1673ffffffffffffffffffffffffffffffffffffffff1681526020019150506000604051808303818588803b158015612fe157600080fd5b505af1158015612ff5573d6000803e3d6000fd5b50505050505050565b600e60009054906101000a900473ffffffffffffffffffffffffffffffffffffffff1673ffffffffffffffffffffffffffffffffffffffff1663eb104bbb83836040518363ffffffff167c0100000000000000000000000000000000000000000000000000000000028152600401808373ffffffffffffffffffffffffffffffffffffffff1673ffffffffffffffffffffffffffffffffffffffff1681526020018268ffffffffffffffffff1668ffffffffffffffffff16815260200192505050600060405180830381600087803b1580156130d957600080fd5b505af11580156130ed573d6000803e3d6000fd5b505050505050565b508060060190613105919061338b565b50565b50805460018160011615610100020316600290046000825580601f1061312e575061314d565b601f01602090049060005260206000209081019061314c919061338b565b5b50565b60c060405190810160405280600690602082028038833980820191505090505090565b610100604051908101604052806131886133b0565b8152602001600060ff168152602001606081525090565b826006810192821561320b579160200282015b8281111561320a5782518260006101000a81548173ffffffffffffffffffffffffffffffffffffffff021916908373ffffffffffffffffffffffffffffffffffffffff160217905550916020019190600101906131b2565b5b50905061321891906133d3565b5090565b828054600181600116156101000203166002900490600052602060002090601f016020900481019282601f1061325d57805160ff191683800117855561328b565b8280016001018555821561328b579182015b8281111561328a57825182559160200191906001019061326f565b5b509050613298919061338b565b5090565b60806040519081016040528060608152602001600068ffffffffffffffffff168152602001600067ffffffffffffffff1681526020016000151581525090565b82805482825590600052602060002090601f0160209004810192821561337a5791602002820160005b8382111561334b57835183826101000a81548160ff0219169083600381111561332a57fe5b02179055509260200192600101602081600001049283019260010302613305565b80156133785782816101000a81549060ff021916905560010160208160000104928301926001030261334b565b505b5090506133879190613416565b5090565b6133ad91905b808211156133a9576000816000905550600101613391565b5090565b90565b60c060405190810160405280600690602082028038833980820191505090505090565b61341391905b8082111561340f57600081816101000a81549073ffffffffffffffffffffffffffffffffffffffff0219169055506001016133d9565b5090565b90565b61344391905b8082111561343f57600081816101000a81549060ff02191690555060010161341c565b5090565b905600a165627a7a7230582072098b79a3bd5c43905f6f73a78220f7c311660bc2044e039ddbd9e6712790440029",
  "source": "pragma solidity ^0.4.24;\n\nimport \"./StoreManagement.sol\";\n/*import \"./Auction/ClockAuctionBase.sol\";\nimport \"./Auction/ClockAuction.sol\";*/\nimport \"../importedContracts/payment/Escrow.sol\";\n\n\n/* @dev This contract is used to manage the purchasing process for set price\n * products. It also manages payments through an escrow contract.  When owner's\n * or admin's ship a product to the purchaser, they withdraw the deposited fund\n * from the purchase of that item. Auction items are NOT managed in this contract\n*/\ncontract StorePurchasing is StoreManagement{\n\n  /// @dev Let owner/admins know a product instance has been purchased\n  event LogItemBought(uint8 indexed _productId, address indexed _purchaser,string _storeName);\n  /// @dev Let owner/admins know they are running out or are out of a product\n  event LogInventoryLow(string indexed _storeName, uint8 indexed _productId,uint64 remaining);\n  event LogInventoryOut(string indexed _storeName, uint8 indexed _productId);\n  /// @dev record that a purchased item has been shipped\n  event LogItemShipped(uint indexed _index,uint8 indexed _productId,string _storeName);\n\n  /// @dev address of the contract used to handle escrow services;\n  Escrow public escrow;\n\n  /// @dev Used to record the purchaser address and the item they purchased\n  mapping(address => uint) public purchaserToItem;\n\n  /// @dev set the address of the contract handling escrow services;\n  /// @param _escrowAddress : The address of the contract being used\n  function setEscrowAddress(address _escrowAddress) public onlyMaatsOwner {\n    Escrow _escrow = Escrow(_escrowAddress);\n    escrow = _escrow;\n  }\n\n  /// @dev An internal function used to store the payment in the escrow for the owner\n  /// @param _payee : the address of the owner getting payed\n  /// @param value : the value of msg.value in the function calling this function.\n  function depositEscrow(address _payee, uint value) internal{\n    // require that adequate funds are in this contract.\n    require(address(this).balance >= value);\n    // make deposit for the owner\n    escrow.deposit.value(value)(_payee);\n  }\n\n  /// @dev An internal function which withdraws and sends funds to store owner\n  /// @param _payee : the address of the store owner getting payed.\n  /// @param _payment : the amount of money to be withdrawn\n  function withdrawEscrow(address _payee, uint72 _payment) internal{\n    escrow.withdraw(_payee,_payment);\n  }\n\n  // this could get expensive, lead to security weaknesses, consider method with\n  // index count of first \"forSale\" item. Make public for testing\n  /// @dev Finds the first item in array that is \"ForSale\"\n  /// @param _productId : product which is about to be sold\n  /// @param _storeName : store to which the product belongs\n  function findFirstItemForSale(uint8 _productId, string _storeName) public view returns(uint){\n    bool found = false;\n    uint index;\n    address _owner = StoreNameToOwner[_storeName];\n    uint storeId = storeAdminToStoreId[_owner];\n    Store storage _store = storeIdToStore[storeId];\n    for(uint i; i < _store.products[_productId].items.length && found == false; i++){\n      if(_store.products[_productId].items[i] == ItemStatus.ForSale){\n        index = i;\n        found = true;\n      }\n    }\n    // want to avoid silent failure and subsequent inappropriate decrement of inventory\n    assert(found == true);\n    return index;\n  }\n\n\n  /// @dev This payable function allows customers to buy products from a store\n  /// It requires that the value sent in msg.value is greater than the price\n  /// of the product. It calls internal function depositEscrow. It will also\n  /// emit events to let owner/admins know if their inventory is (almost) out\n  /// @param _productId : the product type being purchased\n  /// @param _storeName : the unique identifer for the store which sells the product\n  /// @return index : The location of the item instance being purchased\n  function buyItem(uint8 _productId, string _storeName)\n    public\n    payable\n    whenNotPaused\n    returns (uint index){\n      // get address of store owner to be accessed in depositEscrow\n      address _storeOwner = StoreNameToOwner[_storeName];\n      uint storeId = OwnerToStoreId[_storeOwner];\n      Store storage _store = storeIdToStore[storeId];\n\n      // calls internal function to find first product instance ForSale\n      index = findFirstItemForSale(_productId, _storeName);\n\n      // require funds sent are adequate\n      uint value = msg.value;\n      require(value >= _store.products[_productId].price);\n      depositEscrow(_storeOwner, value);\n\n      _store.products[_productId].items[index] = ItemStatus.Bought;\n\n      purchaserToItem[msg.sender] = index;\n\n      // update the inventory of the product type\n      _store.products[_productId].inventory--;\n      uint64 remaining = _store.products[_productId].inventory;\n  }\n\n  /// @dev Once an item is logged as bought, the store owner/admin can ship the\n  /// item and use this function to log it has been shipped. When Item is shipped,\n  /// the owner receives their deposits from escrow.\n  /// @param _itemIndex : the instance of the item to be shipped\n  /// @param _productId : the product type to which the instance belongs\n  /// @return shipped : simply confirms that the product has infact been shipped.\n  function shipItem(uint _itemIndex,uint8 _productId)\n    public\n    whenNotPaused\n    onlyStoreAdmin\n    returns(bool shipped){\n      uint storeId = storeAdminToStoreId[msg.sender];\n      Store storage current = storeIdToStore[storeId];\n      require(current.products[_productId].items[_itemIndex] == ItemStatus.Bought);\n      shipped = false;\n      uint72 payment = current.products[_productId].price;\n      // would be great to use an oracle here to check that UPS has received the package\n      // for now will let store leadership change the status of the item to shipped\n      current.products[_productId].items[_itemIndex] = ItemStatus.Shipped;\n      shipped = true;\n      emit LogItemShipped(_itemIndex, _productId, current.storeName);\n\n      withdrawEscrow(StoreNameToOwner[current.storeName], payment);\n    }\n}\n",
  "sourcePath": "/Users/ericbrown/Documents/Blockchain/ConsenSysCourse/GitHub/Maats/contracts/StorePurchasing.sol",
  "compiler": {
    "name": "solc",
    "version": "0.4.24+commit.e67f0147.Emscripten.clang"
  },
  "schemaVersion": "2.0.1",
  "updatedAt": "2018-08-27T02:56:40.403Z"
}