{
  "contractName": "StoreAuction",
  "abi": [
    {
      "constant": true,
      "inputs": [
        {
          "name": "adminAddress",
          "type": "address"
        }
      ],
      "name": "getIsStoreAdmin",
      "outputs": [
        {
          "name": "",
          "type": "bool"
        }
      ],
      "payable": false,
      "stateMutability": "view",
      "type": "function"
    },
    {
      "constant": true,
      "inputs": [
        {
          "name": "_storeName",
          "type": "string"
        }
      ],
      "name": "getNumProducts",
      "outputs": [
        {
          "name": "",
          "type": "uint256"
        }
      ],
      "payable": false,
      "stateMutability": "view",
      "type": "function"
    },
    {
      "constant": false,
      "inputs": [
        {
          "name": "_productId",
          "type": "uint8"
        },
        {
          "name": "_storeName",
          "type": "string"
        }
      ],
      "name": "buyItem",
      "outputs": [
        {
          "name": "index",
          "type": "uint256"
        }
      ],
      "payable": true,
      "stateMutability": "payable",
      "type": "function"
    },
    {
      "constant": true,
      "inputs": [
        {
          "name": "_storeName",
          "type": "string"
        }
      ],
      "name": "getOwnerFromName",
      "outputs": [
        {
          "name": "",
          "type": "address"
        }
      ],
      "payable": false,
      "stateMutability": "view",
      "type": "function"
    },
    {
      "constant": true,
      "inputs": [
        {
          "name": "storeName",
          "type": "string"
        },
        {
          "name": "productId",
          "type": "uint8"
        }
      ],
      "name": "getCurrentSetPrice",
      "outputs": [
        {
          "name": "",
          "type": "uint72"
        }
      ],
      "payable": false,
      "stateMutability": "view",
      "type": "function"
    },
    {
      "constant": true,
      "inputs": [
        {
          "name": "_storeName",
          "type": "string"
        }
      ],
      "name": "getStoreExists",
      "outputs": [
        {
          "name": "",
          "type": "bool"
        }
      ],
      "payable": false,
      "stateMutability": "view",
      "type": "function"
    },
    {
      "constant": true,
      "inputs": [
        {
          "name": "",
          "type": "address"
        }
      ],
      "name": "purchaserToItem",
      "outputs": [
        {
          "name": "",
          "type": "uint256"
        }
      ],
      "payable": false,
      "stateMutability": "view",
      "type": "function"
    },
    {
      "constant": false,
      "inputs": [],
      "name": "_pause",
      "outputs": [],
      "payable": false,
      "stateMutability": "nonpayable",
      "type": "function"
    },
    {
      "constant": false,
      "inputs": [],
      "name": "withdraw",
      "outputs": [],
      "payable": false,
      "stateMutability": "nonpayable",
      "type": "function"
    },
    {
      "constant": false,
      "inputs": [
        {
          "name": "_revokedAdmin",
          "type": "address"
        }
      ],
      "name": "removeMaatsAdmin",
      "outputs": [],
      "payable": false,
      "stateMutability": "nonpayable",
      "type": "function"
    },
    {
      "constant": true,
      "inputs": [
        {
          "name": "_productId",
          "type": "uint8"
        },
        {
          "name": "_storeName",
          "type": "string"
        }
      ],
      "name": "findFirstItemForSale",
      "outputs": [
        {
          "name": "",
          "type": "uint256"
        }
      ],
      "payable": false,
      "stateMutability": "view",
      "type": "function"
    },
    {
      "constant": false,
      "inputs": [
        {
          "name": "_newOwner",
          "type": "address"
        }
      ],
      "name": "setMaatsOwner",
      "outputs": [],
      "payable": false,
      "stateMutability": "nonpayable",
      "type": "function"
    },
    {
      "constant": true,
      "inputs": [
        {
          "name": "_productId",
          "type": "uint8"
        },
        {
          "name": "_storeName",
          "type": "string"
        }
      ],
      "name": "getProductType",
      "outputs": [
        {
          "name": "",
          "type": "bool"
        }
      ],
      "payable": false,
      "stateMutability": "view",
      "type": "function"
    },
    {
      "constant": true,
      "inputs": [
        {
          "name": "index",
          "type": "uint256"
        },
        {
          "name": "storeName",
          "type": "string"
        }
      ],
      "name": "getStoreAdmins",
      "outputs": [
        {
          "name": "",
          "type": "address"
        }
      ],
      "payable": false,
      "stateMutability": "view",
      "type": "function"
    },
    {
      "constant": false,
      "inputs": [
        {
          "name": "_newAdmin",
          "type": "address"
        }
      ],
      "name": "createMaatsAdmin",
      "outputs": [],
      "payable": false,
      "stateMutability": "nonpayable",
      "type": "function"
    },
    {
      "constant": false,
      "inputs": [
        {
          "name": "_storeName",
          "type": "string"
        }
      ],
      "name": "removeStoreOwner",
      "outputs": [],
      "payable": false,
      "stateMutability": "nonpayable",
      "type": "function"
    },
    {
      "constant": false,
      "inputs": [
        {
          "name": "_itemIndex",
          "type": "uint256"
        },
        {
          "name": "_productId",
          "type": "uint8"
        }
      ],
      "name": "shipItem",
      "outputs": [
        {
          "name": "shipped",
          "type": "bool"
        }
      ],
      "payable": false,
      "stateMutability": "nonpayable",
      "type": "function"
    },
    {
      "constant": true,
      "inputs": [
        {
          "name": "_admin",
          "type": "address"
        }
      ],
      "name": "getIsAdmin",
      "outputs": [
        {
          "name": "",
          "type": "bool"
        }
      ],
      "payable": false,
      "stateMutability": "view",
      "type": "function"
    },
    {
      "constant": true,
      "inputs": [],
      "name": "pause",
      "outputs": [
        {
          "name": "",
          "type": "bool"
        }
      ],
      "payable": false,
      "stateMutability": "view",
      "type": "function"
    },
    {
      "constant": false,
      "inputs": [
        {
          "name": "_newPrice",
          "type": "uint72"
        },
        {
          "name": "_productId",
          "type": "uint8"
        }
      ],
      "name": "changePrice",
      "outputs": [
        {
          "name": "",
          "type": "uint72"
        }
      ],
      "payable": false,
      "stateMutability": "nonpayable",
      "type": "function"
    },
    {
      "constant": false,
      "inputs": [
        {
          "name": "_productId",
          "type": "uint8"
        },
        {
          "name": "_newInventory",
          "type": "uint64"
        }
      ],
      "name": "addInventory",
      "outputs": [
        {
          "name": "",
          "type": "uint64"
        }
      ],
      "payable": false,
      "stateMutability": "nonpayable",
      "type": "function"
    },
    {
      "constant": true,
      "inputs": [
        {
          "name": "storeName",
          "type": "string"
        },
        {
          "name": "index",
          "type": "uint256"
        },
        {
          "name": "productId",
          "type": "uint8"
        }
      ],
      "name": "getItemShipped",
      "outputs": [
        {
          "name": "",
          "type": "bool"
        }
      ],
      "payable": false,
      "stateMutability": "view",
      "type": "function"
    },
    {
      "constant": true,
      "inputs": [
        {
          "name": "",
          "type": "address"
        }
      ],
      "name": "OwnerToStoreId",
      "outputs": [
        {
          "name": "",
          "type": "uint256"
        }
      ],
      "payable": false,
      "stateMutability": "view",
      "type": "function"
    },
    {
      "constant": true,
      "inputs": [
        {
          "name": "_purchaser",
          "type": "address"
        }
      ],
      "name": "getPurchase",
      "outputs": [
        {
          "name": "",
          "type": "uint256"
        }
      ],
      "payable": false,
      "stateMutability": "view",
      "type": "function"
    },
    {
      "constant": true,
      "inputs": [],
      "name": "currentStoreCount",
      "outputs": [
        {
          "name": "",
          "type": "uint256"
        }
      ],
      "payable": false,
      "stateMutability": "view",
      "type": "function"
    },
    {
      "constant": false,
      "inputs": [
        {
          "name": "_NewAdminAddress",
          "type": "address"
        }
      ],
      "name": "createStoreAdmin",
      "outputs": [],
      "payable": false,
      "stateMutability": "nonpayable",
      "type": "function"
    },
    {
      "constant": true,
      "inputs": [
        {
          "name": "storeName",
          "type": "string"
        },
        {
          "name": "productId",
          "type": "uint8"
        }
      ],
      "name": "getCurrentInventory",
      "outputs": [
        {
          "name": "",
          "type": "uint64"
        }
      ],
      "payable": false,
      "stateMutability": "view",
      "type": "function"
    },
    {
      "constant": false,
      "inputs": [
        {
          "name": "_escrowAddress",
          "type": "address"
        }
      ],
      "name": "setEscrowAddress",
      "outputs": [],
      "payable": false,
      "stateMutability": "nonpayable",
      "type": "function"
    },
    {
      "constant": true,
      "inputs": [],
      "name": "escrow",
      "outputs": [
        {
          "name": "",
          "type": "address"
        }
      ],
      "payable": false,
      "stateMutability": "view",
      "type": "function"
    },
    {
      "constant": true,
      "inputs": [
        {
          "name": "storeName",
          "type": "string"
        },
        {
          "name": "productId",
          "type": "uint8"
        }
      ],
      "name": "getProductExists",
      "outputs": [
        {
          "name": "",
          "type": "bool"
        }
      ],
      "payable": false,
      "stateMutability": "view",
      "type": "function"
    },
    {
      "constant": true,
      "inputs": [],
      "name": "maatsOwner",
      "outputs": [
        {
          "name": "",
          "type": "address"
        }
      ],
      "payable": false,
      "stateMutability": "view",
      "type": "function"
    },
    {
      "constant": true,
      "inputs": [
        {
          "name": "",
          "type": "uint256"
        }
      ],
      "name": "maatsAdmins",
      "outputs": [
        {
          "name": "",
          "type": "address"
        }
      ],
      "payable": false,
      "stateMutability": "view",
      "type": "function"
    },
    {
      "constant": false,
      "inputs": [
        {
          "name": "_newOwner",
          "type": "address"
        },
        {
          "name": "_storeName",
          "type": "string"
        }
      ],
      "name": "createStore",
      "outputs": [
        {
          "name": "",
          "type": "string"
        }
      ],
      "payable": false,
      "stateMutability": "nonpayable",
      "type": "function"
    },
    {
      "constant": false,
      "inputs": [],
      "name": "_unpause",
      "outputs": [],
      "payable": false,
      "stateMutability": "nonpayable",
      "type": "function"
    },
    {
      "constant": false,
      "inputs": [
        {
          "name": "_price",
          "type": "uint72"
        },
        {
          "name": "_inventory",
          "type": "uint64"
        }
      ],
      "name": "createSetPriceProduct",
      "outputs": [
        {
          "name": "_productId",
          "type": "uint8"
        }
      ],
      "payable": false,
      "stateMutability": "nonpayable",
      "type": "function"
    },
    {
      "constant": false,
      "inputs": [
        {
          "name": "_adminAddress",
          "type": "address"
        }
      ],
      "name": "removeStoreAdmin",
      "outputs": [],
      "payable": false,
      "stateMutability": "nonpayable",
      "type": "function"
    },
    {
      "constant": true,
      "inputs": [
        {
          "name": "i",
          "type": "uint256"
        }
      ],
      "name": "getStoreName",
      "outputs": [
        {
          "name": "",
          "type": "string"
        }
      ],
      "payable": false,
      "stateMutability": "view",
      "type": "function"
    },
    {
      "anonymous": false,
      "inputs": [
        {
          "indexed": false,
          "name": "number",
          "type": "uint256"
        }
      ],
      "name": "TestLog",
      "type": "event"
    },
    {
      "anonymous": false,
      "inputs": [
        {
          "indexed": false,
          "name": "_auctionId",
          "type": "uint256"
        },
        {
          "indexed": true,
          "name": "_storeName",
          "type": "string"
        }
      ],
      "name": "LogNewAuctionProduct",
      "type": "event"
    },
    {
      "anonymous": false,
      "inputs": [
        {
          "indexed": false,
          "name": "auctionId",
          "type": "uint256"
        },
        {
          "indexed": false,
          "name": "startingPrice",
          "type": "uint256"
        },
        {
          "indexed": false,
          "name": "endingPrice",
          "type": "uint256"
        },
        {
          "indexed": false,
          "name": "duration",
          "type": "uint256"
        }
      ],
      "name": "AuctionCreated",
      "type": "event"
    },
    {
      "anonymous": false,
      "inputs": [
        {
          "indexed": false,
          "name": "productId",
          "type": "uint8"
        },
        {
          "indexed": false,
          "name": "totalPrice",
          "type": "uint256"
        },
        {
          "indexed": false,
          "name": "winner",
          "type": "address"
        }
      ],
      "name": "AuctionSuccessful",
      "type": "event"
    },
    {
      "anonymous": false,
      "inputs": [
        {
          "indexed": false,
          "name": "auctionId",
          "type": "uint256"
        }
      ],
      "name": "AuctionCancelled",
      "type": "event"
    },
    {
      "anonymous": false,
      "inputs": [
        {
          "indexed": true,
          "name": "_productId",
          "type": "uint8"
        },
        {
          "indexed": true,
          "name": "_purchaser",
          "type": "address"
        },
        {
          "indexed": false,
          "name": "_storeName",
          "type": "string"
        }
      ],
      "name": "LogItemBought",
      "type": "event"
    },
    {
      "anonymous": false,
      "inputs": [
        {
          "indexed": true,
          "name": "_storeName",
          "type": "string"
        },
        {
          "indexed": true,
          "name": "_productId",
          "type": "uint8"
        },
        {
          "indexed": false,
          "name": "remaining",
          "type": "uint64"
        }
      ],
      "name": "LogInventoryLow",
      "type": "event"
    },
    {
      "anonymous": false,
      "inputs": [
        {
          "indexed": true,
          "name": "_storeName",
          "type": "string"
        },
        {
          "indexed": true,
          "name": "_productId",
          "type": "uint8"
        }
      ],
      "name": "LogInventoryOut",
      "type": "event"
    },
    {
      "anonymous": false,
      "inputs": [
        {
          "indexed": true,
          "name": "_index",
          "type": "uint256"
        },
        {
          "indexed": true,
          "name": "_productId",
          "type": "uint8"
        },
        {
          "indexed": false,
          "name": "_storeName",
          "type": "string"
        }
      ],
      "name": "LogItemShipped",
      "type": "event"
    },
    {
      "anonymous": false,
      "inputs": [
        {
          "indexed": false,
          "name": "_productId",
          "type": "uint8"
        },
        {
          "indexed": true,
          "name": "_storeName",
          "type": "string"
        }
      ],
      "name": "LogNewSetPriceProduct",
      "type": "event"
    },
    {
      "anonymous": false,
      "inputs": [
        {
          "indexed": true,
          "name": "_productId",
          "type": "uint8"
        },
        {
          "indexed": false,
          "name": "inventory",
          "type": "uint64"
        }
      ],
      "name": "LogAddedInventory",
      "type": "event"
    },
    {
      "anonymous": false,
      "inputs": [
        {
          "indexed": true,
          "name": "_ownerAddress",
          "type": "address"
        },
        {
          "indexed": true,
          "name": "_storeName",
          "type": "string"
        }
      ],
      "name": "LogProductRemoved",
      "type": "event"
    },
    {
      "anonymous": false,
      "inputs": [
        {
          "indexed": true,
          "name": "_productId",
          "type": "uint8"
        },
        {
          "indexed": true,
          "name": "_storeName",
          "type": "string"
        },
        {
          "indexed": false,
          "name": "_newPrice",
          "type": "uint72"
        }
      ],
      "name": "LogPriceChange",
      "type": "event"
    },
    {
      "anonymous": false,
      "inputs": [
        {
          "indexed": true,
          "name": "_ownerAddress",
          "type": "address"
        },
        {
          "indexed": true,
          "name": "_newStoreName",
          "type": "string"
        }
      ],
      "name": "LogNewStore",
      "type": "event"
    },
    {
      "anonymous": false,
      "inputs": [
        {
          "indexed": true,
          "name": "_storeOwnerAddress",
          "type": "address"
        }
      ],
      "name": "LogNewStoreOwner",
      "type": "event"
    },
    {
      "anonymous": false,
      "inputs": [
        {
          "indexed": true,
          "name": "_storeOwner",
          "type": "address"
        }
      ],
      "name": "LogStoreOwnerRemoved",
      "type": "event"
    },
    {
      "anonymous": false,
      "inputs": [
        {
          "indexed": true,
          "name": "_ownerAddress",
          "type": "address"
        }
      ],
      "name": "LogStoreClosed",
      "type": "event"
    },
    {
      "anonymous": false,
      "inputs": [
        {
          "indexed": true,
          "name": "previousOwner",
          "type": "address"
        },
        {
          "indexed": true,
          "name": "newOwner",
          "type": "address"
        }
      ],
      "name": "LogNewOwner",
      "type": "event"
    },
    {
      "anonymous": false,
      "inputs": [
        {
          "indexed": true,
          "name": "newAdmin",
          "type": "address"
        }
      ],
      "name": "LogNewAdmin",
      "type": "event"
    },
    {
      "anonymous": false,
      "inputs": [
        {
          "indexed": true,
          "name": "revokedAdmin",
          "type": "address"
        }
      ],
      "name": "LogAdminRevoked",
      "type": "event"
    },
    {
      "anonymous": false,
      "inputs": [],
      "name": "Pause",
      "type": "event"
    },
    {
      "anonymous": false,
      "inputs": [],
      "name": "Unpause",
      "type": "event"
    },
    {
      "constant": true,
      "inputs": [
        {
          "name": "auctionId",
          "type": "uint256"
        }
      ],
      "name": "getAuctionExists",
      "outputs": [
        {
          "name": "",
          "type": "bool"
        }
      ],
      "payable": false,
      "stateMutability": "view",
      "type": "function"
    },
    {
      "constant": true,
      "inputs": [
        {
          "name": "ownerofproduct",
          "type": "address"
        },
        {
          "name": "productId",
          "type": "uint8"
        },
        {
          "name": "itemId",
          "type": "uint256"
        }
      ],
      "name": "didBid",
      "outputs": [
        {
          "name": "",
          "type": "bool"
        }
      ],
      "payable": false,
      "stateMutability": "view",
      "type": "function"
    },
    {
      "constant": false,
      "inputs": [
        {
          "name": "_auctionId",
          "type": "uint256"
        },
        {
          "name": "_productId",
          "type": "uint8"
        }
      ],
      "name": "_bid",
      "outputs": [
        {
          "name": "",
          "type": "uint256"
        }
      ],
      "payable": true,
      "stateMutability": "payable",
      "type": "function"
    },
    {
      "constant": false,
      "inputs": [
        {
          "name": "_startingPrice",
          "type": "uint256"
        },
        {
          "name": "_endingPrice",
          "type": "uint256"
        },
        {
          "name": "_duration",
          "type": "uint64"
        }
      ],
      "name": "createAuctionProduct",
      "outputs": [
        {
          "name": "auctionId",
          "type": "uint256"
        }
      ],
      "payable": false,
      "stateMutability": "nonpayable",
      "type": "function"
    },
    {
      "constant": true,
      "inputs": [
        {
          "name": "_startingPrice",
          "type": "uint256"
        },
        {
          "name": "_endingPrice",
          "type": "uint256"
        },
        {
          "name": "_duration",
          "type": "uint256"
        },
        {
          "name": "_secondsPassed",
          "type": "uint256"
        }
      ],
      "name": "_computeCurrentPrice",
      "outputs": [
        {
          "name": "",
          "type": "uint256"
        }
      ],
      "payable": false,
      "stateMutability": "pure",
      "type": "function"
    },
    {
      "constant": true,
      "inputs": [
        {
          "name": "auctionId",
          "type": "uint256"
        }
      ],
      "name": "getCurrentPrice",
      "outputs": [
        {
          "name": "",
          "type": "uint256"
        }
      ],
      "payable": false,
      "stateMutability": "view",
      "type": "function"
    },
    {
      "constant": true,
      "inputs": [
        {
          "name": "auctionId",
          "type": "uint256"
        }
      ],
      "name": "getDuration",
      "outputs": [
        {
          "name": "",
          "type": "uint256"
        }
      ],
      "payable": false,
      "stateMutability": "view",
      "type": "function"
    },
    {
      "constant": true,
      "inputs": [
        {
          "name": "auctionId",
          "type": "uint256"
        }
      ],
      "name": "getReservePrice",
      "outputs": [
        {
          "name": "",
          "type": "uint256"
        }
      ],
      "payable": false,
      "stateMutability": "view",
      "type": "function"
    },
    {
      "constant": true,
      "inputs": [
        {
          "name": "storeName",
          "type": "string"
        },
        {
          "name": "productId",
          "type": "uint8"
        }
      ],
      "name": "getItemLength",
      "outputs": [
        {
          "name": "",
          "type": "uint256"
        }
      ],
      "payable": false,
      "stateMutability": "view",
      "type": "function"
    },
    {
      "constant": true,
      "inputs": [
        {
          "name": "storeName",
          "type": "string"
        },
        {
          "name": "productId",
          "type": "uint8"
        },
        {
          "name": "index",
          "type": "uint256"
        }
      ],
      "name": "getItemBought",
      "outputs": [
        {
          "name": "",
          "type": "bool"
        }
      ],
      "payable": false,
      "stateMutability": "view",
      "type": "function"
    },
    {
      "constant": true,
      "inputs": [
        {
          "name": "StoreName",
          "type": "string"
        },
        {
          "name": "productId",
          "type": "uint8"
        }
      ],
      "name": "getAuctionId",
      "outputs": [
        {
          "name": "",
          "type": "uint256"
        }
      ],
      "payable": false,
      "stateMutability": "view",
      "type": "function"
    }
  ],
  "bytecode": "0x608060405260016008556001601055336000806101000a81548173ffffffffffffffffffffffffffffffffffffffff021916908373ffffffffffffffffffffffffffffffffffffffff160217905550615d9b8061005d6000396000f300608060405260043610610245576000357c0100000000000000000000000000000000000000000000000000000000900463ffffffff168062265dc51461024a57806303efa6e6146102a5578063050cfdd11461032f578063060347e0146103ac5780631def8eed1461042957806328ec015c146104b35780632eea90671461055c5780632fa8cfac146105fc57806331df27ce1461067d578063320b2ad9146106d457806335b2b5be146106eb5780633ccfd60b1461072c57806340f42c1c146107435780634db4bc16146107865780635f7d53a1146108105780636f48fe7e1461085357806373ada806146108e157806378678a3214610994578063803360b6146109d757806381e4fc8214610a40578063822b0ceb14610a925780638456cb5914610aed5780638bb126a714610b1c5780639024b8c514610b5d578063982a359614610bcc5780639bf474b514610c115780639d2bcb5414610c7d578063a075a5b114610d15578063a275999c14610d6c578063bcddcfb214610dc3578063bdc39f4814610dee578063c55d0f5614610e31578063c7fc1bd114610e72578063cb92bfa114610f10578063cbb18cc414610f6f578063cca0400114610fe1578063cd15b91314611040578063d45c35ff146110d8578063ddeb63b514611119578063e2fdcc171461115c578063e5fdf7f8146111b3578063e698f0bb14611241578063f0e06e4a14611298578063f6a99e4c14611305578063fc8234cb14611407578063fd8f49a51461141e578063fde57f3b14611484578063fed48949146114c7575b600080fd5b34801561025657600080fd5b5061028b600480360381019080803573ffffffffffffffffffffffffffffffffffffffff16906020019092919050505061156d565b604051808215151515815260200191505060405180910390f35b3480156102b157600080fd5b50610319600480360381019080803590602001908201803590602001908080601f0160208091040260200160405190810160405280939291908181526020018383808284378201915050505050509192919290803560ff1690602001909291905050506115b9565b6040518082815260200191505060405180910390f35b34801561033b57600080fd5b50610396600480360381019080803590602001908201803590602001908080601f01602080910402602001604051908101604052809392919081815260200183838082843782019150505050505091929192905050506116cc565b6040518082815260200191505060405180910390f35b610413600480360381019080803560ff169060200190929190803590602001908201803590602001908080601f016020809104026020016040519081016040528093929190818152602001838380828437820191505050505050919291929050505061185a565b6040518082815260200191505060405180910390f35b34801561043557600080fd5b5061049d600480360381019080803590602001908201803590602001908080601f0160208091040260200160405190810160405280939291908181526020018383808284378201915050505050509192919290803560ff169060200190929190505050611b17565b6040518082815260200191505060405180910390f35b3480156104bf57600080fd5b5061051a600480360381019080803590602001908201803590602001908080601f0160208091040260200160405190810160405280939291908181526020018383808284378201915050505050509192919290505050611ba4565b604051808273ffffffffffffffffffffffffffffffffffffffff1673ffffffffffffffffffffffffffffffffffffffff16815260200191505060405180910390f35b34801561056857600080fd5b506105d0600480360381019080803590602001908201803590602001908080601f0160208091040260200160405190810160405280939291908181526020018383808284378201915050505050509192919290803560ff169060200190929190505050611c3e565b604051808268ffffffffffffffffff1668ffffffffffffffffff16815260200191505060405180910390f35b34801561060857600080fd5b50610663600480360381019080803590602001908201803590602001908080601f0160208091040260200160405190810160405280939291908181526020018383808284378201915050505050509192919290505050611d68565b604051808215151515815260200191505060405180910390f35b34801561068957600080fd5b506106be600480360381019080803573ffffffffffffffffffffffffffffffffffffffff169060200190929190505050611dea565b6040518082815260200191505060405180910390f35b3480156106e057600080fd5b506106e9611e02565b005b61071660048036038101908080359060200190929190803560ff169060200190929190505050611ec8565b6040518082815260200191505060405180910390f35b34801561073857600080fd5b5061074161218a565b005b34801561074f57600080fd5b50610784600480360381019080803573ffffffffffffffffffffffffffffffffffffffff169060200190929190505050612266565b005b34801561079257600080fd5b506107fa600480360381019080803560ff169060200190929190803590602001908201803590602001908080601f016020809104026020016040519081016040528093929190818152602001838380828437820191505050505050919291929050505061247f565b6040518082815260200191505060405180910390f35b34801561081c57600080fd5b50610851600480360381019080803573ffffffffffffffffffffffffffffffffffffffff169060200190929190505050612649565b005b34801561085f57600080fd5b506108c7600480360381019080803560ff169060200190929190803590602001908201803590602001908080601f01602080910402602001604051908101604052809392919081815260200183838082843782019150505050505091929192905050506127c6565b604051808215151515815260200191505060405180910390f35b3480156108ed57600080fd5b5061095260048036038101908080359060200190929190803590602001908201803590602001908080601f0160208091040260200160405190810160405280939291908181526020018383808284378201915050505050509192919290505050612972565b604051808273ffffffffffffffffffffffffffffffffffffffff1673ffffffffffffffffffffffffffffffffffffffff16815260200191505060405180910390f35b3480156109a057600080fd5b506109d5600480360381019080803573ffffffffffffffffffffffffffffffffffffffff169060200190929190505050612acc565b005b3480156109e357600080fd5b50610a3e600480360381019080803590602001908201803590602001908080601f0160208091040260200160405190810160405280939291908181526020018383808284378201915050505050509192919290505050612d95565b005b348015610a4c57600080fd5b50610a7860048036038101908080359060200190929190803560ff16906020019092919050505061310b565b604051808215151515815260200191505060405180910390f35b348015610a9e57600080fd5b50610ad3600480360381019080803573ffffffffffffffffffffffffffffffffffffffff169060200190929190505050613413565b604051808215151515815260200191505060405180910390f35b348015610af957600080fd5b50610b0261348a565b604051808215151515815260200191505060405180910390f35b348015610b2857600080fd5b50610b476004803603810190808035906020019092919050505061349d565b6040518082815260200191505060405180910390f35b348015610b6957600080fd5b50610ba0600480360381019080803568ffffffffffffffffff169060200190929190803560ff1690602001909291905050506134f4565b604051808268ffffffffffffffffff1668ffffffffffffffffff16815260200191505060405180910390f35b348015610bd857600080fd5b50610bf76004803603810190808035906020019092919050505061366b565b604051808215151515815260200191505060405180910390f35b348015610c1d57600080fd5b50610c53600480360381019080803560ff169060200190929190803567ffffffffffffffff1690602001909291905050506136bf565b604051808267ffffffffffffffff1667ffffffffffffffff16815260200191505060405180910390f35b348015610c8957600080fd5b50610cfb600480360381019080803590602001908201803590602001908080601f016020809104026020016040519081016040528093929190818152602001838380828437820191505050505050919291929080359060200190929190803560ff16906020019092919050505061397a565b604051808215151515815260200191505060405180910390f35b348015610d2157600080fd5b50610d56600480360381019080803573ffffffffffffffffffffffffffffffffffffffff169060200190929190505050613ae5565b6040518082815260200191505060405180910390f35b348015610d7857600080fd5b50610dad600480360381019080803573ffffffffffffffffffffffffffffffffffffffff169060200190929190505050613afd565b6040518082815260200191505060405180910390f35b348015610dcf57600080fd5b50610dd8613b46565b6040518082815260200191505060405180910390f35b348015610dfa57600080fd5b50610e2f600480360381019080803573ffffffffffffffffffffffffffffffffffffffff169060200190929190505050613b4c565b005b348015610e3d57600080fd5b50610e5c60048036038101908080359060200190929190505050613d4c565b6040518082815260200191505060405180910390f35b348015610e7e57600080fd5b50610ee6600480360381019080803590602001908201803590602001908080601f0160208091040260200160405190810160405280939291908181526020018383808284378201915050505050509192919290803560ff169060200190929190505050613d89565b604051808267ffffffffffffffff1667ffffffffffffffff16815260200191505060405180910390f35b348015610f1c57600080fd5b50610f5960048036038101908080359060200190929190803590602001909291908035906020019092919080359060200190929190505050613eb2565b6040518082815260200191505060405180910390f35b348015610f7b57600080fd5b50610fc7600480360381019080803573ffffffffffffffffffffffffffffffffffffffff169060200190929190803560ff16906020019092919080359060200190929190505050613ef2565b604051808215151515815260200191505060405180910390f35b348015610fed57600080fd5b5061102a6004803603810190808035906020019092919080359060200190929190803567ffffffffffffffff169060200190929190505050613fce565b6040518082815260200191505060405180910390f35b34801561104c57600080fd5b506110be600480360381019080803590602001908201803590602001908080601f0160208091040260200160405190810160405280939291908181526020018383808284378201915050505050509192919290803560ff169060200190929190803590602001909291905050506143e0565b604051808215151515815260200191505060405180910390f35b3480156110e457600080fd5b5061110360048036038101908080359060200190929190505050614541565b6040518082815260200191505060405180910390f35b34801561112557600080fd5b5061115a600480360381019080803573ffffffffffffffffffffffffffffffffffffffff1690602001909291905050506145a8565b005b34801561116857600080fd5b5061117161464d565b604051808273ffffffffffffffffffffffffffffffffffffffff1673ffffffffffffffffffffffffffffffffffffffff16815260200191505060405180910390f35b3480156111bf57600080fd5b50611227600480360381019080803590602001908201803590602001908080601f0160208091040260200160405190810160405280939291908181526020018383808284378201915050505050509192919290803560ff169060200190929190505050614673565b604051808215151515815260200191505060405180910390f35b34801561124d57600080fd5b506112566147ac565b604051808273ffffffffffffffffffffffffffffffffffffffff1673ffffffffffffffffffffffffffffffffffffffff16815260200191505060405180910390f35b3480156112a457600080fd5b506112c3600480360381019080803590602001909291905050506147d1565b604051808273ffffffffffffffffffffffffffffffffffffffff1673ffffffffffffffffffffffffffffffffffffffff16815260200191505060405180910390f35b34801561131157600080fd5b5061138c600480360381019080803573ffffffffffffffffffffffffffffffffffffffff169060200190929190803590602001908201803590602001908080601f0160208091040260200160405190810160405280939291908181526020018383808284378201915050505050509192919290505050614806565b6040518080602001828103825283818151815260200191508051906020019080838360005b838110156113cc5780820151818401526020810190506113b1565b50505050905090810190601f1680156113f95780820380516001836020036101000a031916815260200191505b509250505060405180910390f35b34801561141357600080fd5b5061141c614c88565b005b34801561142a57600080fd5b50611468600480360381019080803568ffffffffffffffffff169060200190929190803567ffffffffffffffff169060200190929190505050614d4e565b604051808260ff1660ff16815260200191505060405180910390f35b34801561149057600080fd5b506114c5600480360381019080803573ffffffffffffffffffffffffffffffffffffffff16906020019092919050505061502e565b005b3480156114d357600080fd5b506114f260048036038101908080359060200190929190505050615245565b6040518080602001828103825283818151815260200191508051906020019080838360005b83811015611532578082015181840152602081019050611517565b50505050905090810190601f16801561155f5780820380516001836020036101000a031916815260200191505b509250505060405180910390f35b600080600d60008473ffffffffffffffffffffffffffffffffffffffff1673ffffffffffffffffffffffffffffffffffffffff1681526020019081526020016000205414159050919050565b6000806000600b856040518082805190602001908083835b6020831015156115f657805182526020820191506020810190506020830392506115d1565b6001836020036101000a038019825116818451168082178552505050505050905001915050908152602001604051809103902060009054906101000a900473ffffffffffffffffffffffffffffffffffffffff169150600a60008373ffffffffffffffffffffffffffffffffffffffff1673ffffffffffffffffffffffffffffffffffffffff1681526020019081526020016000205490506009600082815260200190815260200160002060080160008560ff1660ff168152602001908152602001600020600001805490509250505092915050565b600080600080600c856040518082805190602001908083835b60208310151561170a57805182526020820191506020810190506020830392506116e5565b6001836020036101000a038019825116818451168082178552505050505050905001915050908152602001604051809103902060009054906101000a900460ff16151561175657600080fd5b600b856040518082805190602001908083835b60208310151561178e5780518252602082019150602081019050602083039250611769565b6001836020036101000a038019825116818451168082178552505050505050905001915050908152602001604051809103902060009054906101000a900473ffffffffffffffffffffffffffffffffffffffff169250600a60008473ffffffffffffffffffffffffffffffffffffffff1673ffffffffffffffffffffffffffffffffffffffff1681526020019081526020016000205491506009600083815260200190815260200160002090508060060160009054906101000a900460ff1660ff169350505050919050565b60008060008060008060001515600760009054906101000a900460ff16151514151561188557600080fd5b600b876040518082805190602001908083835b6020831015156118bd5780518252602082019150602081019050602083039250611898565b6001836020036101000a038019825116818451168082178552505050505050905001915050908152602001604051809103902060009054906101000a900473ffffffffffffffffffffffffffffffffffffffff169450600a60008673ffffffffffffffffffffffffffffffffffffffff1673ffffffffffffffffffffffffffffffffffffffff168152602001908152602001600020549350600960008581526020019081526020016000209250611974888861247f565b95503491508260080160008960ff1660ff16815260200190815260200160002060010160009054906101000a900468ffffffffffffffffff1668ffffffffffffffffff1682101515156119c657600080fd5b6119d08583615352565b60028360080160008a60ff1660ff168152602001908152602001600020600001878154811015156119fd57fe5b90600052602060002090602091828204019190066101000a81548160ff02191690836003811115611a2a57fe5b021790555085600f60003373ffffffffffffffffffffffffffffffffffffffff1673ffffffffffffffffffffffffffffffffffffffff168152602001908152602001600020819055508260080160008960ff1660ff168152602001908152602001600020600101600981819054906101000a900467ffffffffffffffff16809291906001900391906101000a81548167ffffffffffffffff021916908367ffffffffffffffff160217905550508260080160008960ff1660ff16815260200190815260200160002060010160099054906101000a900467ffffffffffffffff169050505050505092915050565b60006012836040518082805190602001908083835b602083101515611b515780518252602082019150602081019050602083039250611b2c565b6001836020036101000a038019825116818451168082178552505050505050905001915050908152602001604051809103902060008360ff1660ff16815260200190815260200160002054905092915050565b600080600b836040518082805190602001908083835b602083101515611bdf5780518252602082019150602081019050602083039250611bba565b6001836020036101000a038019825116818451168082178552505050505050905001915050908152602001604051809103902060009054906101000a900473ffffffffffffffffffffffffffffffffffffffff16905080915050919050565b600080600080600b866040518082805190602001908083835b602083101515611c7c5780518252602082019150602081019050602083039250611c57565b6001836020036101000a038019825116818451168082178552505050505050905001915050908152602001604051809103902060009054906101000a900473ffffffffffffffffffffffffffffffffffffffff169250600d60008473ffffffffffffffffffffffffffffffffffffffff1673ffffffffffffffffffffffffffffffffffffffff1681526020019081526020016000205491506009600083815260200190815260200160002090508060080160008660ff1660ff16815260200190815260200160002060010160009054906101000a900468ffffffffffffffffff16935050505092915050565b6000600c826040518082805190602001908083835b602083101515611da25780518252602082019150602081019050602083039250611d7d565b6001836020036101000a038019825116818451168082178552505050505050905001915050908152602001604051809103902060009054906101000a900460ff169050919050565b600f6020528060005260406000206000915090505481565b6000809054906101000a900473ffffffffffffffffffffffffffffffffffffffff1673ffffffffffffffffffffffffffffffffffffffff163373ffffffffffffffffffffffffffffffffffffffff16141515611e5d57600080fd5b60001515600760009054906101000a900460ff161515141515611e7f57600080fd5b6001600760006101000a81548160ff0219169083151502179055507f6985a02210a168e66602d3235cb6db0e70f92b3ba4d376a33c0f3d9434bff62560405160405180910390a1565b6000806000806000806000801515600760009054906101000a900460ff161515141515611ef457600080fd5b601160008a81526020019081526020016000209550611f1286615452565b1515611f1d57600080fd5b349450611f2986615480565b9350838510151515611f3a57600080fd5b8560000160009054906101000a900473ffffffffffffffffffffffffffffffffffffffff169250611f6a89615573565b611f748386615352565b600d60008473ffffffffffffffffffffffffffffffffffffffff1673ffffffffffffffffffffffffffffffffffffffff16815260200190815260200160002054915060096000838152602001908152602001600020905060028160080160008a60ff1660ff1681526020019081526020016000206000016000815481101515611ff957fe5b90600052602060002090602091828204019190066101000a81548160ff0219169083600381111561202657fe5b02179055503373ffffffffffffffffffffffffffffffffffffffff168860ff167fefbcc64f981e16228c4d01a58ecea3a1549e873e5f7fe8b01287765d3c33785b8360070160405180806020018281038252838181546001816001161561010002031660029004815260200191508054600181600116156101000203166002900480156120f45780601f106120c9576101008083540402835291602001916120f4565b820191906000526020600020905b8154815290600101906020018083116120d757829003601f168201915b50509250505060405180910390a37f391f37ee14cb2bac7ab5022640f6cc73659fa7c1ce7e4786cba2338c830c527e888533604051808460ff1660ff1681526020018381526020018273ffffffffffffffffffffffffffffffffffffffff1673ffffffffffffffffffffffffffffffffffffffff168152602001935050505060405180910390a183965050505050505092915050565b6000809054906101000a900473ffffffffffffffffffffffffffffffffffffffff1673ffffffffffffffffffffffffffffffffffffffff163373ffffffffffffffffffffffffffffffffffffffff161415156121e557600080fd5b6000809054906101000a900473ffffffffffffffffffffffffffffffffffffffff1673ffffffffffffffffffffffffffffffffffffffff166108fc3073ffffffffffffffffffffffffffffffffffffffff16319081150290604051600060405180830381858888f19350505050158015612263573d6000803e3d6000fd5b50565b6000806000809054906101000a900473ffffffffffffffffffffffffffffffffffffffff1673ffffffffffffffffffffffffffffffffffffffff163373ffffffffffffffffffffffffffffffffffffffff161415156122c457600080fd5b60001515600760009054906101000a900460ff1615151415156122e657600080fd5b60009150600090505b60048111158015612304575060001515821515145b1561246a578273ffffffffffffffffffffffffffffffffffffffff1660018260058110151561232f57fe5b0160009054906101000a900473ffffffffffffffffffffffffffffffffffffffff1673ffffffffffffffffffffffffffffffffffffffff16141561245d57600060018260058110151561237e57fe5b0160006101000a81548173ffffffffffffffffffffffffffffffffffffffff021916908373ffffffffffffffffffffffffffffffffffffffff1602179055506000600660008573ffffffffffffffffffffffffffffffffffffffff1673ffffffffffffffffffffffffffffffffffffffff16815260200190815260200160002060006101000a81548160ff021916908315150217905550600191508273ffffffffffffffffffffffffffffffffffffffff167fdca59b6371f7db6faad5c9931588f735722795c7b8ea859824e0afc8b2c70a4f60405160405180910390a25b80806001019150506122ef565b6001151582151514151561247a57fe5b505050565b6000806000806000806000809550600b886040518082805190602001908083835b6020831015156124c557805182526020820191506020810190506020830392506124a0565b6001836020036101000a038019825116818451168082178552505050505050905001915050908152602001604051809103902060009054906101000a900473ffffffffffffffffffffffffffffffffffffffff169350600d60008573ffffffffffffffffffffffffffffffffffffffff1673ffffffffffffffffffffffffffffffffffffffff1681526020019081526020016000205492506009600084815260200190815260200160002091505b8160080160008a60ff1660ff16815260200190815260200160002060000180549050811080156125a7575060001515861515145b1561262a57600060038111156125b957fe5b8260080160008b60ff1660ff168152602001908152602001600020600001828154811015156125e457fe5b90600052602060002090602091828204019190069054906101000a900460ff16600381111561260f57fe5b141561261d57809450600195505b8080600101915050612573565b6001151586151514151561263a57fe5b84965050505050505092915050565b60008060009054906101000a900473ffffffffffffffffffffffffffffffffffffffff1673ffffffffffffffffffffffffffffffffffffffff163373ffffffffffffffffffffffffffffffffffffffff161415156126a657600080fd5b60001515600760009054906101000a900460ff1615151415156126c857600080fd5b600073ffffffffffffffffffffffffffffffffffffffff168273ffffffffffffffffffffffffffffffffffffffff161415151561270457600080fd5b6000809054906101000a900473ffffffffffffffffffffffffffffffffffffffff169050816000806101000a81548173ffffffffffffffffffffffffffffffffffffffff021916908373ffffffffffffffffffffffffffffffffffffffff1602179055508073ffffffffffffffffffffffffffffffffffffffff168273ffffffffffffffffffffffffffffffffffffffff167f1f8d7d25344642d919d55999e4664aa452a5f424bc0936ceb9c2b300db7dcbd960405160405180910390a35050565b6000806000806000600c866040518082805190602001908083835b60208310151561280657805182526020820191506020810190506020830392506127e1565b6001836020036101000a038019825116818451168082178552505050505050905001915050908152602001604051809103902060009054906101000a900460ff16151561285257600080fd5b600b866040518082805190602001908083835b60208310151561288a5780518252602082019150602081019050602083039250612865565b6001836020036101000a038019825116818451168082178552505050505050905001915050908152602001604051809103902060009054906101000a900473ffffffffffffffffffffffffffffffffffffffff169350600a60008573ffffffffffffffffffffffffffffffffffffffff1673ffffffffffffffffffffffffffffffffffffffff1681526020019081526020016000205492506009600084815260200190815260200160002091508160080160008860ff1660ff16815260200190815260200160002090508060010160119054906101000a900460ff1694505050505092915050565b6000806000806001861015801561298a575060058611155b151561299557600080fd5b600b856040518082805190602001908083835b6020831015156129cd57805182526020820191506020810190506020830392506129a8565b6001836020036101000a038019825116818451168082178552505050505050905001915050908152602001604051809103902060009054906101000a900473ffffffffffffffffffffffffffffffffffffffff169250600a60008473ffffffffffffffffffffffffffffffffffffffff1673ffffffffffffffffffffffffffffffffffffffff168152602001908152602001600020549150600960008381526020019081526020016000209050600060061115612abe578060000186600681101515612a9557fe5b0160009054906101000a900473ffffffffffffffffffffffffffffffffffffffff169350612ac3565b600093505b50505092915050565b60008060008060009054906101000a900473ffffffffffffffffffffffffffffffffffffffff1673ffffffffffffffffffffffffffffffffffffffff163373ffffffffffffffffffffffffffffffffffffffff16141515612b2c57600080fd5b60001515600760009054906101000a900460ff161515141515612b4e57600080fd5b600073ffffffffffffffffffffffffffffffffffffffff168473ffffffffffffffffffffffffffffffffffffffff1614151515612b8a57600080fd5b5b600483111515612c15578373ffffffffffffffffffffffffffffffffffffffff16600184600581101515612bbb57fe5b0160009054906101000a900473ffffffffffffffffffffffffffffffffffffffff1673ffffffffffffffffffffffffffffffffffffffff161415612c0a5760026001141515612c0957600080fd5b5b826001019250612b8b565b600091505b60048111158015612c2f575060001515821515145b15612d7f576000600182600581101515612c4557fe5b0160009054906101000a900473ffffffffffffffffffffffffffffffffffffffff1673ffffffffffffffffffffffffffffffffffffffff161415612d725783600182600581101515612c9357fe5b0160006101000a81548173ffffffffffffffffffffffffffffffffffffffff021916908373ffffffffffffffffffffffffffffffffffffffff1602179055506001600660008673ffffffffffffffffffffffffffffffffffffffff1673ffffffffffffffffffffffffffffffffffffffff16815260200190815260200160002060006101000a81548160ff021916908315150217905550600191508373ffffffffffffffffffffffffffffffffffffffff167f39e7d4b9ba48f55a740a5192809dbc498fa12724c030b37dab126a3f6774c0f360405160405180910390a25b8080600101915050612c1a565b60011515821515141515612d8f57fe5b50505050565b6000806000809054906101000a900473ffffffffffffffffffffffffffffffffffffffff1673ffffffffffffffffffffffffffffffffffffffff163373ffffffffffffffffffffffffffffffffffffffff161480612e43575060011515600660003373ffffffffffffffffffffffffffffffffffffffff1673ffffffffffffffffffffffffffffffffffffffff16815260200190815260200160002060009054906101000a900460ff161515145b1515612e4e57600080fd5b600b836040518082805190602001908083835b602083101515612e865780518252602082019150602081019050602083039250612e61565b6001836020036101000a038019825116818451168082178552505050505050905001915050908152602001604051809103902060009054906101000a900473ffffffffffffffffffffffffffffffffffffffff1691506000600a60008473ffffffffffffffffffffffffffffffffffffffff1673ffffffffffffffffffffffffffffffffffffffff1681526020019081526020016000205414151515612f2b57600080fd5b6000600c846040518082805190602001908083835b602083101515612f655780518252602082019150602081019050602083039250612f40565b6001836020036101000a038019825116818451168082178552505050505050905001915050908152602001604051809103902060006101000a81548160ff021916908315150217905550600a60008373ffffffffffffffffffffffffffffffffffffffff1673ffffffffffffffffffffffffffffffffffffffff168152602001908152602001600020549050600960008281526020019081526020016000206000808201600061301591906159a0565b6006820160006101000a81549060ff021916905560078201600061303991906159b3565b50508173ffffffffffffffffffffffffffffffffffffffff167f99834834070224a7bc8eee507b8f041592b6cd80dd705f79f81b42487b0b460d60405160405180910390a26000600a60008473ffffffffffffffffffffffffffffffffffffffff1673ffffffffffffffffffffffffffffffffffffffff168152602001908152602001600020819055508173ffffffffffffffffffffffffffffffffffffffff167fe6547a945aa917d8f8b8a71a98062b03570c5ab79d6f47aa64dab5ae6483e0c860405160405180910390a2505050565b6000806000801515600760009054906101000a900460ff16151514151561313157600080fd5b6000600d60003373ffffffffffffffffffffffffffffffffffffffff1673ffffffffffffffffffffffffffffffffffffffff168152602001908152602001600020541415151561318057600080fd5b600d60003373ffffffffffffffffffffffffffffffffffffffff1673ffffffffffffffffffffffffffffffffffffffff168152602001908152602001600020549150600960008381526020019081526020016000209050600260038111156131e457fe5b8160080160008660ff1660ff1681526020019081526020016000206000018681548110151561320f57fe5b90600052602060002090602091828204019190069054906101000a900460ff16600381111561323a57fe5b14151561324657600080fd5b6000925060038160080160008660ff1660ff1681526020019081526020016000206000018681548110151561327757fe5b90600052602060002090602091828204019190066101000a81548160ff021916908360038111156132a457fe5b0217905550600192508360ff16857fa88cd15baa294be44c222117dcf9e5a965809cae03e05f544dc401b296cafabc8360070160405180806020018281038252838181546001816001161561010002031660029004815260200191508054600181600116156101000203166002900480156133605780601f1061333557610100808354040283529160200191613360565b820191906000526020600020905b81548152906001019060200180831161334357829003601f168201915b50509250505060405180910390a361340b600b8260070160405180828054600181600116156101000203166002900480156133d25780601f106133b05761010080835404028352918201916133d2565b820191906000526020600020905b8154815290600101906020018083116133be575b5050915050908152602001604051809103902060009054906101000a900473ffffffffffffffffffffffffffffffffffffffff1661562f565b505092915050565b6000801515600760009054906101000a900460ff16151514151561343657600080fd5b600660008373ffffffffffffffffffffffffffffffffffffffff1673ffffffffffffffffffffffffffffffffffffffff16815260200190815260200160002060009054906101000a900460ff169050919050565b600760009054906101000a900460ff1681565b6000806011600084815260200190815260200160002090506134be81615452565b15156134c957600080fd5b8060020160009054906101000a900467ffffffffffffffff1667ffffffffffffffff16915050919050565b600080600080600a60003373ffffffffffffffffffffffffffffffffffffffff1673ffffffffffffffffffffffffffffffffffffffff168152602001908152602001600020541415151561354757600080fd5b60001515600760009054906101000a900460ff16151514151561356957600080fd5b600a60003373ffffffffffffffffffffffffffffffffffffffff1673ffffffffffffffffffffffffffffffffffffffff16815260200190815260200160002054915060096000838152602001908152602001600020905060008568ffffffffffffffffff16101515156135db57600080fd5b600015158160080160008660ff1660ff16815260200190815260200160002060010160119054906101000a900460ff16151514151561361957600080fd5b848160080160008660ff1660ff16815260200190815260200160002060010160006101000a81548168ffffffffffffffffff021916908368ffffffffffffffffff160217905550849250505092915050565b6000806011600084815260200190815260200160002060020160089054906101000a900467ffffffffffffffff1667ffffffffffffffff1690506000811415156136b857600191506136b9565b5b50919050565b600080600080600080600d60003373ffffffffffffffffffffffffffffffffffffffff1673ffffffffffffffffffffffffffffffffffffffff168152602001908152602001600020541415151561371557600080fd5b60001515600760009054906101000a900460ff16151514151561373757600080fd5b600d60003373ffffffffffffffffffffffffffffffffffffffff1673ffffffffffffffffffffffffffffffffffffffff168152602001908152602001600020549350600960008581526020019081526020016000209250858360080160008960ff1660ff16815260200190815260200160002060010160098282829054906101000a900467ffffffffffffffff160192506101000a81548167ffffffffffffffff021916908367ffffffffffffffff1602179055508260080160008860ff1660ff16815260200190815260200160002060010160119054906101000a900460ff1691506000151582151514151561382d57600080fd5b5b8567ffffffffffffffff168110156138ba578260080160008860ff1660ff1681526020019081526020016000206000016000908060018154018082558091505090600182039060005260206000209060209182820401919006909192909190916101000a81548160ff021916908360038111156138a757fe5b021790555050808060010191505061382e565b8660ff167fcd54f669064af9fb6802bd64bd9ae5303d604527aec88e9024bc9517c945fab78460080160008a60ff1660ff16815260200190815260200160002060010160099054906101000a900467ffffffffffffffff16604051808267ffffffffffffffff1667ffffffffffffffff16815260200191505060405180910390a28260080160008860ff1660ff16815260200190815260200160002060010160099054906101000a900467ffffffffffffffff1694505050505092915050565b600080600080600b876040518082805190602001908083835b6020831015156139b85780518252602082019150602081019050602083039250613993565b6001836020036101000a038019825116818451168082178552505050505050905001915050908152602001604051809103902060009054906101000a900473ffffffffffffffffffffffffffffffffffffffff169250600a60008473ffffffffffffffffffffffffffffffffffffffff1673ffffffffffffffffffffffffffffffffffffffff168152602001908152602001600020549150600960008381526020019081526020016000209050600380811115613a7157fe5b8160080160008760ff1660ff16815260200190815260200160002060000187815481101515613a9c57fe5b90600052602060002090602091828204019190069054906101000a900460ff166003811115613ac757fe5b1415613ad65760019350613adb565b600093505b5050509392505050565b600a6020528060005260406000206000915090505481565b6000600f60008373ffffffffffffffffffffffffffffffffffffffff1673ffffffffffffffffffffffffffffffffffffffff168152602001908152602001600020549050919050565b60085481565b60008060008060001515600760009054906101000a900460ff161515141515613b7457600080fd5b6000600a60003373ffffffffffffffffffffffffffffffffffffffff1673ffffffffffffffffffffffffffffffffffffffff1681526020019081526020016000205414151515613bc357600080fd5b600a60003373ffffffffffffffffffffffffffffffffffffffff1673ffffffffffffffffffffffffffffffffffffffff16815260200190815260200160002054935060096000858152602001908152602001600020925060009150600190505b60058111158015613c38575060001515821515145b15613d355760008360000182600681101515613c5057fe5b0160009054906101000a900473ffffffffffffffffffffffffffffffffffffffff1673ffffffffffffffffffffffffffffffffffffffff161415613d285760019150848360000182600681101515613ca457fe5b0160006101000a81548173ffffffffffffffffffffffffffffffffffffffff021916908373ffffffffffffffffffffffffffffffffffffffff16021790555083600d60008773ffffffffffffffffffffffffffffffffffffffff1673ffffffffffffffffffffffffffffffffffffffff168152602001908152602001600020819055505b8080600101915050613c23565b60011515821515141515613d4557fe5b5050505050565b600080601160008481526020019081526020016000209050613d6d81615452565b1515613d7857600080fd5b613d8181615480565b915050919050565b600080600080600b866040518082805190602001908083835b602083101515613dc75780518252602082019150602081019050602083039250613da2565b6001836020036101000a038019825116818451168082178552505050505050905001915050908152602001604051809103902060009054906101000a900473ffffffffffffffffffffffffffffffffffffffff169250600d60008473ffffffffffffffffffffffffffffffffffffffff1673ffffffffffffffffffffffffffffffffffffffff1681526020019081526020016000205491506009600083815260200190815260200160002090508060080160008660ff1660ff16815260200190815260200160002060010160099054906101000a900467ffffffffffffffff16935050505092915050565b6000806000808585101515613ec957869350613ee7565b878703925085858402811515613edb57fe5b05915081880190508093505b505050949350505050565b6000806000600d60008773ffffffffffffffffffffffffffffffffffffffff1673ffffffffffffffffffffffffffffffffffffffff16815260200190815260200160002054915060096000838152602001908152602001600020905060026003811115613f5b57fe5b8160080160008760ff1660ff16815260200190815260200160002060000185815481101515613f8657fe5b90600052602060002090602091828204019190069054906101000a900460ff166003811115613fb157fe5b1415613fc05760019250613fc5565b600092505b50509392505050565b6000806000613fdb6159fb565b600080600080600d60003373ffffffffffffffffffffffffffffffffffffffff1673ffffffffffffffffffffffffffffffffffffffff168152602001908152602001600020541415151561402e57600080fd5b60001515600760009054906101000a900460ff16151514151561405057600080fd5b600d60003373ffffffffffffffffffffffffffffffffffffffff1673ffffffffffffffffffffffffffffffffffffffff16815260200190815260200160002054955060096000878152602001908152602001600020945060806040519081016040528060006040519080825280602002602001820160405280156140e35781602001602082028038833980820191505090505b5081526020018b68ffffffffffffffffff168152602001600167ffffffffffffffff1681526020016001151581525093508460060160009054906101000a900460ff169250838560080160008560ff1660ff1681526020019081526020016000206000820151816000019080519060200190614160929190615a3b565b5060208201518160010160006101000a81548168ffffffffffffffffff021916908368ffffffffffffffffff16021790555060408201518160010160096101000a81548167ffffffffffffffff021916908367ffffffffffffffff16021790555060608201518160010160116101000a81548160ff02191690831515021790555090505060018560060160008282829054906101000a900460ff160192506101000a81548160ff021916908360ff160217905550600b8560070160405180828054600181600116156101000203166002900480156142755780601f10614253576101008083540402835291820191614275565b820191906000526020600020905b815481529060010190602001808311614261575b5050915050908152602001604051809103902060009054906101000a900473ffffffffffffffffffffffffffffffffffffffff1691508460080160008460ff1660ff1681526020019081526020016000206000016001908060018154018082558091505090600182039060005260206000209060209182820401919006909192909190916101000a81548160ff0219169083600381111561431257fe5b021790555050601054905080601286600701604051808280546001816001161561010002031660029004801561437f5780601f1061435d57610100808354040283529182019161437f565b820191906000526020600020905b81548152906001019060200180831161436b575b5050915050908152602001604051809103902060008560ff1660ff168152602001908152602001600020819055506001601054016010819055506143d08a8a8a67ffffffffffffffff168585615707565b8696505050505050509392505050565b6000806000806000600b886040518082805190602001908083835b60208310151561442057805182526020820191506020810190506020830392506143fb565b6001836020036101000a038019825116818451168082178552505050505050905001915050908152602001604051809103902060009054906101000a900473ffffffffffffffffffffffffffffffffffffffff169350600a60008573ffffffffffffffffffffffffffffffffffffffff1673ffffffffffffffffffffffffffffffffffffffff1681526020019081526020016000205492506009600084815260200190815260200160002091508160080160008860ff1660ff168152602001908152602001600020600001868154811015156144f857fe5b90600052602060002090602091828204019190069054906101000a900460ff1690506002600381111561452757fe5b81600381111561453357fe5b149450505050509392505050565b60008060116000848152602001908152602001600020905061456281615452565b151561456d57600080fd5b8060010160109054906101000a90046fffffffffffffffffffffffffffffffff166fffffffffffffffffffffffffffffffff16915050919050565b60008060009054906101000a900473ffffffffffffffffffffffffffffffffffffffff1673ffffffffffffffffffffffffffffffffffffffff163373ffffffffffffffffffffffffffffffffffffffff1614151561460557600080fd5b81905080600e60006101000a81548173ffffffffffffffffffffffffffffffffffffffff021916908373ffffffffffffffffffffffffffffffffffffffff1602179055505050565b600e60009054906101000a900473ffffffffffffffffffffffffffffffffffffffff1681565b600080600080600b866040518082805190602001908083835b6020831015156146b1578051825260208201915060208101905060208303925061468c565b6001836020036101000a038019825116818451168082178552505050505050905001915050908152602001604051809103902060009054906101000a900473ffffffffffffffffffffffffffffffffffffffff169250600d60008473ffffffffffffffffffffffffffffffffffffffff1673ffffffffffffffffffffffffffffffffffffffff16815260200190815260200160002054915060096000838152602001908152602001600020905060008160080160008760ff1660ff16815260200190815260200160002060010160009054906101000a900468ffffffffffffffffff1668ffffffffffffffffff161415935050505092915050565b6000809054906101000a900473ffffffffffffffffffffffffffffffffffffffff1681565b6001816005811015156147e057fe5b016000915054906101000a900473ffffffffffffffffffffffffffffffffffffffff1681565b6060614810615aea565b614818615b0d565b6000809054906101000a900473ffffffffffffffffffffffffffffffffffffffff1673ffffffffffffffffffffffffffffffffffffffff163373ffffffffffffffffffffffffffffffffffffffff1614806148c3575060011515600660003373ffffffffffffffffffffffffffffffffffffffff1673ffffffffffffffffffffffffffffffffffffffff16815260200190815260200160002060009054906101000a900460ff161515145b15156148ce57600080fd5b60001515600760009054906101000a900460ff1615151415156148f057600080fd5b6000600a60008773ffffffffffffffffffffffffffffffffffffffff1673ffffffffffffffffffffffffffffffffffffffff1681526020019081526020016000205414151561493e57600080fd5b60001515600c856040518082805190602001908083835b60208310151561497a5780518252602082019150602081019050602083039250614955565b6001836020036101000a038019825116818451168082178552505050505050905001915050908152602001604051809103902060009054906101000a900460ff1615151415156149c957600080fd5b606060405190810160405280838152602001600060ff168152602001858152509050600854600a60008773ffffffffffffffffffffffffffffffffffffffff1673ffffffffffffffffffffffffffffffffffffffff16815260200190815260200160002081905550600854600d60008773ffffffffffffffffffffffffffffffffffffffff1673ffffffffffffffffffffffffffffffffffffffff1681526020019081526020016000208190555080600960006008548152602001908152602001600020600082015181600001906006614aa4929190615b39565b5060208201518160060160006101000a81548160ff021916908360ff1602179055506040820151816007019080519060200190614ae2929190615bb6565b5090505060086000815480929190600101919050555084600b82604001516040518082805190602001908083835b602083101515614b355780518252602082019150602081019050602083039250614b10565b6001836020036101000a038019825116818451168082178552505050505050905001915050908152602001604051809103902060006101000a81548173ffffffffffffffffffffffffffffffffffffffff021916908373ffffffffffffffffffffffffffffffffffffffff1602179055506001600c82604001516040518082805190602001908083835b602083101515614be45780518252602082019150602081019050602083039250614bbf565b6001836020036101000a038019825116818451168082178552505050505050905001915050908152602001604051809103902060006101000a81548160ff0219169083151502179055508481600001516000600681101515614c4257fe5b602002019073ffffffffffffffffffffffffffffffffffffffff16908173ffffffffffffffffffffffffffffffffffffffff168152505080604001519250505092915050565b6000809054906101000a900473ffffffffffffffffffffffffffffffffffffffff1673ffffffffffffffffffffffffffffffffffffffff163373ffffffffffffffffffffffffffffffffffffffff16141515614ce357600080fd5b60011515600760009054906101000a900460ff161515141515614d0557600080fd5b6000600760006101000a81548160ff0219169083151502179055507f7805862f689e2f13df9f062ff482ad3ad112aca9e0847911ed832e158c525b3360405160405180910390a1565b6000806000614d5b6159fb565b6000801515600760009054906101000a900460ff161515141515614d7e57600080fd5b6000600d60003373ffffffffffffffffffffffffffffffffffffffff1673ffffffffffffffffffffffffffffffffffffffff1681526020019081526020016000205414151515614dcd57600080fd5b600d60003373ffffffffffffffffffffffffffffffffffffffff1673ffffffffffffffffffffffffffffffffffffffff1681526020019081526020016000205493506009600085815260200190815260200160002092506080604051908101604052806000604051908082528060200260200182016040528015614e605781602001602082028038833980820191505090505b5081526020018868ffffffffffffffffff1681526020018767ffffffffffffffff1681526020016000151581525091508260060160009054906101000a900460ff169450818360080160008760ff1660ff1681526020019081526020016000206000820151816000019080519060200190614edc929190615a3b565b5060208201518160010160006101000a81548168ffffffffffffffffff021916908368ffffffffffffffffff16021790555060408201518160010160096101000a81548167ffffffffffffffff021916908367ffffffffffffffff16021790555060608201518160010160116101000a81548160ff02191690831515021790555090505082600601600081819054906101000a900460ff168092919060010191906101000a81548160ff021916908360ff160217905550505b8567ffffffffffffffff16811015615021578260080160008660ff1660ff1681526020019081526020016000206000016000908060018154018082558091505090600182039060005260206000209060209182820401919006909192909190916101000a81548160ff0219169083600381111561500e57fe5b0217905550508080600101915050614f95565b8494505050505092915050565b6000806000806000600a60003373ffffffffffffffffffffffffffffffffffffffff1673ffffffffffffffffffffffffffffffffffffffff168152602001908152602001600020541415151561508357600080fd5b60001515600760009054906101000a900460ff1615151415156150a557600080fd5b600a60003373ffffffffffffffffffffffffffffffffffffffff1673ffffffffffffffffffffffffffffffffffffffff16815260200190815260200160002054935060096000858152602001908152602001600020925060009150600190505b6005811115801561511a575060001515821515145b1561522e578473ffffffffffffffffffffffffffffffffffffffff16836000018260068110151561514757fe5b0160009054906101000a900473ffffffffffffffffffffffffffffffffffffffff1673ffffffffffffffffffffffffffffffffffffffff161415615221576000836000018260068110151561519857fe5b0160006101000a81548173ffffffffffffffffffffffffffffffffffffffff021916908373ffffffffffffffffffffffffffffffffffffffff1602179055506000600d60008773ffffffffffffffffffffffffffffffffffffffff1673ffffffffffffffffffffffffffffffffffffffff16815260200190815260200160002081905550600191505b8080600101915050615105565b6001151582151514151561523e57fe5b5050505050565b6060600080600160085414151561531257600960008581526020019081526020016000209150816007019050808054600181600116156101000203166002900480601f0160208091040260200160405190810160405280929190818152602001828054600181600116156101000203166002900480156153065780601f106152db57610100808354040283529160200191615306565b820191906000526020600020905b8154815290600101906020018083116152e957829003601f168201915b5050505050925061534b565b6040805190810160405280600181526020017f300000000000000000000000000000000000000000000000000000000000000081525092505b5050919050565b803073ffffffffffffffffffffffffffffffffffffffff16311015151561537857600080fd5b600e60009054906101000a900473ffffffffffffffffffffffffffffffffffffffff1673ffffffffffffffffffffffffffffffffffffffff1663f340fa0182846040518363ffffffff167c0100000000000000000000000000000000000000000000000000000000028152600401808273ffffffffffffffffffffffffffffffffffffffff1673ffffffffffffffffffffffffffffffffffffffff1681526020019150506000604051808303818588803b15801561543557600080fd5b505af1158015615449573d6000803e3d6000fd5b50505050505050565b6000808260020160089054906101000a900467ffffffffffffffff1667ffffffffffffffff16119050919050565b600080600090508260020160089054906101000a900467ffffffffffffffff1667ffffffffffffffff164211156154d9578260020160089054906101000a900467ffffffffffffffff1667ffffffffffffffff16420390505b61556b8360010160009054906101000a90046fffffffffffffffffffffffffffffffff166fffffffffffffffffffffffffffffffff168460010160109054906101000a90046fffffffffffffffffffffffffffffffff166fffffffffffffffffffffffffffffffff168560020160009054906101000a900467ffffffffffffffff1667ffffffffffffffff1684613eb2565b915050919050565b60116000828152602001908152602001600020600080820160006101000a81549073ffffffffffffffffffffffffffffffffffffffff02191690556001820160006101000a8154906fffffffffffffffffffffffffffffffff02191690556001820160106101000a8154906fffffffffffffffffffffffffffffffff02191690556002820160006101000a81549067ffffffffffffffff02191690556002820160086101000a81549067ffffffffffffffff0219169055505050565b600e60009054906101000a900473ffffffffffffffffffffffffffffffffffffffff1673ffffffffffffffffffffffffffffffffffffffff166351cff8d9826040518263ffffffff167c0100000000000000000000000000000000000000000000000000000000028152600401808273ffffffffffffffffffffffffffffffffffffffff1673ffffffffffffffffffffffffffffffffffffffff168152602001915050600060405180830381600087803b1580156156ec57600080fd5b505af1158015615700573d6000803e3d6000fd5b5050505050565b61570f615c36565b60001515600760009054906101000a900460ff16151514151561573157600080fd5b60a0604051908101604052808473ffffffffffffffffffffffffffffffffffffffff168152602001876fffffffffffffffffffffffffffffffff168152602001866fffffffffffffffffffffffffffffffff1681526020018567ffffffffffffffff1681526020014267ffffffffffffffff1681525090506157b382826157bb565b505050505050565b603c816060015167ffffffffffffffff16101515156157d957600080fd5b806011600084815260200190815260200160002060008201518160000160006101000a81548173ffffffffffffffffffffffffffffffffffffffff021916908373ffffffffffffffffffffffffffffffffffffffff16021790555060208201518160010160006101000a8154816fffffffffffffffffffffffffffffffff02191690836fffffffffffffffffffffffffffffffff16021790555060408201518160010160106101000a8154816fffffffffffffffffffffffffffffffff02191690836fffffffffffffffffffffffffffffffff16021790555060608201518160020160006101000a81548167ffffffffffffffff021916908367ffffffffffffffff16021790555060808201518160020160086101000a81548167ffffffffffffffff021916908367ffffffffffffffff1602179055509050507fa9c8dfcda5664a5a124c713e386da27de87432d5b668e79458501eb296389ba78282602001516fffffffffffffffffffffffffffffffff1683604001516fffffffffffffffffffffffffffffffff16846060015167ffffffffffffffff166040518085815260200184815260200183815260200182815260200194505050505060405180910390a15050565b5080600601906159b09190615cb4565b50565b50805460018160011615610100020316600290046000825580601f106159d957506159f8565b601f0160209004906000526020600020908101906159f79190615cb4565b5b50565b60806040519081016040528060608152602001600068ffffffffffffffffff168152602001600067ffffffffffffffff1681526020016000151581525090565b82805482825590600052602060002090601f01602090048101928215615ad95791602002820160005b83821115615aaa57835183826101000a81548160ff02191690836003811115615a8957fe5b02179055509260200192600101602081600001049283019260010302615a64565b8015615ad75782816101000a81549060ff0219169055600101602081600001049283019260010302615aaa565b505b509050615ae69190615cd9565b5090565b60c060405190810160405280600690602082028038833980820191505090505090565b61010060405190810160405280615b22615d09565b8152602001600060ff168152602001606081525090565b8260068101928215615ba5579160200282015b82811115615ba45782518260006101000a81548173ffffffffffffffffffffffffffffffffffffffff021916908373ffffffffffffffffffffffffffffffffffffffff16021790555091602001919060010190615b4c565b5b509050615bb29190615d2c565b5090565b828054600181600116156101000203166002900490600052602060002090601f016020900481019282601f10615bf757805160ff1916838001178555615c25565b82800160010185558215615c25579182015b82811115615c24578251825591602001919060010190615c09565b5b509050615c329190615cb4565b5090565b60a060405190810160405280600073ffffffffffffffffffffffffffffffffffffffff16815260200160006fffffffffffffffffffffffffffffffff16815260200160006fffffffffffffffffffffffffffffffff168152602001600067ffffffffffffffff168152602001600067ffffffffffffffff1681525090565b615cd691905b80821115615cd2576000816000905550600101615cba565b5090565b90565b615d0691905b80821115615d0257600081816101000a81549060ff021916905550600101615cdf565b5090565b90565b60c060405190810160405280600690602082028038833980820191505090505090565b615d6c91905b80821115615d6857600081816101000a81549073ffffffffffffffffffffffffffffffffffffffff021916905550600101615d32565b5090565b905600a165627a7a7230582031f4bb08f2669a61ce41f7d5e5db8b34a038cd199bdc8dbf1abafa136f73cbd30029",
  "source": "pragma solidity ^0.4.24;\n\nimport \"./StorePurchasing.sol\";\n\n\n/**  @dev This contract is used to sell auction type items. The entire auction\n  *  process is managed in this contract. It maintains use of the escrow contract\n  *  to manage payments and withdrawl of funds.\n  */\ncontract StoreAuction is StorePurchasing{\n\n  event TestLog(uint number);\n  /// @dev Emit when a new auction type product is created:\n  event LogNewAuctionProduct(uint _auctionId,string indexed _storeName);\n  event AuctionCreated(uint auctionId, uint256 startingPrice, uint256 endingPrice, uint256 duration);\n\n  /// @dev Emit when a new auction executes successfully\n  event AuctionSuccessful(uint8 productId, uint256 totalPrice, address winner);\n  /// @dev Emit when the auction is cancelled\n  event AuctionCancelled(uint auctionId);\n\n  /// @dev Tracks all auctions in the Maats Network\n  uint totalAuctions = 1;\n\n  /// @dev trakes the Auction Id as a key for the Auction\n  mapping(uint256 => Auction) auctionIdToAuction;\n\n  /// @dev nested mapping that takes storeName and productId to return auctionId\n  mapping(string => mapping(uint8 => uint256)) storeNameToAuctionId;\n\n  /// @dev Struct for the auction type to manage auction logic\n  struct Auction {\n      // product owner\n      address seller;\n      // equal to price of product struct\n      uint128 startingPrice;\n      // Price (in wei) at end of auction\n      uint128 endingPrice;\n      // Duration (in seconds) of auction\n      uint64 duration;\n      // Time when auction started\n      // NOTE: 0 if this auction has been concluded\n      uint64 startedAt;\n  }\n\n  /// @dev for testing the successful creation of an auciton\n\n  function getAuctionExists(uint auctionId)public constant returns(bool){\n    uint currentTime = auctionIdToAuction[auctionId].startedAt;\n    if(currentTime != 0){\n      return true;\n    }\n  }\n\n  /// @dev Internal function for auctioning products.\n  /// @param _startingPrice : the starting price for the Dutch Auction\n  /// @param _endingPrice : the lowest the owner want's to sell the product for\n  /// @param _duration : the length of the auction\n  /// @param _seller : the address of the owner selling the product\n  /// @param _auctionId : the identifier for the auction\n  function createAuction(\n      uint256 _startingPrice,\n      uint256 _endingPrice,\n      uint256 _duration,\n      address _seller,\n      uint256 _auctionId\n  )\n      internal\n      whenNotPaused\n  {\n      Auction memory auction = Auction(\n          _seller,\n          uint128(_startingPrice),\n          uint128(_endingPrice),\n          uint64(_duration),\n          uint64(now)\n      );\n      _addAuction(_auctionId, auction);\n  }\n\n  /// @dev Adds the auction to the list of current auctions and emits event\n  /// @param _auctionId : the identifier for this auction\n  /// @param _auction : the acution being created\n  function _addAuction(uint256 _auctionId, Auction _auction) internal {\n      // Require that all auctions have a duration of\n      // at least one minute. (Keeps our math from getting hairy!)\n      require(_auction.duration >= 1 minutes);\n\n      // Add auction to mapping storing auctions\n      auctionIdToAuction[_auctionId] = _auction;\n\n      // Let everyone know about the new auction!!\n      emit AuctionCreated(\n          uint256(_auctionId),\n          uint256(_auction.startingPrice),\n          uint256(_auction.endingPrice),\n          uint256(_auction.duration)\n      );\n  }\n\n  /// @dev Removes an auction from the system\n  /// @param _auctionId : Locator for the auction to be deleted\n  function _removeAuction(uint256 _auctionId) internal {\n      delete auctionIdToAuction[_auctionId];\n  }\n\n  /// @dev allows the owner to cancel auction\n  function _cancelAuction(uint256 _auctionId) internal {\n      _removeAuction(_auctionId);\n      emit AuctionCancelled(_auctionId);\n  }\n\n  /// @dev Used to view if an auction is still live\n  function _isOnAuction(Auction storage _auction) internal view returns (bool) {\n      return (_auction.startedAt > 0);\n  }\n\n\n  /// function for testing successful bid\n  function didBid(address ownerofproduct,uint8 productId,uint itemId)public constant returns(bool){\n    uint storeId = storeAdminToStoreId[ownerofproduct];\n    Store storage current = storeIdToStore[storeId];\n    if(current.products[productId].items[itemId] == ItemStatus.Bought){\n      return true;\n    }else{\n      return false;\n    }\n  }\n  /// @dev Allows customers to \"bid\" on a product: Dutch (reverse) auctions don't\n  /// have bids since it goes from high price to low price. Bid is essentially buy.\n  /// @param _auctionId : The auction which they will be bidding on\n  /// @param _productId : Identifier for product being bid on\n  function _bid(uint256 _auctionId,uint8 _productId)\n      public\n      payable\n      whenNotPaused\n      returns (uint256)\n  {\n\n\n      // Get a reference to the auction struct\n      Auction storage auction = auctionIdToAuction[_auctionId];\n\n      // Explicitly check that this auction is currently live.\n      // (Because of how Ethereum mappings work, we can't just count\n      // on the lookup above failing. An invalid _tokenId will just\n      // return an auction object that is all zeros.)\n      require(_isOnAuction(auction));\n\n\n      // Check that the incoming bid is higher than the current\n      // price\n      uint256 value = msg.value;\n      uint256 price = _currentPrice(auction);\n      require(value >= price);\n\n      // Grab a reference to the seller before the auction struct\n      // gets deleted.\n      address seller = auction.seller;\n\n\n      // The bid is good! Remove the auction before sending the fees\n      // to the sender so we can't have a reentrancy attack.\n      _removeAuction(_auctionId);\n\n      depositEscrow(seller,value);\n\n\n      uint storeId = storeAdminToStoreId[seller];\n      Store storage current = storeIdToStore[storeId];\n      current.products[_productId].items[0] = ItemStatus.Bought;\n      emit LogItemBought(_productId, msg.sender,current.storeName);\n      // Tell the world!\n      emit AuctionSuccessful(_productId, price, msg.sender);\n\n      return price;\n\n  }\n\n  /// @dev Creates the auction product and immediately puts it on auction.\n  /// @param _startingPrice : Price the auction will start at (highest)\n  /// @param _endingPrice : Price auction will end at (lowest)\n  /// @param _duration : length of the auction in seconds(determines speed of price decrease)\n  /// @return _auctionId : To be used to tag auction created.\n  function createAuctionProduct(\n    uint256 _startingPrice,\n    uint256 _endingPrice,\n    uint64 _duration\n    )\n    public\n    onlyStoreAdmin\n    whenNotPaused\n    returns(uint auctionId){\n      // Get current store based on the msg.sender\n      uint storeId = storeAdminToStoreId[msg.sender];\n      Store storage current = storeIdToStore[storeId];\n\n      // Create the new product to store in mapping\n      Product memory _product = Product({\n        price: uint72(_startingPrice),\n        items: new ItemStatus[](0),\n        inventory: 1,\n        auction: true\n        });\n\n      // update product count and pruduct mappings\n      uint8 _productId = current.prodCount;\n      current.products[_productId] = _product;\n      current.prodCount += 1;\n\n      // Get the current seller(owner) of the product\n      address seller = StoreNameToOwner[current.storeName];\n\n      // Set the product instance as ForAuction\n      current.products[_productId].items.push(ItemStatus.ForAuction);\n\n      // Update contract auction count\n      uint _auctionId =  totalAuctions;\n      storeNameToAuctionId[current.storeName][_productId] = _auctionId;\n      totalAuctions = totalAuctions + 1;\n      createAuction( _startingPrice, _endingPrice,_duration,seller,_auctionId);\n\n      // Let the world know about the new product!\n    //  emit LogNewAuctionProduct(_auctionId, current.storeName);\n      return(auctionId);\n    }\n\n  /// @dev Computes the current price of the item on auction\n  function _currentPrice(Auction storage _auction)\n      internal\n      view\n      returns (uint256)\n  {\n      uint256 secondsPassed = 0;\n\n      // A bit of insurance against negative values (or wraparound).\n      // Probably not necessary (since Ethereum guarnatees that the\n      // now variable doesn't ever go backwards).\n      if (now > _auction.startedAt) {\n          secondsPassed = now - _auction.startedAt;\n      }\n\n      //call to internal function\n      return _computeCurrentPrice(\n          _auction.startingPrice,\n          _auction.endingPrice,\n          _auction.duration,\n          secondsPassed\n      );\n  }\n\n  /// @dev Computes the current price of an auction. Factored out\n  ///  from _currentPrice so we can run extensive unit tests.\n  ///  When testing, make this function public and turn on\n  ///  `Current price computation` test suite.\n  function _computeCurrentPrice(\n      uint256 _startingPrice,\n      uint256 _endingPrice,\n      uint256 _duration,\n      uint256 _secondsPassed\n  )\n      //internal // comment out when testing\n      pure\n      returns (uint256)\n  {\n      // NOTE: We don't use SafeMath (or similar) in this function because\n      //  all of our public functions carefully cap the maximum values for\n      //  time (at 64-bits) and currency (at 128-bits). _duration is\n      //  also known to be non-zero (see the require() statement in\n      //  _addAuction())\n      if (_secondsPassed >= _duration) {\n          // We've reached the end of the dynamic pricing portion\n          // of the auction, just return the end price.\n          return _endingPrice;\n      } else {\n          // Starting price can be higher than ending price (and often is!), so\n          // this delta can be negative.\n          int256 totalPriceChange = int256(_endingPrice) - int256(_startingPrice);\n\n          // This multiplication can't overflow, _secondsPassed will easily fit within\n          // 64-bits, and totalPriceChange will easily fit within 128-bits, their product\n          // will always fit within 256-bits.\n          int256 currentPriceChange = totalPriceChange * int256(_secondsPassed) / int256(_duration);\n\n          // currentPriceChange can be negative, but if so, will have a magnitude\n          // less that _startingPrice. Thus, this result will always end up positive.\n          int256 currentPrice = int256(_startingPrice) + currentPriceChange;\n\n          return uint256(currentPrice);\n      }\n    }\n\n\n\n      function getCurrentPrice(uint auctionId)\n          public\n          view\n          returns (uint256)\n      {\n          Auction storage auction = auctionIdToAuction[auctionId];\n          require(_isOnAuction(auction));\n          return _currentPrice(auction);\n      }\n\n      function getDuration(uint auctionId)public constant returns(uint){\n        Auction storage auction = auctionIdToAuction[auctionId];\n        require(_isOnAuction(auction));\n        return (auction.duration);\n      }\n      function getReservePrice(uint auctionId) public constant returns(uint){\n        Auction storage auction = auctionIdToAuction[auctionId];\n        require(_isOnAuction(auction));\n        return auction.endingPrice;\n      }\n\n      function getItemLength(string storeName, uint8 productId)public constant returns(uint){\n        address owner = StoreNameToOwner[storeName];\n        uint storeId = OwnerToStoreId[owner];\n        return storeIdToStore[storeId].products[productId].items.length;\n      }\n\n      function getItemBought(string storeName, uint8 productId, uint index) public constant returns(bool){\n        address owner = StoreNameToOwner[storeName];\n        uint storeId = OwnerToStoreId[owner];\n        Store storage current = storeIdToStore[storeId];\n        ItemStatus _status = current.products[productId].items[index];\n        return(_status == ItemStatus.Bought);\n      }\n\n      function getAuctionId(string StoreName, uint8 productId) public constant returns(uint){\n        return(storeNameToAuctionId[StoreName][productId]);\n      }\n\n  }\n",
  "sourcePath": "/Users/ericbrown/Documents/Blockchain/ConsenSysCourse/GitHub/Maats/contracts/StoreAuction.sol",
  "compiler": {
    "name": "solc",
    "version": "0.4.24+commit.e67f0147.Emscripten.clang"
  },
  "schemaVersion": "2.0.1",
  "updatedAt": "2018-08-15T19:57:33.722Z"
}