{
  "contractName": "StoreCore",
  "abi": [
    {
      "constant": true,
      "inputs": [
        {
          "name": "adminAddress",
          "type": "address"
        }
      ],
      "name": "getIsStoreAdmin",
      "outputs": [
        {
          "name": "",
          "type": "bool"
        }
      ],
      "payable": false,
      "stateMutability": "view",
      "type": "function"
    },
    {
      "constant": true,
      "inputs": [
        {
          "name": "_storeName",
          "type": "string"
        }
      ],
      "name": "getNumProducts",
      "outputs": [
        {
          "name": "",
          "type": "uint256"
        }
      ],
      "payable": false,
      "stateMutability": "view",
      "type": "function"
    },
    {
      "constant": true,
      "inputs": [
        {
          "name": "",
          "type": "address"
        }
      ],
      "name": "OwnerToStore",
      "outputs": [
        {
          "name": "storeName",
          "type": "string"
        },
        {
          "name": "prodCount",
          "type": "uint256"
        }
      ],
      "payable": false,
      "stateMutability": "view",
      "type": "function"
    },
    {
      "constant": true,
      "inputs": [
        {
          "name": "ownerAddress",
          "type": "address"
        }
      ],
      "name": "getCurrentInventory",
      "outputs": [
        {
          "name": "",
          "type": "uint64"
        }
      ],
      "payable": false,
      "stateMutability": "view",
      "type": "function"
    },
    {
      "constant": true,
      "inputs": [
        {
          "name": "_storeName",
          "type": "string"
        }
      ],
      "name": "getOwnerFromName",
      "outputs": [
        {
          "name": "",
          "type": "address"
        }
      ],
      "payable": false,
      "stateMutability": "view",
      "type": "function"
    },
    {
      "constant": true,
      "inputs": [
        {
          "name": "_storeName",
          "type": "string"
        }
      ],
      "name": "getStoreExists",
      "outputs": [
        {
          "name": "",
          "type": "bool"
        }
      ],
      "payable": false,
      "stateMutability": "view",
      "type": "function"
    },
    {
      "constant": true,
      "inputs": [
        {
          "name": "",
          "type": "address"
        }
      ],
      "name": "purchaserToItem",
      "outputs": [
        {
          "name": "",
          "type": "uint256"
        }
      ],
      "payable": false,
      "stateMutability": "view",
      "type": "function"
    },
    {
      "constant": false,
      "inputs": [],
      "name": "_pause",
      "outputs": [],
      "payable": false,
      "stateMutability": "nonpayable",
      "type": "function"
    },
    {
      "constant": false,
      "inputs": [],
      "name": "withdraw",
      "outputs": [],
      "payable": false,
      "stateMutability": "nonpayable",
      "type": "function"
    },
    {
      "constant": false,
      "inputs": [
        {
          "name": "_revokedAdmin",
          "type": "address"
        }
      ],
      "name": "removeMaatsAdmin",
      "outputs": [],
      "payable": false,
      "stateMutability": "nonpayable",
      "type": "function"
    },
    {
      "constant": true,
      "inputs": [
        {
          "name": "_productId",
          "type": "uint256"
        },
        {
          "name": "_storeName",
          "type": "string"
        }
      ],
      "name": "getProductType",
      "outputs": [
        {
          "name": "",
          "type": "bool"
        }
      ],
      "payable": false,
      "stateMutability": "view",
      "type": "function"
    },
    {
      "constant": false,
      "inputs": [
        {
          "name": "_productId",
          "type": "uint256"
        },
        {
          "name": "_storeName",
          "type": "string"
        }
      ],
      "name": "buyItem",
      "outputs": [
        {
          "name": "index",
          "type": "uint256"
        }
      ],
      "payable": true,
      "stateMutability": "payable",
      "type": "function"
    },
    {
      "constant": true,
      "inputs": [
        {
          "name": "",
          "type": "address"
        }
      ],
      "name": "isStoreOwner",
      "outputs": [
        {
          "name": "",
          "type": "bool"
        }
      ],
      "payable": false,
      "stateMutability": "view",
      "type": "function"
    },
    {
      "constant": false,
      "inputs": [
        {
          "name": "_newOwner",
          "type": "address"
        }
      ],
      "name": "setMaatsOwner",
      "outputs": [],
      "payable": false,
      "stateMutability": "nonpayable",
      "type": "function"
    },
    {
      "constant": true,
      "inputs": [],
      "name": "newContractAddress",
      "outputs": [
        {
          "name": "",
          "type": "address"
        }
      ],
      "payable": false,
      "stateMutability": "view",
      "type": "function"
    },
    {
      "constant": true,
      "inputs": [
        {
          "name": "ownerofproduct",
          "type": "address"
        },
        {
          "name": "productId",
          "type": "uint256"
        },
        {
          "name": "itemId",
          "type": "uint256"
        }
      ],
      "name": "didBid",
      "outputs": [
        {
          "name": "",
          "type": "bool"
        }
      ],
      "payable": false,
      "stateMutability": "view",
      "type": "function"
    },
    {
      "constant": true,
      "inputs": [
        {
          "name": "index",
          "type": "uint256"
        },
        {
          "name": "storeName",
          "type": "string"
        }
      ],
      "name": "getStoreAdmins",
      "outputs": [
        {
          "name": "",
          "type": "address"
        }
      ],
      "payable": false,
      "stateMutability": "view",
      "type": "function"
    },
    {
      "constant": false,
      "inputs": [
        {
          "name": "_newAdmin",
          "type": "address"
        }
      ],
      "name": "createMaatsAdmin",
      "outputs": [],
      "payable": false,
      "stateMutability": "nonpayable",
      "type": "function"
    },
    {
      "constant": true,
      "inputs": [
        {
          "name": "_productId",
          "type": "uint256"
        }
      ],
      "name": "getAuction",
      "outputs": [
        {
          "name": "seller",
          "type": "address"
        },
        {
          "name": "startingPrice",
          "type": "uint256"
        },
        {
          "name": "endingPrice",
          "type": "uint256"
        },
        {
          "name": "duration",
          "type": "uint256"
        },
        {
          "name": "startedAt",
          "type": "uint256"
        }
      ],
      "payable": false,
      "stateMutability": "view",
      "type": "function"
    },
    {
      "constant": false,
      "inputs": [
        {
          "name": "_auctionId",
          "type": "uint256"
        },
        {
          "name": "_productId",
          "type": "uint256"
        }
      ],
      "name": "_bid",
      "outputs": [
        {
          "name": "",
          "type": "uint256"
        }
      ],
      "payable": true,
      "stateMutability": "payable",
      "type": "function"
    },
    {
      "constant": false,
      "inputs": [
        {
          "name": "_storeName",
          "type": "string"
        }
      ],
      "name": "removeStoreOwner",
      "outputs": [
        {
          "name": "",
          "type": "bool"
        }
      ],
      "payable": false,
      "stateMutability": "nonpayable",
      "type": "function"
    },
    {
      "constant": true,
      "inputs": [
        {
          "name": "_admin",
          "type": "address"
        }
      ],
      "name": "getIsAdmin",
      "outputs": [
        {
          "name": "",
          "type": "bool"
        }
      ],
      "payable": false,
      "stateMutability": "view",
      "type": "function"
    },
    {
      "constant": true,
      "inputs": [],
      "name": "pause",
      "outputs": [
        {
          "name": "",
          "type": "bool"
        }
      ],
      "payable": false,
      "stateMutability": "view",
      "type": "function"
    },
    {
      "constant": true,
      "inputs": [
        {
          "name": "storeOwnerAddress",
          "type": "address"
        }
      ],
      "name": "getCurrentPrice",
      "outputs": [
        {
          "name": "",
          "type": "uint128"
        }
      ],
      "payable": false,
      "stateMutability": "view",
      "type": "function"
    },
    {
      "constant": true,
      "inputs": [
        {
          "name": "auctionId",
          "type": "uint256"
        }
      ],
      "name": "getAuctionExists",
      "outputs": [
        {
          "name": "",
          "type": "bool"
        }
      ],
      "payable": false,
      "stateMutability": "view",
      "type": "function"
    },
    {
      "constant": false,
      "inputs": [
        {
          "name": "_itemIndex",
          "type": "uint256"
        },
        {
          "name": "_productId",
          "type": "uint256"
        }
      ],
      "name": "shipItem",
      "outputs": [
        {
          "name": "shipped",
          "type": "bool"
        }
      ],
      "payable": false,
      "stateMutability": "nonpayable",
      "type": "function"
    },
    {
      "constant": false,
      "inputs": [
        {
          "name": "_price",
          "type": "uint128"
        },
        {
          "name": "_inventory",
          "type": "uint64"
        }
      ],
      "name": "createSetPriceProduct",
      "outputs": [
        {
          "name": "_productId",
          "type": "uint256"
        }
      ],
      "payable": false,
      "stateMutability": "nonpayable",
      "type": "function"
    },
    {
      "constant": true,
      "inputs": [
        {
          "name": "_purchaser",
          "type": "address"
        }
      ],
      "name": "getPurchase",
      "outputs": [
        {
          "name": "",
          "type": "uint256"
        }
      ],
      "payable": false,
      "stateMutability": "view",
      "type": "function"
    },
    {
      "constant": false,
      "inputs": [
        {
          "name": "_newOwner",
          "type": "address"
        },
        {
          "name": "_storeName",
          "type": "string"
        }
      ],
      "name": "makeStoreOwner",
      "outputs": [],
      "payable": false,
      "stateMutability": "nonpayable",
      "type": "function"
    },
    {
      "constant": false,
      "inputs": [
        {
          "name": "_newPrice",
          "type": "uint128"
        },
        {
          "name": "_productId",
          "type": "uint256"
        }
      ],
      "name": "changePrice",
      "outputs": [
        {
          "name": "",
          "type": "uint128"
        }
      ],
      "payable": false,
      "stateMutability": "nonpayable",
      "type": "function"
    },
    {
      "constant": false,
      "inputs": [
        {
          "name": "_productId",
          "type": "uint256"
        },
        {
          "name": "_newInventory",
          "type": "uint64"
        }
      ],
      "name": "addInventory",
      "outputs": [
        {
          "name": "",
          "type": "uint64"
        }
      ],
      "payable": false,
      "stateMutability": "nonpayable",
      "type": "function"
    },
    {
      "constant": true,
      "inputs": [
        {
          "name": "ownerAddress",
          "type": "address"
        },
        {
          "name": "index",
          "type": "uint256"
        },
        {
          "name": "productId",
          "type": "uint256"
        }
      ],
      "name": "getItemShipped",
      "outputs": [
        {
          "name": "",
          "type": "bool"
        }
      ],
      "payable": false,
      "stateMutability": "view",
      "type": "function"
    },
    {
      "constant": true,
      "inputs": [
        {
          "name": "",
          "type": "address"
        }
      ],
      "name": "createdStore",
      "outputs": [
        {
          "name": "",
          "type": "bool"
        }
      ],
      "payable": false,
      "stateMutability": "view",
      "type": "function"
    },
    {
      "constant": false,
      "inputs": [
        {
          "name": "_NewAdminAddress",
          "type": "address"
        }
      ],
      "name": "createStoreAdmin",
      "outputs": [],
      "payable": false,
      "stateMutability": "nonpayable",
      "type": "function"
    },
    {
      "constant": true,
      "inputs": [
        {
          "name": "_productId",
          "type": "uint256"
        }
      ],
      "name": "getCurrentPrice",
      "outputs": [
        {
          "name": "",
          "type": "uint256"
        }
      ],
      "payable": false,
      "stateMutability": "view",
      "type": "function"
    },
    {
      "constant": true,
      "inputs": [
        {
          "name": "_startingPrice",
          "type": "uint256"
        },
        {
          "name": "_endingPrice",
          "type": "uint256"
        },
        {
          "name": "_duration",
          "type": "uint256"
        },
        {
          "name": "_secondsPassed",
          "type": "uint256"
        }
      ],
      "name": "_computeCurrentPrice",
      "outputs": [
        {
          "name": "",
          "type": "uint256"
        }
      ],
      "payable": false,
      "stateMutability": "pure",
      "type": "function"
    },
    {
      "constant": false,
      "inputs": [
        {
          "name": "_startingPrice",
          "type": "uint256"
        },
        {
          "name": "_endingPrice",
          "type": "uint256"
        },
        {
          "name": "_duration",
          "type": "uint64"
        }
      ],
      "name": "createAuctionProduct",
      "outputs": [
        {
          "name": "auctionId",
          "type": "uint256"
        }
      ],
      "payable": false,
      "stateMutability": "nonpayable",
      "type": "function"
    },
    {
      "constant": true,
      "inputs": [
        {
          "name": "ownerAddress",
          "type": "address"
        }
      ],
      "name": "getProductExists",
      "outputs": [
        {
          "name": "",
          "type": "bool"
        }
      ],
      "payable": false,
      "stateMutability": "view",
      "type": "function"
    },
    {
      "constant": true,
      "inputs": [
        {
          "name": "_productId",
          "type": "uint256"
        },
        {
          "name": "_storeName",
          "type": "string"
        }
      ],
      "name": "findFirstItemForSale",
      "outputs": [
        {
          "name": "",
          "type": "uint256"
        }
      ],
      "payable": false,
      "stateMutability": "view",
      "type": "function"
    },
    {
      "constant": false,
      "inputs": [
        {
          "name": "_escrowAddress",
          "type": "address"
        }
      ],
      "name": "setEscrowAddress",
      "outputs": [],
      "payable": false,
      "stateMutability": "nonpayable",
      "type": "function"
    },
    {
      "constant": true,
      "inputs": [],
      "name": "getNumStores",
      "outputs": [
        {
          "name": "",
          "type": "uint256"
        }
      ],
      "payable": false,
      "stateMutability": "view",
      "type": "function"
    },
    {
      "constant": true,
      "inputs": [],
      "name": "escrow",
      "outputs": [
        {
          "name": "",
          "type": "address"
        }
      ],
      "payable": false,
      "stateMutability": "view",
      "type": "function"
    },
    {
      "constant": true,
      "inputs": [],
      "name": "maatsOwner",
      "outputs": [
        {
          "name": "",
          "type": "address"
        }
      ],
      "payable": false,
      "stateMutability": "view",
      "type": "function"
    },
    {
      "constant": true,
      "inputs": [
        {
          "name": "",
          "type": "uint256"
        }
      ],
      "name": "maatsAdmins",
      "outputs": [
        {
          "name": "",
          "type": "address"
        }
      ],
      "payable": false,
      "stateMutability": "view",
      "type": "function"
    },
    {
      "constant": false,
      "inputs": [],
      "name": "_unpause",
      "outputs": [],
      "payable": false,
      "stateMutability": "nonpayable",
      "type": "function"
    },
    {
      "constant": false,
      "inputs": [
        {
          "name": "_adminAddress",
          "type": "address"
        }
      ],
      "name": "removeStoreAdmin",
      "outputs": [],
      "payable": false,
      "stateMutability": "nonpayable",
      "type": "function"
    },
    {
      "constant": true,
      "inputs": [
        {
          "name": "i",
          "type": "uint256"
        }
      ],
      "name": "getStoreName",
      "outputs": [
        {
          "name": "",
          "type": "string"
        }
      ],
      "payable": false,
      "stateMutability": "view",
      "type": "function"
    },
    {
      "inputs": [],
      "payable": false,
      "stateMutability": "nonpayable",
      "type": "constructor"
    },
    {
      "payable": true,
      "stateMutability": "payable",
      "type": "fallback"
    },
    {
      "anonymous": false,
      "inputs": [
        {
          "indexed": true,
          "name": "_sender",
          "type": "address"
        },
        {
          "indexed": false,
          "name": "_value",
          "type": "uint256"
        }
      ],
      "name": "LogFundsReceived",
      "type": "event"
    },
    {
      "anonymous": false,
      "inputs": [
        {
          "indexed": false,
          "name": "number",
          "type": "uint256"
        }
      ],
      "name": "TestLog",
      "type": "event"
    },
    {
      "anonymous": false,
      "inputs": [
        {
          "indexed": false,
          "name": "_auctionId",
          "type": "uint256"
        },
        {
          "indexed": true,
          "name": "_storeName",
          "type": "string"
        }
      ],
      "name": "LogNewAuctionProduct",
      "type": "event"
    },
    {
      "anonymous": false,
      "inputs": [
        {
          "indexed": false,
          "name": "productId",
          "type": "uint256"
        },
        {
          "indexed": false,
          "name": "startingPrice",
          "type": "uint256"
        },
        {
          "indexed": false,
          "name": "endingPrice",
          "type": "uint256"
        },
        {
          "indexed": false,
          "name": "duration",
          "type": "uint256"
        }
      ],
      "name": "AuctionCreated",
      "type": "event"
    },
    {
      "anonymous": false,
      "inputs": [
        {
          "indexed": false,
          "name": "productId",
          "type": "uint256"
        },
        {
          "indexed": false,
          "name": "totalPrice",
          "type": "uint256"
        },
        {
          "indexed": false,
          "name": "winner",
          "type": "address"
        }
      ],
      "name": "AuctionSuccessful",
      "type": "event"
    },
    {
      "anonymous": false,
      "inputs": [
        {
          "indexed": false,
          "name": "productId",
          "type": "uint256"
        }
      ],
      "name": "AuctionCancelled",
      "type": "event"
    },
    {
      "anonymous": false,
      "inputs": [
        {
          "indexed": true,
          "name": "_productId",
          "type": "uint256"
        },
        {
          "indexed": true,
          "name": "_purchaser",
          "type": "address"
        },
        {
          "indexed": false,
          "name": "_storeName",
          "type": "string"
        }
      ],
      "name": "LogItemBought",
      "type": "event"
    },
    {
      "anonymous": false,
      "inputs": [
        {
          "indexed": true,
          "name": "_storeName",
          "type": "string"
        },
        {
          "indexed": true,
          "name": "_productId",
          "type": "uint256"
        },
        {
          "indexed": false,
          "name": "remaining",
          "type": "uint64"
        }
      ],
      "name": "LogInventoryLow",
      "type": "event"
    },
    {
      "anonymous": false,
      "inputs": [
        {
          "indexed": true,
          "name": "_storeName",
          "type": "string"
        },
        {
          "indexed": true,
          "name": "_productId",
          "type": "uint256"
        }
      ],
      "name": "LogInventoryOut",
      "type": "event"
    },
    {
      "anonymous": false,
      "inputs": [
        {
          "indexed": true,
          "name": "_index",
          "type": "uint256"
        },
        {
          "indexed": true,
          "name": "_productId",
          "type": "uint256"
        },
        {
          "indexed": false,
          "name": "_storeName",
          "type": "string"
        }
      ],
      "name": "LogItemShipped",
      "type": "event"
    },
    {
      "anonymous": false,
      "inputs": [
        {
          "indexed": false,
          "name": "_productId",
          "type": "uint256"
        },
        {
          "indexed": true,
          "name": "_storeName",
          "type": "string"
        }
      ],
      "name": "LogNewSetPriceProduct",
      "type": "event"
    },
    {
      "anonymous": false,
      "inputs": [
        {
          "indexed": true,
          "name": "_productId",
          "type": "uint256"
        },
        {
          "indexed": false,
          "name": "inventory",
          "type": "uint64"
        }
      ],
      "name": "LogAddedInventory",
      "type": "event"
    },
    {
      "anonymous": false,
      "inputs": [
        {
          "indexed": true,
          "name": "_ownerAddress",
          "type": "address"
        },
        {
          "indexed": true,
          "name": "_storeName",
          "type": "string"
        }
      ],
      "name": "LogProductRemoved",
      "type": "event"
    },
    {
      "anonymous": false,
      "inputs": [
        {
          "indexed": true,
          "name": "_productId",
          "type": "uint256"
        },
        {
          "indexed": true,
          "name": "_storeName",
          "type": "string"
        },
        {
          "indexed": false,
          "name": "_newPrice",
          "type": "uint128"
        }
      ],
      "name": "LogPriceChange",
      "type": "event"
    },
    {
      "anonymous": false,
      "inputs": [
        {
          "indexed": true,
          "name": "_storeName",
          "type": "string"
        },
        {
          "indexed": false,
          "name": "adminAddress",
          "type": "address"
        }
      ],
      "name": "LogNewAdmin",
      "type": "event"
    },
    {
      "anonymous": false,
      "inputs": [
        {
          "indexed": true,
          "name": "_storeName",
          "type": "string"
        },
        {
          "indexed": false,
          "name": "adminAddress",
          "type": "address"
        }
      ],
      "name": "LogAdminRemoved",
      "type": "event"
    },
    {
      "anonymous": false,
      "inputs": [
        {
          "indexed": true,
          "name": "_ownerAddress",
          "type": "address"
        },
        {
          "indexed": true,
          "name": "_newStoreName",
          "type": "string"
        }
      ],
      "name": "LogNewStore",
      "type": "event"
    },
    {
      "anonymous": false,
      "inputs": [
        {
          "indexed": true,
          "name": "_storeOwnerAddress",
          "type": "address"
        }
      ],
      "name": "LogNewStoreOwner",
      "type": "event"
    },
    {
      "anonymous": false,
      "inputs": [
        {
          "indexed": true,
          "name": "_storeOwner",
          "type": "address"
        }
      ],
      "name": "LogStoreOwnerRemoved",
      "type": "event"
    },
    {
      "anonymous": false,
      "inputs": [
        {
          "indexed": true,
          "name": "_ownerAddress",
          "type": "address"
        },
        {
          "indexed": false,
          "name": "_oldStoreName",
          "type": "string"
        }
      ],
      "name": "LogStoreClosed",
      "type": "event"
    },
    {
      "anonymous": false,
      "inputs": [
        {
          "indexed": true,
          "name": "previousOwner",
          "type": "address"
        },
        {
          "indexed": true,
          "name": "newOwner",
          "type": "address"
        }
      ],
      "name": "LogNewOwner",
      "type": "event"
    },
    {
      "anonymous": false,
      "inputs": [
        {
          "indexed": true,
          "name": "newAdmin",
          "type": "address"
        }
      ],
      "name": "LogNewAdmin",
      "type": "event"
    },
    {
      "anonymous": false,
      "inputs": [
        {
          "indexed": true,
          "name": "revokedAdmin",
          "type": "address"
        }
      ],
      "name": "LogAdminRevoked",
      "type": "event"
    },
    {
      "anonymous": false,
      "inputs": [],
      "name": "Pause",
      "type": "event"
    },
    {
      "anonymous": false,
      "inputs": [],
      "name": "Unpause",
      "type": "event"
    },
    {
      "constant": true,
      "inputs": [
        {
          "name": "_storeName",
          "type": "string"
        },
        {
          "name": "productId",
          "type": "uint256"
        }
      ],
      "name": "getProduct",
      "outputs": [
        {
          "name": "_price",
          "type": "uint128"
        },
        {
          "name": "_inventory",
          "type": "uint64"
        },
        {
          "name": "_auction",
          "type": "bool"
        }
      ],
      "payable": false,
      "stateMutability": "view",
      "type": "function"
    }
  ],
  "bytecode": "0x6080604052600060135534801561001557600080fd5b50336000806101000a81548173ffffffffffffffffffffffffffffffffffffffff021916908373ffffffffffffffffffffffffffffffffffffffff1602179055506001600760006101000a81548160ff0219169083151502179055503373ffffffffffffffffffffffffffffffffffffffff166000809054906101000a90505050615f9b80620000a66000396000f300608060405260043610610245576000357c0100000000000000000000000000000000000000000000000000000000900463ffffffff168062265dc5146102a0578063049760cf146102fb578063050cfdd1146103cc5780631ab63af81461044957806321c636fe1461050c57806328ec015c146105775780632fa8cfac1461062057806331df27ce146106a1578063320b2ad9146106f85780633ccfd60b1461070f57806340f42c1c1461072657806342c3ab25146107695780634e71b35c146107f45780635effd33c1461086e5780635f7d53a1146108c95780636af04a571461090c5780636f9a81761461096357806373ada806146109d257806378678a3214610a8557806378bd793514610ac85780637c3d30fd14610b51578063803360b614610b8f578063822b0ceb14610c105780638456cb5914610c6b57806384cc315b14610c9a578063982a359614610d155780639a5aec9b14610d5a578063a14f258414610da9578063a275999c14610e10578063a6bb52e214610e67578063a880ba9514610ef0578063b3eae8c514610f71578063b89069c214610fda578063bd9cf58e14611049578063bdc39f48146110a4578063c55d0f56146110e7578063cb92bfa114611128578063cca0400114611187578063cff4af13146111e6578063d5755e8714611241578063ddeb63b5146112c8578063e20df1381461130b578063e2fdcc1714611336578063e698f0bb1461138d578063f0e06e4a146113e4578063fc8234cb14611451578063fde57f3b14611468578063fed48949146114ab575b60003410151561029e573373ffffffffffffffffffffffffffffffffffffffff167fafc7c22656214f820dd5d5d53d4e1a42b878f2fe22f8523d33e095602edff922346040518082815260200191505060405180910390a25b005b3480156102ac57600080fd5b506102e1600480360381019080803573ffffffffffffffffffffffffffffffffffffffff169060200190929190505050611551565b604051808215151515815260200191505060405180910390f35b34801561030757600080fd5b5061036c600480360381019080803590602001908201803590602001908080601f0160208091040260200160405190810160405280939291908181526020018383808284378201915050505050509192919290803590602001909291905050506115a7565b60405180846fffffffffffffffffffffffffffffffff166fffffffffffffffffffffffffffffffff1681526020018367ffffffffffffffff1667ffffffffffffffff16815260200182151515158152602001935050505060405180910390f35b3480156103d857600080fd5b50610433600480360381019080803590602001908201803590602001908080601f01602080910402602001604051908101604052809392919081815260200183838082843782019150505050505091929192905050506116f2565b6040518082815260200191505060405180910390f35b34801561045557600080fd5b5061048a600480360381019080803573ffffffffffffffffffffffffffffffffffffffff169060200190929190505050611858565b6040518080602001838152602001828103825284818151815260200191508051906020019080838360005b838110156104d05780820151818401526020810190506104b5565b50505050905090810190601f1680156104fd5780820380516001836020036101000a031916815260200191505b50935050505060405180910390f35b34801561051857600080fd5b5061054d600480360381019080803573ffffffffffffffffffffffffffffffffffffffff169060200190929190505050611914565b604051808267ffffffffffffffff1667ffffffffffffffff16815260200191505060405180910390f35b34801561058357600080fd5b506105de600480360381019080803590602001908201803590602001908080601f016020809104026020016040519081016040528093929190818152602001838380828437820191505050505050919291929050505061198d565b604051808273ffffffffffffffffffffffffffffffffffffffff1673ffffffffffffffffffffffffffffffffffffffff16815260200191505060405180910390f35b34801561062c57600080fd5b50610687600480360381019080803590602001908201803590602001908080601f0160208091040260200160405190810160405280939291908181526020018383808284378201915050505050509192919290505050611a27565b604051808215151515815260200191505060405180910390f35b3480156106ad57600080fd5b506106e2600480360381019080803573ffffffffffffffffffffffffffffffffffffffff169060200190929190505050611aa9565b6040518082815260200191505060405180910390f35b34801561070457600080fd5b5061070d611ac1565b005b34801561071b57600080fd5b50610724611b87565b005b34801561073257600080fd5b50610767600480360381019080803573ffffffffffffffffffffffffffffffffffffffff169060200190929190505050611c63565b005b34801561077557600080fd5b506107da60048036038101908080359060200190929190803590602001908201803590602001908080601f0160208091040260200160405190810160405280939291908181526020018383808284378201915050505050509192919290505050611e7c565b604051808215151515815260200191505060405180910390f35b61085860048036038101908080359060200190929190803590602001908201803590602001908080601f0160208091040260200160405190810160405280939291908181526020018383808284378201915050505050509192919290505050612009565b6040518082815260200191505060405180910390f35b34801561087a57600080fd5b506108af600480360381019080803573ffffffffffffffffffffffffffffffffffffffff1690602001909291905050506122a3565b604051808215151515815260200191505060405180910390f35b3480156108d557600080fd5b5061090a600480360381019080803573ffffffffffffffffffffffffffffffffffffffff1690602001909291905050506122c3565b005b34801561091857600080fd5b50610921612440565b604051808273ffffffffffffffffffffffffffffffffffffffff1673ffffffffffffffffffffffffffffffffffffffff16815260200191505060405180910390f35b34801561096f57600080fd5b506109b8600480360381019080803573ffffffffffffffffffffffffffffffffffffffff1690602001909291908035906020019092919080359060200190929190505050612466565b604051808215151515815260200191505060405180910390f35b3480156109de57600080fd5b50610a4360048036038101908080359060200190929190803590602001908201803590602001908080601f0160208091040260200160405190810160405280939291908181526020018383808284378201915050505050509192919290505050612523565b604051808273ffffffffffffffffffffffffffffffffffffffff1673ffffffffffffffffffffffffffffffffffffffff16815260200191505060405180910390f35b348015610a9157600080fd5b50610ac6600480360381019080803573ffffffffffffffffffffffffffffffffffffffff169060200190929190505050612665565b005b348015610ad457600080fd5b50610af36004803603810190808035906020019092919050505061292e565b604051808673ffffffffffffffffffffffffffffffffffffffff1673ffffffffffffffffffffffffffffffffffffffff1681526020018581526020018481526020018381526020018281526020019550505050505060405180910390f35b610b796004803603810190808035906020019092919080359060200190929190505050612a51565b6040518082815260200191505060405180910390f35b348015610b9b57600080fd5b50610bf6600480360381019080803590602001908201803590602001908080601f0160208091040260200160405190810160405280939291908181526020018383808284378201915050505050509192919290505050612cec565b604051808215151515815260200191505060405180910390f35b348015610c1c57600080fd5b50610c51600480360381019080803573ffffffffffffffffffffffffffffffffffffffff1690602001909291905050506131a3565b604051808215151515815260200191505060405180910390f35b348015610c7757600080fd5b50610c8061321a565b604051808215151515815260200191505060405180910390f35b348015610ca657600080fd5b50610cdb600480360381019080803573ffffffffffffffffffffffffffffffffffffffff16906020019092919050505061322d565b60405180826fffffffffffffffffffffffffffffffff166fffffffffffffffffffffffffffffffff16815260200191505060405180910390f35b348015610d2157600080fd5b50610d40600480360381019080803590602001909291905050506132ae565b604051808215151515815260200191505060405180910390f35b348015610d6657600080fd5b50610d8f6004803603810190808035906020019092919080359060200190929190505050613302565b604051808215151515815260200191505060405180910390f35b348015610db557600080fd5b50610dfa60048036038101908080356fffffffffffffffffffffffffffffffff169060200190929190803567ffffffffffffffff169060200190929190505050613665565b6040518082815260200191505060405180910390f35b348015610e1c57600080fd5b50610e51600480360381019080803573ffffffffffffffffffffffffffffffffffffffff1690602001909291905050506139ba565b6040518082815260200191505060405180910390f35b348015610e7357600080fd5b50610eee600480360381019080803573ffffffffffffffffffffffffffffffffffffffff169060200190929190803590602001908201803590602001908080601f0160208091040260200160405190810160405280939291908181526020018383808284378201915050505050509192919290505050613a03565b005b348015610efc57600080fd5b50610f3760048036038101908080356fffffffffffffffffffffffffffffffff16906020019092919080359060200190929190505050613be4565b60405180826fffffffffffffffffffffffffffffffff166fffffffffffffffffffffffffffffffff16815260200191505060405180910390f35b348015610f7d57600080fd5b50610fb060048036038101908080359060200190929190803567ffffffffffffffff169060200190929190505050613dce565b604051808267ffffffffffffffff1667ffffffffffffffff16815260200191505060405180910390f35b348015610fe657600080fd5b5061102f600480360381019080803573ffffffffffffffffffffffffffffffffffffffff16906020019092919080359060200190929190803590602001909291905050506140d2565b604051808215151515815260200191505060405180910390f35b34801561105557600080fd5b5061108a600480360381019080803573ffffffffffffffffffffffffffffffffffffffff16906020019092919050505061418e565b604051808215151515815260200191505060405180910390f35b3480156110b057600080fd5b506110e5600480360381019080803573ffffffffffffffffffffffffffffffffffffffff1690602001909291905050506141ae565b005b3480156110f357600080fd5b506111126004803603810190808035906020019092919050505061442b565b6040518082815260200191505060405180910390f35b34801561113457600080fd5b5061117160048036038101908080359060200190929190803590602001909291908035906020019092919080359060200190929190505050614468565b6040518082815260200191505060405180910390f35b34801561119357600080fd5b506111d06004803603810190808035906020019092919080359060200190929190803567ffffffffffffffff1690602001909291905050506144a8565b6040518082815260200191505060405180910390f35b3480156111f257600080fd5b50611227600480360381019080803573ffffffffffffffffffffffffffffffffffffffff169060200190929190505050614872565b604051808215151515815260200191505060405180910390f35b34801561124d57600080fd5b506112b260048036038101908080359060200190929190803590602001908201803590602001908080601f01602080910402602001604051908101604052809392919081815260200183838082843782019150505050505091929192905050506148e6565b6040518082815260200191505060405180910390f35b3480156112d457600080fd5b50611309600480360381019080803573ffffffffffffffffffffffffffffffffffffffff169060200190929190505050614a8c565b005b34801561131757600080fd5b50611320614b31565b6040518082815260200191505060405180910390f35b34801561134257600080fd5b5061134b614b3e565b604051808273ffffffffffffffffffffffffffffffffffffffff1673ffffffffffffffffffffffffffffffffffffffff16815260200191505060405180910390f35b34801561139957600080fd5b506113a2614b64565b604051808273ffffffffffffffffffffffffffffffffffffffff1673ffffffffffffffffffffffffffffffffffffffff16815260200191505060405180910390f35b3480156113f057600080fd5b5061140f60048036038101908080359060200190929190505050614b89565b604051808273ffffffffffffffffffffffffffffffffffffffff1673ffffffffffffffffffffffffffffffffffffffff16815260200191505060405180910390f35b34801561145d57600080fd5b50611466614bbe565b005b34801561147457600080fd5b506114a9600480360381019080803573ffffffffffffffffffffffffffffffffffffffff169060200190929190505050614c84565b005b3480156114b757600080fd5b506114d660048036038101908080359060200190929190505050614f17565b6040518080602001828103825283818151815260200191508051906020019080838360005b838110156115165780820151818401526020810190506114fb565b50505050905090810190601f1680156115435780820380516001836020036101000a031916815260200191505b509250505060405180910390f35b6000600f60008373ffffffffffffffffffffffffffffffffffffffff1673ffffffffffffffffffffffffffffffffffffffff16815260200190815260200160002060009054906101000a900460ff169050919050565b600080600080600080600a886040518082805190602001908083835b6020831015156115e857805182526020820191506020810190506020830392506115c3565b6001836020036101000a038019825116818451168082178552505050505050905001915050908152602001604051809103902060009054906101000a900473ffffffffffffffffffffffffffffffffffffffff169250600960008473ffffffffffffffffffffffffffffffffffffffff1673ffffffffffffffffffffffffffffffffffffffff168152602001908152602001600020915081600101600088815260200190815260200160002090508060000160009054906101000a90046fffffffffffffffffffffffffffffffff1695508060020160009054906101000a900467ffffffffffffffff1694508060020160089054906101000a900460ff1693505050509250925092565b6000806000600d846040518082805190602001908083835b60208310151561172f578051825260208201915060208101905060208303925061170a565b6001836020036101000a038019825116818451168082178552505050505050905001915050908152602001604051809103902060009054906101000a900460ff16151561177b57600080fd5b600a846040518082805190602001908083835b6020831015156117b3578051825260208201915060208101905060208303925061178e565b6001836020036101000a038019825116818451168082178552505050505050905001915050908152602001604051809103902060009054906101000a900473ffffffffffffffffffffffffffffffffffffffff169150600960008373ffffffffffffffffffffffffffffffffffffffff1673ffffffffffffffffffffffffffffffffffffffff1681526020019081526020016000209050806008015492505050919050565b6009602052806000526040600020600091509050806000018054600181600116156101000203166002900480601f0160208091040260200160405190810160405280929190818152602001828054600181600116156101000203166002900480156119045780601f106118d957610100808354040283529160200191611904565b820191906000526020600020905b8154815290600101906020018083116118e757829003601f168201915b5050505050908060080154905082565b600080600e60008473ffffffffffffffffffffffffffffffffffffffff1673ffffffffffffffffffffffffffffffffffffffff168152602001908152602001600020905080600101600080815260200190815260200160002060020160009054906101000a900467ffffffffffffffff16915050919050565b600080600a836040518082805190602001908083835b6020831015156119c857805182526020820191506020810190506020830392506119a3565b6001836020036101000a038019825116818451168082178552505050505050905001915050908152602001604051809103902060009054906101000a900473ffffffffffffffffffffffffffffffffffffffff16905080915050919050565b6000600d826040518082805190602001908083835b602083101515611a615780518252602082019150602081019050602083039250611a3c565b6001836020036101000a038019825116818451168082178552505050505050905001915050908152602001604051809103902060009054906101000a900460ff169050919050565b60126020528060005260406000206000915090505481565b6000809054906101000a900473ffffffffffffffffffffffffffffffffffffffff1673ffffffffffffffffffffffffffffffffffffffff163373ffffffffffffffffffffffffffffffffffffffff16141515611b1c57600080fd5b60001515600760009054906101000a900460ff161515141515611b3e57600080fd5b6001600760006101000a81548160ff0219169083151502179055507f6985a02210a168e66602d3235cb6db0e70f92b3ba4d376a33c0f3d9434bff62560405160405180910390a1565b6000809054906101000a900473ffffffffffffffffffffffffffffffffffffffff1673ffffffffffffffffffffffffffffffffffffffff163373ffffffffffffffffffffffffffffffffffffffff16141515611be257600080fd5b6000809054906101000a900473ffffffffffffffffffffffffffffffffffffffff1673ffffffffffffffffffffffffffffffffffffffff166108fc3073ffffffffffffffffffffffffffffffffffffffff16319081150290604051600060405180830381858888f19350505050158015611c60573d6000803e3d6000fd5b50565b6000806000809054906101000a900473ffffffffffffffffffffffffffffffffffffffff1673ffffffffffffffffffffffffffffffffffffffff163373ffffffffffffffffffffffffffffffffffffffff16141515611cc157600080fd5b60001515600760009054906101000a900460ff161515141515611ce357600080fd5b60009150600090505b60048111158015611d01575060001515821515145b15611e67578273ffffffffffffffffffffffffffffffffffffffff16600182600581101515611d2c57fe5b0160009054906101000a900473ffffffffffffffffffffffffffffffffffffffff1673ffffffffffffffffffffffffffffffffffffffff161415611e5a576000600182600581101515611d7b57fe5b0160006101000a81548173ffffffffffffffffffffffffffffffffffffffff021916908373ffffffffffffffffffffffffffffffffffffffff1602179055506000600660008573ffffffffffffffffffffffffffffffffffffffff1673ffffffffffffffffffffffffffffffffffffffff16815260200190815260200160002060006101000a81548160ff021916908315150217905550600191508273ffffffffffffffffffffffffffffffffffffffff167fdca59b6371f7db6faad5c9931588f735722795c7b8ea859824e0afc8b2c70a4f60405160405180910390a25b8080600101915050611cec565b60011515821515141515611e7757fe5b505050565b600080600080600d856040518082805190602001908083835b602083101515611eba5780518252602082019150602081019050602083039250611e95565b6001836020036101000a038019825116818451168082178552505050505050905001915050908152602001604051809103902060009054906101000a900460ff161515611f0657600080fd5b600a856040518082805190602001908083835b602083101515611f3e5780518252602082019150602081019050602083039250611f19565b6001836020036101000a038019825116818451168082178552505050505050905001915050908152602001604051809103902060009054906101000a900473ffffffffffffffffffffffffffffffffffffffff169250600960008473ffffffffffffffffffffffffffffffffffffffff1673ffffffffffffffffffffffffffffffffffffffff168152602001908152602001600020915081600101600087815260200190815260200160002090508060020160089054906101000a900460ff16935050505092915050565b6000806000806000801515600760009054906101000a900460ff16151514151561203257600080fd5b600a866040518082805190602001908083835b60208310151561206a5780518252602082019150602081019050602083039250612045565b6001836020036101000a038019825116818451168082178552505050505050905001915050908152602001604051809103902060009054906101000a900473ffffffffffffffffffffffffffffffffffffffff169350600e60008573ffffffffffffffffffffffffffffffffffffffff1673ffffffffffffffffffffffffffffffffffffffff168152602001908152602001600020925061210b87876148e6565b945034915082600101600088815260200190815260200160002060000160009054906101000a90046fffffffffffffffffffffffffffffffff166fffffffffffffffffffffffffffffffff16821015151561216557600080fd5b61216f8483615031565b60028360010160008981526020019081526020016000206001018681548110151561219657fe5b90600052602060002090602091828204019190066101000a81548160ff021916908360038111156121c357fe5b021790555084601260003373ffffffffffffffffffffffffffffffffffffffff1673ffffffffffffffffffffffffffffffffffffffff16815260200190815260200160002081905550826001016000888152602001908152602001600020600201600081819054906101000a900467ffffffffffffffff16809291906001900391906101000a81548167ffffffffffffffff021916908367ffffffffffffffff1602179055505082600101600088815260200190815260200160002060020160009054906101000a900467ffffffffffffffff1690505050505092915050565b600b6020528060005260406000206000915054906101000a900460ff1681565b60008060009054906101000a900473ffffffffffffffffffffffffffffffffffffffff1673ffffffffffffffffffffffffffffffffffffffff163373ffffffffffffffffffffffffffffffffffffffff1614151561232057600080fd5b60001515600760009054906101000a900460ff16151514151561234257600080fd5b600073ffffffffffffffffffffffffffffffffffffffff168273ffffffffffffffffffffffffffffffffffffffff161415151561237e57600080fd5b6000809054906101000a900473ffffffffffffffffffffffffffffffffffffffff169050816000806101000a81548173ffffffffffffffffffffffffffffffffffffffff021916908373ffffffffffffffffffffffffffffffffffffffff1602179055508073ffffffffffffffffffffffffffffffffffffffff168273ffffffffffffffffffffffffffffffffffffffff167f1f8d7d25344642d919d55999e4664aa452a5f424bc0936ceb9c2b300db7dcbd960405160405180910390a35050565b601560009054906101000a900473ffffffffffffffffffffffffffffffffffffffff1681565b600080600e60008673ffffffffffffffffffffffffffffffffffffffff1673ffffffffffffffffffffffffffffffffffffffff1681526020019081526020016000209050600260038111156124b757fe5b816001016000868152602001908152602001600020600101848154811015156124dc57fe5b90600052602060002090602091828204019190069054906101000a900460ff16600381111561250757fe5b1415612516576001915061251b565b600091505b509392505050565b60008060006001851015801561253a575060058511155b151561254557600080fd5b600a846040518082805190602001908083835b60208310151561257d5780518252602082019150602081019050602083039250612558565b6001836020036101000a038019825116818451168082178552505050505050905001915050908152602001604051809103902060009054906101000a900473ffffffffffffffffffffffffffffffffffffffff169150600960008373ffffffffffffffffffffffffffffffffffffffff1673ffffffffffffffffffffffffffffffffffffffff168152602001908152602001600020905060006006111561265857806002018560068110151561262f57fe5b0160009054906101000a900473ffffffffffffffffffffffffffffffffffffffff16925061265d565b600092505b505092915050565b60008060008060009054906101000a900473ffffffffffffffffffffffffffffffffffffffff1673ffffffffffffffffffffffffffffffffffffffff163373ffffffffffffffffffffffffffffffffffffffff161415156126c557600080fd5b60001515600760009054906101000a900460ff1615151415156126e757600080fd5b600073ffffffffffffffffffffffffffffffffffffffff168473ffffffffffffffffffffffffffffffffffffffff161415151561272357600080fd5b5b6004831115156127ae578373ffffffffffffffffffffffffffffffffffffffff1660018460058110151561275457fe5b0160009054906101000a900473ffffffffffffffffffffffffffffffffffffffff1673ffffffffffffffffffffffffffffffffffffffff1614156127a357600260011415156127a257600080fd5b5b826001019250612724565b600091505b600481111580156127c8575060001515821515145b156129185760006001826005811015156127de57fe5b0160009054906101000a900473ffffffffffffffffffffffffffffffffffffffff1673ffffffffffffffffffffffffffffffffffffffff16141561290b578360018260058110151561282c57fe5b0160006101000a81548173ffffffffffffffffffffffffffffffffffffffff021916908373ffffffffffffffffffffffffffffffffffffffff1602179055506001600660008673ffffffffffffffffffffffffffffffffffffffff1673ffffffffffffffffffffffffffffffffffffffff16815260200190815260200160002060006101000a81548160ff021916908315150217905550600191508373ffffffffffffffffffffffffffffffffffffffff167f39e7d4b9ba48f55a740a5192809dbc498fa12724c030b37dab126a3f6774c0f360405160405180910390a25b80806001019150506127b3565b6001151582151514151561292857fe5b50505050565b60008060008060008060146000888152602001908152602001600020905061295581615131565b151561296057600080fd5b8060000160009054906101000a900473ffffffffffffffffffffffffffffffffffffffff168160010160009054906101000a90046fffffffffffffffffffffffffffffffff168260010160109054906101000a90046fffffffffffffffffffffffffffffffff168360020160009054906101000a900467ffffffffffffffff168460020160089054906101000a900467ffffffffffffffff16836fffffffffffffffffffffffffffffffff169350826fffffffffffffffffffffffffffffffff1692508167ffffffffffffffff1691508067ffffffffffffffff169050955095509550955095505091939590929450565b60008060008060008060001515600760009054906101000a900460ff161515141515612a7c57600080fd5b601460008981526020019081526020016000209450612a9a85615131565b1515612aa557600080fd5b349350612ab18561515f565b9250828410151515612ac257600080fd5b8460000160009054906101000a900473ffffffffffffffffffffffffffffffffffffffff169150612af288615252565b612afc8285615031565b600e60008373ffffffffffffffffffffffffffffffffffffffff1673ffffffffffffffffffffffffffffffffffffffff168152602001908152602001600020905060028160010160008981526020019081526020016000206001016000815481101515612b6557fe5b90600052602060002090602091828204019190066101000a81548160ff02191690836003811115612b9257fe5b02179055503373ffffffffffffffffffffffffffffffffffffffff16877f21b69e57dafb192d2fc9ec6fabee5106b55506c43564934190281e68e3fd43a8836000016040518080602001828103825283818154600181600116156101000203166002900481526020019150805460018160011615610100020316600290048015612c5d5780601f10612c3257610100808354040283529160200191612c5d565b820191906000526020600020905b815481529060010190602001808311612c4057829003601f168201915b50509250505060405180910390a37f4fcc30d90a842164dd58501ab874a101a3749c3d4747139cefe7c876f4ccebd2878433604051808481526020018381526020018273ffffffffffffffffffffffffffffffffffffffff1673ffffffffffffffffffffffffffffffffffffffff168152602001935050505060405180910390a1829550505050505092915050565b6000806000809054906101000a900473ffffffffffffffffffffffffffffffffffffffff1673ffffffffffffffffffffffffffffffffffffffff163373ffffffffffffffffffffffffffffffffffffffff161480612d9a575060011515600660003373ffffffffffffffffffffffffffffffffffffffff1673ffffffffffffffffffffffffffffffffffffffff16815260200190815260200160002060009054906101000a900460ff161515145b1515612da557600080fd5b600a836040518082805190602001908083835b602083101515612ddd5780518252602082019150602081019050602083039250612db8565b6001836020036101000a038019825116818451168082178552505050505050905001915050908152602001604051809103902060009054906101000a900473ffffffffffffffffffffffffffffffffffffffff16905060011515600b60008373ffffffffffffffffffffffffffffffffffffffff1673ffffffffffffffffffffffffffffffffffffffff16815260200190815260200160002060009054906101000a900460ff161515141515612e9257600080fd5b6000600d846040518082805190602001908083835b602083101515612ecc5780518252602082019150602081019050602083039250612ea7565b6001836020036101000a038019825116818451168082178552505050505050905001915050908152602001604051809103902060006101000a81548160ff0219169083151502179055506040805190810160405280600181526020017f3000000000000000000000000000000000000000000000000000000000000000815250600960008373ffffffffffffffffffffffffffffffffffffffff1673ffffffffffffffffffffffffffffffffffffffff1681526020019081526020016000206000019080519060200190612fa1929190615b77565b508073ffffffffffffffffffffffffffffffffffffffff167f70e9219a99e9bfc211e7aa1236b656ca826ba23e3e9e5cbdc2f16e0c7eb8fad9600960008473ffffffffffffffffffffffffffffffffffffffff1673ffffffffffffffffffffffffffffffffffffffff16815260200190815260200160002060000160405180806020018281038252838181546001816001161561010002031660029004815260200191508054600181600116156101000203166002900480156130a55780601f1061307a576101008083540402835291602001916130a5565b820191906000526020600020905b81548152906001019060200180831161308857829003601f168201915b50509250505060405180910390a26000600b60008373ffffffffffffffffffffffffffffffffffffffff1673ffffffffffffffffffffffffffffffffffffffff16815260200190815260200160002060006101000a81548160ff0219169083151502179055508073ffffffffffffffffffffffffffffffffffffffff167fe6547a945aa917d8f8b8a71a98062b03570c5ab79d6f47aa64dab5ae6483e0c860405160405180910390a2600b60008273ffffffffffffffffffffffffffffffffffffffff1673ffffffffffffffffffffffffffffffffffffffff16815260200190815260200160002060009054906101000a900460ff16915050919050565b6000801515600760009054906101000a900460ff1615151415156131c657600080fd5b600660008373ffffffffffffffffffffffffffffffffffffffff1673ffffffffffffffffffffffffffffffffffffffff16815260200190815260200160002060009054906101000a900460ff169050919050565b600760009054906101000a900460ff1681565b600080600e60008473ffffffffffffffffffffffffffffffffffffffff1673ffffffffffffffffffffffffffffffffffffffff168152602001908152602001600020905080600101600080815260200190815260200160002060000160009054906101000a90046fffffffffffffffffffffffffffffffff16915050919050565b6000806014600084815260200190815260200160002060020160089054906101000a900467ffffffffffffffff1667ffffffffffffffff1690506000811415156132fb57600191506132fc565b5b50919050565b60008060001515600760009054906101000a900460ff16151514151561332757600080fd5b6000600e60003373ffffffffffffffffffffffffffffffffffffffff1673ffffffffffffffffffffffffffffffffffffffff1681526020019081526020016000209050600d8160000160405180828054600181600116156101000203166002900480156133cb5780601f106133a95761010080835404028352918201916133cb565b820191906000526020600020905b8154815290600101906020018083116133b7575b5050915050908152602001604051809103902060009054906101000a900460ff1615156133f757600080fd5b600e60003373ffffffffffffffffffffffffffffffffffffffff1673ffffffffffffffffffffffffffffffffffffffff16815260200190815260200160002091506002600381111561344557fe5b8260010160008681526020019081526020016000206001018681548110151561346a57fe5b90600052602060002090602091828204019190069054906101000a900460ff16600381111561349557fe5b1415156134a157600080fd5b600092506003826001016000868152602001908152602001600020600101868154811015156134cc57fe5b90600052602060002090602091828204019190066101000a81548160ff021916908360038111156134f957fe5b02179055506001925083857f8c27a03ba49022d57890c2993ba9a892600fe4449c319742d4cfc8afe51b541d8460000160405180806020018281038252838181546001816001161561010002031660029004815260200191508054600181600116156101000203166002900480156135b25780601f10613587576101008083540402835291602001916135b2565b820191906000526020600020905b81548152906001019060200180831161359557829003601f168201915b50509250505060405180910390a361365d600a8360000160405180828054600181600116156101000203166002900480156136245780601f10613602576101008083540402835291820191613624565b820191906000526020600020905b815481529060010190602001808311613610575b5050915050908152602001604051809103902060009054906101000a900473ffffffffffffffffffffffffffffffffffffffff1661530e565b505092915050565b600080613670615bf7565b6000801515600760009054906101000a900460ff16151514151561369357600080fd5b6000600e60003373ffffffffffffffffffffffffffffffffffffffff1673ffffffffffffffffffffffffffffffffffffffff1681526020019081526020016000209050600d8160000160405180828054600181600116156101000203166002900480156137375780601f10613715576101008083540402835291820191613737565b820191906000526020600020905b815481529060010190602001808311613723575b5050915050908152602001604051809103902060009054906101000a900460ff16151561376357600080fd5b600e60003373ffffffffffffffffffffffffffffffffffffffff1673ffffffffffffffffffffffffffffffffffffffff1681526020019081526020016000209350608060405190810160405280886fffffffffffffffffffffffffffffffff16815260200160006040519080825280602002602001820160405280156137f85781602001602082028038833980820191505090505b5081526020018767ffffffffffffffff168152602001600015158152509250836008015494508284600101600087815260200190815260200160002060008201518160000160006101000a8154816fffffffffffffffffffffffffffffffff02191690836fffffffffffffffffffffffffffffffff160217905550602082015181600101908051906020019061388f929190615c3e565b5060408201518160020160006101000a81548167ffffffffffffffff021916908367ffffffffffffffff16021790555060608201518160020160086101000a81548160ff0219169083151502179055509050506001601060008660080154815260200190815260200160002060006101000a81548160ff02191690831515021790555083600801600081548092919060010191905055505b8567ffffffffffffffff168210156139ad578360010160008681526020019081526020016000206001016000908060018154018082558091505090600182039060005260206000209060209182820401919006909192909190916101000a81548160ff0219169083600381111561399a57fe5b0217905550508180600101925050613927565b8494505050505092915050565b6000601260008373ffffffffffffffffffffffffffffffffffffffff1673ffffffffffffffffffffffffffffffffffffffff168152602001908152602001600020549050919050565b6000809054906101000a900473ffffffffffffffffffffffffffffffffffffffff1673ffffffffffffffffffffffffffffffffffffffff163373ffffffffffffffffffffffffffffffffffffffff161480613aae575060011515600660003373ffffffffffffffffffffffffffffffffffffffff1673ffffffffffffffffffffffffffffffffffffffff16815260200190815260200160002060009054906101000a900460ff161515145b1515613ab957600080fd5b60001515600760009054906101000a900460ff161515141515613adb57600080fd5b60001515600b60008473ffffffffffffffffffffffffffffffffffffffff1673ffffffffffffffffffffffffffffffffffffffff16815260200190815260200160002060009054906101000a900460ff161515141515613b3a57600080fd5b6001600b60008473ffffffffffffffffffffffffffffffffffffffff1673ffffffffffffffffffffffffffffffffffffffff16815260200190815260200160002060006101000a81548160ff021916908315150217905550613b9c82826153e6565b508173ffffffffffffffffffffffffffffffffffffffff167f64a6cb4c2615e9c9ee211131f9fc94aaa6238a3c255423b75ba43ef01ca42dcd60405160405180910390a25050565b6000806000600960003373ffffffffffffffffffffffffffffffffffffffff1673ffffffffffffffffffffffffffffffffffffffff1681526020019081526020016000209050600d816000016040518082805460018160011615610100020316600290048015613c8b5780601f10613c69576101008083540402835291820191613c8b565b820191906000526020600020905b815481529060010190602001808311613c77575b5050915050908152602001604051809103902060009054906101000a900460ff161515613cb757600080fd5b60001515600760009054906101000a900460ff161515141515613cd957600080fd5b600e60003373ffffffffffffffffffffffffffffffffffffffff1673ffffffffffffffffffffffffffffffffffffffff16815260200190815260200160002091506000856fffffffffffffffffffffffffffffffff1610151515613d3c57600080fd5b6000151582600101600086815260200190815260200160002060020160089054906101000a900460ff161515141515613d7457600080fd5b8482600101600086815260200190815260200160002060000160006101000a8154816fffffffffffffffffffffffffffffffff02191690836fffffffffffffffffffffffffffffffff160217905550849250505092915050565b6000806000806000600e60003373ffffffffffffffffffffffffffffffffffffffff1673ffffffffffffffffffffffffffffffffffffffff1681526020019081526020016000209050600d816000016040518082805460018160011615610100020316600290048015613e785780601f10613e56576101008083540402835291820191613e78565b820191906000526020600020905b815481529060010190602001808311613e64575b5050915050908152602001604051809103902060009054906101000a900460ff161515613ea457600080fd5b60001515600760009054906101000a900460ff161515141515613ec657600080fd5b600e60003373ffffffffffffffffffffffffffffffffffffffff1673ffffffffffffffffffffffffffffffffffffffff16815260200190815260200160002093508584600101600089815260200190815260200160002060020160008282829054906101000a900467ffffffffffffffff160192506101000a81548167ffffffffffffffff021916908367ffffffffffffffff16021790555083600101600088815260200190815260200160002060020160089054906101000a900460ff16925060001515831515141515613f9a57600080fd5b5b8567ffffffffffffffff16821015614021578360010160008881526020019081526020016000206001016000908060018154018082558091505090600182039060005260206000209060209182820401919006909192909190916101000a81548160ff0219169083600381111561400e57fe5b0217905550508180600101925050613f9b565b867fdb3cb3bd3aa8b0116684a1673c77eb69da47689f478ec18c9b1b42042bff3ebc8560010160008a815260200190815260200160002060020160009054906101000a900467ffffffffffffffff16604051808267ffffffffffffffff1667ffffffffffffffff16815260200191505060405180910390a283600101600088815260200190815260200160002060020160009054906101000a900467ffffffffffffffff1694505050505092915050565b600080600e60008673ffffffffffffffffffffffffffffffffffffffff1673ffffffffffffffffffffffffffffffffffffffff168152602001908152602001600020905060038081111561412257fe5b8160010160008581526020019081526020016000206001018581548110151561414757fe5b90600052602060002090602091828204019190069054906101000a900460ff16600381111561417257fe5b14156141815760019150614186565b600091505b509392505050565b600c6020528060005260406000206000915054906101000a900460ff1681565b6000806000801515600760009054906101000a900460ff1615151415156141d457600080fd5b6000600e60003373ffffffffffffffffffffffffffffffffffffffff1673ffffffffffffffffffffffffffffffffffffffff1681526020019081526020016000209050600d8160000160405180828054600181600116156101000203166002900480156142785780601f10614256576101008083540402835291820191614278565b820191906000526020600020905b815481529060010190602001808311614264575b5050915050908152602001604051809103902060009054906101000a900460ff1615156142a457600080fd5b600e60003373ffffffffffffffffffffffffffffffffffffffff1673ffffffffffffffffffffffffffffffffffffffff168152602001908152602001600020935060009250600191505b60058211158015614303575060001515831515145b15614414576000846002018360068110151561431b57fe5b0160009054906101000a900473ffffffffffffffffffffffffffffffffffffffff1673ffffffffffffffffffffffffffffffffffffffff1614156144075784846002018360068110151561436b57fe5b0160006101000a81548173ffffffffffffffffffffffffffffffffffffffff021916908373ffffffffffffffffffffffffffffffffffffffff160217905550600192506001600f60008773ffffffffffffffffffffffffffffffffffffffff1673ffffffffffffffffffffffffffffffffffffffff16815260200190815260200160002060006101000a81548160ff0219169083151502179055505b81806001019250506142ee565b6001151583151514151561442457fe5b5050505050565b60008060146000848152602001908152602001600020905061444c81615131565b151561445757600080fd5b6144608161515f565b915050919050565b600080600080858510151561447f5786935061449d565b87870392508585840281151561449157fe5b05915081880190508093505b505050949350505050565b6000806144b3615bf7565b600080600080600e60003373ffffffffffffffffffffffffffffffffffffffff1673ffffffffffffffffffffffffffffffffffffffff1681526020019081526020016000209050600d81600001604051808280546001816001161561010002031660029004801561455b5780601f1061453957610100808354040283529182019161455b565b820191906000526020600020905b815481529060010190602001808311614547575b5050915050908152602001604051809103902060009054906101000a900460ff16151561458757600080fd5b60001515600760009054906101000a900460ff1615151415156145a957600080fd5b600e60003373ffffffffffffffffffffffffffffffffffffffff1673ffffffffffffffffffffffffffffffffffffffff16815260200190815260200160002095506080604051908101604052808b6fffffffffffffffffffffffffffffffff168152602001600060405190808252806020026020018201604052801561463e5781602001602082028038833980820191505090505b508152602001600167ffffffffffffffff168152602001600115158152509450856008015493508486600101600086815260200190815260200160002060008201518160000160006101000a8154816fffffffffffffffffffffffffffffffff02191690836fffffffffffffffffffffffffffffffff16021790555060208201518160010190805190602001906146d6929190615c3e565b5060408201518160020160006101000a81548167ffffffffffffffff021916908367ffffffffffffffff16021790555060608201518160020160086101000a81548160ff02191690831515021790555090505060018660080160008282540192505081905550600a86600001604051808280546001816001161561010002031660029004801561479d5780601f1061477b57610100808354040283529182019161479d565b820191906000526020600020905b815481529060010190602001808311614789575b5050915050908152602001604051809103902060009054906101000a900473ffffffffffffffffffffffffffffffffffffffff1692508560010160008581526020019081526020016000206001016001908060018154018082558091505090600182039060005260206000209060209182820401919006909192909190916101000a81548160ff0219169083600381111561483457fe5b02179055505060135491506001601354016013819055506148628a8a8a67ffffffffffffffff1686866158de565b8696505050505050509392505050565b600080600e60008473ffffffffffffffffffffffffffffffffffffffff1673ffffffffffffffffffffffffffffffffffffffff1681526020019081526020016000209050601060006001836008015403815260200190815260200160002060009054906101000a900460ff16915050919050565b60008060008060008060009450600a876040518082805190602001908083835b60208310151561492b5780518252602082019150602081019050602083039250614906565b6001836020036101000a038019825116818451168082178552505050505050905001915050908152602001604051809103902060009054906101000a900473ffffffffffffffffffffffffffffffffffffffff169250600e60008473ffffffffffffffffffffffffffffffffffffffff1673ffffffffffffffffffffffffffffffffffffffff16815260200190815260200160002091505b81600101600089815260200190815260200160002060010180549050811080156149f1575060001515851515145b15614a6e5760006003811115614a0357fe5b8260010160008a815260200190815260200160002060010182815481101515614a2857fe5b90600052602060002090602091828204019190069054906101000a900460ff166003811115614a5357fe5b1415614a6157809350600194505b80806001019150506149c3565b60011515851515141515614a7e57fe5b839550505050505092915050565b60008060009054906101000a900473ffffffffffffffffffffffffffffffffffffffff1673ffffffffffffffffffffffffffffffffffffffff163373ffffffffffffffffffffffffffffffffffffffff16141515614ae957600080fd5b81905080601160006101000a81548173ffffffffffffffffffffffffffffffffffffffff021916908373ffffffffffffffffffffffffffffffffffffffff1602179055505050565b6000600880549050905090565b601160009054906101000a900473ffffffffffffffffffffffffffffffffffffffff1681565b6000809054906101000a900473ffffffffffffffffffffffffffffffffffffffff1681565b600181600581101515614b9857fe5b016000915054906101000a900473ffffffffffffffffffffffffffffffffffffffff1681565b6000809054906101000a900473ffffffffffffffffffffffffffffffffffffffff1673ffffffffffffffffffffffffffffffffffffffff163373ffffffffffffffffffffffffffffffffffffffff16141515614c1957600080fd5b60011515600760009054906101000a900460ff161515141515614c3b57600080fd5b6000600760006101000a81548160ff0219169083151502179055507f7805862f689e2f13df9f062ff482ad3ad112aca9e0847911ed832e158c525b3360405160405180910390a1565b600080600080600960003373ffffffffffffffffffffffffffffffffffffffff1673ffffffffffffffffffffffffffffffffffffffff1681526020019081526020016000209050600d816000016040518082805460018160011615610100020316600290048015614d2c5780601f10614d0a576101008083540402835291820191614d2c565b820191906000526020600020905b815481529060010190602001808311614d18575b5050915050908152602001604051809103902060009054906101000a900460ff161515614d5857600080fd5b60001515600760009054906101000a900460ff161515141515614d7a57600080fd5b600e60003373ffffffffffffffffffffffffffffffffffffffff1673ffffffffffffffffffffffffffffffffffffffff168152602001908152602001600020935060009250600191505b60058211158015614dd9575060001515831515145b15614f00578473ffffffffffffffffffffffffffffffffffffffff168460020183600681101515614e0657fe5b0160009054906101000a900473ffffffffffffffffffffffffffffffffffffffff1673ffffffffffffffffffffffffffffffffffffffff161415614ef35760008460020183600681101515614e5757fe5b0160006101000a81548173ffffffffffffffffffffffffffffffffffffffff021916908373ffffffffffffffffffffffffffffffffffffffff160217905550600192506000600f60008773ffffffffffffffffffffffffffffffffffffffff1673ffffffffffffffffffffffffffffffffffffffff16815260200190815260200160002060006101000a81548160ff0219169083151502179055505b8180600101925050614dc4565b60011515831515141515614f1057fe5b5050505050565b60606000806000600880549050141515614ff157600884815481101515614f3a57fe5b90600052602060002090600902019150816000019050808054600181600116156101000203166002900480601f016020809104026020016040519081016040528092919081815260200182805460018160011615610100020316600290048015614fe55780601f10614fba57610100808354040283529160200191614fe5565b820191906000526020600020905b815481529060010190602001808311614fc857829003601f168201915b5050505050925061502a565b6040805190810160405280600181526020017f300000000000000000000000000000000000000000000000000000000000000081525092505b5050919050565b803073ffffffffffffffffffffffffffffffffffffffff16311015151561505757600080fd5b601160009054906101000a900473ffffffffffffffffffffffffffffffffffffffff1673ffffffffffffffffffffffffffffffffffffffff1663f340fa0182846040518363ffffffff167c0100000000000000000000000000000000000000000000000000000000028152600401808273ffffffffffffffffffffffffffffffffffffffff1673ffffffffffffffffffffffffffffffffffffffff1681526020019150506000604051808303818588803b15801561511457600080fd5b505af1158015615128573d6000803e3d6000fd5b50505050505050565b6000808260020160089054906101000a900467ffffffffffffffff1667ffffffffffffffff16119050919050565b600080600090508260020160089054906101000a900467ffffffffffffffff1667ffffffffffffffff164211156151b8578260020160089054906101000a900467ffffffffffffffff1667ffffffffffffffff16420390505b61524a8360010160009054906101000a90046fffffffffffffffffffffffffffffffff166fffffffffffffffffffffffffffffffff168460010160109054906101000a90046fffffffffffffffffffffffffffffffff166fffffffffffffffffffffffffffffffff168560020160009054906101000a900467ffffffffffffffff1667ffffffffffffffff1684614468565b915050919050565b60146000828152602001908152602001600020600080820160006101000a81549073ffffffffffffffffffffffffffffffffffffffff02191690556001820160006101000a8154906fffffffffffffffffffffffffffffffff02191690556001820160106101000a8154906fffffffffffffffffffffffffffffffff02191690556002820160006101000a81549067ffffffffffffffff02191690556002820160086101000a81549067ffffffffffffffff0219169055505050565b601160009054906101000a900473ffffffffffffffffffffffffffffffffffffffff1673ffffffffffffffffffffffffffffffffffffffff166351cff8d9826040518263ffffffff167c0100000000000000000000000000000000000000000000000000000000028152600401808273ffffffffffffffffffffffffffffffffffffffff1673ffffffffffffffffffffffffffffffffffffffff168152602001915050600060405180830381600087803b1580156153cb57600080fd5b505af11580156153df573d6000803e3d6000fd5b5050505050565b60606153f0615ced565b6153f8615d10565b60001515600760009054906101000a900460ff16151514151561541a57600080fd5b60011515600b60008773ffffffffffffffffffffffffffffffffffffffff1673ffffffffffffffffffffffffffffffffffffffff16815260200190815260200160002060009054906101000a900460ff16151514151561547957600080fd5b60001515600c60008773ffffffffffffffffffffffffffffffffffffffff1673ffffffffffffffffffffffffffffffffffffffff16815260200190815260200160002060009054906101000a900460ff1615151415156154d857600080fd5b60001515600d856040518082805190602001908083835b60208310151561551457805182526020820191506020810190506020830392506154ef565b6001836020036101000a038019825116818451168082178552505050505050905001915050908152602001604051809103902060009054906101000a900460ff16151514151561556357600080fd5b6060604051908101604052808581526020018381526020016000815250905080600960008773ffffffffffffffffffffffffffffffffffffffff1673ffffffffffffffffffffffffffffffffffffffff16815260200190815260200160002060008201518160000190805190602001906155de929190615d39565b506020820151816002019060066155f6929190615db9565b506040820151816008015590505084600a82600001516040518082805190602001908083835b602083101515615641578051825260208201915060208101905060208303925061561c565b6001836020036101000a038019825116818451168082178552505050505050905001915050908152602001604051809103902060006101000a81548173ffffffffffffffffffffffffffffffffffffffff021916908373ffffffffffffffffffffffffffffffffffffffff1602179055506001600d82600001516040518082805190602001908083835b6020831015156156f057805182526020820191506020810190506020830392506156cb565b6001836020036101000a038019825116818451168082178552505050505050905001915050908152602001604051809103902060006101000a81548160ff021916908315150217905550848160200151600060068110151561574e57fe5b602002019073ffffffffffffffffffffffffffffffffffffffff16908173ffffffffffffffffffffffffffffffffffffffff168152505080600e60008773ffffffffffffffffffffffffffffffffffffffff1673ffffffffffffffffffffffffffffffffffffffff16815260200190815260200160002060008201518160000190805190602001906157e1929190615d39565b506020820151816002019060066157f9929190615db9565b50604082015181600801559050506001600c60008773ffffffffffffffffffffffffffffffffffffffff1673ffffffffffffffffffffffffffffffffffffffff16815260200190815260200160002060006101000a81548160ff0219169083151502179055506008819080600181540180825580915050906001820390600052602060002090600902016000909192909190915060008201518160000190805190602001906158a9929190615d39565b506020820151816002019060066158c1929190615db9565b506040820151816008015550505080600001519250505092915050565b6158e6615e36565b60001515600760009054906101000a900460ff16151514151561590857600080fd5b60a0604051908101604052808473ffffffffffffffffffffffffffffffffffffffff168152602001876fffffffffffffffffffffffffffffffff168152602001866fffffffffffffffffffffffffffffffff1681526020018567ffffffffffffffff1681526020014267ffffffffffffffff16815250905061598a8282615992565b505050505050565b603c816060015167ffffffffffffffff16101515156159b057600080fd5b806014600084815260200190815260200160002060008201518160000160006101000a81548173ffffffffffffffffffffffffffffffffffffffff021916908373ffffffffffffffffffffffffffffffffffffffff16021790555060208201518160010160006101000a8154816fffffffffffffffffffffffffffffffff02191690836fffffffffffffffffffffffffffffffff16021790555060408201518160010160106101000a8154816fffffffffffffffffffffffffffffffff02191690836fffffffffffffffffffffffffffffffff16021790555060608201518160020160006101000a81548167ffffffffffffffff021916908367ffffffffffffffff16021790555060808201518160020160086101000a81548167ffffffffffffffff021916908367ffffffffffffffff1602179055509050507fa9c8dfcda5664a5a124c713e386da27de87432d5b668e79458501eb296389ba78282602001516fffffffffffffffffffffffffffffffff1683604001516fffffffffffffffffffffffffffffffff16846060015167ffffffffffffffff166040518085815260200184815260200183815260200182815260200194505050505060405180910390a15050565b828054600181600116156101000203166002900490600052602060002090601f016020900481019282601f10615bb857805160ff1916838001178555615be6565b82800160010185558215615be6579182015b82811115615be5578251825591602001919060010190615bca565b5b509050615bf39190615eb4565b5090565b60806040519081016040528060006fffffffffffffffffffffffffffffffff16815260200160608152602001600067ffffffffffffffff1681526020016000151581525090565b82805482825590600052602060002090601f01602090048101928215615cdc5791602002820160005b83821115615cad57835183826101000a81548160ff02191690836003811115615c8c57fe5b02179055509260200192600101602081600001049283019260010302615c67565b8015615cda5782816101000a81549060ff0219169055600101602081600001049283019260010302615cad565b505b509050615ce99190615ed9565b5090565b60c060405190810160405280600690602082028038833980820191505090505090565b6101006040519081016040528060608152602001615d2c615f09565b8152602001600081525090565b828054600181600116156101000203166002900490600052602060002090601f016020900481019282601f10615d7a57805160ff1916838001178555615da8565b82800160010185558215615da8579182015b82811115615da7578251825591602001919060010190615d8c565b5b509050615db59190615eb4565b5090565b8260068101928215615e25579160200282015b82811115615e245782518260006101000a81548173ffffffffffffffffffffffffffffffffffffffff021916908373ffffffffffffffffffffffffffffffffffffffff16021790555091602001919060010190615dcc565b5b509050615e329190615f2c565b5090565b60a060405190810160405280600073ffffffffffffffffffffffffffffffffffffffff16815260200160006fffffffffffffffffffffffffffffffff16815260200160006fffffffffffffffffffffffffffffffff168152602001600067ffffffffffffffff168152602001600067ffffffffffffffff1681525090565b615ed691905b80821115615ed2576000816000905550600101615eba565b5090565b90565b615f0691905b80821115615f0257600081816101000a81549060ff021916905550600101615edf565b5090565b90565b60c060405190810160405280600690602082028038833980820191505090505090565b615f6c91905b80821115615f6857600081816101000a81549073ffffffffffffffffffffffffffffffffffffffff021916905550600101615f32565b5090565b905600a165627a7a72305820f6c187e75f6f10eb1c3c84d2cb359000281ab3bcdb811ec0f3c2f880164c2aeb0029",
  "source": "pragma solidity ^0.4.24;\n\nimport \"./StoreAuction.sol\";\n\n/**\n  * @dev This contract represents a store in the Maat's network of stores. It\n  * is deployed from the StoreFactory contract\n  * @author Eric Brown (https://github.com/ericbrown99)\n  */\n\n  contract StoreCore is StoreAuction {\n    /*  Needs to be implemented:\n        - This is the core contract which manages all of the subcontracts. Use\n          this contract to create the constructor and implement upgradable\n          design patterns\n        - Manage\n        - Lookup function to find the addreses of owners associated with stores so\n          that Maats leadership can act on stores which aren't active\n    */\n\n    // For upgradeability\n    address public newContractAddress;\n    // emit event if funds donated to contract (don't take cut of sales)\n    event LogFundsReceived(address indexed _sender,uint _value);\n\n    /// @dev set the pause vaiable to true when creating the contract. THe owner\n    /// must ensure that the proper escrow contract is linked to the contract\n    /// and that the proxy has connected to the contract before unpausing the\n    /// contract as a security measure.\n\n    constructor() public{\n      pause = true;\n      maatsOwner == msg.sender;\n    }\n\n    /// @dev Fall back function with donations allowed\n    function() external payable{\n      if (msg.value >= 0){\n        emit LogFundsReceived(msg.sender, msg.value);\n      }\n    }\n\n\n    /// @dev Allows us to see the properties of a product\n    function getProduct(string _storeName, uint productId)\n      public\n      view\n      returns(\n        uint128 _price,\n        uint64 _inventory,\n        bool _auction\n        ){\n          address _owner = StoreNameToOwner[_storeName];\n          Store storage _store = OwnerToStore[_owner];\n          Product storage _product = _store.products[productId];\n          _price = _product.price;\n          _inventory = _product.inventory;\n          _auction = _product.auction;\n        }\n\n\n  }\n",
  "sourcePath": "/Users/ericbrown/Documents/Blockchain/ConsenSysCourse/GitHub/Maats/contracts/StoreCore.sol",
  "compiler": {
    "name": "solc",
    "version": "0.4.24+commit.e67f0147.Emscripten.clang"
  },
  "schemaVersion": "2.0.1",
  "updatedAt": "2018-08-15T00:56:35.569Z"
}