{
  "contractName": "StoreBase",
  "abi": [
    {
      "constant": true,
      "inputs": [
        {
          "name": "",
          "type": "address"
        }
      ],
      "name": "OwnerToStore",
      "outputs": [
        {
          "name": "storeName",
          "type": "string"
        },
        {
          "name": "prodCount",
          "type": "uint256"
        }
      ],
      "payable": false,
      "stateMutability": "view",
      "type": "function"
    },
    {
      "constant": false,
      "inputs": [],
      "name": "_pause",
      "outputs": [],
      "payable": false,
      "stateMutability": "nonpayable",
      "type": "function"
    },
    {
      "constant": false,
      "inputs": [],
      "name": "withdraw",
      "outputs": [],
      "payable": false,
      "stateMutability": "nonpayable",
      "type": "function"
    },
    {
      "constant": false,
      "inputs": [
        {
          "name": "_revokedAdmin",
          "type": "address"
        }
      ],
      "name": "removeMaatsAdmin",
      "outputs": [],
      "payable": false,
      "stateMutability": "nonpayable",
      "type": "function"
    },
    {
      "constant": true,
      "inputs": [
        {
          "name": "",
          "type": "address"
        }
      ],
      "name": "isStoreOwner",
      "outputs": [
        {
          "name": "",
          "type": "bool"
        }
      ],
      "payable": false,
      "stateMutability": "view",
      "type": "function"
    },
    {
      "constant": false,
      "inputs": [
        {
          "name": "_newOwner",
          "type": "address"
        }
      ],
      "name": "setMaatsOwner",
      "outputs": [],
      "payable": false,
      "stateMutability": "nonpayable",
      "type": "function"
    },
    {
      "constant": false,
      "inputs": [
        {
          "name": "_newAdmin",
          "type": "address"
        }
      ],
      "name": "createMaatsAdmin",
      "outputs": [],
      "payable": false,
      "stateMutability": "nonpayable",
      "type": "function"
    },
    {
      "constant": true,
      "inputs": [
        {
          "name": "_admin",
          "type": "address"
        }
      ],
      "name": "getIsAdmin",
      "outputs": [
        {
          "name": "",
          "type": "bool"
        }
      ],
      "payable": false,
      "stateMutability": "view",
      "type": "function"
    },
    {
      "constant": true,
      "inputs": [],
      "name": "pause",
      "outputs": [
        {
          "name": "",
          "type": "bool"
        }
      ],
      "payable": false,
      "stateMutability": "view",
      "type": "function"
    },
    {
      "constant": true,
      "inputs": [
        {
          "name": "",
          "type": "address"
        }
      ],
      "name": "createdStore",
      "outputs": [
        {
          "name": "",
          "type": "bool"
        }
      ],
      "payable": false,
      "stateMutability": "view",
      "type": "function"
    },
    {
      "constant": true,
      "inputs": [],
      "name": "maatsOwner",
      "outputs": [
        {
          "name": "",
          "type": "address"
        }
      ],
      "payable": false,
      "stateMutability": "view",
      "type": "function"
    },
    {
      "constant": true,
      "inputs": [
        {
          "name": "",
          "type": "uint256"
        }
      ],
      "name": "maatsAdmins",
      "outputs": [
        {
          "name": "",
          "type": "address"
        }
      ],
      "payable": false,
      "stateMutability": "view",
      "type": "function"
    },
    {
      "constant": false,
      "inputs": [],
      "name": "_unpause",
      "outputs": [],
      "payable": false,
      "stateMutability": "nonpayable",
      "type": "function"
    },
    {
      "anonymous": false,
      "inputs": [
        {
          "indexed": true,
          "name": "_ownerAddress",
          "type": "address"
        },
        {
          "indexed": true,
          "name": "_newStoreName",
          "type": "string"
        }
      ],
      "name": "LogNewStore",
      "type": "event"
    },
    {
      "anonymous": false,
      "inputs": [
        {
          "indexed": true,
          "name": "_storeOwnerAddress",
          "type": "address"
        }
      ],
      "name": "LogNewStoreOwner",
      "type": "event"
    },
    {
      "anonymous": false,
      "inputs": [
        {
          "indexed": true,
          "name": "_storeOwner",
          "type": "address"
        }
      ],
      "name": "LogStoreOwnerRemoved",
      "type": "event"
    },
    {
      "anonymous": false,
      "inputs": [
        {
          "indexed": true,
          "name": "_ownerAddress",
          "type": "address"
        },
        {
          "indexed": false,
          "name": "_oldStoreName",
          "type": "string"
        }
      ],
      "name": "LogStoreClosed",
      "type": "event"
    },
    {
      "anonymous": false,
      "inputs": [
        {
          "indexed": true,
          "name": "previousOwner",
          "type": "address"
        },
        {
          "indexed": true,
          "name": "newOwner",
          "type": "address"
        }
      ],
      "name": "LogNewOwner",
      "type": "event"
    },
    {
      "anonymous": false,
      "inputs": [
        {
          "indexed": true,
          "name": "newAdmin",
          "type": "address"
        }
      ],
      "name": "LogNewAdmin",
      "type": "event"
    },
    {
      "anonymous": false,
      "inputs": [
        {
          "indexed": true,
          "name": "revokedAdmin",
          "type": "address"
        }
      ],
      "name": "LogAdminRevoked",
      "type": "event"
    },
    {
      "anonymous": false,
      "inputs": [],
      "name": "Pause",
      "type": "event"
    },
    {
      "anonymous": false,
      "inputs": [],
      "name": "Unpause",
      "type": "event"
    },
    {
      "constant": true,
      "inputs": [
        {
          "name": "_storeName",
          "type": "string"
        }
      ],
      "name": "getStoreExists",
      "outputs": [
        {
          "name": "",
          "type": "bool"
        }
      ],
      "payable": false,
      "stateMutability": "view",
      "type": "function"
    },
    {
      "constant": false,
      "inputs": [
        {
          "name": "_newOwner",
          "type": "address"
        },
        {
          "name": "_storeName",
          "type": "string"
        }
      ],
      "name": "makeStoreOwner",
      "outputs": [],
      "payable": false,
      "stateMutability": "nonpayable",
      "type": "function"
    },
    {
      "constant": false,
      "inputs": [
        {
          "name": "_storeName",
          "type": "string"
        }
      ],
      "name": "removeStoreOwner",
      "outputs": [
        {
          "name": "",
          "type": "bool"
        }
      ],
      "payable": false,
      "stateMutability": "nonpayable",
      "type": "function"
    },
    {
      "constant": true,
      "inputs": [
        {
          "name": "i",
          "type": "uint256"
        }
      ],
      "name": "getStoreName",
      "outputs": [
        {
          "name": "",
          "type": "string"
        }
      ],
      "payable": false,
      "stateMutability": "view",
      "type": "function"
    },
    {
      "constant": true,
      "inputs": [],
      "name": "getNumStores",
      "outputs": [
        {
          "name": "",
          "type": "uint256"
        }
      ],
      "payable": false,
      "stateMutability": "view",
      "type": "function"
    }
  ],
  "bytecode": "0x6080604052336000806101000a81548173ffffffffffffffffffffffffffffffffffffffff021916908373ffffffffffffffffffffffffffffffffffffffff160217905550612192806100536000396000f3006080604052600436106100fc576000357c0100000000000000000000000000000000000000000000000000000000900463ffffffff1680631ab63af8146101015780632fa8cfac146101c4578063320b2ad9146102455780633ccfd60b1461025c57806340f42c1c146102735780635effd33c146102b65780635f7d53a11461031157806378678a3214610354578063803360b614610397578063822b0ceb146104185780638456cb5914610473578063a6bb52e2146104a2578063bd9cf58e1461052b578063e20df13814610586578063e698f0bb146105b1578063f0e06e4a14610608578063fc8234cb14610675578063fed489491461068c575b600080fd5b34801561010d57600080fd5b50610142600480360381019080803573ffffffffffffffffffffffffffffffffffffffff169060200190929190505050610732565b6040518080602001838152602001828103825284818151815260200191508051906020019080838360005b8381101561018857808201518184015260208101905061016d565b50505050905090810190601f1680156101b55780820380516001836020036101000a031916815260200191505b50935050505060405180910390f35b3480156101d057600080fd5b5061022b600480360381019080803590602001908201803590602001908080601f01602080910402602001604051908101604052809392919081815260200183838082843782019150505050505091929192905050506107ee565b604051808215151515815260200191505060405180910390f35b34801561025157600080fd5b5061025a610870565b005b34801561026857600080fd5b50610271610936565b005b34801561027f57600080fd5b506102b4600480360381019080803573ffffffffffffffffffffffffffffffffffffffff169060200190929190505050610a12565b005b3480156102c257600080fd5b506102f7600480360381019080803573ffffffffffffffffffffffffffffffffffffffff169060200190929190505050610c2b565b604051808215151515815260200191505060405180910390f35b34801561031d57600080fd5b50610352600480360381019080803573ffffffffffffffffffffffffffffffffffffffff169060200190929190505050610c4b565b005b34801561036057600080fd5b50610395600480360381019080803573ffffffffffffffffffffffffffffffffffffffff169060200190929190505050610dc8565b005b3480156103a357600080fd5b506103fe600480360381019080803590602001908201803590602001908080601f0160208091040260200160405190810160405280939291908181526020018383808284378201915050505050509192919290505050611091565b604051808215151515815260200191505060405180910390f35b34801561042457600080fd5b50610459600480360381019080803573ffffffffffffffffffffffffffffffffffffffff169060200190929190505050611548565b604051808215151515815260200191505060405180910390f35b34801561047f57600080fd5b506104886115bf565b604051808215151515815260200191505060405180910390f35b3480156104ae57600080fd5b50610529600480360381019080803573ffffffffffffffffffffffffffffffffffffffff169060200190929190803590602001908201803590602001908080601f01602080910402602001604051908101604052809392919081815260200183838082843782019150505050505091929192905050506115d2565b005b34801561053757600080fd5b5061056c600480360381019080803573ffffffffffffffffffffffffffffffffffffffff1690602001909291905050506117b3565b604051808215151515815260200191505060405180910390f35b34801561059257600080fd5b5061059b6117d3565b6040518082815260200191505060405180910390f35b3480156105bd57600080fd5b506105c66117e0565b604051808273ffffffffffffffffffffffffffffffffffffffff1673ffffffffffffffffffffffffffffffffffffffff16815260200191505060405180910390f35b34801561061457600080fd5b5061063360048036038101908080359060200190929190505050611805565b604051808273ffffffffffffffffffffffffffffffffffffffff1673ffffffffffffffffffffffffffffffffffffffff16815260200191505060405180910390f35b34801561068157600080fd5b5061068a61183a565b005b34801561069857600080fd5b506106b760048036038101908080359060200190929190505050611900565b6040518080602001828103825283818151815260200191508051906020019080838360005b838110156106f75780820151818401526020810190506106dc565b50505050905090810190601f1680156107245780820380516001836020036101000a031916815260200191505b509250505060405180910390f35b6009602052806000526040600020600091509050806000018054600181600116156101000203166002900480601f0160208091040260200160405190810160405280929190818152602001828054600181600116156101000203166002900480156107de5780601f106107b3576101008083540402835291602001916107de565b820191906000526020600020905b8154815290600101906020018083116107c157829003601f168201915b5050505050908060080154905082565b6000600d826040518082805190602001908083835b6020831015156108285780518252602082019150602081019050602083039250610803565b6001836020036101000a038019825116818451168082178552505050505050905001915050908152602001604051809103902060009054906101000a900460ff169050919050565b6000809054906101000a900473ffffffffffffffffffffffffffffffffffffffff1673ffffffffffffffffffffffffffffffffffffffff163373ffffffffffffffffffffffffffffffffffffffff161415156108cb57600080fd5b60001515600760009054906101000a900460ff1615151415156108ed57600080fd5b6001600760006101000a81548160ff0219169083151502179055507f6985a02210a168e66602d3235cb6db0e70f92b3ba4d376a33c0f3d9434bff62560405160405180910390a1565b6000809054906101000a900473ffffffffffffffffffffffffffffffffffffffff1673ffffffffffffffffffffffffffffffffffffffff163373ffffffffffffffffffffffffffffffffffffffff1614151561099157600080fd5b6000809054906101000a900473ffffffffffffffffffffffffffffffffffffffff1673ffffffffffffffffffffffffffffffffffffffff166108fc3073ffffffffffffffffffffffffffffffffffffffff16319081150290604051600060405180830381858888f19350505050158015610a0f573d6000803e3d6000fd5b50565b6000806000809054906101000a900473ffffffffffffffffffffffffffffffffffffffff1673ffffffffffffffffffffffffffffffffffffffff163373ffffffffffffffffffffffffffffffffffffffff16141515610a7057600080fd5b60001515600760009054906101000a900460ff161515141515610a9257600080fd5b60009150600090505b60048111158015610ab0575060001515821515145b15610c16578273ffffffffffffffffffffffffffffffffffffffff16600182600581101515610adb57fe5b0160009054906101000a900473ffffffffffffffffffffffffffffffffffffffff1673ffffffffffffffffffffffffffffffffffffffff161415610c09576000600182600581101515610b2a57fe5b0160006101000a81548173ffffffffffffffffffffffffffffffffffffffff021916908373ffffffffffffffffffffffffffffffffffffffff1602179055506000600660008573ffffffffffffffffffffffffffffffffffffffff1673ffffffffffffffffffffffffffffffffffffffff16815260200190815260200160002060006101000a81548160ff021916908315150217905550600191508273ffffffffffffffffffffffffffffffffffffffff167fdca59b6371f7db6faad5c9931588f735722795c7b8ea859824e0afc8b2c70a4f60405160405180910390a25b8080600101915050610a9b565b60011515821515141515610c2657fe5b505050565b600b6020528060005260406000206000915054906101000a900460ff1681565b60008060009054906101000a900473ffffffffffffffffffffffffffffffffffffffff1673ffffffffffffffffffffffffffffffffffffffff163373ffffffffffffffffffffffffffffffffffffffff16141515610ca857600080fd5b60001515600760009054906101000a900460ff161515141515610cca57600080fd5b600073ffffffffffffffffffffffffffffffffffffffff168273ffffffffffffffffffffffffffffffffffffffff1614151515610d0657600080fd5b6000809054906101000a900473ffffffffffffffffffffffffffffffffffffffff169050816000806101000a81548173ffffffffffffffffffffffffffffffffffffffff021916908373ffffffffffffffffffffffffffffffffffffffff1602179055508073ffffffffffffffffffffffffffffffffffffffff168273ffffffffffffffffffffffffffffffffffffffff167f1f8d7d25344642d919d55999e4664aa452a5f424bc0936ceb9c2b300db7dcbd960405160405180910390a35050565b60008060008060009054906101000a900473ffffffffffffffffffffffffffffffffffffffff1673ffffffffffffffffffffffffffffffffffffffff163373ffffffffffffffffffffffffffffffffffffffff16141515610e2857600080fd5b60001515600760009054906101000a900460ff161515141515610e4a57600080fd5b600073ffffffffffffffffffffffffffffffffffffffff168473ffffffffffffffffffffffffffffffffffffffff1614151515610e8657600080fd5b5b600483111515610f11578373ffffffffffffffffffffffffffffffffffffffff16600184600581101515610eb757fe5b0160009054906101000a900473ffffffffffffffffffffffffffffffffffffffff1673ffffffffffffffffffffffffffffffffffffffff161415610f065760026001141515610f0557600080fd5b5b826001019250610e87565b600091505b60048111158015610f2b575060001515821515145b1561107b576000600182600581101515610f4157fe5b0160009054906101000a900473ffffffffffffffffffffffffffffffffffffffff1673ffffffffffffffffffffffffffffffffffffffff16141561106e5783600182600581101515610f8f57fe5b0160006101000a81548173ffffffffffffffffffffffffffffffffffffffff021916908373ffffffffffffffffffffffffffffffffffffffff1602179055506001600660008673ffffffffffffffffffffffffffffffffffffffff1673ffffffffffffffffffffffffffffffffffffffff16815260200190815260200160002060006101000a81548160ff021916908315150217905550600191508373ffffffffffffffffffffffffffffffffffffffff167f39e7d4b9ba48f55a740a5192809dbc498fa12724c030b37dab126a3f6774c0f360405160405180910390a25b8080600101915050610f16565b6001151582151514151561108b57fe5b50505050565b6000806000809054906101000a900473ffffffffffffffffffffffffffffffffffffffff1673ffffffffffffffffffffffffffffffffffffffff163373ffffffffffffffffffffffffffffffffffffffff16148061113f575060011515600660003373ffffffffffffffffffffffffffffffffffffffff1673ffffffffffffffffffffffffffffffffffffffff16815260200190815260200160002060009054906101000a900460ff161515145b151561114a57600080fd5b600a836040518082805190602001908083835b602083101515611182578051825260208201915060208101905060208303925061115d565b6001836020036101000a038019825116818451168082178552505050505050905001915050908152602001604051809103902060009054906101000a900473ffffffffffffffffffffffffffffffffffffffff16905060011515600b60008373ffffffffffffffffffffffffffffffffffffffff1673ffffffffffffffffffffffffffffffffffffffff16815260200190815260200160002060009054906101000a900460ff16151514151561123757600080fd5b6000600d846040518082805190602001908083835b602083101515611271578051825260208201915060208101905060208303925061124c565b6001836020036101000a038019825116818451168082178552505050505050905001915050908152602001604051809103902060006101000a81548160ff0219169083151502179055506040805190810160405280600181526020017f3000000000000000000000000000000000000000000000000000000000000000815250600960008373ffffffffffffffffffffffffffffffffffffffff1673ffffffffffffffffffffffffffffffffffffffff1681526020019081526020016000206000019080519060200190611346929190611f12565b508073ffffffffffffffffffffffffffffffffffffffff167f70e9219a99e9bfc211e7aa1236b656ca826ba23e3e9e5cbdc2f16e0c7eb8fad9600960008473ffffffffffffffffffffffffffffffffffffffff1673ffffffffffffffffffffffffffffffffffffffff168152602001908152602001600020600001604051808060200182810382528381815460018160011615610100020316600290048152602001915080546001816001161561010002031660029004801561144a5780601f1061141f5761010080835404028352916020019161144a565b820191906000526020600020905b81548152906001019060200180831161142d57829003601f168201915b50509250505060405180910390a26000600b60008373ffffffffffffffffffffffffffffffffffffffff1673ffffffffffffffffffffffffffffffffffffffff16815260200190815260200160002060006101000a81548160ff0219169083151502179055508073ffffffffffffffffffffffffffffffffffffffff167fe6547a945aa917d8f8b8a71a98062b03570c5ab79d6f47aa64dab5ae6483e0c860405160405180910390a2600b60008273ffffffffffffffffffffffffffffffffffffffff1673ffffffffffffffffffffffffffffffffffffffff16815260200190815260200160002060009054906101000a900460ff16915050919050565b6000801515600760009054906101000a900460ff16151514151561156b57600080fd5b600660008373ffffffffffffffffffffffffffffffffffffffff1673ffffffffffffffffffffffffffffffffffffffff16815260200190815260200160002060009054906101000a900460ff169050919050565b600760009054906101000a900460ff1681565b6000809054906101000a900473ffffffffffffffffffffffffffffffffffffffff1673ffffffffffffffffffffffffffffffffffffffff163373ffffffffffffffffffffffffffffffffffffffff16148061167d575060011515600660003373ffffffffffffffffffffffffffffffffffffffff1673ffffffffffffffffffffffffffffffffffffffff16815260200190815260200160002060009054906101000a900460ff161515145b151561168857600080fd5b60001515600760009054906101000a900460ff1615151415156116aa57600080fd5b60001515600b60008473ffffffffffffffffffffffffffffffffffffffff1673ffffffffffffffffffffffffffffffffffffffff16815260200190815260200160002060009054906101000a900460ff16151514151561170957600080fd5b6001600b60008473ffffffffffffffffffffffffffffffffffffffff1673ffffffffffffffffffffffffffffffffffffffff16815260200190815260200160002060006101000a81548160ff02191690831515021790555061176b8282611a1a565b508173ffffffffffffffffffffffffffffffffffffffff167f64a6cb4c2615e9c9ee211131f9fc94aaa6238a3c255423b75ba43ef01ca42dcd60405160405180910390a25050565b600c6020528060005260406000206000915054906101000a900460ff1681565b6000600880549050905090565b6000809054906101000a900473ffffffffffffffffffffffffffffffffffffffff1681565b60018160058110151561181457fe5b016000915054906101000a900473ffffffffffffffffffffffffffffffffffffffff1681565b6000809054906101000a900473ffffffffffffffffffffffffffffffffffffffff1673ffffffffffffffffffffffffffffffffffffffff163373ffffffffffffffffffffffffffffffffffffffff1614151561189557600080fd5b60011515600760009054906101000a900460ff1615151415156118b757600080fd5b6000600760006101000a81548160ff0219169083151502179055507f7805862f689e2f13df9f062ff482ad3ad112aca9e0847911ed832e158c525b3360405160405180910390a1565b606060008060006008805490501415156119da5760088481548110151561192357fe5b90600052602060002090600902019150816000019050808054600181600116156101000203166002900480601f0160208091040260200160405190810160405280929190818152602001828054600181600116156101000203166002900480156119ce5780601f106119a3576101008083540402835291602001916119ce565b820191906000526020600020905b8154815290600101906020018083116119b157829003601f168201915b50505050509250611a13565b6040805190810160405280600181526020017f300000000000000000000000000000000000000000000000000000000000000081525092505b5050919050565b6060611a24611f92565b611a2c611fb5565b60001515600760009054906101000a900460ff161515141515611a4e57600080fd5b60011515600b60008773ffffffffffffffffffffffffffffffffffffffff1673ffffffffffffffffffffffffffffffffffffffff16815260200190815260200160002060009054906101000a900460ff161515141515611aad57600080fd5b60001515600c60008773ffffffffffffffffffffffffffffffffffffffff1673ffffffffffffffffffffffffffffffffffffffff16815260200190815260200160002060009054906101000a900460ff161515141515611b0c57600080fd5b60001515600d856040518082805190602001908083835b602083101515611b485780518252602082019150602081019050602083039250611b23565b6001836020036101000a038019825116818451168082178552505050505050905001915050908152602001604051809103902060009054906101000a900460ff161515141515611b9757600080fd5b6060604051908101604052808581526020018381526020016000815250905080600960008773ffffffffffffffffffffffffffffffffffffffff1673ffffffffffffffffffffffffffffffffffffffff1681526020019081526020016000206000820151816000019080519060200190611c12929190611fde565b50602082015181600201906006611c2a92919061205e565b506040820151816008015590505084600a82600001516040518082805190602001908083835b602083101515611c755780518252602082019150602081019050602083039250611c50565b6001836020036101000a038019825116818451168082178552505050505050905001915050908152602001604051809103902060006101000a81548173ffffffffffffffffffffffffffffffffffffffff021916908373ffffffffffffffffffffffffffffffffffffffff1602179055506001600d82600001516040518082805190602001908083835b602083101515611d245780518252602082019150602081019050602083039250611cff565b6001836020036101000a038019825116818451168082178552505050505050905001915050908152602001604051809103902060006101000a81548160ff0219169083151502179055508481602001516000600681101515611d8257fe5b602002019073ffffffffffffffffffffffffffffffffffffffff16908173ffffffffffffffffffffffffffffffffffffffff168152505080600e60008773ffffffffffffffffffffffffffffffffffffffff1673ffffffffffffffffffffffffffffffffffffffff1681526020019081526020016000206000820151816000019080519060200190611e15929190611fde565b50602082015181600201906006611e2d92919061205e565b50604082015181600801559050506001600c60008773ffffffffffffffffffffffffffffffffffffffff1673ffffffffffffffffffffffffffffffffffffffff16815260200190815260200160002060006101000a81548160ff021916908315150217905550600881908060018154018082558091505090600182039060005260206000209060090201600090919290919091506000820151816000019080519060200190611edd929190611fde565b50602082015181600201906006611ef592919061205e565b506040820151816008015550505080600001519250505092915050565b828054600181600116156101000203166002900490600052602060002090601f016020900481019282601f10611f5357805160ff1916838001178555611f81565b82800160010185558215611f81579182015b82811115611f80578251825591602001919060010190611f65565b5b509050611f8e91906120db565b5090565b60c060405190810160405280600690602082028038833980820191505090505090565b6101006040519081016040528060608152602001611fd1612100565b8152602001600081525090565b828054600181600116156101000203166002900490600052602060002090601f016020900481019282601f1061201f57805160ff191683800117855561204d565b8280016001018555821561204d579182015b8281111561204c578251825591602001919060010190612031565b5b50905061205a91906120db565b5090565b82600681019282156120ca579160200282015b828111156120c95782518260006101000a81548173ffffffffffffffffffffffffffffffffffffffff021916908373ffffffffffffffffffffffffffffffffffffffff16021790555091602001919060010190612071565b5b5090506120d79190612123565b5090565b6120fd91905b808211156120f95760008160009055506001016120e1565b5090565b90565b60c060405190810160405280600690602082028038833980820191505090505090565b61216391905b8082111561215f57600081816101000a81549073ffffffffffffffffffffffffffffffffffffffff021916905550600101612129565b5090565b905600a165627a7a723058200757e4858824809c3753321de0abe2b2f845454c2c5b96dd1e499e6fe9e4cd050029",
  "source": "pragma solidity ^0.4.24;\n\nimport \"./StoreAccessControl.sol\";\n\n/**\n  * @dev Defines the storage needs to create and manage stores as well as create\n  * and manage the products which are specific to stores.\n  */\ncontract StoreBase is StoreAccessControl{\n\n  /// @dev Store name is used as a unique identifier, used in many events.\n  event LogNewStore(address indexed _ownerAddress, string indexed _newStoreName);\n  event LogNewStoreOwner(address indexed _storeOwnerAddress);\n  event LogStoreOwnerRemoved(address indexed _storeOwner);\n  event LogStoreClosed(address indexed _ownerAddress, string _oldStoreName);\n\n  Store[] allStores;\n\n  /// @dev The Store struct is used to represent all stores in the Maats Network.\n  struct Store{\n    // Acts as unique identifier.\n    string storeName;\n    // Structs can't store struct array's so mapping is used instead.\n    mapping(uint => Product) products;\n    // Stores can only have 5 admins. The 0-index is reserved for store owner.\n    address[6] storeAdmins;\n    // Acts as the key for the products mapping. NOTE: max num prod = 256: SCALABILITY :/\n    uint prodCount;\n  }\n\n\n  /// @dev Products are members of Stores. Each new product an owner adds to\n  /// their store takes the following form.\n  struct Product{\n    uint128 price;\n    // Array of the enum to track instances of this product type. This allows\n    // for a product to be sold for a set price or sold at auction. It also\n    // tracks progress of an instance so the owner knows when to ship an item.\n    ItemStatus[] items;\n    // Used to manage the inventory of the product.\n    uint64 inventory;\n    // If false, the product is set-price, true its an auction.\n    bool auction;\n  }\n\n  /// @dev Keep track of progress of sale and type of sale of a product instance (item).\n  enum ItemStatus{\n    ForSale,\n    ForAuction,\n    Bought,\n    Shipped\n  }\n\n\n  /// @dev Mapping accessing the store owned by a specific owner address.\n  mapping (address => Store) public OwnerToStore;\n\n  /// @dev Need a way to access the address of the store owner for functions\n  /// where store admins are acting upon the store and not the owner.\n  mapping(string => address)  StoreNameToOwner;\n\n  /// @dev Used to ensure an address isn't registered as an owner multiple times\n  /// accessed when loading a page to allow access to owner only functionality.\n  mapping (address => bool) public isStoreOwner;\n\n  /// @dev Used to ensure that an owner has only created a single store as\n  /// owners are only allowed to manage a single store.\n  mapping (address => bool) public createdStore;\n\n  /// @dev Used to ensure that store names remain unique identifiers for Store\n  /// structs and to ensure that a only existing stores are acted upon.\n  mapping(string => bool) storeExists;\n\n  /// @dev give admins access to stores instead of requiring the owner address\n  mapping (address => Store) storeAdminToStore;\n\n\n\n  /// @dev Function for testing store creation and removal since\n  /// mappings with dynamic keys don't yet have public getter functions\n  function getStoreExists(string _storeName)public constant returns(bool){\n    return storeExists[_storeName];\n  }\n\n  /// @dev This function associates an address with a store owner. It DOES NOT\n  /// create the store for the owner. An Address must be a store owner before\n  /// they can create a Store instance.\n  /// @param _newOwner : Address of the new owner candidate\n  /// @return The ownerId for the StoreOwner array\n  function makeStoreOwner(address _newOwner,string _storeName)\n    public\n    onlyMaatsLeadership\n    whenNotPaused{\n      require(isStoreOwner[_newOwner] == false);\n\n      isStoreOwner[_newOwner] = true;\n\n      createStore(_newOwner, _storeName);\n\n      emit LogNewStoreOwner(_newOwner);\n\n    }\n\n    /// @dev Used to remove an owner from the isStoreOwner mapping and prevent\n    /// the specified address from accessing store owner functions on Maat's.\n    /// It also closes the store for which they are the owner.\n    /// notice This doesn't have a pausible modifier since we want to be able\n    /// to remove an owner when paused in the case they are acting maliciously\n    /// as opposed to simple inactivity or other violations.\n    /// @param _storeName : The store of the owner being removed\n    /// @return The value of the mapping which states if they are a store owner\n    function removeStoreOwner(string _storeName)\n      public\n      onlyMaatsLeadership // consider requiring this to be a multisig event\n      returns(bool){\n        // throw if this address isn't an owner\n        address owner = StoreNameToOwner[_storeName];\n        require(isStoreOwner[owner] == true);\n\n        // free the store name for future use\n        storeExists[_storeName] = false;\n\n        // remove ownership of _badOwner's store\n        // set the status of the store to closed\n        OwnerToStore[owner].storeName = \"0\";\n        emit LogStoreClosed(owner,OwnerToStore[owner].storeName);\n        isStoreOwner[owner] = false;\n\n        emit LogStoreOwnerRemoved(owner);\n        return(isStoreOwner[owner]);\n      }\n\n    /// @dev Requries that the msg.sender is a storeOwner. It checks to ensure\n    /// that the msg.sender hasn't created a store yet and that the storeName\n    /// they choose hasn't already been taken by another owner.\n    /// @param _storeName : The string used as the unique identifier for the Store.\n    /// @return _newStore.storeName: returns the name of the new store.\n    function createStore(address _newOwner, string _storeName)\n      internal\n      whenNotPaused\n      returns(string){\n        // Check that msg.sender is registered as a store owner.\n        require(isStoreOwner[_newOwner] == true);\n        // Require that they don't have a store yet.\n        require(createdStore[_newOwner] == false);\n        // Require that the name for their store hasn't been taken.\n        require(storeExists[_storeName] == false);\n\n        // Fixed size array's need to be in memory before definition in structs\n        // This will be the storeAdmin array in the new store.\n        address[6] memory newArray;\n\n        // Create the new store type in memory. It will be stored in the\n        // OwnerToStore mapping as to not be lost during deallocation\n        Store memory _newStore = Store({\n          storeName: _storeName,\n          storeAdmins: newArray,\n          prodCount: 0\n          });\n\n        // This mapping stores the newStore in contract storage\n        OwnerToStore[_newOwner] = _newStore;\n        // Ensure we can access the owner from the store's unique identifier.\n        StoreNameToOwner[_newStore.storeName] = _newOwner;\n        // Register this name to ensure another owner can't take this name\n        storeExists[_newStore.storeName] = true;\n        // 0-index is reserved for store owner. Can only change during owner transfer\n        _newStore.storeAdmins[0] = _newOwner;\n        storeAdminToStore[_newOwner] = _newStore;\n        // Record the store creation so that the owner can't create another store\n        createdStore[_newOwner] = true;\n\n        allStores.push(_newStore);\n\n\n      //  emit LogNewStore(msg.sender, _newStore.storeName);\n\n        return(_newStore.storeName);\n    }\n\n    function getStoreName(uint i) public constant returns(string){\n      if(allStores.length != 0){\n        Store storage _store = allStores[i];\n        string storage storeName = _store.storeName;\n        return storeName;\n      }\n      return \"0\";\n    }\n\n    function getNumStores() public constant returns(uint){\n      return allStores.length;\n    }\n\n\n}\n",
  "sourcePath": "/Users/ericbrown/Documents/Blockchain/ConsenSysCourse/GitHub/Maats/contracts/StoreBase.sol",
  "compiler": {
    "name": "solc",
    "version": "0.4.24+commit.e67f0147.Emscripten.clang"
  },
  "schemaVersion": "2.0.1",
  "updatedAt": "2018-08-15T00:56:21.861Z"
}