{
  "contractName": "StoreCore",
  "abi": [
    {
      "constant": false,
      "inputs": [
        {
          "name": "_productId",
          "type": "uint8"
        },
        {
          "name": "_storeName",
          "type": "string"
        }
      ],
      "name": "buyItem",
      "outputs": [
        {
          "name": "index",
          "type": "uint256"
        }
      ],
      "payable": true,
      "stateMutability": "payable",
      "type": "function"
    },
    {
      "constant": true,
      "inputs": [
        {
          "name": "",
          "type": "address"
        }
      ],
      "name": "purchaserToItem",
      "outputs": [
        {
          "name": "",
          "type": "uint256"
        }
      ],
      "payable": false,
      "stateMutability": "view",
      "type": "function"
    },
    {
      "constant": false,
      "inputs": [],
      "name": "_pause",
      "outputs": [],
      "payable": false,
      "stateMutability": "nonpayable",
      "type": "function"
    },
    {
      "constant": false,
      "inputs": [
        {
          "name": "_auctionId",
          "type": "uint256"
        },
        {
          "name": "_productId",
          "type": "uint8"
        }
      ],
      "name": "_bid",
      "outputs": [
        {
          "name": "",
          "type": "uint256"
        }
      ],
      "payable": true,
      "stateMutability": "payable",
      "type": "function"
    },
    {
      "constant": false,
      "inputs": [],
      "name": "withdraw",
      "outputs": [],
      "payable": false,
      "stateMutability": "nonpayable",
      "type": "function"
    },
    {
      "constant": false,
      "inputs": [
        {
          "name": "_revokedAdmin",
          "type": "address"
        }
      ],
      "name": "removeMaatsAdmin",
      "outputs": [],
      "payable": false,
      "stateMutability": "nonpayable",
      "type": "function"
    },
    {
      "constant": true,
      "inputs": [
        {
          "name": "_productId",
          "type": "uint8"
        },
        {
          "name": "_storeName",
          "type": "string"
        }
      ],
      "name": "findFirstItemForSale",
      "outputs": [
        {
          "name": "",
          "type": "uint256"
        }
      ],
      "payable": false,
      "stateMutability": "view",
      "type": "function"
    },
    {
      "constant": false,
      "inputs": [
        {
          "name": "_newOwner",
          "type": "address"
        }
      ],
      "name": "setMaatsOwner",
      "outputs": [],
      "payable": false,
      "stateMutability": "nonpayable",
      "type": "function"
    },
    {
      "constant": true,
      "inputs": [],
      "name": "newContractAddress",
      "outputs": [
        {
          "name": "",
          "type": "address"
        }
      ],
      "payable": false,
      "stateMutability": "view",
      "type": "function"
    },
    {
      "constant": false,
      "inputs": [
        {
          "name": "_newAdmin",
          "type": "address"
        }
      ],
      "name": "createMaatsAdmin",
      "outputs": [],
      "payable": false,
      "stateMutability": "nonpayable",
      "type": "function"
    },
    {
      "constant": false,
      "inputs": [
        {
          "name": "_storeName",
          "type": "string"
        }
      ],
      "name": "removeStoreOwner",
      "outputs": [],
      "payable": false,
      "stateMutability": "nonpayable",
      "type": "function"
    },
    {
      "constant": false,
      "inputs": [
        {
          "name": "_itemIndex",
          "type": "uint256"
        },
        {
          "name": "_productId",
          "type": "uint8"
        }
      ],
      "name": "shipItem",
      "outputs": [
        {
          "name": "shipped",
          "type": "bool"
        }
      ],
      "payable": false,
      "stateMutability": "nonpayable",
      "type": "function"
    },
    {
      "constant": true,
      "inputs": [],
      "name": "pause",
      "outputs": [
        {
          "name": "",
          "type": "bool"
        }
      ],
      "payable": false,
      "stateMutability": "view",
      "type": "function"
    },
    {
      "constant": false,
      "inputs": [
        {
          "name": "_newPrice",
          "type": "uint72"
        },
        {
          "name": "_productId",
          "type": "uint8"
        }
      ],
      "name": "changePrice",
      "outputs": [
        {
          "name": "",
          "type": "uint72"
        }
      ],
      "payable": false,
      "stateMutability": "nonpayable",
      "type": "function"
    },
    {
      "constant": false,
      "inputs": [
        {
          "name": "_productId",
          "type": "uint8"
        },
        {
          "name": "_newInventory",
          "type": "uint64"
        }
      ],
      "name": "addInventory",
      "outputs": [
        {
          "name": "",
          "type": "uint64"
        }
      ],
      "payable": false,
      "stateMutability": "nonpayable",
      "type": "function"
    },
    {
      "constant": true,
      "inputs": [
        {
          "name": "",
          "type": "address"
        }
      ],
      "name": "OwnerToStoreId",
      "outputs": [
        {
          "name": "",
          "type": "uint256"
        }
      ],
      "payable": false,
      "stateMutability": "view",
      "type": "function"
    },
    {
      "constant": true,
      "inputs": [],
      "name": "currentStoreCount",
      "outputs": [
        {
          "name": "",
          "type": "uint256"
        }
      ],
      "payable": false,
      "stateMutability": "view",
      "type": "function"
    },
    {
      "constant": false,
      "inputs": [
        {
          "name": "_NewAdminAddress",
          "type": "address"
        }
      ],
      "name": "createStoreAdmin",
      "outputs": [],
      "payable": false,
      "stateMutability": "nonpayable",
      "type": "function"
    },
    {
      "constant": true,
      "inputs": [
        {
          "name": "_startingPrice",
          "type": "uint256"
        },
        {
          "name": "_endingPrice",
          "type": "uint256"
        },
        {
          "name": "_duration",
          "type": "uint256"
        },
        {
          "name": "_secondsPassed",
          "type": "uint256"
        }
      ],
      "name": "_computeCurrentPrice",
      "outputs": [
        {
          "name": "",
          "type": "uint256"
        }
      ],
      "payable": false,
      "stateMutability": "pure",
      "type": "function"
    },
    {
      "constant": true,
      "inputs": [
        {
          "name": "ownerofproduct",
          "type": "address"
        },
        {
          "name": "productId",
          "type": "uint8"
        },
        {
          "name": "itemId",
          "type": "uint256"
        }
      ],
      "name": "didBid",
      "outputs": [
        {
          "name": "",
          "type": "bool"
        }
      ],
      "payable": false,
      "stateMutability": "view",
      "type": "function"
    },
    {
      "constant": false,
      "inputs": [
        {
          "name": "_startingPrice",
          "type": "uint256"
        },
        {
          "name": "_endingPrice",
          "type": "uint256"
        },
        {
          "name": "_duration",
          "type": "uint64"
        }
      ],
      "name": "createAuctionProduct",
      "outputs": [
        {
          "name": "auctionId",
          "type": "uint256"
        }
      ],
      "payable": false,
      "stateMutability": "nonpayable",
      "type": "function"
    },
    {
      "constant": false,
      "inputs": [
        {
          "name": "_escrowAddress",
          "type": "address"
        }
      ],
      "name": "setEscrowAddress",
      "outputs": [],
      "payable": false,
      "stateMutability": "nonpayable",
      "type": "function"
    },
    {
      "constant": true,
      "inputs": [],
      "name": "escrow",
      "outputs": [
        {
          "name": "",
          "type": "address"
        }
      ],
      "payable": false,
      "stateMutability": "view",
      "type": "function"
    },
    {
      "constant": true,
      "inputs": [],
      "name": "maatsOwner",
      "outputs": [
        {
          "name": "",
          "type": "address"
        }
      ],
      "payable": false,
      "stateMutability": "view",
      "type": "function"
    },
    {
      "constant": true,
      "inputs": [
        {
          "name": "",
          "type": "uint256"
        }
      ],
      "name": "maatsAdmins",
      "outputs": [
        {
          "name": "",
          "type": "address"
        }
      ],
      "payable": false,
      "stateMutability": "view",
      "type": "function"
    },
    {
      "constant": false,
      "inputs": [
        {
          "name": "_newOwner",
          "type": "address"
        },
        {
          "name": "_storeName",
          "type": "string"
        }
      ],
      "name": "createStore",
      "outputs": [
        {
          "name": "",
          "type": "string"
        }
      ],
      "payable": false,
      "stateMutability": "nonpayable",
      "type": "function"
    },
    {
      "constant": false,
      "inputs": [],
      "name": "_unpause",
      "outputs": [],
      "payable": false,
      "stateMutability": "nonpayable",
      "type": "function"
    },
    {
      "constant": false,
      "inputs": [
        {
          "name": "_price",
          "type": "uint72"
        },
        {
          "name": "_inventory",
          "type": "uint64"
        }
      ],
      "name": "createSetPriceProduct",
      "outputs": [
        {
          "name": "_productId",
          "type": "uint8"
        }
      ],
      "payable": false,
      "stateMutability": "nonpayable",
      "type": "function"
    },
    {
      "constant": false,
      "inputs": [
        {
          "name": "_adminAddress",
          "type": "address"
        }
      ],
      "name": "removeStoreAdmin",
      "outputs": [],
      "payable": false,
      "stateMutability": "nonpayable",
      "type": "function"
    },
    {
      "inputs": [],
      "payable": false,
      "stateMutability": "nonpayable",
      "type": "constructor"
    },
    {
      "payable": true,
      "stateMutability": "payable",
      "type": "fallback"
    },
    {
      "anonymous": false,
      "inputs": [
        {
          "indexed": true,
          "name": "_sender",
          "type": "address"
        },
        {
          "indexed": false,
          "name": "_value",
          "type": "uint256"
        }
      ],
      "name": "LogFundsReceived",
      "type": "event"
    },
    {
      "anonymous": false,
      "inputs": [
        {
          "indexed": false,
          "name": "number",
          "type": "uint256"
        }
      ],
      "name": "TestLog",
      "type": "event"
    },
    {
      "anonymous": false,
      "inputs": [
        {
          "indexed": false,
          "name": "_auctionId",
          "type": "uint256"
        },
        {
          "indexed": true,
          "name": "_storeName",
          "type": "string"
        }
      ],
      "name": "LogNewAuctionProduct",
      "type": "event"
    },
    {
      "anonymous": false,
      "inputs": [
        {
          "indexed": false,
          "name": "auctionId",
          "type": "uint256"
        },
        {
          "indexed": false,
          "name": "startingPrice",
          "type": "uint256"
        },
        {
          "indexed": false,
          "name": "endingPrice",
          "type": "uint256"
        },
        {
          "indexed": false,
          "name": "duration",
          "type": "uint256"
        }
      ],
      "name": "AuctionCreated",
      "type": "event"
    },
    {
      "anonymous": false,
      "inputs": [
        {
          "indexed": false,
          "name": "productId",
          "type": "uint8"
        },
        {
          "indexed": false,
          "name": "totalPrice",
          "type": "uint256"
        },
        {
          "indexed": false,
          "name": "winner",
          "type": "address"
        }
      ],
      "name": "AuctionSuccessful",
      "type": "event"
    },
    {
      "anonymous": false,
      "inputs": [
        {
          "indexed": false,
          "name": "auctionId",
          "type": "uint256"
        }
      ],
      "name": "AuctionCancelled",
      "type": "event"
    },
    {
      "anonymous": false,
      "inputs": [
        {
          "indexed": true,
          "name": "_productId",
          "type": "uint8"
        },
        {
          "indexed": true,
          "name": "_purchaser",
          "type": "address"
        },
        {
          "indexed": false,
          "name": "_storeName",
          "type": "string"
        }
      ],
      "name": "LogItemBought",
      "type": "event"
    },
    {
      "anonymous": false,
      "inputs": [
        {
          "indexed": true,
          "name": "_storeName",
          "type": "string"
        },
        {
          "indexed": true,
          "name": "_productId",
          "type": "uint8"
        },
        {
          "indexed": false,
          "name": "remaining",
          "type": "uint64"
        }
      ],
      "name": "LogInventoryLow",
      "type": "event"
    },
    {
      "anonymous": false,
      "inputs": [
        {
          "indexed": true,
          "name": "_storeName",
          "type": "string"
        },
        {
          "indexed": true,
          "name": "_productId",
          "type": "uint8"
        }
      ],
      "name": "LogInventoryOut",
      "type": "event"
    },
    {
      "anonymous": false,
      "inputs": [
        {
          "indexed": true,
          "name": "_index",
          "type": "uint256"
        },
        {
          "indexed": true,
          "name": "_productId",
          "type": "uint8"
        },
        {
          "indexed": false,
          "name": "_storeName",
          "type": "string"
        }
      ],
      "name": "LogItemShipped",
      "type": "event"
    },
    {
      "anonymous": false,
      "inputs": [
        {
          "indexed": false,
          "name": "_productId",
          "type": "uint8"
        },
        {
          "indexed": true,
          "name": "_storeName",
          "type": "string"
        }
      ],
      "name": "LogNewSetPriceProduct",
      "type": "event"
    },
    {
      "anonymous": false,
      "inputs": [
        {
          "indexed": true,
          "name": "_productId",
          "type": "uint8"
        },
        {
          "indexed": false,
          "name": "inventory",
          "type": "uint64"
        }
      ],
      "name": "LogAddedInventory",
      "type": "event"
    },
    {
      "anonymous": false,
      "inputs": [
        {
          "indexed": true,
          "name": "_ownerAddress",
          "type": "address"
        },
        {
          "indexed": true,
          "name": "_storeName",
          "type": "string"
        }
      ],
      "name": "LogProductRemoved",
      "type": "event"
    },
    {
      "anonymous": false,
      "inputs": [
        {
          "indexed": true,
          "name": "_productId",
          "type": "uint8"
        },
        {
          "indexed": true,
          "name": "_storeName",
          "type": "string"
        },
        {
          "indexed": false,
          "name": "_newPrice",
          "type": "uint72"
        }
      ],
      "name": "LogPriceChange",
      "type": "event"
    },
    {
      "anonymous": false,
      "inputs": [
        {
          "indexed": true,
          "name": "_ownerAddress",
          "type": "address"
        },
        {
          "indexed": true,
          "name": "_newStoreName",
          "type": "string"
        }
      ],
      "name": "LogNewStore",
      "type": "event"
    },
    {
      "anonymous": false,
      "inputs": [
        {
          "indexed": true,
          "name": "_storeOwnerAddress",
          "type": "address"
        }
      ],
      "name": "LogNewStoreOwner",
      "type": "event"
    },
    {
      "anonymous": false,
      "inputs": [
        {
          "indexed": true,
          "name": "_storeOwner",
          "type": "address"
        }
      ],
      "name": "LogStoreOwnerRemoved",
      "type": "event"
    },
    {
      "anonymous": false,
      "inputs": [
        {
          "indexed": true,
          "name": "_ownerAddress",
          "type": "address"
        }
      ],
      "name": "LogStoreClosed",
      "type": "event"
    },
    {
      "anonymous": false,
      "inputs": [
        {
          "indexed": true,
          "name": "previousOwner",
          "type": "address"
        },
        {
          "indexed": true,
          "name": "newOwner",
          "type": "address"
        }
      ],
      "name": "LogNewOwner",
      "type": "event"
    },
    {
      "anonymous": false,
      "inputs": [
        {
          "indexed": true,
          "name": "newAdmin",
          "type": "address"
        }
      ],
      "name": "LogNewAdmin",
      "type": "event"
    },
    {
      "anonymous": false,
      "inputs": [
        {
          "indexed": true,
          "name": "revokedAdmin",
          "type": "address"
        }
      ],
      "name": "LogAdminRevoked",
      "type": "event"
    },
    {
      "anonymous": false,
      "inputs": [],
      "name": "Pause",
      "type": "event"
    },
    {
      "anonymous": false,
      "inputs": [],
      "name": "Unpause",
      "type": "event"
    },
    {
      "constant": true,
      "inputs": [
        {
          "name": "_admin",
          "type": "address"
        }
      ],
      "name": "getIsAdmin",
      "outputs": [
        {
          "name": "",
          "type": "bool"
        }
      ],
      "payable": false,
      "stateMutability": "view",
      "type": "function"
    },
    {
      "constant": true,
      "inputs": [
        {
          "name": "_storeName",
          "type": "string"
        }
      ],
      "name": "getStoreExists",
      "outputs": [
        {
          "name": "",
          "type": "bool"
        }
      ],
      "payable": false,
      "stateMutability": "view",
      "type": "function"
    },
    {
      "constant": true,
      "inputs": [
        {
          "name": "i",
          "type": "uint256"
        }
      ],
      "name": "getStoreName",
      "outputs": [
        {
          "name": "",
          "type": "string"
        }
      ],
      "payable": false,
      "stateMutability": "view",
      "type": "function"
    },
    {
      "constant": true,
      "inputs": [
        {
          "name": "adminAddress",
          "type": "address"
        }
      ],
      "name": "getIsStoreAdmin",
      "outputs": [
        {
          "name": "",
          "type": "bool"
        }
      ],
      "payable": false,
      "stateMutability": "view",
      "type": "function"
    },
    {
      "constant": true,
      "inputs": [
        {
          "name": "storeName",
          "type": "string"
        },
        {
          "name": "productId",
          "type": "uint8"
        }
      ],
      "name": "getProductExists",
      "outputs": [
        {
          "name": "",
          "type": "bool"
        }
      ],
      "payable": false,
      "stateMutability": "view",
      "type": "function"
    },
    {
      "constant": true,
      "inputs": [
        {
          "name": "storeName",
          "type": "string"
        },
        {
          "name": "productId",
          "type": "uint8"
        }
      ],
      "name": "getCurrentInventory",
      "outputs": [
        {
          "name": "",
          "type": "uint64"
        }
      ],
      "payable": false,
      "stateMutability": "view",
      "type": "function"
    },
    {
      "constant": true,
      "inputs": [
        {
          "name": "storeName",
          "type": "string"
        },
        {
          "name": "productId",
          "type": "uint8"
        }
      ],
      "name": "getCurrentSetPrice",
      "outputs": [
        {
          "name": "",
          "type": "uint72"
        }
      ],
      "payable": false,
      "stateMutability": "view",
      "type": "function"
    },
    {
      "constant": true,
      "inputs": [
        {
          "name": "index",
          "type": "uint256"
        },
        {
          "name": "storeName",
          "type": "string"
        }
      ],
      "name": "getStoreAdmins",
      "outputs": [
        {
          "name": "",
          "type": "address"
        }
      ],
      "payable": false,
      "stateMutability": "view",
      "type": "function"
    },
    {
      "constant": true,
      "inputs": [
        {
          "name": "_storeName",
          "type": "string"
        }
      ],
      "name": "getNumProducts",
      "outputs": [
        {
          "name": "",
          "type": "uint256"
        }
      ],
      "payable": false,
      "stateMutability": "view",
      "type": "function"
    },
    {
      "constant": true,
      "inputs": [
        {
          "name": "_productId",
          "type": "uint8"
        },
        {
          "name": "_storeName",
          "type": "string"
        }
      ],
      "name": "getProductType",
      "outputs": [
        {
          "name": "",
          "type": "bool"
        }
      ],
      "payable": false,
      "stateMutability": "view",
      "type": "function"
    },
    {
      "constant": true,
      "inputs": [
        {
          "name": "_storeName",
          "type": "string"
        }
      ],
      "name": "getOwnerFromName",
      "outputs": [
        {
          "name": "",
          "type": "address"
        }
      ],
      "payable": false,
      "stateMutability": "view",
      "type": "function"
    },
    {
      "constant": true,
      "inputs": [
        {
          "name": "_purchaser",
          "type": "address"
        }
      ],
      "name": "getPurchase",
      "outputs": [
        {
          "name": "",
          "type": "uint256"
        }
      ],
      "payable": false,
      "stateMutability": "view",
      "type": "function"
    },
    {
      "constant": true,
      "inputs": [
        {
          "name": "storeName",
          "type": "string"
        },
        {
          "name": "index",
          "type": "uint256"
        },
        {
          "name": "productId",
          "type": "uint8"
        }
      ],
      "name": "getItemShipped",
      "outputs": [
        {
          "name": "",
          "type": "bool"
        }
      ],
      "payable": false,
      "stateMutability": "view",
      "type": "function"
    },
    {
      "constant": true,
      "inputs": [
        {
          "name": "auctionId",
          "type": "uint256"
        }
      ],
      "name": "getAuctionExists",
      "outputs": [
        {
          "name": "",
          "type": "uint64"
        }
      ],
      "payable": false,
      "stateMutability": "view",
      "type": "function"
    },
    {
      "constant": true,
      "inputs": [
        {
          "name": "auctionId",
          "type": "uint256"
        }
      ],
      "name": "getCurrentPrice",
      "outputs": [
        {
          "name": "",
          "type": "uint256"
        }
      ],
      "payable": false,
      "stateMutability": "view",
      "type": "function"
    },
    {
      "constant": true,
      "inputs": [
        {
          "name": "auctionId",
          "type": "uint256"
        }
      ],
      "name": "getSecondsPassed",
      "outputs": [
        {
          "name": "",
          "type": "uint256"
        }
      ],
      "payable": false,
      "stateMutability": "view",
      "type": "function"
    },
    {
      "constant": true,
      "inputs": [
        {
          "name": "auctionId",
          "type": "uint256"
        }
      ],
      "name": "getDuration",
      "outputs": [
        {
          "name": "",
          "type": "uint256"
        }
      ],
      "payable": false,
      "stateMutability": "view",
      "type": "function"
    },
    {
      "constant": true,
      "inputs": [
        {
          "name": "auctionId",
          "type": "uint256"
        }
      ],
      "name": "getReservePrice",
      "outputs": [
        {
          "name": "",
          "type": "uint256"
        }
      ],
      "payable": false,
      "stateMutability": "view",
      "type": "function"
    },
    {
      "constant": true,
      "inputs": [
        {
          "name": "storeName",
          "type": "string"
        },
        {
          "name": "productId",
          "type": "uint8"
        }
      ],
      "name": "getItemLength",
      "outputs": [
        {
          "name": "",
          "type": "uint256"
        }
      ],
      "payable": false,
      "stateMutability": "view",
      "type": "function"
    },
    {
      "constant": true,
      "inputs": [
        {
          "name": "storeName",
          "type": "string"
        },
        {
          "name": "productId",
          "type": "uint8"
        },
        {
          "name": "index",
          "type": "uint256"
        }
      ],
      "name": "getItemBought",
      "outputs": [
        {
          "name": "",
          "type": "bool"
        }
      ],
      "payable": false,
      "stateMutability": "view",
      "type": "function"
    },
    {
      "constant": true,
      "inputs": [
        {
          "name": "StoreName",
          "type": "string"
        },
        {
          "name": "productId",
          "type": "uint8"
        }
      ],
      "name": "getAuctionId",
      "outputs": [
        {
          "name": "",
          "type": "uint256"
        }
      ],
      "payable": false,
      "stateMutability": "view",
      "type": "function"
    }
  ],
  "bytecode": "0x60806040526001600855600160105534801561001a57600080fd5b50336000806101000a81548173ffffffffffffffffffffffffffffffffffffffff021916908373ffffffffffffffffffffffffffffffffffffffff1602179055506001600760006101000a81548160ff0219169083151502179055503373ffffffffffffffffffffffffffffffffffffffff166000809054906101000a90505050615efb80620000ab6000396000f30060806040526004361061025b576000357c0100000000000000000000000000000000000000000000000000000000900463ffffffff168062265dc5146102b657806303efa6e614610311578063050cfdd11461039b578063060347e0146104185780631def8eed1461049557806328ec015c1461051f5780632eea9067146105c85780632fa8cfac1461066857806331df27ce146106e9578063320b2ad91461074057806335b2b5be146107575780633ccfd60b1461079857806340f42c1c146107af5780634db4bc16146107f25780635f7d53a11461087c5780636af04a57146108bf5780636f48fe7e1461091657806373ada806146109a457806378678a3214610a575780637fd69d8914610a9a578063803360b614610adb57806381e4fc8214610b44578063822b0ceb14610b965780638456cb5914610bf15780638bb126a714610c205780639024b8c514610c61578063982a359614610cd05780639bf474b514610d255780639d2bcb5414610d91578063a075a5b114610e29578063a275999c14610e80578063bcddcfb214610ed7578063bdc39f4814610f02578063c55d0f5614610f45578063c7fc1bd114610f86578063cb92bfa114611024578063cbb18cc414611083578063cca04001146110f5578063cd15b91314611154578063d45c35ff146111ec578063ddeb63b51461122d578063e2fdcc1714611270578063e5fdf7f8146112c7578063e698f0bb14611355578063f0e06e4a146113ac578063f6a99e4c14611419578063fc8234cb1461151b578063fd8f49a514611532578063fde57f3b14611598578063fed48949146115db575b6000341015156102b4573373ffffffffffffffffffffffffffffffffffffffff167fafc7c22656214f820dd5d5d53d4e1a42b878f2fe22f8523d33e095602edff922346040518082815260200191505060405180910390a25b005b3480156102c257600080fd5b506102f7600480360381019080803573ffffffffffffffffffffffffffffffffffffffff169060200190929190505050611681565b604051808215151515815260200191505060405180910390f35b34801561031d57600080fd5b50610385600480360381019080803590602001908201803590602001908080601f0160208091040260200160405190810160405280939291908181526020018383808284378201915050505050509192919290803560ff1690602001909291905050506116cd565b6040518082815260200191505060405180910390f35b3480156103a757600080fd5b50610402600480360381019080803590602001908201803590602001908080601f01602080910402602001604051908101604052809392919081815260200183838082843782019150505050505091929192905050506117e0565b6040518082815260200191505060405180910390f35b61047f600480360381019080803560ff169060200190929190803590602001908201803590602001908080601f016020809104026020016040519081016040528093929190818152602001838380828437820191505050505050919291929050505061196e565b6040518082815260200191505060405180910390f35b3480156104a157600080fd5b50610509600480360381019080803590602001908201803590602001908080601f0160208091040260200160405190810160405280939291908181526020018383808284378201915050505050509192919290803560ff169060200190929190505050611c2b565b6040518082815260200191505060405180910390f35b34801561052b57600080fd5b50610586600480360381019080803590602001908201803590602001908080601f0160208091040260200160405190810160405280939291908181526020018383808284378201915050505050509192919290505050611cb8565b604051808273ffffffffffffffffffffffffffffffffffffffff1673ffffffffffffffffffffffffffffffffffffffff16815260200191505060405180910390f35b3480156105d457600080fd5b5061063c600480360381019080803590602001908201803590602001908080601f0160208091040260200160405190810160405280939291908181526020018383808284378201915050505050509192919290803560ff169060200190929190505050611d52565b604051808268ffffffffffffffffff1668ffffffffffffffffff16815260200191505060405180910390f35b34801561067457600080fd5b506106cf600480360381019080803590602001908201803590602001908080601f0160208091040260200160405190810160405280939291908181526020018383808284378201915050505050509192919290505050611e7c565b604051808215151515815260200191505060405180910390f35b3480156106f557600080fd5b5061072a600480360381019080803573ffffffffffffffffffffffffffffffffffffffff169060200190929190505050611efe565b6040518082815260200191505060405180910390f35b34801561074c57600080fd5b50610755611f16565b005b61078260048036038101908080359060200190929190803560ff169060200190929190505050611fdc565b6040518082815260200191505060405180910390f35b3480156107a457600080fd5b506107ad61229e565b005b3480156107bb57600080fd5b506107f0600480360381019080803573ffffffffffffffffffffffffffffffffffffffff16906020019092919050505061237a565b005b3480156107fe57600080fd5b50610866600480360381019080803560ff169060200190929190803590602001908201803590602001908080601f0160208091040260200160405190810160405280939291908181526020018383808284378201915050505050509192919290505050612593565b6040518082815260200191505060405180910390f35b34801561088857600080fd5b506108bd600480360381019080803573ffffffffffffffffffffffffffffffffffffffff16906020019092919050505061275d565b005b3480156108cb57600080fd5b506108d46128da565b604051808273ffffffffffffffffffffffffffffffffffffffff1673ffffffffffffffffffffffffffffffffffffffff16815260200191505060405180910390f35b34801561092257600080fd5b5061098a600480360381019080803560ff169060200190929190803590602001908201803590602001908080601f0160208091040260200160405190810160405280939291908181526020018383808284378201915050505050509192919290505050612900565b604051808215151515815260200191505060405180910390f35b3480156109b057600080fd5b50610a1560048036038101908080359060200190929190803590602001908201803590602001908080601f0160208091040260200160405190810160405280939291908181526020018383808284378201915050505050509192919290505050612aac565b604051808273ffffffffffffffffffffffffffffffffffffffff1673ffffffffffffffffffffffffffffffffffffffff16815260200191505060405180910390f35b348015610a6357600080fd5b50610a98600480360381019080803573ffffffffffffffffffffffffffffffffffffffff169060200190929190505050612c06565b005b348015610aa657600080fd5b50610ac560048036038101908080359060200190929190505050612ecf565b6040518082815260200191505060405180910390f35b348015610ae757600080fd5b50610b42600480360381019080803590602001908201803590602001908080601f0160208091040260200160405190810160405280939291908181526020018383808284378201915050505050509192919290505050612ef0565b005b348015610b5057600080fd5b50610b7c60048036038101908080359060200190929190803560ff169060200190929190505050613266565b604051808215151515815260200191505060405180910390f35b348015610ba257600080fd5b50610bd7600480360381019080803573ffffffffffffffffffffffffffffffffffffffff1690602001909291905050506135a8565b604051808215151515815260200191505060405180910390f35b348015610bfd57600080fd5b50610c0661361f565b604051808215151515815260200191505060405180910390f35b348015610c2c57600080fd5b50610c4b60048036038101908080359060200190929190505050613632565b6040518082815260200191505060405180910390f35b348015610c6d57600080fd5b50610ca4600480360381019080803568ffffffffffffffffff169060200190929190803560ff169060200190929190505050613675565b604051808268ffffffffffffffffff1668ffffffffffffffffff16815260200191505060405180910390f35b348015610cdc57600080fd5b50610cfb600480360381019080803590602001909291905050506137ec565b604051808267ffffffffffffffff1667ffffffffffffffff16815260200191505060405180910390f35b348015610d3157600080fd5b50610d67600480360381019080803560ff169060200190929190803567ffffffffffffffff169060200190929190505050613843565b604051808267ffffffffffffffff1667ffffffffffffffff16815260200191505060405180910390f35b348015610d9d57600080fd5b50610e0f600480360381019080803590602001908201803590602001908080601f016020809104026020016040519081016040528093929190818152602001838380828437820191505050505050919291929080359060200190929190803560ff169060200190929190505050613afe565b604051808215151515815260200191505060405180910390f35b348015610e3557600080fd5b50610e6a600480360381019080803573ffffffffffffffffffffffffffffffffffffffff169060200190929190505050613c69565b6040518082815260200191505060405180910390f35b348015610e8c57600080fd5b50610ec1600480360381019080803573ffffffffffffffffffffffffffffffffffffffff169060200190929190505050613c81565b6040518082815260200191505060405180910390f35b348015610ee357600080fd5b50610eec613cca565b6040518082815260200191505060405180910390f35b348015610f0e57600080fd5b50610f43600480360381019080803573ffffffffffffffffffffffffffffffffffffffff169060200190929190505050613cd0565b005b348015610f5157600080fd5b50610f7060048036038101908080359060200190929190505050613ed0565b6040518082815260200191505060405180910390f35b348015610f9257600080fd5b50610ffa600480360381019080803590602001908201803590602001908080601f0160208091040260200160405190810160405280939291908181526020018383808284378201915050505050509192919290803560ff169060200190929190505050613f0d565b604051808267ffffffffffffffff1667ffffffffffffffff16815260200191505060405180910390f35b34801561103057600080fd5b5061106d60048036038101908080359060200190929190803590602001909291908035906020019092919080359060200190929190505050614036565b6040518082815260200191505060405180910390f35b34801561108f57600080fd5b506110db600480360381019080803573ffffffffffffffffffffffffffffffffffffffff169060200190929190803560ff16906020019092919080359060200190929190505050614076565b604051808215151515815260200191505060405180910390f35b34801561110157600080fd5b5061113e6004803603810190808035906020019092919080359060200190929190803567ffffffffffffffff169060200190929190505050614152565b6040518082815260200191505060405180910390f35b34801561116057600080fd5b506111d2600480360381019080803590602001908201803590602001908080601f0160208091040260200160405190810160405280939291908181526020018383808284378201915050505050509192919290803560ff16906020019092919080359060200190929190505050614564565b604051808215151515815260200191505060405180910390f35b3480156111f857600080fd5b50611217600480360381019080803590602001909291905050506146c5565b6040518082815260200191505060405180910390f35b34801561123957600080fd5b5061126e600480360381019080803573ffffffffffffffffffffffffffffffffffffffff169060200190929190505050614718565b005b34801561127c57600080fd5b506112856147bd565b604051808273ffffffffffffffffffffffffffffffffffffffff1673ffffffffffffffffffffffffffffffffffffffff16815260200191505060405180910390f35b3480156112d357600080fd5b5061133b600480360381019080803590602001908201803590602001908080601f0160208091040260200160405190810160405280939291908181526020018383808284378201915050505050509192919290803560ff1690602001909291905050506147e3565b604051808215151515815260200191505060405180910390f35b34801561136157600080fd5b5061136a61491c565b604051808273ffffffffffffffffffffffffffffffffffffffff1673ffffffffffffffffffffffffffffffffffffffff16815260200191505060405180910390f35b3480156113b857600080fd5b506113d760048036038101908080359060200190929190505050614941565b604051808273ffffffffffffffffffffffffffffffffffffffff1673ffffffffffffffffffffffffffffffffffffffff16815260200191505060405180910390f35b34801561142557600080fd5b506114a0600480360381019080803573ffffffffffffffffffffffffffffffffffffffff169060200190929190803590602001908201803590602001908080601f0160208091040260200160405190810160405280939291908181526020018383808284378201915050505050509192919290505050614976565b6040518080602001828103825283818151815260200191508051906020019080838360005b838110156114e05780820151818401526020810190506114c5565b50505050905090810190601f16801561150d5780820380516001836020036101000a031916815260200191505b509250505060405180910390f35b34801561152757600080fd5b50611530614df8565b005b34801561153e57600080fd5b5061157c600480360381019080803568ffffffffffffffffff169060200190929190803567ffffffffffffffff169060200190929190505050614ebe565b604051808260ff1660ff16815260200191505060405180910390f35b3480156115a457600080fd5b506115d9600480360381019080803573ffffffffffffffffffffffffffffffffffffffff16906020019092919050505061519e565b005b3480156115e757600080fd5b50611606600480360381019080803590602001909291905050506153b5565b6040518080602001828103825283818151815260200191508051906020019080838360005b8381101561164657808201518184015260208101905061162b565b50505050905090810190601f1680156116735780820380516001836020036101000a031916815260200191505b509250505060405180910390f35b600080600d60008473ffffffffffffffffffffffffffffffffffffffff1673ffffffffffffffffffffffffffffffffffffffff1681526020019081526020016000205414159050919050565b6000806000600b856040518082805190602001908083835b60208310151561170a57805182526020820191506020810190506020830392506116e5565b6001836020036101000a038019825116818451168082178552505050505050905001915050908152602001604051809103902060009054906101000a900473ffffffffffffffffffffffffffffffffffffffff169150600a60008373ffffffffffffffffffffffffffffffffffffffff1673ffffffffffffffffffffffffffffffffffffffff1681526020019081526020016000205490506009600082815260200190815260200160002060080160008560ff1660ff168152602001908152602001600020600001805490509250505092915050565b600080600080600c856040518082805190602001908083835b60208310151561181e57805182526020820191506020810190506020830392506117f9565b6001836020036101000a038019825116818451168082178552505050505050905001915050908152602001604051809103902060009054906101000a900460ff16151561186a57600080fd5b600b856040518082805190602001908083835b6020831015156118a2578051825260208201915060208101905060208303925061187d565b6001836020036101000a038019825116818451168082178552505050505050905001915050908152602001604051809103902060009054906101000a900473ffffffffffffffffffffffffffffffffffffffff169250600a60008473ffffffffffffffffffffffffffffffffffffffff1673ffffffffffffffffffffffffffffffffffffffff1681526020019081526020016000205491506009600083815260200190815260200160002090508060060160009054906101000a900460ff1660ff169350505050919050565b60008060008060008060001515600760009054906101000a900460ff16151514151561199957600080fd5b600b876040518082805190602001908083835b6020831015156119d157805182526020820191506020810190506020830392506119ac565b6001836020036101000a038019825116818451168082178552505050505050905001915050908152602001604051809103902060009054906101000a900473ffffffffffffffffffffffffffffffffffffffff169450600a60008673ffffffffffffffffffffffffffffffffffffffff1673ffffffffffffffffffffffffffffffffffffffff168152602001908152602001600020549350600960008581526020019081526020016000209250611a888888612593565b95503491508260080160008960ff1660ff16815260200190815260200160002060010160009054906101000a900468ffffffffffffffffff1668ffffffffffffffffff168210151515611ada57600080fd5b611ae485836154c2565b60028360080160008a60ff1660ff16815260200190815260200160002060000187815481101515611b1157fe5b90600052602060002090602091828204019190066101000a81548160ff02191690836003811115611b3e57fe5b021790555085600f60003373ffffffffffffffffffffffffffffffffffffffff1673ffffffffffffffffffffffffffffffffffffffff168152602001908152602001600020819055508260080160008960ff1660ff168152602001908152602001600020600101600981819054906101000a900467ffffffffffffffff16809291906001900391906101000a81548167ffffffffffffffff021916908367ffffffffffffffff160217905550508260080160008960ff1660ff16815260200190815260200160002060010160099054906101000a900467ffffffffffffffff169050505050505092915050565b60006012836040518082805190602001908083835b602083101515611c655780518252602082019150602081019050602083039250611c40565b6001836020036101000a038019825116818451168082178552505050505050905001915050908152602001604051809103902060008360ff1660ff16815260200190815260200160002054905092915050565b600080600b836040518082805190602001908083835b602083101515611cf35780518252602082019150602081019050602083039250611cce565b6001836020036101000a038019825116818451168082178552505050505050905001915050908152602001604051809103902060009054906101000a900473ffffffffffffffffffffffffffffffffffffffff16905080915050919050565b600080600080600b866040518082805190602001908083835b602083101515611d905780518252602082019150602081019050602083039250611d6b565b6001836020036101000a038019825116818451168082178552505050505050905001915050908152602001604051809103902060009054906101000a900473ffffffffffffffffffffffffffffffffffffffff169250600d60008473ffffffffffffffffffffffffffffffffffffffff1673ffffffffffffffffffffffffffffffffffffffff1681526020019081526020016000205491506009600083815260200190815260200160002090508060080160008660ff1660ff16815260200190815260200160002060010160009054906101000a900468ffffffffffffffffff16935050505092915050565b6000600c826040518082805190602001908083835b602083101515611eb65780518252602082019150602081019050602083039250611e91565b6001836020036101000a038019825116818451168082178552505050505050905001915050908152602001604051809103902060009054906101000a900460ff169050919050565b600f6020528060005260406000206000915090505481565b6000809054906101000a900473ffffffffffffffffffffffffffffffffffffffff1673ffffffffffffffffffffffffffffffffffffffff163373ffffffffffffffffffffffffffffffffffffffff16141515611f7157600080fd5b60001515600760009054906101000a900460ff161515141515611f9357600080fd5b6001600760006101000a81548160ff0219169083151502179055507f6985a02210a168e66602d3235cb6db0e70f92b3ba4d376a33c0f3d9434bff62560405160405180910390a1565b6000806000806000806000801515600760009054906101000a900460ff16151514151561200857600080fd5b601160008a81526020019081526020016000209550612026866155c2565b151561203157600080fd5b34945061203d866155f0565b935083851015151561204e57600080fd5b8560000160009054906101000a900473ffffffffffffffffffffffffffffffffffffffff16925061207e896156b4565b61208883866154c2565b600d60008473ffffffffffffffffffffffffffffffffffffffff1673ffffffffffffffffffffffffffffffffffffffff16815260200190815260200160002054915060096000838152602001908152602001600020905060028160080160008a60ff1660ff168152602001908152602001600020600001600081548110151561210d57fe5b90600052602060002090602091828204019190066101000a81548160ff0219169083600381111561213a57fe5b02179055503373ffffffffffffffffffffffffffffffffffffffff168860ff167fefbcc64f981e16228c4d01a58ecea3a1549e873e5f7fe8b01287765d3c33785b8360070160405180806020018281038252838181546001816001161561010002031660029004815260200191508054600181600116156101000203166002900480156122085780601f106121dd57610100808354040283529160200191612208565b820191906000526020600020905b8154815290600101906020018083116121eb57829003601f168201915b50509250505060405180910390a37f391f37ee14cb2bac7ab5022640f6cc73659fa7c1ce7e4786cba2338c830c527e888533604051808460ff1660ff1681526020018381526020018273ffffffffffffffffffffffffffffffffffffffff1673ffffffffffffffffffffffffffffffffffffffff168152602001935050505060405180910390a183965050505050505092915050565b6000809054906101000a900473ffffffffffffffffffffffffffffffffffffffff1673ffffffffffffffffffffffffffffffffffffffff163373ffffffffffffffffffffffffffffffffffffffff161415156122f957600080fd5b6000809054906101000a900473ffffffffffffffffffffffffffffffffffffffff1673ffffffffffffffffffffffffffffffffffffffff166108fc3073ffffffffffffffffffffffffffffffffffffffff16319081150290604051600060405180830381858888f19350505050158015612377573d6000803e3d6000fd5b50565b6000806000809054906101000a900473ffffffffffffffffffffffffffffffffffffffff1673ffffffffffffffffffffffffffffffffffffffff163373ffffffffffffffffffffffffffffffffffffffff161415156123d857600080fd5b60001515600760009054906101000a900460ff1615151415156123fa57600080fd5b60009150600090505b60048111158015612418575060001515821515145b1561257e578273ffffffffffffffffffffffffffffffffffffffff1660018260058110151561244357fe5b0160009054906101000a900473ffffffffffffffffffffffffffffffffffffffff1673ffffffffffffffffffffffffffffffffffffffff16141561257157600060018260058110151561249257fe5b0160006101000a81548173ffffffffffffffffffffffffffffffffffffffff021916908373ffffffffffffffffffffffffffffffffffffffff1602179055506000600660008573ffffffffffffffffffffffffffffffffffffffff1673ffffffffffffffffffffffffffffffffffffffff16815260200190815260200160002060006101000a81548160ff021916908315150217905550600191508273ffffffffffffffffffffffffffffffffffffffff167fdca59b6371f7db6faad5c9931588f735722795c7b8ea859824e0afc8b2c70a4f60405160405180910390a25b8080600101915050612403565b6001151582151514151561258e57fe5b505050565b6000806000806000806000809550600b886040518082805190602001908083835b6020831015156125d957805182526020820191506020810190506020830392506125b4565b6001836020036101000a038019825116818451168082178552505050505050905001915050908152602001604051809103902060009054906101000a900473ffffffffffffffffffffffffffffffffffffffff169350600d60008573ffffffffffffffffffffffffffffffffffffffff1673ffffffffffffffffffffffffffffffffffffffff1681526020019081526020016000205492506009600084815260200190815260200160002091505b8160080160008a60ff1660ff16815260200190815260200160002060000180549050811080156126bb575060001515861515145b1561273e57600060038111156126cd57fe5b8260080160008b60ff1660ff168152602001908152602001600020600001828154811015156126f857fe5b90600052602060002090602091828204019190069054906101000a900460ff16600381111561272357fe5b141561273157809450600195505b8080600101915050612687565b6001151586151514151561274e57fe5b84965050505050505092915050565b60008060009054906101000a900473ffffffffffffffffffffffffffffffffffffffff1673ffffffffffffffffffffffffffffffffffffffff163373ffffffffffffffffffffffffffffffffffffffff161415156127ba57600080fd5b60001515600760009054906101000a900460ff1615151415156127dc57600080fd5b600073ffffffffffffffffffffffffffffffffffffffff168273ffffffffffffffffffffffffffffffffffffffff161415151561281857600080fd5b6000809054906101000a900473ffffffffffffffffffffffffffffffffffffffff169050816000806101000a81548173ffffffffffffffffffffffffffffffffffffffff021916908373ffffffffffffffffffffffffffffffffffffffff1602179055508073ffffffffffffffffffffffffffffffffffffffff168273ffffffffffffffffffffffffffffffffffffffff167f1f8d7d25344642d919d55999e4664aa452a5f424bc0936ceb9c2b300db7dcbd960405160405180910390a35050565b601360009054906101000a900473ffffffffffffffffffffffffffffffffffffffff1681565b6000806000806000600c866040518082805190602001908083835b602083101515612940578051825260208201915060208101905060208303925061291b565b6001836020036101000a038019825116818451168082178552505050505050905001915050908152602001604051809103902060009054906101000a900460ff16151561298c57600080fd5b600b866040518082805190602001908083835b6020831015156129c4578051825260208201915060208101905060208303925061299f565b6001836020036101000a038019825116818451168082178552505050505050905001915050908152602001604051809103902060009054906101000a900473ffffffffffffffffffffffffffffffffffffffff169350600a60008573ffffffffffffffffffffffffffffffffffffffff1673ffffffffffffffffffffffffffffffffffffffff1681526020019081526020016000205492506009600084815260200190815260200160002091508160080160008860ff1660ff16815260200190815260200160002090508060010160119054906101000a900460ff1694505050505092915050565b60008060008060018610158015612ac4575060058611155b1515612acf57600080fd5b600b856040518082805190602001908083835b602083101515612b075780518252602082019150602081019050602083039250612ae2565b6001836020036101000a038019825116818451168082178552505050505050905001915050908152602001604051809103902060009054906101000a900473ffffffffffffffffffffffffffffffffffffffff169250600a60008473ffffffffffffffffffffffffffffffffffffffff1673ffffffffffffffffffffffffffffffffffffffff168152602001908152602001600020549150600960008381526020019081526020016000209050600060061115612bf8578060000186600681101515612bcf57fe5b0160009054906101000a900473ffffffffffffffffffffffffffffffffffffffff169350612bfd565b600093505b50505092915050565b60008060008060009054906101000a900473ffffffffffffffffffffffffffffffffffffffff1673ffffffffffffffffffffffffffffffffffffffff163373ffffffffffffffffffffffffffffffffffffffff16141515612c6657600080fd5b60001515600760009054906101000a900460ff161515141515612c8857600080fd5b600073ffffffffffffffffffffffffffffffffffffffff168473ffffffffffffffffffffffffffffffffffffffff1614151515612cc457600080fd5b5b600483111515612d4f578373ffffffffffffffffffffffffffffffffffffffff16600184600581101515612cf557fe5b0160009054906101000a900473ffffffffffffffffffffffffffffffffffffffff1673ffffffffffffffffffffffffffffffffffffffff161415612d445760026001141515612d4357600080fd5b5b826001019250612cc5565b600091505b60048111158015612d69575060001515821515145b15612eb9576000600182600581101515612d7f57fe5b0160009054906101000a900473ffffffffffffffffffffffffffffffffffffffff1673ffffffffffffffffffffffffffffffffffffffff161415612eac5783600182600581101515612dcd57fe5b0160006101000a81548173ffffffffffffffffffffffffffffffffffffffff021916908373ffffffffffffffffffffffffffffffffffffffff1602179055506001600660008673ffffffffffffffffffffffffffffffffffffffff1673ffffffffffffffffffffffffffffffffffffffff16815260200190815260200160002060006101000a81548160ff021916908315150217905550600191508373ffffffffffffffffffffffffffffffffffffffff167f39e7d4b9ba48f55a740a5192809dbc498fa12724c030b37dab126a3f6774c0f360405160405180910390a25b8080600101915050612d54565b60011515821515141515612ec957fe5b50505050565b60008060116000848152602001908152602001600020905042915050919050565b6000806000809054906101000a900473ffffffffffffffffffffffffffffffffffffffff1673ffffffffffffffffffffffffffffffffffffffff163373ffffffffffffffffffffffffffffffffffffffff161480612f9e575060011515600660003373ffffffffffffffffffffffffffffffffffffffff1673ffffffffffffffffffffffffffffffffffffffff16815260200190815260200160002060009054906101000a900460ff161515145b1515612fa957600080fd5b600b836040518082805190602001908083835b602083101515612fe15780518252602082019150602081019050602083039250612fbc565b6001836020036101000a038019825116818451168082178552505050505050905001915050908152602001604051809103902060009054906101000a900473ffffffffffffffffffffffffffffffffffffffff1691506000600a60008473ffffffffffffffffffffffffffffffffffffffff1673ffffffffffffffffffffffffffffffffffffffff168152602001908152602001600020541415151561308657600080fd5b6000600c846040518082805190602001908083835b6020831015156130c0578051825260208201915060208101905060208303925061309b565b6001836020036101000a038019825116818451168082178552505050505050905001915050908152602001604051809103902060006101000a81548160ff021916908315150217905550600a60008373ffffffffffffffffffffffffffffffffffffffff1673ffffffffffffffffffffffffffffffffffffffff16815260200190815260200160002054905060096000828152602001908152602001600020600080820160006131709190615b00565b6006820160006101000a81549060ff02191690556007820160006131949190615b13565b50508173ffffffffffffffffffffffffffffffffffffffff167f99834834070224a7bc8eee507b8f041592b6cd80dd705f79f81b42487b0b460d60405160405180910390a26000600a60008473ffffffffffffffffffffffffffffffffffffffff1673ffffffffffffffffffffffffffffffffffffffff168152602001908152602001600020819055508173ffffffffffffffffffffffffffffffffffffffff167fe6547a945aa917d8f8b8a71a98062b03570c5ab79d6f47aa64dab5ae6483e0c860405160405180910390a2505050565b60008060008060001515600760009054906101000a900460ff16151514151561328e57600080fd5b6000600d60003373ffffffffffffffffffffffffffffffffffffffff1673ffffffffffffffffffffffffffffffffffffffff16815260200190815260200160002054141515156132dd57600080fd5b600d60003373ffffffffffffffffffffffffffffffffffffffff1673ffffffffffffffffffffffffffffffffffffffff1681526020019081526020016000205492506009600084815260200190815260200160002091506002600381111561334157fe5b8260080160008760ff1660ff1681526020019081526020016000206000018781548110151561336c57fe5b90600052602060002090602091828204019190069054906101000a900460ff16600381111561339757fe5b1415156133a357600080fd5b600093508160080160008660ff1660ff16815260200190815260200160002060010160009054906101000a900468ffffffffffffffffff16905060038260080160008760ff1660ff1681526020019081526020016000206000018781548110151561340a57fe5b90600052602060002090602091828204019190066101000a81548160ff0219169083600381111561343757fe5b0217905550600193508460ff16867fa88cd15baa294be44c222117dcf9e5a965809cae03e05f544dc401b296cafabc8460070160405180806020018281038252838181546001816001161561010002031660029004815260200191508054600181600116156101000203166002900480156134f35780601f106134c8576101008083540402835291602001916134f3565b820191906000526020600020905b8154815290600101906020018083116134d657829003601f168201915b50509250505060405180910390a361359f600b8360070160405180828054600181600116156101000203166002900480156135655780601f10613543576101008083540402835291820191613565565b820191906000526020600020905b815481529060010190602001808311613551575b5050915050908152602001604051809103902060009054906101000a900473ffffffffffffffffffffffffffffffffffffffff1682615770565b50505092915050565b6000801515600760009054906101000a900460ff1615151415156135cb57600080fd5b600660008373ffffffffffffffffffffffffffffffffffffffff1673ffffffffffffffffffffffffffffffffffffffff16815260200190815260200160002060009054906101000a900460ff169050919050565b600760009054906101000a900460ff1681565b6000806011600084815260200190815260200160002090508060020160009054906101000a900467ffffffffffffffff1667ffffffffffffffff16915050919050565b600080600080600a60003373ffffffffffffffffffffffffffffffffffffffff1673ffffffffffffffffffffffffffffffffffffffff16815260200190815260200160002054141515156136c857600080fd5b60001515600760009054906101000a900460ff1615151415156136ea57600080fd5b600a60003373ffffffffffffffffffffffffffffffffffffffff1673ffffffffffffffffffffffffffffffffffffffff16815260200190815260200160002054915060096000838152602001908152602001600020905060008568ffffffffffffffffff161015151561375c57600080fd5b600015158160080160008660ff1660ff16815260200190815260200160002060010160119054906101000a900460ff16151514151561379a57600080fd5b848160080160008660ff1660ff16815260200190815260200160002060010160006101000a81548168ffffffffffffffffff021916908368ffffffffffffffffff160217905550849250505092915050565b6000806011600084815260200190815260200160002060020160089054906101000a900467ffffffffffffffff16905060008167ffffffffffffffff161415156138385780915061383d565b600091505b50919050565b600080600080600080600d60003373ffffffffffffffffffffffffffffffffffffffff1673ffffffffffffffffffffffffffffffffffffffff168152602001908152602001600020541415151561389957600080fd5b60001515600760009054906101000a900460ff1615151415156138bb57600080fd5b600d60003373ffffffffffffffffffffffffffffffffffffffff1673ffffffffffffffffffffffffffffffffffffffff168152602001908152602001600020549350600960008581526020019081526020016000209250858360080160008960ff1660ff16815260200190815260200160002060010160098282829054906101000a900467ffffffffffffffff160192506101000a81548167ffffffffffffffff021916908367ffffffffffffffff1602179055508260080160008860ff1660ff16815260200190815260200160002060010160119054906101000a900460ff169150600015158215151415156139b157600080fd5b5b8567ffffffffffffffff16811015613a3e578260080160008860ff1660ff1681526020019081526020016000206000016000908060018154018082558091505090600182039060005260206000209060209182820401919006909192909190916101000a81548160ff02191690836003811115613a2b57fe5b02179055505080806001019150506139b2565b8660ff167fcd54f669064af9fb6802bd64bd9ae5303d604527aec88e9024bc9517c945fab78460080160008a60ff1660ff16815260200190815260200160002060010160099054906101000a900467ffffffffffffffff16604051808267ffffffffffffffff1667ffffffffffffffff16815260200191505060405180910390a28260080160008860ff1660ff16815260200190815260200160002060010160099054906101000a900467ffffffffffffffff1694505050505092915050565b600080600080600b876040518082805190602001908083835b602083101515613b3c5780518252602082019150602081019050602083039250613b17565b6001836020036101000a038019825116818451168082178552505050505050905001915050908152602001604051809103902060009054906101000a900473ffffffffffffffffffffffffffffffffffffffff169250600a60008473ffffffffffffffffffffffffffffffffffffffff1673ffffffffffffffffffffffffffffffffffffffff168152602001908152602001600020549150600960008381526020019081526020016000209050600380811115613bf557fe5b8160080160008760ff1660ff16815260200190815260200160002060000187815481101515613c2057fe5b90600052602060002090602091828204019190069054906101000a900460ff166003811115613c4b57fe5b1415613c5a5760019350613c5f565b600093505b5050509392505050565b600a6020528060005260406000206000915090505481565b6000600f60008373ffffffffffffffffffffffffffffffffffffffff1673ffffffffffffffffffffffffffffffffffffffff168152602001908152602001600020549050919050565b60085481565b60008060008060001515600760009054906101000a900460ff161515141515613cf857600080fd5b6000600a60003373ffffffffffffffffffffffffffffffffffffffff1673ffffffffffffffffffffffffffffffffffffffff1681526020019081526020016000205414151515613d4757600080fd5b600a60003373ffffffffffffffffffffffffffffffffffffffff1673ffffffffffffffffffffffffffffffffffffffff16815260200190815260200160002054935060096000858152602001908152602001600020925060009150600190505b60058111158015613dbc575060001515821515145b15613eb95760008360000182600681101515613dd457fe5b0160009054906101000a900473ffffffffffffffffffffffffffffffffffffffff1673ffffffffffffffffffffffffffffffffffffffff161415613eac5760019150848360000182600681101515613e2857fe5b0160006101000a81548173ffffffffffffffffffffffffffffffffffffffff021916908373ffffffffffffffffffffffffffffffffffffffff16021790555083600d60008773ffffffffffffffffffffffffffffffffffffffff1673ffffffffffffffffffffffffffffffffffffffff168152602001908152602001600020819055505b8080600101915050613da7565b60011515821515141515613ec957fe5b5050505050565b600080601160008481526020019081526020016000209050613ef1816155c2565b1515613efc57600080fd5b613f05816155f0565b915050919050565b600080600080600b866040518082805190602001908083835b602083101515613f4b5780518252602082019150602081019050602083039250613f26565b6001836020036101000a038019825116818451168082178552505050505050905001915050908152602001604051809103902060009054906101000a900473ffffffffffffffffffffffffffffffffffffffff169250600d60008473ffffffffffffffffffffffffffffffffffffffff1673ffffffffffffffffffffffffffffffffffffffff1681526020019081526020016000205491506009600083815260200190815260200160002090508060080160008660ff1660ff16815260200190815260200160002060010160099054906101000a900467ffffffffffffffff16935050505092915050565b600080600080858510151561404d5786935061406b565b87870392508585840281151561405f57fe5b05915081880190508093505b505050949350505050565b6000806000600d60008773ffffffffffffffffffffffffffffffffffffffff1673ffffffffffffffffffffffffffffffffffffffff168152602001908152602001600020549150600960008381526020019081526020016000209050600260038111156140df57fe5b8160080160008760ff1660ff1681526020019081526020016000206000018581548110151561410a57fe5b90600052602060002090602091828204019190069054906101000a900460ff16600381111561413557fe5b14156141445760019250614149565b600092505b50509392505050565b600080600061415f615b5b565b600080600080600d60003373ffffffffffffffffffffffffffffffffffffffff1673ffffffffffffffffffffffffffffffffffffffff16815260200190815260200160002054141515156141b257600080fd5b60001515600760009054906101000a900460ff1615151415156141d457600080fd5b600d60003373ffffffffffffffffffffffffffffffffffffffff1673ffffffffffffffffffffffffffffffffffffffff16815260200190815260200160002054955060096000878152602001908152602001600020945060806040519081016040528060006040519080825280602002602001820160405280156142675781602001602082028038833980820191505090505b5081526020018b68ffffffffffffffffff168152602001600167ffffffffffffffff1681526020016001151581525093508460060160009054906101000a900460ff169250838560080160008560ff1660ff16815260200190815260200160002060008201518160000190805190602001906142e4929190615b9b565b5060208201518160010160006101000a81548168ffffffffffffffffff021916908368ffffffffffffffffff16021790555060408201518160010160096101000a81548167ffffffffffffffff021916908367ffffffffffffffff16021790555060608201518160010160116101000a81548160ff02191690831515021790555090505060018560060160008282829054906101000a900460ff160192506101000a81548160ff021916908360ff160217905550600b8560070160405180828054600181600116156101000203166002900480156143f95780601f106143d75761010080835404028352918201916143f9565b820191906000526020600020905b8154815290600101906020018083116143e5575b5050915050908152602001604051809103902060009054906101000a900473ffffffffffffffffffffffffffffffffffffffff1691508460080160008460ff1660ff1681526020019081526020016000206000016001908060018154018082558091505090600182039060005260206000209060209182820401919006909192909190916101000a81548160ff0219169083600381111561449657fe5b02179055505060105490508060128660070160405180828054600181600116156101000203166002900480156145035780601f106144e1576101008083540402835291820191614503565b820191906000526020600020905b8154815290600101906020018083116144ef575b5050915050908152602001604051809103902060008560ff1660ff168152602001908152602001600020819055506001601054016010819055506145548a8a8a67ffffffffffffffff168585615867565b8696505050505050509392505050565b6000806000806000600b886040518082805190602001908083835b6020831015156145a4578051825260208201915060208101905060208303925061457f565b6001836020036101000a038019825116818451168082178552505050505050905001915050908152602001604051809103902060009054906101000a900473ffffffffffffffffffffffffffffffffffffffff169350600a60008573ffffffffffffffffffffffffffffffffffffffff1673ffffffffffffffffffffffffffffffffffffffff1681526020019081526020016000205492506009600084815260200190815260200160002091508160080160008860ff1660ff1681526020019081526020016000206000018681548110151561467c57fe5b90600052602060002090602091828204019190069054906101000a900460ff169050600260038111156146ab57fe5b8160038111156146b757fe5b149450505050509392505050565b6000806011600084815260200190815260200160002090508060010160109054906101000a90046fffffffffffffffffffffffffffffffff166fffffffffffffffffffffffffffffffff16915050919050565b60008060009054906101000a900473ffffffffffffffffffffffffffffffffffffffff1673ffffffffffffffffffffffffffffffffffffffff163373ffffffffffffffffffffffffffffffffffffffff1614151561477557600080fd5b81905080600e60006101000a81548173ffffffffffffffffffffffffffffffffffffffff021916908373ffffffffffffffffffffffffffffffffffffffff1602179055505050565b600e60009054906101000a900473ffffffffffffffffffffffffffffffffffffffff1681565b600080600080600b866040518082805190602001908083835b60208310151561482157805182526020820191506020810190506020830392506147fc565b6001836020036101000a038019825116818451168082178552505050505050905001915050908152602001604051809103902060009054906101000a900473ffffffffffffffffffffffffffffffffffffffff169250600d60008473ffffffffffffffffffffffffffffffffffffffff1673ffffffffffffffffffffffffffffffffffffffff16815260200190815260200160002054915060096000838152602001908152602001600020905060008160080160008760ff1660ff16815260200190815260200160002060010160009054906101000a900468ffffffffffffffffff1668ffffffffffffffffff161415935050505092915050565b6000809054906101000a900473ffffffffffffffffffffffffffffffffffffffff1681565b60018160058110151561495057fe5b016000915054906101000a900473ffffffffffffffffffffffffffffffffffffffff1681565b6060614980615c4a565b614988615c6d565b6000809054906101000a900473ffffffffffffffffffffffffffffffffffffffff1673ffffffffffffffffffffffffffffffffffffffff163373ffffffffffffffffffffffffffffffffffffffff161480614a33575060011515600660003373ffffffffffffffffffffffffffffffffffffffff1673ffffffffffffffffffffffffffffffffffffffff16815260200190815260200160002060009054906101000a900460ff161515145b1515614a3e57600080fd5b60001515600760009054906101000a900460ff161515141515614a6057600080fd5b6000600a60008773ffffffffffffffffffffffffffffffffffffffff1673ffffffffffffffffffffffffffffffffffffffff16815260200190815260200160002054141515614aae57600080fd5b60001515600c856040518082805190602001908083835b602083101515614aea5780518252602082019150602081019050602083039250614ac5565b6001836020036101000a038019825116818451168082178552505050505050905001915050908152602001604051809103902060009054906101000a900460ff161515141515614b3957600080fd5b606060405190810160405280838152602001600060ff168152602001858152509050600854600a60008773ffffffffffffffffffffffffffffffffffffffff1673ffffffffffffffffffffffffffffffffffffffff16815260200190815260200160002081905550600854600d60008773ffffffffffffffffffffffffffffffffffffffff1673ffffffffffffffffffffffffffffffffffffffff1681526020019081526020016000208190555080600960006008548152602001908152602001600020600082015181600001906006614c14929190615c99565b5060208201518160060160006101000a81548160ff021916908360ff1602179055506040820151816007019080519060200190614c52929190615d16565b5090505060086000815480929190600101919050555084600b82604001516040518082805190602001908083835b602083101515614ca55780518252602082019150602081019050602083039250614c80565b6001836020036101000a038019825116818451168082178552505050505050905001915050908152602001604051809103902060006101000a81548173ffffffffffffffffffffffffffffffffffffffff021916908373ffffffffffffffffffffffffffffffffffffffff1602179055506001600c82604001516040518082805190602001908083835b602083101515614d545780518252602082019150602081019050602083039250614d2f565b6001836020036101000a038019825116818451168082178552505050505050905001915050908152602001604051809103902060006101000a81548160ff0219169083151502179055508481600001516000600681101515614db257fe5b602002019073ffffffffffffffffffffffffffffffffffffffff16908173ffffffffffffffffffffffffffffffffffffffff168152505080604001519250505092915050565b6000809054906101000a900473ffffffffffffffffffffffffffffffffffffffff1673ffffffffffffffffffffffffffffffffffffffff163373ffffffffffffffffffffffffffffffffffffffff16141515614e5357600080fd5b60011515600760009054906101000a900460ff161515141515614e7557600080fd5b6000600760006101000a81548160ff0219169083151502179055507f7805862f689e2f13df9f062ff482ad3ad112aca9e0847911ed832e158c525b3360405160405180910390a1565b6000806000614ecb615b5b565b6000801515600760009054906101000a900460ff161515141515614eee57600080fd5b6000600d60003373ffffffffffffffffffffffffffffffffffffffff1673ffffffffffffffffffffffffffffffffffffffff1681526020019081526020016000205414151515614f3d57600080fd5b600d60003373ffffffffffffffffffffffffffffffffffffffff1673ffffffffffffffffffffffffffffffffffffffff1681526020019081526020016000205493506009600085815260200190815260200160002092506080604051908101604052806000604051908082528060200260200182016040528015614fd05781602001602082028038833980820191505090505b5081526020018868ffffffffffffffffff1681526020018767ffffffffffffffff1681526020016000151581525091508260060160009054906101000a900460ff169450818360080160008760ff1660ff168152602001908152602001600020600082015181600001908051906020019061504c929190615b9b565b5060208201518160010160006101000a81548168ffffffffffffffffff021916908368ffffffffffffffffff16021790555060408201518160010160096101000a81548167ffffffffffffffff021916908367ffffffffffffffff16021790555060608201518160010160116101000a81548160ff02191690831515021790555090505082600601600081819054906101000a900460ff168092919060010191906101000a81548160ff021916908360ff160217905550505b8567ffffffffffffffff16811015615191578260080160008660ff1660ff1681526020019081526020016000206000016000908060018154018082558091505090600182039060005260206000209060209182820401919006909192909190916101000a81548160ff0219169083600381111561517e57fe5b0217905550508080600101915050615105565b8494505050505092915050565b6000806000806000600a60003373ffffffffffffffffffffffffffffffffffffffff1673ffffffffffffffffffffffffffffffffffffffff16815260200190815260200160002054141515156151f357600080fd5b60001515600760009054906101000a900460ff16151514151561521557600080fd5b600a60003373ffffffffffffffffffffffffffffffffffffffff1673ffffffffffffffffffffffffffffffffffffffff16815260200190815260200160002054935060096000858152602001908152602001600020925060009150600190505b6005811115801561528a575060001515821515145b1561539e578473ffffffffffffffffffffffffffffffffffffffff1683600001826006811015156152b757fe5b0160009054906101000a900473ffffffffffffffffffffffffffffffffffffffff1673ffffffffffffffffffffffffffffffffffffffff161415615391576000836000018260068110151561530857fe5b0160006101000a81548173ffffffffffffffffffffffffffffffffffffffff021916908373ffffffffffffffffffffffffffffffffffffffff1602179055506000600d60008773ffffffffffffffffffffffffffffffffffffffff1673ffffffffffffffffffffffffffffffffffffffff16815260200190815260200160002081905550600191505b8080600101915050615275565b600115158215151415156153ae57fe5b5050505050565b6060600080600160085414151561548257600960008581526020019081526020016000209150816007019050808054600181600116156101000203166002900480601f0160208091040260200160405190810160405280929190818152602001828054600181600116156101000203166002900480156154765780601f1061544b57610100808354040283529160200191615476565b820191906000526020600020905b81548152906001019060200180831161545957829003601f168201915b505050505092506154bb565b6040805190810160405280600181526020017f300000000000000000000000000000000000000000000000000000000000000081525092505b5050919050565b803073ffffffffffffffffffffffffffffffffffffffff1631101515156154e857600080fd5b600e60009054906101000a900473ffffffffffffffffffffffffffffffffffffffff1673ffffffffffffffffffffffffffffffffffffffff1663f340fa0182846040518363ffffffff167c0100000000000000000000000000000000000000000000000000000000028152600401808273ffffffffffffffffffffffffffffffffffffffff1673ffffffffffffffffffffffffffffffffffffffff1681526020019150506000604051808303818588803b1580156155a557600080fd5b505af11580156155b9573d6000803e3d6000fd5b50505050505050565b6000808260020160089054906101000a900467ffffffffffffffff1667ffffffffffffffff16119050919050565b6000808260020160089054906101000a900467ffffffffffffffff1667ffffffffffffffff16420390506156ac8360010160009054906101000a90046fffffffffffffffffffffffffffffffff166fffffffffffffffffffffffffffffffff168460010160109054906101000a90046fffffffffffffffffffffffffffffffff166fffffffffffffffffffffffffffffffff168560020160009054906101000a900467ffffffffffffffff1667ffffffffffffffff1684614036565b915050919050565b60116000828152602001908152602001600020600080820160006101000a81549073ffffffffffffffffffffffffffffffffffffffff02191690556001820160006101000a8154906fffffffffffffffffffffffffffffffff02191690556001820160106101000a8154906fffffffffffffffffffffffffffffffff02191690556002820160006101000a81549067ffffffffffffffff02191690556002820160086101000a81549067ffffffffffffffff0219169055505050565b600e60009054906101000a900473ffffffffffffffffffffffffffffffffffffffff1673ffffffffffffffffffffffffffffffffffffffff1663eb104bbb83836040518363ffffffff167c0100000000000000000000000000000000000000000000000000000000028152600401808373ffffffffffffffffffffffffffffffffffffffff1673ffffffffffffffffffffffffffffffffffffffff1681526020018268ffffffffffffffffff1668ffffffffffffffffff16815260200192505050600060405180830381600087803b15801561584b57600080fd5b505af115801561585f573d6000803e3d6000fd5b505050505050565b61586f615d96565b60001515600760009054906101000a900460ff16151514151561589157600080fd5b60a0604051908101604052808473ffffffffffffffffffffffffffffffffffffffff168152602001876fffffffffffffffffffffffffffffffff168152602001866fffffffffffffffffffffffffffffffff1681526020018567ffffffffffffffff1681526020014267ffffffffffffffff168152509050615913828261591b565b505050505050565b603c816060015167ffffffffffffffff161015151561593957600080fd5b806011600084815260200190815260200160002060008201518160000160006101000a81548173ffffffffffffffffffffffffffffffffffffffff021916908373ffffffffffffffffffffffffffffffffffffffff16021790555060208201518160010160006101000a8154816fffffffffffffffffffffffffffffffff02191690836fffffffffffffffffffffffffffffffff16021790555060408201518160010160106101000a8154816fffffffffffffffffffffffffffffffff02191690836fffffffffffffffffffffffffffffffff16021790555060608201518160020160006101000a81548167ffffffffffffffff021916908367ffffffffffffffff16021790555060808201518160020160086101000a81548167ffffffffffffffff021916908367ffffffffffffffff1602179055509050507fa9c8dfcda5664a5a124c713e386da27de87432d5b668e79458501eb296389ba78282602001516fffffffffffffffffffffffffffffffff1683604001516fffffffffffffffffffffffffffffffff16846060015167ffffffffffffffff166040518085815260200184815260200183815260200182815260200194505050505060405180910390a15050565b508060060190615b109190615e14565b50565b50805460018160011615610100020316600290046000825580601f10615b395750615b58565b601f016020900490600052602060002090810190615b579190615e14565b5b50565b60806040519081016040528060608152602001600068ffffffffffffffffff168152602001600067ffffffffffffffff1681526020016000151581525090565b82805482825590600052602060002090601f01602090048101928215615c395791602002820160005b83821115615c0a57835183826101000a81548160ff02191690836003811115615be957fe5b02179055509260200192600101602081600001049283019260010302615bc4565b8015615c375782816101000a81549060ff0219169055600101602081600001049283019260010302615c0a565b505b509050615c469190615e39565b5090565b60c060405190810160405280600690602082028038833980820191505090505090565b61010060405190810160405280615c82615e69565b8152602001600060ff168152602001606081525090565b8260068101928215615d05579160200282015b82811115615d045782518260006101000a81548173ffffffffffffffffffffffffffffffffffffffff021916908373ffffffffffffffffffffffffffffffffffffffff16021790555091602001919060010190615cac565b5b509050615d129190615e8c565b5090565b828054600181600116156101000203166002900490600052602060002090601f016020900481019282601f10615d5757805160ff1916838001178555615d85565b82800160010185558215615d85579182015b82811115615d84578251825591602001919060010190615d69565b5b509050615d929190615e14565b5090565b60a060405190810160405280600073ffffffffffffffffffffffffffffffffffffffff16815260200160006fffffffffffffffffffffffffffffffff16815260200160006fffffffffffffffffffffffffffffffff168152602001600067ffffffffffffffff168152602001600067ffffffffffffffff1681525090565b615e3691905b80821115615e32576000816000905550600101615e1a565b5090565b90565b615e6691905b80821115615e6257600081816101000a81549060ff021916905550600101615e3f565b5090565b90565b60c060405190810160405280600690602082028038833980820191505090505090565b615ecc91905b80821115615ec857600081816101000a81549073ffffffffffffffffffffffffffffffffffffffff021916905550600101615e92565b5090565b905600a165627a7a72305820363e9a3c480b4d924e78bfded447bccfb95abdc9df6269f4d5f95d65d0214d5b0029",
  "source": "pragma solidity ^0.4.24;\n\nimport \"./StoreAuction.sol\";\n\n/**\n  * @dev This contract represents a store in the Maat's network of stores. It\n  * is deployed from the StoreFactory contract\n  * @author Eric Brown (https://github.com/ericbrown99)\n  */\n\n  contract StoreCore is StoreAuction {\n    /*  Needs to be implemented:\n        - This is the core contract which manages all of the subcontracts. Use\n          this contract to create the constructor and implement upgradable\n          design patterns\n        - Manage\n        - Lookup function to find the addreses of owners associated with stores so\n          that Maats leadership can act on stores which aren't active\n    */\n\n    // For upgradeability\n    address public newContractAddress;\n    // emit event if funds donated to contract (don't take cut of sales)\n    event LogFundsReceived(address indexed _sender,uint _value);\n\n    /// @dev set the pause vaiable to true when creating the contract. THe owner\n    /// must ensure that the proper escrow contract is linked to the contract\n    /// and that the proxy has connected to the contract before unpausing the\n    /// contract as a security measure.\n\n    constructor() public{\n      pause = true;\n      maatsOwner == msg.sender;\n    }\n\n    /// @dev Fall back function with donations allowed\n    function() external payable{\n      if (msg.value >= 0){\n        emit LogFundsReceived(msg.sender, msg.value);\n      }\n    }\n\n    /* *****\n    /* All Getter Functions for the front end\n    /* ***** */\n\n    /// @dev used for testing to confimr that maats admins are infact added to array\n    function getIsAdmin(address _admin) public constant whenNotPaused returns(bool){\n      return isMaatsAdmin[_admin];\n    }\n\n    /// @dev Function for testing store creation and removal since\n    /// mappings with dynamic keys don't yet have public getter functions\n    function getStoreExists(string _storeName)public constant returns(bool){\n      return storeExists[_storeName];\n    }\n\n    /// @dev get the store name\n    function getStoreName(uint i) public constant returns(string){\n      if(currentStoreCount != 1){\n        Store storage _store = storeIdToStore[i];\n        string storage storeName = _store.storeName;\n        return storeName;\n      }\n      return \"0\";\n    }\n\n    /// @dev get store admins\n    function getIsStoreAdmin(address adminAddress)public constant returns(bool){\n      return (storeAdminToStoreId[adminAddress] != 0);\n    }\n\n    /// @dev If price ==0 its assumed it no longer exists\n    function getProductExists(string storeName,uint8 productId)public constant returns(bool){\n      address owner = StoreNameToOwner[storeName];\n      uint storeId = storeAdminToStoreId[owner];\n      Store storage current = storeIdToStore[storeId];\n      return (current.products[productId].price != 0);\n    }\n\n    // get current inventory of product\n    function getCurrentInventory(string storeName, uint8 productId) public constant returns(uint64){\n      address owner = StoreNameToOwner[storeName];\n      uint storeId = storeAdminToStoreId[owner];\n      Store storage current = storeIdToStore[storeId];\n      return current.products[productId].inventory;\n    }\n\n    // get current price of a set auction price\n    function getCurrentSetPrice(string storeName,uint8 productId)public constant returns(uint72){\n      address owner = StoreNameToOwner[storeName];\n      uint storeId = storeAdminToStoreId[owner];\n      Store storage current = storeIdToStore[storeId];\n      return current.products[productId].price;\n    }\n\n    // get admins of a store\n    function getStoreAdmins(uint index,string storeName)public constant returns(address){\n      require(index >=1 && index <=5);\n      address owner = StoreNameToOwner[storeName];\n      uint storeId = OwnerToStoreId[owner];\n      Store storage _store = storeIdToStore[storeId];\n      if(_store.storeAdmins.length > 0){\n        return(_store.storeAdmins[index]);\n      }\n      return(address(0));\n    }\n\n\n    function getNumProducts(string _storeName) public constant returns(uint){\n      require(storeExists[_storeName]);\n\n      address _owner = StoreNameToOwner[_storeName];\n      uint storeId = OwnerToStoreId[_owner];\n      Store storage _store = storeIdToStore[storeId];\n      return(_store.prodCount);\n    }\n\n    function getProductType(uint8 _productId,string _storeName) public constant returns(bool){\n      require(storeExists[_storeName]);\n      address _owner = StoreNameToOwner[_storeName];\n      uint storeId = OwnerToStoreId[_owner];\n      Store storage _store = storeIdToStore[storeId];\n      Product storage _product = _store.products[_productId];\n      return(_product.auction);\n    }\n\n    function getOwnerFromName(string _storeName) public constant returns(address){\n      address _owner = StoreNameToOwner[_storeName];\n      return(_owner);\n    }\n\n    ///////// Purchasing\n\n    /// @dev for testing purchasing\n    function getPurchase(address _purchaser)public constant returns(uint){\n      return purchaserToItem[_purchaser];\n    }\n\n    /// @dev for testing successful ship of item\n    function getItemShipped(string storeName,uint index,uint8 productId)\n     public\n     constant\n     returns(bool){\n       address owner = StoreNameToOwner[storeName];\n       uint storeId = OwnerToStoreId[owner];\n       Store storage current = storeIdToStore[storeId];\n      if(current.products[productId].items[index] == ItemStatus.Shipped){\n        return true;\n      }else{\n        return false;\n      }\n    }\n\n    /// @dev for testing the successful creation of an auciton\n\n    function getAuctionExists(uint auctionId)public constant returns(uint64){\n      uint64 currentTime = auctionIdToAuction[auctionId].startedAt;\n      if(currentTime != 0){\n        return currentTime;\n      }else{\n        return 0;\n      }\n    }\n\n    function getCurrentPrice(uint auctionId)\n        public\n        view\n        returns (uint256)\n    {\n        Auction storage auction = auctionIdToAuction[auctionId];\n        require(_isOnAuction(auction));\n        return _currentPrice(auction);\n    }\n\n    function getSecondsPassed(uint auctionId)\n    public\n    view\n    returns(uint256){\n        Auction storage auction = auctionIdToAuction[auctionId];\n        return now ;\n    }\n\n\n    function getDuration(uint auctionId)public constant returns(uint){\n      Auction storage auction = auctionIdToAuction[auctionId];\n      return (auction.duration);\n    }\n    function getReservePrice(uint auctionId) public constant returns(uint){\n      Auction storage auction = auctionIdToAuction[auctionId];\n      return auction.endingPrice;\n    }\n\n    function getItemLength(string storeName, uint8 productId)public constant returns(uint){\n      address owner = StoreNameToOwner[storeName];\n      uint storeId = OwnerToStoreId[owner];\n      return storeIdToStore[storeId].products[productId].items.length;\n    }\n\n    function getItemBought(string storeName, uint8 productId, uint index) public constant returns(bool){\n      address owner = StoreNameToOwner[storeName];\n      uint storeId = OwnerToStoreId[owner];\n      Store storage current = storeIdToStore[storeId];\n      ItemStatus _status = current.products[productId].items[index];\n      return(_status == ItemStatus.Bought);\n    }\n\n    function getAuctionId(string StoreName, uint8 productId) public constant returns(uint){\n      return(storeNameToAuctionId[StoreName][productId]);\n    }\n\n\n  }\n",
  "sourcePath": "/Users/ericbrown/Documents/Blockchain/ConsenSysCourse/GitHub/Maats/contracts/StoreCore.sol",
  "compiler": {
    "name": "solc",
    "version": "0.4.24+commit.e67f0147.Emscripten.clang"
  },
  "schemaVersion": "2.0.1",
  "updatedAt": "2018-08-20T17:43:17.989Z"
}