{
  "contractName": "StoreBase",
  "abi": [
    {
      "constant": true,
      "inputs": [
        {
          "name": "",
          "type": "address"
        }
      ],
      "name": "OwnerToStore",
      "outputs": [
        {
          "name": "storeName",
          "type": "string"
        },
        {
          "name": "open",
          "type": "bool"
        },
        {
          "name": "prodCount",
          "type": "uint8"
        }
      ],
      "payable": false,
      "stateMutability": "view",
      "type": "function"
    },
    {
      "constant": false,
      "inputs": [],
      "name": "withdraw",
      "outputs": [],
      "payable": false,
      "stateMutability": "nonpayable",
      "type": "function"
    },
    {
      "constant": false,
      "inputs": [],
      "name": "unpause",
      "outputs": [],
      "payable": false,
      "stateMutability": "nonpayable",
      "type": "function"
    },
    {
      "constant": false,
      "inputs": [
        {
          "name": "_revokedAdmin",
          "type": "address"
        }
      ],
      "name": "removeMaatsAdmin",
      "outputs": [],
      "payable": false,
      "stateMutability": "nonpayable",
      "type": "function"
    },
    {
      "constant": true,
      "inputs": [
        {
          "name": "",
          "type": "uint256"
        }
      ],
      "name": "storeOwners",
      "outputs": [
        {
          "name": "ownerAddress",
          "type": "address"
        },
        {
          "name": "ownerRanking",
          "type": "uint128"
        }
      ],
      "payable": false,
      "stateMutability": "view",
      "type": "function"
    },
    {
      "constant": true,
      "inputs": [
        {
          "name": "",
          "type": "address"
        }
      ],
      "name": "isStoreOwner",
      "outputs": [
        {
          "name": "",
          "type": "bool"
        }
      ],
      "payable": false,
      "stateMutability": "view",
      "type": "function"
    },
    {
      "constant": false,
      "inputs": [
        {
          "name": "_newOwner",
          "type": "address"
        }
      ],
      "name": "setMaatsOwner",
      "outputs": [],
      "payable": false,
      "stateMutability": "nonpayable",
      "type": "function"
    },
    {
      "constant": false,
      "inputs": [
        {
          "name": "_newAdmin",
          "type": "address"
        }
      ],
      "name": "createMaatsAdmin",
      "outputs": [],
      "payable": false,
      "stateMutability": "nonpayable",
      "type": "function"
    },
    {
      "constant": false,
      "inputs": [],
      "name": "pause",
      "outputs": [],
      "payable": false,
      "stateMutability": "nonpayable",
      "type": "function"
    },
    {
      "constant": true,
      "inputs": [
        {
          "name": "",
          "type": "address"
        }
      ],
      "name": "createdStore",
      "outputs": [
        {
          "name": "",
          "type": "bool"
        }
      ],
      "payable": false,
      "stateMutability": "view",
      "type": "function"
    },
    {
      "constant": true,
      "inputs": [],
      "name": "maatsOwner",
      "outputs": [
        {
          "name": "",
          "type": "address"
        }
      ],
      "payable": false,
      "stateMutability": "view",
      "type": "function"
    },
    {
      "anonymous": false,
      "inputs": [
        {
          "indexed": true,
          "name": "_ownerAddress",
          "type": "address"
        },
        {
          "indexed": true,
          "name": "_newStoreName",
          "type": "string"
        }
      ],
      "name": "LogNewStore",
      "type": "event"
    },
    {
      "anonymous": false,
      "inputs": [
        {
          "indexed": true,
          "name": "_storeOwnerAddress",
          "type": "address"
        }
      ],
      "name": "LogNewStoreOwner",
      "type": "event"
    },
    {
      "anonymous": false,
      "inputs": [
        {
          "indexed": true,
          "name": "_storeOwner",
          "type": "address"
        }
      ],
      "name": "LogStoreOwnerRemoved",
      "type": "event"
    },
    {
      "anonymous": false,
      "inputs": [
        {
          "indexed": true,
          "name": "_ownerAddress",
          "type": "address"
        },
        {
          "indexed": false,
          "name": "_oldStoreName",
          "type": "string"
        }
      ],
      "name": "LogStoreClosed",
      "type": "event"
    },
    {
      "anonymous": false,
      "inputs": [
        {
          "indexed": true,
          "name": "previousOwner",
          "type": "address"
        },
        {
          "indexed": true,
          "name": "newOwner",
          "type": "address"
        }
      ],
      "name": "LogNewOwner",
      "type": "event"
    },
    {
      "anonymous": false,
      "inputs": [
        {
          "indexed": true,
          "name": "newAdmin",
          "type": "address"
        }
      ],
      "name": "LogNewAdmin",
      "type": "event"
    },
    {
      "anonymous": false,
      "inputs": [
        {
          "indexed": true,
          "name": "revokedAdmin",
          "type": "address"
        }
      ],
      "name": "LogAdminRevoked",
      "type": "event"
    },
    {
      "anonymous": false,
      "inputs": [],
      "name": "Pause",
      "type": "event"
    },
    {
      "anonymous": false,
      "inputs": [],
      "name": "Unpause",
      "type": "event"
    },
    {
      "constant": false,
      "inputs": [
        {
          "name": "_newOwner",
          "type": "address"
        }
      ],
      "name": "makeStoreOwner",
      "outputs": [
        {
          "name": "",
          "type": "uint256"
        }
      ],
      "payable": false,
      "stateMutability": "nonpayable",
      "type": "function"
    },
    {
      "constant": false,
      "inputs": [
        {
          "name": "_badOwner",
          "type": "address"
        }
      ],
      "name": "removeStoreOwner",
      "outputs": [
        {
          "name": "",
          "type": "bool"
        }
      ],
      "payable": false,
      "stateMutability": "nonpayable",
      "type": "function"
    },
    {
      "constant": false,
      "inputs": [
        {
          "name": "_storeName",
          "type": "string"
        }
      ],
      "name": "createStore",
      "outputs": [
        {
          "name": "",
          "type": "string"
        }
      ],
      "payable": false,
      "stateMutability": "nonpayable",
      "type": "function"
    }
  ],
  "bytecode": "0x6080604052336000806101000a81548173ffffffffffffffffffffffffffffffffffffffff021916908373ffffffffffffffffffffffffffffffffffffffff160217905550611df4806100536000396000f3006080604052600436106100d0576000357c0100000000000000000000000000000000000000000000000000000000900463ffffffff1680631ab63af8146100d55780633ccfd60b146101a95780633f4ba83a146101c057806340f42c1c146101d757806344d509931461021a5780635effd33c146102b25780635f7d53a11461030d5780636174fdd11461035057806378678a32146103ab5780638456cb59146103ee578063bd9cf58e14610405578063c4c45dd414610460578063d0e04fe3146104b7578063e698f0bb14610599575b600080fd5b3480156100e157600080fd5b50610116600480360381019080803573ffffffffffffffffffffffffffffffffffffffff1690602001909291905050506105f0565b6040518080602001841515151581526020018360ff1660ff168152602001828103825285818151815260200191508051906020019080838360005b8381101561016c578082015181840152602081019050610151565b50505050905090810190601f1680156101995780820380516001836020036101000a031916815260200191505b5094505050505060405180910390f35b3480156101b557600080fd5b506101be6106cc565b005b3480156101cc57600080fd5b506101d56107a8565b005b3480156101e357600080fd5b50610218600480360381019080803573ffffffffffffffffffffffffffffffffffffffff16906020019092919050505061086e565b005b34801561022657600080fd5b5061024560048036038101908080359060200190929190505050610a87565b604051808373ffffffffffffffffffffffffffffffffffffffff1673ffffffffffffffffffffffffffffffffffffffff168152602001826fffffffffffffffffffffffffffffffff166fffffffffffffffffffffffffffffffff1681526020019250505060405180910390f35b3480156102be57600080fd5b506102f3600480360381019080803573ffffffffffffffffffffffffffffffffffffffff169060200190929190505050610af6565b604051808215151515815260200191505060405180910390f35b34801561031957600080fd5b5061034e600480360381019080803573ffffffffffffffffffffffffffffffffffffffff169060200190929190505050610b16565b005b34801561035c57600080fd5b50610391600480360381019080803573ffffffffffffffffffffffffffffffffffffffff169060200190929190505050610c93565b604051808215151515815260200191505060405180910390f35b3480156103b757600080fd5b506103ec600480360381019080803573ffffffffffffffffffffffffffffffffffffffff169060200190929190505050610ffd565b005b3480156103fa57600080fd5b506104036112c6565b005b34801561041157600080fd5b50610446600480360381019080803573ffffffffffffffffffffffffffffffffffffffff16906020019092919050505061138c565b604051808215151515815260200191505060405180910390f35b34801561046c57600080fd5b506104a1600480360381019080803573ffffffffffffffffffffffffffffffffffffffff1690602001909291905050506113ac565b6040518082815260200191505060405180910390f35b3480156104c357600080fd5b5061051e600480360381019080803590602001908201803590602001908080601f016020809104026020016040519081016040528093929190818152602001838380828437820191505050505050919291929050505061168f565b6040518080602001828103825283818151815260200191508051906020019080838360005b8381101561055e578082015181840152602081019050610543565b50505050905090810190601f16801561058b5780820380516001836020036101000a031916815260200191505b509250505060405180910390f35b3480156105a557600080fd5b506105ae611b81565b604051808273ffffffffffffffffffffffffffffffffffffffff1673ffffffffffffffffffffffffffffffffffffffff16815260200191505060405180910390f35b6009602052806000526040600020600091509050806000018054600181600116156101000203166002900480601f01602080910402602001604051908101604052809291908181526020018280546001816001161561010002031660029004801561069c5780601f106106715761010080835404028352916020019161069c565b820191906000526020600020905b81548152906001019060200180831161067f57829003601f168201915b5050505050908060020160009054906101000a900460ff16908060090160009054906101000a900460ff16905083565b6000809054906101000a900473ffffffffffffffffffffffffffffffffffffffff1673ffffffffffffffffffffffffffffffffffffffff163373ffffffffffffffffffffffffffffffffffffffff1614151561072757600080fd5b6000809054906101000a900473ffffffffffffffffffffffffffffffffffffffff1673ffffffffffffffffffffffffffffffffffffffff166108fc3073ffffffffffffffffffffffffffffffffffffffff16319081150290604051600060405180830381858888f193505050501580156107a5573d6000803e3d6000fd5b50565b6000809054906101000a900473ffffffffffffffffffffffffffffffffffffffff1673ffffffffffffffffffffffffffffffffffffffff163373ffffffffffffffffffffffffffffffffffffffff1614151561080357600080fd5b60011515600760009054906101000a900460ff16151514151561082557600080fd5b6000600760006101000a81548160ff0219169083151502179055507f7805862f689e2f13df9f062ff482ad3ad112aca9e0847911ed832e158c525b3360405160405180910390a1565b6000806000809054906101000a900473ffffffffffffffffffffffffffffffffffffffff1673ffffffffffffffffffffffffffffffffffffffff163373ffffffffffffffffffffffffffffffffffffffff161415156108cc57600080fd5b60001515600760009054906101000a900460ff1615151415156108ee57600080fd5b60009150600090505b6004811115801561090c575060001515821515145b15610a72578273ffffffffffffffffffffffffffffffffffffffff1660018260058110151561093757fe5b0160009054906101000a900473ffffffffffffffffffffffffffffffffffffffff1673ffffffffffffffffffffffffffffffffffffffff161415610a6557600060018260058110151561098657fe5b0160006101000a81548173ffffffffffffffffffffffffffffffffffffffff021916908373ffffffffffffffffffffffffffffffffffffffff1602179055506000600660003373ffffffffffffffffffffffffffffffffffffffff1673ffffffffffffffffffffffffffffffffffffffff16815260200190815260200160002060006101000a81548160ff021916908315150217905550600191508273ffffffffffffffffffffffffffffffffffffffff167fdca59b6371f7db6faad5c9931588f735722795c7b8ea859824e0afc8b2c70a4f60405160405180910390a25b80806001019150506108f7565b60011515821515141515610a8257fe5b505050565b600881815481101515610a9657fe5b90600052602060002090600202016000915090508060000160009054906101000a900473ffffffffffffffffffffffffffffffffffffffff16908060010160009054906101000a90046fffffffffffffffffffffffffffffffff16905082565b600b6020528060005260406000206000915054906101000a900460ff1681565b60008060009054906101000a900473ffffffffffffffffffffffffffffffffffffffff1673ffffffffffffffffffffffffffffffffffffffff163373ffffffffffffffffffffffffffffffffffffffff16141515610b7357600080fd5b60001515600760009054906101000a900460ff161515141515610b9557600080fd5b600073ffffffffffffffffffffffffffffffffffffffff168273ffffffffffffffffffffffffffffffffffffffff1614151515610bd157600080fd5b6000809054906101000a900473ffffffffffffffffffffffffffffffffffffffff169050816000806101000a81548173ffffffffffffffffffffffffffffffffffffffff021916908373ffffffffffffffffffffffffffffffffffffffff1602179055508073ffffffffffffffffffffffffffffffffffffffff168273ffffffffffffffffffffffffffffffffffffffff167f1f8d7d25344642d919d55999e4664aa452a5f424bc0936ceb9c2b300db7dcbd960405160405180910390a35050565b60008060009054906101000a900473ffffffffffffffffffffffffffffffffffffffff1673ffffffffffffffffffffffffffffffffffffffff163373ffffffffffffffffffffffffffffffffffffffff161480610d40575060011515600660003373ffffffffffffffffffffffffffffffffffffffff1673ffffffffffffffffffffffffffffffffffffffff16815260200190815260200160002060009054906101000a900460ff161515145b1515610d4b57600080fd5b60011515600b60008473ffffffffffffffffffffffffffffffffffffffff1673ffffffffffffffffffffffffffffffffffffffff16815260200190815260200160002060009054906101000a900460ff161515141515610daa57600080fd5b6000600960008473ffffffffffffffffffffffffffffffffffffffff1673ffffffffffffffffffffffffffffffffffffffff16815260200190815260200160002060020160006101000a81548160ff0219169083151502179055508173ffffffffffffffffffffffffffffffffffffffff167f70e9219a99e9bfc211e7aa1236b656ca826ba23e3e9e5cbdc2f16e0c7eb8fad9600960008573ffffffffffffffffffffffffffffffffffffffff1673ffffffffffffffffffffffffffffffffffffffff1681526020019081526020016000206000016040518080602001828103825283818154600181600116156101000203166002900481526020019150805460018160011615610100020316600290048015610f085780601f10610edd57610100808354040283529160200191610f08565b820191906000526020600020905b815481529060010190602001808311610eeb57829003601f168201915b50509250505060405180910390a260001515600b60008473ffffffffffffffffffffffffffffffffffffffff1673ffffffffffffffffffffffffffffffffffffffff16815260200190815260200160002060009054906101000a905050508173ffffffffffffffffffffffffffffffffffffffff167fe6547a945aa917d8f8b8a71a98062b03570c5ab79d6f47aa64dab5ae6483e0c860405160405180910390a2600b60008373ffffffffffffffffffffffffffffffffffffffff1673ffffffffffffffffffffffffffffffffffffffff16815260200190815260200160002060009054906101000a900460ff169050919050565b60008060008060009054906101000a900473ffffffffffffffffffffffffffffffffffffffff1673ffffffffffffffffffffffffffffffffffffffff163373ffffffffffffffffffffffffffffffffffffffff1614151561105d57600080fd5b60001515600760009054906101000a900460ff16151514151561107f57600080fd5b600073ffffffffffffffffffffffffffffffffffffffff168473ffffffffffffffffffffffffffffffffffffffff16141515156110bb57600080fd5b5b600483111515611146578373ffffffffffffffffffffffffffffffffffffffff166001846005811015156110ec57fe5b0160009054906101000a900473ffffffffffffffffffffffffffffffffffffffff1673ffffffffffffffffffffffffffffffffffffffff16141561113b576002600114151561113a57600080fd5b5b8260010192506110bc565b600091505b60048111158015611160575060001515821515145b156112b057600060018260058110151561117657fe5b0160009054906101000a900473ffffffffffffffffffffffffffffffffffffffff1673ffffffffffffffffffffffffffffffffffffffff1614156112a357836001826005811015156111c457fe5b0160006101000a81548173ffffffffffffffffffffffffffffffffffffffff021916908373ffffffffffffffffffffffffffffffffffffffff1602179055506001600660008673ffffffffffffffffffffffffffffffffffffffff1673ffffffffffffffffffffffffffffffffffffffff16815260200190815260200160002060006101000a81548160ff021916908315150217905550600191508373ffffffffffffffffffffffffffffffffffffffff167f39e7d4b9ba48f55a740a5192809dbc498fa12724c030b37dab126a3f6774c0f360405160405180910390a25b808060010191505061114b565b600115158215151415156112c057fe5b50505050565b6000809054906101000a900473ffffffffffffffffffffffffffffffffffffffff1673ffffffffffffffffffffffffffffffffffffffff163373ffffffffffffffffffffffffffffffffffffffff1614151561132157600080fd5b60001515600760009054906101000a900460ff16151514151561134357600080fd5b6001600760006101000a81548160ff0219169083151502179055507f6985a02210a168e66602d3235cb6db0e70f92b3ba4d376a33c0f3d9434bff62560405160405180910390a1565b600c6020528060005260406000206000915054906101000a900460ff1681565b60006113b6611ba6565b60008060009054906101000a900473ffffffffffffffffffffffffffffffffffffffff1673ffffffffffffffffffffffffffffffffffffffff163373ffffffffffffffffffffffffffffffffffffffff161480611463575060011515600660003373ffffffffffffffffffffffffffffffffffffffff1673ffffffffffffffffffffffffffffffffffffffff16815260200190815260200160002060009054906101000a900460ff161515145b151561146e57600080fd5b60001515600760009054906101000a900460ff16151514151561149057600080fd5b60001515600b60008673ffffffffffffffffffffffffffffffffffffffff1673ffffffffffffffffffffffffffffffffffffffff16815260200190815260200160002060009054906101000a900460ff1615151415156114ef57600080fd5b60408051908101604052808573ffffffffffffffffffffffffffffffffffffffff16815260200160006fffffffffffffffffffffffffffffffff16815250915060016008839080600181540180825580915050906001820390600052602060002090600202016000909192909190915060008201518160000160006101000a81548173ffffffffffffffffffffffffffffffffffffffff021916908373ffffffffffffffffffffffffffffffffffffffff16021790555060208201518160010160006101000a8154816fffffffffffffffffffffffffffffffff02191690836fffffffffffffffffffffffffffffffff16021790555050500390506001600b60008673ffffffffffffffffffffffffffffffffffffffff1673ffffffffffffffffffffffffffffffffffffffff16815260200190815260200160002060006101000a81548160ff0219169083151502179055508373ffffffffffffffffffffffffffffffffffffffff167f64a6cb4c2615e9c9ee211131f9fc94aaa6238a3c255423b75ba43ef01ca42dcd60405160405180910390a28092505050919050565b6060611699611be8565b6116a1611c0b565b60001515600760009054906101000a900460ff1615151415156116c357600080fd5b60011515600b60003373ffffffffffffffffffffffffffffffffffffffff1673ffffffffffffffffffffffffffffffffffffffff16815260200190815260200160002060009054906101000a900460ff16151514151561172257600080fd5b60001515600c60003373ffffffffffffffffffffffffffffffffffffffff1673ffffffffffffffffffffffffffffffffffffffff16815260200190815260200160002060009054906101000a900460ff16151514151561178157600080fd5b60001515600d856040518082805190602001908083835b6020831015156117bd5780518252602082019150602081019050602083039250611798565b6001836020036101000a038019825116818451168082178552505050505050905001915050908152602001604051809103902060009054906101000a900460ff16151514151561180c57600080fd5b608060405190810160405280858152602001600015158152602001838152602001600060ff16815250905080600960003373ffffffffffffffffffffffffffffffffffffffff1673ffffffffffffffffffffffffffffffffffffffff1681526020019081526020016000206000820151816000019080519060200190611893929190611c40565b5060208201518160020160006101000a81548160ff0219169083151502179055506040820151816003019060066118cb929190611cc0565b5060608201518160090160006101000a81548160ff021916908360ff16021790555090505033600a82600001516040518082805190602001908083835b60208310151561192d5780518252602082019150602081019050602083039250611908565b6001836020036101000a038019825116818451168082178552505050505050905001915050908152602001604051809103902060006101000a81548173ffffffffffffffffffffffffffffffffffffffff021916908373ffffffffffffffffffffffffffffffffffffffff1602179055506001600d82600001516040518082805190602001908083835b6020831015156119dc57805182526020820191506020810190506020830392506119b7565b6001836020036101000a038019825116818451168082178552505050505050905001915050908152602001604051809103902060006101000a81548160ff0219169083151502179055503381604001516000600681101515611a3a57fe5b602002019073ffffffffffffffffffffffffffffffffffffffff16908173ffffffffffffffffffffffffffffffffffffffff16815250506001600c60003373ffffffffffffffffffffffffffffffffffffffff1673ffffffffffffffffffffffffffffffffffffffff16815260200190815260200160002060006101000a81548160ff02191690831515021790555080600001516040518082805190602001908083835b602083101515611b035780518252602082019150602081019050602083039250611ade565b6001836020036101000a03801982511681845116808217855250505050505090500191505060405180910390203373ffffffffffffffffffffffffffffffffffffffff167fa7a7f9a1330b838be79b751ee060f9db022a74c4288f770bb54d328e8e4c11a760405160405180910390a3806000015192505050919050565b6000809054906101000a900473ffffffffffffffffffffffffffffffffffffffff1681565b6040805190810160405280600073ffffffffffffffffffffffffffffffffffffffff16815260200160006fffffffffffffffffffffffffffffffff1681525090565b60c060405190810160405280600690602082028038833980820191505090505090565b6101206040519081016040528060608152602001600015158152602001611c30611d3d565b8152602001600060ff1681525090565b828054600181600116156101000203166002900490600052602060002090601f016020900481019282601f10611c8157805160ff1916838001178555611caf565b82800160010185558215611caf579182015b82811115611cae578251825591602001919060010190611c93565b5b509050611cbc9190611d60565b5090565b8260068101928215611d2c579160200282015b82811115611d2b5782518260006101000a81548173ffffffffffffffffffffffffffffffffffffffff021916908373ffffffffffffffffffffffffffffffffffffffff16021790555091602001919060010190611cd3565b5b509050611d399190611d85565b5090565b60c060405190810160405280600690602082028038833980820191505090505090565b611d8291905b80821115611d7e576000816000905550600101611d66565b5090565b90565b611dc591905b80821115611dc157600081816101000a81549073ffffffffffffffffffffffffffffffffffffffff021916905550600101611d8b565b5090565b905600a165627a7a72305820c3e705be1c9ac177cfa621348b948897b6472e3ef8b892ab15b928b7c8779d780029",
  "source": "pragma solidity ^0.4.24;\n\nimport \"./StoreAccessControl.sol\";\n\n/**\n  * @dev Defines the storage needs to create and manage stores as well as create\n  * and manage the products which are specific to stores.\n  */\ncontract StoreBase is StoreAccessControl{\n\n  /// @dev Store name is used as a unique identifier, used in many events.\n  event LogNewStore(address indexed _ownerAddress, string indexed _newStoreName);\n  event LogNewStoreOwner(address indexed _storeOwnerAddress);\n  event LogStoreOwnerRemoved(address indexed _storeOwner);\n  event LogStoreClosed(address indexed _ownerAddress, string _oldStoreName);\n\n  /// @dev array of StoreOwners to record the addresses and reviews of owners\n  /// couldn't you just turn this into a mapping from address to review?\n  StoreOwner[] public storeOwners;\n\n  /// @dev The Store struct is used to represent all stores in the Maats Network.\n  struct Store{\n    // Acts as unique identifier.\n    string storeName;\n    // Structs can't store struct array's so mapping is used instead.\n    mapping(uint8 => Product) products;\n    // Open or closed. Owner can modify this if they want to make updates.\n    bool open;\n    // Stores can only have 5 admins. The 0-index is reserved for store owner.\n    address[6] storeAdmins;\n    // Acts as the key for the products mapping. NOTE: max num prod = 256: SCALABILITY :/\n    uint8 prodCount;\n  }\n\n  /// @dev ake owner array and create ownerId to improve access to stores\n  /// create mapping which pairs stores to storeId's\n  struct StoreOwner{\n    address ownerAddress; //this controls functionality, make sure not accessible\n    uint128 ownerRanking;\n  }\n\n  /// @dev Products are members of Stores. Each new product an owner adds to\n  /// their store takes the following form.\n  struct Product{\n    uint128 price;\n    // Array of the enum to track instances of this product type. This allows\n    // for a product to be sold for a set price or sold at auction. It also\n    // tracks progress of an instance so the owner knows when to ship an item.\n    ItemStatus[] items;\n    // Used to manage the inventory of the product.\n    uint64 inventory;\n    // If false, the product is set-price, true its an auction.\n    bool auction;\n  }\n\n  /// @dev Keep track of progress of sale and type of sale of a product instance (item).\n  enum ItemStatus{\n    ForSale,\n    ForAuction,\n    Bought,\n    Shipped\n  }\n\n\n  /// @dev Mapping accessing the store owned by a specific owner address.\n  mapping (address => Store) public OwnerToStore;\n\n  /// @dev Need a way to access the address of the store owner for functions\n  /// where store admins are acting upon the store and not the owner.\n  mapping(string => address)  StoreNameToOwner;\n\n  /// @dev Used to ensure an address isn't registered as an owner multiple times\n  /// accessed when loading a page to allow access to owner only functionality.\n  mapping (address => bool) public isStoreOwner;\n\n  /// @dev Used to ensure that an owner has only created a single store as\n  /// owners are only allowed to manage a single store.\n  mapping (address => bool) public createdStore;\n\n  /// @dev Used to ensure that store names remain unique identifiers for Store\n  /// structs and to ensure that a only existing stores are acted upon.\n  mapping(string => bool) storeExists;\n\n  /// @dev This function associates an address with a store owner. It DOES NOT\n  /// create the store for the owner. An Address must be a store owner before\n  /// they can create a Store instance.\n  /// @param _newOwner : Address of the new owner candidate\n  /// @return The ownerId for the StoreOwner array\n  function makeStoreOwner(address _newOwner)\n    public\n    onlyMaatsLeadership\n    whenNotPaused\n    returns (uint){\n      require(isStoreOwner[_newOwner] == false);\n      StoreOwner memory _storeOwner = StoreOwner({\n        ownerAddress: _newOwner,\n        ownerRanking: 0 // not placed on front end until threshold # reviews\n        });\n\n      // StoreOwner recorded with identifier\n      // needs to be part of a mapping to not deallocate\n      uint256 storeOwnerId = storeOwners.push(_storeOwner) -1;\n\n      isStoreOwner[_newOwner] = true;\n\n      emit LogNewStoreOwner(_newOwner);\n\n      return(storeOwnerId);\n    }\n\n    /// @dev Used to remove an owner from the isStoreOwner mapping and prevent\n    /// the specified address from accessing store owner functions on Maat's.\n    /// It also closes the store for which they are the owner.\n    /// notice This doesn't have a pausible modifier since we want to be able\n    /// to remove an owner when paused in the case they are acting maliciously\n    /// as opposed to simple inactivity or other violations.\n    /// @param _badOwner : The address being removed\n    /// @return The value of the mapping which states if they are a store owner\n    function removeStoreOwner(address _badOwner)\n      public\n      onlyMaatsLeadership // consider requiring this to be a multisig event\n      returns(bool){\n        // throw if this address isn't an owner\n        require(isStoreOwner[_badOwner] == true);\n\n        // remove ownership of _badOwner's store\n        // set the status of the store to closed\n        OwnerToStore[_badOwner].open = false;\n        emit LogStoreClosed(_badOwner,OwnerToStore[_badOwner].storeName);\n\n        isStoreOwner[_badOwner] == false;\n        emit LogStoreOwnerRemoved(_badOwner);\n        return(isStoreOwner[_badOwner]);\n      }\n\n    /// @dev Requries that the msg.sender is a storeOwner. It checks to ensure\n    /// that the msg.sender hasn't created a store yet and that the storeName\n    /// they choose hasn't already been taken by another owner.\n    /// @param _storeName : The string used as the unique identifier for the Store.\n    /// @return _newStore.storeName: returns the name of the new store.\n    function createStore(string _storeName)\n      public\n      whenNotPaused\n      returns(string){\n        // Check that msg.sender is registered as a store owner.\n        require(isStoreOwner[msg.sender] == true);\n        // Require that they don't have a store yet.\n        require(createdStore[msg.sender] == false);\n        // Require that the name for their store hasn't been taken.\n        require(storeExists[_storeName] == false);\n\n        // Fixed size array's need to be in memory before definition in structs\n        // This will be the storeAdmin array in the new store.\n        address[6] memory newArray;\n\n        // Create the new store type in memory. It will be stored in the\n        // OwnerToStore mapping as to not be lost during deallocation\n        Store memory _newStore = Store({\n          storeName: _storeName,\n          open: false,\n          storeAdmins: newArray,\n          prodCount: 0\n          });\n\n        // This mapping stores the newStore in contract storage\n        OwnerToStore[msg.sender] = _newStore;\n        // Ensure we can access the owner from the store's unique identifier.\n        StoreNameToOwner[_newStore.storeName] = msg.sender;\n        // Register this name to ensure another owner can't take this name\n        storeExists[_newStore.storeName] = true;\n\n        // 0-index is reserved for store owner. Can only change during owner transfer\n        _newStore.storeAdmins[0] = msg.sender;\n        // Record the store creation so that the owner can't create another store\n        createdStore[msg.sender] = true;\n\n        emit LogNewStore(msg.sender, _newStore.storeName);\n\n        return(_newStore.storeName);\n    }\n\n}\n",
  "sourcePath": "/Users/ericbrown/Documents/Blockchain/ConsenSysCourse/Maats/contracts/StoreBase.sol",
  "compiler": {
    "name": "solc",
    "version": "0.4.24+commit.e67f0147.Emscripten.clang"
  },
  "schemaVersion": "2.0.1",
  "updatedAt": "2018-07-27T16:53:36.153Z"
}