{
  "contractName": "StoreCore",
  "abi": [
    {
      "constant": false,
      "inputs": [
        {
          "name": "_productId",
          "type": "uint8"
        },
        {
          "name": "_storeName",
          "type": "string"
        }
      ],
      "name": "buyItem",
      "outputs": [
        {
          "name": "index",
          "type": "uint256"
        }
      ],
      "payable": true,
      "stateMutability": "payable",
      "type": "function"
    },
    {
      "constant": true,
      "inputs": [
        {
          "name": "",
          "type": "address"
        }
      ],
      "name": "OwnerToStore",
      "outputs": [
        {
          "name": "storeName",
          "type": "string"
        },
        {
          "name": "open",
          "type": "bool"
        },
        {
          "name": "prodCount",
          "type": "uint8"
        }
      ],
      "payable": false,
      "stateMutability": "view",
      "type": "function"
    },
    {
      "constant": true,
      "inputs": [
        {
          "name": "",
          "type": "address"
        }
      ],
      "name": "purchaserToItem",
      "outputs": [
        {
          "name": "",
          "type": "uint256"
        }
      ],
      "payable": false,
      "stateMutability": "view",
      "type": "function"
    },
    {
      "constant": false,
      "inputs": [
        {
          "name": "_auctionId",
          "type": "uint256"
        },
        {
          "name": "_productId",
          "type": "uint8"
        }
      ],
      "name": "_bid",
      "outputs": [
        {
          "name": "",
          "type": "uint256"
        }
      ],
      "payable": true,
      "stateMutability": "payable",
      "type": "function"
    },
    {
      "constant": false,
      "inputs": [],
      "name": "withdraw",
      "outputs": [],
      "payable": false,
      "stateMutability": "nonpayable",
      "type": "function"
    },
    {
      "constant": false,
      "inputs": [],
      "name": "unpause",
      "outputs": [],
      "payable": false,
      "stateMutability": "nonpayable",
      "type": "function"
    },
    {
      "constant": false,
      "inputs": [
        {
          "name": "_revokedAdmin",
          "type": "address"
        }
      ],
      "name": "removeMaatsAdmin",
      "outputs": [],
      "payable": false,
      "stateMutability": "nonpayable",
      "type": "function"
    },
    {
      "constant": true,
      "inputs": [
        {
          "name": "",
          "type": "uint256"
        }
      ],
      "name": "storeOwners",
      "outputs": [
        {
          "name": "ownerAddress",
          "type": "address"
        },
        {
          "name": "ownerRanking",
          "type": "uint128"
        }
      ],
      "payable": false,
      "stateMutability": "view",
      "type": "function"
    },
    {
      "constant": true,
      "inputs": [
        {
          "name": "",
          "type": "address"
        }
      ],
      "name": "isStoreOwner",
      "outputs": [
        {
          "name": "",
          "type": "bool"
        }
      ],
      "payable": false,
      "stateMutability": "view",
      "type": "function"
    },
    {
      "constant": false,
      "inputs": [
        {
          "name": "_newOwner",
          "type": "address"
        }
      ],
      "name": "setMaatsOwner",
      "outputs": [],
      "payable": false,
      "stateMutability": "nonpayable",
      "type": "function"
    },
    {
      "constant": false,
      "inputs": [
        {
          "name": "_badOwner",
          "type": "address"
        }
      ],
      "name": "removeStoreOwner",
      "outputs": [
        {
          "name": "",
          "type": "bool"
        }
      ],
      "payable": false,
      "stateMutability": "nonpayable",
      "type": "function"
    },
    {
      "constant": true,
      "inputs": [],
      "name": "newContractAddress",
      "outputs": [
        {
          "name": "",
          "type": "address"
        }
      ],
      "payable": false,
      "stateMutability": "view",
      "type": "function"
    },
    {
      "constant": false,
      "inputs": [
        {
          "name": "_newAdmin",
          "type": "address"
        }
      ],
      "name": "createMaatsAdmin",
      "outputs": [],
      "payable": false,
      "stateMutability": "nonpayable",
      "type": "function"
    },
    {
      "constant": false,
      "inputs": [],
      "name": "openStore",
      "outputs": [
        {
          "name": "",
          "type": "bool"
        }
      ],
      "payable": false,
      "stateMutability": "nonpayable",
      "type": "function"
    },
    {
      "constant": false,
      "inputs": [
        {
          "name": "_itemIndex",
          "type": "uint256"
        },
        {
          "name": "_productId",
          "type": "uint8"
        }
      ],
      "name": "shipItem",
      "outputs": [
        {
          "name": "shipped",
          "type": "bool"
        }
      ],
      "payable": false,
      "stateMutability": "nonpayable",
      "type": "function"
    },
    {
      "constant": false,
      "inputs": [],
      "name": "pause",
      "outputs": [],
      "payable": false,
      "stateMutability": "nonpayable",
      "type": "function"
    },
    {
      "constant": false,
      "inputs": [
        {
          "name": "_newPrice",
          "type": "uint128"
        },
        {
          "name": "_productId",
          "type": "uint8"
        }
      ],
      "name": "changePrice",
      "outputs": [
        {
          "name": "",
          "type": "uint128"
        }
      ],
      "payable": false,
      "stateMutability": "nonpayable",
      "type": "function"
    },
    {
      "constant": false,
      "inputs": [
        {
          "name": "_productId",
          "type": "uint8"
        },
        {
          "name": "_newInventory",
          "type": "uint64"
        }
      ],
      "name": "addInventory",
      "outputs": [
        {
          "name": "",
          "type": "uint64"
        }
      ],
      "payable": false,
      "stateMutability": "nonpayable",
      "type": "function"
    },
    {
      "constant": false,
      "inputs": [
        {
          "name": "_price",
          "type": "uint128"
        },
        {
          "name": "_inventory",
          "type": "uint64"
        }
      ],
      "name": "createSetPriceProduct",
      "outputs": [
        {
          "name": "_productId",
          "type": "uint8"
        }
      ],
      "payable": false,
      "stateMutability": "nonpayable",
      "type": "function"
    },
    {
      "constant": true,
      "inputs": [
        {
          "name": "",
          "type": "address"
        }
      ],
      "name": "createdStore",
      "outputs": [
        {
          "name": "",
          "type": "bool"
        }
      ],
      "payable": false,
      "stateMutability": "view",
      "type": "function"
    },
    {
      "constant": false,
      "inputs": [
        {
          "name": "_NewAdminAddress",
          "type": "address"
        }
      ],
      "name": "createStoreAdmin",
      "outputs": [],
      "payable": false,
      "stateMutability": "nonpayable",
      "type": "function"
    },
    {
      "constant": false,
      "inputs": [
        {
          "name": "_newOwner",
          "type": "address"
        }
      ],
      "name": "makeStoreOwner",
      "outputs": [
        {
          "name": "",
          "type": "uint256"
        }
      ],
      "payable": false,
      "stateMutability": "nonpayable",
      "type": "function"
    },
    {
      "constant": false,
      "inputs": [
        {
          "name": "_startingPrice",
          "type": "uint256"
        },
        {
          "name": "_endingPrice",
          "type": "uint256"
        },
        {
          "name": "_duration",
          "type": "uint64"
        }
      ],
      "name": "createAuctionProduct",
      "outputs": [
        {
          "name": "auctionId",
          "type": "uint256"
        }
      ],
      "payable": false,
      "stateMutability": "nonpayable",
      "type": "function"
    },
    {
      "constant": false,
      "inputs": [
        {
          "name": "_storeName",
          "type": "string"
        }
      ],
      "name": "createStore",
      "outputs": [
        {
          "name": "",
          "type": "string"
        }
      ],
      "payable": false,
      "stateMutability": "nonpayable",
      "type": "function"
    },
    {
      "constant": false,
      "inputs": [
        {
          "name": "_escrowAddress",
          "type": "address"
        }
      ],
      "name": "setEscrowAddress",
      "outputs": [],
      "payable": false,
      "stateMutability": "nonpayable",
      "type": "function"
    },
    {
      "constant": true,
      "inputs": [],
      "name": "escrow",
      "outputs": [
        {
          "name": "",
          "type": "address"
        }
      ],
      "payable": false,
      "stateMutability": "view",
      "type": "function"
    },
    {
      "constant": true,
      "inputs": [],
      "name": "maatsOwner",
      "outputs": [
        {
          "name": "",
          "type": "address"
        }
      ],
      "payable": false,
      "stateMutability": "view",
      "type": "function"
    },
    {
      "constant": true,
      "inputs": [
        {
          "name": "_productId",
          "type": "uint8"
        }
      ],
      "name": "getCurrentPrice",
      "outputs": [
        {
          "name": "",
          "type": "uint256"
        }
      ],
      "payable": false,
      "stateMutability": "view",
      "type": "function"
    },
    {
      "constant": false,
      "inputs": [
        {
          "name": "_adminAddress",
          "type": "address"
        }
      ],
      "name": "removeStoreAdmin",
      "outputs": [],
      "payable": false,
      "stateMutability": "nonpayable",
      "type": "function"
    },
    {
      "constant": true,
      "inputs": [
        {
          "name": "_productId",
          "type": "uint8"
        }
      ],
      "name": "getAuction",
      "outputs": [
        {
          "name": "seller",
          "type": "address"
        },
        {
          "name": "startingPrice",
          "type": "uint256"
        },
        {
          "name": "endingPrice",
          "type": "uint256"
        },
        {
          "name": "duration",
          "type": "uint256"
        },
        {
          "name": "startedAt",
          "type": "uint256"
        }
      ],
      "payable": false,
      "stateMutability": "view",
      "type": "function"
    },
    {
      "inputs": [],
      "payable": false,
      "stateMutability": "nonpayable",
      "type": "constructor"
    },
    {
      "payable": true,
      "stateMutability": "payable",
      "type": "fallback"
    },
    {
      "anonymous": false,
      "inputs": [
        {
          "indexed": true,
          "name": "_sender",
          "type": "address"
        },
        {
          "indexed": false,
          "name": "_value",
          "type": "uint256"
        }
      ],
      "name": "LogFundsReceived",
      "type": "event"
    },
    {
      "anonymous": false,
      "inputs": [
        {
          "indexed": false,
          "name": "_auctionId",
          "type": "uint256"
        },
        {
          "indexed": true,
          "name": "_storeName",
          "type": "string"
        }
      ],
      "name": "LogNewAuctionProduct",
      "type": "event"
    },
    {
      "anonymous": false,
      "inputs": [
        {
          "indexed": false,
          "name": "productId",
          "type": "uint256"
        },
        {
          "indexed": false,
          "name": "startingPrice",
          "type": "uint256"
        },
        {
          "indexed": false,
          "name": "endingPrice",
          "type": "uint256"
        },
        {
          "indexed": false,
          "name": "duration",
          "type": "uint256"
        }
      ],
      "name": "AuctionCreated",
      "type": "event"
    },
    {
      "anonymous": false,
      "inputs": [
        {
          "indexed": false,
          "name": "productId",
          "type": "uint256"
        },
        {
          "indexed": false,
          "name": "totalPrice",
          "type": "uint256"
        },
        {
          "indexed": false,
          "name": "winner",
          "type": "address"
        }
      ],
      "name": "AuctionSuccessful",
      "type": "event"
    },
    {
      "anonymous": false,
      "inputs": [
        {
          "indexed": false,
          "name": "productId",
          "type": "uint256"
        }
      ],
      "name": "AuctionCancelled",
      "type": "event"
    },
    {
      "anonymous": false,
      "inputs": [
        {
          "indexed": true,
          "name": "_productId",
          "type": "uint256"
        },
        {
          "indexed": true,
          "name": "_purchaser",
          "type": "address"
        },
        {
          "indexed": false,
          "name": "_storeName",
          "type": "string"
        }
      ],
      "name": "LogItemBought",
      "type": "event"
    },
    {
      "anonymous": false,
      "inputs": [
        {
          "indexed": true,
          "name": "_storeName",
          "type": "string"
        },
        {
          "indexed": true,
          "name": "_productId",
          "type": "uint256"
        },
        {
          "indexed": false,
          "name": "remaining",
          "type": "uint64"
        }
      ],
      "name": "LogInventoryLow",
      "type": "event"
    },
    {
      "anonymous": false,
      "inputs": [
        {
          "indexed": true,
          "name": "_storeName",
          "type": "string"
        },
        {
          "indexed": true,
          "name": "_productId",
          "type": "uint256"
        }
      ],
      "name": "LogInventoryOut",
      "type": "event"
    },
    {
      "anonymous": false,
      "inputs": [
        {
          "indexed": true,
          "name": "_index",
          "type": "uint256"
        },
        {
          "indexed": true,
          "name": "_productId",
          "type": "uint256"
        },
        {
          "indexed": false,
          "name": "_storeName",
          "type": "string"
        }
      ],
      "name": "LogItemShipped",
      "type": "event"
    },
    {
      "anonymous": false,
      "inputs": [
        {
          "indexed": true,
          "name": "_ownerAddress",
          "type": "address"
        },
        {
          "indexed": true,
          "name": "_storeName",
          "type": "string"
        }
      ],
      "name": "LogStoreOpened",
      "type": "event"
    },
    {
      "anonymous": false,
      "inputs": [
        {
          "indexed": false,
          "name": "_productId",
          "type": "uint256"
        },
        {
          "indexed": true,
          "name": "_storeName",
          "type": "string"
        }
      ],
      "name": "LogNewSetPriceProduct",
      "type": "event"
    },
    {
      "anonymous": false,
      "inputs": [
        {
          "indexed": true,
          "name": "_productId",
          "type": "uint256"
        },
        {
          "indexed": false,
          "name": "inventory",
          "type": "uint64"
        }
      ],
      "name": "LogAddedInventory",
      "type": "event"
    },
    {
      "anonymous": false,
      "inputs": [
        {
          "indexed": true,
          "name": "_ownerAddress",
          "type": "address"
        },
        {
          "indexed": true,
          "name": "_storeName",
          "type": "string"
        }
      ],
      "name": "LogProductRemoved",
      "type": "event"
    },
    {
      "anonymous": false,
      "inputs": [
        {
          "indexed": true,
          "name": "_productId",
          "type": "uint256"
        },
        {
          "indexed": true,
          "name": "_storeName",
          "type": "string"
        },
        {
          "indexed": false,
          "name": "_newPrice",
          "type": "uint128"
        }
      ],
      "name": "LogPriceChange",
      "type": "event"
    },
    {
      "anonymous": false,
      "inputs": [
        {
          "indexed": true,
          "name": "_storeName",
          "type": "string"
        },
        {
          "indexed": false,
          "name": "adminAddress",
          "type": "address"
        }
      ],
      "name": "LogNewAdmin",
      "type": "event"
    },
    {
      "anonymous": false,
      "inputs": [
        {
          "indexed": true,
          "name": "_storeName",
          "type": "string"
        },
        {
          "indexed": false,
          "name": "adminAddress",
          "type": "address"
        }
      ],
      "name": "LogAdminRemoved",
      "type": "event"
    },
    {
      "anonymous": false,
      "inputs": [
        {
          "indexed": true,
          "name": "_ownerAddress",
          "type": "address"
        },
        {
          "indexed": true,
          "name": "_newStoreName",
          "type": "string"
        }
      ],
      "name": "LogNewStore",
      "type": "event"
    },
    {
      "anonymous": false,
      "inputs": [
        {
          "indexed": true,
          "name": "_storeOwnerAddress",
          "type": "address"
        }
      ],
      "name": "LogNewStoreOwner",
      "type": "event"
    },
    {
      "anonymous": false,
      "inputs": [
        {
          "indexed": true,
          "name": "_storeOwner",
          "type": "address"
        }
      ],
      "name": "LogStoreOwnerRemoved",
      "type": "event"
    },
    {
      "anonymous": false,
      "inputs": [
        {
          "indexed": true,
          "name": "_ownerAddress",
          "type": "address"
        },
        {
          "indexed": false,
          "name": "_oldStoreName",
          "type": "string"
        }
      ],
      "name": "LogStoreClosed",
      "type": "event"
    },
    {
      "anonymous": false,
      "inputs": [
        {
          "indexed": true,
          "name": "previousOwner",
          "type": "address"
        },
        {
          "indexed": true,
          "name": "newOwner",
          "type": "address"
        }
      ],
      "name": "LogNewOwner",
      "type": "event"
    },
    {
      "anonymous": false,
      "inputs": [
        {
          "indexed": true,
          "name": "newAdmin",
          "type": "address"
        }
      ],
      "name": "LogNewAdmin",
      "type": "event"
    },
    {
      "anonymous": false,
      "inputs": [
        {
          "indexed": true,
          "name": "revokedAdmin",
          "type": "address"
        }
      ],
      "name": "LogAdminRevoked",
      "type": "event"
    },
    {
      "anonymous": false,
      "inputs": [],
      "name": "Pause",
      "type": "event"
    },
    {
      "anonymous": false,
      "inputs": [],
      "name": "Unpause",
      "type": "event"
    },
    {
      "constant": true,
      "inputs": [
        {
          "name": "_storeOwner",
          "type": "address"
        }
      ],
      "name": "isStoreOpen",
      "outputs": [
        {
          "name": "_open",
          "type": "bool"
        }
      ],
      "payable": false,
      "stateMutability": "view",
      "type": "function"
    },
    {
      "constant": true,
      "inputs": [
        {
          "name": "_storeName",
          "type": "string"
        },
        {
          "name": "productId",
          "type": "uint8"
        }
      ],
      "name": "getProduct",
      "outputs": [
        {
          "name": "_price",
          "type": "uint128"
        },
        {
          "name": "_inventory",
          "type": "uint64"
        },
        {
          "name": "_auction",
          "type": "bool"
        }
      ],
      "payable": false,
      "stateMutability": "view",
      "type": "function"
    }
  ],
  "bytecode": "0x6080604052600060115534801561001557600080fd5b50336000806101000a81548173ffffffffffffffffffffffffffffffffffffffff021916908373ffffffffffffffffffffffffffffffffffffffff1602179055506001600760006101000a81548160ff0219169083151502179055503373ffffffffffffffffffffffffffffffffffffffff166000809054906101000a905050506154d1806100a56000396000f300608060405260043610610196576000357c0100000000000000000000000000000000000000000000000000000000900463ffffffff168063060347e0146101f15780631ab63af81461026e57806331df27ce1461034257806335b2b5be146103995780633ccfd60b146103da5780633f4ba83a146103f157806340f42c1c1461040857806344d509931461044b5780635a62eb63146104e35780635effd33c146105b75780635f7d53a1146106125780636174fdd1146106555780636af04a57146106b057806378678a32146107075780637e1dcaf71461074a57806381e4fc82146107795780638456cb59146107cb578063904c977e146107e25780639bf474b514610866578063a14f2584146108d2578063bd9cf58e1461093f578063bdc39f481461099a578063bdd9afcd146109dd578063c4c45dd414610a38578063cca0400114610a8f578063d0e04fe314610aee578063ddeb63b514610bd0578063e2fdcc1714610c13578063e698f0bb14610c6a578063eff8fe5a14610cc1578063fde57f3b14610d05578063ff95603214610d48575b6000341015156101ef573373ffffffffffffffffffffffffffffffffffffffff167fafc7c22656214f820dd5d5d53d4e1a42b878f2fe22f8523d33e095602edff922346040518082815260200191505060405180910390a25b005b610258600480360381019080803560ff169060200190929190803590602001908201803590602001908080601f0160208091040260200160405190810160405280939291908181526020018383808284378201915050505050509192919290505050610dd4565b6040518082815260200191505060405180910390f35b34801561027a57600080fd5b506102af600480360381019080803573ffffffffffffffffffffffffffffffffffffffff1690602001909291905050506112dd565b6040518080602001841515151581526020018360ff1660ff168152602001828103825285818151815260200191508051906020019080838360005b838110156103055780820151818401526020810190506102ea565b50505050905090810190601f1680156103325780820380516001836020036101000a031916815260200191505b5094505050505060405180910390f35b34801561034e57600080fd5b50610383600480360381019080803573ffffffffffffffffffffffffffffffffffffffff1690602001909291905050506113b9565b6040518082815260200191505060405180910390f35b6103c460048036038101908080359060200190929190803560ff1690602001909291905050506113d1565b6040518082815260200191505060405180910390f35b3480156103e657600080fd5b506103ef611678565b005b3480156103fd57600080fd5b50610406611754565b005b34801561041457600080fd5b50610449600480360381019080803573ffffffffffffffffffffffffffffffffffffffff16906020019092919050505061181a565b005b34801561045757600080fd5b5061047660048036038101908080359060200190929190505050611a33565b604051808373ffffffffffffffffffffffffffffffffffffffff1673ffffffffffffffffffffffffffffffffffffffff168152602001826fffffffffffffffffffffffffffffffff166fffffffffffffffffffffffffffffffff1681526020019250505060405180910390f35b3480156104ef57600080fd5b50610557600480360381019080803590602001908201803590602001908080601f0160208091040260200160405190810160405280939291908181526020018383808284378201915050505050509192919290803560ff169060200190929190505050611aa2565b60405180846fffffffffffffffffffffffffffffffff166fffffffffffffffffffffffffffffffff1681526020018367ffffffffffffffff1667ffffffffffffffff16815260200182151515158152602001935050505060405180910390f35b3480156105c357600080fd5b506105f8600480360381019080803573ffffffffffffffffffffffffffffffffffffffff169060200190929190505050611bf3565b604051808215151515815260200191505060405180910390f35b34801561061e57600080fd5b50610653600480360381019080803573ffffffffffffffffffffffffffffffffffffffff169060200190929190505050611c13565b005b34801561066157600080fd5b50610696600480360381019080803573ffffffffffffffffffffffffffffffffffffffff169060200190929190505050611d90565b604051808215151515815260200191505060405180910390f35b3480156106bc57600080fd5b506106c56120fa565b604051808273ffffffffffffffffffffffffffffffffffffffff1673ffffffffffffffffffffffffffffffffffffffff16815260200191505060405180910390f35b34801561071357600080fd5b50610748600480360381019080803573ffffffffffffffffffffffffffffffffffffffff169060200190929190505050612120565b005b34801561075657600080fd5b5061075f6123e9565b604051808215151515815260200191505060405180910390f35b34801561078557600080fd5b506107b160048036038101908080359060200190929190803560ff1690602001909291905050506125f4565b604051808215151515815260200191505060405180910390f35b3480156107d757600080fd5b506107e0612966565b005b3480156107ee57600080fd5b5061082c60048036038101908080356fffffffffffffffffffffffffffffffff169060200190929190803560ff169060200190929190505050612a2c565b60405180826fffffffffffffffffffffffffffffffff166fffffffffffffffffffffffffffffffff16815260200191505060405180910390f35b34801561087257600080fd5b506108a8600480360381019080803560ff169060200190929190803567ffffffffffffffff169060200190929190505050612ced565b604051808267ffffffffffffffff1667ffffffffffffffff16815260200191505060405180910390f35b3480156108de57600080fd5b5061092360048036038101908080356fffffffffffffffffffffffffffffffff169060200190929190803567ffffffffffffffff169060200190929190505050613012565b604051808260ff1660ff16815260200191505060405180910390f35b34801561094b57600080fd5b50610980600480360381019080803573ffffffffffffffffffffffffffffffffffffffff169060200190929190505050613416565b604051808215151515815260200191505060405180910390f35b3480156109a657600080fd5b506109db600480360381019080803573ffffffffffffffffffffffffffffffffffffffff169060200190929190505050613436565b005b3480156109e957600080fd5b50610a1e600480360381019080803573ffffffffffffffffffffffffffffffffffffffff16906020019092919050505061370f565b604051808215151515815260200191505060405180910390f35b348015610a4457600080fd5b50610a79600480360381019080803573ffffffffffffffffffffffffffffffffffffffff16906020019092919050505061376d565b6040518082815260200191505060405180910390f35b348015610a9b57600080fd5b50610ad86004803603810190808035906020019092919080359060200190929190803567ffffffffffffffff169060200190929190505050613a50565b6040518082815260200191505060405180910390f35b348015610afa57600080fd5b50610b55600480360381019080803590602001908201803590602001908080601f0160208091040260200160405190810160405280939291908181526020018383808284378201915050505050509192919290505050613e82565b6040518080602001828103825283818151815260200191508051906020019080838360005b83811015610b95578082015181840152602081019050610b7a565b50505050905090810190601f168015610bc25780820380516001836020036101000a031916815260200191505b509250505060405180910390f35b348015610bdc57600080fd5b50610c11600480360381019080803573ffffffffffffffffffffffffffffffffffffffff169060200190929190505050614374565b005b348015610c1f57600080fd5b50610c28614419565b604051808273ffffffffffffffffffffffffffffffffffffffff1673ffffffffffffffffffffffffffffffffffffffff16815260200191505060405180910390f35b348015610c7657600080fd5b50610c7f61443f565b604051808273ffffffffffffffffffffffffffffffffffffffff1673ffffffffffffffffffffffffffffffffffffffff16815260200191505060405180910390f35b348015610ccd57600080fd5b50610cef600480360381019080803560ff169060200190929190505050614464565b6040518082815260200191505060405180910390f35b348015610d1157600080fd5b50610d46600480360381019080803573ffffffffffffffffffffffffffffffffffffffff1690602001909291905050506144a4565b005b348015610d5457600080fd5b50610d76600480360381019080803560ff16906020019092919050505061477d565b604051808673ffffffffffffffffffffffffffffffffffffffff1673ffffffffffffffffffffffffffffffffffffffff1681526020018581526020018481526020018381526020018281526020019550505050505060405180910390f35b6000806000806000801515600760009054906101000a900460ff161515141515610dfd57600080fd5b600a866040518082805190602001908083835b602083101515610e355780518252602082019150602081019050602083039250610e10565b6001836020036101000a038019825116818451168082178552505050505050905001915050908152602001604051809103902060009054906101000a900473ffffffffffffffffffffffffffffffffffffffff169350600960008573ffffffffffffffffffffffffffffffffffffffff1673ffffffffffffffffffffffffffffffffffffffff1681526020019081526020016000209250610ed687876148a3565b94503491508260010160008860ff1660ff16815260200190815260200160002060000160009054906101000a90046fffffffffffffffffffffffffffffffff166fffffffffffffffffffffffffffffffff168210151515610f3657600080fd5b610f408483614a51565b60028360010160008960ff1660ff16815260200190815260200160002060010186815481101515610f6d57fe5b90600052602060002090602091828204019190066101000a81548160ff02191690836003811115610f9a57fe5b02179055503373ffffffffffffffffffffffffffffffffffffffff168760ff167f21b69e57dafb192d2fc9ec6fabee5106b55506c43564934190281e68e3fd43a88560000160405180806020018281038252838181546001816001161561010002031660029004815260200191508054600181600116156101000203166002900480156110685780601f1061103d57610100808354040283529160200191611068565b820191906000526020600020905b81548152906001019060200180831161104b57829003601f168201915b50509250505060405180910390a384601060003373ffffffffffffffffffffffffffffffffffffffff1673ffffffffffffffffffffffffffffffffffffffff168152602001908152602001600020819055508260010160008860ff1660ff168152602001908152602001600020600201600081819054906101000a900467ffffffffffffffff16809291906001900391906101000a81548167ffffffffffffffff021916908367ffffffffffffffff160217905550508260010160008860ff1660ff16815260200190815260200160002060020160009054906101000a900467ffffffffffffffff16905060058167ffffffffffffffff161115156112d35760008167ffffffffffffffff161415611217578660ff168360000160405180828054600181600116156101000203166002900480156111dd5780601f106111bb5761010080835404028352918201916111dd565b820191906000526020600020905b8154815290600101906020018083116111c9575b505091505060405180910390207fc9de8ea04483018837e93b72d9875d362c24c6b288707c71bc97532f98bce38c60405160405180910390a35b8660ff1683600001604051808280546001816001161561010002031660029004801561127a5780601f1061125857610100808354040283529182019161127a565b820191906000526020600020905b815481529060010190602001808311611266575b505091505060405180910390207fcd4eb49b487b912c0255590a3d4a92db6488383d7bb11265b173443257cb8d2083604051808267ffffffffffffffff1667ffffffffffffffff16815260200191505060405180910390a35b5050505092915050565b6009602052806000526040600020600091509050806000018054600181600116156101000203166002900480601f0160208091040260200160405190810160405280929190818152602001828054600181600116156101000203166002900480156113895780601f1061135e57610100808354040283529160200191611389565b820191906000526020600020905b81548152906001019060200180831161136c57829003601f168201915b5050505050908060020160009054906101000a900460ff16908060090160009054906101000a900460ff16905083565b60106020528060005260406000206000915090505481565b60008060008060008060001515600760009054906101000a900460ff1615151415156113fc57600080fd5b60126000898152602001908152602001600020945061141a85614b51565b151561142557600080fd5b34935061143185614b7f565b925082841015151561144257600080fd5b8460000160009054906101000a900473ffffffffffffffffffffffffffffffffffffffff16915061147288614c72565b61147c8285614a51565b600960008373ffffffffffffffffffffffffffffffffffffffff1673ffffffffffffffffffffffffffffffffffffffff168152602001908152602001600020905060028160010160008960ff1660ff16815260200190815260200160002060010160008154811015156114eb57fe5b90600052602060002090602091828204019190066101000a81548160ff0219169083600381111561151857fe5b02179055503373ffffffffffffffffffffffffffffffffffffffff168760ff167f21b69e57dafb192d2fc9ec6fabee5106b55506c43564934190281e68e3fd43a88360000160405180806020018281038252838181546001816001161561010002031660029004815260200191508054600181600116156101000203166002900480156115e65780601f106115bb576101008083540402835291602001916115e6565b820191906000526020600020905b8154815290600101906020018083116115c957829003601f168201915b50509250505060405180910390a37f4fcc30d90a842164dd58501ab874a101a3749c3d4747139cefe7c876f4ccebd2878433604051808460ff1681526020018381526020018273ffffffffffffffffffffffffffffffffffffffff1673ffffffffffffffffffffffffffffffffffffffff168152602001935050505060405180910390a1829550505050505092915050565b6000809054906101000a900473ffffffffffffffffffffffffffffffffffffffff1673ffffffffffffffffffffffffffffffffffffffff163373ffffffffffffffffffffffffffffffffffffffff161415156116d357600080fd5b6000809054906101000a900473ffffffffffffffffffffffffffffffffffffffff1673ffffffffffffffffffffffffffffffffffffffff166108fc3073ffffffffffffffffffffffffffffffffffffffff16319081150290604051600060405180830381858888f19350505050158015611751573d6000803e3d6000fd5b50565b6000809054906101000a900473ffffffffffffffffffffffffffffffffffffffff1673ffffffffffffffffffffffffffffffffffffffff163373ffffffffffffffffffffffffffffffffffffffff161415156117af57600080fd5b60011515600760009054906101000a900460ff1615151415156117d157600080fd5b6000600760006101000a81548160ff0219169083151502179055507f7805862f689e2f13df9f062ff482ad3ad112aca9e0847911ed832e158c525b3360405160405180910390a1565b6000806000809054906101000a900473ffffffffffffffffffffffffffffffffffffffff1673ffffffffffffffffffffffffffffffffffffffff163373ffffffffffffffffffffffffffffffffffffffff1614151561187857600080fd5b60001515600760009054906101000a900460ff16151514151561189a57600080fd5b60009150600090505b600481111580156118b8575060001515821515145b15611a1e578273ffffffffffffffffffffffffffffffffffffffff166001826005811015156118e357fe5b0160009054906101000a900473ffffffffffffffffffffffffffffffffffffffff1673ffffffffffffffffffffffffffffffffffffffff161415611a1157600060018260058110151561193257fe5b0160006101000a81548173ffffffffffffffffffffffffffffffffffffffff021916908373ffffffffffffffffffffffffffffffffffffffff1602179055506000600660003373ffffffffffffffffffffffffffffffffffffffff1673ffffffffffffffffffffffffffffffffffffffff16815260200190815260200160002060006101000a81548160ff021916908315150217905550600191508273ffffffffffffffffffffffffffffffffffffffff167fdca59b6371f7db6faad5c9931588f735722795c7b8ea859824e0afc8b2c70a4f60405160405180910390a25b80806001019150506118a3565b60011515821515141515611a2e57fe5b505050565b600881815481101515611a4257fe5b90600052602060002090600202016000915090508060000160009054906101000a900473ffffffffffffffffffffffffffffffffffffffff16908060010160009054906101000a90046fffffffffffffffffffffffffffffffff16905082565b600080600080600080600a886040518082805190602001908083835b602083101515611ae35780518252602082019150602081019050602083039250611abe565b6001836020036101000a038019825116818451168082178552505050505050905001915050908152602001604051809103902060009054906101000a900473ffffffffffffffffffffffffffffffffffffffff169250600960008473ffffffffffffffffffffffffffffffffffffffff1673ffffffffffffffffffffffffffffffffffffffff16815260200190815260200160002091508160010160008860ff1660ff16815260200190815260200160002090508060000160009054906101000a90046fffffffffffffffffffffffffffffffff1695508060020160009054906101000a900467ffffffffffffffff1694508060020160089054906101000a900460ff1693505050509250925092565b600b6020528060005260406000206000915054906101000a900460ff1681565b60008060009054906101000a900473ffffffffffffffffffffffffffffffffffffffff1673ffffffffffffffffffffffffffffffffffffffff163373ffffffffffffffffffffffffffffffffffffffff16141515611c7057600080fd5b60001515600760009054906101000a900460ff161515141515611c9257600080fd5b600073ffffffffffffffffffffffffffffffffffffffff168273ffffffffffffffffffffffffffffffffffffffff1614151515611cce57600080fd5b6000809054906101000a900473ffffffffffffffffffffffffffffffffffffffff169050816000806101000a81548173ffffffffffffffffffffffffffffffffffffffff021916908373ffffffffffffffffffffffffffffffffffffffff1602179055508073ffffffffffffffffffffffffffffffffffffffff168273ffffffffffffffffffffffffffffffffffffffff167f1f8d7d25344642d919d55999e4664aa452a5f424bc0936ceb9c2b300db7dcbd960405160405180910390a35050565b60008060009054906101000a900473ffffffffffffffffffffffffffffffffffffffff1673ffffffffffffffffffffffffffffffffffffffff163373ffffffffffffffffffffffffffffffffffffffff161480611e3d575060011515600660003373ffffffffffffffffffffffffffffffffffffffff1673ffffffffffffffffffffffffffffffffffffffff16815260200190815260200160002060009054906101000a900460ff161515145b1515611e4857600080fd5b60011515600b60008473ffffffffffffffffffffffffffffffffffffffff1673ffffffffffffffffffffffffffffffffffffffff16815260200190815260200160002060009054906101000a900460ff161515141515611ea757600080fd5b6000600960008473ffffffffffffffffffffffffffffffffffffffff1673ffffffffffffffffffffffffffffffffffffffff16815260200190815260200160002060020160006101000a81548160ff0219169083151502179055508173ffffffffffffffffffffffffffffffffffffffff167f70e9219a99e9bfc211e7aa1236b656ca826ba23e3e9e5cbdc2f16e0c7eb8fad9600960008573ffffffffffffffffffffffffffffffffffffffff1673ffffffffffffffffffffffffffffffffffffffff16815260200190815260200160002060000160405180806020018281038252838181546001816001161561010002031660029004815260200191508054600181600116156101000203166002900480156120055780601f10611fda57610100808354040283529160200191612005565b820191906000526020600020905b815481529060010190602001808311611fe857829003601f168201915b50509250505060405180910390a260001515600b60008473ffffffffffffffffffffffffffffffffffffffff1673ffffffffffffffffffffffffffffffffffffffff16815260200190815260200160002060009054906101000a905050508173ffffffffffffffffffffffffffffffffffffffff167fe6547a945aa917d8f8b8a71a98062b03570c5ab79d6f47aa64dab5ae6483e0c860405160405180910390a2600b60008373ffffffffffffffffffffffffffffffffffffffff1673ffffffffffffffffffffffffffffffffffffffff16815260200190815260200160002060009054906101000a900460ff169050919050565b601360009054906101000a900473ffffffffffffffffffffffffffffffffffffffff1681565b60008060008060009054906101000a900473ffffffffffffffffffffffffffffffffffffffff1673ffffffffffffffffffffffffffffffffffffffff163373ffffffffffffffffffffffffffffffffffffffff1614151561218057600080fd5b60001515600760009054906101000a900460ff1615151415156121a257600080fd5b600073ffffffffffffffffffffffffffffffffffffffff168473ffffffffffffffffffffffffffffffffffffffff16141515156121de57600080fd5b5b600483111515612269578373ffffffffffffffffffffffffffffffffffffffff1660018460058110151561220f57fe5b0160009054906101000a900473ffffffffffffffffffffffffffffffffffffffff1673ffffffffffffffffffffffffffffffffffffffff16141561225e576002600114151561225d57600080fd5b5b8260010192506121df565b600091505b60048111158015612283575060001515821515145b156123d357600060018260058110151561229957fe5b0160009054906101000a900473ffffffffffffffffffffffffffffffffffffffff1673ffffffffffffffffffffffffffffffffffffffff1614156123c657836001826005811015156122e757fe5b0160006101000a81548173ffffffffffffffffffffffffffffffffffffffff021916908373ffffffffffffffffffffffffffffffffffffffff1602179055506001600660008673ffffffffffffffffffffffffffffffffffffffff1673ffffffffffffffffffffffffffffffffffffffff16815260200190815260200160002060006101000a81548160ff021916908315150217905550600191508373ffffffffffffffffffffffffffffffffffffffff167f39e7d4b9ba48f55a740a5192809dbc498fa12724c030b37dab126a3f6774c0f360405160405180910390a25b808060010191505061226e565b600115158215151415156123e357fe5b50505050565b6000806000600960003373ffffffffffffffffffffffffffffffffffffffff1673ffffffffffffffffffffffffffffffffffffffff1681526020019081526020016000209050600d8160000160405180828054600181600116156101000203166002900480156124905780601f1061246e576101008083540402835291820191612490565b820191906000526020600020905b81548152906001019060200180831161247c575b5050915050908152602001604051809103902060009054906101000a900460ff1615156124bc57600080fd5b60001515600760009054906101000a900460ff1615151415156124de57600080fd5b600960003373ffffffffffffffffffffffffffffffffffffffff1673ffffffffffffffffffffffffffffffffffffffff168152602001908152602001600020915060018260020160006101000a81548160ff02191690831515021790555081600001604051808280546001816001161561010002031660029004801561259b5780601f1061257957610100808354040283529182019161259b565b820191906000526020600020905b815481529060010190602001808311612587575b505091505060405180910390203373ffffffffffffffffffffffffffffffffffffffff167ff355208fd9d312498b0cc4874efc22f43194b1b5e38771b6265a15909b95b84860405160405180910390a360019250505090565b60008060001515600760009054906101000a900460ff16151514151561261957600080fd5b6000600e60003373ffffffffffffffffffffffffffffffffffffffff1673ffffffffffffffffffffffffffffffffffffffff1681526020019081526020016000209050600d8160000160405180828054600181600116156101000203166002900480156126bd5780601f1061269b5761010080835404028352918201916126bd565b820191906000526020600020905b8154815290600101906020018083116126a9575b5050915050908152602001604051809103902060009054906101000a900460ff1615156126e957600080fd5b600e60003373ffffffffffffffffffffffffffffffffffffffff1673ffffffffffffffffffffffffffffffffffffffff16815260200190815260200160002091506002600381111561273757fe5b8260010160008660ff1660ff1681526020019081526020016000206001018681548110151561276257fe5b90600052602060002090602091828204019190069054906101000a900460ff16600381111561278d57fe5b14151561279957600080fd5b6000925060038260010160008660ff1660ff168152602001908152602001600020600101868154811015156127ca57fe5b90600052602060002090602091828204019190066101000a81548160ff021916908360038111156127f757fe5b0217905550600192508360ff16857f8c27a03ba49022d57890c2993ba9a892600fe4449c319742d4cfc8afe51b541d8460000160405180806020018281038252838181546001816001161561010002031660029004815260200191508054600181600116156101000203166002900480156128b35780601f10612888576101008083540402835291602001916128b3565b820191906000526020600020905b81548152906001019060200180831161289657829003601f168201915b50509250505060405180910390a361295e600a8360000160405180828054600181600116156101000203166002900480156129255780601f10612903576101008083540402835291820191612925565b820191906000526020600020905b815481529060010190602001808311612911575b5050915050908152602001604051809103902060009054906101000a900473ffffffffffffffffffffffffffffffffffffffff16614d2e565b505092915050565b6000809054906101000a900473ffffffffffffffffffffffffffffffffffffffff1673ffffffffffffffffffffffffffffffffffffffff163373ffffffffffffffffffffffffffffffffffffffff161415156129c157600080fd5b60001515600760009054906101000a900460ff1615151415156129e357600080fd5b6001600760006101000a81548160ff0219169083151502179055507f6985a02210a168e66602d3235cb6db0e70f92b3ba4d376a33c0f3d9434bff62560405160405180910390a1565b6000806000600960003373ffffffffffffffffffffffffffffffffffffffff1673ffffffffffffffffffffffffffffffffffffffff1681526020019081526020016000209050600d816000016040518082805460018160011615610100020316600290048015612ad35780601f10612ab1576101008083540402835291820191612ad3565b820191906000526020600020905b815481529060010190602001808311612abf575b5050915050908152602001604051809103902060009054906101000a900460ff161515612aff57600080fd5b60001515600760009054906101000a900460ff161515141515612b2157600080fd5b600960003373ffffffffffffffffffffffffffffffffffffffff1673ffffffffffffffffffffffffffffffffffffffff16815260200190815260200160002091506000856fffffffffffffffffffffffffffffffff1610151515612b8457600080fd5b600015158260010160008660ff1660ff16815260200190815260200160002060020160089054906101000a900460ff161515141515612bc257600080fd5b848260010160008660ff1660ff16815260200190815260200160002060000160006101000a8154816fffffffffffffffffffffffffffffffff02191690836fffffffffffffffffffffffffffffffff160217905550816000016040518082805460018160011615610100020316600290048015612c765780601f10612c54576101008083540402835291820191612c76565b820191906000526020600020905b815481529060010190602001808311612c62575b505091505060405180910390208460ff167f630a01f7d64713a78064208ae7bed35bf6ad95a924703f5c2ce1f0351cca1a858760405180826fffffffffffffffffffffffffffffffff166fffffffffffffffffffffffffffffffff16815260200191505060405180910390a3849250505092915050565b6000806000806000600e60003373ffffffffffffffffffffffffffffffffffffffff1673ffffffffffffffffffffffffffffffffffffffff1681526020019081526020016000209050600d816000016040518082805460018160011615610100020316600290048015612d975780601f10612d75576101008083540402835291820191612d97565b820191906000526020600020905b815481529060010190602001808311612d83575b5050915050908152602001604051809103902060009054906101000a900460ff161515612dc357600080fd5b60001515600760009054906101000a900460ff161515141515612de557600080fd5b600e60003373ffffffffffffffffffffffffffffffffffffffff1673ffffffffffffffffffffffffffffffffffffffff1681526020019081526020016000209350858460010160008960ff1660ff16815260200190815260200160002060020160008282829054906101000a900467ffffffffffffffff160192506101000a81548167ffffffffffffffff021916908367ffffffffffffffff1602179055508360010160008860ff1660ff16815260200190815260200160002060020160089054906101000a900460ff16925060001515831515141515612ec557600080fd5b5b8567ffffffffffffffff16821015612f52578360010160008860ff1660ff1681526020019081526020016000206001016000908060018154018082558091505090600182039060005260206000209060209182820401919006909192909190916101000a81548160ff02191690836003811115612f3f57fe5b0217905550508180600101925050612ec6565b8660ff167fdb3cb3bd3aa8b0116684a1673c77eb69da47689f478ec18c9b1b42042bff3ebc8560010160008a60ff1660ff16815260200190815260200160002060020160009054906101000a900467ffffffffffffffff16604051808267ffffffffffffffff1667ffffffffffffffff16815260200191505060405180910390a28360010160008860ff1660ff16815260200190815260200160002060020160009054906101000a900467ffffffffffffffff1694505050505092915050565b60008061301d6150df565b6000801515600760009054906101000a900460ff16151514151561304057600080fd5b6000600e60003373ffffffffffffffffffffffffffffffffffffffff1673ffffffffffffffffffffffffffffffffffffffff1681526020019081526020016000209050600d8160000160405180828054600181600116156101000203166002900480156130e45780601f106130c25761010080835404028352918201916130e4565b820191906000526020600020905b8154815290600101906020018083116130d0575b5050915050908152602001604051809103902060009054906101000a900460ff16151561311057600080fd5b600e60003373ffffffffffffffffffffffffffffffffffffffff1673ffffffffffffffffffffffffffffffffffffffff1681526020019081526020016000209350608060405190810160405280886fffffffffffffffffffffffffffffffff16815260200160006040519080825280602002602001820160405280156131a55781602001602082028038833980820191505090505b5081526020018767ffffffffffffffff1681526020016000151581525092508360090160009054906101000a900460ff169450828460010160008760ff1660ff16815260200190815260200160002060008201518160000160006101000a8154816fffffffffffffffffffffffffffffffff02191690836fffffffffffffffffffffffffffffffff160217905550602082015181600101908051906020019061324f929190615126565b5060408201518160020160006101000a81548167ffffffffffffffff021916908367ffffffffffffffff16021790555060608201518160020160086101000a81548160ff02191690831515021790555090505083600901600081819054906101000a900460ff168092919060010191906101000a81548160ff021916908360ff160217905550505b8567ffffffffffffffff16821015613363578360010160008660ff1660ff1681526020019081526020016000206001016000908060018154018082558091505090600182039060005260206000209060209182820401919006909192909190916101000a81548160ff0219169083600381111561335057fe5b02179055505081806001019250506132d7565b8360000160405180828054600181600116156101000203166002900480156133c25780601f106133a05761010080835404028352918201916133c2565b820191906000526020600020905b8154815290600101906020018083116133ae575b505091505060405180910390207f2cce3c7d7df1dc3800ffe78d254642769c0310fced2b71ad898a32370de24ef986604051808260ff16815260200191505060405180910390a28494505050505092915050565b600c6020528060005260406000206000915054906101000a900460ff1681565b6000806000801515600760009054906101000a900460ff16151514151561345c57600080fd5b6000600e60003373ffffffffffffffffffffffffffffffffffffffff1673ffffffffffffffffffffffffffffffffffffffff1681526020019081526020016000209050600d8160000160405180828054600181600116156101000203166002900480156135005780601f106134de576101008083540402835291820191613500565b820191906000526020600020905b8154815290600101906020018083116134ec575b5050915050908152602001604051809103902060009054906101000a900460ff16151561352c57600080fd5b600e60003373ffffffffffffffffffffffffffffffffffffffff1673ffffffffffffffffffffffffffffffffffffffff168152602001908152602001600020935060009250600191505b6005821115801561358b575060001515831515145b1561362957600084600301836006811015156135a357fe5b0160009054906101000a900473ffffffffffffffffffffffffffffffffffffffff1673ffffffffffffffffffffffffffffffffffffffff16141561361c578473ffffffffffffffffffffffffffffffffffffffff16846003018360068110151561360957fe5b0160009054906101000a90505050600192505b8180600101925050613576565b6001151583151514151561363957fe5b8360000160405180828054600181600116156101000203166002900480156136985780601f10613676576101008083540402835291820191613698565b820191906000526020600020905b815481529060010190602001808311613684575b505091505060405180910390207fdca8ee980ba41d88dec0b4c222b29abe66398c56059a90c3bb7f5a597c7d91be86604051808273ffffffffffffffffffffffffffffffffffffffff1673ffffffffffffffffffffffffffffffffffffffff16815260200191505060405180910390a25050505050565b600080600960008473ffffffffffffffffffffffffffffffffffffffff1673ffffffffffffffffffffffffffffffffffffffff16815260200190815260200160002090508060020160009054906101000a900460ff16915050919050565b60006137776151d5565b60008060009054906101000a900473ffffffffffffffffffffffffffffffffffffffff1673ffffffffffffffffffffffffffffffffffffffff163373ffffffffffffffffffffffffffffffffffffffff161480613824575060011515600660003373ffffffffffffffffffffffffffffffffffffffff1673ffffffffffffffffffffffffffffffffffffffff16815260200190815260200160002060009054906101000a900460ff161515145b151561382f57600080fd5b60001515600760009054906101000a900460ff16151514151561385157600080fd5b60001515600b60008673ffffffffffffffffffffffffffffffffffffffff1673ffffffffffffffffffffffffffffffffffffffff16815260200190815260200160002060009054906101000a900460ff1615151415156138b057600080fd5b60408051908101604052808573ffffffffffffffffffffffffffffffffffffffff16815260200160006fffffffffffffffffffffffffffffffff16815250915060016008839080600181540180825580915050906001820390600052602060002090600202016000909192909190915060008201518160000160006101000a81548173ffffffffffffffffffffffffffffffffffffffff021916908373ffffffffffffffffffffffffffffffffffffffff16021790555060208201518160010160006101000a8154816fffffffffffffffffffffffffffffffff02191690836fffffffffffffffffffffffffffffffff16021790555050500390506001600b60008673ffffffffffffffffffffffffffffffffffffffff1673ffffffffffffffffffffffffffffffffffffffff16815260200190815260200160002060006101000a81548160ff0219169083151502179055508373ffffffffffffffffffffffffffffffffffffffff167f64a6cb4c2615e9c9ee211131f9fc94aaa6238a3c255423b75ba43ef01ca42dcd60405160405180910390a28092505050919050565b600080613a5b6150df565b600080600060011515600660003373ffffffffffffffffffffffffffffffffffffffff1673ffffffffffffffffffffffffffffffffffffffff16815260200190815260200160002060009054906101000a900460ff161515141515613abf57600080fd5b60001515600760009054906101000a900460ff161515141515613ae157600080fd5b600e60003373ffffffffffffffffffffffffffffffffffffffff1673ffffffffffffffffffffffffffffffffffffffff16815260200190815260200160002094506080604051908101604052808a6fffffffffffffffffffffffffffffffff1681526020016000604051908082528060200260200182016040528015613b765781602001602082028038833980820191505090505b508152602001600167ffffffffffffffff1681526020016001151581525093508460090160009054906101000a900460ff169250838560010160008560ff1660ff16815260200190815260200160002060008201518160000160006101000a8154816fffffffffffffffffffffffffffffffff02191690836fffffffffffffffffffffffffffffffff1602179055506020820151816001019080519060200190613c21929190615126565b5060408201518160020160006101000a81548167ffffffffffffffff021916908367ffffffffffffffff16021790555060608201518160020160086101000a81548160ff02191690831515021790555090505060018560090160008282829054906101000a900460ff160192506101000a81548160ff021916908360ff160217905550600a856000016040518082805460018160011615610100020316600290048015613d055780601f10613ce3576101008083540402835291820191613d05565b820191906000526020600020905b815481529060010190602001808311613cf1575b5050915050908152602001604051809103902060009054906101000a900473ffffffffffffffffffffffffffffffffffffffff1691508460010160008460ff1660ff1681526020019081526020016000206001016001908060018154018082558091505090600182039060005260206000209060209182820401919006909192909190916101000a81548160ff02191690836003811115613da257fe5b0217905550506011549050600160115401601181905550613dd089898967ffffffffffffffff168585614e06565b846000016040518082805460018160011615610100020316600290048015613e2f5780601f10613e0d576101008083540402835291820191613e2f565b820191906000526020600020905b815481529060010190602001808311613e1b575b505091505060405180910390207ff36840d47ad7293fb7696ae2295903ce8f79944fa7923223f824eabacee772d4826040518082815260200191505060405180910390a285955050505050509392505050565b6060613e8c615217565b613e9461523a565b60001515600760009054906101000a900460ff161515141515613eb657600080fd5b60011515600b60003373ffffffffffffffffffffffffffffffffffffffff1673ffffffffffffffffffffffffffffffffffffffff16815260200190815260200160002060009054906101000a900460ff161515141515613f1557600080fd5b60001515600c60003373ffffffffffffffffffffffffffffffffffffffff1673ffffffffffffffffffffffffffffffffffffffff16815260200190815260200160002060009054906101000a900460ff161515141515613f7457600080fd5b60001515600d856040518082805190602001908083835b602083101515613fb05780518252602082019150602081019050602083039250613f8b565b6001836020036101000a038019825116818451168082178552505050505050905001915050908152602001604051809103902060009054906101000a900460ff161515141515613fff57600080fd5b608060405190810160405280858152602001600015158152602001838152602001600060ff16815250905080600960003373ffffffffffffffffffffffffffffffffffffffff1673ffffffffffffffffffffffffffffffffffffffff168152602001908152602001600020600082015181600001908051906020019061408692919061526f565b5060208201518160020160006101000a81548160ff0219169083151502179055506040820151816003019060066140be9291906152ef565b5060608201518160090160006101000a81548160ff021916908360ff16021790555090505033600a82600001516040518082805190602001908083835b60208310151561412057805182526020820191506020810190506020830392506140fb565b6001836020036101000a038019825116818451168082178552505050505050905001915050908152602001604051809103902060006101000a81548173ffffffffffffffffffffffffffffffffffffffff021916908373ffffffffffffffffffffffffffffffffffffffff1602179055506001600d82600001516040518082805190602001908083835b6020831015156141cf57805182526020820191506020810190506020830392506141aa565b6001836020036101000a038019825116818451168082178552505050505050905001915050908152602001604051809103902060006101000a81548160ff021916908315150217905550338160400151600060068110151561422d57fe5b602002019073ffffffffffffffffffffffffffffffffffffffff16908173ffffffffffffffffffffffffffffffffffffffff16815250506001600c60003373ffffffffffffffffffffffffffffffffffffffff1673ffffffffffffffffffffffffffffffffffffffff16815260200190815260200160002060006101000a81548160ff02191690831515021790555080600001516040518082805190602001908083835b6020831015156142f657805182526020820191506020810190506020830392506142d1565b6001836020036101000a03801982511681845116808217855250505050505090500191505060405180910390203373ffffffffffffffffffffffffffffffffffffffff167fa7a7f9a1330b838be79b751ee060f9db022a74c4288f770bb54d328e8e4c11a760405160405180910390a3806000015192505050919050565b60008060009054906101000a900473ffffffffffffffffffffffffffffffffffffffff1673ffffffffffffffffffffffffffffffffffffffff163373ffffffffffffffffffffffffffffffffffffffff161415156143d157600080fd5b81905080600f60006101000a81548173ffffffffffffffffffffffffffffffffffffffff021916908373ffffffffffffffffffffffffffffffffffffffff1602179055505050565b600f60009054906101000a900473ffffffffffffffffffffffffffffffffffffffff1681565b6000809054906101000a900473ffffffffffffffffffffffffffffffffffffffff1681565b600080601260008460ff168152602001908152602001600020905061448881614b51565b151561449357600080fd5b61449c81614b7f565b915050919050565b600080600080600960003373ffffffffffffffffffffffffffffffffffffffff1673ffffffffffffffffffffffffffffffffffffffff1681526020019081526020016000209050600d81600001604051808280546001816001161561010002031660029004801561454c5780601f1061452a57610100808354040283529182019161454c565b820191906000526020600020905b815481529060010190602001808311614538575b5050915050908152602001604051809103902060009054906101000a900460ff16151561457857600080fd5b60001515600760009054906101000a900460ff16151514151561459a57600080fd5b600960003373ffffffffffffffffffffffffffffffffffffffff1673ffffffffffffffffffffffffffffffffffffffff168152602001908152602001600020935060009250600191505b600582111580156145f9575060001515831515145b15614697578473ffffffffffffffffffffffffffffffffffffffff16846003018360068110151561462657fe5b0160009054906101000a900473ffffffffffffffffffffffffffffffffffffffff1673ffffffffffffffffffffffffffffffffffffffff16141561468a576000846003018360068110151561467757fe5b0160009054906101000a90505050600192505b81806001019250506145e4565b600115158315151415156146a757fe5b8360000160405180828054600181600116156101000203166002900480156147065780601f106146e4576101008083540402835291820191614706565b820191906000526020600020905b8154815290600101906020018083116146f2575b505091505060405180910390207f98629ba0c60b4974223d2f7684841bf2f71d2ecebd4c82a490d9cfe73132de5b86604051808273ffffffffffffffffffffffffffffffffffffffff1673ffffffffffffffffffffffffffffffffffffffff16815260200191505060405180910390a25050505050565b600080600080600080601260008860ff16815260200190815260200160002090506147a781614b51565b15156147b257600080fd5b8060000160009054906101000a900473ffffffffffffffffffffffffffffffffffffffff168160010160009054906101000a90046fffffffffffffffffffffffffffffffff168260010160109054906101000a90046fffffffffffffffffffffffffffffffff168360020160009054906101000a900467ffffffffffffffff168460020160089054906101000a900467ffffffffffffffff16836fffffffffffffffffffffffffffffffff169350826fffffffffffffffffffffffffffffffff1692508167ffffffffffffffff1691508067ffffffffffffffff169050955095509550955095505091939590929450565b60008060008060008060009450600a876040518082805190602001908083835b6020831015156148e857805182526020820191506020810190506020830392506148c3565b6001836020036101000a038019825116818451168082178552505050505050905001915050908152602001604051809103902060009054906101000a900473ffffffffffffffffffffffffffffffffffffffff169250600960008473ffffffffffffffffffffffffffffffffffffffff1673ffffffffffffffffffffffffffffffffffffffff16815260200190815260200160002091505b8160010160008960ff1660ff16815260200190815260200160002060010180549050811080156149b4575060001515851515145b15614a3357600060038111156149c657fe5b8260010160008a60ff1660ff168152602001908152602001600020600101828154811015156149f157fe5b90600052602060002090602091828204019190069054906101000a900460ff166003811115614a1c57fe5b1415614a26578093505b8080600101915050614980565b60011515851515141515614a4357fe5b839550505050505092915050565b803073ffffffffffffffffffffffffffffffffffffffff163110151515614a7757600080fd5b600f60009054906101000a900473ffffffffffffffffffffffffffffffffffffffff1673ffffffffffffffffffffffffffffffffffffffff1663f340fa0182846040518363ffffffff167c0100000000000000000000000000000000000000000000000000000000028152600401808273ffffffffffffffffffffffffffffffffffffffff1673ffffffffffffffffffffffffffffffffffffffff1681526020019150506000604051808303818588803b158015614b3457600080fd5b505af1158015614b48573d6000803e3d6000fd5b50505050505050565b6000808260020160089054906101000a900467ffffffffffffffff1667ffffffffffffffff16119050919050565b600080600090508260020160089054906101000a900467ffffffffffffffff1667ffffffffffffffff16421115614bd8578260020160089054906101000a900467ffffffffffffffff1667ffffffffffffffff16420390505b614c6a8360010160009054906101000a90046fffffffffffffffffffffffffffffffff166fffffffffffffffffffffffffffffffff168460010160109054906101000a90046fffffffffffffffffffffffffffffffff166fffffffffffffffffffffffffffffffff168560020160009054906101000a900467ffffffffffffffff1667ffffffffffffffff1684614eba565b915050919050565b60126000828152602001908152602001600020600080820160006101000a81549073ffffffffffffffffffffffffffffffffffffffff02191690556001820160006101000a8154906fffffffffffffffffffffffffffffffff02191690556001820160106101000a8154906fffffffffffffffffffffffffffffffff02191690556002820160006101000a81549067ffffffffffffffff02191690556002820160086101000a81549067ffffffffffffffff0219169055505050565b600f60009054906101000a900473ffffffffffffffffffffffffffffffffffffffff1673ffffffffffffffffffffffffffffffffffffffff166351cff8d9826040518263ffffffff167c0100000000000000000000000000000000000000000000000000000000028152600401808273ffffffffffffffffffffffffffffffffffffffff1673ffffffffffffffffffffffffffffffffffffffff168152602001915050600060405180830381600087803b158015614deb57600080fd5b505af1158015614dff573d6000803e3d6000fd5b5050505050565b614e0e61536c565b60001515600760009054906101000a900460ff161515141515614e3057600080fd5b60a0604051908101604052808473ffffffffffffffffffffffffffffffffffffffff168152602001876fffffffffffffffffffffffffffffffff168152602001866fffffffffffffffffffffffffffffffff1681526020018567ffffffffffffffff1681526020014267ffffffffffffffff168152509050614eb28282614efa565b505050505050565b6000806000808585101515614ed157869350614eef565b878703925085858402811515614ee357fe5b05915081880190508093505b505050949350505050565b603c816060015167ffffffffffffffff1610151515614f1857600080fd5b806012600084815260200190815260200160002060008201518160000160006101000a81548173ffffffffffffffffffffffffffffffffffffffff021916908373ffffffffffffffffffffffffffffffffffffffff16021790555060208201518160010160006101000a8154816fffffffffffffffffffffffffffffffff02191690836fffffffffffffffffffffffffffffffff16021790555060408201518160010160106101000a8154816fffffffffffffffffffffffffffffffff02191690836fffffffffffffffffffffffffffffffff16021790555060608201518160020160006101000a81548167ffffffffffffffff021916908367ffffffffffffffff16021790555060808201518160020160086101000a81548167ffffffffffffffff021916908367ffffffffffffffff1602179055509050507fa9c8dfcda5664a5a124c713e386da27de87432d5b668e79458501eb296389ba78282602001516fffffffffffffffffffffffffffffffff1683604001516fffffffffffffffffffffffffffffffff16846060015167ffffffffffffffff166040518085815260200184815260200183815260200182815260200194505050505060405180910390a15050565b60806040519081016040528060006fffffffffffffffffffffffffffffffff16815260200160608152602001600067ffffffffffffffff1681526020016000151581525090565b82805482825590600052602060002090601f016020900481019282156151c45791602002820160005b8382111561519557835183826101000a81548160ff0219169083600381111561517457fe5b0217905550926020019260010160208160000104928301926001030261514f565b80156151c25782816101000a81549060ff0219169055600101602081600001049283019260010302615195565b505b5090506151d191906153ea565b5090565b6040805190810160405280600073ffffffffffffffffffffffffffffffffffffffff16815260200160006fffffffffffffffffffffffffffffffff1681525090565b60c060405190810160405280600690602082028038833980820191505090505090565b610120604051908101604052806060815260200160001515815260200161525f61541a565b8152602001600060ff1681525090565b828054600181600116156101000203166002900490600052602060002090601f016020900481019282601f106152b057805160ff19168380011785556152de565b828001600101855582156152de579182015b828111156152dd5782518255916020019190600101906152c2565b5b5090506152eb919061543d565b5090565b826006810192821561535b579160200282015b8281111561535a5782518260006101000a81548173ffffffffffffffffffffffffffffffffffffffff021916908373ffffffffffffffffffffffffffffffffffffffff16021790555091602001919060010190615302565b5b5090506153689190615462565b5090565b60a060405190810160405280600073ffffffffffffffffffffffffffffffffffffffff16815260200160006fffffffffffffffffffffffffffffffff16815260200160006fffffffffffffffffffffffffffffffff168152602001600067ffffffffffffffff168152602001600067ffffffffffffffff1681525090565b61541791905b8082111561541357600081816101000a81549060ff0219169055506001016153f0565b5090565b90565b60c060405190810160405280600690602082028038833980820191505090505090565b61545f91905b8082111561545b576000816000905550600101615443565b5090565b90565b6154a291905b8082111561549e57600081816101000a81549073ffffffffffffffffffffffffffffffffffffffff021916905550600101615468565b5090565b905600a165627a7a72305820db37d3c95c5ed9d5ad64335d0d6a56b15d559125b329e8a5495466062d71b9410029",
  "source": "pragma solidity ^0.4.24;\n\nimport \"./StoreAuction.sol\";\n\n/**\n  * @dev This contract represents a store in the Maat's network of stores. It\n  * is deployed from the StoreFactory contract\n  * @author Eric Brown (https://github.com/ericbrown99)\n  */\n\n  contract StoreCore is StoreAuction {\n    /*  Needs to be implemented:\n        - This is the core contract which manages all of the subcontracts. Use\n          this contract to create the constructor and implement upgradable\n          design patterns\n        - Manage\n        - Lookup function to find the addreses of owners associated with stores so\n          that Maats leadership can act on stores which aren't active\n    */\n\n    // For upgradeability\n    address public newContractAddress;\n    // emit event if funds donated to contract (don't take cut of sales)\n    event LogFundsReceived(address indexed _sender,uint _value);\n\n    /// @dev set the pause vaiable to true when creating the contract. THe owner\n    /// must ensure that the proper escrow contract is linked to the contract\n    /// and that the proxy has connected to the contract before unpausing the\n    /// contract as a security measure.\n\n    constructor() public{\n      pause = true;\n      maatsOwner == msg.sender;\n    }\n\n    /// @dev Fall back function with donations allowed\n    function() external payable{\n      if (msg.value >= 0){\n        emit LogFundsReceived(msg.sender, msg.value);\n      }\n    }\n\n    /// @dev Checks that the store is actually open for interactions\n    function isStoreOpen(address _storeOwner)\n      public\n      view\n      returns(bool _open){\n          Store storage _store = OwnerToStore[_storeOwner];\n          _open = _store.open;\n    }\n\n    /// @dev Allows us to see the properties of a product\n    function getProduct(string _storeName, uint8 productId)\n      public\n      view\n      returns(\n        uint128 _price,\n        uint64 _inventory,\n        bool _auction\n        ){\n          address _owner = StoreNameToOwner[_storeName];\n          Store storage _store = OwnerToStore[_owner];\n          Product storage _product = _store.products[productId];\n          _price = _product.price;\n          _inventory = _product.inventory;\n          _auction = _product.auction;\n        }\n\n\n  }\n",
  "sourcePath": "/Users/ericbrown/Documents/Blockchain/ConsenSysCourse/Maats/contracts/StoreCore.sol",
  "compiler": {
    "name": "solc",
    "version": "0.4.24+commit.e67f0147.Emscripten.clang"
  },
  "schemaVersion": "2.0.1",
  "updatedAt": "2018-07-27T16:53:36.148Z"
}